:020000040000FA
:040000000EEF00F00F
:0400080004EF48F0C9
:100018000CEF48F0D6EF2AF00E500C24D96E0F5092
:100028000D20DA6E3A0EDE18D8B405D00C680D68CB
:100038000E680F681200020E0E24146E000E0F20B8
:10004800156E14500C24D96E15500D20DA6EDF5041
:10005800036E010E0E24166E000E0F20176E16503A
:100068000C24D96E17500D20DA6EDF501EEC3EF0CE
:10007800186E196A12C0D9FF13C0DAFF18C0DEFF64
:1000880019C0DDFF12C0D9FF13C0DAFF010EDB5023
:1000980004E1110EDE5CD8A009D0FC0E0C6EFF0E38
:1000A8000D6EFF0E0E6EFF0E0F6E1200040E0E2464
:1000B800146E000E0F20156E14500C24D96E1550B6
:1000C8000D20DA6EDF50036E050E0E24166E000E3C
:1000D8000F20176E16500C24D96E17500D20DA6EAB
:1000E800DF50046E060E0E24186E000E0F20196ED7
:1000F80018500C24D96E19500D20DA6EDF50056E99
:10010800030E0E241A6E000E0F201B6E1A500C24BC
:10011800D96E1B500D20DA6EDF5086EC33F020EEDE
:1001280002F01250D9261350DA2203C0DEFF04C0B1
:10013800DDFF20EE04F01250D9261350DA22080E03
:100148000E24146E000E0F20156E14500C24E16E50
:1001580015500D20E26EE750036E070E0E24166E42
:10016800000E0F20176E16500C24E16E17500D204C
:10017800E26EE7501EEC3EF0DF6E000E1C6E3DD0C6
:100188001C50010D050EF326000EF422F350122424
:10019800D96EF4501320DA6E1C501CC014F0156A86
:1001A8001426000E15220E5014260F5015220A0E82
:1001B8001426000E152214500C24E16E15500D2043
:1001C800E26EE750036E1C501CC016F0176A162624
:1001D800000E17220E5016260F501722090E16264B
:1001E800000E172216500C24E16E17500D20E26EF7
:1001F800E7501EEC3EF0DF6E1C2A12C0D9FF13C078
:10020800DAFF1C50166E176ADE50165CDE5017585F
:10021800D8A0B6D720EE15F01250D9261350DA22FE
:100228001C501CC014F0156A1426000E15220E501E
:1002380014260F5015220A0E1426000E15221450EB
:100248000C24E16E15500D20E26EE750036E1C5031
:100258001CC016F0176A1626000E17220E50162616
:100268000F501722090E1626000E172216500C24BE
:10027800E16E17500D20E26EE7501EEC3EF0DF6E87
:1002880012C0D9FF13C0DAFF10EE16F01250E126A3
:100298001350E222DFCFE7FF20EE02F01250D926FA
:1002A8001350DA22DECF14F0DDCF15F015C014F0AC
:1002B800156A20EE16F01250D9261350DA2214507F
:1002C800DF2620EE02F01250D9261350DA22DF5032
:1002D800146E20EE16F01250D9261350DA2214505C
:1002E800DF2620EE04F01250D9261350DA22DF5010
:1002F800146E20EE16F01250D9261350DA2214503C
:10030800DF26000E1C6E17D01C50010D050EF326BB
:10031800000EF422F3501224D96EF4501320DA6E32
:10032800DF50146E20EE16F01250D9261350DA2240
:100338001450DF261C2A12C0D9FF13C0DAFF1C5044
:10034800166E176ADE50165CDE501758D8A0DCD738
:1003580020EE15F01250D9261350DA22DF50146E11
:1003680020EE16F01250D9261350DA221450DF2648
:1003780020EE16F01250D9261350DA22DF50D8B4E6
:1003880009D0FE0E0C6EFF0E0D6EFF0E0E6EFF0EE8
:100398000F6E120020EE04F01250D9261350DA2204
:1003A800DE04D8A409D0000E0C6E000E0D6E000EEF
:1003B8000E6E000E0F6E12001C501CC014F0156A51
:1003C8001426000E15220B0E1424166E000E15208E
:1003D800176E186A17BE18061850196E16500E2692
:1003E80017500F221850102219501122010E0E26F4
:1003F800000E0F22102211220E500C24D96E0F501D
:100408000D20DA6E3A0EDE18D8A409D00EC00CF012
:100418000FC00DF010C00EF011C00FF01200010E49
:100428000E26000E0F22102211220E500C24D96E17
:100438000F500D20DA6E3A0EDE18D8A409D00EC07F
:100448000CF00FC00DF010C00EF011C00FF012002C
:10045800010E0E26000E0F22102211220E500C241F
:10046800D96E0F500D20DA6E3A0EDE18D8A409D0D6
:100478000EC00CF00FC00DF010C00EF011C00FF040
:100488001200FD0E0C6EFF0E0D6EFF0E0E6EFF0EAF
:100498000F6E1200B9D18EEC15F00009D8A4120025
:1004A8000001A16912007FEC0AF00009D8A412002B
:1004B8000001A16912009B05D8A402D0A16912000D
:1004C80012C187F013C186F086C00BF087C00CF00C
:1004D8000D6A0E6A86EC24F00009D8A41200000EFA
:1004E800026E240E016E11EC2EF0000E016E060E47
:1004F800026E490E036E8F0E046E03500410D8A4CA
:10050800000E056E000E076E240E066E9FEC35F089
:10051800FD0E0001A16F1200F0C101F0F1C102F05F
:1005280001D80AD00500FA6E0101E451FD6EE551CB
:10053800FE6EFF6AFA50120001C043F002C044F098
:1005480003C045F004C046F0F0C101F0F1C102F06B
:1005580001D80AD00500FA6E0101E651FD6EE75197
:10056800FE6EFF6AFA50120001C03FF002C040F070
:10057800416A426A26EE00F046C0DFFF26EE01F02F
:1005880045C0DFFF26EE02F044C0DFFF26EE03F091
:1005980043C0DFFF26EE04F042C0DFFF26EE05F081
:1005A80041C0DFFF26EE06F040C0DFFF26EE07F071
:1005B8003FC0DFFF000E0001876F080E866F000E38
:1005C800026E080E016E11EC2EF0FD0E0001A16FF7
:1005D80012009B05D8A402D0A1691200000E876FF3
:1005E800120E866F000E026E120E016E11EC2EF0C6
:1005F800000E476E110E476401D014D04750010D0C
:100608001F0EF324D96E010EF420DA6E4750010D47
:10061800000EF324E16E060EF420E26EDFCFE7FF52
:10062800472AE8D7FD0E0001A16F1200030EE8CF9C
:1006380000F6000EE8CF01F6F0C101F0F1C102F0BA
:1006480001D80AD00500FA6E0101EC51FD6EED519A
:10065800FE6EFF6AFA5012000009D8A404D0000EFA
:100668003D6E000E03D0000E3D6E800E3C6E26EEF1
:1006780002F03CC0DFFF000EE8CF03F6000E0001D9
:10068800876F040E866F000E026E040E016E11EC69
:100698002EF0FD0E0001A16F120001012151F00B97
:1006A8000509216F200E2B6F000E2C6F010E0D0116
:1006B8008C6F000E886F000E896F000E8A6F000E17
:1006C8008B6F0001A1691200000E0B6E000E0C6EFC
:1006D800000E0D6E000E0E6E86EC24F00009D8A4F4
:1006E8001200010121510F0B060AD8A407D00D01F1
:1006F8008C05D8A403D00001A169120003EC36F0E0
:10070800000E0D01886F000E896F000E8A6F000EB3
:100718008B6F0001A1691200000E0D01886F000E99
:10072800896F000E8A6F000E8B6F0001A16912009D
:1007380088518911D8B406D088C0D9FF89C0DAFF9A
:10074800DFBE120001010B510A11091104E1400E2C
:10075800085DD8A009D0400E3E6E400E085F000E1E
:10076800095B0A5B0B5B0AD008C13EF0000E086FFC
:10077800000E096F000E0A6F000E0B6F3E503A6EA6
:100788003B6A3A500001865D3B508759D8A005D096
:100798003E50865F000E875B1AD0000E476E13D05E
:1007A80086518711D8B404D08607D8A087070AD005
:1007B8004750010D000EF324D96E060EF420DA6EB0
:1007C800000EDF6E472A3E50475CD8A0E9D7010EDD
:1007D800016E000E026E060E036E3EC004F0020E9D
:1007E80032EC22F001C088F002C089F00101085102
:1007F80009110A110B11D8A412000001A1691200F5
:100808007F0E2DEC21F012000001A151000AD8B48E
:100818005BD7030AD8B4DDD6110AD8B44CD6080A77
:10082800D8B404D7010AD8B477D7050AD8B435D7CD
:100838003B0AD8B471D60D0AD8B42DD6020AD8B45A
:1008480032D6050AD8B468D7D20AD8B471D7030A01
:10085800D7D72250211011E1800E205CD8B00DD0DE
:100868001FC019F020C01AF01B6A1C6A23C01DF0B3
:1008780024C01EF0DFEC27F012001F04E10E205800
:10088800F50E2158050E2258D8A04CD023C011F0DF
:1008980024C012F01FC001F020C002F021C003F0F4
:1008A80022C004F0100E056E270E066E000E076EAD
:1008B800000E086E28EC31F001C013F002C014F0ED
:1008C800000E166E0A0E156E28EC3AF0050E23245B
:1008D800116E000E2420126E1FC001F020C002F01D
:1008E80021C003F022C004F0100E056E270E066E1C
:1008F800000E076E000E086E6CEC35F001C013F0A8
:1009080002C014F0000E166E0A0E156E28EC3AF0AE
:1009180020EE09F02350D9262450DA22200EDF6E6B
:10092800090E1200225008E1810E1F5C960E205815
:10093800980E2158D8A04CD023C011F024C012F032
:100948001FC001F020C002F021C003F022C004F053
:10095800100E056E270E066E000E076E000E086E4E
:1009680028EC31F001C013F002C014F0000E166E2E
:100978000A0E156E28EC3AF0040E2324116E000EB0
:100988002420126E1FC001F020C002F021C003F025
:1009980022C004F0100E056E270E066E000E076EBC
:1009A800000E086E6CEC35F001C013F002C014F0B4
:1009B800000E166E0A0E156E28EC3AF020EE08F0BE
:1009C8002350D9262450DA22200EDF6E080E12009A
:1009D800225008E1410E1F5C420E20580F0E21588C
:1009E800D8A04CD023C011F024C012F01FC001F0D1
:1009F80020C002F021C003F022C004F0100E056EE2
:100A0800270E066E000E076E000E086E28EC31F0F9
:100A180001C013F002C014F0000E166E0A0E156E17
:100A280028EC3AF0030E2324116E000E2420126ED7
:100A38001FC001F020C002F021C003F022C004F062
:100A4800100E056E270E066E000E076E000E086E5D
:100A58006CEC35F001C013F002C014F0000E166EF5
:100A68000A0E156E28EC3AF020EE07F02350D9262E
:100A78002450DA22200EDF6E070E1200225008E101
:100A8800A10E1F5C860E2058010E2158D8A04CD00C
:100A980023C011F024C012F01FC001F020C002F0E2
:100AA80021C003F022C004F0100E056E270E066E5A
:100AB800000E076E000E086E28EC31F001C013F02E
:100AC80002C014F0000E166E0A0E156E28EC3AF0ED
:100AD800020E2324116E000E2420126E1FC001F096
:100AE80020C002F021C003F022C004F0100E056EF1
:100AF800270E066E000E076E000E086E6CEC35F0C1
:100B080001C013F002C014F0000E166E0A0E156E26
:100B180028EC3AF020EE06F02350D9262450DA22A9
:100B2800200EDF6E060E120023C011F024C012F052
:100B38001FC001F020C002F021C003F022C004F061
:100B4800100E056E270E066E000E076E000E086E5C
:100B580028EC31F001C013F002C014F0000E166E3C
:100B68000A0E156E28EC3AF0010E2324116E000EC1
:100B78002420126E1FC001F020C002F021C003F033
:100B880022C004F0100E056E270E066E000E076ECA
:100B9800000E086E6CEC35F001C013F002C014F0C2
:100BA800000E166E0A0E156E28EC3AF020EE05F0CF
:100BB8002350D9262450DA22200EDF6E050E1200AB
:100BC800000E0001F46F000EF36F000EE86F000EC8
:100BD800E96F000EEA6F000EEB6F7CC055F07DC028
:100BE80056F07EC057F07FC058F0551E561E571E4F
:100BF800581E552A000E56225722582200017851B5
:100C08005524596E795156205A6E7A5157205B6E89
:100C18007B5158205C6E5C505B105A1004E1320E18
:100C2800595CD8A018D07CC03FF07DC040F07EC091
:100C380041F07FC042F0320E436E000E446E000E4B
:100C4800456E000E466EC00E476E020E486EFE518F
:100C58007BEC0FF02DD07CC03FF07DC040F07EC013
:100C680041F07FC042F07CC055F07DC056F07EC098
:100C780057F07FC058F0551E561E571E581E552A4D
:100C8800000E562257225822000178515524436EEF
:100C980079515620446E7A515720456E7B51582021
:100CA800466EC00E476E020E486EFE517BEC0FF08A
:100CB800C00E0C6E020E0D6E000E0E6E000E0F6E44
:100CC800000E106E000E116EC40E126E010E136E21
:100CD80010EC00F00CC0E8F00DC0E9F00EC0EAF02E
:100CE8000FC0EBF001016A4B6B2BF10E0001E85DC0
:100CF800FF0EE959FF0EEA59FF0EEB59D8A005D0AF
:100D0800400E646F400E656F1200E8517C27E95170
:100D18007D23EA517E23EB517F23FCD00101C95189
:100D2800406F416B426B436B42C143F141C142F199
:100D380040C141F1406BCA51401342C143F141C126
:100D480042F140C141F1406B42C143F141C142F11E
:100D580040C141F1406B41D795C0F0F0000E000151
:100D6800956F0101C65140250001EC6F0101C75183
:100D780041210001ED6F000E010142210001EE6FDB
:100D8800000E010143210001EF6FF051EC25016EC7
:100D9800000EED21026E000EEE21036E000EEF2113
:100DA800046E2CEC3EF001C0E4F002C0E5F0000156
:100DB800F051EC25016E000EED21026E000EEE21C1
:100DC800036E000EEF21046EF05100080101C425E6
:100DD800056ED8EC25F00009D8A4FFD60001F35120
:100DE800F411D8A410D0E4C0F3F0E5C0F4F0F3C0D7
:100DF80016F0F4C017F06AEC3AF0CBEC3EF001C004
:100E0800E2F002C0E3F0F0C0F1F00001F26B5DD057
:100E1800F151EC25016EF251ED21026E000EEE212A
:100E2800036E000EEF21046E2CEC3EF00001F3512E
:100E380001182AE1F4510218D8A426D0F151EC2562
:100E4800096EF251ED210A6E000EEE210B6E000EB6
:100E5800EF210C6EF3C00DF0F4C00EF034EC36F058
:100E680009C0E6F00AC0E7F0C90E0001F125D96E05
:100E7800010EF221DA6EE651E225E16EE751E32137
:100E8800E26EDFCFE7FF1ED0E8517C5FE9517D5B62
:100E9800EA517E5BEB517F5B01016A07D8A06B07C3
:100EA800F1C095F0F3C003F0F4C004F003EC3CF09B
:100EB800F3C003F0F4C004F0AAEC31F00101664B72
:100EC800672B12000001F14BF22B0101C451000104
:100ED800F15D0101C5510001F259D8B07ED698D70D
:100EE8000001F351F411D8B41200F3C003F0F4C0B8
:100EF80004F003EC3CF0F3C003F0F4C004F0AAECF7
:100F080031F00101664B672B600E0001646F600EC3
:100F1800656F12000101C851000AD8B41DD7010A33
:100F2800D8B4DED7050AD8B4F9D657D6000E256E40
:100F380017D02550010DE90EF324F66E8D0EF4201E
:100F4800F76EF86A000EF8222550010D740EF3248E
:100F5800D96E010EF420DA6E0800F5CFDFFF252ADE
:100F68002550010DE90EF324F66E8D0EF420F76E70
:100F7800F86A000EF8220800F5500009D8A4D9D75D
:100F8800000E256E17D02550010D420EF324F66E83
:100F98008D0EF420F76EF86A000EF8222550010D28
:100FA800880EF324D96E010EF420DA6E0800F5CF0E
:100FB800DFFF252A2550010D420EF324F66E8D0E13
:100FC800F420F76EF86A000EF8220800F5500009C0
:100FD800D8A4D9D7000E256ED6D02550010D0A0EFB
:100FE800F324F66E8D0EF420F76EF86A000EF822E0
:100FF8002550010D9C0EF324D96E010EF420DA6EF3
:101008000800F5CFDFFF252A2550010D0A0EF3242D
:10101800F66E8D0EF420F76EF86A000EF8220800BE
:10102800F5500009D8B4C0D0D8D72550010D290EE5
:10103800F324F66E8E0EF420F76EF86A000EF8228E
:101048002550010D9C0EF324D96E010EF420DA6EA2
:101058000800F5CFDFFF252A2550010D290EF324BE
:10106800F66E8E0EF420F76EF86A000EF82208006D
:10107800F5500009D8B498D0D8D72550010D380EAE
:10108800F324F66E8E0EF420F76EF86A000EF8223E
:101098002550010D9C0EF324D96E010EF420DA6E52
:1010A8000800F5CFDFFF252A2550010D380EF3245F
:1010B800F66E8E0EF420F76EF86A000EF82208001D
:1010C800F5500009D8B470D0D8D72550010D470E77
:1010D800F324F66E8E0EF420F76EF86A000EF822EE
:1010E8002550010D9C0EF324D96E010EF420DA6E02
:1010F8000800F5CFDFFF252A2550010D470EF32400
:10110800F66E8E0EF420F76EF86A000EF8220800CC
:10111800F5500009D8B448D0D8D72550010DE20EB3
:10112800F324F66E8C0EF420F76EF86A000EF8229F
:101138002550010D9C0EF324D96E010EF420DA6EB1
:101148000800F5CFDFFF252A2550010DE20EF32414
:10115800F66E8C0EF420F76EF86A000EF82208007E
:10116800F5500009D8A4D9D7EEEC3EF001C01FF025
:1011780002C020F0216A226ABE0E236E010E246E80
:101188002DEC04F011D023EC3FF00B0AD8B4DCD7D7
:10119800070AD8B4B1D7010AD8B486D7030AD8B495
:1011A8005BD7010AD8B430D7000E256E17D025506A
:1011B800010D6B0EF324F66E8E0EF420F76EF86AAE
:1011C800000EF8222550010DB00EF324D96E010E41
:1011D800F420DA6E0800F5CFDFFF252A2550010D2F
:1011E8006B0EF324F66E8E0EF420F76EF86A000E7E
:1011F800F8220800F5500009D8A4D9D7F8EC3EF039
:1012080001C019F002C01AF01B6A1C6A2550010DB2
:10121800B00EF3241D6E010EF4201E6EDFEC27F0D5
:101228001200000E0001E36F000EE46F000EE56F80
:10123800000EE66FFE514DEC33F030C078F031C04F
:1012480079F032C07AF033C07BF0000E0001E26F13
:10125800E251D8A412007CC055F07DC056F07EC083
:1012680057F07FC058F0551E561E571E581E552A57
:10127800000E56225722582278515524596E79511A
:1012880056205A6E7A5157205B6E7B5158205C6EFF
:101298005C505B105A1004E1320E595CD8A018D08B
:1012A8007CC03FF07DC040F07EC041F07FC042F07E
:1012B800320E436E000E446E000E456E000E466EF2
:1012C800C00E476E020E486EFE517BEC0FF02DD01B
:1012D8007CC03FF07DC040F07EC041F07FC042F04E
:1012E8007CC055F07DC056F07EC057F07FC058F0E6
:1012F800551E561E571E581E552A000E5622572296
:101308005822000178515524436E79515620446E75
:101318007A515720456E7B515820466EC00E476E55
:10132800020E486EFE517BEC0FF0C00E0C6E020EE2
:101338000D6E000E0E6E000E0F6E000E106E000E7B
:10134800116EC40E126E010E136E10EC00F00CC07C
:10135800E3F00DC0E4F00EC0E5F00FC0E6F00101C7
:101368006A4B6B2B040EC819D8A41CD0C951406F06
:10137800416B426B436B42C143F141C142F140C1F1
:1013880041F1406BCA51401342C143F141C142F19E
:1013980040C141F1406B42C143F141C142F140C1FA
:1013A80041F1406BC851D8A45DD0C6514025000119
:1013B800E76F0101C75141210001E86F000E0101EB
:1013C80042210001E96F000E010143210001EA6F8B
:1013D800010148510001E75D010149510001E85947
:1013E80001014A510001E95901014B510001EA5933
:1013F800D8B008D0E7C048F1E8C049F1E9C04AF1DF
:10140800EAC04BF1E7510101445D0001E8510101D7
:1014180045590001E951010146590001EA5101010C
:101428004759D8B008D0E7C044F1E8C045F1E9C051
:1014380046F1EAC047F1E7C001F0E8C002F0E9C0B0
:1014480003F0EAC004F0C4C105F0D8EC25F0FF0AA7
:10145800D8A408D00B0E0001966F400E646F400EA2
:10146800656F12000001E351E411E511E611D8A4FB
:1014780027D06AC168F16BC169F1000E01016B6F79
:10148800000E6A6F000E00017C6F000E7D6F000E6B
:101498007E6F000E7F6F000E0101406F000E416FDE
:1014A800000E426F000E436F000E676F000E666FEE
:1014B800000E0001956F300E646F300E656F1200DC
:1014C800F10EE35DFF0EE459FF0EE559FF0EE659F4
:1014D800D8A007D0E3510F0B966F400E646F400EF3
:1014E800EDD7E3517C27E4517D23E5517E23E65176
:1014F8007F23E22BADD644D111C183F012C182F013
:1015080013C181F014C180F016C187F017C186F0AD
:101518008651306E8751316E326A336A090ED8901F
:101528003036313632363336E82EF9D730C00BF044
:1015380031C00CF032C00DF033C00EF086EC24F050
:101548000009D8A42FD1F0C101F0F1C102F001D8EF
:101558000AD00500FA6E0101EC51FD6EED51FE6EE8
:10156800FF6AFA5012000009D8B416D0010E0D0116
:101578008C6F01012151F00B0709216F270E2B6F8A
:10158800000E2C6F000E016E020E26EC20F0000EED
:1015980000019F6F9F511200010E0001A26F86513A
:1015A8008711D8A402D0000EE9D0030E9F6F000E59
:1015B8008C6F060E8D6F000E0D01886F020E896FFD
:1015C800000E8A6F000E8B6F0D01885189118A11E8
:1015D8008B11D8B41ED000018A518B11D8B406D013
:1015E8008AC0D9FF8BC0DAFFDFBEDCD0000E016EE7
:1015F8008CC002F08DC003F0400E046E020E32EC77
:1016080022F001C08AF002C08BF0040E00019F6F27
:1016180021D0F0C101F0F1C102F001D80AD00500D3
:10162800FA6E0101EC51FD6EED51FE6EFF6AFA5043
:1016380012000009D8B40CD0010E0D018C6F010105
:101648002151F00B0209216F270E2B6F000E2C6F12
:10165800020E93D08A518B11D8B406D08AC0D9FF14
:101668008BC0DAFFDFBE9ED020EE01F08A51D9266A
:101678008B51DA22DF50306E30C031F0326A336A73
:10168800346A31500101085F3250095B33500A5BFC
:1016980034500B5B000120EE01F08A51D9268B51A2
:1016A800DA22DF50306E30C031F0326A336A346A81
:1016B80031500D01885F3250895B33508A5B34505A
:1016C8008B5B400E00018C27000E8D23030E56D035
:1016D8000D018C51D8A43CD0F0C125F0F1C126F001
:1016E80080C027F081C028F082C029F083C02AF08A
:1016F800000E2B6E060E2C6E000180518111821196
:101708008311D8A402D0010E01D0000E2D6E01D88D
:101718000AD00500FA6E0101EE51FD6EEF51FE6E22
:10172800FF6AFA501200E806D8B412D0640E00011D
:101738009E6102D09E2B36D0010E0D018C6F0101E7
:101748002151F00B0309216F000E2B6F000E2C6F37
:10175800010E00018027000E812382238323860740
:10176800D8A08707010E0AD0020E0D018C6F000E5B
:10177800016E020E26EC20F0000E00019F6F12D0C1
:1017880000019F51000AD8B4B7D6010AD8B407D7C8
:10179800030AD8B49DD7010AD8B416D7070AD8B413
:1017A80059D7E2D700019F5112000D013205D8A484
:1017B80011D030511F0B0009D8A40CD00001698F3B
:1017C800030E0D013119D8A402D0010E01D0000E6C
:1017D8000001AD6F0D013251D8A4120030511F0B1A
:1017E800020AD8A4120034510F0B0009D8B4120011
:1017F80034510F0B186E030E18601200200E0001F2
:10180800B019D8A41200698F0D0134BF19D0345112
:101818000F0B186E1850020D720EF324D96E000EBD
:10182800F420DA6EDECF1CF0DDCF1DF034510F0B43
:10183800186E1850010D5E0EF324D96E010E18D0E3
:1018480034510F0B186E1850020D6C0EF324D96E1C
:10185800000EF420DA6EDECF1CF0DDCF1DF034511F
:101868000F0B186E1850010D610EF324D96E010E7E
:10187800F420DA6EDF501B6E1BB006D0FB0E1C1472
:101888001C6EFF0E1D1404D0040E1C101C6E1D507F
:101898001D6E34BF0AD034510F0B186E1850020D4C
:1018A800720EF324D96E000E09D034510F0B186E46
:1018B8001850020D6C0EF324D96E000EF420DA6E67
:1018C8001CC0DEFF1DC0DDFF030E3119D8A42DD0CA
:1018D8001CC0D9FF1DC0DAFFDFAE1AD034BF0AD052
:1018E80034510F0B186E1850010D5E0EF324D96E8B
:1018F800010E0AD00D0134510F0B186E1850010D4E
:10190800610EF324D96E010EF420DA6E0101DF8234
:101918001CC0D9FF1DC0DAFF000EDB841CC0D9FF34
:101928001DC0DAFF000EDB8E1200040E1C181C6EA0
:101938001D501D6E1CC0D9FF1DC0DAFFDFAE1BD0C5
:101948001CC0D9FF1DC0DAFF7F0EDF161CC0D9FFEF
:101958001DC0DAFF000EDB8C000E116E050E106E36
:101968001CC012F01DC013F0000E156E020E146E8E
:10197800E5EC30F006D01CC0D9FF1DC0DAFF000E20
:10198800DB8C040E1C181C6E1D501D6E1BB206D07D
:101998001CC0D9FF1DC0DAFFDFAE30D00D0134BF47
:1019A8000AD034510F0B186E1850010D5E0EF32437
:1019B800D96E010E0AD00D0134510F0B186E185054
:1019C800010D610EF324D96E010EF420DA6E0101C7
:1019D800DF921CC0D9FF1DC0DAFF3B0EDF16000ED8
:1019E800116E050E106E1CC012F01DC013F0000E13
:1019F800156E020E146EE5EC30F006D01CC0D9FF4F
:101A08001DC0DAFF3B0EDF160D0134510F0B186EA7
:101A18001850010D260EF324196E0F0EF4201A6EBD
:101A280019C0D9FF1AC0DAFFFE0EDF16120093D0D4
:101A3800EB0E12003C0E1200900E1200F10EF66E24
:101A48008F0EF76E000EF86E0800F5501200F20EB9
:101A5800F66E8F0EF76EF86A0800F5501200F30E56
:101A6800F66E8F0EF76EF86A0800F5501200F40E45
:101A7800F66E8F0EF76EF86A0800F5501200F50E34
:101A8800F66E8F0EF76EF86A0800F5501200F60E23
:101A9800F66E8F0EF76EF86A0800F5501200F70E12
:101AA800F66E8F0EF76EF86A0800F5501200F80E01
:101AB800F66E8F0EF76EF86A0800F5501200000EE9
:101AC8001200020E1200010E1200010E1200000E8A
:101AD8001200010E1200400E1200000E1200120E2B
:101AE8001200100E1200F80E1200100E1200000E56
:101AF80012003F0E1200000E1200100E1200000E0F
:101B08001200000E1200000E1200000E1200000E4D
:101B18001200010E1200000E1200110E1200000E2B
:101B28001200110E1200000E1200460E1200410E95
:101B38001200540E1200310E1200360E1200200E42
:101B48001200200E1200200E1200550E1200AA0ECE
:101B58001200000E120001C003F002C004F004508D
:101B6800000AD8B404D0010AD8B48DD0F2D70350F3
:101B7800000AD8B45DD7010AD8B45CD7030AD8B430
:101B88005BD7010AD8B45AD7070AD8B460D7010A74
:101B9800D8B465D7030AD8B46AD7010AD8B46FD7BE
:101BA8000F0AD8B474D7010AD8B479D7030AD8B4BD
:101BB8007ED7010AD8B483D7070AD8B482D7010AD6
:101BC800D8B481D7030AD8B480D7010AD8B47FD74C
:101BD8001F0AD8B47ED7010AD8B47DD7030AD8B46F
:101BE8007CD7010AD8B47BD7070AD8B47AD7010AB8
:101BF800D8B479D7030AD8B478D7010AD8B477D734
:101C08000F0AD8B476D7010AD8B475D7030AD8B45E
:101C180074D7010AD8B473D7070AD8B472D7010A9F
:101C2800D8B471D7030AD8B470D7010AD8B46FD71B
:101C3800370AD8B46ED7010AD8B46DD7050AD8B414
:101C48006CD7010AD8B46BD7030AD8B46AD7010A8B
:101C5800D8B469D7190AD8B468D7010AD8B467D7ED
:101C68000F0AD8B466D7010AD8B465D7030AD8B41E
:101C780064D7010AD8B463D7070AD8B462D7010A6F
:101C8800D8B461D766D70350FE0AD8B45ED7010A24
:101C9800D8B45DD75ED7200E0001B019D8A41200C1
:101CA80017D18A518B11D8B406D08AC0D9FF8BC0FE
:101CB800DAFFDFBE1200000E526E1E0E526401D013
:101CC80014D05250010D400EF324D96E0D0EF4209D
:101CD800DA6E5250010D000EF324E16E010EF4206D
:101CE800E26EDFCFE7FF522AE8D7000120EE01F0CD
:101CF8008A51D9268B51DA221F0EDE18D8A472D049
:101D0800550E010100196EE1530E01196BE1420EE7
:101D1800021968E1430E0319D8A464D0010E00012A
:101D28009A6F01010D51D8A452D0110E0E614FD0F7
:101D38000E51D8B44CD00CC14DF03F0E4D16D8A45E
:101D480046D0550E0D01806F530E816F420E826F83
:101D5800530E836F04C184FD05C185FD06C186FD50
:101D680007C187FD000E886F000E896F000E8A6F0D
:101D7800000E8B6F000E8C6F0001A169000EA06F22
:101D8800000E9F6F000E9E6F030E01010F19D8B44D
:101D980008D02191219321952197000E2B6F000ED9
:101DA8002C6F0CAF02D0010E01D0020E0001A26F01
:101DB8000101085109110A110B11D8B402D0000E03
:101DC80001D0010E00019B6F0FC1A1F01200010E9E
:101DD800016E020E26EC20F0000E016E020E26ECBB
:101DE80020F01200010E016E020E26EC20F0000E0B
:101DF800016E020E26EC20F0000E00019A6F120010
:101E08009DEC1FF0FF0AD8A41200030E0001A26F78
:101E180012009DEC1FF0FF0AD8A412000D018C518E
:101E2800D8A408D0885189118A118B11D8B402D04E
:101E3800020E8C6F030E0001A26F120070C04EF0EC
:101E480071C04FF04E504F10D8B40AD070C050F047
:101E580071C051F050C0D9FF51C0DAFFDFBE120087
:101E6800010E016E800E026E0D0E036E0D0E046ED5
:101E7800020E32EC22F001C088F002C089F00001A5
:101E88008A518B11D8B406D08AC0D9FF8BC0DAFF2B
:101E9800DFBE0FD0000E016E400E026E0D0E036EF7
:101EA800400E046E020E32EC22F001C08AF002C02D
:101EB8008BF0000E0001A26F1200000EA26F020E3E
:101EC8000D018C6F000E016E020E26EC20F0120040
:101ED8000001A251000AD8B4E4D6010AD8B490D7B8
:101EE800030AD8B496D7010AD8B4A8D7E6D7000110
:101EF800B76FB80E376E000E386E0001B751D9ECC7
:101F080032F0D2C0D8F0D3C0D9F043503F24496E44
:101F1800445040204A6E455041204B6E4650422066
:101F28004C6E49500001D45D4A50D5594B50D65992
:101F38004C50D759D8B002D0FF0E1200000EDE6FF9
:101F4800000EDF6F000EE06F000EE16F13D0D8C0F7
:101F580030F0D9C031F0E2EC39F030C0D8F031C0FF
:101F6800D9F0000E0001DE27020EDF23000EE02369
:101F7800000EE123DEC049F0DFC04AF0E0C04BF0BC
:101F8800E1C04CF0491E4A1E4B1E4C1E492A000E49
:101F98004A224B224C223F5049244D6E40504A2041
:101FA8004E6E41504B204F6E42504C20506E505058
:101FB8004F10CDE1020E4E5CD8B0C9D7DEC049F053
:101FC800DFC04AF0491E4A1E494A4A2A3F5049245E
:101FD800DA6F40504A20DB6F000EDE6F000EDF6FB5
:101FE800000EE06F000EE16F89D0020EDB19DA11E6
:101FF800D8A40FD0D8C030F0D9C031F0E2EC39F015
:1020080030C0D8F031C0D9F0000E0001DB6F000EEF
:10201800DA6FD8C001F0D9C002F0B4EC3EF001C0CC
:10202800B5F002C0B6F0DAC049F0DBC04AF0491E8C
:102038004A1E494A4A2A000E49240001DC6F020E52
:102048004A20DD6FDC51496EDD514A6E4B6A4C6A9D
:10205800DEC04DF0DFC04EF0E0C04FF0E1C050F000
:102068004D1E4E1E4F1E501E4D2A000E4E224F2250
:10207800502243504D24516E44504E20526E4550CC
:102088004F20536E46505020546E4950515C4A5070
:1020980052584B5053584C505458D8B00ED0DEC0FC
:1020A80049F0DFC04AF0491E4A1E494A4A2A4350AD
:1020B8004924DC6F44504A20DD6FB5C028F0B6C013
:1020C80029F0DAC02AF0DBC02BF0DCC02CF0DDC030
:1020D8002DF0DE5147242E6EDF5148202F6E69EC1B
:1020E8003CF00001DC51DE27DD51DF23000EE02348
:1020F800000EE123DC51DA27DD51DB234350DE5D9E
:102108004450DF594550E0594650E159D8A06DD7A1
:10211800000E12000001C16F3F0E0001C16501D021
:102128001200C1519EEC32F00009D8A41200C80E6A
:10213800376E000E386E0001C151D9EC32F0E4C0A0
:10214800B7F0E5C0B8F0E6C0B9F0E7C0BAF0E2C051
:10215800BDF0E3C0BEF0000E0001C46F000EC56FF5
:10216800000EC66F000EC76F13D0BDC030F0BEC0E2
:1021780031F0E2EC39F030C0BDF031C0BEF0000EF5
:102188000001C427020EC523000EC623000EC72374
:10219800C4C043F0C5C044F0C6C045F0C7C046F04F
:1021A800431E441E451E461E432A000E4422452255
:1021B8004622B7514324476EB8514420486EB9515E
:1021C8004520496EBA5146204A6E4A504910CDE121
:1021D8004704020E4858D8B0C8D7C4C043F0C5C099
:1021E80044F0431E441E434A442AB7514324BF6F58
:1021F800B8514420C06F000EC46F000EC56F000EAA
:10220800C66F000EC76F6FD0020EC019BF11D8A4D9
:1022180026D0000E316E000E306E13EC33F030C055
:10222800BBF031C0BCF0BDC029F0BEC02AF0BBC0B5
:102238002BF0BCC02CF0ABEC3AF0BBC029F0BCC012
:102248002AF0FF0E2C6E2B68ABEC3AF0BBC0BDF049
:10225800BCC0BEF0000E0001C06F000EBF6FBDC055
:1022680001F0BEC002F0B4EC3EF001C0B5F002C00F
:10227800B6F0BFC043F0C0C044F0431E441E434AFA
:10228800442A000E43240001C26F020E4420C36F8B
:10229800C2513F5CC3514058D8B004D03FC0C2F0CF
:1022A80040C0C3F0B5C020F0B6C021F0BFC022F0D6
:1022B800C0C023F0C2C024F0C3C025F0C4514124DB
:1022C800266EC5514220276EBEEC33F00001C25184
:1022D800C427C351C523000EC623000EC723C2510D
:1022E800BF27C351C0233F50436E4050446E456AD8
:1022F800466A4350C45D4450C5594550C659465076
:10230800C759D8A081D73F50E4274050E523000E95
:10231800E623000EE723C80E056E000E066E50EC8D
:102328003CF0C80E296E000E2A6E0001C15147EC20
:1023380037F0120057C0D9FF58C0DAFF810EDF6EA0
:1023480020EE01F05750D9265850DA22250EDF6EBC
:1023580020EE02F05750D9265850DA22C10EDF6E0F
:1023680020EE01F05550D9265650DA2210EE03F02F
:102378005750E1265850E222DFCFE7FF20EE01F068
:102388005550D9265650DA2210EE04F05750E1265F
:102398005850E222DFCFE7FF20EE02F05550D92651
:1023A8005650DA2210EE05F05750E1265850E22236
:1023B800DFCFE7FF20EE03F05550D9265650DA223A
:1023C80010EE06F05750E1265850E222DFCFE7FF23
:1023D80020EE04F05550D9265650DA2210EE07F0B8
:1023E8005750E1265850E222DFCFE7FF20EE04F0F5
:1023F8005550D9265650DA22DF50596E59500001EF
:10240800EA6FEB6BEC6BED6BECC0EDF0EBC0ECF056
:10241800EAC0EBF0EA6B20EE03F05550D92656508F
:10242800DA22DF50596E5950EA13ECC0EDF0EBC0D8
:10243800ECF0EAC0EBF0EA6B20EE02F05550D9263A
:102448005650DA22DF50596E5950EA13ECC0EDF0BD
:10245800EBC0ECF0EAC0EBF0EA6B20EE01F055506F
:10246800D9265650DA22DF50596E5950EA1320EE19
:1024780001F05550D9265650DA22DF504DEC33F092
:1024880030C0E2F031C0E3F032C0E4F033C0E5F030
:10249800EAC059F0EBC05AF0ECC05BF0EDC05CF05C
:1024A800591E5A1E5B1E5C1E592A000E5A225B22B8
:1024B8005C220001E2515924E66FE3515A20E76F8C
:1024C800E4515B20E86FE5515C20E96FE951E811C0
:1024D800E71104E1370EE65DD8A008D0360EE66FA6
:1024E800000EE76F000EE86F000EE96F20EE08F0AF
:1024F8005750D9265850DA22E6C0DFFF20EE09F0FF
:102508005750D9265850DA22EAC03FF0EBC040F0C5
:10251800ECC041F0EDC042F0E6C043F0E7C044F043
:10252800E8C045F0E9C046F00A0E5724476E000E91
:102538005820486E10EE01F05550E1265650E22220
:10254800E7507BEC0FF0DF6E1200000E266E000ED7
:10255800256E020E265CD8B010D0400E2524D96E08
:10256800030E2620DA6E25C001F026C002F0AEEC7C
:1025780026F0DF6E254A262AECD7000E216E000EC3
:10258800206E400E226E030E236E78EC38F0000E9B
:10259800266E000E256E020E265CD8B010D0400EB6
:1025A8002524D96E030E2620DA6E25C001F026C038
:1025B80002F01BEC0DF0DF6E254A262AECD7000E40
:1025C800216E010E206E400E226E030E236E78ECF3
:1025D80038F0000E266E000E256E020E265CD8B06E
:1025E80010D0400E2524D96E030E2620DA6E25C0A1
:1025F80001F026C002F0F7EC37F0DF6E254A262AF4
:10260800ECD7000E216E020E206E400E226E030ED5
:10261800236E78EC38F0000E266E000E256E020E42
:10262800265CD8B00BD0400E2524D96E030E262088
:10263800DA6E000EDF6E254A262AF1D7000E266EC6
:10264800030E256E265011E1120E255CD8B00DD070
:1026580025C020F026C021F0400E226E030E236E06
:1026680078EC38F0254A262AEDD7000E266E000EA3
:10267800256E020E265CD8B010D0400E2524D96EE7
:10268800030E2620DA6E25C001F026C002F043ECC6
:1026980018F0DF6E254A262AECD7000E216E120E9E
:1026A800206E400E226E030E236E78EC38F0000E7A
:1026B800266E000E256E020E265CD8B00BD0400E9A
:1026C8002524D96E030E2620DA6E000EDF6E254A09
:1026D800262AF1D7000E266E130E256E265011E11C
:1026E800160E255CD8B00DD025C020F026C021F0EC
:1026F800400E226E030E236E78EC38F0254A262A07
:10270800EDD7000E266E000E256E020E265CD8B0A0
:1027180010D0400E2524D96E030E2620DA6E25C06F
:1027280001F026C002F037EC3DF0DF6E254A262A7C
:10273800ECD7000E216E160E206E400E226E030E90
:10274800236E78EC38F0120005C0D9FF06C0DAFF16
:10275800100EDF6E20EE01F00550D9260650DA2261
:10276800250EDF6E20EE02F00550D9260650DA223B
:10277800C10EDF6E93EC3EF001C00CF002C00DF00C
:1027880003C00EF004C00FF020EE03F00550D92668
:102798000650DA220CC0DFFF20EE04F00550D926DF
:1027A8000650DA220DC0DFFF20EE05F00550D926CD
:1027B8000650DA220EC0DFFF20EE06F00550D926BB
:1027C8000650DA220CC0DFFFF8EC3EF001C010F032
:1027D80002C011F020EE07F00550D9260650DA2283
:1027E80010C0DFFF20EE08F00550D9260650DA2287
:1027F8001150DF6EE4EC3EF001C010F002C011F0A1
:1028080020EE09F00550D9260650DA2210C0DFFF65
:1028180020EE0AF00550D9260650DA221150DF6E54
:1028280020EE0BF00550D9260650DA2223EC3FF0B3
:10283800DF6EF3EC3EF001C010F002C011F020EEA4
:102848000CF00550D9260650DA2210C0DFFF20EE22
:102858000DF00550D9260650DA221150DF6EE9EC4A
:102868003EF001C010F002C011F020EE0EF005504D
:10287800D9260650DA2210C0DFFF20EE0FF00550EF
:10288800D9260650DA221150DF6EEEEC3EF001C078
:1028980010F002C011F020EE10F00550D9260650B5
:1028A800DA2210C0DFFF20EE11F00550D9260650BD
:1028B800DA221150DF6E20EE12F00550D9260650AC
:1028C800DA221AEC3FF0DF6E20EE13F00550D9261D
:1028D8000650DA2220EC3FF0DF6E20EE14F00550AF
:1028E800D9260650DA221DEC3FF0DF6EE9EC3EF007
:1028F80001500A6E2B0E0A6402D02B0E0A6E000ECF
:102908000B6E14D00B5060EC3EF0076E0B50086E47
:10291800096A150E0826000E092208500524D96EEA
:1029280009500620DA6E07C0DFFF0B2A0A500B5C3D
:10293800D8B01200E7D7000E286E17D02850010D26
:10294800190EF324F66E8E0EF420F76EF86A000E58
:10295800F8222850010D740EF324D96E010EF420CC
:10296800DA6E0800F5CFDFFF282A2850010D190E6E
:10297800F324F66E8E0EF420F76EF86A000EF82235
:102988000800F5500009D8A4D9D7000E286E17D032
:102998002850010D1D0EF324F66E8D0EF420F76EEF
:1029A800F86A000EF8222850010D880EF324D96E1B
:1029B800010EF420DA6E0800F5CFDFFF282A285030
:1029C800010D1D0EF324F66E8D0EF420F76EF86AD5
:1029D800000EF8220800F5500009D8A4D9D7000E37
:1029E800286E17D02850010D980EF324F66E8E0E1F
:1029F800F420F76EF86A000EF8222850010D9C0E9C
:102A0800F324D96E010EF420DA6E0800F5CFDFFF4B
:102A1800282A2850010D980EF324F66E8E0EF42005
:102A2800F76EF86A000EF8220800F5500009D8A4DD
:102A3800D9D728C027F093EC3EF001C01FF002C0A0
:102A480020F003C021F004C022F02850010D9C0E94
:102A5800F324236E010EF420246E2DEC04F02726B7
:102A6800000E286E1CD02850010D910EF324F66E2E
:102A78008E0EF420F76EF86A000EF822285027C050
:102A880025F0266A2526000E26229C0E2524D96EBE
:102A9800010E2620DA6E0800F5CFDFFF282A28501D
:102AA800010D910EF324F66E8E0EF420F76EF86A7F
:102AB800000EF8220800F5500009D8A4D4D7000E5B
:102AC800286E17D02850010D540EF324F66E8D0E83
:102AD800F420F76EF86A000EF8222850010DB00EA7
:102AE800F324D96E010EF420DA6E0800F5CFDFFF6B
:102AF800282A2850010D540EF324F66E8D0EF4206A
:102B0800F76EF86A000EF8220800F5500009D8B4EC
:102B18001200D8D7D6D011C183F012C182F013C1E8
:102B280081F014C180F016C187F017C186F0865174
:102B3800366E8751376E386A396A090ED89036363C
:102B4800373638363936E82EF9D736C00BF037C065
:102B58000CF038C00DF039C00EF086EC24F00009F6
:102B6800D8A4C1D0010E0001A06F86518711D8A446
:102B780002D0000E46D08607D8A08707020EA06FA5
:102B880088518911D8B406D088C0D9FF89C0DAFF26
:102B9800DFBEA9D0F0C12CF0F1C12DF080C02EF01D
:102BA80081C02FF082C030F083C031F0000E326E49
:102BB800060E336E01D80AD00500FA6E0101EA51FB
:102BC800FD6EEB51FE6EFF6AFA501200E806D8B4AB
:102BD8001AD0640E00019E6102D09E2B84D0020E92
:102BE8000D018C6F01012151F00B0309216F000EBB
:102BF8002B6F000E2C6F010E016E020E26EC20F0DA
:102C08005DD0A06F70D0010E00018027000E8123D7
:102C180082238323000E0D01886F020E896F000E38
:102C28008A6F000E8B6F000E00018C6F060E8D6F81
:102C3800030EA06F0D01885189118A118B11D8A438
:102C480002D0010E3CD0040E0001A06F88518911FA
:102C5800D8B406D088C0D9FF89C0DAFFDFBE43D018
:102C6800010E016E8CC002F08DC003F0400E046EA0
:102C7800020E32EC22F001C088F002C089F0030E87
:102C88000001A06F400E0101085F000E095B0A5B9E
:102C98000B5B400E0D01885F000E895B8A5B8B5BC6
:102CA800400E00018C27000E8D231DD0020E0D0151
:102CB8008C6F010E016E020E26EC20F0000E000152
:102CC800A0D70001A051000AD8B425D7010AD8B46A
:102CD8004CD7030AD8B454D7010AD8B4ABD7070ADB
:102CE800D8B4B4D7E3D70001A0511200000E1F6E6C
:102CF80017D01F50010DD90EF324F66E8D0EF42057
:102D0800F76EF86A000EF8221F50010D740EF324B6
:102D1800D96E010EF420DA6E0800F5CFDFFF1F2A06
:102D28001F50010DD90EF324F66E8D0EF420F76EA8
:102D3800F86A000EF8220800F5500009D8A4D9D77F
:102D4800000E1F6E17D01F50010D300EF324F66EC3
:102D58008D0EF420F76EF86A000EF8221F50010D50
:102D6800880EF324D96E010EF420DA6E0800F5CF30
:102D7800DFFF1F2A1F50010D300EF324F66E8D0E53
:102D8800F420F76EF86A000EF8220800F5500009E2
:102D9800D8A4D9D7000E1F6E17D01F50010D830E6F
:102DA800F324F66E8E0EF420F76EF86A000EF82201
:102DB8001F50010D9C0EF324D96E010EF420DA6E1B
:102DC8000800F5CFDFFF1F2A1F50010D830EF324E3
:102DD800F66E8E0EF420F76EF86A000EF8220800E0
:102DE800F5500009D8A4D9D7F8EC3EF001C019F085
:102DF80002C01AF01B6A1C6A1F50010D9C0EF324B6
:102E08001D6E010EF4201E6EDFEC27F01F261F50EA
:102E1800010D9C0EF324D96E010EF420DA6E2F0EEC
:102E2800DF6E1F2AE4EC3EF001C019F002C01AF070
:102E38001B6A1C6A1F50010D9C0EF3241D6E010EA7
:102E4800F4201E6EDFEC27F0000E1F6E17D01F5007
:102E5800010DC90EF324F66E8D0EF420F76EF86A94
:102E6800000EF8221F50010DB00EF324D96E010E8A
:102E7800F420DA6E0800F5CFDFFF1F2A1F50010D7E
:102E8800C90EF324F66E8D0EF420F76EF86A000E64
:102E9800F8220800F5500009D8A4D9D7F3EC3EF081
:102EA80001C019F002C01AF01B6A1C6A1F50010DFC
:102EB800B00EF3241D6E010EF4201E6EDFEC27F019
:102EC800120044C030F045C031F046C032F047C06F
:102ED80033F065EC29F0FF0AD8A41200A9EC3DF004
:102EE8000001B96FB929D8B4120048C04CF049C0E4
:102EF8004DF04AC04EF04BC04FF00A0E05D0D890A6
:102F08004F324E324D324C32E82EF9D7010E4C2456
:102F1800BA6F000E4D20BB6FBAC030F0BBC031F0A5
:102F2800CEEC2FF00001BA51301805E1BB51311831
:102F3800D8A4120001D01200000E316E020E306EBD
:102F480013EC33F030C0BCF031C0BDF0BE0E016EE2
:102F5800000E026E44C003F045C004F00350041094
:102F6800D8A4200E056E000E076E080E066E9FECA4
:102F780035F0C60E016E000E026E46C003F047C063
:102F880004F003500410D8A4200E056E000E076E3E
:102F9800030E066E9FEC35F0000E0001C96F000E9F
:102FA800CA6F000ECB6FFDEC3EF001C0CCF002C042
:102FB800CDF002EC3FF001C0CEF002C0CFF0CEC0A1
:102FC800D0F0CFC0D1F0000E0001D36F000ED26F49
:102FD800CCC0D4F0CDC0D5F0CEC0D6F0CFC0D7F09D
:102FE800BCC0D8F0BDC0D9F048C0DAF049C0DBF0A9
:102FF8004AC0DCF04BC0DDF0BE0E296E000E2A6E12
:10300800B95147EC37F0000E0001B86F010EB76FE9
:103018002FD0BA51B7190EE1BB51B819D8A40AD0AC
:10302800BCC029F0BDC02AF0FF0E2C6E2B68ABEC9B
:103038003AF01BD0010E0001BC25306E000EBD21F8
:10304800316E13EC33F030C0B5F031C0B6F0BCC00F
:1030580029F0BDC02AF0B5C02BF0B6C02CF0ABECFF
:103068003AF0B5C0BCF0B6C0BDF00001B74BB82B04
:10307800B751BA5DB851BB59D8A01200CAD702508F
:103088001DE1200E015CD8B019D0025010E10B0EE2
:10309800015CD8B00CD0DC0E0124F66E8F0E022035
:1030A800F76EF86A000EF8220800F55012000B0EB1
:1030B80001180210D8A402D0080E1200025003E131
:1030C800400E015CD8B0A4D0200E015E000E025A5A
:1030D800025010E1080E015CD8B00CD0E80E0124B3
:1030E800F66E8F0E0220F76EF86A000EF8220800BE
:1030F800F5501200025046E10B0E015CD8B042D0E8
:10310800F80E036EFF0E046E01C005F002C006F053
:103118000350052604500622FA0E0524F66E8F0E7B
:103128000620F76EF86A000EF8220800F550120023
:10313800200E1200060E1200280E1200780E120041
:10314800DE0E1200380E12005F0E12004B0E120037
:10315800000E1200000E1200040E1200770E12006C
:10316800DE0E1200380E1200020E1200000E1200BF
:103178000C0E1200000E1200000E1200000E1200BB
:10318800000E120001C003F002C004F00450000A4F
:10319800D8A4F6D703500B0AD8B4CAD7060AD8B4AD
:1031A800C9D7030AD8B4C8D7010AD8B4C7D71F0AE1
:1031B800D8B4C6D7010AD8B4C5D7030AD8B4C4D777
:1031C800010AD8B4C3D7070AD8B4C2D7010AD8B4F9
:1031D800C1D7030AD8B4C0D7010AD8B4BFD70F0AD9
:1031E800D8B4BED7010AD8B4BDD7030AD8B4BCD75F
:1031F800010AD8B4BBD7070AD8B4BAD7010AD8B4D9
:10320800B9D7030AD8B4B8D7010AD8B4B7D7B8D74A
:10321800000E12000001B051D8A412D0000E656E45
:10322800000E0F01366F160E396F9F0E376F7B0E2B
:10323800366F01D0658665A6FDD7010E0001B06F17
:10324800B005D8B465BA0AD0000E626E000E0F0140
:10325800366F36813689020E0001B06F62A406D03F
:103268000F0136A503D062947CEC3BF065A202D036
:10327800A198120062A009D00F0136A106D0A7ECD0
:103288001CF0040E0001B06F629062A804D00F0118
:1032980036B99BEC3CF062AC1CD00F0136AD0ED0B9
:1032A800000E116E730E106E000E126E000E136E6D
:1032B800000E156E010E146EE5EC30F0629CDDEC2C
:1032C8003DF00001A951D8A4A907A951D8B441ECEF
:1032D80028F062AA04D00F0136BB06EC3AF062A2CD
:1032E80012D00F0136A30FD07F0E116E1068000E9A
:1032F800126E000E136E000E156E010E146EE5ECC4
:1033080030F0000E636E040E0001B06102D0A19887
:1033180012000F0136A73CD0000E206E030E206469
:1033280001D036D062A634D064CFB3F00001B331F7
:10333800E832E8320F0BAB6F6296B3B507D0AB51EA
:10334800010D5E0EF324D96E010E07D00001AB51BA
:10335800010D610EF324D96E010EF420DA6E01011D
:10336800DF700001AB51D8A403D02EEC2BF00ED0A7
:10337800000E116E720E106EB30E126E000E136EEA
:10338800000E156E000E146EE5EC30F0202AC6D73C
:10339800A1981200000E226E17D02250010DF90ECE
:1033A800F324F66E8D0EF420F76EF86A000EF822FC
:1033B8002250010D740EF324D96E010EF420DA6E3A
:1033C8000800F5CFDFFF222A2250010DF90EF32461
:1033D800F66E8D0EF420F76EF86A000EF8220800DB
:1033E800F5500009D8A4D9D7000E226E17D0225064
:1033F800010DCD0EF324F66E8C0EF420F76EF86AEC
:10340800000EF8222250010D880EF324D96E010E09
:10341800F420DA6E0800F5CFDFFF222A2250010DD2
:10342800CD0EF324F66E8C0EF420F76EF86A000EBB
:10343800F8220800F5500009D8A4D9D7E4EC3EF0EA
:1034480001C019F002C01AF01B6A1C6A9C0E1D6E9E
:10345800010E1E6EDFEC27F0216E212A000E226E6F
:103468001CD02250010D730EF324F66E8E0EF4203C
:10347800F76EF86A000EF822225021C01FF0206A69
:103488001F26000E20229C0E1F24D96E010E20201C
:10349800DA6E0800F5CFDFFF222A2250010D730EE5
:1034A800F324F66E8E0EF420F76EF86A000EF822FA
:1034B8000800F5500009D8A4D4D7000E226E17D002
:1034C8002250010D660EF324F66E8D0EF420F76E71
:1034D800F86A000EF8222250010DB00EF324D96EBE
:1034E800010EF420DA6E0800F5CFDFFF222A225001
:1034F800010D660EF324F66E8D0EF420F76EF86A51
:10350800000EF8220800F5500009D8B41200D8D7E8
:10351800000E1F6E17D01F50010DB90EF324F66E62
:103528008D0EF420F76EF86A000EF8221F50010D78
:10353800740EF324D96E010EF420DA6E0800F5CF6C
:10354800DFFF1F2A1F50010DB90EF324F66E8D0EF2
:10355800F420F76EF86A000EF8220800F55000090A
:10356800D8A4D9D7000E1F6E17D01F50010D9F0E7B
:10357800F324F66E8E0EF420F76EF86A000EF82229
:103588001F50010D880EF324D96E010EF420DA6E57
:103598000800F5CFDFFF1F2A1F50010D9F0EF324EF
:1035A800F66E8E0EF420F76EF86A000EF822080008
:1035B800F5500009D8A4D9D7000E1F6E17D01F5098
:1035C800010DA90EF324F66E8D0EF420F76EF86A3D
:1035D800000EF8221F50010D9C0EF324D96E010E27
:1035E800F420DA6E0800F5CFDFFF1F2A1F50010D07
:1035F800A90EF324F66E8D0EF420F76EF86A000E0D
:10360800F8220800F5500009D8A4D9D7F3EC3EF009
:1036180001C019F002C01AF01B6A1C6A1F50010D84
:103628009C0EF3241D6E010EF4201E6EDFEC27F0B5
:10363800000E1F6E17D01F50010D990EF324F66E61
:103648008D0EF420F76EF86A000EF8221F50010D57
:10365800B00EF324D96E010EF420DA6E0800F5CF0F
:10366800DFFF1F2A1F50010D990EF324F66E8D0EF1
:10367800F420F76EF86A000EF8220800F5500009E9
:10368800D8B41200D8D7C6EC3EF001C0FAF002C098
:10369800FBF0C1EC3EF001C0FCF002C0FDF0FCC044
:1036A800F6F0FDC0F7F063EC34F0EFEC36F000090B
:1036B800D8A425EC3BF0000ECEEC38F0A7EC1CF0BB
:1036C8000EEC19F080EC3EF0D9EC2BF0E9EC3BF075
:1036D80083A439D06ACFF8F00001F96BF851F96F7B
:1036E800F86B6B50F813F807D8A0F907C1EC3EF057
:1036F80001500001F85F0250F95BF851F911D8B494
:1037080022D08890FAC0EEF0FBC0EFF0FCC0F0F0D9
:10371800FDC0F1F081EC1EF0FAC0E8F0FBC0E9F062
:10372800F8C0EAF045EC26F00001FD516A6EFCC0D5
:103738006BFFFB51686EFAC069FF000E666E3F0EA4
:10374800676EA49E888000016351D8A4B9D768EC3D
:1037580025F02AD0000EC2EC36F048D0010EC2EC9B
:1037680036F044D0020EC2EC36F040D0030EC2EC64
:1037780036F03CD0040EC2EC36F038D0050EC2EC60
:1037880036F034D017EC3FF0050AD8A42FD000014A
:103798006551C5EC29F02AD017EC3FF0050AD8A4EA
:1037A80025D098EC34F022D000016251070B5E6EF0
:1037B8005F6A5F50000AD8A419D05E50000AD8B4D6
:1037C800C9D7010AD8B4CAD7030AD8B4CBD7010AD3
:1037D800D8B4CCD7070AD8B4CDD7010AD8B4CED735
:1037E800030AD8B4CFD7010AD8B4D6D7010E00013E
:1037F800636F66D7000E016E17D00150010D880E59
:10380800F324F66E8D0EF420F76EF86A000EF82297
:103818000150010D740EF324D96E010EF420DA6EF6
:103828000800F5CFDFFF012A0150010D880EF324AF
:10383800F66E8D0EF420F76EF86A000EF822080076
:10384800F5500009D8A4D9D7000E016E17D0015041
:10385800010D770EF324F66E8D0EF420F76EF86ADC
:10386800000EF8220150010D880EF324D96E010EC6
:10387800F420DA6E0800F5CFDFFF012A0150010DB0
:10388800770EF324F66E8D0EF420F76EF86A000EAC
:10389800F8220800F5500009D8A4D9D7000E016E07
:1038A80017D00150010DF60EF324F66E8C0EF4209D
:1038B800F76EF86A000EF8220150010D9C0EF324F1
:1038C800D96E010EF420DA6E0800F5CFDFFF012A69
:1038D8000150010DF60EF324F66E8C0EF420F76EEF
:1038E800F86A000EF8220800F5500009D8A4D9D7C4
:1038F800000E016E17D00150010D620EF324F66E12
:103908008E0EF420F76EF86A000EF8220150010DB1
:10391800B00EF324D96E010EF420DA6E0800F5CF4C
:10392800DFFF012A0150010D620EF324F66E8E0EA0
:10393800F420F76EF86A000EF8220800F550000926
:10394800D8B41200D8D7A098000E636E000E626E2D
:10395800000E0F01266F270E016E0F0E026E000E6D
:10396800046E000E036E000E066E020E056EF6EC77
:103978003CF0160E0F01396F9F0E376F7B0E366FB6
:10398800000E096E0B0E096401D00ED00950040D0B
:10399800000EF324D96E0D0EF420DA6EDE6ADE6AAC
:1039A800DE6ADD6A092AEED7658C000E0F01386FD2
:1039B8006598659C6296000E0001696F000E010112
:1039C800346F000E366F000E356F62B6F3D7010EF6
:1039D8000001A76F010EA66F000EA56F000EA46F61
:1039E800000EAC6F000E096E020E096401D02ED0D5
:1039F8000950020D6C0EF324D96E000EF420DA6E15
:103A0800000EDE6E000EDD6E0950020D720EF324FC
:103A1800D96E000EF420DA6E000EDE6E000EDD6E3A
:103A28000950010D610EF324D96E010EF420DA6EEF
:103A3800000EDF6E0950010D5E0EF324D96E010EE3
:103A4800F420DA6E000EDF6E092ACED7080E0001C8
:103A58006C6F0D0E6D6F160E0F01266F0D0E0D019A
:103A6800036F300E026F080E016F040E006F008F97
:103A7800000E0001B46F000E0101546F000E556F67
:103A8800000E566F000E576F000E0001A36F000E58
:103A9800B06F1200800E0D013019D8A41200C00EAC
:103AA8000001696F88D0A40E0001666F8F0E676FE2
:103AB800000E6B6F120E6A6F12000D013251D8A4FE
:103AC80043D03251020DA50EF324F66E8E0EF4206B
:103AD800F76EF86A000EF8220900F5CF66F00A00C2
:103AE800F5CF67F0020E00016625016E000E672112
:103AF800026E01C0F6FF02C0F7FFF86A0E0EF76407
:103B080003D00800F55005D0F6CFE9FFF7CFEAFF5C
:103B1800EF5000016A6F030E6625016E000E6721E3
:103B2800026E01C0F6FF02C0F7FFF86A0E0EF764D6
:103B380003D00800F55005D0F6CFE9FFF7CFEAFF2C
:103B4800EF5000016B6F1200000E0001696F120048
:103B5800040E0D01326127D03251020D7B0EF32481
:103B6800F66E8E0EF420F76EF86A000EF822090041
:103B7800F5CF66F00A00F5CF67F066C0F6FF67C0BC
:103B8800F7FFF86A0E0EF76403D00800F55005D069
:103B9800F6CFE9FFF7CFEAFFEF50016E01500001C1
:103BA8006A6F6B6B1200000E0001696F1200000E45
:103BB8000001696F12000D013351010AD8B473D79F
:103BC800030AD8B47AD7010AD8B4C2D7F0D7000EFE
:103BD800216E17D02150010D090EF324F66E8E0EBA
:103BE800F420F76EF86A000EF8222150010D740EC9
:103BF800F324D96E010EF420DA6E0800F5CFDFFF4A
:103C0800212A2150010D090EF324F66E8E0EF420A0
:103C1800F76EF86A000EF8220800F5500009D8A4DB
:103C2800D9D7000E216E17D02150010D550EF3245F
:103C3800F66E8E0EF420F76EF86A000EF822215008
:103C4800010D880EF324D96E010EF420DA6E0800F7
:103C5800F5CFDFFF212A2150010D550EF324F66E12
:103C68008E0EF420F76EF86A000EF8220800F55060
:103C78000009D8A4D9D7000E216E17D02150010D04
:103C88008A0EF324F66E8E0EF420F76EF86A000E94
:103C9800F8222150010D9C0EF324D96E010EF42058
:103CA800DA6E0800F5CFDFFF212A2150010D8A0EB8
:103CB800F324F66E8E0EF420F76EF86A000EF822E2
:103CC8000800F5500009D8A4D9D7F8EC3EF001C097
:103CD80019F002C01AF01B6A1C6A21501F6E206A74
:103CE800010E1F26000E20229C0E1F241D6E010EA1
:103CF80020201E6EDFEC27F01200EEC0D9FFEFC0C7
:103D0800DAFFDF505D6E7F0E5D6473D06BEC3EF0C2
:103D18000009D8B428D0F0C015F0F1C016F0F7ECBF
:103D280024F01200EEC03FF0EFC040F0F0C041F0C8
:103D3800F1C042F0F6EC33F01200EEC044F0EFC0F0
:103D480045F0F0C046F0F1C047F0D2EC2CF012007C
:103D5800EEC055F0EFC056F0F0C057F0F1C058F083
:103D68009EEC11F012005D50800AD8B4DBD7010A2E
:103D7800D8B4E3D7030AD8A41200EAD7F0C015F0E4
:103D8800F1C016F0F7EC24F01200F0C005F0F1C015
:103D980006F0000E076E7CEC2AF01200F0C005F069
:103DA800F1C006F0010E076E7CEC2AF01200F0C09C
:103DB80005F0F1C006F0A8EC13F01200F0C001F015
:103DC800F1C002F0C2EC2DF01200F0C001F0F1C019
:103DD80002F0EEC003F0EFC004F003500410D8A4C2
:103DE800200E056E000E076E400E066E9FEC35F035
:103DF80012005D50100AD8B4C1D7010AD8B4C5D78B
:103E0800030AD8B4CBD7010AD8B4D1D7070AD8B493
:103E1800D5D7340AD8A41200D8D7000120EE01F073
:103E28009251D9269351DA22DF50026E02500101D5
:103E3800355D000E3659D8A035C102F00250355F05
:103E4800000E365B000E016E11D00150010D380EC8
:103E5800F324D96E0D0EF420DA6E31C1E1FF32C1C0
:103E6800E2FFDFCFE7FF314B322B012A0250015C22
:103E7800D8A0EBD735513611D8B433D0000120EE95
:103E880001F09051D9269151DA22080EDF6E20EE0A
:103E980002F09051D9269151DA22380EDE6E0D0EBD
:103EA800DD6E92C0D9FF93C0DAFFDFBC0DD090C0A1
:103EB800D9FF91C0DAFF480EDF6E90C0D9FF91C0DC
:103EC800DAFF000EDB8E120090C0D9FF91C0DAFF36
:103ED800080EDF6E90C0D9FF91C0DAFF000EDB8EAE
:103EE8001200000120EE01F09051D9269151DA22FA
:103EF800080EDF6E20EE02F09051D9269151DA2299
:103F0800300EDE6E0D0EDD6E90C0D9FF91C0DAFF67
:103F1800040EDF6E90C0D9FF91C0DAFF000EDB8E71
:103F28000101349F0001A851D8A4120041EC28F0E7
:103F38001200F0C101F0F1C102F001D80AD0050069
:103F4800FA6E0101E851FD6EE951FE6EFF6AFA5002
:103F580012000009D8B40CD001010D51010D9C0EBE
:103F6800F324D96E000EF420DA6EDE04D8A419D03A
:103F78000DC148F0010E496E000E4A6E482A03D062
:103F8800D89049364A36482EFBD7491C4B6E4A1CF6
:103F98004C6E4B50010170174C507117D2EC35F034
:103FA8004ED00DC148F0010E496E000E4A6E482AE7
:103FB80003D0D89049364A36482EFBD701017051B4
:103FC800491671514A1649504A10D8A436D0F0C142
:103FD80001F0F1C102F001D809D00500FA6EE251F2
:103FE800FD6EE351FE6EFF6AFA5012000150021096
:103FF800D8B420D00DC148F0010E496E000E4A6EAB
:10400800482A03D0D89049364A36482EFBD749501B
:10401800010170134A5071132151F00B0609216FE9
:10402800280E2B6F000E2C6F010E0D018C6F4EECBD
:1040380002F005D0D2EC35F002D04EEC02F00001CF
:10404800A1511200066E0650D8A42CD0000120EE13
:1040580001F09051D9269151DA22080EDF6E20EE38
:1040680002F09051D9269151DA22300EDE6E0D0EF3
:10407800DD6E90C0D9FF91C0DAFF0C0EDF6E90C0E4
:10408800D9FF91C0DAFF000EDB8E6CC0D9FF6DC07E
:10409800DAFF040EDF6E6CC0D9FF6DC0DAFF000EC8
:1040A800DB8E12000150026E036AD8900236033686
:1040B8000650046E056AD89004360536D890043642
:1040C80005360250042603500522D89004360536DA
:1040D800D89004360536000E0424076E0D0E052010
:1040E800086E07C0D9FF08C0DAFF000EDB8407C0DE
:1040F800D9FF08C0DAFF000EDB8E0650040DF3CF9F
:1041080002F0F4CF03F00150020DF3500226F450F0
:104118000322D89002360336D89002360336040EAE
:104128000226000E0322000E0224076E0D0E032045
:10413800086E07C0D9FF08C0DAFF000EDB8407C08D
:10414800D9FF08C0DAFF000EDB8E1200000E016EE8
:10415800400E026E0D0E036E400E046E020E32EC1F
:1041680022F001C08AF002C08BF070C088F071C0E4
:1041780089F0000E0001A26FA169000EA06F000E69
:104188009F6F000E9B6F000E0101506F000E516F64
:10419800000E526F000E536F000E4C6F000E4D6FE5
:1041A800000E4E6F000E4F6F010E00019A6F000E49
:1041B8000101716F000E706F000E0D6F46D00D512A
:1041C800010D9C0EF324D96E000EF420DA6E000E59
:1041D800DF6EF0C101F0F1C102F001D809D005008D
:1041E800FA6EE851FD6EE951FE6EFF6AFA50120050
:1041F8000009D8B426D0F0C101F0F1C102F001D80D
:104208000AD00500FA6E0101E251FD6EE351FE6E1F
:10421800FF6AFA50120001500210D8B412D00DC132
:104228000CF0010E0D6E000E0E6E0C2A03D0D89005
:104238000D360E360C2EFBD70D50010170130E50A3
:10424800711303EC36F001010D2B0D51D8A41200A7
:10425800B6D7096E000188518911D8B406D088C034
:10426800D9FF89C0DAFFDFBE12008A518B11D8B49A
:1042780006D08AC0D9FF8BC0DAFFDFBE1200A2C009
:104288000AF0A169000EA06F000E9F6F08C188FD9B
:1042980009C189FD0AC18AFD0BC18BFD010E0D0103
:1042A8008C6F030E0001A26F43D0020E0D018C6FBC
:1042B8001200010E016E020E26EC20F01200020E12
:1042C8000D018C6F010E016E020E26EC20F012001B
:1042D800000E016E020E26EC20F01200020E0D01F7
:1042E8008C6F000E016E020E26EC20F0120003EC1B
:1042F80036F001012151F00B0509216F200E2B6FBB
:10430800000E2C6F020E0A18D8A40CD008510911FF
:104318000A110B11D8B406D0000E016E020E26EC5D
:1043280020F01200010E016E020E26EC20F01200A1
:104338000950010AD8B4B9D7030AD8B4BAD7010AC0
:10434800D8B4BDD7070AD8B4C3D7010AD8B4C6D7DA
:104358007A0AD8A41200CBD7016E78D083A4FED7EE
:104368008890729A958C95988C98959A8C9A959E27
:104378008C8E550EA76EAA0EA76E0E01BF91000E69
:10438800D76F1F0EFC6F1F0EFE6F170EFC6F0A0E05
:10439800D56F0B0ED66F160EFD6F550EA76EAA0EB3
:1043A800A76EBF81738E738C729E729C7298729086
:1043B800729272947296728A000E0001946F1200C3
:1043C8008890729A0F014093550EA76EAA0EA76E99
:1043D8000E01BF910A0ED76F150EFC6F160EFD6FFA
:1043E800130EFE6F550EA76EAA0EA76EBF81729AA6
:1043F800958A9588959C8C8C9584739E738C729EF7
:10440800729C72987250F00B0409726EA49E728AA4
:10441800888A88888886889488928698869A869CCE
:10442800869E8690869286948696000E666E3F0ECD
:10443800676E020E6A6E400E6B6E020E686E000E9C
:10444800696E8880010E0001946F12000150000A05
:10445800D8B484D7010AD8A41200B2D7096E015083
:10446800D8B407D00950020D6C0EF324D96E000E93
:1044780006D00950020D720EF324D96E000EF420F6
:10448800DA6EDECF0AF0DDCF0BF00A500B10D8A49D
:1044980005D0000E016E000E026E120020EE02F032
:1044A8000A50D9260B50DA2202C0DEFF03C0DDFF16
:1044B80020EE01F00A50D9260B50DA2204C0DFFFA3
:1044C8000AC0D9FF0BC0DAFF400EDF160AC0D9FFB9
:1044D8000BC0DAFF000EDB860AC0D9FF0BC0DAFF7B
:1044E800000EDB8E0150D8B418D00950020D6C0EA6
:1044F800F324D96E000EF420DA6EDECF05F0DDCF9E
:1045080006F0040E0518076E0650086E0950020DD5
:104518006C0EF324D96E000E17D00950020D720EDE
:10452800F324D96E000EF420DA6EDECF05F0DDCF6D
:1045380006F0040E0518076E0650086E0950020DA5
:10454800720EF324D96E000EF420DA6E07C0DEFF77
:1045580008C0DDFF0AC001F00BC002F01200659828
:10456800000169BF3CD0010134AF0DD0020E00013B
:10457800AE6FA451D8B473EC2DF0000E0001A66FF5
:10458800000EA76F1200000120EE01F09051D9260D
:104598009151DA22080EDF6E20EE02F09051D926F2
:1045A8009151DA22300EDE6E0D0EDD6E90C0D9FF0D
:1045B80091C0DAFF0C0EDF6E90C0D9FF91C0DAFF10
:1045C800000EDB8E6CC0D9FF6DC0DAFF040EDF6E03
:1045D8006CC0D9FF6DC0DAFF000EDB8E12000D0132
:1045E80030AF12D0010E0001AE6FA551D8B473ECF4
:1045F8002DF0000E0001A66F000EA76FA851D8A4D9
:10460800120041EC28F01200020E0001AE6F20EEFD
:1046180001F09051D9269151DA22080EDF6E20EE72
:1046280002F09051D9269151DA22300EDE6E0D0E2D
:10463800DD6E90C0D9FF91C0DAFF040EDF6E90C026
:10464800D9FF91C0DAFF000EDB8E000EA66F000EB8
:10465800A76FA851D8A4120041EC28F012000D0150
:104668003039E832030B0009D8A4120047D0000102
:10467800698F080EB06F12004EEC1DF01200A4EC0A
:1046880023F01200B40E0001666F000E676F698197
:10469800010E6A6F698F120084EC2BF01200D9ECBE
:1046A8000BF012000D013451010DE00EF32400014E
:1046B800666F010EF420676F6981010E6A6F698F5A
:1046C80012000001698F0D013451010DE00EF32431
:1046D800D96E010EF420DA6E32CDDFFF1200000E23
:1046E800116E020E106E000E126E000E136E000E8A
:1046F800156E000E146EE5EC30F012000D0131510C
:10470800000AD8B4C9D7010AD8B4C9D7020AD8B49C
:10471800C6D7060AD8B4ABD7030AD8B4ADD7010AAE
:10472800D8B4DDD70F0AD8B4ADD7010AD8B4A7D703
:10473800030AD8B4B7D7010AD8B4C3D7070A1200F6
:104748000001698F270E016E0F0E026E000E046EB7
:10475800000E036E000E066E020E056EF6EC3CF0BF
:10476800000E016E0D0E026E000E046E000E036E3A
:10477800000E066E300E056EF6EC3CF0658C000EF1
:10478800186E020E186401D016D01850010D610E73
:10479800F324D96E010EF420DA6E000EDF6E185085
:1047A800010D5E0EF324D96E010EF420DA6E000EB0
:1047B800DF6E182AE6D7E00E016E010E026E000EBB
:1047C800046E000E036E000E066E020E056EF6EC09
:1047D8003CF0659C080E00016C6F0D0E6D6F000EAD
:1047E800926F0D0E936F92C090F093C091F032CDFE
:1047F800B4F0B451D8A403D0100EB06F1200000E5C
:10480800116E010E106EB40E126E000E136E000EB5
:10481800156E010E146EE5EC30F0200E0001B06F3D
:1048280012000D0130511F0BE806D8A412003451B4
:10483800D8A41200060E3119D8B41AD022D000011B
:10484800B405D8A41ED0B90E666F8E0E676F000E21
:104858006B6F090E0BD0C00E696F13D06D0E00017F
:10486800666F8F0E676F000E6B6F1D0E6A6FF3D742
:104878000D013351210AD8B4E2D7030AD8B4EED7D0
:10488800010A0D013039E832030BE806D8A41200FA
:1048980024D0B20E0001666F000E676F000E6B6FBA
:1048A800010E6A6FC10E696F1200800E0001696FF8
:1048B80033CDB2F01200B10E0001666F000E676FC3
:1048C800000E6B6F010E6A6F810E696F1200800E09
:1048D8000001696F32CDB1F012000D013151010AAA
:1048E800D8B41200030AD8B4D4D7010AD8B4E3D78D
:1048F8000A0AD8B41200030AD8B4D7D7010AD8A430
:104908001200E5D70B500C100D100E10D8A402D0D1
:10491800010E01D0000E116E00019B05D8A405D030
:104928001104D8A402D0000E12000B50010108197E
:104938001AE10C50091917E10D500A1914E10E502B
:104948000B19D8A410D00001A205D8A406D02A0EAD
:10495800A119D8B408D0000E12002A0EA119D8A4A3
:1049680002D0000E1200010108510B5C09510C58CD
:104978000A510D580B510E58D8B002D0010E01D073
:10498800000E0F6E020E0001A219D8A414D02A0E30
:10499800A119D8B405D01150D8A402D0050E1DD045
:1049A8009B05D8B40FD01104D8B403D00F04D8A4F1
:1049B800F5D7040E12D02A0EA119D8B40DD09B0534
:1049C800D8A402D0010E09D01104D8B403D00F0422
:1049D800D8A402D0020E01D0030E106E10502DEC98
:1049E80021F01050120015C0D9FF16C0DAFF100EC2
:1049F800DF6E20EE01F01550D9261650DA22250E6A
:104A0800DF6E20EE02F01550D9261650DA22C10EBC
:104A1800DF6E20EE03F01550D9261650DA226BEC23
:104A28003EF0DF6E20EE04F01550D9261650DA223B
:104A3800000EDF6E20EE05F01550D9261650DA224A
:104A4800010EDF6E20EE06F01550D9261650DA2238
:104A5800000EDF6E20EE07F01550D9261650DA2228
:104A680017EC3FF0DF6E20EE08F01550D9261650EF
:104A7800DA2260C0DFFF20EE09F01550D926165063
:104A8800DA2261C0DFFF20EE0AF01550D926165051
:104A9800DA2262C0DFFF20EE0BF01550D92616503F
:104AA800DA2263C0DFFF20EE0CF01550D92616502D
:104AB800DA2264C0DFFF20EE0DF01550D92616501B
:104AC800DA2265C0DFFF12005AD000016151D8B464
:104AD800120076EC3EF0000E0001616F12008C901F
:104AE800000E01016D6F000E6C6F020E0001986FD1
:104AF8001200BBEC3DF0000E01016D6F000E6C6FF3
:104B0800030E0001986F120001016C4B6D2B6D5163
:104B180004E1040E6C5DD8A01200CCEC3DF0000E50
:104B280001016D6F000E6C6F040E0001986F12008A
:104B3800CAEC3CF0960E5FEC3DF09CEC3EF0000EAB
:104B480001016D6F000E6C6F050E0001986F120069
:104B58006051D8A40CD06151D8A409D001016C29A6
:104B680003E16D29D8B412006C4B6D2B1200000EB6
:104B780001016D6F000E6C6F22EC2AF0120000012B
:104B88009851000AD8B4A1D7010AD8B4A8D7030A03
:104B9800D8B4AFD7010AD8B4B7D7070AD8B4C8D79A
:104BA800010AD8A41200D4D7000E0A6E000E0C6EAB
:104BB80062D00C500124066E000E0220076E000E13
:104BC8000320086E000E0420096E0950081004E145
:104BD800900E075CD8A018D00C500124066E000E69
:104BE8000220076E000E0320086E000E0420096ED6
:104BF80009500AE1F80E065CFF0E0758010E085826
:104C0800D8B002D0000E29D00C500124066E000E38
:104C18000220076E000E0320086E000E0420096EA5
:104C2800095008E1F80E065CFF0E0758010E0858F7
:104C3800D8A015D00C500124066E000E0220076E75
:104C4800000E0320086E000E0420096E095007E1CB
:104C5800020E085CD8B003D0010E0B6E01D00B68B1
:104C68000B28D8A402D0FF0E12000B500A5CD8A063
:104C78000BC00AF00C2A05500C5CD8A09AD70A5031
:104C88001200E8C0D9FFE9C0DAFF7F0EDF6401D067
:104C98001200010E586E58D05850010DF350000103
:104CA800E825D96EF450E921DA6E990EDE18D8B4E9
:104CB80012002ED05850010DF350E825D96EF4504B
:104CC800E921DA6EDF50A1EC30F00CD05850010D1C
:104CD800F3500001E825D96EF450E921DA6EDF506F
:104CE800A1EC30F0582A30D05850010DF350000193
:104CF800E825D96EF450E921DA6EDF50566E576A0E
:104D080056C053F057C054F087EC2FF058261CD0EB
:104D18005850010DF3500001E825D96EF450E921EF
:104D2800DA6EDF50F00B566E576A5750000AD8A457
:104D380012005650200AD8B4BDD7100AD8B4C6D726
:104D4800600AD8A41200D0D70001EA51585CD8B044
:104D58001200A2D726D0800E1200020E1200000EFA
:104D68001200000E1200040E1200180E12000F0E90
:104D78001200010E1200010E1200000E1200000EA9
:104D88001200000E1200880E1200130E1200000E00
:104D98001200000E1200550E1200AA0E1200000E8C
:104DA800120001C003F002C004F00450010AD8A4A4
:104DB800F6D70350BE0AD8B4CED7010AD8B4CDD797
:104DC8007F0AD8B4CCD7010AD8B4CBD7030AD8B451
:104DD800CAD7010AD8B4C9D7070AD8B4C8D7010AAC
:104DE800D8B4C7D7030AD8B4C6D7010AD8B4C5D728
:104DF8000F0AD8B4C4D7010AD8B4C3D7030AD8B4A1
:104E0800C2D7010AD8B4C1D7070AD8B4C0D7010A93
:104E1800D8B4BFD7330AD8B4BED7010AD8B4BDD7DF
:104E2800BED7080E016E00016B5110E1080E6A5DD5
:104E3800D8B00CD06AC001F0AF51D8A402D0010E8E
:104E480004D0AF05D8A402D0020EAF6F01506A5F3C
:104E5800000E6B5B20EE01F06C51D9266D51DA2201
:104E680001C0DFFF380E8E6F0D0E8F6F69A11CD049
:104E78003AD066C0F6FF67C0F7FFF86A8EC0D9FF60
:104E88008FC0DAFF0E0EF76403D00800F55005D086
:104E9800F6CFE9FFF7CFEAFFEF50DF6E0001664B70
:104EA800672B8E4B8F2B01060150D8B41200E1D727
:104EB80066C0F6FF67C0F7FFF86A8EC0D9FF8FC0DB
:104EC800DAFF0E0EF76403D00800F55005D0F6CFD0
:104ED800E9FFF7CFEAFFEF50DF6E0001664B672B63
:104EE8008E4B8F2B01060150D8B41200E1D76CC04D
:104EF800D9FF6DC0DAFF0001000EDFBC010E026EA3
:104F0800040E6C196C6F6D516D6F080EB019D8A432
:104F18000DD00D0132517F0B0F01386F3851D8B4C5
:104F280002D0100E01D0040E0001B06FAE05D8A457
:104F38003BD020EE02F06C51D9266D51DA22380EA2
:104F4800DE6E0D0EDD6E15EC27F0020E0001AF19B6
:104F5800D8A40DD06CC0D9FF6DC0DAFF040EDF6E87
:104F68006CC0D9FF6DC0DAFF000EDB8E1200025054
:104F7800D8A40DD06CC0D9FF6DC0DAFF480EDF6E23
:104F88006CC0D9FF6DC0DAFF000EDB8E12006CC05A
:104F9800D9FF6DC0DAFF080EDF6E6CC0D9FF6DC097
:104FA800DAFF000EDB8E1200010134BF349F000EC1
:104FB8000001AE6F12001DC011F01EC012F019C022
:104FC80013F01AC014F0000E166E0A0E156E28ECB7
:104FD8003AF01C501B1006E1100E195C270E1A58E7
:104FE800D8A00AD020EE05F01D50D9261E50DA228E
:104FF800200EDF6E050E12001C501B1006E1E80E95
:10500800195C030E1A58D8A00AD020EE04F01D50DF
:10501800D9261E50DA22200EDF6E040E12001C5014
:105028001B101A1004E1640E195CD8A00AD020EEF7
:1050380003F01D50D9261E50DA22200EDF6E030E13
:1050480012001C501B101A1004E10A0E195CD8A09B
:105058000AD020EE02F01D50D9261E50DA22200E6A
:10506800DF6E020E120020EE01F01D50D9261E50F0
:10507800DA22200EDF6E010E12000001A751D8A41B
:105088001200010EA76FA651D8A41200010EA66F38
:10509800020EAE19D8A415D020EE01F06C51D92615
:1050A8006D51DA22000EDF6E6CC0D9FF6DC0DAFFD9
:1050B800480EDF6E6CC0D9FF6DC0DAFF000EDB8EC4
:1050C8001200AE05D8A41200000EAA6F20EE01F05F
:1050D8009251D9269351DA22080EDF6E20EE02F0A3
:1050E8009251D9269351DA22300EDE6E0D0EDD6E06
:1050F80092C0D9FF93C0DAFF040EDF6E92C0D9FFC9
:1051080093C0DAFF000EDB8E010EAA6F20EE01F0CD
:105118009051D9269151DA22080EDF6E20EE02F066
:105128009051D9269151DA22300EDE6E0D0EDD6EC9
:1051380090C0D9FF91C0DAFF800EDF6E12000D011A
:1051480030511F0BE806D8A412003451D8A412001D
:105158004ED032513311D8A4120036513711D8A489
:105168001200000E0001A26FA169000EA06F000ED0
:105178009F6F010E9A6F76C00CF077C00DF00C503F
:105188000D10D8B40AD076C00EF077C00FF00EC05C
:10519800D9FF0FC0DAFFDFBE0FD0000E016E400E40
:1051A800026E0D0E036E400E046E020E32EC22F0FB
:1051B80001C08AF002C08BF0800E0001696F1200F6
:1051C8000D0132513311D8A4120036053711D8A475
:1051D8001200000E386F380E0001666F0D0E676FF3
:1051E800000E6B6F010E6A6FC10E696F12000D0120
:1051F8003151FE0AD8B4E4D7010AD8A41200A9D7BD
:1052080053D001C0F6FF02C0F7FFF86A0E0EF7642C
:1052180003D00800F55005D0F6CFE9FFF7CFEAFF35
:10522800EF500009D8B419D003C0D9FF04C0DAFF81
:10523800DF50076E01C0F6FF02C0F7FFF86A0E0ED6
:10524800F76403D00800F55005D0F6CFE9FFF7CF93
:10525800EAFFEF500718D8B423D003C0D9FF04C021
:10526800DAFFDF50076E086A071E081E074A082A79
:1052780001C0F6FF02C0F7FFF86A0E0EF76403D00C
:105288000800F55005D0F6CFE9FFF7CFEAFFEF5059
:10529800096E09500724016E000E0820026E1200E4
:1052A800014A022A034A042A0506D8A00606052848
:1052B800A8E10628D8A4A5D7000E026E000E016E3C
:1052C8001200000E3F6E000E416E120E406E4150ED
:1052D80056E1160E405CD8B052D0000E436E000E58
:1052E800426E020E435CD8B047D040C028F041C09F
:1052F80029F042C02AF043C02BF0000E2D6E0B0E91
:105308002C6E340E2E6E000E2F6E69EC3CF034506D
:10531800D8A402D0FF0E1200E50E3418D8B426D057
:1053280030C001F031C002F0340E036E000E046E7E
:10533800000E066E080E056E04EC29F001500210EE
:10534800D8A414D032C001F033C002F03C0E036E72
:10535800000E046E000E066E030E056E04EC29F0B6
:1053680001500210D8A402D03F5012003F2A200E4C
:105378004226000E4322B5D7404A412AA8D7FF0E3D
:1053880012002B6E9AEC39F015D0FEEC1BF03BD0D6
:105398009FEC14F038D0EBEC1DF035D0CEEC19F0C2
:1053A80032D09AEC07F02FD07AEC16F02CD08CEC97
:1053B8001AF029D02B50F00B296E2A6A2A50000ABD
:1053C800D8A421D02950000AD8B4DFD7100AD8B4FD
:1053D800DFD7300AD8B4DFD7100AD8B4DFD7700ABD
:1053E800D8B4DFD7100AD8B4DFD7300AD8B4DFD79B
:1053F8000AD02E0E0101856F2E0E0101846F2E0E2C
:105408000101836F15D000016239E842070B030BD5
:10541800296E2A6A2A50000AD8A40AD02950010AFB
:10542800D8B4EDD7030AD8B4E7D7010AD8B4E1D77E
:10543800F2AE1200490E0101866F120041D0000140
:105448006151800A7F0FD8A01200000E616F120010
:105458006151800A7F0FD8A01200200E646F200EC1
:10546800656F000E616F12006151800A7F0FD8A02E
:105478001200000E616F12006151800A7F0FD8A0E0
:105488001200000E616F12006151800A7F0FD8A0D0
:105498001200500E646F500E656F000E616F12009F
:1054A8006151800A7F0FD8A01200000E616F1200B0
:1054B8006151800A7F0FD8A0120025EC3BF0120042
:1054C80000016551000AD8B4BAD7100AD8B4C0D7B9
:1054D800300AD8B4C9D7100AD8B4D6D7700AD8B405
:1054E800CBD7100AD8B4DCD7300AD8A41200E0D73A
:1054F8000750D8B406D005C0D9FF06C0DAFF120E8F
:1055080005D005C0D9FF06C0DAFF110EDF6E20EE08
:1055180001F00550D9260650DA22250EDF6E20EE5E
:1055280002F00550D9260650DA22C10EDF6E030EAE
:105538000D6E0750D8B402D0020E01D0000E0F6EC7
:105548000FC00EF01AD0000E106E130E106401D0AA
:1055580013D010C001F00E5022EC3DF0086E0D5033
:10556800010DF3500524D96EF4500620DA6E08C0F8
:10557800DFFF0D2A102AE9D70E2A0F50086E096A94
:10558800020E0826000E09220E500A6E0B6A0850F9
:105598000A5C0B50800A0C6E0950800A0C58D8B06F
:1055A8001200D1D70E0EF66E7E0EF76E000EF86E54
:1055B80002EEF2F010EE08F00900F5CFEEFFE5502C
:1055C800E150FAE11E0EF66E7C0EF76E000EF86ED4
:1055D80001EEE2F010EE1DF00900F5CFEEFFE55008
:1055E800E150FAE15C0EF66E7E0EF76E000EF86E74
:1055F8000900F5CFFEF003EE40F012EE00F0EE6A7F
:10560800E550E150FCE1E250FAE108EE00F014EE5A
:1056180000F0EE6AE550E150FCE1E250FAE103EEF9
:1056280000F0400EEE6AE806FDE102EE00F0F20E30
:10563800EE6AE806FDE101EE00F0E20EEE6AE80629
:10564800FDE100EE60F0550EEE6AE806FDE10001AE
:1056580047EF1BF02D0E0001A96FB3C01EF0FD0E21
:105668001E16D8A444D0B3C01EF0D8901E323F0EE8
:105678001E161E50040D000EF324926F0D0EF4201A
:10568800936F92C090F093C091F0040E9019906FB0
:105698009151916F92C0D9FF93C0DAFFDF30E832A1
:1056A8000F0B0D0AD8A420D0300E016E0D0E026E1D
:1056B80020EE02F09251D9269351DA22DECF1EF065
:1056C800DDCF1FF01EC003F01FC004F0035004100C
:1056D800D8A4200E056E000E076E080E066E9FEC0D
:1056E80035F03EEC2FF0120064EC36F012000001A9
:1056F800B351FD0B040AD8A412007BEC27F012006A
:10570800000E0D01386F000E396F39D00001698F16
:105718000001AD05D8A43ED00D0138833BD000016F
:10572800698F38D00001698F0D0134BF0AD0345118
:105738000F0B016E0150020D720EF324D96E000E8C
:1057480009D034510F0B016E0150020D6C0EF32479
:10575800D96E000EF420DA6EDECF02F0DDCF03F052
:1057680002C0D9FF03C0DAFFDFAE14D002C0D9FFF0
:1057780003C0DAFFDFA40ED0010E386F0BD0305112
:105788001F0B000AD8B4C2D7010AD8B4C8D7030A75
:10579800D8B4C8D7000169AF1200380E666F0D0E75
:1057A800676F6981020E6A6F1200200E0001B061F6
:1057B80001D0120065B2120084518511D8B406D008
:1057C80084C0D9FF85C0DAFFDFBE120001016E5127
:1057D8006F11D8B406D06EC1D9FF6FC1DAFFDFBE32
:1057E80020D0800E0001F26FF36BF2C0EEF0F3C030
:1057F800EFF0000EF46FF56BF4C0F0F0F5C0F1F0C7
:1058080081EC1EF0010E016E000E026E030E036E97
:10581800400E046E010E32EC22F001C06EF102C09F
:105828006FF1800E0001E86F020EE96F400EEA6F1B
:1058380045EC26F0000E016E800E026E020E036E1D
:10584800400E046E010E32EC22F001C084F002C05A
:1058580085F01200000E296E000E286E400E2A6E8A
:10586800030E2B6E37EC3CF0000E2F6E000E2E6EE2
:10587800020E2F5CD8B016D0400E2E24D96E030E1F
:105888002F20DA6E2EC001F02FC002F0AEEC26F009
:105898002D6EDE502D18D8B402D0000E12002E4AFC
:1058A8002F2AE6D7000E296E010E286E400E2A6EAA
:1058B800030E2B6E37EC3CF0000E2F6E000E2E6E92
:1058C800020E2F5CD8B016D0400E2E24D96E030ECF
:1058D8002F20DA6E2EC001F02FC002F01BEC0DF065
:1058E8002D6EDE502D18D8B402D0000E12002E4AAC
:1058F8002F2AE6D7010E12000AC00EF00BC00FF0D7
:105908000EC001F00FC002F00CC003F00DC004F08F
:10591800F8EC38F001C00EF002C00FF0084A092A6E
:105928000E500F10D8A4ECD708C0D9FF09C0DAFF71
:10593800000EDF6E0806D8A009060AC001F00BC0E9
:1059480002F00CC003F00DC004F049EC3AF001502D
:10595800106E0AC001F00BC002F00CC003F00DC0BD
:1059680004F0F8EC38F001C00AF002C00BF0090EA0
:10597800106402D0070E1026300E102608C0D9FF7A
:1059880009C0DAFF10C0DFFF0806D8A009060A50D0
:105998000B10D8A4D2D7084A092A120046C0D9FF4A
:1059A80047C0DAFF810EDF6E20EE01F04650D9269F
:1059B8004750DA22250EDF6E20EE02F04650D92637
:1059C8004750DA22C10EDF6E010E4424306E000EFD
:1059D8004520316E090E4424326E000E4520336E88
:1059E80065EC29F0486E20EE03F04650D926475062
:1059F800DA2248C0DFFF000E4C6E0A0E4C6401D05C
:105A080012004C50486E496A010E4826000E492281
:105A180048504424D96E49504520DA6E4C504A6E9D
:105A28004B6A0C0E4A26000E4B224A504624E16E61
:105A38004B504720E26EDFCFE7FF4C2ADED7B60E89
:105A4800306E8F0E316EC70E326E8F0E336E65EC70
:105A580029F00001FE6FFE29D8B434D0FE514DEC78
:105A680033F030C078F031C079F032C07AF033C00A
:105A78007BF0000E01016B6F000E6A6F000E0001D3
:105A88007C6F000E7D6F000E7E6F000E7F6F010130
:105A9800486949694A694B69000E446F000E456FB1
:105AA800000E466F000E476F000E406F000E416FEC
:105AB800000E426F000E436F100E0001646F100E4F
:105AC800656F1200000E786F000E796F000E7A6F06
:105AD800000E7B6F000E646F000E656F1200000EE3
