:020000040000FA
:040000000EEF00F00F
:0400080004EF48F0C9
:100018000CEF48F02EEF2FF00E500C24D96E0F5035
:100028000D20DA6E3A0EDE18D8B405D00C680D68CB
:100038000E680F681200020E0E24146E000E0F20B8
:10004800156E14500C24D96E15500D20DA6EDF5041
:10005800036E010E0E24166E000E0F20176E16503A
:100068000C24D96E17500D20DA6EDF5068EC3CF086
:10007800186E196A12C0D9FF13C0DAFF18C0DEFF64
:1000880019C0DDFF12C0D9FF13C0DAFF010EDB5023
:1000980004E1110EDE5CD8A009D0FC0E0C6EFF0E38
:1000A8000D6EFF0E0E6EFF0E0F6E1200040E0E2464
:1000B800146E000E0F20156E14500C24D96E1550B6
:1000C8000D20DA6EDF50036E050E0E24166E000E3C
:1000D8000F20176E16500C24D96E17500D20DA6EAB
:1000E800DF50046E060E0E24186E000E0F20196ED7
:1000F80018500C24D96E19500D20DA6EDF50056E99
:10010800030E0E241A6E000E0F201B6E1A500C24BC
:10011800D96E1B500D20DA6EDF5046EC32F020EE1F
:1001280002F01250D9261350DA2203C0DEFF04C0B1
:10013800DDFF20EE04F01250D9261350DA22080E03
:100148000E24146E000E0F20156E14500C24E16E50
:1001580015500D20E26EE750036E070E0E24166E42
:10016800000E0F20176E16500C24E16E17500D204C
:10017800E26EE75068EC3CF0DF6E000E1C6E3DD07E
:100188001C50010D050EF326000EF422F350122424
:10019800D96EF4501320DA6E1C501CC014F0156A86
:1001A8001426000E15220E5014260F5015220A0E82
:1001B8001426000E152214500C24E16E15500D2043
:1001C800E26EE750036E1C501CC016F0176A162624
:1001D800000E17220E5016260F501722090E16264B
:1001E800000E172216500C24E16E17500D20E26EF7
:1001F800E75068EC3CF0DF6E1C2A12C0D9FF13C030
:10020800DAFF1C50166E176ADE50165CDE5017585F
:10021800D8A0B6D720EE15F01250D9261350DA22FE
:100228001C501CC014F0156A1426000E15220E501E
:1002380014260F5015220A0E1426000E15221450EB
:100248000C24E16E15500D20E26EE750036E1C5031
:100258001CC016F0176A1626000E17220E50162616
:100268000F501722090E1626000E172216500C24BE
:10027800E16E17500D20E26EE75068EC3CF0DF6E3F
:1002880012C0D9FF13C0DAFF10EE16F01250E126A3
:100298001350E222DFCFE7FF20EE02F01250D926FA
:1002A8001350DA22DECF14F0DDCF15F015C014F0AC
:1002B800156A20EE16F01250D9261350DA2214507F
:1002C800DF2620EE02F01250D9261350DA22DF5032
:1002D800146E20EE16F01250D9261350DA2214505C
:1002E800DF2620EE04F01250D9261350DA22DF5010
:1002F800146E20EE16F01250D9261350DA2214503C
:10030800DF26000E1C6E17D01C50010D050EF326BB
:10031800000EF422F3501224D96EF4501320DA6E32
:10032800DF50146E20EE16F01250D9261350DA2240
:100338001450DF261C2A12C0D9FF13C0DAFF1C5044
:10034800166E176ADE50165CDE501758D8A0DCD738
:1003580020EE15F01250D9261350DA22DF50146E11
:1003680020EE16F01250D9261350DA221450DF2648
:1003780020EE16F01250D9261350DA22DF50D8B4E6
:1003880009D0FE0E0C6EFF0E0D6EFF0E0E6EFF0EE8
:100398000F6E120020EE04F01250D9261350DA2204
:1003A800DE04D8A409D0000E0C6E000E0D6E000EEF
:1003B8000E6E000E0F6E12001C501CC014F0156A51
:1003C8001426000E15220B0E1424166E000E15208E
:1003D800176E186A17BE18061850196E16500E2692
:1003E80017500F221850102219501122010E0E26F4
:1003F800000E0F22102211220E500C24D96E0F501D
:100408000D20DA6E3A0EDE18D8A409D00EC00CF012
:100418000FC00DF010C00EF011C00FF01200010E49
:100428000E26000E0F22102211220E500C24D96E17
:100438000F500D20DA6E3A0EDE18D8A409D00EC07F
:100448000CF00FC00DF010C00EF011C00FF012002C
:10045800010E0E26000E0F22102211220E500C241F
:10046800D96E0F500D20DA6E3A0EDE18D8A409D0D6
:100478000EC00CF00FC00DF010C00EF011C00FF040
:100488001200FD0E0C6EFF0E0D6EFF0E0E6EFF0EAF
:100498000F6E1200B9D177EC15F00009D8A412003C
:1004A8000001A869120013EC09F00009D8A4120091
:1004B8000001A8691200A205D8A402D0A8691200F8
:1004C80012C18DF013C18CF08CC00BF08DC00CF0F4
:1004D8000D6A0E6A1FEC23F00009D8A41200000E62
:1004E800026E240E016E58EC2CF0000E016E060E02
:1004F800026E490E036E8F0E046E03500410D8A4CA
:10050800000E056E000E076E240E066E26EC34F003
:10051800FD0E0001A86F1200E2C101F0E3C102F074
:1005280001D80AD00500FA6E0101D651FD6ED751E7
:10053800FE6EFF6AFA50120001C043F002C044F098
:1005480003C045F004C046F0E2C101F0E3C102F087
:1005580001D80AD00500FA6E0101D851FD6ED951B3
:10056800FE6EFF6AFA50120001C03FF002C040F070
:10057800416A426A26EE00F046C0DFFF26EE01F02F
:1005880045C0DFFF26EE02F044C0DFFF26EE03F091
:1005980043C0DFFF26EE04F042C0DFFF26EE05F081
:1005A80041C0DFFF26EE06F040C0DFFF26EE07F071
:1005B8003FC0DFFF000E00018D6F080E8C6F000E2C
:1005C800026E080E016E58EC2CF0FD0E0001A86FAB
:1005D8001200A205D8A402D0A8691200000E8D6FDF
:1005E800120E8C6F000E026E120E016E58EC2CF07B
:1005F800000E476E110E476401D014D04750010D0C
:100608001F0EF324D96E010EF420DA6E4750010D47
:10061800000EF324E16E060EF420E26EDFCFE7FF52
:10062800472AE8D7FD0E0001A86F1200030EE8CF95
:1006380000F6000EE8CF01F6E2C101F0E3C102F0D6
:1006480001D80AD00500FA6E0101DE51FD6EDF51B6
:10065800FE6EFF6AFA5012000009D8A404D0000EFA
:100668003D6E000E03D0000E3D6E800E3C6E26EEF1
:1006780002F03CC0DFFF000EE8CF03F6000E0001D9
:100688008D6F040E8C6F000E026E040E016E58EC16
:100698002CF0FD0E0001A86F120001012151F00B92
:1006A8000509216F200E2B6F000E2C6F010E0D0116
:1006B8008C6F000E886F000E896F000E8A6F000E17
:1006C8008B6F0001A8691200000E0B6E000E0C6EF5
:1006D800000E0D6E000E0E6E1FEC23F00009D8A45C
:1006E8001200010121510F0B060AD8A407D00D01F1
:1006F8008C05D8A403D00001A8691200BCEC34F022
:10070800000E0D01886F000E896F000E8A6F000EB3
:100718008B6F0001A8691200000E0D01886F000E92
:10072800896F000E8A6F000E8B6F0001A869120096
:100738008E518F11D8B406D08EC0D9FF8FC0DAFF82
:10074800DFBE120001010B510A11091104E1400E2C
:10075800085DD8A009D0400E3E6E400E085F000E1E
:10076800095B0A5B0B5B0AD008C13EF0000E086FFC
:10077800000E096F000E0A6F000E0B6F3E503A6EA6
:100788003B6A3A5000018C5D3B508D59D8A005D08A
:100798003E508C5F000E8D5B1AD0000E476E13D052
:1007A8008C518D11D8B404D08C07D8A08D070AD0ED
:1007B8004750010D000EF324D96E060EF420DA6EB0
:1007C800000EDF6E472A3E50475CD8A0E9D7010EDD
:1007D800016E000E026E060E036E3EC004F0020E9D
:1007E80052EC20F001C08EF002C08FF001010851D8
:1007F80009110A110B11D8A412000001A8691200EE
:100808007F0ECFEC1FF012000001A851000AD8B4E7
:100818005BD7030AD8B4DDD6110AD8B44CD6080A77
:10082800D8B404D7010AD8B477D7050AD8B435D7CD
:100838003B0AD8B471D60D0AD8B42DD6020AD8B45A
:1008480032D6050AD8B468D7D20AD8B471D7030A01
:10085800D7D72250211011E1800E205CD8B00DD0DE
:100868001FC019F020C01AF01B6A1C6A23C01DF0B3
:1008780024C01EF038EC27F012001F04E10E2058A7
:10088800F50E2158050E2258D8A04CD023C011F0DF
:1008980024C012F01FC001F020C002F021C003F0F4
:1008A80022C004F0100E056E270E066E000E076EAD
:1008B800000E086E70EC2FF001C013F002C014F0A7
:1008C800000E166E0A0E156ED7EC38F0050E2324AE
:1008D800116E000E2420126E1FC001F020C002F01D
:1008E80021C003F022C004F0100E056E270E066E1C
:1008F800000E076E000E086EF3EC33F001C013F023
:1009080002C014F0000E166E0A0E156ED7EC38F001
:1009180020EE09F02350D9262450DA22200EDF6E6B
:10092800090E1200225008E1810E1F5C960E205815
:10093800980E2158D8A04CD023C011F024C012F032
:100948001FC001F020C002F021C003F022C004F053
:10095800100E056E270E066E000E076E000E086E4E
:1009680070EC2FF001C013F002C014F0000E166EE8
:100978000A0E156ED7EC38F0040E2324116E000E03
:100988002420126E1FC001F020C002F021C003F025
:1009980022C004F0100E056E270E066E000E076EBC
:1009A800000E086EF3EC33F001C013F002C014F02F
:1009B800000E166E0A0E156ED7EC38F020EE08F011
:1009C8002350D9262450DA22200EDF6E080E12009A
:1009D800225008E1410E1F5C420E20580F0E21588C
:1009E800D8A04CD023C011F024C012F01FC001F0D1
:1009F80020C002F021C003F022C004F0100E056EE2
:100A0800270E066E000E076E000E086E70EC2FF0B3
:100A180001C013F002C014F0000E166E0A0E156E17
:100A2800D7EC38F0030E2324116E000E2420126E2A
:100A38001FC001F020C002F021C003F022C004F062
:100A4800100E056E270E066E000E076E000E086E5D
:100A5800F3EC33F001C013F002C014F0000E166E70
:100A68000A0E156ED7EC38F020EE07F02350D92681
:100A78002450DA22200EDF6E070E1200225008E101
:100A8800A10E1F5C860E2058010E2158D8A04CD00C
:100A980023C011F024C012F01FC001F020C002F0E2
:100AA80021C003F022C004F0100E056E270E066E5A
:100AB800000E076E000E086E70EC2FF001C013F0E8
:100AC80002C014F0000E166E0A0E156ED7EC38F040
:100AD800020E2324116E000E2420126E1FC001F096
:100AE80020C002F021C003F022C004F0100E056EF1
:100AF800270E066E000E076E000E086EF3EC33F03C
:100B080001C013F002C014F0000E166E0A0E156E26
:100B1800D7EC38F020EE06F02350D9262450DA22FC
:100B2800200EDF6E060E120023C011F024C012F052
:100B38001FC001F020C002F021C003F022C004F061
:100B4800100E056E270E066E000E076E000E086E5C
:100B580070EC2FF001C013F002C014F0000E166EF6
:100B68000A0E156ED7EC38F0010E2324116E000E14
:100B78002420126E1FC001F020C002F021C003F033
:100B880022C004F0100E056E270E066E000E076ECA
:100B9800000E086EF3EC33F001C013F002C014F03D
:100BA800000E166E0A0E156ED7EC38F020EE05F022
:100BB8002350D9262450DA22200EDF6E050E1200AB
:100BC800000E0001FD6F000EFC6F000EF16F000EAD
:100BD800F26F000EF36F000EF46F7CC04DF07DC015
:100BE8004EF07EC04FF07FC050F04D1E4E1E4F1E7F
:100BF800501E4D2A000E4E224F22502200017851DD
:100C08004D24516E79514E20526E7A514F20536EB9
:100C18007B515020546E54505310521004E1320E40
:100C2800515CD8A018D07CC037F07DC038F07EC0A9
:100C380039F07FC03AF0320E3B6E000E3C6E000E6B
:100C48003D6E000E3E6E800E3F6E020E406EFE51EF
:100C580064EC0FF02DD07CC037F07DC038F07EC03A
:100C680039F07FC03AF07CC04DF07DC04EF07EC0B8
:100C78004FF07FC050F04D1E4E1E4F1E501E4D2A85
:100C8800000E4E224F225022000178514D243B6E17
:100C980079514E203C6E7A514F203D6E7B51502049
:100CA8003E6E800E3F6E020E406EFE5164EC0FF0F9
:100CB800800E0C6E020E0D6E000E0E6E000E0F6E84
:100CC800000E106E000E116EB80E126E010E136E2D
:100CD80010EC00F00CC0F1F00DC0F2F00EC0F3F013
:100CE8000FC0F4F00001844B852BF10EF15DFF0E6F
:100CF800F259FF0EF359FF0EF459D8A005D0400E53
:100D0800646F400E656F1200F1517C27F2517D230C
:100D1800F3517E23F4517F23FBD00101BD51406F75
:100D2800416B426B436B42C143F141C142F140C147
:100D380041F1406BBE51401342C143F141C142F100
:100D480040C141F1406B42C143F141C142F140C150
:100D580041F1406B42D79CC0F9F0000E00019C6F36
:100D68000101BA5140250001F56F0101BB51412134
:100D78000001F66F000E010142210001F76F000E1D
:100D8800010143210001F86FF951F525016E000EAC
:100D9800F621026E000EF721036E000EF821046E94
:100DA80076EC3CF001C0EDF002C0EEF00001F95124
:100DB800F525016E000EF621026E000EF721036E76
:100DC800000EF821046EF95100080101B825056EDE
:100DD80001EC24F00009D8A400D70001FC51FD1152
:100DE800D8A410D0EDC0FCF0EEC0FDF0FCC016F0A9
:100DF800FDC017F019EC39F002EC3DF001C0EBF042
:100E080002C0ECF0F9C0FAF00001FB6B5CD0FA51BB
:100E1800F525016EFB51F621026E000EF721036ED7
:100E2800000EF821046E76EC3CF00001FC5101182C
:100E38002AE1FD510218D8A426D0FA51F525096EE9
:100E4800FB51F6210A6E000EF7210B6E000EF821F9
:100E58000C6EFCC00DF0FDC00EF0EDEC34F009C0D6
:100E6800EFF00AC0F0F0BD0E0001FA25D96E010EB0
:100E7800FB21DA6EEF51EB25E16EF051EC21E26EC9
:100E8800DFCFE7FF1DD0F1517C5FF2517D5BF3515D
:100E98007E5BF4517F5B8407D8A08507FAC09CF07D
:100EA800FCC003F0FDC004F026EC3AF0FCC003F0EF
:100EB800FDC004F0F2EC2FF00101604B612B120031
:100EC8000001FA4BFB2B0101B8510001FA5D010149
:100ED800B9510001FB59D8B080D699D70001FC510F
:100EE800FD11D8B41200FCC003F0FDC004F026ECDC
:100EF8003AF0FCC003F0FDC004F0F2EC2FF0010161
:100F0800604B612B600E0001646F600E656F12000C
:100F18000101BC51000AD8B41ED7010AD8B4DED7E3
:100F2800050AD8B4FAD659D6000E256E17D0255022
:100F3800010DE90EF324F66E8D0EF420F76EF86AB3
:100F4800000EF8222550010D680EF324D96E010E0B
:100F5800F420DA6E0800F5CFDFFF252A2550010DB1
:100F6800E90EF324F66E8D0EF420F76EF86A000E83
:100F7800F8220800F5500009D8A4D9D7000E256E2C
:100F880017D02550010D420EF324F66E8D0EF42075
:100F9800F76EF86A000EF8222550010D7C0EF32436
:100FA800D96E010EF420DA6E0800F5CFDFFF252A8E
:100FB8002550010D420EF324F66E8D0EF420F76EC7
:100FC800F86A000EF8220800F5500009D8A4D9D70D
:100FD800000E256ED6D02550010D0A0EF324F66EAC
:100FE8008D0EF420F76EF86A000EF8222550010DD8
:100FF800900EF324D96E010EF420DA6E0800F5CFB6
:10100800DFFF252A2550010D0A0EF324F66E8D0EFA
:10101800F420F76EF86A000EF8220800F55000096F
:10102800D8B4C0D0D8D72550010D290EF324F66EB8
:101038008E0EF420F76EF86A000EF8222550010D86
:10104800900EF324D96E010EF420DA6E0800F5CF65
:10105800DFFF252A2550010D290EF324F66E8E0E8A
:10106800F420F76EF86A000EF8220800F55000091F
:10107800D8B498D0D8D72550010D380EF324F66E81
:101088008E0EF420F76EF86A000EF8222550010D36
:10109800900EF324D96E010EF420DA6E0800F5CF15
:1010A800DFFF252A2550010D380EF324F66E8E0E2B
:1010B800F420F76EF86A000EF8220800F5500009CF
:1010C800D8B470D0D8D72550010D470EF324F66E4A
:1010D8008E0EF420F76EF86A000EF8222550010DE6
:1010E800900EF324D96E010EF420DA6E0800F5CFC5
:1010F800DFFF252A2550010D470EF324F66E8E0ECC
:10110800F420F76EF86A000EF8220800F55000097E
:10111800D8B448D0D8D72550010DE20EF324F66E86
:101128008C0EF420F76EF86A000EF8222550010D97
:10113800900EF324D96E010EF420DA6E0800F5CF74
:10114800DFFF252A2550010DE20EF324F66E8C0EE2
:10115800F420F76EF86A000EF8220800F55000092E
:10116800D8A4D9D725EC3DF001C01FF002C020F06B
:10117800216A226AB20E236E010E246E2DEC04F051
:1011880011D056EC3DF00B0AD8B4DCD7070AD8B416
:10119800B1D7010AD8B486D7030AD8B45BD7010AF5
:1011A800D8B430D7000E256E17D02550010D6B0E20
:1011B800F324F66E8E0EF420F76EF86A000EF8220D
:1011C8002550010DA40EF324D96E010EF420DA6E19
:1011D8000800F5CFDFFF252A2550010D6B0EF324FB
:1011E800F66E8E0EF420F76EF86A000EF8220800EC
:1011F800F5500009D8A4D9D72FEC3DF001C019F05B
:1012080002C01AF01B6A1C6A2550010DA40EF324B3
:101218001D6E010EF4201E6E38EC27F0120044D12A
:1012280011C183F012C182F013C181F014C180F0A2
:1012380016C18DF017C18CF08C51306E8D51316E06
:10124800326A336A090ED890303631363236333640
:10125800E82EF9D730C00BF031C00CF032C00DF0D9
:1012680033C00EF01FEC23F00009D8A42FD1E2C13F
:1012780001F0E3C102F001D80AD00500FA6E0101BD
:10128800DE51FD6EDF51FE6EFF6AFA501200000952
:10129800D8B416D0010E0D018C6F01012151F00B4D
:1012A8000709216F270E2B6F000E2C6F000E016EA1
:1012B800020EC8EC1EF0000E0001A66FA651120027
:1012C800010E0001A96F8C518D11D8A402D0000E17
:1012D800E9D0030EA66F000E926F060E936F000EF4
:1012E8000D01886F020E896F000E8A6F000E8B6FDA
:1012F8000D01885189118A118B11D8B41ED00001B3
:1013080090519111D8B406D090C0D9FF91C0DAFF9E
:10131800DFBEDCD0000E016E92C002F093C003F075
:10132800400E046E020E52EC20F001C090F002C094
:1013380091F0040E0001A66F21D0E2C101F0E3C1D3
:1013480002F001D80AD00500FA6E0101DE51FD6EE7
:10135800DF51FE6EFF6AFA5012000009D8B40CD0B3
:10136800010E0D018C6F01012151F00B0209216F53
:10137800270E2B6F000E2C6F020E93D090519111F7
:10138800D8B406D090C0D9FF91C0DAFFDFBE9ED096
:1013980020EE01F09051D9269151DA22DF50306EBB
:1013A80030C031F0326A336A346A31500101085F63
:1013B8003250095B33500A5B34500B5B000120EE5E
:1013C80001F09051D9269151DA22DF50306E30C0A9
:1013D80031F0326A336A346A31500D01885F325015
:1013E800895B33508A5B34508B5B400E0001922737
:1013F800000E9323030E56D00D018C51D8A43CD077
:10140800E2C125F0E3C126F080C027F081C028F0B2
:1014180082C029F083C02AF0000E2B6E060E2C6EB7
:1014280000018051811182118311D8A402D0010ECC
:1014380001D0000E2D6E01D80AD00500FA6E010108
:10144800E051FD6EE151FE6EFF6AFA501200E806A7
:10145800D8B412D0640E0001A56102D0A52B36D0F5
:10146800010E0D018C6F01012151F00B0309216F51
:10147800000E2B6F000E2C6F010E00018027000E4E
:101488008123822383238C07D8A08D07010E0AD0DD
:10149800020E0D018C6F000E016E020EC8EC1EF0DC
:1014A800000E0001A66F12D00001A651000AD8B4A0
:1014B800B7D6010AD8B407D7030AD8B49DD7010A0A
:1014C800D8B416D7070AD8B459D7E2D70001A6511D
:1014D8001200000E566E000E576E000E586E000E6B
:1014E800596E0001FE510DEC32F028C078F029C089
:1014F80079F02AC07AF02BC07BF0000E556E55505B
:10150800D8A412007CC04DF07DC04EF07EC04FF0D4
:101518007FC050F04D1E4E1E4F1E501E4D2A000E0D
:101528004E224F225022000178514D24516E79519C
:101538004E20526E7A514F20536E7B515020546E7C
:1015480054505310521004E1320E515CD8A018D0F8
:101558007CC037F07DC038F07EC039F07FC03AF0EB
:10156800320E3B6E000E3C6E000E3D6E000E3E6E5F
:10157800800E3F6E020E406EFE5164EC0FF02DD0CF
:101588007CC037F07DC038F07EC039F07FC03AF0BB
:101598007CC04DF07DC04EF07EC04FF07FC050F053
:1015A8004D1E4E1E4F1E501E4D2A000E4E224F221B
:1015B8005022000178514D243B6E79514E203C6EEB
:1015C8007A514F203D6E7B5150203E6E800E3F6E0B
:1015D800020E406EFE5164EC0FF0800E0C6E020E8F
:1015E8000D6E000E0E6E000E0F6E000E106E000EC9
:1015F800116EB80E126E010E136E10EC00F00CC0D6
:1016080056F00DC057F00EC058F00FC059F0000149
:10161800844B852B040E0101BC19D8A41CD0BD51E4
:10162800406F416B426B436B42C143F141C142F190
:1016380040C141F1406BBE51401342C143F141C129
:1016480042F140C141F1406B42C143F141C142F115
:1016580040C141F1406BBC51D8A447D0BA51402594
:101668005A6EBB5141215B6E000E42215C6E000E2A
:1016780043215D6E48515A5C49515B584A515C5848
:101688004B515D58D8B008D05AC048F15BC049F1F9
:101698005CC04AF15DC04BF15A50445D5B504559FE
:1016A8005C5046595D504759D8B008D05AC044F1EB
:1016B8005BC045F15CC046F15DC047F15AC001F01E
:1016C8005BC002F05CC003F05DC004F0B8C105F077
:1016D80001EC24F0FF0AD8A408D00B0E00019D6F7E
:1016E800400E646F400E656F120056505710581028
:1016F8005910D8A426D084C062F185C063F1000EC9
:101708000001856F000E846F000E7C6F000E7D6FE8
:10171800000E7E6F000E7F6F000E0101406F000EFD
:10172800416F000E426F000E436F000E616F000E96
:10173800606F000E00019C6F300E646F300E656F95
:101748001200F10E565CFF0E5758FF0E5858FF0E48
:101758005958D8A008D056500F0B00019D6F400E65
:10176800646F400EECD7565000017C2757507D23FC
:1017780058507E2359507F23552AC1D60D01320572
:10178800D8A411D030511F0B0009D8A40CD00001E7
:10179800698F030E0D013119D8A402D0010E01D0B2
:1017A800000E0001B46F0D013251D8A4120030515F
:1017B8001F0B020AD8A4120034510F0B0009D8B429
:1017C800120034510F0B186E030E18601200200E11
:1017D8000001B719D8A41200698F0D0134BF19D0C0
:1017E80034510F0B186E1850020D720EF324D96E77
:1017F800000EF420DA6EDECF1CF0DDCF1DF0345180
:101808000F0B186E1850010D580EF324D96E010EE7
:1018180018D034510F0B186E1850020D6C0EF324AB
:10182800D96E000EF420DA6EDECF1CF0DDCF1DF08D
:1018380034510F0B186E1850010D5B0EF324D96E3E
:10184800010EF420DA6EDF501B6E1BB006D0FB0EC3
:101858001C141C6EFF0E1D1404D0040E1C101C6EEC
:101868001D501D6E34BF0AD034510F0B186E18501E
:10187800020D720EF324D96E000E09D034510F0BED
:10188800186E1850020D6C0EF324D96E000EF42059
:10189800DA6E1CC0DEFF1DC0DDFF030E3119D8A4AF
:1018A8002DD01CC0D9FF1DC0DAFFDFAE1AD034BF5F
:1018B8000AD034510F0B186E1850010D580EF3242E
:1018C800D96E010E0AD00D0134510F0B186E185045
:1018D800010D5B0EF324D96E010EF420DA6E0101BE
:1018E800DF821CC0D9FF1DC0DAFF000EDB841CC0DC
:1018F800D9FF1DC0DAFF000EDB8E1200040E1C1883
:101908001C6E1D501D6E1CC0D9FF1DC0DAFFDFAE56
:101918001BD01CC0D9FF1DC0DAFF7F0EDF161CC00C
:10192800D9FF1DC0DAFF000EDB8C000E116E050E0C
:10193800106E1CC012F01DC013F0000E156E020EC2
:10194800146EEBEC2EF006D01CC0D9FF1DC0DAFFD8
:10195800000EDB8C040E1C181C6E1D501D6E1BB275
:1019680006D01CC0D9FF1DC0DAFFDFAE30D00D0194
:1019780034BF0AD034510F0B186E1850010D580E91
:10198800F324D96E010E0AD00D0134510F0B186ED5
:101998001850010D5B0EF324D96E010EF420DA6E97
:1019A8000101DF921CC0D9FF1DC0DAFF3B0EDF1614
:1019B800000E116E050E106E1CC012F01DC013F043
:1019C800000E156E020E146EEBEC2EF006D01CC045
:1019D800D9FF1DC0DAFF3B0EDF160D0134510F0B86
:1019E800186E1850010D260EF324196E0F0EF420F0
:1019F8001A6E19C0D9FF1AC0DAFFFE0EDF161200E0
:101A080093D0EB0E12003C0E1200900E1200F10E55
:101A1800F66E8F0EF76E000EF86E0800F550120085
:101A2800F20EF66E8F0EF76EF86A0800F550120087
:101A3800F30EF66E8F0EF76EF86A0800F550120076
:101A4800F40EF66E8F0EF76EF86A0800F550120065
:101A5800F50EF66E8F0EF76EF86A0800F550120054
:101A6800F60EF66E8F0EF76EF86A0800F550120043
:101A7800F70EF66E8F0EF76EF86A0800F550120032
:101A8800F80EF66E8F0EF76EF86A0800F550120021
:101A9800000E1200020E1200010E1200010E1200BA
:101AA800000E1200010E1200400E1200000E12006D
:101AB800120E1200100E1200F80E1200100E120074
:101AC800000E12003F0E1200000E1200100E12003F
:101AD800000E1200000E1200000E1200000E12007E
:101AE800000E1200010E1200000E1200110E12005C
:101AF800000E1200110E1200000E1200460E120007
:101B0800410E1200540E1200310E1200360E120051
:101B1800200E1200200E1200200E1200550E120088
:101B2800AA0E1200000E120001C003F002C004F059
:101B38000450000AD8B404D0010AD8B48DD0F2D722
:101B48000350000AD8B45DD7010AD8B45CD7030A99
:101B5800D8B45BD7010AD8B45AD7070AD8B460D723
:101B6800010AD8B465D7030AD8B46AD7010AD8B429
:101B78006FD70F0AD8B474D7010AD8B479D7030A33
:101B8800D8B47ED7010AD8B483D7070AD8B482D785
:101B9800010AD8B481D7030AD8B480D7010AD8B4C7
:101BA8007FD71F0AD8B47ED7010AD8B47DD7030AD5
:101BB800D8B47CD7010AD8B47BD7070AD8B47AD767
:101BC800010AD8B479D7030AD8B478D7010AD8B4A7
:101BD80077D70F0AD8B476D7010AD8B475D7030ACD
:101BE800D8B474D7010AD8B473D7070AD8B472D74F
:101BF800010AD8B471D7030AD8B470D7010AD8B487
:101C08006FD7370AD8B46ED7010AD8B46DD7050A8A
:101C1800D8B46CD7010AD8B46BD7030AD8B46AD73A
:101C2800010AD8B469D7190AD8B468D7010AD8B450
:101C380067D70F0AD8B466D7010AD8B465D7030A9C
:101C4800D8B464D7010AD8B463D7070AD8B462D71E
:101C5800010AD8B461D766D70350FE0AD8B45ED754
:101C6800010AD8B45DD75ED7200E0001B719D8A4F1
:101C7800120017D190519111D8B406D090C0D9FF55
:101C880091C0DAFFDFBE1200000E526E1E0E5264C3
:101C980001D014D05250010D400EF324D96E0D0E10
:101CA800F420DA6E5250010D000EF324E16E010E9D
:101CB800F420E26EDFCFE7FF522AE8D7000120EEDA
:101CC80001F09051D9269151DA221F0EDE18D8A4BE
:101CD80072D0550E010100196EE1530E01196BE126
:101CE800420E021968E1430E0319D8A464D0010E0C
:101CF8000001A16F01010D51D8A452D0110E0E613F
:101D08004FD00E51D8B44CD00CC14DF03F0E4D16EB
:101D1800D8A446D0550E0D01806F530E816F420E28
:101D2800826F530E836F04C184FD05C185FD06C112
:101D380086FD07C187FD000E886F000E896F000EB3
:101D48008A6F000E8B6F000E8C6F0001A869000E61
:101D5800A76F000EA66F000EA56F030E01010F19E5
:101D6800D8B408D02191219321952197000E2B6F8B
:101D7800000E2C6F0CAF02D0010E01D0020E000134
:101D8800A96F0101085109110A110B11D8B402D029
:101D9800000E01D0010E0001A26F0FC1A8F01200C1
:101DA800010E016E020EC8EC1EF0000E016E020E4E
:101DB800C8EC1EF01200010E016E020EC8EC1EF0F7
:101DC800000E016E020EC8EC1EF0000E0001A16F9D
:101DD80012003FEC1EF0FF0AD8A41200030E000107
:101DE800A96F12003FEC1EF0FF0AD8A412000D01E3
:101DF8008C51D8A408D0885189118A118B11D8B474
:101E080002D0020E8C6F030E0001A96F120070C081
:101E18004EF071C04FF04E504F10D8B40AD070C079
:101E280050F071C051F050C0D9FF51C0DAFFDFBE89
:101E38001200010E016E800E026E0D0E036E0D0E65
:101E4800046E020E52EC20F001C08EF002C08FF03A
:101E5800000190519111D8B406D090C0D9FF91C01B
:101E6800DAFFDFBE0FD0000E016E400E026E0D0EBF
:101E7800036E400E046E020E52EC20F001C090F08A
:101E880002C091F0000E0001A96F1200000EA96FA8
:101E9800020E0D018C6F000E016E020EC8EC1EF0D2
:101EA80012000001A951000AD8B4E4D6010AD8B436
:101EB80090D7030AD8B496D7010AD8B4A8D7E6D7DA
:101EC8000001C06FC10E2F6E000E306E0001C051B0
:101ED80099EC31F0DBC0E1F0DCC0E2F03B50372494
:101EE800416E3C503820426E3D503920436E3E5082
:101EF8003A20446E41500001DD5D4250DE594350A6
:101F0800DF594450E059D8B002D0FF0E1200000E3D
:101F1800E76F000EE86F000EE96F000EEA6F13D04E
:101F2800E1C028F0E2C029F091EC38F028C0E1F0D7
:101F380029C0E2F0000E0001E727020EE823000E98
:101F4800E923000EEA23E7C041F0E8C042F0E9C007
:101F580043F0EAC044F0411E421E431E441E412A7B
:101F6800000E42224322442237504124456E385005
:101F78004220466E39504320476E3A504420486EFE
:101F880048504710CDE1020E465CD8B0C9D7E7C02B
:101F980041F0E8C042F0411E421E414A422A3750F1
:101FA8004124E36F38504220E46F000EE76F000EC3
:101FB800E86F000EE96F000EEA6F89D0020EE4198F
:101FC800E311D8A40FD0E1C028F0E2C029F091ECC9
:101FD80038F028C0E1F029C0E2F0000E0001E46FFB
:101FE800000EE36FE1C001F0E2C002F0F5EC3CF056
:101FF80001C0BEF002C0BFF0E3C041F0E4C042F04F
:10200800411E421E414A422A000E41240001E56F4A
:10201800020E4220E66FE551416EE651426E436A78
:10202800446AE7C045F0E8C046F0E9C047F0EAC0B6
:1020380048F0451E461E471E481E452A000E4622E9
:10204800472248223B504524496E3C5046204A6E60
:102058003D5047204B6E3E5048204C6E4150495CE5
:1020680042504A5843504B5844504C58D8B00ED060
:10207800E7C041F0E8C042F0411E421E414A422AF0
:102088003B504124E56F3C504220E66FBEC014F03F
:10209800BFC015F0E3C016F0E4C017F0E5C018F0B3
:1020A800E6C019F0E7513F241A6EE85140201B6E34
:1020B800E8EC30F00001E551E727E651E823000E8F
:1020C800E923000EEA23E551E327E651E4233B50D8
:1020D800E75D3C50E8593D50E9593E50EA59D8A0CF
:1020E8006DD7000E12000001CA6F3F0E0001CA65CD
:1020F80001D01200CA5124EC31F00009D8A4120012
:10210800D10E2F6E000E306E0001CA5199EC31F0DD
:10211800EDC0C0F0EEC0C1F0EFC0C2F0F0C0C3F037
:10212800EBC0C6F0ECC0C7F0000E0001CD6F000E8A
:10213800CE6F000ECF6F000ED06F13D0C6C028F040
:10214800C7C029F091EC38F028C0C6F029C0C7F004
:10215800000E0001CD27020ECE23000ECF23000E65
:10216800D023CDC03BF0CEC03CF0CFC03DF0D0C0B6
:102178003EF03B1E3C1E3D1E3E1E3B2A000E3C22EE
:102188003D223E22C0513B243F6EC1513C20406E4F
:10219800C2513D20416EC3513E20426E4250411013
:1021A800CDE13F04020E4058D8B0C8D7CDC03BF0AF
:1021B800CEC03CF03B1E3C1E3B4A3C2AC0513B244F
:1021C800C86FC1513C20C96F000ECD6F000ECE6F95
:1021D800000ECF6F000ED06F6FD0020EC919C81154
:1021E800D8A426D0000E296E000E286ED3EC31F04C
:1021F80028C0C4F029C0C5F0C6C029F0C7C02AF05D
:10220800C4C02BF0C5C02CF05AEC39F0C4C029F07A
:10221800C5C02AF0FF0E2C6E2B685AEC39F0C4C0EA
:10222800C6F0C5C0C7F0000E0001C96F000EC86F28
:10223800C6C001F0C7C002F0F5EC3CF001C0BEF02A
:1022480002C0BFF0C8C03BF0C9C03CF03B1E3C1EFA
:102258003B4A3C2A000E3B240001CB6F020E3C2077
:10226800CC6FCB51375CCC513858D8B004D037C07C
:10227800CBF038C0CCF0BEC020F0BFC021F0C8C041
:1022880022F0C9C023F0CBC024F0CCC025F0CD513A
:102298003924266ECE513A20276E59EC34F00001CD
:1022A800CB51CD27CC51CE23000ECF23000ED02307
:1022B800CB51C827CC51C92337503B6E38503C6EA0
:1022C8003D6A3E6A3B50CD5D3C50CE593D50CF599A
:1022D8003E50D059D8A081D73750ED273850EE233B
:1022E800000EEF23000EF023D10E056E000E066ED1
:1022F8008CEC3AF0D10E296E000E2A6E0001CA51FC
:1023080001EC36F012004FC0D9FF50C0DAFF810E41
:10231800DF6E20EE01F04F50D9265050DA22250EFC
:10232800DF6E20EE02F04F50D9265050DA22C10E4F
:10233800DF6E20EE01F04D50D9264E50DA2210EE15
:1023480003F04F50E1265050E222DFCFE7FF20EEA6
:1023580001F04D50D9264E50DA2210EE04F04F50BD
:10236800E1265050E222DFCFE7FF20EE02F04D5089
:10237800D9264E50DA2210EE05F04F50E126505083
:10238800E222DFCFE7FF20EE03F04D50D9264E5072
:10239800DA2210EE06F04F50E1265050E222DFCF4D
:1023A800E7FF20EE04F04D50D9264E50DA2210EE09
:1023B80007F04F50E1265050E222DFCFE7FF20EE32
:1023C80004F04D50D9264E50DA22DF50516E51504C
:1023D8000001F36FF46BF56BF66BF5C0F6F0F4C023
:1023E800F5F0F3C0F4F0F36B20EE03F04D50D9266E
:1023F8004E50DA22DF50516E5150F313F5C0F6F00B
:10240800F4C0F5F0F3C0F4F0F36B20EE02F04D5099
:10241800D9264E50DA22DF50516E5150F313F5C0D1
:10242800F6F0F4C0F5F0F3C0F4F0F36B20EE01F031
:102438004D50D9264E50DA22DF50516E5150F313C9
:1024480020EE01F04D50D9264E50DA22DF500DEC27
:1024580032F028C0EBF029C0ECF02AC0EDF02BC018
:10246800EEF0F3C051F0F4C052F0F5C053F0F6C0EE
:1024780054F0511E521E531E541E512A000E522251
:10248800532254220001EB515124EF6FEC5152209A
:10249800F06FED515320F16FEE515420F26FF2516D
:1024A800F111F01104E1370EEF5DD8A008D0360E17
:1024B800EF6F000EF06F000EF16F000EF26F20EE5E
:1024C80008F04F50D9265050DA22EFC0DFFF20EE37
:1024D80009F04F50D9265050DA22F3C037F0F4C033
:1024E80038F0F5C039F0F6C03AF0EFC03BF0F0C074
:1024F8003CF0F1C03DF0F2C03EF00A0E4F243F6EB2
:10250800000E5020406E10EE01F04D50E1264E5066
:10251800E222E75064EC0FF0DF6E1200000E266E28
:10252800000E256E020E265CD8B010D0B20E2524FF
:10253800D96E020E2620DA6E25C001F026C002F000
:10254800D6EC24F0DF6E254A262AECD7000E216E41
:10255800000E206EB20E226E020E236E24EC38F0AE
:10256800000E266E000E256E020E265CD8B010D026
:10257800B20E2524D96E020E2620DA6E25C001F08F
:1025880026C002F004EC0DF0DF6E254A262AECD7AF
:10259800000E216E010E206EB20E226E020E236E08
:1025A80024EC38F0000E266E000E256E020E265C16
:1025B800D8B010D0B20E2524D96E020E2620DA6EBD
:1025C80025C001F026C002F085EC36F0DF6E254A02
:1025D800262AECD7000E216E020E206EB20E226E55
:1025E800020E236E24EC38F0000E266E000E256EC7
:1025F800020E265CD8B00BD0B20E2524D96E020E7E
:102608002620DA6E000EDF6E254A262AF1D7000E44
:10261800266E030E256E265011E1120E255CD8B0E9
:102628000DD025C020F026C021F0B20E226E020E79
:10263800236E24EC38F0254A262AEDD7000E266EA4
:10264800000E256E020E265CD8B010D0B20E2524DE
:10265800D96E020E2620DA6E25C001F026C002F0DF
:102668002CEC18F0DF6E254A262AECD7000E216ED6
:10267800120E206EB20E226E020E236E24EC38F07B
:10268800000E266E000E256E020E265CD8B00BD00A
:10269800B20E2524D96E020E2620DA6E000EDF6EE9
:1026A800254A262AF1D7000E266E130E256E2650CF
:1026B80011E1160E255CD8B00DD025C020F026C03B
:1026C80021F0B20E226E020E236E24EC38F0254A59
:1026D800262AEDD7000E266E000E256E020E265C09
:1026E800D8B010D0B20E2524D96E020E2620DA6E8C
:1026F80025C001F026C002F06EEC3BF0DF6E254AE3
:10270800262AECD7000E216E160E206EB20E226E0F
:10271800020E236E24EC38F0120005C0D9FF06C063
:10272800DAFF100EDF6E20EE01F00550D9260650B4
:10273800DA22250EDF6E20EE02F00550D92606506B
:10274800DA22C10EDF6ECDEC3CF001C00CF002C005
:102758000DF003C00EF004C00FF020EE03F005509A
:10276800D9260650DA220CC0DFFF20EE04F005500F
:10277800D9260650DA220DC0DFFF20EE05F00550FD
:10278800D9260650DA220EC0DFFF20EE06F00550EB
:10279800D9260650DA220CC0DFFF2FEC3DF001C02D
:1027A80010F002C011F020EE07F00550D9260650AF
:1027B800DA2210C0DFFF20EE08F00550D9260650B7
:1027C800DA221150DF6E1BEC3DF001C010F002C0A0
:1027D80011F020EE09F00550D9260650DA2210C073
:1027E800DFFF20EE0AF00550D9260650DA221150F4
:1027F800DF6E20EE0BF00550D9260650DA2256EC93
:102808003DF0DF6E2AEC3DF001C010F002C011F07F
:1028180020EE0CF00550D9260650DA2210C0DFFF52
:1028280020EE0DF00550D9260650DA221150DF6E41
:1028380020EC3DF001C010F002C011F020EE0EF0C7
:102848000550D9260650DA2210C0DFFF20EE0FF01F
:102858000550D9260650DA221150DF6E25EC3DF0DE
:1028680001C010F002C011F020EE10F00550D9267A
:102878000650DA2210C0DFFF20EE11F00550D926ED
:102888000650DA221150DF6E20EE12F00550D926DC
:102898000650DA224DEC3DF0DF6E20EE13F00550C5
:1028A800D9260650DA2253EC3DF0DF6E20EE14F004
:1028B8000550D9260650DA2250EC3DF0DF6E20ECA8
:1028C8003DF001500A6E2B0E0A6402D02B0E0A6EE0
:1028D800000E0B6E14D00B509DEC3CF0076E0B50A5
:1028E800086E096A150E0826000E092208500524EC
:1028F800D96E09500620DA6E07C0DFFF0B2A0A508E
:102908000B5CD8B01200E7D7000E286E17D02850FD
:10291800010D190EF324F66E8E0EF420F76EF86A88
:10292800000EF8222850010D680EF324D96E010E0E
:10293800F420DA6E0800F5CFDFFF282A2850010DB1
:10294800190EF324F66E8E0EF420F76EF86A000E58
:10295800F8220800F5500009D8A4D9D7000E286E2F
:1029680017D02850010D1D0EF324F66E8D0EF4209D
:10297800F76EF86A000EF8222850010D7C0EF32439
:10298800D96E010EF420DA6E0800F5CFDFFF282A91
:102998002850010D1D0EF324F66E8D0EF420F76EEF
:1029A800F86A000EF8220800F5500009D8A4D9D713
:1029B800000E286E17D02850010D980EF324F66EDD
:1029C8008E0EF420F76EF86A000EF8222850010DDA
:1029D800900EF324D96E010EF420DA6E0800F5CFBC
:1029E800DFFF282A2850010D980EF324F66E8E0E6C
:1029F800F420F76EF86A000EF8220800F550000976
:102A0800D8A4D9D728C027F0CDEC3CF001C01FF0DE
:102A180002C020F003C021F004C022F02850010DAC
:102A2800900EF324236E010EF420246E2DEC04F096
:102A38002726000E286E1CD02850010D910EF32475
:102A4800F66E8E0EF420F76EF86A000EF822285003
:102A580027C025F0266A2526000E2622900E25245A
:102A6800D96E010E2620DA6E0800F5CFDFFF282A7E
:102A78002850010D910EF324F66E8E0EF420F76E99
:102A8800F86A000EF8220800F5500009D8A4D4D737
:102A9800000E286E17D02850010D540EF324F66E40
:102AA8008D0EF420F76EF86A000EF8222850010DFA
:102AB800A40EF324D96E010EF420DA6E0800F5CFC7
:102AC800DFFF282A2850010D540EF324F66E8D0ED0
:102AD800F420F76EF86A000EF8220800F550000995
:102AE800D8B41200D8D7D6D011C183F012C182F061
:102AF80013C181F014C180F016C18DF017C18CF09C
:102B08008C51366E8D51376E386A396A090ED890F5
:102B18003636373638363936E82EF9D736C00BF020
:102B280037C00CF038C00DF039C00EF01FEC23F0A0
:102B38000009D8A4C1D0010E0001A76F8C518D11D6
:102B4800D8A402D0000E46D08C07D8A08D07020E5C
:102B5800A76F8E518F11D8B406D08EC0D9FF8FC001
:102B6800DAFFDFBEA9D0E2C12CF0E3C12DF080C0AE
:102B78002EF081C02FF082C030F083C031F0000EFB
:102B8800326E060E336E01D80AD00500FA6E0101C6
:102B9800DC51FD6EDD51FE6EFF6AFA501200E80648
:102BA800D8B41AD0640E0001A56102D0A52B84D038
:102BB800020E0D018C6F01012151F00B0309216FE9
:102BC800000E2B6F000E2C6F010E016E020EC8EC6A
:102BD8001EF05DD0A76F70D0010E00018027000E97
:102BE800812382238323000E0D01886F020E896FD3
:102BF800000E8A6F000E8B6F000E0001926F060E9A
:102C0800936F030EA76F0D01885189118A118B11DB
:102C1800D8A402D0010E3CD0040E0001A76F8E513B
:102C28008F11D8B406D08EC0D9FF8FC0DAFFDFBEAF
:102C380043D0010E016E92C002F093C003F0400E23
:102C4800046E020E52EC20F001C08EF002C08FF02C
:102C5800030E0001A76F400E0101085F000E095B1B
:102C68000A5B0B5B400E0D01885F000E895B8A5B77
:102C78008B5B400E00019227000E93231DD0020E9D
:102C88000D018C6F010E016E020EC8EC1EF0000ED5
:102C98000001A0D70001A751000AD8B425D7010A1E
:102CA800D8B44CD7030AD8B454D7010AD8B4ABD790
:102CB800070AD8B4B4D7E3D70001A7511200000E11
:102CC8001F6E17D01F50010DD90EF324F66E8D0E0E
:102CD800F420F76EF86A000EF8221F50010D680EF6
:102CE800F324D96E010EF420DA6E0800F5CFDFFF69
:102CF8001F2A1F50010DD90EF324F66E8D0EF420F5
:102D0800F76EF86A000EF8220800F5500009D8A4FA
:102D1800D9D7000E1F6E17D01F50010D300EF324A7
:102D2800F66E8D0EF420F76EF86A000EF8221F502A
:102D3800010D7C0EF324D96E010EF420DA6E080022
:102D4800F5CFDFFF1F2A1F50010D300EF324F66E5A
:102D58008D0EF420F76EF86A000EF8220800F55080
:102D68000009D8A4D9D7000E1F6E17D01F50010D27
:102D7800830EF324F66E8E0EF420F76EF86A000EBA
:102D8800F8221F50010D900EF324D96E010EF42085
:102D9800DA6E0800F5CFDFFF1F2A1F50010D830EE2
:102DA800F324F66E8E0EF420F76EF86A000EF82201
:102DB8000800F5500009D8A4D9D72FEC3DF001C080
:102DC80019F002C01AF01B6A1C6A1F50010D900E00
:102DD800F3241D6E010EF4201E6E38EC27F01F261A
:102DE8001F50010D900EF324D96E010EF420DA6EF7
:102DF8002F0EDF6E1F2A1BEC3DF001C019F002C038
:102E08001AF01B6A1C6A1F50010D900EF3241D6EE8
:102E1800010EF4201E6E38EC27F0000E1F6E17D03E
:102E28001F50010DC90EF324F66E8D0EF420F76EB7
:102E3800F86A000EF8221F50010DA40EF324D96E73
:102E4800010EF420DA6E0800F5CFDFFF1F2A1F50AD
:102E5800010DC90EF324F66E8D0EF420F76EF86A94
:102E6800000EF8220800F5500009D8A4D9D72AEC9A
:102E78003DF001C019F002C01AF01B6A1C6A1F500D
:102E8800010DA40EF3241D6E010EF4201E6E38EC05
:102E980027F012003CC028F03DC029F03EC02AF0BF
:102EA8003FC02BF0BEEC28F0FF0AD8A41200F3ECC8
:102EB8003BF00001C26FC229D8B4120040C044F0F0
:102EC80041C045F042C046F043C047F00A0E05D065
:102ED800D8904732463245324432E82EF9D7010EAF
:102EE8004424C36F000E4520C46FC3C028F0C4C07B
:102EF80029F05EEC2EF00001C351281805E1C451F9
:102F08002918D8A4120001D01200000E296E020E52
:102F1800286ED3EC31F028C0C5F029C0C6F0C70E22
:102F2800016E000E026E3CC003F03DC004F0035079
:102F38000410D8A4200E056E000E076E080E066E4B
:102F480026EC34F0CF0E016E000E026E3EC003F088
:102F58003FC004F003500410D8A4200E056E000EE4
:102F6800076E030E066E26EC34F0000E0001D26FD9
:102F7800000ED36F000ED46F34EC3DF001C0D5F0D5
:102F880002C0D6F039EC3DF001C0D7F002C0D8F04D
:102F9800D7C0D9F0D8C0DAF0000E0001DC6F000EFF
:102FA800DB6FD5C0DDF0D6C0DEF0D7C0DFF0D8C00B
:102FB800E0F0C5C0E1F0C6C0E2F040C0E3F041C0B7
:102FC800E4F042C0E5F043C0E6F0C70E296E000EFB
:102FD8002A6EC25101EC36F0000E0001C16F010EDD
:102FE800C06F2FD0C351C0190EE1C451C119D8A464
:102FF8000AD0C5C029F0C6C02AF0FF0E2C6E2B6877
:103008005AEC39F01BD0010E0001C525286E000EC0
:10301800C621296ED3EC31F028C0BEF029C0BFF01C
:10302800C5C029F0C6C02AF0BEC02BF0BFC02CF026
:103038005AEC39F0BEC0C5F0BFC0C6F00001C04BA5
:10304800C12BC051C35DC151C459D8A01200CAD701
:1030580002501DE1200E015CD8B019D0025010E1D9
:103068000B0E015CD8B00CD0DC0E0124F66E8F0E6E
:103078000220F76EF86A000EF8220800F5501200D8
:103088000B0E01180210D8A402D0080E120002502C
:1030980003E1400E015CD8B0A4D0200E015E000E02
:1030A800025A025010E1080E015CD8B00CD0E80EAC
:1030B8000124F66E8F0E0220F76EF86A000EF822D1
:1030C8000800F5501200025046E10B0E015CD8B022
:1030D80042D0F80E036EFF0E046E01C005F002C068
:1030E80006F00350052604500622FA0E0524F66E53
:1030F8008F0E0620F76EF86A000EF8220800F550C9
:103108001200200E1200060E1200280E1200780E71
:103118001200DE0E1200380E12005F0E12004B0E67
:103128001200000E1200000E1200040E1200770E9C
:103138001200DE0E1200380E1200020E1200000EEF
:1031480012000C0E1200000E1200000E1200000EEB
:103158001200000E120001C003F002C004F0045077
:10316800000AD8A4F6D703500B0AD8B4CAD7060A5F
:10317800D8B4C9D7030AD8B4C8D7010AD8B4C7D7AE
:103188001F0AD8B4C6D7010AD8B4C5D7030AD8B419
:10319800C4D7010AD8B4C3D7070AD8B4C2D7010A1A
:1031A800D8B4C1D7030AD8B4C0D7010AD8B4BFD796
:1031B8000F0AD8B4BED7010AD8B4BDD7030AD8B409
:1031C800BCD7010AD8B4BBD7070AD8B4BAD7010A02
:1031D800D8B4B9D7030AD8B4B8D7010AD8B4B7D77E
:1031E800B8D7000E12000001B751D8A412D0000EB3
:1031F800656E000E0F01366F160E396F9F0E376F12
:103208007B0E366F01D0658665A6FDD7010E0001DD
:10321800B76FB705D8B465BA0AD0000E626E000E53
:103228000F01366F36813689020E0001B76F62A42E
:1032380006D00F0136A503D06294EFEC39F065A2F1
:1032480002D0A198120062A009D00F0136A106D0C1
:10325800D9EC1BF0040E0001B76F629062A804D08D
:103268000F0136B9BEEC3AF062AC1CD00F0136AD96
:103278000ED0000E116E730E106E000E126E000E40
:10328800136E000E156E010E146EEBEC2EF0629CA0
:1032980027EC3CF00001B051D8A4B007B051D8B425
:1032A8009AEC27F062AA04D00F0136BBB5EC38F0CF
:1032B80062A212D00F0136A30FD07F0E116E1068D4
:1032C800000E126E000E136E000E156E010E146EB7
:1032D800EBEC2EF0000E636E040E0001B76102D015
:1032E800A19812000F0136A73CD0000E206E030EE5
:1032F800206401D036D062A634D064CFBCF000017F
:10330800BC31E832E8320F0BB26F6296BCB507D019
:10331800B251010D580EF324D96E010E07D00001E9
:10332800B251010D5B0EF324D96E010EF420DA6E52
:103338000101DF700001B251D8A403D078EC29F064
:103348000ED0000E116E720E106EBC0E126E000EB4
:10335800136E000E156E000E146EEBEC2EF0202A84
:10336800C6D7A1981200000E226E17D02250010D68
:10337800F90EF324F66E8D0EF420F76EF86A000E3F
:10338800F8222250010D680EF324D96E010EF420A4
:10339800DA6E0800F5CFDFFF222A2250010DF90E60
:1033A800F324F66E8D0EF420F76EF86A000EF822FC
:1033B8000800F5500009D8A4D9D7000E226E17D0FE
:1033C8002250010DCD0EF324F66E8C0EF420F76E0C
:1033D800F86A000EF8222250010D7C0EF324D96EF3
:1033E800010EF420DA6E0800F5CFDFFF222A225002
:1033F800010DCD0EF324F66E8C0EF420F76EF86AEC
:10340800000EF8220800F5500009D8A4D9D71BEC03
:103418003DF001C019F002C01AF01B6A1C6A900E38
:103428001D6E010E1E6E38EC27F0216E212A000E4B
:10343800226E1CD02250010D730EF324F66E8E0EF0
:10344800F420F76EF86A000EF822225021C01FF00F
:10345800206A1F26000E2022900E1F24D96E010E0E
:103468002020DA6E0800F5CFDFFF222A2250010D56
:10347800730EF324F66E8E0EF420F76EF86A000EC3
:10348800F8220800F5500009D8A4D4D7000E226EFF
:1034980017D02250010D660EF324F66E8D0EF4201F
:1034A800F76EF86A000EF8222250010DA40EF324DC
:1034B800D96E010EF420DA6E0800F5CFDFFF222A5C
:1034C8002250010D660EF324F66E8D0EF420F76E71
:1034D800F86A000EF8220800F5500009D8B4120066
:1034E800D8D7000E1F6E17D01F50010DB90EF32448
:1034F800F66E8D0EF420F76EF86A000EF8221F5053
:10350800010D680EF324D96E010EF420DA6E08005E
:10351800F5CFDFFF1F2A1F50010DB90EF324F66EF9
:103528008D0EF420F76EF86A000EF8220800F550A8
:103538000009D8A4D9D7000E1F6E17D01F50010D4F
:103548009F0EF324F66E8E0EF420F76EF86A000EC6
:10355800F8221F50010D7C0EF324D96E010EF420C1
:10356800DA6E0800F5CFDFFF1F2A1F50010D9F0EEE
:10357800F324F66E8E0EF420F76EF86A000EF82229
:103588000800F5500009D8A4D9D7000E1F6E17D02F
:103598001F50010DA90EF324F66E8D0EF420F76E60
:1035A800F86A000EF8221F50010D900EF324D96E10
:1035B800010EF420DA6E0800F5CFDFFF1F2A1F5036
:1035C800010DA90EF324F66E8D0EF420F76EF86A3D
:1035D800000EF8220800F5500009D8A4D9D72AEC23
:1035E8003DF001C019F002C01AF01B6A1C6A1F5096
:1035F800010D900EF3241D6E010EF4201E6E38ECA2
:1036080027F0000E1F6E17D01F50010D990EF324DE
:10361800F66E8D0EF420F76EF86A000EF8221F5031
:10362800010DA40EF324D96E010EF420DA6E080001
:10363800F5CFDFFF1F2A1F50010D990EF324F66EF8
:103648008D0EF420F76EF86A000EF8220800F55087
:103658000009D8B41200D8D7000E016E17D0015057
:10366800010D880EF324F66E8D0EF420F76EF86ABD
:10367800000EF8220150010D680EF324D96E010ED8
:10368800F420DA6E0800F5CFDFFF012A0150010DA2
:10369800880EF324F66E8D0EF420F76EF86A000E8D
:1036A800F8220800F5500009D8A4D9D7000E016EF9
:1036B80017D00150010D770EF324F66E8D0EF4200D
:1036C800F76EF86A000EF8220150010D7C0EF32403
:1036D800D96E010EF420DA6E0800F5CFDFFF012A5B
:1036E8000150010D770EF324F66E8D0EF420F76E5F
:1036F800F86A000EF8220800F5500009D8A4D9D7B6
:10370800000E016E17D00150010DF60EF324F66E6F
:103718008C0EF420F76EF86A000EF8220150010DA5
:10372800900EF324D96E010EF420DA6E0800F5CF5E
:10373800DFFF012A0150010DF60EF324F66E8C0E00
:10374800F420F76EF86A000EF8220800F550000918
:10375800D8A4D9D7000E016E17D00150010D620E02
:10376800F324F66E8E0EF420F76EF86A000EF82237
:103778000150010DA40EF324D96E010EF420DA6E67
:103788000800F5CFDFFF012A0150010D620EF32476
:10379800F66E8E0EF420F76EF86A000EF822080016
:1037A800F5500009D8B41200D8D7A098000E636E5F
:1037B800000E626E000E0F01266F270E016E0F0EAF
:1037C800026E000E046E000E036E000E066E020EF0
:1037D800056E19EC3BF0160E0F01396F9F0E376F0F
:1037E8007B0E366F000E096E0B0E096401D00ED0E9
:1037F8000950040D000EF324D96E0D0EF420DA6E74
:10380800DE6ADE6ADE6ADD6A092AEED7658C000E9A
:103818000F01386F6598659C6296000E0001696F0C
:10382800000E0101346F000E366F000E356F62B660
:10383800F3D7010E0001AE6F010EAD6F000EAC6F35
:10384800000EAB6F000EB36F000E096E020E096416
:1038580001D02ED00950020D6C0EF324D96E000E43
:10386800F420DA6E000EDE6E000EDD6E0950020DD9
:10387800720EF324D96E000EF420DA6E000EDE6E9E
:10388800000EDD6E0950010D5B0EF324D96E010E9A
:10389800F420DA6E000EDF6E0950010D580EF32485
:1038A800D96E010EF420DA6E000EDF6E092ACED72B
:1038B800080E00016C6F0D0E6D6F160E0F01266F4E
:1038C8000D0E0D01036F300E026F080E016F040E0E
:1038D800006F008F000E0001BD6F000E0101546FD4
:1038E800000E556F000E566F000E576F000E000148
:1038F800AA6F000EB76F1200800E0D013019D8A400
:103908001200C00E0001696F88D0A40E0001666F16
:103918008F0E676F000E6B6F120E6A6F12000D012B
:103928003251D8A443D03251020DA50EF324F66EBD
:103938008E0EF420F76EF86A000EF8220900F5CF13
:1039480066F00A00F5CF67F0020E00016625016EE9
:10395800000E6721026E01C0F6FF02C0F7FFF86A89
:103968000E0EF76403D00800F55005D0F6CFE9FF36
:10397800F7CFEAFFEF5000016A6F030E6625016E6C
:10398800000E6721026E01C0F6FF02C0F7FFF86A59
:103998000E0EF76403D00800F55005D0F6CFE9FF06
:1039A800F7CFEAFFEF5000016B6F1200000E000125
:1039B800696F1200040E0D01326127D03251020DD9
:1039C8007B0EF324F66E8E0EF420F76EF86A000E66
:1039D800F8220900F5CF66F00A00F5CF67F066C057
:1039E800F6FF67C0F7FFF86A0E0EF76403D0080009
:1039F800F55005D0F6CFE9FFF7CFEAFFEF50016E9B
:103A0800015000016A6F6B6B1200000E0001696FB4
:103A18001200000E0001696F12000D013351010AF6
:103A2800D8B473D7030AD8B47AD7010AD8B4C2D79E
:103A3800F0D7000E216E17D02150010D090EF32486
:103A4800F66E8E0EF420F76EF86A000EF8222150FA
:103A5800010D680EF324D96E010EF420DA6E080009
:103A6800F5CFDFFF212A2150010D090EF324F66E50
:103A78008E0EF420F76EF86A000EF8220800F55052
:103A88000009D8A4D9D7000E216E17D02150010DF6
:103A9800550EF324F66E8E0EF420F76EF86A000EBB
:103AA800F8222150010D7C0EF324D96E010EF4206A
:103AB800DA6E0800F5CFDFFF212A2150010D550EDF
:103AC800F324F66E8E0EF420F76EF86A000EF822D4
:103AD8000800F5500009D8A4D9D7000E216E17D0D8
:103AE8002150010D8A0EF324F66E8E0EF420F76E27
:103AF800F86A000EF8222150010D900EF324D96EB9
:103B0800010EF420DA6E0800F5CFDFFF212A2150DC
:103B1800010D8A0EF324F66E8E0EF420F76EF86A05
:103B2800000EF8220800F5500009D8A4D9D72FECC8
:103B38003DF001C019F002C01AF01B6A1C6A21503E
:103B48001F6E206A010E1F26000E2022900E1F24D1
:103B58001D6E010E20201E6E38EC27F012000001A9
:103B680020EE01F09851D9269951DA22DF50026EE1
:103B780002500101355D000E3659D8A035C102F05A
:103B88000250355F000E365B000E016E11D00150F9
:103B9800010D380EF324D96E0D0EF420DA6E31C102
:103BA800E1FF32C1E2FFDFCFE7FF314B322B012AC1
:103BB8000250015CD8A0EBD735513611D8B433D0B8
:103BC800000120EE01F09651D9269751DA22080E0D
:103BD800DF6E20EE02F09651D9269751DA22380E80
:103BE800DE6E0D0EDD6E98C0D9FF99C0DAFFDFBC1E
:103BF8000DD096C0D9FF97C0DAFF480EDF6E96C089
:103C0800D9FF97C0DAFF000EDB8E120096C0D9FFED
:103C180097C0DAFF080EDF6E96C0D9FF97C0DAFFAB
:103C2800000EDB8E1200000120EE01F09651D9261D
:103C38009751DA22080EDF6E20EE02F09651D9264F
:103C48009751DA22300EDE6E0D0EDD6E96C0D9FF6A
:103C580097C0DAFF040EDF6E96C0D9FF97C0DAFF6F
:103C6800000EDB8E0101349F0001AF51D8A4120071
:103C78009AEC27F01200E2C101F0E3C102F001D88A
:103C88000AD00500FA6E0101DA51FD6EDB51FE6EB5
:103C9800FF6AFA5012000009D8B40CD001010D5186
:103CA800010DA30EF324D96E000EF420DA6EDE04A3
:103CB800D8A419D00DC148F0010E496E000E4A6E05
:103CC800482A03D0D89049364A36482EFBD7491C93
:103CD8004B6E4A1C4C6E4B50010164174C506517D3
:103CE8008BEC34F04ED00DC148F0010E496E000E39
:103CF8004A6E482A03D0D89049364A36482EFBD710
:103D080001016451491665514A1649504A10D8A410
:103D180036D0E2C101F0E3C102F001D809D00500B4
:103D2800FA6ED451FD6ED551FE6EFF6AFA5012003C
:103D380001500210D8B420D00DC148F0010E496ED0
:103D4800000E4A6E482A03D0D89049364A36482E83
:103D5800FBD74950010164134A5065132151F00BF8
:103D68000609216F280E2B6F000E2C6F010E0D0116
:103D78008C6F4EEC02F005D08BEC34F002D04EEC98
:103D880002F00001A8511200066E0650D8A42CD0EB
:103D9800000120EE01F09651D9269751DA22080E3B
:103DA800DF6E20EE02F09651D9269751DA22300EB6
:103DB800DE6E0D0EDD6E96C0D9FF97C0DAFF0C0ED1
:103DC800DF6E96C0D9FF97C0DAFF000EDB8E6CC09D
:103DD800D9FF6DC0DAFF040EDF6E6CC0D9FF6DC06D
:103DE800DAFF000EDB8E12000150026E036AD890D3
:103DF800023603360650046E056AD8900436053636
:103E0800D890043605360250042603500522D8906F
:103E180004360536D89004360536000E0424076E9D
:103E28000D0E0520086E07C0D9FF08C0DAFF000E86
:103E3800DB8407C0D9FF08C0DAFF000EDB8E06500E
:103E4800040DF3CF02F0F4CF03F00150020DF3504C
:103E58000226F4500322D89002360336D890023650
:103E68000336040E0226000E0322000E0224076EFB
:103E78000D0E0320086E07C0D9FF08C0DAFF000E38
:103E8800DB8407C0D9FF08C0DAFF000EDB8E120002
:103E9800000E016E400E026E0D0E036E400E046E93
:103EA800020E52EC20F001C090F002C091F070C0F8
:103EB8008EF071C08FF0000E0001A96FA869000E86
:103EC800A76F000EA66F000EA26F000E0101506FC3
:103ED800000E516F000E526F000E536F000E4C6FA4
:103EE800000E4D6F000E4E6F000E4F6F010E000159
:103EF800A16F000E0101656F000E646F000E0D6F5B
:103F080046D00D51010DA30EF324D96E000EF420F6
:103F1800DA6E000EDF6EE2C101F0E3C102F001D8F3
:103F280009D00500FA6EDA51FD6EDB51FE6EFF6AAC
:103F3800FA5012000009D8B426D0E2C101F0E3C15A
:103F480002F001D80AD00500FA6E0101D451FD6EC5
:103F5800D551FE6EFF6AFA50120001500210D8B413
:103F680012D00DC10CF0010E0D6E000E0E6E0C2A53
:103F780003D0D8900D360E360C2EFBD70D5001010C
:103F880064130E506513BCEC34F001010D2B0D5178
:103F9800D8A41200B6D7096E00018E518F11D8B47B
:103FA80006D08EC0D9FF8FC0DAFFDFBE1200905155
:103FB8009111D8B406D090C0D9FF91C0DAFFDFBE06
:103FC8001200A9C00AF0A869000EA76F000EA66F1C
:103FD80008C188FD09C189FD0AC18AFD0BC18BFD95
:103FE800010E0D018C6F030E0001A96F43D0020E64
:103FF8000D018C6F1200010E016E020EC8EC1EF04E
:104008001200020E0D018C6F010E016E020EC8EC3B
:104018001EF01200000E016E020EC8EC1EF0120017
:10402800020E0D018C6F000E016E020EC8EC1EF020
:104038001200BCEC34F001012151F00B0509216F8D
:10404800200E2B6F000E2C6F020E0A18D8A40CD06D
:10405800085109110A110B11D8B406D0000E016ECF
:10406800020EC8EC1EF01200010E016E020EC8EC22
:104078001EF012000950010AD8B4B9D7030AD8B4FF
:10408800BAD7010AD8B4BDD7070AD8B4C3D7010A2A
:10409800D8B4C6D77A0AD8A41200CBD7096E015073
:1040A800D8B407D00950020D6C0EF324D96E000E57
:1040B80006D00950020D720EF324D96E000EF420BA
:1040C800DA6EDECF0AF0DDCF0BF00A500B10D8A461
:1040D80005D0000E016E000E026E120020EE02F0F6
:1040E8000A50D9260B50DA2202C0DEFF03C0DDFFDA
:1040F80020EE01F00A50D9260B50DA2204C0DFFF67
:104108000AC0D9FF0BC0DAFF400EDF160AC0D9FF7C
:104118000BC0DAFF000EDB860AC0D9FF0BC0DAFF3E
:10412800000EDB8E0150D8B418D00950020D6C0E69
:10413800F324D96E000EF420DA6EDECF05F0DDCF61
:1041480006F0040E0518076E0650086E0950020D99
:104158006C0EF324D96E000E17D00950020D720EA2
:10416800F324D96E000EF420DA6EDECF05F0DDCF31
:1041780006F0040E0518076E0650086E0950020D69
:10418800720EF324D96E000EF420DA6E07C0DEFF3B
:1041980008C0DDFF0AC001F00BC002F012006598EC
:1041A800000169BF3CD0010134AF0DD0020E0001FF
:1041B800B56FAB51D8B4BAEC2BF0000E0001AD6F5F
:1041C800000EAE6F1200000120EE01F09651D926C4
:1041D8009751DA22080EDF6E20EE02F09651D926AA
:1041E8009751DA22300EDE6E0D0EDD6E96C0D9FFC5
:1041F80097C0DAFF0C0EDF6E96C0D9FF97C0DAFFC2
:10420800000EDB8E6CC0D9FF6DC0DAFF040EDF6EC6
:104218006CC0D9FF6DC0DAFF000EDB8E12000D01F5
:1042280030AF12D0010E0001B56FAC51D8B4BAEC62
:104238002BF0000E0001AD6F000EAE6FAF51D8A489
:1042480012009AEC27F01200020E0001B56F20EE62
:1042580001F09651D9269751DA22080EDF6E20EE2A
:1042680002F09651D9269751DA22300EDE6E0D0EE5
:10427800DD6E96C0D9FF97C0DAFF040EDF6E96C0D8
:10428800D9FF97C0DAFF000EDB8E000EAD6F000E6F
:10429800AE6FAF51D8A412009AEC27F0120055C0A7
:1042A800D9FF56C0DAFFDF50596E7F0E59645FD0D0
:1042B80038EC3CF00009D8B428D057C014F058C0E6
:1042C80015F090EC23F0120055C037F056C038F0C6
:1042D80057C039F058C03AF07EEC32F0120055C0A1
:1042E8003CF056C03DF057C03EF058C03FF01AECC5
:1042F8002BF0120055C04DF056C04EF057C04FF08D
:1043080058C050F087EC11F012005950800AD8B408
:10431800DBD7010AD8B4E3D7030AD8A41200EAD736
:1043280057C014F058C015F090EC23F0120057C095
:1043380005F058C006F0000E076E1EEC29F01200BA
:1043480057C005F058C006F0010E076E1EEC29F0A4
:10435800120057C005F058C006F091EC13F0120097
:1043680057C001F058C002F009EC2CF01200595067
:10437800100AD8B4D5D7010AD8B4D9D7030AD8B403
:10438800DFD7010AD8B4E5D7070AD8A41200E8D7BE
:104398000D013039E832030B0009D8A4120047D0C8
:1043A8000001698F080EB76F120080EC1CF0120034
:1043B8003DEC22F01200BD0E0001666F000E676F23
:1043C8006981010E6A6F698F1200CEEC29F0120024
:1043D800C2EC0BF012000D013451010DB80EF3249C
:1043E8000001666F000EF420676F6981010E6A6F25
:1043F800698F12000001698F0D013451010DB80E4B
:10440800F324D96E000EF420DA6E32CDDFFF1200ED
:10441800000E116E020E106E000E126E000E136E5C
:10442800000E156E000E146EEBEC2EF012000D014E
:104438003151000AD8B4C9D7010AD8B4C9D7020A79
:10444800D8B4C6D7060AD8B4ABD7030AD8B4ADD700
:10445800010AD8B4DDD70F0AD8B4ADD7010AD8B449
:10446800A7D7030AD8B4B7D7010AD8B4C3D7070A5D
:1044780012000001698F270E016E0F0E026E000EEA
:10448800046E000E036E000E066E020E056E19EC29
:104498003BF0000E016E0D0E026E000E046E000E53
:1044A800036E000E066E300E056E19EC3BF0658C3F
:1044B800000E186E020E186401D016D01850010DA7
:1044C8005B0EF324D96E010EF420DA6E000EDF6E57
:1044D8001850010D580EF324D96E010EF420DA6E2F
:1044E800000EDF6E182AE6D7B80E016E000E026EB7
:1044F800000E046E000E036E000E066E020E056EB0
:1045080019EC3BF0659C080E00016C6F0D0E6D6F89
:10451800000E986F0D0E996F98C096F099C097F09D
:1045280032CDBDF0BD51D8A403D0100EB76F120024
:10453800000E116E010E106EBD0E126E000E136E7F
:10454800000E156E010E146EEBEC2EF0200E00011D
:10455800B76F12000D0130511F0BE806D8A41200E6
:104568003451D8A41200060E3119D8B41AD022D06A
:104578000001BD05D8A41ED0B90E666F8E0E676FF8
:10458800000E6B6F090E0BD0C00E696F13D06D0E45
:104598000001666F8F0E676F000E6B6F1D0E6A6FDE
:1045A800F3D70D013351210AD8B4E2D7030AD8B49E
:1045B800EED7010A0D013039E832030BE806D8A41A
:1045C800120024D0BB0E0001666F000E676F000E4C
:1045D8006B6F010E6A6FC10E696F1200800E0001C9
:1045E800696F33CDBBF01200BA0E0001666F000E82
:1045F800676F000E6B6F010E6A6F810E696F120094
:10460800800E0001696F32CDBAF012000D013151F0
:10461800010AD8B41200030AD8B4D4D7010AD8B40E
:10462800E3D70A0AD8B41200030AD8B4D7D7010AC4
:10463800D8A41200E5D70B500C100D100E10D8A4FA
:1046480002D0010E01D0000E116E0001A205D8A4FF
:1046580005D01104D8A402D0000E12000B5001019D
:1046680008191AE10C50091917E10D500A1914E13B
:104678000E500B19D8A410D00001A905D8A406D053
:104688002A0EA819D8B408D0000E12002A0EA819AC
:10469800D8A402D0000E1200010108510B5C095188
:1046A8000C580A510D580B510E58D8B002D0010EB3
:1046B80001D0000E0F6E020E0001A919D8A414D063
:1046C8002A0EA819D8B405D01150D8A402D0050EC6
:1046D8001DD0A205D8B40FD01104D8B403D00F044C
:1046E800D8A4F5D7040E12D02A0EA819D8B40DD024
:1046F800A205D8A402D0010E09D01104D8B403D061
:104708000F04D8A402D0020E01D0030E106E105070
:10471800CFEC1FF01050120014C0D9FF15C0DAFFFB
:10472800100EDF6E20EE01F01450D9261550DA2253
:10473800250EDF6E20EE02F01450D9261550DA222D
:10474800C10EDF6E20EE03F01450D9261550DA2280
:1047580038EC3CF0DF6E20EE04F01450D9261550EA
:10476800DA22000EDF6E20EE05F01450D92615501F
:10477800DA22010EDF6E20EE06F01450D92615500D
:10478800DA22000EDF6E20EE07F01450D9261550FD
:10479800DA224AEC3DF0DF6E20EE08F01450D926FC
:1047A8001550DA2260C0DFFF20EE09F01450D92638
:1047B8001550DA2261C0DFFF20EE0AF01450D92626
:1047C8001550DA2262C0DFFF20EE0BF01450D92614
:1047D8001550DA2263C0DFFF20EE0CF01450D92602
:1047E8001550DA2264C0DFFF20EE0DF01450D926F0
:1047F8001550DA2265C0DFFF1200000E0A6E000EA7
:104808000C6E62D00C500124066E000E0220076E5A
:10481800000E0320086E000E0420096E09500810CF
:1048280004E1900E075CD8A018D00C500124066E45
:10483800000E0220076E000E0320086E000E0420F2
:10484800096E09500AE1F80E065CFF0E0758010EC2
:104858000858D8B002D0000E29D00C500124066E9A
:10486800000E0220076E000E0320086E000E0420C2
:10487800096E095008E1F80E065CFF0E0758010E94
:104888000858D8A015D00C500124066E000E02203E
:10489800076E000E0320086E000E0420096E0950F2
:1048A80007E1020E085CD8B003D0010E0B6E01D0F0
:1048B8000B680B28D8A402D0FF0E12000B500A5C1C
:1048C800D8A00BC00AF00C2A05500C5CD8A09AD7C7
:1048D8000A50120052D000016151D8B41200B2EC53
:1048E8003CF0000E0001616F12008C90000E876F83
:1048F800000E866F020E9F6F120005EC3CF0000E52
:104908000001876F000E866F030E9F6F1200864BA3
:10491800872B875104E1040E865DD8A0120016EC9F
:104928003CF0000E0001876F000E866F040E9F6F2B
:104938001200EDEC3AF0960E96EC3BF0D6EC3CF01B
:10494800000E0001876F000E866F050E9F6F120024
:104958006051D8A40BD06151D8A408D0862903E1AE
:104968008729D8B41200864B872B1200000E876F58
:10497800000E866F5FEC31F0120000019F51000AB3
:10498800D8B4A9D7010AD8B4B0D7030AD8B4B5D7D0
:10499800010AD8B4BCD7070AD8B4CBD7010AD8A41F
:1049A8001200D6D726D0800E1200020E1200000E7A
:1049B8001200000E1200040E1200180E12000F0E44
:1049C8001200010E1200010E1200000E1200000E5D
:1049D8001200000E1200880E1200130E1200000EB4
:1049E8001200000E1200550E1200AA0E1200000E40
:1049F800120001C003F002C004F00450010AD8A458
:104A0800F6D70350BE0AD8B4CED7010AD8B4CDD74A
:104A18007F0AD8B4CCD7010AD8B4CBD7030AD8B404
:104A2800CAD7010AD8B4C9D7070AD8B4C8D7010A5F
:104A3800D8B4C7D7030AD8B4C6D7010AD8B4C5D7DB
:104A48000F0AD8B4C4D7010AD8B4C3D7030AD8B454
:104A5800C2D7010AD8B4C1D7070AD8B4C0D7010A47
:104A6800D8B4BFD7330AD8B4BED7010AD8B4BDD793
:104A7800BED7F4C0D9FFF5C0DAFF7F0EDF6401D0DE
:104A88001200010E0001F96F56D0F951010DF350D3
:104A9800F425D96EF450F521DA6E990EDE18D8B4E3
:104AA80012002ED0F951010DF350F425D96EF450AF
:104AB800F521DA6EDF5031EC30F00BD0F951010DF1
:104AC800F350F425D96EF450F521DA6EDF5031EC4D
:104AD80030F00001F92B2FD0F951010DF350F425D6
:104AE800D96EF450F521DA6EDF50F76FF86BF7C026
:104AF800F1F0F8C0F2F085EC2DF00001F9271BD099
:104B0800F951010DF350F425D96EF450F521DA6E00
:104B1800DF50F00BF76FF86BF851000AD8A41200B9
:104B2800F751200AD8B4BED7100AD8B4C7D7600A3C
:104B3800D8A41200D1D7F651F95DD8B01200A5D784
:104B48002B6E49EC38F015D030EC1BF03BD088ECDC
:104B580014F038D01DEC1DF035D0B7EC19F032D078
:104B680098EC07F02FD063EC16F02CD075EC1AF007
:104B780029D02B50F00B296E2A6A2A50000AD8A493
:104B880021D02950000AD8B4DFD7100AD8B4DFD70B
:104B9800300AD8B4DFD7100AD8B4DFD7700AD8B42F
:104BA800DFD7100AD8B4DFD7300AD8B4DFD70AD095
:104BB8002E0E0101796F2E0E0101786F2E0E010164
:104BC800776F15D000016239E842070B030B296E95
:104BD8002A6A2A50000AD8A40AD02950010AD8B44F
:104BE800EDD7030AD8B4E7D7010AD8B4E1D7F2AEB3
:104BF80003D0490E01017A6F00016151800A7F0FCD
:104C0800D8A01200580E0101B76F1200080E016EED
:104C180000016B5110E1080E6A5DD8B00CD06AC073
:104C280001F0B651D8A402D0010E04D0B605D8A41C
:104C380002D0020EB66F01506A5F000E6B5B20EE69
:104C480001F06C51D9266D51DA2201C0DFFF380E10
:104C5800946F0D0E956F69A11CD03AD066C0F6FF0F
:104C680067C0F7FFF86A94C0D9FF95C0DAFF0E0E47
:104C7800F76403D00800F55005D0F6CFE9FFF7CF69
:104C8800EAFFEF50DF6E0001664B672B944B952BC4
:104C980001060150D8B41200E1D766C0F6FF67C01C
:104CA800F7FFF86A94C0D9FF95C0DAFF0E0EF764D3
:104CB80003D00800F55005D0F6CFE9FFF7CFEAFF9B
:104CC800EF50DF6E0001664B672B944B952B010666
:104CD8000150D8B41200E1D7BFEC33F0A9EC35F09D
:104CE8000009D8A400EF48F0000E31EC37F0D9ECF9
:104CF8001BF0F7EC18F0A8EC3CF023EC2AF0D3EC0E
:104D080039F000016351D8A4F4D76EEC24F02AD00E
:104D1800000EFDEC37F040D0010EFDEC37F03CD032
:104D2800020EFDEC37F038D0030EFDEC37F034D02E
:104D3800040EFDEC37F030D0050EFDEC37F02CD02A
:104D48004AEC3DF0050AD8A427D000016551A4EC2F
:104D580025F022D04AEC3DF0050AD8A41DD0EBEC92
:104D680032F01AD000016251000AD8B4D1D7010A32
:104D7800D8B4D2D7030AD8B4D3D7010AD8B4D4D771
:104D8800070AD8B4D5D7010AD8B4D6D7030AD8B4F5
:104D9800D7D7010AD8B4DED7010E0001636FA9D7AF
:104DA8006CC0D9FF6DC0DAFF0001000EDFBC010E38
:104DB800026E040E6C196C6F6D516D6F080EB71989
:104DC800D8A40DD00D0132517F0B0F01386F385127
:104DD800D8B402D0100E01D0040E0001B76FB5058B
:104DE800D8A43BD020EE02F06C51D9266D51DA22BE
:104DF800380EDE6E0D0EDD6E0AEC26F0020E000196
:104E0800B619D8A40DD06CC0D9FF6DC0DAFF040E56
:104E1800DF6E6CC0D9FF6DC0DAFF000EDB8E1200AA
:104E28000250D8A40DD06CC0D9FF6DC0DAFF480E6F
:104E3800DF6E6CC0D9FF6DC0DAFF000EDB8E12008A
:104E48006CC0D9FF6DC0DAFF080EDF6E6CC0D9FFE9
:104E58006DC0DAFF000EDB8E1200010134BF349FF3
:104E6800000E0001B56F12001DC011F01EC012F037
:104E780019C013F01AC014F0000E166E0A0E156E43
:104E8800D7EC38F01C501B1006E1100E195C270EE9
:104E98001A58D8A00AD020EE05F01D50D9261E5069
:104EA800DA22200EDF6E050E12001C501B1006E1E0
:104EB800E80E195C030E1A58D8A00AD020EE04F0A8
:104EC8001D50D9261E50DA22200EDF6E040E120065
:104ED8001C501B101A1004E1640E195CD8A00AD0EB
:104EE80020EE03F01D50D9261E50DA22200EDF6E68
:104EF800030E12001C501B101A1004E10A0E195C54
:104F0800D8A00AD020EE02F01D50D9261E50DA2271
:104F1800200EDF6E020E120020EE01F01D50D92681
:104F28001E50DA22200EDF6E010E12000001AE5173
:104F3800D8A41200010EAE6FAD51D8A41200010E14
:104F4800AD6F020EB519D8A415D020EE01F06C5142
:104F5800D9266D51DA22000EDF6E6CC0D9FF6DC004
:104F6800DAFF480EDF6E6CC0D9FF6DC0DAFF000EA5
:104F7800DB8E1200B505D8A41200000EB16F20EE2A
:104F880001F09851D9269951DA22080EDF6E20EEE9
:104F980002F09851D9269951DA22300EDE6E0D0EA4
:104FA800DD6E98C0D9FF99C0DAFF040EDF6E98C095
:104FB800D9FF99C0DAFF000EDB8E010EB16F20EE2B
:104FC80001F09651D9269751DA22080EDF6E20EEAD
:104FD80002F09651D9269751DA22300EDE6E0D0E68
:104FE800DD6E96C0D9FF97C0DAFF800EDF6E120023
:104FF8000D0130511F0BE806D8A412003451D8A473
:1050080012004ED032513311D8A412003651371144
:10501800D8A41200000E0001A96FA869000EA76F9E
:10502800000EA66F010EA16F76C00CF077C00DF0D0
:105038000C500D10D8B40AD076C00EF077C00FF01F
:105048000EC0D9FF0FC0DAFFDFBE0FD0000E016E11
:10505800400E026E0D0E036E400E046E020E52ECF0
:1050680020F001C090F002C091F0800E0001696F3D
:1050780012000D0132513311D8A412003605371130
:10508800D8A41200000E386F380E0001666F0D0E9E
:10509800676F000E6B6F010E6A6FC10E696F1200A9
:1050A8000D013151FE0AD8B4E4D7010AD8A4120080
:1050B800A9D753D001C0F6FF02C0F7FFF86A0E0E59
:1050C800F76403D00800F55005D0F6CFE9FFF7CF15
:1050D800EAFFEF500009D8B419D003C0D9FF04C0C3
:1050E800DAFFDF50076E01C0F6FF02C0F7FFF86A6B
:1050F8000E0EF76403D00800F55005D0F6CFE9FF8F
:10510800F7CFEAFFEF500718D8B423D003C0D9FF70
:1051180004C0DAFFDF50076E086A071E081E074A38
:10512800082A01C0F6FF02C0F7FFF86A0E0EF764FE
:1051380003D00800F55005D0F6CFE9FFF7CFEAFF16
:10514800EF50096E09500724016E000E0820026E08
:105158001200014A022A034A042A0506D8A00606B4
:105168000528A8E10628D8A4A5D7000E026E000ECF
:10517800016E1200000E376E000E396E120E386E78
:10518800395056E1160E385CD8B052D0000E3B6E3E
:10519800000E3A6E020E3B5CD8B047D038C014F00F
:1051A80039C015F03AC016F03BC017F0000E196E62
:1051B8000B0E186E2C0E1A6E000E1B6EE8EC30F0FB
:1051C8002C50D8A402D0FF0E1200E50E2C18D8B42B
:1051D80026D028C001F029C002F02C0E036E000E64
:1051E800046E000E066E080E056E5DEC28F0015088
:1051F8000210D8A414D02AC001F02BC002F0340E3B
:10520800036E000E046E000E066E030E056E5DEC56
:1052180028F001500210D8A402D037501200372AC3
:10522800200E3A26000E3B22B5D7384A392AA8D78D
:10523800FF0E12000750D8B406D005C0D9FF06C02B
:10524800DAFF120E05D005C0D9FF06C0DAFF110E2D
:10525800DF6E20EE01F00550D9260650DA22250E21
:10526800DF6E20EE02F00550D9260650DA22C10E74
:10527800DF6E030E0D6E0750D8B402D0020E01D0B7
:10528800000E0F6E0FC00EF01AD0000E106E130E27
:10529800106401D013D010C001F00E5045EC3BF063
:1052A800086E0D50010DF3500524D96EF4500620F8
:1052B800DA6E08C0DFFF0D2A102AE9D70E2A0F5030
:1052C800086E096A020E0826000E09220E500A6EA0
:1052D8000B6A08500A5C0B50800A0C6E0950800A51
:1052E8000C58D8B01200D1D72D0E0001B06FBCC039
:1052F8001EF0FD0E1E16D8A444D0BCC01EF0D890D7
:105308001E323F0E1E161E50040D000EF324986F19
:105318000D0EF420996F98C096F099C097F0040E7E
:105328009619966F9751976F98C0D9FF99C0DAFF71
:10533800DF30E8320F0B0D0AD8A420D0300E016EF2
:105348000D0E026E20EE02F09851D9269951DA22FC
:10535800DECF1EF0DDCF1FF01EC003F01FC004F02B
:1053680003500410D8A4200E056E000E076E080E18
:10537800066E26EC34F03CEC2DF012001DEC35F0F6
:1053880012000001BC51FD0B040AD8A41200D4EC91
:1053980026F01200000E0D01386F000E396F39D05B
:1053A8000001698F0001B405D8A43ED00D013883EF
:1053B8003BD00001698F38D00001698F0D0134BFDF
:1053C8000AD034510F0B016E0150020D720EF324F6
:1053D800D96E000E09D034510F0B016E0150020D29
:1053E8006C0EF324D96E000EF420DA6EDECF02F0D4
:1053F800DDCF03F002C0D9FF03C0DAFFDFAE14D05F
:1054080002C0D9FF03C0DAFFDFA40ED0010E386F47
:105418000BD030511F0B000AD8B4C2D7010AD8B438
:10542800C8D7030AD8B4C8D7000169AF1200380E2C
:10543800666F0D0E676F6981020E6A6F1200200E8B
:105448000001B76101D0120065B212008A518B11B8
:10545800D8B406D08AC0D9FF8BC0DAFFDFBE1200ED
:1054680088518911D8B406D088C0D9FF89C0DAFF1D
:10547800DFBE1FD0400EFA6FFB6BFAC055F0FBC0C1
:1054880056F0000EFC6FFD6BFCC057F0FDC058F0E5
:1054980053EC21F0010E016E000E026E020E036E37
:1054A800400E046E010E52EC20F001C088F002C0DC
:1054B80089F0400E0001F46F020EF56F400EF66F92
:1054C8003DEC25F0000E016E400E026E020E036EDA
:1054D800400E046E010E52EC20F001C08AF002C0AA
:1054E8008BF01200000E296E000E286EB20E2A6E86
:1054F800020E2B6EBCEC3BF0000E2F6E000E2E6ED3
:10550800020E2F5CD8B016D0B20E2E24D96E020E21
:105518002F20DA6E2EC001F02FC002F0D6EC24F056
:105528002D6EDE502D18D8B402D0000E12002E4A6F
:105538002F2AE6D7000E296E010E286EB20E2A6EAB
:10554800020E2B6EBCEC3BF0000E2F6E000E2E6E82
:10555800020E2F5CD8B016D0B20E2E24D96E020ED1
:105568002F20DA6E2EC001F02FC002F004EC0DF0EF
:105578002D6EDE502D18D8B402D0000E12002E4A1F
:105588002F2AE6D7010E12000AC00EF00BC00FF04A
:105598000EC001F00FC002F00CC003F00DC004F003
:1055A8005BEC37F001C00EF002C00FF0084A092A80
:1055B8000E500F10D8A4ECD708C0D9FF09C0DAFFE5
:1055C800000EDF6E0806D8A009060AC001F00BC05D
:1055D80002F00CC003F00DC004F0F8EC38F00150F4
:1055E800106E0AC001F00BC002F00CC003F00DC031
:1055F80004F05BEC37F001C00AF002C00BF0090EB2
:10560800106402D0070E1026300E102608C0D9FFED
:1056180009C0DAFF10C0DFFF0806D8A009060A5043
:105628000B10D8A4D2D7084A092A12003EC0D9FFC5
:105638003FC0DAFF810EDF6E20EE01F03E50D92622
:105648003F50DA22250EDF6E20EE02F03E50D926BA
:105658003F50DA22C10EDF6E010E3C24286E000E88
:105668003D20296E090E3C242A6E000E3D202B6E2B
:10567800BEEC28F0406E20EE03F03E50D9263F5095
:10568800DA2240C0DFFF000E446E0A0E446401D0E7
:1056980012004450406E416A010E4026000E41221D
:1056A80040503C24D96E41503D20DA6E4450426E41
:1056B800436A0C0E4226000E432242503E24E16EFD
:1056C80043503F20E26EDFCFE7FF442ADED7B60E15
:1056D800286E8F0E296EC70E2A6E8F0E2B6EBEECAB
:1056E80028F00001FE6FFE29D8B433D0FE510DEC2E
:1056F80032F028C078F029C079F02AC07AF02BC09F
:105708007BF0000E0001856F000E846F000E7C6F29
:10571800000E7D6F000E7E6F000E7F6F01014869DD
:1057280049694A694B69000E446F000E456F000EC7
:10573800466F000E476F000E406F000E416F000E5F
:10574800426F000E436F100E0001646F100E656FFC
:105758001200000E786F000E796F000E7A6F000E3F
:105768007B6F000E646F000E656F1200000E000163
:10577800AC6F000EAB6F020EB519D8A41FD020EE87
:1057880001F09651D9269751DA22080EDF6E20EEE5
:1057980002F09651D9269751DA22380EDE6E0D0E98
:1057A800DD6E96C0D9FF97C0DAFF480EDF6E96C04F
:1057B800D9FF97C0DAFF000EDB8E12006A510D0187
:1057C800365D00016B510D013759D8B004D036CD84
:1057D8006AF037CD6BF00AEC26F0000120EE02F0FB
:1057E8006C51D9266D51DA22380EDE6E0D0EDD6E43
:1057F8006CC0D9FF6DC0DAFF480EDF6E6CC0D9FFF0
:105808006DC0DAFF000EDB8E120001C0D9FF02C0A6
:10581800DAFF100EDF6E20EE01F00150D92602509B
:10582800DA22250EDF6E20EE02F00150D926025052
:10583800DA22C10EDF6E20EE03F00150D9260250A5
:10584800DA2239C1DFFF20EE04F00150D9260250D8
:10585800DA223AC1DFFF20EE05F00150D9260250C6
:10586800DA223BC1DFFF20EE06F00150D9260250B4
:10587800DA223CC1DFFF20EE07F00150D9260250A2
:10588800DA223DC1DFFF20EE08F00150D926025090
:10589800DA223EC1DFFF20EE09F00150D92602507E
:1058A800DA223FC1DFFF12000150036E0250046E7E
:1058B800056A066A03500101085D0450095905503C
:1058C8000A5906500B59D8B00ED0000E0D01886F3A
:1058D800000E896F000E8A6F000E8B6F08C18CF066
:1058E80009C18DF0120000018C51015C8D510258E4
:1058F800D8B004D001C08CF002C08DF08C51036E7A
:105908008D51046E056A066A031E041E051E061ED6
:10591800032A000E0422052206220101085103244D
:105928000D01886F0101095104200D01896F0101E2
:105938000A5105200D018A6F01010B5106200D0146
:105948008B6F120062EC3DF0889E889C888A88984C
:105958008896888488928698869A869C869E869061
:1059680086928694869602506A6E01C06BFFFF0E7F
:10597800096EFF0E0A6E03C00BF004C00CF009504C
:105988000B260A500C220CC00BF00C6A0B50666EEA
:105998000304676E8C9E888088B0FED7889A8888B2
:1059A800889688940650686E05C069FFFF0E096ED8
:1059B800FF0E0A6E07C00BF008C00CF009500B264A
:1059C8000A500C220CC00BF00C6A0B50666E0704D0
:1059D800676E888088B0FED78C8E1200066E000E27
:1059E800076E0D0E086E0150026E036AD8900236DB
:1059F80003360650046E056AD89004360536D890EA
:105A0800043605360250042603500522D890043681
:105A18000536D89004360536045007260550082266
:105A280007C0D9FF08C0DAFFDF9E0150D8A407D00D
:105A38000650020D720EF324D96E000E06D00650E1
:105A4800020D6C0EF324D96E000EF420DA6E07C036
:105A5800DEFF08C0DDFF07C0D9FF08C0DAFFDF9C02
:105A680020EE04F00750D9260850DA22DF8C120005
:105A7800000E0001B66F000EAF6F000EAC6F000E87
:105A8800AB6F000EB16F000EB56F6CC0D9FF6DC063
:105A9800DAFF7F0EDF16040E6C196C6F6D516D6F97
:105AA8006CC0D9FF6DC0DAFF7F0EDF16040E6C19CB
:105AB8006C6F6D516D6F96C0D9FF97C0DAFF7F0E7E
:105AC800DF16000E696F000E6B6F000E6A6F000E16
:105AD8000101346F000E366F000E356FCCEC21F0EB
