:020000040000FA
:040000000EEF00F00F
:0400080004EF48F0C9
:100018000CEF48F07CEF35F00E500C24D96E0F50E1
:100028000D20DA6E3A0EDE18D8B405D00C680D68CB
:100038000E680F681200020E0E24146E000E0F20B8
:10004800156E14500C24D96E15500D20DA6EDF5041
:10005800036E010E0E24166E000E0F20176E16503A
:100068000C24D96E17500D20DA6EDF50B5EC43F032
:10007800186E196A12C0D9FF13C0DAFF18C0DEFF64
:1000880019C0DDFF12C0D9FF13C0DAFF010EDB5023
:1000980004E1110EDE5CD8A009D0FC0E0C6EFF0E38
:1000A8000D6EFF0E0E6EFF0E0F6E1200040E0E2464
:1000B800146E000E0F20156E14500C24D96E1550B6
:1000C8000D20DA6EDF50036E050E0E24166E000E3C
:1000D8000F20176E16500C24D96E17500D20DA6EAB
:1000E800DF50046E060E0E24186E000E0F20196ED7
:1000F80018500C24D96E19500D20DA6EDF50056E99
:10010800030E0E241A6E000E0F201B6E1A500C24BC
:10011800D96E1B500D20DA6EDF5042EC39F020EE1C
:1001280002F01250D9261350DA2203C0DEFF04C0B1
:10013800DDFF20EE04F01250D9261350DA22080E03
:100148000E24146E000E0F20156E14500C24E16E50
:1001580015500D20E26EE750036E070E0E24166E42
:10016800000E0F20176E16500C24E16E17500D204C
:10017800E26EE750B5EC43F0DF6E000E1C6E3DD02A
:100188001C50010D050EF326000EF422F350122424
:10019800D96EF4501320DA6E1C501CC014F0156A86
:1001A8001426000E15220E5014260F5015220A0E82
:1001B8001426000E152214500C24E16E15500D2043
:1001C800E26EE750036E1C501CC016F0176A162624
:1001D800000E17220E5016260F501722090E16264B
:1001E800000E172216500C24E16E17500D20E26EF7
:1001F800E750B5EC43F0DF6E1C2A12C0D9FF13C0DC
:10020800DAFF1C50166E176ADE50165CDE5017585F
:10021800D8A0B6D720EE15F01250D9261350DA22FE
:100228001C501CC014F0156A1426000E15220E501E
:1002380014260F5015220A0E1426000E15221450EB
:100248000C24E16E15500D20E26EE750036E1C5031
:100258001CC016F0176A1626000E17220E50162616
:100268000F501722090E1626000E172216500C24BE
:10027800E16E17500D20E26EE750B5EC43F0DF6EEB
:1002880012C0D9FF13C0DAFF10EE16F01250E126A3
:100298001350E222DFCFE7FF20EE02F01250D926FA
:1002A8001350DA22DECF14F0DDCF15F015C014F0AC
:1002B800156A20EE16F01250D9261350DA2214507F
:1002C800DF2620EE02F01250D9261350DA22DF5032
:1002D800146E20EE16F01250D9261350DA2214505C
:1002E800DF2620EE04F01250D9261350DA22DF5010
:1002F800146E20EE16F01250D9261350DA2214503C
:10030800DF26000E1C6E17D01C50010D050EF326BB
:10031800000EF422F3501224D96EF4501320DA6E32
:10032800DF50146E20EE16F01250D9261350DA2240
:100338001450DF261C2A12C0D9FF13C0DAFF1C5044
:10034800166E176ADE50165CDE501758D8A0DCD738
:1003580020EE15F01250D9261350DA22DF50146E11
:1003680020EE16F01250D9261350DA221450DF2648
:1003780020EE16F01250D9261350DA22DF50D8B4E6
:1003880009D0FE0E0C6EFF0E0D6EFF0E0E6EFF0EE8
:100398000F6E120020EE04F01250D9261350DA2204
:1003A800DE04D8A409D0000E0C6E000E0D6E000EEF
:1003B8000E6E000E0F6E12001C501CC014F0156A51
:1003C8001426000E15220B0E1424166E000E15208E
:1003D800176E186A17BE18061850196E16500E2692
:1003E80017500F221850102219501122010E0E26F4
:1003F800000E0F22102211220E500C24D96E0F501D
:100408000D20DA6E3A0EDE18D8A409D00EC00CF012
:100418000FC00DF010C00EF011C00FF01200010E49
:100428000E26000E0F22102211220E500C24D96E17
:100438000F500D20DA6E3A0EDE18D8A409D00EC07F
:100448000CF00FC00DF010C00EF011C00FF012002C
:10045800010E0E26000E0F22102211220E500C241F
:10046800D96E0F500D20DA6E3A0EDE18D8A409D0D6
:100478000EC00CF00FC00DF010C00EF011C00FF040
:100488001200FD0E0C6EFF0E0D6EFF0E0E6EFF0EAF
:100498000F6E1200B9D123EC19F00009D8A412008C
:1004A8000001E7691200C8EC0AF00009D8A412009C
:1004B8000001E7691200E205D8A402D0E76912003A
:1004C80012C1D4F013C1D3F0D3C00BF0D4C00CF0D8
:1004D8000D6A0E6AB6EC29F00009D8A41200000EC5
:1004E800026E240E016EBCEC33F0000E016E060E97
:1004F800026E4A0E036E8F0E046E03500410D8A4C9
:10050800000E056E000E076E240E066EF0EC3AF033
:10051800FD0E0001E76F1200E7C101F0E8C102F02B
:1005280001D80AD00500FA6E0101DB51FD6EDC51DD
:10053800FE6EFF6AFA50120001C043F002C044F098
:1005480003C045F004C046F0E7C101F0E8C102F07D
:1005580001D80AD00500FA6E0101DD51FD6EDE51A9
:10056800FE6EFF6AFA50120001C03FF002C040F070
:10057800416A426A26EE00F046C0DFFF26EE01F02F
:1005880045C0DFFF26EE02F044C0DFFF26EE03F091
:1005980043C0DFFF26EE04F042C0DFFF26EE05F081
:1005A80041C0DFFF26EE06F040C0DFFF26EE07F071
:1005B8003FC0DFFF000E0001D46F080ED36F000E9E
:1005C800026E080E016EBCEC33F0FD0E0001E76F01
:1005D8001200E205D8A402D0E7691200000ED46F19
:1005E800120ED36F000E026E120E016EBCEC33F0C9
:1005F800000E476E110E476401D014D04750010D0C
:100608001F0EF324D96E010EF420DA6E4750010D47
:10061800000EF324E16E060EF420E26EDFCFE7FF52
:10062800472AE8D7FD0E0001E76F1200030EE8CF56
:1006380000F6000EE8CF01F6E7C101F0E8C102F0CC
:1006480001D80AD00500FA6E0101E351FD6EE451AC
:10065800FE6EFF6AFA5012000009D8A404D0000EFA
:100668003D6E000E03D0000E3D6E800E3C6E26EEF1
:1006780002F03CC0DFFF000EE8CF03F6000E0001D9
:10068800D46F040ED36F000E026E040E016EBCEC24
:1006980033F0FD0E0001E76F120001012151F00B4C
:1006A8000509216F200E2B6F000E2C6F010E0D0116
:1006B8008C6F000E886F000E896F000E8A6F000E17
:1006C8008B6F0001E7691200000E0B6E000E0C6EB6
:1006D800000E0D6E000E0E6EB6EC29F00009D8A4BF
:1006E8001200010121510F0B060AD8A407D00D01F1
:1006F8008C05D8A403D00001E769120085EC3BF013
:10070800000E0D01886F000E896F000E8A6F000EB3
:100718008B6F0001E7691200000E0D01886F000E53
:10072800896F000E8A6F000E8B6F0001E769120057
:10073800D551D611D8B406D0D5C0D9FFD6C0DAFF66
:10074800DFBE120001010B510A11091104E1400E2C
:10075800085DD8A009D0400E3E6E400E085F000E1E
:10076800095B0A5B0B5B0AD008C13EF0000E086FFC
:10077800000E096F000E0A6F000E0B6F3E503A6EA6
:100788003B6A3A500001D35D3B50D459D8A005D0FC
:100798003E50D35F000ED45B1AD0000E476E13D0C4
:1007A800D351D411D8B404D0D307D8A0D4070AD0D1
:1007B8004750010D000EF324D96E060EF420DA6EB0
:1007C800000EDF6E472A3E50475CD8A0E9D7010EDD
:1007D800016E000E026E060E036E3EC004F0020E9D
:1007E800ECEC26F001C0D5F002C0D6F001010851AA
:1007F80009110A110B11D8A412000001E7691200AF
:100808007F0E69EC26F012000001E751000AD8B407
:100818005BD7030AD8B4DDD6110AD8B44CD6080A77
:10082800D8B404D7010AD8B477D7050AD8B435D7CD
:100838003B0AD8B471D60D0AD8B42DD6020AD8B45A
:1008480032D6050AD8B468D7D20AD8B471D7030A01
:10085800D7D7000E00019A6F000E996F000E8E6FA9
:10086800000E8F6F000E906F000E916FCF51D01158
:10087800D111D211D8A410D06E0E376E000E386E7A
:10088800FF51CFEC38F088C0F9F089C0FAF0000EBB
:100898000001F86F000EF76FCFC060F0D0C061F0B4
:1008A800D1C062F0D2C063F00001601F611F621FF7
:1008B800631F602B000E612362236323CB516025E5
:1008C800646FCC516121656FCD516221666FCE5145
:1008D8006321676F67516611651104E1320E645D2B
:1008E800D8A01FD0CFC038F0D0C039F0D1C03AF06E
:1008F800D2C03BF0320E3C6E000E3D6E000E3E6ED6
:10090800000E3F6E890E406E010E416EF90E426E6A
:10091800000E436EF70E446E000E456E10EC12F09A
:1009280034D0CFC038F0D0C039F0D1C03AF0D2C0FE
:100938003BF0CFC060F0D0C061F0D1C062F0D2C04F
:1009480063F00001601F611F621F631F602B000EB0
:10095800612362236323CB5160253C6ECC51612116
:100968003D6ECD5162213E6ECE5163213F6E890EA0
:10097800406E010E416EF90E426E000E436EF70E88
:10098800446E000E456E10EC12F0890E0C6E010ECE
:100998000D6E000E0E6E000E0F6E000E106E000E25
:1009A800116EBB0E126E010E136E10EC00F00CC02F
:1009B8008EF00DC08FF00EC090F00FC091F00101C5
:1009C800744B752BF10E00018E5DFF0E8F59FF0ED3
:1009D8009059FF0E9159D8A005D0500EBD6F500EFA
:1009E800BE6F12008E51CF278F51D0239051D12343
:1009F8009151D223FCD00101C051466F476B486B1F
:100A0800496B48C149F147C148F146C147F1466BB6
:100A1800C151461348C149F147C148F146C147F1A0
:100A2800466B48C149F147C148F146C147F1466B99
:100A380033D7DDC096F0000E0001DD6F0101BD5116
:100A480046250001926F0101BE5147210001936FB5
:100A5800000E010148210001946F000E0101492197
:100A68000001956F96519225016E000E9321026E3A
:100A7800000E9421036E000E9521046EC3EC43F022
:100A880001C06AF002C06BF0000196519225016E18
:100A9800000E9321026E000E9421036E000E952124
:100AA800046E965100080101BB25056E79EC2BF008
:100AB8000009D8A4F1D6000199519A11D8A410D0F0
:100AC8006AC099F06BC09AF099C016F09AC017F0F6
:100AD800FBEC3FF089EC44F001C068F002C069F01B
:100AE80096C097F00001986B5DD097519225016EE2
:100AF80098519321026E000E9421036E000E9521E9
:100B0800046EC3EC43F00001995101182AE19A518F
:100B18000218D8A426D097519225096E985193218E
:100B28000A6E000E94210B6E000E95210C6E99C072
:100B38000DF09AC00EF0B6EC3BF009C06CF00AC09C
:100B48006DF0C00E00019725D96E010E9821DA6E5E
:100B58006C516825E16E6D516921E26EDFCFE7FFC8
:100B68001ED08E51CF5F8F51D05B9051D15B915188
:100B7800D25B01017407D8A0750797C0DDF099C052
:100B880003F09AC004F064EC41F099C003F09AC0F5
:100B980004F0A0EC37F00101704B712B120000013A
:100BA800974B982B0101BB510001975D0101BC5186
:100BB80000019859D8B070D698D7000199519A1168
:100BC800D8B4120099C003F09AC004F064EC41F064
:100BD80099C003F09AC004F0A0EC37F00101704B03
:100BE800712B700E0001BD6F700EBE6F12000101F7
:100BF800BF51000AD8B41DD7010AD8B4DED7050AF8
:100C0800D8B4F9D649D62250211011E1800E205CC3
:100C1800D8B00DD01FC019F020C01AF01B6A1C6A8A
:100C280023C01DF024C01EF050EC2EF012001F044B
:100C3800E10E2058F50E2158050E2258D8A04CD0A8
:100C480023C011F024C012F01FC001F020C002F030
:100C580021C003F022C004F0100E056E270E066EA8
:100C6800000E076E000E086E1EEC37F001C013F080
:100C780002C014F0000E166E0A0E156E1CEC40F041
:100C8800050E2324116E000E2420126E1FC001F0E1
:100C980020C002F021C003F022C004F0100E056E3F
:100CA800270E066E000E076E000E086EBDEC3AF0B9
:100CB80001C013F002C014F0000E166E0A0E156E75
:100CC8001CEC40F020EE09F02350D9262450DA22FB
:100CD800200EDF6E090E1200225008E1810E1F5C03
:100CE800960E2058980E2158D8A04CD023C011F049
:100CF80024C012F01FC001F020C002F021C003F090
:100D080022C004F0100E056E270E066E000E076E48
:100D1800000E086E1EEC37F001C013F002C014F08C
:100D2800000E166E0A0E156E1CEC40F0040E2324FD
:100D3800116E000E2420126E1FC001F020C002F0B8
:100D480021C003F022C004F0100E056E270E066EB7
:100D5800000E076E000E086EBDEC3AF001C013F0ED
:100D680002C014F0000E166E0A0E156E1CEC40F050
:100D780020EE08F02350D9262450DA22200EDF6E08
:100D8800080E1200225008E1410E1F5C420E205846
:100D98000F0E2158D8A04CD023C011F024C012F057
:100DA8001FC001F020C002F021C003F022C004F0EF
:100DB800100E056E270E066E000E076E000E086EEA
:100DC8001EEC37F001C013F002C014F0000E166ECE
:100DD8000A0E156E1CEC40F0030E2324116E000E53
:100DE8002420126E1FC001F020C002F021C003F0C1
:100DF80022C004F0100E056E270E066E000E076E58
:100E0800000E086EBDEC3AF001C013F002C014F0F9
:100E1800000E166E0A0E156E1CEC40F020EE07F060
:100E28002350D9262450DA22200EDF6E070E120036
:100E3800225008E1A10E1F5C860E2058010E215891
:100E4800D8A04CD023C011F024C012F01FC001F06C
:100E580020C002F021C003F022C004F0100E056E7D
:100E6800270E066E000E076E000E086E1EEC37F099
:100E780001C013F002C014F0000E166E0A0E156EB3
:100E88001CEC40F0020E2324116E000E2420126E7A
:100E98001FC001F020C002F021C003F022C004F0FE
:100EA800100E056E270E066E000E076E000E086EF9
:100EB800BDEC3AF001C013F002C014F0000E166E3B
:100EC8000A0E156E1CEC40F020EE06F02350D926D1
:100ED8002450DA22200EDF6E060E120023C011F015
:100EE80024C012F01FC001F020C002F021C003F09E
:100EF80022C004F0100E056E270E066E000E076E57
:100F0800000E086E1EEC37F001C013F002C014F09A
:100F1800000E166E0A0E156E1CEC40F0010E23240E
:100F2800116E000E2420126E1FC001F020C002F0C6
:100F380021C003F022C004F0100E056E270E066EC5
:100F4800000E076E000E086EBDEC3AF001C013F0FB
:100F580002C014F0000E166E0A0E156E1CEC40F05E
:100F680020EE05F02350D9262450DA22200EDF6E19
:100F7800050E1200000E0001896F000E8A6F000E28
:100F88008B6F000E8C6FCF51D011D111D211D8A414
:100F980010D0680E376E000E386EFF51CFEC38F067
:100FA80082C0F9F083C0FAF0000E0001F86F000E5D
:100FB800F76FFF5109EC39F030C0CBF031C0CCF0FD
:100FC80032C0CDF033C0CEF0000E0001886F0F0E96
:100FD800886501D01200CFC060F0D0C061F0D1C0E8
:100FE80062F0D2C063F0601F611F621F631F602B35
:100FF800000E612362236323CB516025646FCC51BB
:101008006121656FCD516221666FCE516321676F93
:1010180067516611651104E1320E645DD8A01FD0D6
:10102800CFC038F0D0C039F0D1C03AF0D2C03BF0D0
:10103800320E3C6E000E3D6E000E3E6E000E3F6E90
:10104800890E406E010E416EF90E426E000E436E1F
:10105800F70E446E000E456E10EC12F034D0CFC07F
:1010680038F0D0C039F0D1C03AF0D2C03BF0CFC090
:1010780060F0D0C061F0D1C062F0D2C063F000016E
:10108800601F611F621F631F602B000E61236223B4
:101098006323CB5160253C6ECC5161213D6ECD510F
:1010A80062213E6ECE5163213F6E890E406E010E65
:1010B800416EF90E426E000E436EF70E446E000E3E
:1010C800456E10EC12F0890E0C6E010E0D6E000EBE
:1010D8000E6E000E0F6E000E106E000E116EBB0E1F
:1010E800126E010E136E10EC00F00CC089F00DC0EA
:1010F8008AF00EC08BF00FC08CF00101744B752B79
:10110800040EBF19D8A41CD0C051466F476B486B5A
:10111800496B48C149F147C148F146C147F1466B9F
:10112800C151461348C149F147C148F146C147F189
:10113800466B48C149F147C148F146C147F1466B82
:10114800BF51D8A45DD0BD51462500018D6F010166
:10115800BE51472100018E6F000E01014821000198
:101168008F6F000E010149210001906F01014E515E
:1011780000018D5D01014F5100018E59010150514F
:1011880000018F590101515100019059D8B008D080
:101198008DC04EF18EC04FF18FC050F190C051F10B
:1011A8008D5101014A5D00018E5101014B59000129
:1011B8008F5101014C590001905101014D59D8B08E
:1011C80008D08DC04AF18EC04BF18FC04CF190C051
:1011D8004DF18DC001F08EC002F08FC003F090C0B9
:1011E80004F0BBC105F079EC2BF0FF0AD8A408D0B5
:1011F8000B0E0001DE6F500EBD6F500EBE6F120059
:10120800000189518A118B118C11D8A427D074C17F
:1012180072F175C173F1000E0101756F000E746FE4
:10122800000E0001CF6F000ED06F000ED16F000EC0
:10123800D26F000E0101466F000E476F000E486F17
:10124800000E496F000E716F000E706F000E0001E6
:10125800DD6F400EBD6F400EBE6F1200F10E895D4E
:10126800FF0E8A59FF0E8B59FF0E8C59D8A007D054
:1012780089510F0BDE6F500EBD6F500EEDD789519F
:10128800CF278A51D0238B51D1238C51D223882B3D
:101298009ED6000E256E17D02550010DA40EF324FE
:1012A800F66E8D0EF420F76EF86A000EF8222550BF
:1012B800010D000EF324D96E020EF420DA6E080038
:1012C800F5CFDFFF252A2550010DA40EF324F66E75
:1012D8008D0EF420F76EF86A000EF8220800F5501B
:1012E8000009D8A4D9D7000E256E17D02550010DB6
:1012F8000E0EF324F66E8D0EF420F76EF86A000ECB
:10130800F8222550010D140EF324D96E020EF42094
:10131800DA6E0800F5CFDFFF252A2550010D0E0EE5
:10132800F324F66E8D0EF420F76EF86A000EF8229C
:101338000800F5500009D8A4D9D7000E256ED6D0DC
:101348002550010DD60EF324F66E8C0EF420F76EA0
:10135800F86A000EF8222550010D280EF324D96EE4
:10136800020EF420DA6E0800F5CFDFFF252A25509B
:10137800010DD60EF324F66E8C0EF420F76EF86A83
:10138800000EF8220800F5500009D8B4C0D0D8D70C
:101398002550010D040EF324F66E8E0EF420F76E20
:1013A800F86A000EF8222550010D280EF324D96E94
:1013B800020EF420DA6E0800F5CFDFFF252A25504B
:1013C800010D040EF324F66E8E0EF420F76EF86A03
:1013D800000EF8220800F5500009D8B498D0D8D7E4
:1013E8002550010D130EF324F66E8E0EF420F76EC1
:1013F800F86A000EF8222550010D280EF324D96E44
:10140800020EF420DA6E0800F5CFDFFF252A2550FA
:10141800010D130EF324F66E8E0EF420F76EF86AA3
:10142800000EF8220800F5500009D8B470D0D8D7BB
:101438002550010D310EF324F66E8E0EF420F76E52
:10144800F86A000EF8222550010D280EF324D96EF3
:10145800020EF420DA6E0800F5CFDFFF252A2550AA
:10146800010D310EF324F66E8E0EF420F76EF86A35
:10147800000EF8220800F5500009D8B448D0D8D793
:101488002550010DAE0EF324F66E8C0EF420F76E87
:10149800F86A000EF8222550010D280EF324D96EA3
:1014A800020EF420DA6E0800F5CFDFFF252A25505A
:1014B800010DAE0EF324F66E8C0EF420F76EF86A6A
:1014C800000EF8220800F5500009D8A4D9D7A7ECD7
:1014D80044F001C01FF002C020F0216A226A4A0EBF
:1014E800236E020E246E07EC06F011D0E0EC44F0F7
:1014F8000B0AD8B4DCD7070AD8B4B1D7010AD8B4D4
:1015080086D7030AD8B45BD7010AD8B430D7000EFF
:10151800256E17D02550010D6B0EF324F66E8E0E36
:10152800F420F76EF86A000EF8222550010D3C0EE3
:10153800F324D96E020EF420DA6E0800F5CFDFFF2F
:10154800252A2550010D6B0EF324F66E8E0EF4201D
:10155800F76EF86A000EF8220800F5500009D8A4C2
:10156800D9D7ACEC44F001C019F002C01AF01B6ADC
:101578001C6A2550010D3C0EF3241D6E020EF4204A
:101588001E6E50EC2EF0120046D111C15DF112C151
:101598005CF113C15BF114C15AF116C1D4F017C143
:1015A800D3F0D351306ED451316E326A336A090E9A
:1015B800D8903036313632363336E82EF9D730C047
:1015C8000BF031C00CF032C00DF033C00EF0B6ECA9
:1015D80029F00009D8A431D1E7C101F0E8C102F02F
:1015E80001D80AD00500FA6E0101E351FD6EE451FD
:1015F800FE6EFF6AFA5012000009D8B416D0010E28
:101608000D018C6F01012151F00B0709216F270E85
:101618002B6F000E2C6F000E016E020EDFEC24F013
:10162800000E0001E56FE5511200010E0001E86FA0
:10163800D351D411D8A402D0000E56D0030EE56FB2
:10164800000E0101826F060E836F000E0D01886F78
:10165800020E896F000E8A6F000E8B6F0D01885184
:1016680089118A118B11D8B41ED00001D751D81115
:10167800D8B406D0D7C0D9FFD8C0DAFFDFBEDDD0D6
:10168800000E016E82C102F083C103F0400E046EA9
:10169800020EECEC26F001C0D7F002C0D8F0040E20
:1016A8000001E56F23D0E7C101F0E8C102F001D8DD
:1016B8000AD00500FA6E0101E351FD6EE451FE6E99
:1016C800FF6AFA5012000009D8B40CD0010E0D01BF
:1016D8008C6F01012151F00B0209216F270E2B6F2E
:1016E800000E2C6F020E95D0E56FA7D0D751D811F8
:1016F800D8B406D0D7C0D9FFD8C0DAFFDFBE9DD096
:1017080020EE01F0D751D926D851DA22DF50306EB9
:1017180030C031F0326A336A346A31500101085FEF
:101728003250095B33500A5B34500B5B000120EEEA
:1017380001F0D751D926D851DA22DF50306E30C0A7
:1017480031F0326A336A346A31500D01885F3250A1
:10175800895B33508A5B34508B5B400E01018227D2
:10176800000E8323030E55D00D018C51D8A43BD015
:10177800E7C125F0E8C126F05AC127F05BC128F07F
:101788005CC129F05DC12AF0000E2B6E060E2C6E8E
:1017980001015A515B115C115D11D8A402D0010EF0
:1017A80001D0000E2D6E01D809D00500FA6EE55162
:1017B800FD6EE651FE6EFF6AFA501200E806D8B4D4
:1017C80012D0640E0001E46102D0E42B36D0010E81
:1017D8000D018C6F01012151F00B0309216F000EDF
:1017E8002B6F000E2C6F010E01015A27000E5B2390
:1017F8005C235D230001D307D8A0D407010E74D75A
:10180800020E0D018C6F000E016E020EDFEC24F04B
:10181800000E000169D70001E551000AD8B4B5D619
:10182800010AD8B405D7030AD8B49ED7010AD8B498
:1018380015D7070AD8B45AD7E3D70001E5511200E3
:101848000D013205D8A411D030511F0B0009D8A4BE
:101858000CD00001C28F030E0D013119D8A402D09B
:10186800010E01D0000E0001F36F0D013251D8A412
:10187800120030511F0B020AD8A4120034510F0B6A
:101888000009D8B4120034510F0B186E030E1860FB
:101898001200200E0001F619D8A41200C28F0D0103
:1018A80034BF19D034510F0B186E1850020D400E6A
:1018B800F324D96E010EF420DA6EDECF1CF0DDCFF2
:1018C8001DF034510F0B186E1850010D680EF324DB
:1018D800D96E010E18D034510F0B186E1850020D26
:1018E800C50EF324D96E000EF420DA6EDECF1CF09C
:1018F800DDCF1DF034510F0B186E1850010D6B0E13
:10190800F324D96E010EF420DA6EDF501B6E1BB083
:1019180006D0FB0E1C141C6EFF0E1D1404D0040E02
:101928001C101C6E1D501D6E34BF0AD034510F0B95
:10193800186E1850020D400EF324D96E010E09D00E
:1019480034510F0B186E1850020DC50EF324D96EC2
:10195800000EF420DA6E1CC0DEFF1DC0DDFF030E92
:101968003119D8A42DD01CC0D9FF1DC0DAFFDFAEB5
:101978001AD034BF0AD034510F0B186E1850010D0D
:10198800680EF324D96E010E0AD00D0134510F0BE5
:10199800186E1850010D6B0EF324D96E010EF42049
:1019A800DA6E0101DF821CC0D9FF1DC0DAFF000E0C
:1019B800DB841CC0D9FF1DC0DAFF000EDB8E1200CD
:1019C800040E1C181C6E1D501D6E1CC0D9FF1DC0B6
:1019D800DAFFDFAE1BD01CC0D9FF1DC0DAFF7F0EB7
:1019E800DF161CC0D9FF1DC0DAFF000EDB8C000E0D
:1019F800116E050E106E1CC012F01DC013F0000E03
:101A0800156E020E146EDBEC36F006D01CC0D9FF42
:101A18001DC0DAFF000EDB8C040E1C181C6E1D5056
:101A28001D6E1BB206D01CC0D9FF1DC0DAFFDFAE89
:101A380030D00D0134BF0AD034510F0B186E185036
:101A4800010D680EF324D96E010E0AD00D01345130
:101A58000F0B186E1850010D6B0EF324D96E010E82
:101A6800F420DA6E0101DF921CC0D9FF1DC0DAFF35
:101A78003B0EDF16000E116E050E106E1CC012F024
:101A88001DC013F0000E156E020E146EDBEC36F05E
:101A980006D01CC0D9FF1DC0DAFF3B0EDF160D01B2
:101AA80034510F0B186E1850010D260EF324196EC1
:101AB8000F0EF4201A6E19C0D9FF1AC0DAFFFE0EF5
:101AC800DF16120091D0EB0E12003C0E1200900EA1
:101AD8001200F20EF66E8F0EF76E000EF86E08000A
:101AE800F5501200F30EF66E8F0EF76EF86A0800C6
:101AF800F5501200F40EF66E8F0EF76EF86A0800B5
:101B0800F5501200F50EF66E8F0EF76EF86A0800A3
:101B1800F5501200F60EF66E8F0EF76EF86A080092
:101B2800F5501200F70EF66E8F0EF76EF86A080081
:101B3800F5501200F80EF66E8F0EF76EF86A080070
:101B4800F5501200F90EF66E8F0EF76EF86A08005F
:101B5800F5501200000E1200020E1200010E1200C3
:101B6800010E1200000E1200010E1200400E1200AB
:101B7800000E1200FF0E12001F0E1200F80E1200C7
:101B8800200E1200000E12003F0E1200000E12006E
:101B9800100E1200000E1200000E1200000E1200AD
:101BA800000E1200000E1200010E1200000E1200AC
:101BB800220E1200000E1200000E1200460E120035
:101BC800410E1200540E1200310E1200360E120091
:101BD800200E1200200E1200200E1200550E1200C8
:101BE800AA0E1200000E120001C003F002C004F099
:101BF8000450000AD8B404D0010AD8B48DD0F2D762
:101C08000350000AD8B45FD7010AD8B45ED7030AD4
:101C1800D8B45DD7010AD8B45CD7070AD8B462D75C
:101C2800010AD8B467D7030AD8B46CD7010AD8B464
:101C380071D70F0AD8B476D7010AD8B47BD7030A6C
:101C4800D8B480D7010AD8B485D7070AD8B484D7BE
:101C5800010AD8B483D7030AD8B482D7010AD8B402
:101C680081D71F0AD8B480D7010AD8B47FD7030A0E
:101C7800D8B47ED7010AD8B47DD7070AD8B47CD7A0
:101C8800010AD8B47BD7030AD8B47AD7010AD8B4E2
:101C980079D70F0AD8B478D7010AD8B477D7030A06
:101CA800D8B476D7010AD8B475D7070AD8B474D788
:101CB800010AD8B473D7030AD8B472D7010AD8B4C2
:101CC80071D7370AD8B470D7010AD8B46FD7050AC4
:101CD800D8B46ED7010AD8B46DD7030AD8B46CD774
:101CE800010AD8B469D7190AD8B468D7010AD8B490
:101CF80067D70F0AD8B466D7010AD8B465D7030ADC
:101D0800D8B464D7010AD8B463D7070AD8B462D75D
:101D1800010AD8B461D766D70350FE0AD8B45ED793
:101D2800010AD8B45DD75ED70001626F690E376EBD
:101D3800000E386E00016251CFEC38F083C063F0BA
:101D480084C064F03F500001855D40508659415081
:101D5800875942508859D8A0120043503F24476EF3
:101D680044504020486E000E4120496E000E42202B
:101D78004A6E4750855D48508659495087594A50A0
:101D88008859D8B00ED03FC047F040C048F0471E31
:101D9800481E474A482A85514724436E86514820A1
:101DA800446E000E896F000E8A6F000E8B6F000E56
:101DB8008C6F13D063C030F064C031F093EC3FF007
:101DC80030C063F031C064F0000E00018927020EB4
:101DD8008A23000E8B23000E8C2389C047F08AC00B
:101DE80048F08BC049F08CC04AF0471E481E491E77
:101DF8004A1E472A000E482249224A223F504724B9
:101E08004B6E405048204C6E415049204D6E425018
:101E18004A204E6E4E504D10CDE1020E4C5CD8B0AB
:101E2800C9D789C047F08AC048F0471E481E474AAC
:101E3800482A3F504724656F40504820666F000E7F
:101E4800896F000E8A6F000E8B6F000E8C6F89D021
:101E5800020E66196511D8A40FD063C030F064C0B3
:101E680031F093EC3FF030C063F031C064F0000E05
:101E78000001666F000E656F63C001F064C002F078
:101E880072EC44F001C060F002C061F065C047F038
:101E980066C048F0471E481E474A482A000E472495
:101EA8000001676F020E4820686F6751476E6851DE
:101EB800486E496A4A6A89C04BF08AC04CF08BC0A8
:101EC8004DF08CC04EF04B1E4C1E4D1E4E1E4B2A24
:101ED800000E4C224D224E2243504B244F6E44504C
:101EE8004C20506E000E4D20516E000E4E20526E4A
:101EF80047504F5C48505058495051584A505258D2
:101F0800D8B00ED089C047F08AC048F0471E481E96
:101F1800474A482A43504724676F44504820686F0F
:101F280060C020F061C021F065C022F066C023F0D7
:101F380067C024F068C025F089514524266E8A516F
:101F48004620276E7AEC39F00001675189276851DD
:101F58008A23000E8B23000E8C2367516527685156
:101F680066234350476E4450486E496A4A6A475050
:101F7800895D48508A5949508B594A508C59D8B074
:101F8800120066D7200E0001F619D8A4120017D146
:101F9800D751D811D8B406D0D7C0D9FFD8C0DAFFE6
:101FA800DFBE1200000E526E1E0E526401D014D015
:101FB8005250010D400EF324D96E0D0EF420DA6E46
:101FC8005250010D000EF324E16E010EF420E26E72
:101FD800DFCFE7FF522AE8D7000120EE01F0D75102
:101FE800D926D851DA221F0EDE18D8A472D0550E81
:101FF800010100196EE1530E01196BE1420E02193D
:1020080068E1430E0319D8A464D0010E0001E16F02
:1020180001010D51D8A452D0110E0E614FD00E51AE
:10202800D8B44CD00CC14DF03F0E4D16D8A446D0B4
:10203800550E0D01806F530E816F420E826F530E45
:10204800836F04C184FD05C185FD06C186FD07C1F6
:1020580087FD000E886F000E896F000E8A6F000ED4
:102068008B6F000E8C6F0001E769000EE66F000EA3
:10207800E56F000EE46F030E01010F19D8B408D004
:102088002191219321952197000E2B6F000E2C6F23
:102098000CAF02D0010E01D0020E0001E86F010161
:1020A800085109110A110B11D8B402D0000E01D041
:1020B800010E0001E26F0FC1E7F01200010E016E80
:1020C800020EDFEC24F0000E016E020EDFEC24F0AD
:1020D8001200010E016E020EDFEC24F0000E016EFC
:1020E800020EDFEC24F0000E0001E16F12004AEC52
:1020F80023F0FF0AD8A41200030E0001E86F1200B3
:102108004AEC23F0FF0AD8A412000D018C51D8A480
:1021180008D0885189118A118B11D8B402D0020EC7
:102128008C6F030E0001E86F1200C9C04EF0CAC0E0
:102138004FF04E504F10D8B40AD0C9C050F0CAC0A2
:1021480051F050C0D9FF51C0DAFFDFBE1200010EB6
:10215800016E800E026E0D0E036E0D0E046E020EE1
:10216800ECEC26F001C0D5F002C0D6F00001D75142
:10217800D811D8B406D0D7C0D9FFD8C0DAFFDFBE8F
:102188000FD0000E016E400E026E0D0E036E400E53
:10219800046E020EECEC26F001C0D7F002C0D8F0B5
:1021A800000E0001E86F1200000EE86F020E0D012C
:1021B8008C6F000E016E020EDFEC24F0120000019D
:1021C800E851000AD8B4E4D6010AD8B490D7030A73
:1021D800D8B496D7010AD8B4A8D7E6D70001666F55
:1021E8003F0E0001666501D01200665194EC38F08C
:1021F8000009D8A412006B0E376E000E386E00016D
:102208006651CFEC38F087C060F088C061F089C0B3
:1022180062F08AC063F0000160513F180AE1615121
:10222800401807E16251411804E163514218D8B4DB
:10223800120085C08DF086C08EF08D518E11D8A405
:102248000ED0000E316E000E306E97EC36F030C0B6
:102258008DF031C08EF08DC085F08EC086F0FF0EF7
:1022680000016025436E010E6121446E000E62215B
:10227800456E000E6321466E0A0E05D0D890463290
:10228800453244324332E82EF9D743C064F044C0A3
:1022980065F0FF0E3F24436E010E4020446E000E91
:1022A8004120456E000E4220466E0A0E05D0D89099
:1022B8004632453244324332E82EF9D743C069F0FA
:1022C80044C06AF06951645D6A516559D8B050D00C
:1022D800000E686F010E676F44D08DC030F08EC05D
:1022E80031F093EC3FF030C08BF031C08CF000013E
:1022F800695167190EE16A516819D8A40AD08DC0CE
:1023080029F08EC02AF0FF0E2C6E2B687EEC40F070
:1023180025D0F00E00018B5DFF0E8C59D8B004D08B
:102328008B518C11D8A416D0010E8D25306E000E5D
:102338008E21316E97EC36F030C08BF031C08CF0C6
:102348008DC029F08EC02AF08BC02BF08CC02CF0E9
:102358007EEC40F08BC08DF08CC08EF00001674B96
:10236800682B6751695D68516A59D8A045D0B5D7BF
:102378006451695D65516A59D8B03ED0000E686FE6
:10238800010E676F33D08DC030F08EC031F093EC02
:102398003FF030C08BF031C08CF000016951675DAF
:1023A8006A516859D8A01BD0695167190EE16A5162
:1023B8006819D8A40AD08DC029F08EC02AF0FF0E63
:1023C8002C6E2B687EEC40F00AD08DC029F08EC0B0
:1023D8002AF0000E2C6E000E2B6E7EEC40F08BC0A7
:1023E8008DF08CC08EF00001674B682B6751645DDF
:1023F80068516559D8B0C7D73FC087F040C088F04A
:1024080041C089F042C08AF06B0E296E000E2A6E18
:102418006651CDEC3CF0120044C0D9FF45C0DAFF4C
:10242800DECF46F0DDCF47F046C05AF047C05BF03C
:102438005C6A5D6A090ED8905A365B365C365D3642
:10244800E82EF9D75A50385C5B5039585C503A58E6
:102458005D503B58D8B023D0FF0E120042C0D9FFC0
:1024680043C0DAFFDECF30F0DDCF31F093EC3FF040
:1024780042C0D9FF43C0DAFF30C0DEFF31C0DDFF04
:1024880044C0D9FF45C0DAFFDE2A000EDD22000E67
:102498005A26020E5B22000E5C22000E5D225AC0F4
:1024A80046F05BC047F05CC048F05DC049F0461E8E
:1024B800471E481E491E462A000E47224822492226
:1024C800385046244A6E395047204B6E3A504820BF
:1024D8004C6E3B5049204D6E4D504C10BFE1020EE2
:1024E8004B5CD8B0BBD742C0D9FF43C0DAFFDECFC0
:1024F80054F0DDCF55F05AC046F05BC047F0461E99
:10250800471E464A472A38504624566E39504720B7
:10251800576E000E5A6E000E5B6E000E5C6E000E5B
:102528005D6E86D0020E57185610D8A40ED054C02F
:1025380030F055C031F093EC3FF030C054F031C06A
:1025480055F0000E576E000E566E54C001F055C07F
:1025580002F072EC44F001C052F002C053F056C0D1
:1025680046F057C047F0461E471E464A472A000E07
:102578004624586E020E4720596E5850466E5950E0
:10258800476E486A496A5AC04AF05BC04BF05CC063
:102598004CF05DC04DF04A1E4B1E4C1E4D1E4A2A83
:1025A800000E4B224C224D223C504A244E6E3D5088
:1025B8004B204F6E3E504C20506E3F504D20516E78
:1025C80046504E5C47504F58485050584950515803
:1025D800D8B00ED05AC046F05BC047F0461E471E22
:1025E800464A472A3C504624586E3D504720596E6B
:1025F80052C028F053C029F056C02AF057C02BF01B
:1026080058C02CF059C02DF05A5040242E6E5B5003
:1026180041202F6EFCEC41F058505A2659505B224D
:10262800000E5C22000E5D22585056265950572243
:102638003C505A5C3D505B583E505C583F505D588A
:10264800D8A070D7000E120000016C6F3F0E000179
:102658006C6501D012006C5194EC38F00009D8A4D4
:102668001200730E376E000E386E00016C51CFECFD
:1026780038F08FC062F090C063F091C064F092C0EF
:1026880065F08DC068F08EC069F0000E00016F6FB4
:10269800000E706F000E716F000E726F13D068C05D
:1026A80030F069C031F093EC3FF030C068F031C0D1
:1026B80069F0000E00016F27020E7023000E7123CF
:1026C800000E72236FC043F070C044F071C045F033
:1026D80072C046F0431E441E451E461E432A000E85
:1026E80044224522462262514324476E63514420C6
:1026F800486E64514520496E655146204A6E4A50DD
:102708004910CDE14704020E4858D8B0C8D76FC069
:1027180043F070C044F0431E441E434A442A6251A9
:1027280043246A6F635144206B6F000E6F6F000E75
:10273800706F000E716F000E726F6FD0020E6B1902
:102748006A11D8A426D0000E316E000E306E97ECB8
:1027580036F030C066F031C067F068C029F069C053
:102768002AF066C02BF067C02CF07EEC40F066C003
:1027780029F067C02AF0FF0E2C6E2B687EEC40F023
:1027880066C068F067C069F0000E00016B6F000E4C
:102798006A6F68C001F069C002F072EC44F001C0D1
:1027A80060F002C061F06AC043F06BC044F0431EA1
:1027B800441E434A442A000E432400016D6F020E52
:1027C80044206E6F6D513F5C6E514058D8B004D0B4
:1027D8003FC06DF040C06EF060C020F061C021F0D5
:1027E8006AC022F06BC023F06DC024F06EC025F0E3
:1027F8006F514124266E70514220276E7AEC39F0D1
:1028080000016D516F276E517023000E7123000E69
:1028180072236D516A276E516B233F50436E4050AF
:10282800446E456A466A43506F5D4450705945503E
:10283800715946507259D8A081D73F508F274050C0
:102848009023000E9123000E9223730E056E000E46
:10285800066EE3EC41F0730E296E000E2A6E00013D
:102868006C51CDEC3CF0120095C0D9FF96C0DAFF50
:10287800810EDF6E000120EE01F09551D9269651A8
:10288800DA22C10EDF6E20EE02F09551D92696515C
:10289800DA22250EDF6E20EE01F09351D9269451ED
:1028A800DA2210EE03F09551E1269651E222DFCFAD
:1028B800E7FF20EE01F09351D9269451DA2210EE69
:1028C80004F09551E1269651E222DFCFE7FF20EE92
:1028D80002F09351D9269451DA2210EE05F0955161
:1028E800E1269651E222DFCFE7FF20EE03F0935175
:1028F800D9269451DA2210EE06F09551E126965128
:10290800E222DFCFE7FF20EE04F09351D92694515D
:10291800DA2210EE07F09551E1269651E222DFCF38
:10292800E7FF20EE04F09351D9269451DA22DF50C4
:10293800976F9751A36FA46BA56BA66BA5C0A6F064
:10294800A4C0A5F0A3C0A4F0A36B20EE03F093519C
:10295800D9269451DA22DF50976F9751A313A5C057
:10296800A6F0A4C0A5F0A3C0A4F0A36B20EE02F0CB
:102978009351D9269451DA22DF50976F9751A313B8
:10298800A5C0A6F0A4C0A5F0A3C0A4F0A36B20EE38
:1029980001F09351D9269451DA22DF50976F97515D
:1029A800A31320EE01F09351D9269451DA22DF5077
:1029B80009EC39F030C09BF031C09CF032C09DF07A
:1029C80033C09EF0A3C097F0A4C098F0A5C099F0BA
:1029D800A6C09AF00001971F981F991F9A1F972B5E
:1029E800000E982399239A239B5197259F6F9C51FA
:1029F8009821A06F9D519921A16F9E519A21A26F94
:102A0800A251A111A01104E1370E9F5DD8A008D0F2
:102A1800360E9F6F000EA06F000EA16F000EA26F02
:102A280020EE08F09551D9269651DA229FC0DFFF93
:102A3800A3C060F0A4C061F0A5C062F0A6C063F0B6
:102A48009FC064F0A0C065F0A1C066F0A2C067F0A6
:102A58000A0E9525686F000E9621696F20EE01F029
:102A68009351D9269451DA22DF509FEC34F00001BB
:102A7800976F20EE09F09551D9269651DA2297C022
:102A8800DFFF1200000E266E000E256E020E265C79
:102A9800D8B010D0800E2524D96E030E2620DA6E09
:102AA80025C001F026C002F023EC2DF0DF6E254A88
:102AB800262AECD7000E216E000E206E800E226EA4
:102AC800030E236EFEEC3DF0000E266E000E256E02
:102AD800020E265CD8B010D0800E2524D96E030EC5
:102AE8002620DA6E25C001F026C002F066EC0DF053
:102AF800DF6E254A262AECD7000E216E010E206EC5
:102B0800800E226E030E236EFEEC3DF0000E266E44
:102B1800000E256E020E265CD8B010D0800E25243B
:102B2800D96E030E2620DA6E25C001F026C002F009
:102B380029EC3EF0DF6E254A262AECD7000E216EDE
:102B4800020E206E800E226E030E236EFEEC3DF008
:102B5800000E266E000E256E020E265CD8B00BD035
:102B6800800E2524D96E030E2620DA6E000EDF6E45
:102B7800254A262AF1D7000E266E030E256E26500A
:102B880011E1220E255CD8B00DD025C020F026C05A
:102B980021F0800E226E030E236EFEEC3DF0254AD6
:102BA800262AEDD7000E266E000E256E020E265C34
:102BB800D8B010D0800E2524D96E030E2620DA6EE8
:102BC80025C001F026C002F0D9EC1BF0DF6E254AC3
:102BD800262AECD7000E216E220E206E800E226E61
:102BE800030E236EFEEC3DF0000E266E000E256EE1
:102BF800020E265CD8B00BD0800E2524D96E030EA9
:102C08002620DA6E000EDF6E254A262AF1D7000E3E
:102C1800266E230E256E265011E1260E255CD8B0AF
:102C28000DD025C020F026C021F0800E226E030EA4
:102C3800236EFEEC3DF0254A262AEDD7000E266EBF
:102C4800000E256E020E265CD8B010D0800E25240A
:102C5800D96E030E2620DA6E25C001F026C002F0D8
:102C6800DEEC42F0DF6E254A262AECD7000E216EF4
:102C7800260E206E800E226E030E236EFEEC3DF0B3
:102C88001200000E256E17D02550010DF40EF32406
:102C9800F66E8D0EF420F76EF86A000EF8222550B5
:102CA800010D000EF324D96E020EF420DA6E08002E
:102CB800F5CFDFFF252A2550010DF40EF324F66E1B
:102CC8008D0EF420F76EF86A000EF8220800F55011
:102CD8000009D8A4D9D7000E256E17D02550010DAC
:102CE800620EF324F66E8E0EF420F76EF86A000E6C
:102CF800F8222550010D140EF324D96E020EF4208B
:102D0800DA6E0800F5CFDFFF252A2550010D620E87
:102D1800F324F66E8E0EF420F76EF86A000EF82291
:102D28000800F5500009D8A4D9D7000E1F6E000E70
:102D3800206E000E216E000E226E2550010D140E1D
:102D4800F324236E020EF420246E07EC06F02526E9
:102D58002550010D140EF324D96E020EF420DA6EFC
:102D68002E0EDF6E252A020E1F6E000E206E000E3C
:102D7800216E000E226E2550010D140EF324236ED1
:102D8800020EF420246E07EC06F025262550010DCE
:102D9800140EF324D96E020EF420DA6E2E0EDF6EB6
:102DA800252A010E1F6E000E206E000E216E000EE9
:102DB800226E2550010D140EF324236E020EF4200A
:102DC800246E07EC06F02526000E256E17D0255038
:102DD800010DA70EF324F66E8E0EF420F76EF86A36
:102DE800000EF8222550010D280EF324D96E020E8C
:102DF800F420DA6E0800F5CFDFFF252A2550010DF3
:102E0800A70EF324F66E8E0EF420F76EF86A000E05
:102E1800F8220800F5500009D8A4D9D7000E256E6D
:102E280017D02550010D220EF324F66E8E0EF420D5
:102E3800F76EF86A000EF8222550010D3C0EF324B7
:102E4800D96E020EF420DA6E0800F5CFDFFF252ACE
:102E58002550010D220EF324F66E8E0EF420F76E27
:102E6800F86A000EF8220800F5500009D8B41200DC
:102E7800D8D705C0D9FF06C0DAFF130EDF6E20EEE3
:102E880001F00550D9260650DA22C10EDF6E20EE79
:102E980002F00550D9260650DA22250EDF6E42ECE4
:102EA80044F001C00CF002C00DF003C00EF004C0E5
:102EB8000FF020EE03F00550D9260650DA220F5005
:102EC800DF6E20EE04F00550D9260650DA220EC037
:102ED800DFFF20EE05F00550D9260650DA220D5006
:102EE800DF6E20EE06F00550D9260650DA220CC017
:102EF800DFFFACEC44F001C010F002C011F020EE8E
:102F080007F00550D9260650DA221150DF6E20EE60
:102F180008F00550D9260650DA2210C0DFFFB6ECBB
:102F280044F001C010F002C011F020EE09F0055085
:102F3800D9260650DA221150DF6E20EE0AF005502D
:102F4800D9260650DA2210C0DFFF20EE0BF005501C
:102F5800D9260650DA22E0EC44F0DF6EB1EC44F0FA
:102F680001C010F002C011F020EE0CF00550D92677
:102F78000650DA221150DF6E20EE0DF00550D926EA
:102F88000650DA2210C0DFFFA2EC44F001C010F0B6
:102F980002C011F020EE0EF00550D9260650DA22B4
:102FA8001150DF6E20EE0FF00550D9260650DA22B8
:102FB80010C0DFFFA7EC44F001C010F002C011F010
:102FC80020EE10F00550D9260650DA221150DF6E97
:102FD80020EE11F00550D9260650DA2210C0DFFF86
:102FE80020EE12F00550D9260650DA22D4EC44F02F
:102FF800DF6E20EE13F00550D9260650DA22DAECFF
:1030080044F0DF6E20EE14F00550D9260650DA227F
:10301800D7EC44F0DF6EA2EC44F001500A6E2B0EA0
:103028000A6402D02B0E0A6E000E0B6E14D00B50E1
:103038001AEC44F0076E0B50086E096A150E082644
:10304800000E092208500524D96E09500620DA6EB0
:1030580007C0DFFF0B2A0A500B5CD8B01200E7D775
:10306800000E286E17D02850010DD40EF324F66EEA
:103078008D0EF420F76EF86A000EF8222850010D24
:10308800000EF324D96E020EF420DA6E0800F5CF94
:10309800DFFF282A2850010DD40EF324F66E8D0E7A
:1030A800F420F76EF86A000EF8220800F5500009BF
:1030B800D8A4D9D7000E286E17D02850010DE90ED4
:1030C800F324F66E8C0EF420F76EF86A000EF822E0
:1030D8002850010D140EF324D96E020EF420DA6E76
:1030E8000800F5CFDFFF282A2850010DE90EF32448
:1030F800F66E8C0EF420F76EF86A000EF8220800BF
:10310800F5500009D8A4D9D7000E286E17D028503A
:10311800010D980EF324F66E8E0EF420F76EF86A01
:10312800000EF8222850010D280EF324D96E020E45
:10313800F420DA6E0800F5CFDFFF282A2850010DA9
:10314800980EF324F66E8E0EF420F76EF86A000ED1
:10315800F8220800F5500009D8A4D9D728C027F0CC
:1031680042EC44F001C01FF002C020F003C021F07F
:1031780004C022F02850010D280EF324236E020EFD
:10318800F420246E07EC06F02726000E286E1CD0CB
:103198002850010D910EF324F66E8E0EF420F76E72
:1031A800F86A000EF822285027C025F0266A25263E
:1031B800000E2622280E2524D96E020E2620DA6E4D
:1031C8000800F5CFDFFF282A2850010D910EF324BF
:1031D800F66E8E0EF420F76EF86A000EF8220800DC
:1031E800F5500009D8A4D4D7000E286E17D028505F
:1031F800010D200EF324F66E8D0EF420F76EF86A9A
:10320800000EF8222850010D3C0EF324D96E020E50
:10321800F420DA6E0800F5CFDFFF282A2850010DC8
:10322800200EF324F66E8D0EF420F76EF86A000E69
:10323800F8220800F5500009D8B41200D8D7D7D022
:1032480011C15DF112C15CF113C15BF114C15AF1F6
:1032580016C1D4F017C1D3F0D351366ED451376E9E
:10326800386A396A090ED8903636373638363936DC
:10327800E82EF9D736C00BF037C00CF038C00DF087
:1032880039C00EF0B6EC29F00009D8A4C2D0010E5E
:103298000001E66FD351D411D8A402D0000E46D055
:1032A800D307D8A0D407020EE66FD551D611D8B4EB
:1032B80006D0D5C0D9FFD6C0DAFFDFBEAAD0E7C195
:1032C8002CF0E8C12DF05AC12EF05BC12FF05CC183
:1032D80030F05DC131F0000E326E060E336E01D84B
:1032E8000AD00500FA6E0101E151FD6EE251FE6E51
:1032F800FF6AFA501200E806D8B41AD0640E00012A
:10330800E46102D0E42B85D0020E0D018C6F01011F
:103318002151F00B0309216F000E2B6F000E2C6F4B
:10332800010E016E020EDFEC24F05ED0E66F71D064
:10333800010E01015A27000E5B235C235D23000E5A
:103348000D01886F020E896F000E8A6F000E8B6F59
:10335800000E0101826F060E836F030E0001E66FF7
:103368000D01885189118A118B11D8A402D0010E40
:103378003CD0040E0001E66FD551D611D8B406D062
:10338800D5C0D9FFD6C0DAFFDFBE43D0010E016E2B
:1033980082C102F083C103F0400E046E020EECEC11
:1033A80026F001C0D5F002C0D6F0030E0001E66F8A
:1033B800400E0101085F000E095B0A5B0B5B400EC3
:1033C8000D01885F000E895B8A5B8B5B400E0101F3
:1033D8008227000E83231DD0020E0D018C6F010E73
:1033E800016E020EDFEC24F0000E00019FD70001F1
:1033F800E651000AD8B424D7010AD8B44BD7030A37
:10340800D8B453D7010AD8B4ABD7070AD8B4B4D7BD
:10341800E3D70001E6511200000E1F6E17D01F50AF
:10342800010D940EF324F66E8D0EF420F76EF86AF3
:10343800000EF8221F50010D000EF324D96E020E63
:10344800F420DA6E0800F5CFDFFF1F2A1F50010DA8
:10345800940EF324F66E8D0EF420F76EF86A000EC3
:10346800F8220800F5500009D8A4D9D7000E1F6E1D
:1034780017D01F50010DFC0EF324F66E8C0EF420AD
:10348800F76EF86A000EF8221F50010D140EF3248F
:10349800D96E020EF420DA6E0800F5CFDFFF1F2A7E
:1034A8001F50010DFC0EF324F66E8C0EF420F76EFF
:1034B800F86A000EF8220800F5500009D8A4D9D7F8
:1034C800000E1F6E17D01F50010D830EF324F66EE9
:1034D8008E0EF420F76EF86A000EF8221F50010DC8
:1034E800280EF324D96E020EF420DA6E0800F5CF08
:1034F800DFFF1F2A1F50010D830EF324F66E8E0E78
:10350800F420F76EF86A000EF8220800F55000095A
:10351800D8A4D9D7ACEC44F001C019F002C01AF015
:103528001B6A1C6A1F50010D280EF3241D6E020E23
:10353800F4201E6E50EC2EF01F261F50010D280E91
:10354800F324D96E020EF420DA6E2F0EDF6E1F2AD6
:10355800B6EC44F001C019F002C01AF01B6A1C6AEC
:103568001F50010D280EF3241D6E020EF4201E6E4E
:1035780050EC2EF0000E1F6E17D01F50010D840E58
:10358800F324F66E8D0EF420F76EF86A000EF8221A
:103598001F50010D3C0EF324D96E020EF420DA6E92
:1035A8000800F5CFDFFF1F2A1F50010D840EF324FA
:1035B800F66E8D0EF420F76EF86A000EF8220800F9
:1035C800F5500009D8A4D9D7B1EC44F001C019F0DE
:1035D80002C01AF01B6A1C6A1F50010D3C0EF3242E
:1035E8001D6E020EF4201E6E50EC2EF0120044C028
:1035F80030F045C031F046C032F047C033F074ECCB
:103608002FF0FF0AD8A412004FEC43F00001646FBA
:103618006429D8B4120048C04CF049C04DF04AC0E3
:103628004EF04BC04FF00A0E05D0D8904F324E32B4
:103638004D324C32E82EF9D7010E4C24656F000E3E
:103648004D20666F65C030F066C031F0C4EC35F0CF
:1036580000016551301805E166513118D8A41200EF
:1036680001D01200000E316E020E306E97EC36F06B
:1036780030C067F031C068F0690E016E000E026E4E
:1036880044C003F045C004F003500410D8A4200E31
:10369800056E000E076E080E066EF0EC3AF0710E1D
:1036A800016E000E026E46C003F047C004F00350DE
:1036B8000410D8A4200E056E000E076E030E066EC9
:1036C800F0EC3AF0000E0001746F000E756F000EFA
:1036D800766FBBEC44F001C077F002C078F0C0EC24
:1036E80044F001C079F002C07AF079C07BF07AC06A
:1036F8007CF0000E00017E6F000E7D6F77C07FF0BA
:1037080078C080F079C081F07AC082F067C083F019
:1037180068C084F048C085F049C086F04AC087F088
:103728004BC088F0690E296E000E2A6E6451CDECEC
:103738003CF0000E0001636F010E626F2FD06551DF
:1037480062190EE166516319D8A40AD067C029F03E
:1037580068C02AF0FF0E2C6E2B687EEC40F01BD060
:10376800010E00016725306E000E6821316E97EC5E
:1037780036F030C060F031C061F067C029F068C031
:103788002AF060C02BF061C02CF07EEC40F060C0E5
:1037980067F061C068F00001624B632B6251655DA0
:1037A80063516659D8A01200CAD702501DE1200EF5
:1037B800015CD8B019D0025010E10B0E015CD8B0F2
:1037C8000CD0DD0E0124F66E8F0E0220F76EF86A1B
:1037D800000EF8220800F55012000B0E0118021016
:1037E800D8A402D0080E1200025003E1400E015C7A
:1037F800D8B0A4D0200E015E000E025A025010E18B
:10380800080E015CD8B00CD0E90E0124F66E8F0EBC
:103818000220F76EF86A000EF8220800F550120030
:10382800025046E10B0E015CD8B042D0F80E036E90
:10383800FF0E046E01C005F002C006F00350052615
:1038480004500622FB0E0524F66E8F0E0620F76E36
:10385800F86A000EF8220800F5501200200E120037
:10386800060E1200280E1200780E1200DE0E12004C
:10387800380E12005F0E12004B0E1200000E1200DE
:10388800000E1200040E1200770E1200DE0E120057
:10389800380E1200020E1200000E12000C0E12005A
:1038A800000E1200000E1200000E1200000E120090
:1038B80001C003F002C004F00450000AD8A4F6D7EF
:1038C80003500B0AD8B4CAD7060AD8B4C9D7030A12
:1038D800D8B4C8D7010AD8B4C7D71F0AD8B4C6D72E
:1038E800010AD8B4C5D7030AD8B4C4D7010AD8B4D2
:1038F800C3D7070AD8B4C2D7010AD8B4C1D7030AB4
:10390800D8B4C0D7010AD8B4BFD70F0AD8B4BED725
:10391800010AD8B4BDD7030AD8B4BCD7010AD8B4B1
:10392800BBD7070AD8B4BAD7010AD8B4B9D7030A9B
:10393800D8B4B8D7010AD8B4B7D7B8D7000E120090
:103948000001F651D8A412D0000E656E000E0F01CA
:10395800366F160E396F9F0E376F7B0E366F01D09C
:10396800658665A6FDD7010E0001F66FF605D8B489
:1039780065BA0AD0000E626E000E0F01366F3681EE
:103988003689020E0001F66F62A406D00F0136A533
:1039980003D0629413EC41F065A202D0A198120002
:1039A80062A009D00F0136A106D03FEC20F0040E2A
:1039B8000001F66F629062A804D00F0136B92EECB0
:1039C80042F062AC1CD00F0136AD0ED0000E116E65
:1039D800730E106E000E126E000E136E000E156E32
:1039E800010E146EDBEC36F0629C83EC43F00001B0
:1039F800EF51D8A4EF07EF51D8B4EEEC2DF062AA3E
:103A080004D00F0136BBB7EC3FF062A212D00F0111
:103A180036A30FD07F0E116E1068000E126E000EC6
:103A2800136E000E156E010E146EDBEC36F0000EF0
:103A3800636E040E0001F66102D0A19812000F0116
:103A480036A73CD0000E206E030E206401D036D07D
:103A580062A634D064CFFDF00001FD31E832E832CF
:103A68000F0BF16F6296FDB507D0F151010D680E8D
:103A7800F324D96E010E07D00001F151010D6B0E30
:103A8800F324D96E010EF420DA6E0101DF70000113
:103A9800F151D8A403D088EC30F00ED0000E116E8E
:103AA800720E106EFD0E126E000E136E000E156E65
:103AB800000E146EDBEC36F0202AC6D7A19812004F
:103AC800000E226E17D02250010DB40EF324F66EAC
:103AD8008D0EF420F76EF86A000EF8222250010DC0
:103AE800000EF324D96E020EF420DA6E0800F5CF2A
:103AF800DFFF222A2250010DB40EF324F66E8D0E3C
:103B0800F420F76EF86A000EF8220800F550000954
:103B1800D8A4D9D7000E226E17D02250010D990EC5
:103B2800F324F66E8C0EF420F76EF86A000EF82275
:103B38002250010D140EF324D96E020EF420DA6E11
:103B48000800F5CFDFFF222A2250010D990EF32439
:103B5800F66E8C0EF420F76EF86A000EF822080054
:103B6800F5500009D8A4D9D7B6EC44F001C019F033
:103B780002C01AF01B6A1C6A280E1D6E020E1E6E09
:103B880050EC2EF0216E212A000E226E1CD02250FD
:103B9800010D730EF324F66E8E0EF420F76EF86A9C
:103BA800000EF822225021C01FF0206A1F26000EA6
:103BB8002022280E1F24D96E020E2020DA6E08005B
:103BC800F5CFDFFF222A2250010D730EF324F66E83
:103BD8008E0EF420F76EF86A000EF8220800F550F1
:103BE8000009D8A4D4D7000E226E17D02250010D98
:103BF800320EF324F66E8D0EF420F76EF86A000E7E
:103C0800F8222250010D3C0EF324D96E020EF42046
:103C1800DA6E0800F5CFDFFF222A2250010D320E9E
:103C2800F324F66E8D0EF420F76EF86A000EF82273
:103C38000800F5500009D8B41200D8D7000E1F6E3E
:103C480017D01F50010D740EF324F66E8D0EF4205C
:103C5800F76EF86A000EF8221F50010D000EF324CB
:103C6800D96E020EF420DA6E0800F5CFDFFF1F2AA6
:103C78001F50010D740EF324F66E8D0EF420F76EAE
:103C8800F86A000EF8220800F5500009D8A4D9D720
:103C9800000E1F6E17D01F50010D9F0EF324F66EF5
:103CA8008E0EF420F76EF86A000EF8221F50010DF0
:103CB800140EF324D96E020EF420DA6E0800F5CF44
:103CC800DFFF1F2A1F50010D9F0EF324F66E8E0E84
:103CD800F420F76EF86A000EF8220800F550000983
:103CE800D8A4D9D7000E1F6E17D01F50010D640E2F
:103CF800F324F66E8D0EF420F76EF86A000EF822A3
:103D08001F50010D280EF324D96E020EF420DA6E2E
:103D18000800F5CFDFFF1F2A1F50010D640EF324A2
:103D2800F66E8D0EF420F76EF86A000EF822080081
:103D3800F5500009D8A4D9D7B1EC44F001C019F066
:103D480002C01AF01B6A1C6A1F50010D280EF324CA
:103D58001D6E020EF4201E6E50EC2EF0000E1F6E2B
:103D680017D01F50010D540EF324F66E8D0EF4205B
:103D7800F76EF86A000EF8221F50010D3C0EF3246E
:103D8800D96E020EF420DA6E0800F5CFDFFF1F2A85
:103D98001F50010D540EF324F66E8D0EF420F76EAD
:103DA800F86A000EF8220800F5500009D8B412008D
:103DB800D8D7040084EC44F001C0B5F002C0B6F0D6
:103DC8007FEC44F001C0B7F002C0B8F0B7C0B1F062
:103DD800B8C0B2F004EC44F016EC3CF00009D8B4DA
:103DE80004D053EC44F0D1EC44F045EC3CF0000E28
:103DF8007FEC3EF03FEC20F00400A4EC1CF02FEC2C
:103E080044F033EC31F04AEC41F083A439D06ACF66
:103E1800B3F00001B46BB351B46FB36B6B50B31311
:103E2800B307D8A0B4077FEC44F001500001B35F9A
:103E38000250B45BB351B411D8B422D08890B5C045
:103E4800A7F0B6C0A8F0B7C0A9F0B8C0AAF0E6ECD1
:103E580020F0B5C093F0B6C094F0B3C095F050EC24
:103E68002CF00001B8516A6EB7C06BFFB651686E8E
:103E7800B5C069FF000E666E3F0E676EA49E88800F
:103E88000001BC51D8A4B8D763EC25F025D0000EAA
:103E980023EC3BF043D0010E23EC3BF03FD0020E65
:103EA80023EC3BF03BD0030E23EC3BF037D0040E61
:103EB80023EC3BF033D0050E23EC3BF02FD0000170
:103EC800BE51BAEC2CF02AD0DDEC44F0050AD8A497
:103ED80025D0E9EC39F022D00001BB51070BAF6FB8
:103EE800B06BB051000AD8A419D0AF51000AD8B4A9
:103EF800CED7010AD8B4CFD7030AD8B4D0D7010A8D
:103F0800D8B4D1D7070AD8B4D2D7010AD8B4D3D7EE
:103F1800030AD8B4D4D7010AD8B4D6D7010E000101
:103F2800BC6F6AD7000E016E17D00150010DE40E68
:103F3800F324F66E8D0EF420F76EF86A000EF82260
:103F48000150010D000EF324D96E020EF420DA6E32
:103F58000800F5CFDFFF012A0150010DE40EF3241C
:103F6800F66E8D0EF420F76EF86A000EF82208003F
:103F7800F5500009D8A4D9D7000E016E17D001500A
:103F8800010D430EF324F66E8D0EF420F76EF86AD9
:103F9800000EF8220150010D140EF324D96E020E02
:103FA800F420DA6E0800F5CFDFFF012A0150010D79
:103FB800430EF324F66E8D0EF420F76EF86A000EA9
:103FC800F8220800F5500009D8A4D9D7000E016ED0
:103FD80017D00150010DC20EF324F66E8C0EF4209A
:103FE800F76EF86A000EF8220150010D280EF3242E
:103FF800D96E020EF420DA6E0800F5CFDFFF012A31
:104008000150010DC20EF324F66E8C0EF420F76EEB
:10401800F86A000EF8220800F5500009D8A4D9D78C
:10402800000E016E17D00150010D590EF324F66EE3
:104038008E0EF420F76EF86A000EF8220150010D7A
:104048003C0EF324D96E020EF420DA6E0800F5CF88
:10405800DFFF012A0150010D590EF324F66E8E0E72
:10406800F420F76EF86A000EF8220800F5500009EF
:10407800D8B41200D8D7A098000E636E000E626EF6
:10408800000E0F01266F270E016E0F0E026E000E36
:10409800046E000E036E000E066E020E056E89ECAD
:1040A80042F0160E0F01396F9F0E376F7B0E366F79
:1040B800000E096E0B0E096401D00ED00950040DD4
:1040C800000EF324D96E0D0EF420DA6EDE6ADE6A75
:1040D800DE6ADD6A092AEED7658C000E0F01386F9B
:1040E8006598659C6296000E0001C26F000E010182
:1040F800346F000E366F000E356F62B6F3D7010EBF
:104108000001ED6F010EEC6F000EEB6F000EEA6F11
:10411800000EF26F000E096E020E096401D02ED057
:104128000950020DC50EF324D96E000EF420DA6E84
:10413800000EDE6E000EDD6E0950020D400EF324F7
:10414800D96E010EF420DA6E000EDE6E000EDD6E02
:104158000950010D6B0EF324D96E010EF420DA6EAE
:10416800000EDF6E0950010D680EF324D96E010EA2
:10417800F420DA6E000EDF6E092ACED7080E000191
:10418800C56F0D0EC66F160E0F01266F0D0E0D01B1
:10419800036F300E026F080E016F040E006F008F60
:1041A800000E0001FE6F000E01015E6F000E5F6FD2
:1041B800000E606F000E616F000E0001E96F000EC7
:1041C800F66F1200A7C0D9FFA8C0DAFFDF505E6EF5
:1041D8007F0E5E6488D031D0A7C03FF0A8C040F001
:1041E800A9C041F0AAC042F0B2EC39F01200A7C051
:1041F80044F0A8C045F0A9C046F0AAC047F02CEC8E
:1042080032F01200A7C093F0A8C094F0A9C095F0AE
:10421800AAC096F038EC14F01200A9C0D9FFAAC0C1
:10422800DAFF990EDF6E000120EE01F0A951D926C0
:10423800AA51DA22990EDF6E12005E50800AD8B4B5
:10424800CBD7010AD8B4D3D7030AD8B4DBD7E5D77C
:10425800A9C015F0AAC016F027EC2AF01200A9C0D0
:1042680005F0AAC006F0000E076ED4EC2FF012007D
:10427800A9C005F0AAC006F0010E076ED4EC2FF015
:104288001200A9C005F0AAC006F03DEC17F0120014
:10429800A9C001F0AAC002F06DEC33F01200A9C069
:1042A80001F0AAC002F0A7C003F0A8C004F00350B0
:1042B8000410D8A4200E056E000E076E400E066E80
:1042C800F0EC3AF01200A9C0D9FFAAC0DAFF990EA3
:1042D800DF6E000120EE01F0A951D926AA51DA2299
:1042E800990EDF6E12005E50100AD8B4B1D7010AD9
:1042F800D8B4B5D7030AD8B4BBD7010AD8B4C1D744
:10430800070AD8B4C5D7340AD8B4C9D7DCD7800EC1
:104318000D013019D8A41200C00E0001C26F88D058
:10432800A50E0001BF6F8F0EC06F000EC46F120E76
:10433800C36F12000D013251D8A443D03251020D7F
:10434800A50EF324F66E8E0EF420F76EF86A000EB2
:10435800F8220900F5CFBFF00A00F5CFC0F0020E31
:104368000001BF25016E000EC021026E01C0F6FFDC
:1043780002C0F7FFF86A0E0EF76403D00800F55084
:1043880005D0F6CFE9FFF7CFEAFFEF500001C36F82
:10439800030EBF25016E000EC021026E01C0F6FF9C
:1043A80002C0F7FFF86A0E0EF76403D00800F55054
:1043B80005D0F6CFE9FFF7CFEAFFEF500001C46F51
:1043C8001200000E0001C26F1200040E0D013261CE
:1043D80027D03251020D7B0EF324F66E8E0EF42098
:1043E800F76EF86A000EF8220900F5CFBFF00A0050
:1043F800F5CFC0F0BFC0F6FFC0C0F7FFF86A0E0ED9
:10440800F76403D00800F55005D0F6CFE9FFF7CFE1
:10441800EAFFEF50016E01500001C36FC46B120038
:10442800000E0001C26F1200000E0001C26F1200E0
:104438000D013351010AD8B473D7030AD8B47AD717
:10444800010AD8B4C2D7F0D7000E216E17D0215078
:10445800010DC40EF324F66E8D0EF420F76EF86A83
:10446800000EF8222150010D000EF324D96E020E21
:10447800F420DA6E0800F5CFDFFF212A2150010D64
:10448800C40EF324F66E8D0EF420F76EF86A000E53
:10449800F8220800F5500009D8A4D9D7000E216EDB
:1044A80017D02150010D4C0EF324F66E8E0EF42019
:1044B800F76EF86A000EF8222150010D140EF3244D
:1044C800D96E020EF420DA6E0800F5CFDFFF212A3C
:1044D8002150010D4C0EF324F66E8E0EF420F76E6B
:1044E800F86A000EF8220800F5500009D8A4D9D7B8
:1044F800000E216E17D02150010D8A0EF324F66E9E
:104508008E0EF420F76EF86A000EF8222150010D85
:10451800280EF324D96E020EF420DA6E0800F5CFC7
:10452800DFFF212A2150010D8A0EF324F66E8E0E2C
:10453800F420F76EF86A000EF8220800F55000091A
:10454800D8A4D9D7ACEC44F001C019F002C01AF0D5
:104558001B6A1C6A21501F6E206A010E1F26000E5E
:104568002022280E1F241D6E020E20201E6E50ECE5
:104578002EF01200000120EE01F0DB51D926DC51AB
:10458800DA22DF50026E02500101355D000E365905
:10459800D8A035C102F00250355F000E365B000E20
:1045A800016E11D00150010D380EF324D96E0D0E95
:1045B800F420DA6E31C1E1FF32C1E2FFDFCFE7FF5D
:1045C800314B322B012A0250015CD8A0EBD7355170
:1045D8003611D8B433D0000120EE01F0D951D926D4
:1045E800DA51DA22080EDF6E20EE02F0D951D92610
:1045F800DA51DA22380EDE6E0D0EDD6EDBC0D9FF21
:10460800DCC0DAFFDFBC0DD0D9C0D9FFDAC0DAFFD1
:10461800480EDF6ED9C0D9FFDAC0DAFF000EDB8E94
:104628001200D9C0D9FFDAC0DAFF080EDF6ED9C090
:10463800D9FFDAC0DAFF000EDB8E1200000120EE8F
:1046480001F0D951D926DA51DA22080EDF6E20EEB0
:1046580002F0D951D926DA51DA22300EDE6E0D0E6B
:10466800DD6ED9C0D9FFDAC0DAFF040EDF6ED9C01B
:10467800D9FFDAC0DAFF000EDB8E0101349F00019A
:10468800EE51D8A41200EEEC2DF01200E7C101F0B3
:10469800E8C102F001D80AD00500FA6E0101DF5125
:1046A800FD6EE051FE6EFF6AFA5012000009D8B4A0
:1046B8000CD001010D51010DE30EF324D96E000E4B
:1046C800F420DA6EDE04D8A419D00DC148F0010E2A
:1046D800496E000E4A6E482A03D0D89049364A36A9
:1046E800482EFBD7491C4B6E4A1C4C6E4B5001019F
:1046F8007E174C507F1754EC3BF04ED00DC148F05C
:10470800010E496E000E4A6E482A03D0D8904936E9
:104718004A36482EFBD701017E5149167F514A1669
:1047280049504A10D8A436D0E7C101F0E8C102F0D8
:1047380001D809D00500FA6ED951FD6EDA51FE6E26
:10474800FF6AFA50120001500210D8B420D00DC1EF
:1047580048F0010E496E000E4A6E482A03D0D890E0
:1047680049364A36482EFBD7495001017E134A5034
:104778007F132151F00B0609216F280E2B6F000EB5
:104788002C6F010E0D018C6F4EEC02F005D054EC2D
:104798003BF002D04EEC02F00001E751120053C08A
:1047A800D9FF54C0DAFF550EDE18D8A414D020EE75
:1047B80007F05350D9265450DA220F0EDE18D8A429
:1047C8000AD020EE08F05350D9265450DA229B0E16
:1047D800DE18D8B402D0410E120020EE06F0535075
:1047E800D9265450DA22DF50556E5550566E576A06
:1047F80020EE02F05350D9265450DA22DF50556E7D
:104808005550586E596A5A6A5B6A5AC05BF059C06B
:104818005AF058C059F0586A20EE03F05350D92680
:104828005450DA22DF50556E555058125AC05BF07A
:1048380059C05AF058C059F0586A20EE04F0535045
:10484800D9265450DA22DF50556E555058125AC0A6
:104858005BF059C05AF058C059F0586A20EE05F07C
:104868005350D9265450DA22DF50556E55505812FD
:1048780058C03FF059C040F05AC041F05BC042F008
:1048880056C043F057C044F0090E5324456E000E3D
:104898005420466E20EE01F05350D9265450DA22A7
:1048A800DF5098EC0EF05650090F1200016E7BD0C5
:1048B8008C849594958483A4FED78890729A958C5D
:1048C80095988C98959A8C9A959E8C8E550EA76E75
:1048D800AA0EA76E0E01BF91000ED76F1F0EFC6FB8
:1048E8001F0EFE6F170EFC6F0A0ED56F0B0ED66FDC
:1048F800160EFD6F550EA76EAA0EA76EBF81738E9A
:10490800738C729E729C7298729072927294729664
:10491800728A000E0101866F12008890729A0F0148
:104928004093550EA76EAA0EA76E0E01BF910A0EF0
:10493800D76F150EFC6F160EFD6F130EFE6F550E1A
:10494800A76EAA0EA76EBF81729A958A9588959CC4
:104958008C8C9584739E738C729E729C7298725024
:10496800F00B0409726EA49E728A888A88888886E9
:10497800889488928698869A869C869E8690869247
:1049880086948696000E666E3F0E676E020E6A6EFD
:10499800500E6B6E030E686E000E696E8880010EF5
:1049A8000101866F12000150000AD8B481D7010AAC
:1049B800D8A41200B2D7066E0650D8A42CD0000195
:1049C80020EE01F0D951D926DA51DA22080EDF6E2D
:1049D80020EE02F0D951D926DA51DA22300EDE6EF5
:1049E8000D0EDD6ED9C0D9FFDAC0DAFF0C0EDF6E0E
:1049F800D9C0D9FFDAC0DAFF000EDB8EC5C0D9FFF7
:104A0800C6C0DAFF040EDF6EC5C0D9FFC6C0DAFF24
:104A1800000EDB8E12000150026E036AD890023637
:104A280003360650046E056AD89004360536D890C9
:104A3800043605360250042603500522D890043661
:104A48000536D89004360536000E0424076E0D0E80
:104A58000520086E07C0D9FF08C0DAFF000EDB8406
:104A680007C0D9FF08C0DAFF000EDB8E0650040D20
:104A7800F3CF02F0F4CF03F00150020DF3500226F9
:104A8800F4500322D89002360336D8900236033603
:104A9800040E0226000E0322000E0224076E0D0EDD
:104AA8000320086E07C0D9FF08C0DAFF000EDB84B8
:104AB80007C0D9FF08C0DAFF000EDB8E12006DD0E8
:104AC8000001BA51D8B4120025EC44F0000E0001E0
:104AD800BA6F12008C90000E0101796F000E786F8A
:104AE800020E0001E06F120061EC43F0000E0101BC
:104AF800796F000E786F030E0001E06F120001015C
:104B0800784B792B795104E1040E785DD8A0120016
:104B180072EC43F0000E0101796F000E786F040EFD
:104B28000001E06F12005DEC42F0960EF2EC42F0EC
:104B38004BEC44F0000E0101796F000E786F000E07
:104B4800776F000E766F050E0001E06F1200BE5100
:104B5800D8A40BD00101764B772BFA0E7619771172
:104B6800D8A403D0100E0001BE6F0001B951D8A41B
:104B78000CD0BA51D8A409D00101782903E17929C8
:104B8800D8B41200784B792B1200000E0101796F0E
:104B9800000E786F09EC2BF012000001E051000ABA
:104BA800D8B48ED7010AD8B495D7030AD8B49CD7FD
:104BB800010AD8B4A4D7070AD8B4B5D7010AD8A42B
:104BC8001200C5D7000E016E400E026E0D0E036E68
:104BD800400E046E020EECEC26F001C0D7F002C0C5
:104BE800D8F0C9C0D5F0CAC0D6F0000E0001E86FF1
:104BF800E769000EE66F000EE56F000EE26F000E2B
:104C08000101566F000E576F000E586F000E596F56
:104C1800000E526F000E536F000E546F000E556F4A
:104C2800010E0001E16F000E01017F6F000E7E6F23
:104C3800000E0D6F46D00D51010DE30EF324D96E11
:104C4800000EF420DA6E000EDF6EE7C101F0E8C155
:104C580002F001D809D00500FA6EDF51FD6EE0516F
:104C6800FE6EFF6AFA5012000009D8B426D0E7C1D8
:104C780001F0E8C102F001D80AD00500FA6E01017E
:104C8800D951FD6EDA51FE6EFF6AFA5012000150DA
:104C98000210D8B412D00DC10CF0010E0D6E000E2A
:104CA8000E6E0C2A03D0D8900D360E360C2EFBD77C
:104CB8000D5001017E130E507F1385EC3BF001016E
:104CC8000D2B0D51D8A41200B6D7096E0001D5518D
:104CD800D611D8B406D0D5C0D9FFD6C0DAFFDFBE0A
:104CE8001200D751D811D8B406D0D7C0D9FFD8C030
:104CF800DAFFDFBE1200E8C00AF0E769000EE66FCF
:104D0800000EE56F08C188FD09C189FD0AC18AFD49
:104D18000BC18BFD010E0D018C6F030E0001E86FB6
:104D280043D0020E0D018C6F1200010E016E020EAF
:104D3800DFEC24F01200020E0D018C6F010E016EE3
:104D4800020EDFEC24F01200000E016E020EDFEC02
:104D580024F01200020E0D018C6F000E016E020E7F
:104D6800DFEC24F0120085EC3BF001012151F00B3F
:104D78000509216F200E2B6F000E2C6F020E0A18EA
:104D8800D8A40CD0085109110A110B11D8B406D0B7
:104D9800000E016E020EDFEC24F01200010E016E0F
:104DA800020EDFEC24F012000950010AD8B4B9D77A
:104DB800030AD8B4BAD7010AD8B4BDD7070AD8B4F9
:104DC800C3D7010AD8B4C6D77A0AD8A41200CBD759
:104DD800096E0150D8B407D00950020DC50EF3244E
:104DE800D96E000E06D00950020D400EF324D96E7C
:104DF800010EF420DA6EDECF0AF0DDCF0BF00A5098
:104E08000B10D8A405D0000E016E000E026E120021
:104E180020EE02F00A50D9260B50DA2202C0DEFF3B
:104E280003C0DDFF20EE01F00A50D9260B50DA222C
:104E380004C0DFFF0AC0D9FF0BC0DAFF400EDF163F
:104E48000AC0D9FF0BC0DAFF000EDB860AC0D9FF03
:104E58000BC0DAFF000EDB8E0150D8B418D0095011
:104E6800020DC50EF324D96E000EF420DA6EDECFE3
:104E780005F0DDCF06F0040E0518076E0650086E23
:104E88000950020DC50EF324D96E000E17D0095033
:104E9800020D400EF324D96E010EF420DA6EDECF37
:104EA80005F0DDCF06F0040E0518076E0650086EF3
:104EB8000950020D400EF324D96E010EF420DA6E6B
:104EC80007C0DEFF08C0DDFF0AC001F00BC002F01A
:104ED800120065980001C2BF3CD0010134AF0DD06B
:104EE800020E0001F46FEA51D8B41EEC33F0000E44
:104EF8000001EC6F000EED6F1200000120EE01F0D2
:104F0800D951D926DA51DA22080EDF6E20EE02F0E6
:104F1800D951D926DA51DA22300EDE6E0D0EDD6E49
:104F2800D9C0D9FFDAC0DAFF0C0EDF6ED9C0D9FFBD
:104F3800DAC0DAFF000EDB8EC5C0D9FFC6C0DAFFC3
:104F4800040EDF6EC5C0D9FFC6C0DAFF000EDB8EC7
:104F580012000D0130AF12D0010E0001F46FEB51B9
:104F6800D8B41EEC33F0000E0001EC6F000EED6FAC
:104F7800EE51D8A41200EEEC2DF01200020E000142
:104F8800F46F20EE01F0D951D926DA51DA22080E51
:104F9800DF6E20EE02F0D951D926DA51DA22300E2E
:104FA800DE6E0D0EDD6ED9C0D9FFDAC0DAFF040E51
:104FB800DF6ED9C0D9FFDAC0DAFF000EDB8E000E33
:104FC800EC6F000EED6FEE51D8A41200EEEC2DF050
:104FD800120050C0D9FF51C0DAFF520EDE18D8A413
:104FE80014D020EE10F05050D9265150DA22BD0EC0
:104FF800DE18D8A40AD020EE11F05050D92651500E
:10500800DA224F0EDE18D8B402D0120E120020EEAB
:105018000CF05050D9265150DA22DF50526E5250BF
:10502800536E546A556A566A55C056F054C055F0C6
:1050380053C054F0536A20EE0DF05050D926515009
:10504800DA22DF50526E5250531255C056F054C0F7
:1050580055F053C054F0536A20EE0EF05050D92644
:105068005150DA22DF50526E5250531255C056F04A
:1050780054C055F053C054F0536A20EE0FF050500E
:10508800D9265150DA22DF50526E52505312010E77
:105098005024446E000E5120456E090E5024466E71
:1050A800000E5120476E53C048F054C049F055C017
:1050B8004AF056C04BF0FBEC1AF0120E12000D012C
:1050C8003039E832030B0009D8A4120047D0000198
:1050D800C28F080EF66F12008BEC21F01200D4EC90
:1050E80028F01200FE0E0001BF6F000EC06FC281D3
:1050F800010EC36FC28F1200DEEC30F0120024ECF8
:105108000CF012000D013451010DD70EF3240001EB
:10511800BF6F010EF420C06FC281010EC36FC28F32
:1051280012000001C28F0D013451010DD70EF32476
:10513800D96E010EF420DA6E32CDDFFF1200000EB8
:10514800116E020E106E000E126E000E136E000E1F
:10515800156E000E146EDBEC36F012000D013151A5
:10516800000AD8B4C9D7010AD8B4C9D7020AD8B432
:10517800C6D7060AD8B4ABD7030AD8B4ADD7010A44
:10518800D8B4DDD70F0AD8B4ADD7010AD8B4A7D799
:10519800030AD8B4B7D7010AD8B4C3D7070A12008C
:1051A8000001C28F270E016E0F0E026E000E046EF4
:1051B800000E036E000E066E020E056E89EC42F0BC
:1051C800000E016E0D0E026E000E046E000E036ED0
:1051D800000E066E300E056E89EC42F0658C000EEE
:1051E800186E020E186401D016D01850010D6B0EFF
:1051F800F324D96E010EF420DA6E000EDF6E18501B
:10520800010D680EF324D96E010EF420DA6E000E3B
:10521800DF6E182AE6D7D70E016E010E026E000E59
:10522800046E000E036E000E066E020E056E89EC0B
:1052380042F0659C080E0001C56F0D0EC66F000E8A
:10524800DB6F0D0EDC6FDBC0D9F0DCC0DAF032CDDD
:10525800FEF0FE51D8A403D0100EF66F1200000E17
:10526800116E010E106EFE0E126E000E136E000E01
:10527800156E010E146EDBEC36F0200E0001F66F91
:1052880012000D0130511F0BE806D8A4120034514A
:10529800D8A41200060E3119D8B41AD022D00001B1
:1052A800FE05D8A41ED0BA0EBF6F8E0EC06F000EBA
:1052B800C46F090E0BD0C00EC26F13D06E0E000162
:1052C800BF6F8F0EC06F000EC46F1D0EC36FF3D774
:1052D8000D013351210AD8B4E2D7030AD8B4EED766
:1052E800010A0D013039E832030BE806D8A4120090
:1052F80024D0FC0E0001BF6F000EC06F000EC46FFB
:10530800010EC36FC10EC26F1200800E0001C26F82
:1053180033CDFCF01200FB0E0001BF6F000EC06F12
:10532800000EC46F010EC36F810EC26F1200800E93
:105338000001C26F32CDFBF012000D013151010A9C
:10534800D8B41200030AD8B4D4D7010AD8B4E3D722
:105358000A0AD8B41200030AD8B4D7D7010AD8A4C5
:105368001200E5D70B500C100D100E10D8A402D067
:10537800010E01D0000E116E0001E205D8A405D07F
:105388001104D8A402D0000E12000B500101081914
:105398001AE10C50091917E10D500A1914E10E50C1
:1053A8000B19D8A410D00001E805D8A406D02A0EFD
:1053B800E719D8B408D0000E12002A0EE719D8A4AD
:1053C80002D0000E1200010108510B5C09510C5863
:1053D8000A510D580B510E58D8B002D0010E01D009
:1053E800000E0F6E020E0001E819D8A414D02A0E80
:1053F800E719D8B405D01150D8A402D0050E1DD095
:10540800E205D8B40FD01104D8B403D00F04D8A43F
:10541800F5D7040E12D02A0EE719D8B40DD0E2053C
:10542800D8A402D0010E09D01104D8B403D00F04B7
:10543800D8A402D0020E01D0030E106E105069ECF1
:1054480026F01050120015C0D9FF16C0DAFF100E52
:10545800DF6E20EE01F01550D9261650DA22C10E63
:10546800DF6E20EE02F01550D9261650DA22250EEE
:10547800DF6E20EE03F01550D9261650DA220FEC15
:1054880044F0DF6E20EE04F01550D9261650DA22CB
:10549800000EDF6E20EE05F01550D9261650DA22E0
:1054A800020EDF6E20EE06F01550D9261650DA22CD
:1054B800010EDF6E20EE07F01550D9261650DA22BD
:1054C800DDEC44F0DF6E20EE08F01550D9261650BA
:1054D800DA22B9C0DFFF20EE09F01550D9261650A0
:1054E800DA22BAC0DFFF20EE0AF01550D92616508E
:1054F800DA22BBC0DFFF20EE0BF01550D92616507C
:10550800DA22BCC0DFFF20EE0CF01550D926165069
:10551800DA22BDC0DFFF20EE0DF01550D926165057
:10552800DA22BEC0DFFF120047C0D9FF48C0DAFF49
:10553800500EDE18D8A414D020EE06F04750D92615
:105548004850DA224C0EDE18D8A40AD020EE07F014
:105558004750D9264850DA22EA0EDE18D8B402D0CD
:10556800080E120020EE02F04750D9264850DA22E1
:10557800DF50496E49504A6E4B6A4C6A4D6A4CC0BE
:105588004DF04BC04CF04AC04BF04A6A20EE03F095
:105598004750D9264850DA22DF50496E49504A12FE
:1055A8004CC04DF04BC04CF04AC04BF04A6A20EE5C
:1055B80004F04750D9264850DA22DF50496E495046
:1055C8004A124CC04DF04BC04CF04AC04BF04A6AEE
:1055D80020EE05F04750D9264850DA22DF50496EB0
:1055E80049504A124AC03FF04BC040F04CC041F00D
:1055F8004DC042F020EE01F04750D9264850DA223B
:10560800DF50F2EC10F0080E120054D00001BA512D
:10561800800A7F0FD8A01200000EBA6F1200BA518C
:10562800800A7F0FD8A01200000EBA6F1200BA517C
:10563800800A7F0FD8A01200300EBD6F300EBE6FEB
:10564800000EBA6F1200BA51800A7F0FD8A012005C
:10565800000EBA6F1200BA51800A7F0FD8A012004C
:10566800000EBA6F1200BA51800A7F0FD8A012003C
:10567800600EBD6F600EBE6F000EBA6F1200BA5199
:10568800800A7F0FD8A01200000EBA6F1200BA511C
:10569800800A7F0FD8A01200010E0C6E000E0B6E50
:1056A800780E0D6E5EEC40F00A0E2BEC43F0EBEC3E
:1056B80043F012000001BE51000AD8B4A7D7100A5F
:1056C800D8B4ADD7300AD8B4B2D7100AD8B4BBD73B
:1056D800700AD8B4C8D7100AD8B4BDD7300AD8B41D
:1056E800CED7100AD8A41200D2D7000E0A6E000E28
:1056F8000C6E62D00C500124066E000E0220076E5C
:10570800000E0320086E000E0420096E09500810D0
:1057180004E1900E075CD8A018D00C500124066E46
:10572800000E0220076E000E0320086E000E0420F3
:10573800096E09500AE1F80E065CFF0E0758010EC3
:105748000858D8B002D0000E29D00C500124066E9B
:10575800000E0220076E000E0320086E000E0420C3
:10576800096E095008E1F80E065CFF0E0758010E95
:105778000858D8A015D00C500124066E000E02203F
:10578800076E000E0320086E000E0420096E0950F3
:1057980007E1020E085CD8B003D0010E0B6E01D0F1
:1057A8000B680B28D8A402D0FF0E12000B500A5C1D
:1057B800D8A00BC00AF00C2A05500C5CD8A09AD7C8
:1057C8000A501200080E016E0001C45110E1080EC3
:1057D800C35DD8B00CD0C3C001F0F551D8A402D035
:1057E800010E04D0F505D8A402D0020EF56F0150C1
:1057F800C35F000EC45B20EE01F0C551D926C65127
:10580800DA2201C0DFFF380E0101846F0D0E856FAB
:105818000001C2A11DD03CD0BFC0F6FFC0C0F7FF39
:10582800F86A84C1D9FF85C1DAFF0E0EF76403D088
:105838000800F55005D0F6CFE9FFF7CFEAFFEF50A3
:10584800DF6E0001BF4BC02B0101844B852B010685
:105858000150D8B41200E0D7BFC0F6FFC0C0F7FFB0
:10586800F86A84C1D9FF85C1DAFF0E0EF76403D048
:105878000800F55005D0F6CFE9FFF7CFEAFFEF5063
:10588800DF6E0001BF4BC02B0101844B852B010645
:105898000150D8B41200E0D793C0D9FF94C0DAFF02
:1058A8007F0EDF6401D0120093C0D9FF94C0DAFFE5
:1058B800200EDE18D8B41200010E5F6E51D05F5072
:1058C800010DF35000019325D96EF4509421DA6E3E
:1058D800990EDE18D8B4120027D05F50010DF3508E
:1058E8009325D96EF4509421DA6EDF502EEC30F007
:1058F8000CD05F50010DF35000019325D96EF45080
:105908009421DA6EDF502EEC30F05F2A29D05F50F8
:10591800010DF350000193255C6EF45094215D6EE7
:105928007DEC32F05F261CD05F50010DF350000172
:105938009325D96EF4509421DA6EDF50F00B966FF0
:10594800976B9751000AD8A412009651200AD8B430
:10595800C4D7100AD8B4CDD7600AD8A41200D7D7B4
:10596800000195515F5CD8B01200A9D72B6E4BECA3
:105978003FF01BD045EC16F047D096EC1FF044D012
:1059880034EC18F041D028EC22F03ED064EC1DF045
:105998003BD04DEC09F038D010EC1AF035D022ECA1
:1059A8001EF032D0D3EC3DF02FD02B50F00B296EE7
:1059B8002A6A2A50000AD8A427D02950000AD8B445
:1059C800D9D7100AD8B4D9D7300AD8B4D9D7100A39
:1059D800D8B4D9D7700AD8B4D9D7100AD8B4D9D777
:1059E800300AD8B4D9D7100AD8B4D9D7F00AD8B45D
:1059F800D9D70AD02E0E0201116F2E0E0201106F98
:105A08002E0E02010F6F15D00001BB39E842070BBB
:105A1800030B296E2A6A2A50000AD8A40AD02950F2
:105A2800010AD8B4EDD7030AD8B4E7D7010AD8B425
:105A3800E1D7F2AE1200490E0201126F120026D011
:105A4800800E1200000E1200020E1200000E12004C
:105A5800040E1200020E1200030E1200080E1200AD
:105A6800010E1200000E1200000E1200000E1200AD
:105A7800FF0E12001F0E1200000E1200000E120080
:105A8800550E1200AA0E1200000E120001C003F0FB
:105A980002C004F00450010AD8A4F6D70350BE0A85
:105AA800D8B4CED7010AD8B4CDD77F0AD8B4CCD7CA
:105AB800010AD8B4CBD7030AD8B4CAD7010AD8B4D4
:105AC800C9D7070AD8B4C8D7010AD8B4C7D7030AB0
:105AD800D8B4C6D7010AD8B4C5D70F0AD8B4C4D722
