:020000040000FA
:040000000EEF00F00F
:0400080004EF48F0C9
:100018000CEF48F004EF2FF00E500C24D96E0F505F
:100028000D20DA6E3A0EDE18D8B405D00C680D68CB
:100038000E680F681200020E0E24146E000E0F20B8
:10004800156E14500C24D96E15500D20DA6EDF5041
:10005800036E010E0E24166E000E0F20176E16503A
:100068000C24D96E17500D20DA6EDF50E7EC3CF007
:10007800186E196A12C0D9FF13C0DAFF18C0DEFF64
:1000880019C0DDFF12C0D9FF13C0DAFF010EDB5023
:1000980004E1110EDE5CD8A009D0FC0E0C6EFF0E38
:1000A8000D6EFF0E0E6EFF0E0F6E1200040E0E2464
:1000B800146E000E0F20156E14500C24D96E1550B6
:1000C8000D20DA6EDF50036E050E0E24166E000E3C
:1000D8000F20176E16500C24D96E17500D20DA6EAB
:1000E800DF50046E060E0E24186E000E0F20196ED7
:1000F80018500C24D96E19500D20DA6EDF50056E99
:10010800030E0E241A6E000E0F201B6E1A500C24BC
:10011800D96E1B500D20DA6EDF5060EC32F020EE05
:1001280002F01250D9261350DA2203C0DEFF04C0B1
:10013800DDFF20EE04F01250D9261350DA22080E03
:100148000E24146E000E0F20156E14500C24E16E50
:1001580015500D20E26EE750036E070E0E24166E42
:10016800000E0F20176E16500C24E16E17500D204C
:10017800E26EE750E7EC3CF0DF6E000E1C6E3DD0FF
:100188001C50010D050EF326000EF422F350122424
:10019800D96EF4501320DA6E1C501CC014F0156A86
:1001A8001426000E15220E5014260F5015220A0E82
:1001B8001426000E152214500C24E16E15500D2043
:1001C800E26EE750036E1C501CC016F0176A162624
:1001D800000E17220E5016260F501722090E16264B
:1001E800000E172216500C24E16E17500D20E26EF7
:1001F800E750E7EC3CF0DF6E1C2A12C0D9FF13C0B1
:10020800DAFF1C50166E176ADE50165CDE5017585F
:10021800D8A0B6D720EE15F01250D9261350DA22FE
:100228001C501CC014F0156A1426000E15220E501E
:1002380014260F5015220A0E1426000E15221450EB
:100248000C24E16E15500D20E26EE750036E1C5031
:100258001CC016F0176A1626000E17220E50162616
:100268000F501722090E1626000E172216500C24BE
:10027800E16E17500D20E26EE750E7EC3CF0DF6EC0
:1002880012C0D9FF13C0DAFF10EE16F01250E126A3
:100298001350E222DFCFE7FF20EE02F01250D926FA
:1002A8001350DA22DECF14F0DDCF15F015C014F0AC
:1002B800156A20EE16F01250D9261350DA2214507F
:1002C800DF2620EE02F01250D9261350DA22DF5032
:1002D800146E20EE16F01250D9261350DA2214505C
:1002E800DF2620EE04F01250D9261350DA22DF5010
:1002F800146E20EE16F01250D9261350DA2214503C
:10030800DF26000E1C6E17D01C50010D050EF326BB
:10031800000EF422F3501224D96EF4501320DA6E32
:10032800DF50146E20EE16F01250D9261350DA2240
:100338001450DF261C2A12C0D9FF13C0DAFF1C5044
:10034800166E176ADE50165CDE501758D8A0DCD738
:1003580020EE15F01250D9261350DA22DF50146E11
:1003680020EE16F01250D9261350DA221450DF2648
:1003780020EE16F01250D9261350DA22DF50D8B4E6
:1003880009D0FE0E0C6EFF0E0D6EFF0E0E6EFF0EE8
:100398000F6E120020EE04F01250D9261350DA2204
:1003A800DE04D8A409D0000E0C6E000E0D6E000EEF
:1003B8000E6E000E0F6E12001C501CC014F0156A51
:1003C8001426000E15220B0E1424166E000E15208E
:1003D800176E186A17BE18061850196E16500E2692
:1003E80017500F221850102219501122010E0E26F4
:1003F800000E0F22102211220E500C24D96E0F501D
:100408000D20DA6E3A0EDE18D8A409D00EC00CF012
:100418000FC00DF010C00EF011C00FF01200010E49
:100428000E26000E0F22102211220E500C24D96E17
:100438000F500D20DA6E3A0EDE18D8A409D00EC07F
:100448000CF00FC00DF010C00EF011C00FF012002C
:10045800010E0E26000E0F22102211220E500C241F
:10046800D96E0F500D20DA6E3A0EDE18D8A409D0D6
:100478000EC00CF00FC00DF010C00EF011C00FF040
:100488001200FD0E0C6EFF0E0D6EFF0E0E6EFF0EAF
:100498000F6E1200B9D18BEC15F00009D8A4120028
:1004A8000001A76912007CEC0AF00009D8A4120028
:1004B8000001A7691200A105D8A402D0A7691200FB
:1004C80012C18DF013C18CF08CC00BF08DC00CF0F4
:1004D8000D6A0E6ABDEC22F00009D8A41200000EC5
:1004E800026E240E016E70EC2CF0000E016E060EEA
:1004F800026E490E036E8F0E046E03500410D8A4CA
:10050800000E056E000E076E240E066E79EC34F0B0
:10051800FD0E0001A76F1200E8C101F0E9C102F069
:1005280001D80AD00500FA6E0101DC51FD6EDD51DB
:10053800FE6EFF6AFA50120001C044F002C045F096
:1005480003C046F004C047F0E8C101F0E9C102F079
:1005580001D80AD00500FA6E0101DE51FD6EDF51A7
:10056800FE6EFF6AFA50120001C040F002C041F06E
:10057800426A436A26EE00F047C0DFFF26EE01F02C
:1005880046C0DFFF26EE02F045C0DFFF26EE03F08F
:1005980044C0DFFF26EE04F043C0DFFF26EE05F07F
:1005A80042C0DFFF26EE06F041C0DFFF26EE07F06F
:1005B80040C0DFFF000E00018D6F080E8C6F000E2B
:1005C800026E080E016E70EC2CF0FD0E0001A76F94
:1005D8001200A105D8A402D0A7691200000E8D6FE1
:1005E800120E8C6F000E026E120E016E70EC2CF063
:1005F800000E486E110E486401D014D04850010D09
:100608001F0EF324D96E010EF420DA6E4850010D46
:10061800000EF324E16E060EF420E26EDFCFE7FF52
:10062800482AE8D7FD0E0001A76F1200030EE8CF95
:1006380000F6000EE8CF01F6E8C101F0E9C102F0CA
:1006480001D80AD00500FA6E0101E451FD6EE551AA
:10065800FE6EFF6AFA5012000009D8A404D0000EFA
:100668003E6E000E03D0000E3E6E800E3D6E26EEEE
:1006780002F03DC0DFFF000EE8CF03F6000E0001D8
:100688008D6F040E8C6F000E026E040E016E70ECFE
:100698002CF0FD0E0001A76F120001012151F00B93
:1006A8000509216F200E2B6F000E2C6F010E0D0116
:1006B8008C6F000E886F000E896F000E8A6F000E17
:1006C8008B6F0001A7691200000E0B6E000E0C6EF6
:1006D800000E0D6E000E0E6EBDEC22F00009D8A4BF
:1006E8001200010121510F0B060AD8A407D00D01F1
:1006F8008C05D8A403D00001A7691200DDEC34F002
:10070800000E0D01886F000E896F000E8A6F000EB3
:100718008B6F0001A7691200000E0D01886F000E93
:10072800896F000E8A6F000E8B6F0001A769120097
:100738008E518F11D8B406D08EC0D9FF8FC0DAFF82
:10074800DFBE120001010B510A11091104E1400E2C
:10075800085DD8A009D0400E3F6E400E085F000E1D
:10076800095B0A5B0B5B0AD008C13FF0000E086FFB
:10077800000E096F000E0A6F000E0B6F3F503B6EA4
:100788003C6A3B5000018C5D3C508D59D8A005D087
:100798003F508C5F000E8D5B1AD0000E486E13D050
:1007A8008C518D11D8B404D08C07D8A08D070AD0ED
:1007B8004850010D000EF324D96E060EF420DA6EAF
:1007C800000EDF6E482A3F50485CD8A0E9D7010EDA
:1007D800016E000E026E060E036E3FC004F0020E9C
:1007E80061EC20F001C08EF002C08FF001010851C9
:1007F80009110A110B11D8A412000001A7691200EF
:100808007F0EDEEC1FF012000001A751000AD8B4D9
:100818005BD7030AD8B4DDD6110AD8B44CD6080A77
:10082800D8B404D7010AD8B477D7050AD8B435D7CD
:100838003B0AD8B471D60D0AD8B42DD6020AD8B45A
:1008480032D6050AD8B468D7D20AD8B471D7030A01
:10085800D7D72250211011E1800E205CD8B00DD0DE
:100868001FC019F020C01AF01B6A1C6A23C01DF0B3
:1008780024C01EF050EC27F012001F04E10E20588F
:10088800F50E2158050E2258D8A04CD023C011F0DF
:1008980024C012F01FC001F020C002F021C003F0F4
:1008A80022C004F0100E056E270E066E000E076EAD
:1008B800000E086E8AEC2FF001C013F002C014F08D
:1008C800000E166E0A0E156E2DEC39F0050E232457
:1008D800116E000E2420126E1FC001F020C002F01D
:1008E80021C003F022C004F0100E056E270E066E1C
:1008F800000E076E000E086E46EC34F001C013F0CF
:1009080002C014F0000E166E0A0E156E2DEC39F0AA
:1009180020EE09F02350D9262450DA22200EDF6E6B
:10092800090E1200225008E1810E1F5C960E205815
:10093800980E2158D8A04CD023C011F024C012F032
:100948001FC001F020C002F021C003F022C004F053
:10095800100E056E270E066E000E076E000E086E4E
:100968008AEC2FF001C013F002C014F0000E166ECE
:100978000A0E156E2DEC39F0040E2324116E000EAC
:100988002420126E1FC001F020C002F021C003F025
:1009980022C004F0100E056E270E066E000E076EBC
:1009A800000E086E46EC34F001C013F002C014F0DB
:1009B800000E166E0A0E156E2DEC39F020EE08F0BA
:1009C8002350D9262450DA22200EDF6E080E12009A
:1009D800225008E1410E1F5C420E20580F0E21588C
:1009E800D8A04CD023C011F024C012F01FC001F0D1
:1009F80020C002F021C003F022C004F0100E056EE2
:100A0800270E066E000E076E000E086E8AEC2FF099
:100A180001C013F002C014F0000E166E0A0E156E17
:100A28002DEC39F0030E2324116E000E2420126ED3
:100A38001FC001F020C002F021C003F022C004F062
:100A4800100E056E270E066E000E076E000E086E5D
:100A580046EC34F001C013F002C014F0000E166E1C
:100A68000A0E156E2DEC39F020EE07F02350D9262A
:100A78002450DA22200EDF6E070E1200225008E101
:100A8800A10E1F5C860E2058010E2158D8A04CD00C
:100A980023C011F024C012F01FC001F020C002F0E2
:100AA80021C003F022C004F0100E056E270E066E5A
:100AB800000E076E000E086E8AEC2FF001C013F0CE
:100AC80002C014F0000E166E0A0E156E2DEC39F0E9
:100AD800020E2324116E000E2420126E1FC001F096
:100AE80020C002F021C003F022C004F0100E056EF1
:100AF800270E066E000E076E000E086E46EC34F0E8
:100B080001C013F002C014F0000E166E0A0E156E26
:100B18002DEC39F020EE06F02350D9262450DA22A5
:100B2800200EDF6E060E120023C011F024C012F052
:100B38001FC001F020C002F021C003F022C004F061
:100B4800100E056E270E066E000E076E000E086E5C
:100B58008AEC2FF001C013F002C014F0000E166EDC
:100B68000A0E156E2DEC39F0010E2324116E000EBD
:100B78002420126E1FC001F020C002F021C003F033
:100B880022C004F0100E056E270E066E000E076ECA
:100B9800000E086E46EC34F001C013F002C014F0E9
:100BA800000E166E0A0E156E2DEC39F020EE05F0CB
:100BB8002350D9262450DA22200EDF6E050E1200AB
:100BC800000E0001FB6F000EFA6F000EEF6F000EB3
:100BD800F06F000EF16F000EF26F7CC056F07DC012
:100BE80057F07EC058F07FC059F0561E571E581E49
:100BF800591E562A000E57225822592200017851B0
:100C080056245A6E795157205B6E7A5158205C6E83
:100C18007B5159205D6E5D505C105B1004E1320E13
:100C28005A5CD8A018D07CC040F07DC041F07EC08E
:100C380042F07FC043F0320E446E000E456E000E47
:100C4800466E000E476E800E486E020E496EFF51CA
:100C580078EC0FF02DD07CC040F07DC041F07EC014
:100C680042F07FC043F07CC056F07DC057F07EC094
:100C780058F07FC059F0561E571E581E591E562A46
:100C8800000E572258225922000178515624446EEA
:100C980079515720456E7A515820466E7B5159201C
:100CA800476E800E486E020E496EFF5178EC0FF0C9
:100CB800800E0C6E020E0D6E000E0E6E000E0F6E84
:100CC800000E106E000E116EBE0E126E010E136E27
:100CD80010EC00F00CC0EFF00DC0F0F00EC0F1F019
:100CE8000FC0F2F00001844B852BF10EEF5DFF0E73
:100CF800F059FF0EF159FF0EF259D8A005D0400E59
:100D0800646F400E656F1200EF517C27F0517D2310
:100D1800F1517E23F2517F23FBD00101C351406F73
:100D2800416B426B436B42C143F141C142F140C147
:100D380041F1406BC451401342C143F141C142F1FA
:100D480040C141F1406B42C143F141C142F140C150
:100D580041F1406B42D79BC0F7F0000E00019B6F3A
:100D68000101C05140250001F36F0101C15141212A
:100D78000001F46F000E010142210001F56F000E21
:100D8800010143210001F66FF751F325016E000EB2
:100D9800F421026E000EF521036E000EF621046E9A
:100DA800F5EC3CF001C0EBF002C0ECF00001F751AB
:100DB800F325016E000EF421026E000EF521036E7C
:100DC800000EF621046EF75100080101BE25056EDC
:100DD8000FEC24F00009D8A400D70001FA51FB1148
:100DE800D8A410D0EBC0FAF0ECC0FBF0FAC016F0B3
:100DF800FBC017F06FEC39F088EC3DF001C0E9F06A
:100E080002C0EAF0F7C0F8F00001F96B5CD0F851C5
:100E1800F325016EF951F421026E000EF521036EDF
:100E2800000EF621046EF5EC3CF00001FA510118B1
:100E38002AE1FB510218D8A426D0F851F325096EEF
:100E4800F951F4210A6E000EF5210B6E000EF62101
:100E58000C6EFAC00DF0FBC00EF00EEC35F009C0B8
:100E6800EDF00AC0EEF0C30E0001F825D96E010EB0
:100E7800F921DA6EED51E925E16EEE51EA21E26ED3
:100E8800DFCFE7FF1DD0EF517C5FF0517D5BF15163
:100E98007E5BF2517F5B8407D8A08507F8C09BF082
:100EA800FAC003F0FBC004F0CCEC3AF0FAC003F04F
:100EB800FBC004F00CEC30F00101664B672B12000C
:100EC8000001F84BF92B0101BE510001F85D010149
:100ED800BF510001F959D8B080D699D70001FA510D
:100EE800FB11D8B41200FAC003F0FBC004F0CCEC3C
:100EF8003AF0FAC003F0FBC004F00CEC30F001014A
:100F0800664B672B600E0001646F600E656F120000
:100F18000101C251000AD8B41ED7010AD8B4DED7DD
:100F2800050AD8B4FAD659D6000E256E17D0255022
:100F3800010DE90EF324F66E8D0EF420F76EF86AB3
:100F4800000EF8222550010D6E0EF324D96E010E05
:100F5800F420DA6E0800F5CFDFFF252A2550010DB1
:100F6800E90EF324F66E8D0EF420F76EF86A000E83
:100F7800F8220800F5500009D8A4D9D7000E256E2C
:100F880017D02550010D420EF324F66E8D0EF42075
:100F9800F76EF86A000EF8222550010D820EF32430
:100FA800D96E010EF420DA6E0800F5CFDFFF252A8E
:100FB8002550010D420EF324F66E8D0EF420F76EC7
:100FC800F86A000EF8220800F5500009D8A4D9D70D
:100FD800000E256ED6D02550010D0A0EF324F66EAC
:100FE8008D0EF420F76EF86A000EF8222550010DD8
:100FF800960EF324D96E010EF420DA6E0800F5CFB0
:10100800DFFF252A2550010D0A0EF324F66E8D0EFA
:10101800F420F76EF86A000EF8220800F55000096F
:10102800D8B4C0D0D8D72550010D290EF324F66EB8
:101038008E0EF420F76EF86A000EF8222550010D86
:10104800960EF324D96E010EF420DA6E0800F5CF5F
:10105800DFFF252A2550010D290EF324F66E8E0E8A
:10106800F420F76EF86A000EF8220800F55000091F
:10107800D8B498D0D8D72550010D380EF324F66E81
:101088008E0EF420F76EF86A000EF8222550010D36
:10109800960EF324D96E010EF420DA6E0800F5CF0F
:1010A800DFFF252A2550010D380EF324F66E8E0E2B
:1010B800F420F76EF86A000EF8220800F5500009CF
:1010C800D8B470D0D8D72550010D470EF324F66E4A
:1010D8008E0EF420F76EF86A000EF8222550010DE6
:1010E800960EF324D96E010EF420DA6E0800F5CFBF
:1010F800DFFF252A2550010D470EF324F66E8E0ECC
:10110800F420F76EF86A000EF8220800F55000097E
:10111800D8B448D0D8D72550010DE20EF324F66E86
:101128008C0EF420F76EF86A000EF8222550010D97
:10113800960EF324D96E010EF420DA6E0800F5CF6E
:10114800DFFF252A2550010DE20EF324F66E8C0EE2
:10115800F420F76EF86A000EF8220800F55000092E
:10116800D8A4D9D7ABEC3DF001C01FF002C020F0E5
:10117800216A226AB80E236E010E246E2DEC04F04B
:1011880011D0DCEC3DF00B0AD8B4DCD7070AD8B490
:10119800B1D7010AD8B486D7030AD8B45BD7010AF5
:1011A800D8B430D7000E256E17D02550010D6B0E20
:1011B800F324F66E8E0EF420F76EF86A000EF8220D
:1011C8002550010DAA0EF324D96E010EF420DA6E13
:1011D8000800F5CFDFFF252A2550010D6B0EF324FB
:1011E800F66E8E0EF420F76EF86A000EF8220800EC
:1011F800F5500009D8A4D9D7B5EC3DF001C019F0D5
:1012080002C01AF01B6A1C6A2550010DAA0EF324AD
:101218001D6E010EF4201E6E50EC27F01200000E19
:101228000001EA6F000EEB6F000EEC6F000EED6F21
:10123800FF5127EC32F031C078F032C079F033C07A
:101248007AF034C07BF0000E0001E96FE951D8A4B0
:1012580012007CC056F07DC057F07EC058F07FC0A9
:1012680059F0561E571E581E591E562A000E572250
:1012780058225922785156245A6E795157205B6E5C
:101288007A5158205C6E7B5159205D6E5D505C1020
:101298005B1004E1320E5A5CD8A018D07CC040F034
:1012A8007DC041F07EC042F07FC043F0320E446EF4
:1012B800000E456E000E466E000E476E800E486E9C
:1012C800020E496EFF5178EC0FF02DD07CC040F033
:1012D8007DC041F07EC042F07FC043F07CC056F034
:1012E8007DC057F07EC058F07FC059F0561E571E7B
:1012F800581E591E562A000E5722582259220001FC
:1013080078515624446E79515720456E7A515820A9
:10131800466E7B515920476E800E486E020E496E0C
:10132800FF5178EC0FF0800E0C6E020E0D6E000E61
:101338000E6E000E0F6E000E106E000E116EBE0EB9
:10134800126E010E136E10EC00F00CC0EAF00DC026
:10135800EBF00EC0ECF00FC0EDF00001844B852BD4
:10136800040E0101C219D8A41CD0C351406F416BAF
:10137800426B436B42C143F141C142F140C141F16B
:10138800406BC451401342C143F141C142F140C1D5
:1013980041F1406B42C143F141C142F140C141F1C9
:1013A800406BC251D8A45DD0C05140250001EE6FFA
:1013B8000101C15141210001EF6F000E01014221DD
:1013C8000001F06F000E010143210001F16F0101DE
:1013D80048510001EE5D010149510001EF59010139
:1013E8004A510001F05901014B510001F159D8B09F
:1013F80008D0EEC048F1EFC049F1F0C04AF1F1C0A1
:101408004BF1EE510101445D0001EF5101014559D5
:101418000001F051010146590001F15101014759FC
:10142800D8B008D0EEC044F1EFC045F1F0C046F1A5
:10143800F1C047F1EEC001F0EFC002F0F0C003F0D8
:10144800F1C004F0BEC105F00FEC24F0FF0AD8A4E7
:1014580008D00B0E00019C6F400E646F400E656F44
:1014680012000001EA51EB11EC11ED11D8A425D0BE
:1014780084C068F185C069F1000E856F000E846F25
:10148800000E7C6F000E7D6F000E7E6F000E7F6F6A
:10149800000E0101406F000E416F000E426F000EFA
:1014A800436F000E676F000E666F000E00019B6FA2
:1014B800300E646F300E656F1200F10EEA5DFF0E9C
:1014C800EB59FF0EEC59FF0EED59D8A007D0EA51A1
:1014D8000F0B9C6F400E646F400EEDD7EA517C27CE
:1014E800EB517D23EC517E23ED517F23E92BAED6C2
:1014F80044D111C183F012C182F013C181F014C12B
:1015080080F016C18DF017C18CF08C51306E8D5162
:10151800316E326A336A090ED89030363136323637
:101528003336E82EF9D730C00BF031C00CF032C09A
:101538000DF033C00EF0BDEC22F00009D8A42FD175
:10154800E8C101F0E9C102F001D80AD00500FA6E3D
:101558000101E451FD6EE551FE6EFF6AFA5012007A
:101568000009D8B416D0010E0D018C6F010121516C
:10157800F00B0709216F270E2B6F000E2C6F000E42
:10158800016E020ED7EC1EF0000E0001A56FA551EA
:101598001200010E0001A86F8C518D11D8A402D041
:1015A800000EE9D0030EA56F000E926F060E936F22
:1015B800000E0D01886F020E896F000E8A6F000EF3
:1015C8008B6F0D01885189118A118B11D8B41ED0E7
:1015D800000190519111D8B406D090C0D9FF91C0A4
:1015E800DAFFDFBEDCD0000E016E92C002F093C0BD
:1015F80003F0400E046E020E61EC20F001C090F082
:1016080002C091F0040E0001A56F21D0E8C101F0DD
:10161800E9C102F001D80AD00500FA6E0101E451CF
:10162800FD6EE551FE6EFF6AFA5012000009D8B44B
:101638000CD0010E0D018C6F01012151F00B020934
:10164800216F270E2B6F000E2C6F020E93D0905136
:101658009111D8B406D090C0D9FF91C0DAFFDFBE8F
:101668009ED020EE01F09051D9269151DA22DF5018
:10167800306E30C031F0326A336A346A3150010159
:10168800085F3250095B33500A5B34500B5B000132
:1016980020EE01F09051D9269151DA22DF50306EB8
:1016A80030C031F0326A336A346A31500D01885FD4
:1016B8003250895B33508A5B34508B5B400E00019B
:1016C8009227000E9323030E56D00D018C51D8A4F7
:1016D8003CD0E8C125F0E9C126F080C027F081C0E0
:1016E80028F082C029F083C02AF0000E2B6E060E67
:1016F8002C6E00018051811182118311D8A402D06F
:10170800010E01D0000E2D6E01D80AD00500FA6E28
:101718000101E651FD6EE751FE6EFF6AFA501200B4
:10172800E806D8B412D0640E0001A46102D0A42B3C
:1017380036D0010E0D018C6F01012151F00B030908
:10174800216F000E2B6F000E2C6F010E00018027F9
:10175800000E8123822383238C07D8A08D07010ED6
:101768000AD0020E0D018C6F000E016E020ED7EC2E
:101778001EF0000E0001A56F12D00001A551000A4D
:10178800D8B4B7D6010AD8B407D7030AD8B49DD7B6
:10179800010AD8B416D7070AD8B459D7E2D7000136
:1017A800A55112000D013205D8A411D030511F0BDC
:1017B8000009D8A40CD00001698F030E0D0131195E
:1017C800D8A402D0010E01D0000E0001B36F0D01A4
:1017D8003251D8A4120030511F0B020AD8A41200AB
:1017E80034510F0B0009D8B4120034510F0B186E86
:1017F800030E18601200200E5F18D8A41200000112
:10180800698F0D0134BF19D034510F0B186E185061
:10181800020D720EF324D96E000EF420DA6EDECFBC
:101828001CF0DDCF1DF034510F0B186E1850010D50
:101838005E0EF324D96E010E18D034510F0B186EBA
:101848001850020D6C0EF324D96E000EF420DA6ED7
:10185800DECF1CF0DDCF1DF034510F0B186E185081
:10186800010D610EF324D96E010EF420DA6EDF50FB
:101878001B6E1BB006D0FB0E1C141C6EFF0E1D1435
:1018880004D0040E1C101C6E1D501D6E34BF0AD0EF
:1018980034510F0B186E1850020D720EF324D96EC6
:1018A800000E09D034510F0B186E1850020D6C0E33
:1018B800F324D96E000EF420DA6E1CC0DEFF1DC0C2
:1018C800DDFF030E3119D8A42DD01CC0D9FF1DC0CF
:1018D800DAFFDFAE1AD034BF0AD034510F0B186EBE
:1018E8001850010D5E0EF324D96E010E0AD00D01B9
:1018F80034510F0B186E1850010D610EF324D96E78
:10190800010EF420DA6E0101DF821CC0D9FF1DC070
:10191800DAFF000EDB841CC0D9FF1DC0DAFF000E01
:10192800DB8E1200040E1C181C6E1D501D6E1CC090
:10193800D9FF1DC0DAFFDFAE1BD01CC0D9FF1DC008
:10194800DAFF7F0EDF161CC0D9FF1DC0DAFF000EBC
:10195800DB8C000E116E050E106E1CC012F01DC03F
:1019680013F0000E156E020E146E47EC2FF006D021
:101978001CC0D9FF1DC0DAFF000EDB8C040E1C183A
:101988001C6E1D501D6E1BB206D01CC0D9FF1DC099
:10199800DAFFDFAE30D00D0134BF0AD034510F0B5F
:1019A800186E1850010D5E0EF324D96E010E0AD080
:1019B8000D0134510F0B186E1850010D610EF324F0
:1019C800D96E010EF420DA6E0101DF921CC0D9FF36
:1019D8001DC0DAFF3B0EDF16000E116E050E106EED
:1019E8001CC012F01DC013F0000E156E020E146E0E
:1019F80047EC2FF006D01CC0D9FF1DC0DAFF3B0E04
:101A0800DF160D0134510F0B186E1850010D260EFC
:101A1800F324196E0F0EF4201A6E19C0D9FF1AC0DC
:101A2800DAFFFE0EDF16120093D0EB0E12003C0E0A
:101A38001200900E1200F10EF66E8F0EF76E000E69
:101A4800F86E0800F5501200F20EF66E8F0EF76E63
:101A5800F86A0800F5501200F30EF66E8F0EF76E56
:101A6800F86A0800F5501200F40EF66E8F0EF76E45
:101A7800F86A0800F5501200F50EF66E8F0EF76E34
:101A8800F86A0800F5501200F60EF66E8F0EF76E23
:101A9800F86A0800F5501200F70EF66E8F0EF76E12
:101AA800F86A0800F5501200F80EF66E8F0EF76E01
:101AB800F86A0800F5501200000E1200020E12001B
:101AC800010E1200010E1200000E1200010E12008B
:101AD800400E1200000E1200120E1200100E12001C
:101AE800F80E1200100E1200000E12003F0E120027
:101AF800000E1200100E1200000E1200000E12004E
:101B0800000E1200000E1200000E1200010E12004C
:101B1800000E1200110E1200000E1200110E12001B
:101B2800000E1200460E1200410E1200540E120052
:101B3800310E1200360E1200200E1200200E120076
:101B4800200E1200550E1200AA0E1200000E1200EE
:101B580001C003F002C004F00450000AD8B404D055
:101B6800010AD8B48DD0F2D70350000AD8B45DD793
:101B7800010AD8B45CD7030AD8B45BD7010AD8B431
:101B88005AD7070AD8B460D7010AD8B465D7030A68
:101B9800D8B46AD7010AD8B46FD70F0AD8B474D7A3
:101BA800010AD8B479D7030AD8B47ED7010AD8B4C1
:101BB80083D7070AD8B482D7010AD8B481D7030AD1
:101BC800D8B480D7010AD8B47FD71F0AD8B47ED733
:101BD800010AD8B47DD7030AD8B47CD7010AD8B48F
:101BE8007BD7070AD8B47AD7010AD8B479D7030AB9
:101BF800D8B478D7010AD8B477D70F0AD8B476D72B
:101C0800010AD8B475D7030AD8B474D7010AD8B46E
:101C180073D7070AD8B472D7010AD8B471D7030AA0
:101C2800D8B470D7010AD8B46FD7370AD8B46ED7EA
:101C3800010AD8B46DD7050AD8B46CD7010AD8B44C
:101C48006BD7030AD8B46AD7010AD8B469D7190A76
:101C5800D8B468D7010AD8B467D70F0AD8B466D7FA
:101C6800010AD8B465D7030AD8B464D7010AD8B42E
:101C780063D7070AD8B462D7010AD8B461D766D740
:101C88000350FE0AD8B45ED7010AD8B45DD75ED730
:101C9800200E5F18D8A4120018D10001905191119C
:101CA800D8B406D090C0D9FF91C0DAFFDFBE1200C9
:101CB800000E536E1E0E536401D014D05350010D04
:101CC800400EF324D96E0D0EF420DA6E5350010D38
:101CD800000EF324E16E010EF420E26EDFCFE7FF81
:101CE800532AE8D7000120EE01F09051D9269151EE
:101CF800DA221F0EDE18D8A472D0550E0101001981
:101D08006EE1530E01196BE1420E021968E1430EB0
:101D18000319D8A464D0010E0001A06F01010D5170
:101D2800D8A452D0110E0E614FD00E51D8B44CD059
:101D38000CC14EF03F0E4E16D8A446D0550E0D01DC
:101D4800806F530E816F420E826F530E836F04C1F2
:101D580084FD05C185FD06C186FD07C187FD000E0E
:101D6800886F000E896F000E8A6F000E8B6F000E51
:101D78008C6F0001A769000EA66F000EA56F000EFC
:101D8800A46F030E01010F19D8B408D02191219333
:101D980021952197000E2B6F000E2C6F0CAF02D0EF
:101DA800010E01D0020E0001A86F010108510911AE
:101DB8000A110B11D8B402D0000E01D0010E000197
:101DC800A16F0FC1A7F01200010E016E020ED7EC31
:101DD8001EF0000E016E020ED7EC1EF01200010E6E
:101DE800016E020ED7EC1EF0000E016E020ED7EC4B
:101DF8001EF0000E0001A06F12004EEC1EF0FF0A4C
:101E0800D8A41200030E0001A86F12004EEC1EF0B9
:101E1800FF0AD8A412000D018C51D8A408D088510B
:101E280089118A118B11D8B402D0020E8C6F030E5F
:101E38000001A86F120070C04FF071C050F04F50F1
:101E48005010D8B40AD070C051F071C052F051C0CF
:101E5800D9FF52C0DAFFDFBE1200010E016E800EFC
:101E6800026E0D0E036E0D0E046E020E61EC20F074
:101E780001C08EF002C08FF0000190519111D8B4CA
:101E880006D090C0D9FF91C0DAFFDFBE0FD0000E98
:101E9800016E400E026E0D0E036E400E046E020EB1
:101EA80061EC20F001C090F002C091F0000E00013A
:101EB800A86F1200000EA86F020E0D018C6F000EA5
:101EC800016E020ED7EC1EF012000001A851000AA4
:101ED800D8B4E3D6010AD8B490D7030AD8B496D7B1
:101EE800010AD8B4A8D7E6D70001BE6FBF0E386E76
:101EF800000E396E0001BE51B3EC31F0D9C0DFF0ED
:101F0800DAC0E0F0445040244A6E455041204B6E00
:101F1800465042204C6E475043204D6E4A500001B7
:101F2800DB5D4B50DC594C50DD594D50DE59D8B073
:101F380002D0FF0E1200000EE56F000EE66F000ED5
:101F4800E76F000EE86F13D0DFC031F0E0C032F069
:101F5800E7EC38F031C0DFF032C0E0F0000E0001ED
:101F6800E527020EE623000EE723000EE823E5C06E
:101F78004AF0E6C04BF0E7C04CF0E8C04DF04A1E0E
:101F88004B1E4C1E4D1E4A2A000E4B224C224D223F
:101F980040504A244E6E41504B204F6E42504C20C8
:101FA800506E43504D20516E51505010CDE1020EED
:101FB8004F5CD8B0C9D7E5C04AF0E6C04BF04A1E1E
:101FC8004B1E4A4A4B2A40504A24E16F41504B204D
:101FD800E26F000EE56F000EE66F000EE76F000E71
:101FE800E86F89D0020EE219E111D8A40FD0DFC042
:101FF80031F0E0C032F0E7EC38F031C0DFF032C049
:10200800E0F0000E0001E26F000EE16FDFC001F0AA
:10201800E0C002F07BEC3DF001C0BCF002C0BDF0B6
:10202800E1C04AF0E2C04BF04A1E4B1E4A4A4B2A16
:10203800000E4A240001E36F020E4B20E46FE351C7
:102048004A6EE4514B6E4C6A4D6AE5C04EF0E6C0EC
:102058004FF0E7C050F0E8C051F04E1E4F1E501E22
:10206800511E4E2A000E4F225022512244504E2417
:10207800526E45504F20536E46505020546E475074
:102088005120556E4A50525C4B5053584C5054583E
:102098004D505558D8B00ED0E5C04AF0E6C04BF0C8
:1020A8004A1E4B1E4A4A4B2A44504A24E36F455065
:1020B8004B20E46FBCC029F0BDC02AF0E1C02BF072
:1020C800E2C02CF0E3C02DF0E4C02EF0E551482426
:1020D8002F6EE6514920306E32EC3BF00001E3519F
:1020E800E527E451E623000EE723000EE823E35139
:1020F800E127E451E2234450E55D4550E659465056
:10210800E7594750E859D8A06DD7000E12000001D2
:10211800C86F3F0E0001C86501D01200C8513EECDF
:1021280031F00009D8A41200CF0E386E000E396EB7
:102138000001C851B3EC31F0EBC0BEF0ECC0BFF009
:10214800EDC0C0F0EEC0C1F0E9C0C4F0EAC0C5F00F
:10215800000E0001CB6F000ECC6F000ECD6F000E8D
:10216800CE6F13D0C4C031F0C5C032F0E7EC38F000
:1021780031C0C4F032C0C5F0000E0001CB27020EFA
:10218800CC23000ECD23000ECE23CBC044F0CCC010
:1021980045F0CDC046F0CEC047F0441E451E461E51
:1021A800471E442A000E452246224722BE51442497
:1021B800486EBF514520496EC05146204A6EC151F4
:1021C80047204B6E4B504A10CDE14804020E495847
:1021D800D8B0C8D7CBC044F0CCC045F0441E451E8B
:1021E800444A452ABE514424C66FBF514520C76F93
:1021F800000ECB6F000ECC6F000ECD6F000ECE6FB1
:102208006FD0020EC719C611D8A426D0000E326EA0
:10221800000E316EEDEC31F031C0C2F032C0C3F0C7
:10222800C4C029F0C5C02AF0C2C02BF0C3C02CF02E
:10223800B0EC39F0C2C029F0C3C02AF0FF0E2C6EF2
:102248002B68B0EC39F0C2C0C4F0C3C0C5F0000EB2
:102258000001C76F000EC66FC4C001F0C5C002F010
:102268007BEC3DF001C0BCF002C0BDF0C6C044F03C
:10227800C7C045F0441E451E444A452A000E442462
:102288000001C96F020E4520CA6FC951405CCA518E
:102298004158D8B004D040C0C9F041C0CAF0BCC051
:1022A80020F0BDC021F0C6C022F0C7C023F0C9C0CD
:1022B80024F0CAC025F0CB514224266ECC514320CD
:1022C800276E98EC32F00001C951CB27CA51CC23B4
:1022D800000ECD23000ECE23C951C627CA51C723ED
:1022E8004050446E4150456E466A476A4450CB5D43
:1022F8004550CC594650CD594750CE59D8A081D7D2
:102308004050EB274150EC23000EED23000EEE2346
:10231800CF0E056E000E066E19EC3BF0CF0E296E3F
:10232800000E2A6E0001C85151EC36F0120058C058
:10233800D9FF59C0DAFF810EDF6E20EE01F0585048
:10234800D9265950DA22250EDF6E20EE02F05850B9
:10235800D9265950DA22C10EDF6E20EE01F0565010
:10236800D9265750DA2210EE03F05850E12659507A
:10237800E222DFCFE7FF20EE01F05650D926575072
:10238800DA2210EE04F05850E1265950E222DFCF4D
:10239800E7FF20EE02F05650D9265750DA2210EE09
:1023A80005F05850E1265950E222DFCFE7FF20EE32
:1023B80003F05650D9265750DA2210EE06F058503E
:1023C800E1265950E222DFCFE7FF20EE04F0565015
:1023D800D9265750DA2210EE07F05850E126595006
:1023E800E222DFCFE7FF20EE04F05650D9265750FF
:1023F800DA22DF505A6E5A500001F16FF26BF36B1C
:10240800F46BF3C0F4F0F2C0F3F0F1C0F2F0F16B4A
:1024180020EE03F05650D9265750DA22DF505A6E74
:102428005A50F113F3C0F4F0F2C0F3F0F1C0F2F037
:10243800F16B20EE02F05650D9265750DA22DF50C1
:102448005A6E5A50F113F3C0F4F0F2C0F3F0F1C031
:10245800F2F0F16B20EE01F05650D9265750DA22EF
:10246800DF505A6E5A50F11320EE01F05650D9261B
:102478005750DA22DF5027EC32F031C0E9F032C091
:10248800EAF033C0EBF034C0ECF0F1C05AF0F2C01F
:102498005BF0F3C05CF0F4C05DF05A1E5B1E5C1E7E
:1024A8005D1E5A2A000E5B225C225D220001E95162
:1024B8005A24ED6FEA515B20EE6FEB515C20EF6F11
:1024C800EC515D20F06FF051EF11EE1104E1370E81
:1024D800ED5DD8A008D0360EED6F000EEE6F000E41
:1024E800EF6F000EF06F20EE08F05850D9265950C3
:1024F800DA22EDC0DFFF20EE09F05850D9265950F6
:10250800DA22F1C040F0F2C041F0F3C042F0F4C06A
:1025180043F0EDC044F0EEC045F0EFC046F0F0C027
:1025280047F00A0E5824486E000E5920496E10EEE6
:1025380001F05650E1265750E222E75078EC0FF0B0
:10254800DF6E1200000E266E000E256E020E265C4F
:10255800D8B010D0B20E2524D96E020E2620DA6E1D
:1025680025C001F026C002F0B9EC25F0DF6E254A3F
:10257800262AECD7000E216E000E206EB20E226EB7
:10258800020E236E56EC37F0000E266E000E256EF6
:10259800020E265CD8B010D0B20E2524D96E020ED9
:1025A8002620DA6E25C001F026C002F018EC0DF0E6
:1025B800DF6E254A262AECD7000E216E010E206E0A
:1025C800B20E226E020E236E56EC37F0000E266E07
:1025D800000E256E020E265CD8B010D0B20E25244F
:1025E800D96E020E2620DA6E25C001F026C002F050
:1025F800D5EC36F0DF6E254A262AECD7000E216E80
:10260800020E206EB20E226E020E236E56EC37F0CA
:10261800000E266E000E256E020E265CD8B00BD07A
:10262800B20E2524D96E020E2620DA6E000EDF6E59
:10263800254A262AF1D7000E266E030E256E26504F
:1026480011E1120E255CD8B00DD025C020F026C0AF
:1026580021F0B20E226E020E236E56EC37F0254A98
:10266800262AEDD7000E266E000E256E020E265C79
:10267800D8B010D0B20E2524D96E020E2620DA6EFC
:1026880025C001F026C002F040EC18F0DF6E254AA4
:10269800262AECD7000E216E120E206EB20E226E84
:1026A800020E236E56EC37F0000E266E000E256ED5
:1026B800020E265CD8B00BD0B20E2524D96E020EBD
:1026C8002620DA6E000EDF6E254A262AF1D7000E84
:1026D800266E130E256E265011E1160E255CD8B015
:1026E8000DD025C020F026C021F0B20E226E020EB9
:1026F800236E56EC37F0254A262AEDD7000E266EB3
:10270800000E256E020E265CD8B010D0B20E25241D
:10271800D96E020E2620DA6E25C001F026C002F01E
:1027280000EC3CF0DF6E254A262AECD7000E216E1D
:10273800160E206EB20E226E020E236E56EC37F085
:10274800120005C0D9FF06C0DAFF100EDF6E20EEBA
:1027580001F00550D9260650DA22250EDF6E20EE4C
:1027680002F00550D9260650DA22C10EDF6E5AEC67
:102778003DF001C00CF002C00DF003C00EF004C023
:102788000FF020EE03F00550D9260650DA220CC0CF
:10279800DFFF20EE04F00550D9260650DA220DC0DE
:1027A800DFFF20EE05F00550D9260650DA220EC0CC
:1027B800DFFF20EE06F00550D9260650DA220CC0BD
:1027C800DFFFB5EC3DF001C010F002C011F020EEC3
:1027D80007F00550D9260650DA2210C0DFFF20EE98
:1027E80008F00550D9260650DA221150DF6EA1EC08
:1027F8003DF001C010F002C011F020EE09F00550C4
:10280800D9260650DA2210C0DFFF20EE0AF0055064
:10281800D9260650DA221150DF6E20EE0BF0055053
:10282800D9260650DA22DCEC3DF0DF6EB0EC3DF044
:1028380001C010F002C011F020EE0CF00550D926AE
:102848000650DA2210C0DFFF20EE0DF00550D92621
:102858000650DA221150DF6EA6EC3DF001C010F0F0
:1028680002C011F020EE0EF00550D9260650DA22EB
:1028780010C0DFFF20EE0FF00550D9260650DA22EF
:102888001150DF6EABEC3DF001C010F002C011F04A
:1028980020EE10F00550D9260650DA2210C0DFFFCE
:1028A80020EE11F00550D9260650DA221150DF6EBD
:1028B80020EE12F00550D9260650DA22D3EC3DF06E
:1028C800DF6E20EE13F00550D9260650DA22D9EC37
:1028D8003DF0DF6E20EE14F00550D9260650DA22BE
:1028E800D6EC3DF0DF6EA6EC3DF001500A6E2B0EE3
:1028F8000A6402D02B0E0A6E000E0B6E14D00B5019
:1029080029EC3DF0076E0B50086E096A150E082673
:10291800000E092208500524D96E09500620DA6EE7
:1029280007C0DFFF0B2A0A500B5CD8B01200E7D7AC
:10293800000E286E17D02850010D190EF324F66EDC
:102948008E0EF420F76EF86A000EF8222850010D5A
:102958006E0EF324D96E010EF420DA6E0800F5CF5E
:10296800DFFF282A2850010D190EF324F66E8E0E6B
:10297800F420F76EF86A000EF8220800F5500009F6
:10298800D8A4D9D7000E286E17D02850010D1D0ED7
:10299800F324F66E8D0EF420F76EF86A000EF82216
:1029A8002850010D820EF324D96E010EF420DA6E40
:1029B8000800F5CFDFFF282A2850010D1D0EF3244B
:1029C800F66E8D0EF420F76EF86A000EF8220800F5
:1029D800F5500009D8A4D9D7000E286E17D0285072
:1029E800010D980EF324F66E8E0EF420F76EF86A39
:1029F800000EF8222850010D960EF324D96E010E10
:102A0800F420DA6E0800F5CFDFFF282A2850010DE0
:102A1800980EF324F66E8E0EF420F76EF86A000E08
:102A2800F8220800F5500009D8A4D9D728C027F003
:102A38005AEC3DF001C01FF002C020F003C021F0A5
:102A480004C022F02850010D960EF324236E010EC7
:102A5800F420246E2DEC04F02726000E286E1CD0DE
:102A68002850010D910EF324F66E8E0EF420F76EA9
:102A7800F86A000EF822285027C025F0266A252675
:102A8800000E2622960E2524D96E010E2620DA6E17
:102A98000800F5CFDFFF282A2850010D910EF324F6
:102AA800F66E8E0EF420F76EF86A000EF822080013
:102AB800F5500009D8A4D4D7000E286E17D0285096
:102AC800010D540EF324F66E8D0EF420F76EF86A9D
:102AD800000EF8222850010DAA0EF324D96E010E1B
:102AE800F420DA6E0800F5CFDFFF282A2850010D00
:102AF800540EF324F66E8D0EF420F76EF86A000E6D
:102B0800F8220800F5500009D8B41200D8D7D6D05A
:102B180011C183F012C182F013C181F014C180F099
:102B280016C18DF017C18CF08C51376E8D51386EEF
:102B3800396A3A6A090ED8903736383639363A360D
:102B4800E82EF9D737C00BF038C00CF039C00DF0BB
:102B58003AC00EF0BDEC22F00009D8A4C1D0010E95
:102B68000001A66F8C518D11D8A402D0000E46D05A
:102B78008C07D8A08D07020EA66F8E518F11D8B47E
:102B880006D08EC0D9FF8FC0DAFFDFBEA9D0E8C15A
:102B98002DF0E9C12EF080C02FF081C030F082C046
:102BA80031F083C032F0000E336E060E346E01D859
:102BB8000AD00500FA6E0101E251FD6EE351FE6E86
:102BC800FF6AFA501200E806D8B41AD0640E000161
:102BD800A46102D0A42B84D0020E0D018C6F0101D8
:102BE8002151F00B0309216F000E2B6F000E2C6F83
:102BF800010E016E020ED7EC1EF05DD0A66F70D0EC
:102C0800010E00018027000E812382238323000EFA
:102C18000D01886F020E896F000E8A6F000E8B6F90
:102C2800000E0001926F060E936F030EA66F0D0142
:102C3800885189118A118B11D8A402D0010E3CD079
:102C4800040E0001A66F8E518F11D8B406D08EC025
:102C5800D9FF8FC0DAFFDFBE43D0010E016E92C0EC
:102C680002F093C003F0400E046E020E61EC20F0F7
:102C780001C08EF002C08FF0030E0001A66F400E57
:102C88000101085F000E095B0A5B0B5B400E0D013A
:102C9800885F000E895B8A5B8B5B400E0001922780
:102CA800000E93231DD0020E0D018C6F010E016ED4
:102CB800020ED7EC1EF0000E0001A0D70001A651AD
:102CC800000AD8B425D7010AD8B44CD7030AD8B417
:102CD80054D7010AD8B4ABD7070AD8B4B4D7E3D7C6
:102CE8000001A6511200000E1F6E17D01F50010DD3
:102CF800D90EF324F66E8D0EF420F76EF86A000EE6
:102D0800F8221F50010D6E0EF324D96E010EF42027
:102D1800DA6E0800F5CFDFFF1F2A1F50010DD90E0C
:102D2800F324F66E8D0EF420F76EF86A000EF82282
:102D38000800F5500009D8A4D9D7000E1F6E17D087
:102D48001F50010D300EF324F66E8D0EF420F76E31
:102D5800F86A000EF8221F50010D820EF324D96E76
:102D6800010EF420DA6E0800F5CFDFFF1F2A1F508E
:102D7800010D300EF324F66E8D0EF420F76EF86A0E
:102D8800000EF8220800F5500009D8A4D9D7000E83
:102D98001F6E17D01F50010D830EF324F66E8E0E92
:102DA800F420F76EF86A000EF8221F50010D960EF7
:102DB800F324D96E010EF420DA6E0800F5CFDFFF98
:102DC8001F2A1F50010D830EF324F66E8E0EF42079
:102DD800F76EF86A000EF8220800F5500009D8A42A
:102DE800D9D7B5EC3DF001C019F002C01AF01B6A42
:102DF8001C6A1F50010D960EF3241D6E010EF4205F
:102E08001E6E50EC27F01F261F50010D960EF3245E
:102E1800D96E010EF420DA6E2F0EDF6E1F2AA1EC98
:102E28003DF001C019F002C01AF01B6A1C6A1F505D
:102E3800010D960EF3241D6E010EF4201E6E50EC4B
:102E480027F0000E1F6E17D01F50010DC90EF32476
:102E5800F66E8D0EF420F76EF86A000EF8221F50F9
:102E6800010DAA0EF324D96E010EF420DA6E0800C3
:102E7800F5CFDFFF1F2A1F50010DC90EF324F66E90
:102E88008D0EF420F76EF86A000EF8220800F5504F
:102E98000009D8A4D9D7B0EC3DF001C019F002C0A0
:102EA8001AF01B6A1C6A1F50010DAA0EF3241D6E2E
:102EB800010EF4201E6E50EC27F0120045C031F0D0
:102EC80046C032F047C033F048C034F0D6EC28F0A2
:102ED800FF0AD8A4120072EC3CF00001C06FC029B0
:102EE800D8B4120049C04DF04AC04EF04BC04FF064
:102EF8004CC050F00A0E05D0D89050324F324E32A6
:102F08004D32E82EF9D7010E4D24C16F000E4E2028
:102F1800C26FC1C031F0C2C032F077EC2EF00001B0
:102F2800C151311805E1C2513218D8A4120001D09C
:102F38001200000E326E020E316EEDEC31F031C02F
:102F4800C3F032C0C4F0C50E016E000E026E45C05B
:102F580003F046C004F003500410D8A4200E056EF8
:102F6800000E076E080E066E79EC34F0CD0E016E79
:102F7800000E026E47C003F048C004F0035004106E
:102F8800D8A4200E056E000E076E030E066E79ECAF
:102F980034F0000E0001D06F000ED16F000ED26F1A
:102FA800BAEC3DF001C0D3F002C0D4F0BFEC3DF064
:102FB80001C0D5F002C0D6F0D5C0D7F0D6C0D8F041
:102FC800000E0001DA6F000ED96FD3C0DBF0D4C059
:102FD800DCF0D5C0DDF0D6C0DEF0C3C0DFF0C4C081
:102FE800E0F049C0E1F04AC0E2F04BC0E3F04CC069
:102FF800E4F0C50E296E000E2A6EC05151EC36F071
:10300800000E0001BF6F010EBE6F2FD0C151BE1957
:103018000EE1C251BF19D8A40AD0C3C029F0C4C058
:103028002AF0FF0E2C6E2B68B0EC39F01BD0010E85
:103038000001C325316E000EC421326EEDEC31F073
:1030480031C0BCF032C0BDF0C3C029F0C4C02AF002
:10305800BCC02BF0BDC02CF0B0EC39F0BCC0C3F044
:10306800BDC0C4F00001BE4BBF2BBE51C15DBF51F6
:10307800C259D8A01200CAD702501DE1200E015C27
:10308800D8B019D0025010E10B0E015CD8B00CD0AA
:10309800DC0E0124F66E8F0E0220F76EF86A000E21
:1030A800F8220800F55012000B0E01180210D8A4DF
:1030B80002D0080E1200025003E1400E015CD8B0A5
:1030C800A4D0200E015E000E025A025010E1080E34
:1030D800015CD8B00CD0E80E0124F66E8F0E0220E9
:1030E800F76EF86A000EF8220800F5501200025038
:1030F80046E10B0E015CD8B042D0F80E036EFF0E0D
:10310800046E01C005F002C006F003500526045005
:103118000622FA0E0524F66E8F0E0620F76EF86A60
:10312800000EF8220800F5501200200E1200060EBC
:103138001200280E1200780E1200DE0E1200380E51
:1031480012005F0E12004B0E1200000E1200000E4D
:103158001200040E1200770E1200DE0E1200380E56
:103168001200020E1200000E12000C0E1200000EC9
:103178001200000E1200000E1200000E120001C014
:1031880003F002C004F00450000AD8A4F6D7035094
:103198000B0AD8B4CAD7060AD8B4C9D7030AD8B410
:1031A800C8D7010AD8B4C7D71F0AD8B4C6D7010AE6
:1031B800D8B4C5D7030AD8B4C4D7010AD8B4C3D77A
:1031C800070AD8B4C2D7010AD8B4C1D7030AD8B4F9
:1031D800C0D7010AD8B4BFD70F0AD8B4BED7010ADE
:1031E800D8B4BDD7030AD8B4BCD7010AD8B4BBD762
:1031F800070AD8B4BAD7010AD8B4B9D7030AD8B4D9
:10320800B8D7010AD8B4B7D7B8D7000E1200000E45
:10321800226E17D02250010DF90EF324F66E8D0E92
:10322800F420F76EF86A000EF8222250010D6E0E97
:10323800F324D96E010EF420DA6E0800F5CFDFFF13
:10324800222A2250010DF90EF324F66E8D0EF42079
:10325800F76EF86A000EF8220800F5500009D8A4A5
:10326800D9D7000E226E17D02250010DCD0EF324AF
:10327800F66E8C0EF420F76EF86A000EF8222250D3
:10328800010D820EF324D96E010EF420DA6E0800C7
:10329800F5CFDFFF222A2250010DCD0EF324F66E62
:1032A8008C0EF420F76EF86A000EF8220800F5502C
:1032B8000009D8A4D9D7A1EC3DF001C019F002C08B
:1032C8001AF01B6A1C6A960E1D6E010E1E6E50ECDB
:1032D80027F0216E212A000E226E1CD02250010DEB
:1032E800730EF324F66E8E0EF420F76EF86A000E55
:1032F800F822225021C01FF0206A1F26000E20222B
:10330800960E1F24D96E010E2020DA6E0800F5CF24
:10331800DFFF222A2250010D730EF324F66E8E0E63
:10332800F420F76EF86A000EF8220800F55000093C
:10333800D8A4D4D7000E226E17D02250010D660EE5
:10334800F324F66E8D0EF420F76EF86A000EF8225C
:103358002250010DAA0EF324D96E010EF420DA6E64
:103368000800F5CFDFFF222A2250010D660EF32454
:10337800F66E8D0EF420F76EF86A000EF82208003B
:10338800F5500009D8B41200D8D7000E1F6E17D018
:103398001F50010DB90EF324F66E8D0EF420F76E52
:1033A800F86A000EF8221F50010D6E0EF324D96E34
:1033B800010EF420DA6E0800F5CFDFFF1F2A1F5038
:1033C800010DB90EF324F66E8D0EF420F76EF86A2F
:1033D800000EF8220800F5500009D8A4D9D7000E2D
:1033E8001F6E17D01F50010D9F0EF324F66E8E0E20
:1033F800F420F76EF86A000EF8221F50010D820EB5
:10340800F324D96E010EF420DA6E0800F5CFDFFF41
:103418001F2A1F50010D9F0EF324F66E8E0EF42006
:10342800F76EF86A000EF8220800F5500009D8A4D3
:10343800D9D7000E1F6E17D01F50010DA90EF32407
:10344800F66E8D0EF420F76EF86A000EF8221F5003
:10345800010D960EF324D96E010EF420DA6E0800E1
:10346800F5CFDFFF1F2A1F50010DA90EF324F66EBA
:103478008D0EF420F76EF86A000EF8220800F55059
:103488000009D8A4D9D7B0EC3DF001C019F002C0AA
:103498001AF01B6A1C6A1F50010D960EF3241D6E4C
:1034A800010EF4201E6E50EC27F0000E1F6E17D090
:1034B8001F50010D990EF324F66E8D0EF420F76E51
:1034C800F86A000EF8221F50010DAA0EF324D96ED7
:1034D800010EF420DA6E0800F5CFDFFF1F2A1F5017
:1034E800010D990EF324F66E8D0EF420F76EF86A2E
:1034F800000EF8220800F5500009D8B41200D8D7F9
:103508005F50D8A411D0000E656E000E0F01366F03
:10351800160E396F9F0E376F7B0E366F01D065869A
:1035280065A6FDD7010E5F6E5F04D8B465BA09D0F1
:10353800000E626E000E0F01366F36813689020E5C
:103548005F6E62A406D00F0136A503D0629445ECE5
:103558003AF065A202D0A198120062A008D00F012B
:1035680036A105D0E8EC1BF0040E5F6E629062A8ED
:1035780004D00F0136B964EC3BF062AC1CD00F01EB
:1035880036AD0ED0000E116E730E106E000E126E58
:10359800000E136E000E156E010E146E47EC2FF020
:1035A800629CA6EC3CF00001AF51D8A4AF07AF5124
:1035B800D8B4B2EC27F062AA04D00F0136BB0BECEA
:1035C80039F062A212D00F0136A30FD07F0E116E10
:1035D8001068000E126E000E136E000E156E010EAE
:1035E800146E47EC2FF0000E636E040E5F6002D07D
:1035F800A19812000F0136A73CD0000E206E030ED2
:10360800206401D036D062A634D064CFBAF000016D
:10361800BA31E832E8320F0BB16F6296BAB507D00B
:10362800B151010D5E0EF324D96E010E07D00001D1
:10363800B151010D610EF324D96E010EF420DA6E3A
:103648000101DF700001B151D8A403D090EC29F03A
:103658000ED0000E116E720E106EBA0E126E000EA3
:10366800136E000E156E000E146E47EC2FF0202A14
:10367800C6D7A1981200000E016E17D00150010D97
:10368800880EF324F66E8D0EF420F76EF86A000E9D
:10369800F8220150010D6E0EF324D96E010EF420AC
:1036A800DA6E0800F5CFDFFF012A0150010D880E00
:1036B800F324F66E8D0EF420F76EF86A000EF822E9
:1036C8000800F5500009D8A4D9D7000E016E17D00C
:1036D8000150010D770EF324F66E8D0EF420F76E6F
:1036E800F86A000EF8220150010D820EF324D96EFB
:1036F800010EF420DA6E0800F5CFDFFF012A015031
:10370800010D770EF324F66E8D0EF420F76EF86A2D
:10371800000EF8220800F5500009D8A4D9D7000EE9
:10372800016E17D00150010DF60EF324F66E8C0EC3
:10373800F420F76EF86A000EF8220150010D960E7B
:10374800F324D96E010EF420DA6E0800F5CFDFFFFE
:10375800012A0150010DF60EF324F66E8C0EF420AA
:10376800F76EF86A000EF8220800F5500009D8A490
:10377800D9D7000E016E17D00150010D620EF32447
:10378800F66E8E0EF420F76EF86A000EF8220150DD
:10379800010DAA0EF324D96E010EF420DA6E08008A
:1037A800F5CFDFFF012A0150010D620EF324F66EFA
:1037B8008E0EF420F76EF86A000EF8220800F55015
:1037C8000009D8B41200D8D7A098000E636E000E76
:1037D800626E000E0F01266F270E016E0F0E026E2D
:1037E800000E046E000E036E000E066E020E056ECD
:1037F800BFEC3BF0160E0F01396F9F0E376F7B0E33
:10380800366F000E096E0B0E096401D00ED00950F8
:10381800040D000EF324D96E0D0EF420DA6EDE6A64
:10382800DE6ADE6ADD6A092AEED7658C000E0F01B2
:10383800386F6598659C6296000E0001696F000EEE
:103848000101346F000E366F000E356F62B6F3D784
:10385800010E0001AD6F010EAC6F000EAB6F000ED4
:10386800AA6F000EB26F000E096E020E096401D035
:103878002ED00950020D6C0EF324D96E000EF420E0
:10388800DA6E000EDE6E000EDD6E0950020D720E4D
:10389800F324D96E000EF420DA6E000EDE6E000EF0
:1038A800DD6E0950010D610EF324D96E010EF4206E
:1038B800DA6E000EDF6E0950010D5E0EF324D96E2C
:1038C800010EF420DA6E000EDF6E092ACED7080E3C
:1038D80000016C6F0D0E6D6F160E0F01266F0D0E29
:1038E8000D01036F300E026F080E016F040E006F9A
:1038F800008F000E0001BB6F000E0101546F000E17
:10390800556F000E566F000E576F000E0001A96F1D
:10391800000E5F6E1200800E0D013019D8A412003F
:10392800C00E0001696F88D0A40E0001666F8F0E6B
:10393800676F000E6B6F120E6A6F12000D01325125
:10394800D8A443D03251020DA50EF324F66E8E0E84
:10395800F420F76EF86A000EF8220900F5CF66F039
:103968000A00F5CF67F0020E00016625016E000E11
:103978006721026E01C0F6FF02C0F7FFF86A0E0E5B
:10398800F76403D00800F55005D0F6CFE9FFF7CF6C
:10399800EAFFEF5000016A6F030E6625016E000E04
:1039A8006721026E01C0F6FF02C0F7FFF86A0E0E2B
:1039B800F76403D00800F55005D0F6CFE9FFF7CF3C
:1039C800EAFFEF5000016B6F1200000E0001696FF3
:1039D8001200040E0D01326127D03251020D7B0E08
:1039E800F324F66E8E0EF420F76EF86A000EF822B5
:1039F8000900F5CF66F00A00F5CF67F066C0F6FF5C
:103A080067C0F7FFF86A0E0EF76403D00800F55098
:103A180005D0F6CFE9FFF7CFEAFFEF50016E01506E
:103A280000016A6F6B6B1200000E0001696F1200D3
:103A3800000E0001696F12000D013351010AD8B45C
:103A480073D7030AD8B47AD7010AD8B4C2D7F0D743
:103A5800000E216E17D02150010D090EF324F66EC9
:103A68008E0EF420F76EF86A000EF8222150010D30
:103A78006E0EF324D96E010EF420DA6E0800F5CF2D
:103A8800DFFF212A2150010D090EF324F66E8E0E58
:103A9800F420F76EF86A000EF8220800F5500009C5
:103AA800D8A4D9D7000E216E17D02150010D550E7C
:103AB800F324F66E8E0EF420F76EF86A000EF822E4
:103AC8002150010D820EF324D96E010EF420DA6E16
:103AD8000800F5CFDFFF212A2150010D550EF324F0
:103AE800F66E8E0EF420F76EF86A000EF8220800C3
:103AF800F5500009D8A4D9D7000E216E17D021504F
:103B0800010D8A0EF324F66E8E0EF420F76EF86A15
:103B1800000EF8222150010D960EF324D96E010EE5
:103B2800F420DA6E0800F5CFDFFF212A2150010DBD
:103B38008A0EF324F66E8E0EF420F76EF86A000EE5
:103B4800F8220800F5500009D8A4D9D7B5EC3DF003
:103B580001C019F002C01AF01B6A1C6A21501F6EBE
:103B6800206A010E1F26000E2022960E1F241D6EAD
:103B7800010E20201E6E50EC27F01200000120EEEE
:103B880001F09851D9269951DA22DF50026E02507D
:103B98000101355D000E3659D8A035C102F002503A
:103BA800355F000E365B000E016E11D00150010D1D
:103BB800380EF324D96E0D0EF420DA6E31C1E1FF10
:103BC80032C1E2FFDFCFE7FF314B322B012A02502F
:103BD800015CD8A0EBD735513611D8B433D00001E9
:103BE80020EE01F09651D9269751DA22080EDF6EA1
:103BF80020EE02F09651D9269751DA22380EDE6E61
:103C08000D0EDD6E98C0D9FF99C0DAFFDFBC0DD06C
:103C180096C0D9FF97C0DAFF480EDF6E96C0D9FF6D
:103C280097C0DAFF000EDB8E120096C0D9FF97C04E
:103C3800DAFF080EDF6E96C0D9FF97C0DAFF000ED4
:103C4800DB8E1200000120EE01F09651D926975123
:103C5800DA22080EDF6E20EE02F09651D92697512F
:103C6800DA22300EDE6E0D0EDD6E96C0D9FF97C0DB
:103C7800DAFF040EDF6E96C0D9FF97C0DAFF000E98
:103C8800DB8E0101349F0001AE51D8A41200B2ECC2
:103C980027F01200E8C101F0E9C102F001D80AD00A
:103CA8000500FA6E0101E051FD6EE151FE6EFF6AFA
:103CB800FA5012000009D8B40CD001010D51010DC1
:103CC800A20EF324D96E000EF420DA6EDE04D8A416
:103CD80019D00DC149F0010E4A6E000E4B6E492AEB
:103CE80003D0D8904A364B36492EFBD74A1C4C6E27
:103CF8004B1C4D6E4C5001016A174D506B17ACECC4
:103D080034F04ED00DC149F0010E4A6E000E4B6ED4
:103D1800492A03D0D8904A364B36492EFBD70101A1
:103D28006A514A166B514B164A504B10D8A436D0DC
:103D3800E8C101F0E9C102F001D809D00500FA6E26
:103D4800DA51FD6EDB51FE6EFF6AFA501200015027
:103D58000210D8B420D00DC149F0010E4A6E000EF1
:103D68004B6E492A03D0D8904A364B36492EFBD79A
:103D78004A5001016A134B506B132151F00B06098D
:103D8800216F280E2B6F000E2C6F010E0D018C6F0A
:103D98004EEC02F005D0ACEC34F002D04EEC02F060
:103DA8000001A7511200066E0650D8A42CD00001BD
:103DB80020EE01F09651D9269751DA22080EDF6ECF
:103DC80020EE02F09651D9269751DA22300EDE6E97
:103DD8000D0EDD6E96C0D9FF97C0DAFF0C0EDF6EB0
:103DE80096C0D9FF97C0DAFF000EDB8E6CC0D9FFF2
:103DF8006DC0DAFF040EDF6E6CC0D9FF6DC0DAFF4C
:103E0800000EDB8E12000150026E036AD890023653
:103E180003360650046E056AD89004360536D890E5
:103E2800043605360250042603500522D89004367D
:103E38000536D89004360536000E0424076E0D0E9C
:103E48000520086E07C0D9FF08C0DAFF000EDB8422
:103E580007C0D9FF08C0DAFF000EDB8E0650040D3C
:103E6800F3CF02F0F4CF03F00150020DF350022615
:103E7800F4500322D89002360336D890023603361F
:103E8800040E0226000E0322000E0224076E0D0EF9
:103E98000320086E07C0D9FF08C0DAFF000EDB84D4
:103EA80007C0D9FF08C0DAFF000EDB8E1200000E33
:103EB800016E400E026E0D0E036E400E046E020E71
:103EC80061EC20F001C090F002C091F070C08EF05B
:103ED80071C08FF0000E0001A86FA769000EA66FD1
:103EE800000EA56F000EA16F000E0101506F000EAD
:103EF800516F000E526F000E536F000E4C6F000E84
:103F08004D6F000E4E6F000E4F6F010E0001A06F37
:103F1800000E01016B6F000E6A6F000E0D6F46D028
:103F28000D51010DA20EF324D96E000EF420DA6EA5
:103F3800000EDF6EE8C101F0E9C102F001D809D036
:103F48000500FA6EE051FD6EE151FE6EFF6AFA500F
:103F580012000009D8B426D0E8C101F0E9C102F086
:103F680001D80AD00500FA6E0101DA51FD6EDB5165
:103F7800FE6EFF6AFA50120001500210D8B412D037
:103F88000DC10CF0010E0D6E000E0E6E0C2A03D042
:103F9800D8900D360E360C2EFBD70D5001016A1342
:103FA8000E506B13DDEC34F001010D2B0D51D8A42C
:103FB8001200B6D7096E00018E518F11D8B406D001
:103FC8008EC0D9FF8FC0DAFFDFBE12009051911169
:103FD800D8B406D090C0D9FF91C0DAFFDFBE120076
:103FE800A8C00AF0A769000EA66F000EA56F08C149
:103FF80088FD09C189FD0AC18AFD0BC18BFD010E2F
:104008000D018C6F030E0001A86F43D0020E0D0145
:104018008C6F1200010E016E020ED7EC1EF012001A
:10402800020E0D018C6F010E016E020ED7EC1EF010
:104038001200000E016E020ED7EC1EF01200020EE6
:104048000D018C6F000E016E020ED7EC1EF01200EF
:10405800DDEC34F001012151F00B0509216F200E30
:104068002B6F000E2C6F020E0A18D8A40CD0085122
:1040780009110A110B11D8B406D0000E016E020EF8
:10408800D7EC1EF01200010E016E020ED7EC1EF0E6
:1040980012000950010AD8B4B9D7030AD8B4BAD75C
:1040A800010AD8B4BDD7070AD8B4C3D7010AD8B40F
:1040B800C6D77A0AD8A41200CBD7096E0150D8B453
:1040C80007D00950020D6C0EF324D96E000E06D0ED
:1040D8000950020D720EF324D96E000EF420DA6E28
:1040E800DECF0AF0DDCF0BF00A500B10D8A405D0B4
:1040F800000E016E000E026E120020EE02F00A5051
:10410800D9260B50DA2202C0DEFF03C0DDFF20EE05
:1041180001F00A50D9260B50DA2204C0DFFF0AC08A
:10412800D9FF0BC0DAFF400EDF160AC0D9FF0BC05B
:10413800DAFF000EDB860AC0D9FF0BC0DAFF000EDB
:10414800DB8E0150D8B418D00950020D6C0EF32440
:10415800D96E000EF420DA6EDECF05F0DDCF06F062
:10416800040E0518076E0650086E0950020D6C0EF5
:10417800F324D96E000E17D00950020D720EF324E5
:10418800D96E000EF420DA6EDECF05F0DDCF06F032
:10419800040E0518076E0650086E0950020D720EBF
:1041A800F324D96E000EF420DA6E07C0DEFF08C0D3
:1041B800DDFF0AC001F00BC002F012006598000193
:1041C80069BF3CD0010134AF0DD0020E0001B46FBD
:1041D800AA51D8B4D2EC2BF0000E0001AC6F000E3F
:1041E800AD6F1200000120EE01F09651D9269751CB
:1041F800DA22080EDF6E20EE02F09651D92697518A
:10420800DA22300EDE6E0D0EDD6E96C0D9FF97C035
:10421800DAFF0C0EDF6E96C0D9FF97C0DAFF000EEA
:10422800DB8E6CC0D9FF6DC0DAFF040EDF6E6CC088
:10423800D9FF6DC0DAFF000EDB8E12000D0130AF22
:1042480012D0010E0001B46FAB51D8B4D2EC2BF0F0
:10425800000E0001AC6F000EAD6FAE51D8A4120075
:10426800B2EC27F01200020E0001B46F20EE01F04C
:104278009651D9269751DA22080EDF6E20EE02F009
:104288009651D9269751DA22300EDE6E0D0EDD6E6C
:1042980096C0D9FF97C0DAFF040EDF6E96C0D9FF2B
:1042A80097C0DAFF000EDB8E000EAC6F000EAD6F0C
:1042B800AE51D8A41200B2EC27F01200F5C0D9FF15
:1042C800F6C0DAFFDF505E6E7F0E5E645FD034ECBE
:1042D8003DF00009D8B428D0F7C015F0F8C016F0A2
:1042E8002EEC23F01200F5C040F0F6C041F0F7C004
:1042F80042F0F8C043F0D0EC32F01200F5C045F0BF
:10430800F6C046F0F7C047F0F8C048F032EC2BF0A2
:104318001200F5C056F0F6C057F0F7C058F0F8C0D4
:1043280059F09BEC11F012005E50800AD8B4DBD72C
:10433800010AD8B4E3D7030AD8A41200EAD7F7C011
:1043480015F0F8C016F02EEC23F01200F7C005F0B7
:10435800F8C006F0000E076E36EC29F01200F7C020
:1043680005F0F8C006F0010E076E36EC29F01200D1
:10437800F7C005F0F8C006F0A5EC13F01200F7C07E
:1043880001F0F8C002F021EC2CF012005E50100A87
:10439800D8B4D5D7010AD8B4D9D7030AD8B4DFD747
:1043A800010AD8B4E5D7070AD8A41200E8D70D0146
:1043B8003039E832030B0009D8A4120047D00001B5
:1043C800698F080E5F6E12008FEC1CF012009FECD4
:1043D80023F01200BB0E0001666F000E676F698143
:1043E800010E6A6F698F1200E6EC29F01200D6EC14
:1043F8000BF012000D013451010DB60EF32400012B
:10440800666F000EF420676F6981010E6A6F698F0D
:1044180012000001698F0D013451010DB60EF3240D
:10442800D96E000EF420DA6E32CDDFFF1200000ED6
:10443800116E020E106E000E126E000E136E000E3C
:10444800156E000E146E47EC2FF012000D0131515D
:10445800000AD8B4C9D7010AD8B4C9D7020AD8B44F
:10446800C6D7060AD8B4ABD7030AD8B4ADD7010A61
:10447800D8B4DDD70F0AD8B4ADD7010AD8B4A7D7B6
:10448800030AD8B4B7D7010AD8B4C3D7070A1200A9
:104498000D0130511F0BE806D8A412003451D8A4DE
:1044A8001200060E3119D8B41AD022D00001BB056B
:1044B800D8A41ED0B90E666F8E0E676F000E6B6F94
:1044C800090E0BD0C00E696F13D06D0E0001666F18
:1044D8008F0E676F000E6B6F1D0E6A6FF3D70D019D
:1044E8003351210AD8B4E2D7030AD8B4EED7010A67
:1044F8000D013039E832030BE806D8A4120024D0A5
:10450800B90E0001666F000E676F000E6B6F010E2B
:104518006A6FC10E696F1200800E0001696F33CD9A
:10452800B9F01200B80E0001666F000E676F000E3A
:104538006B6F010E6A6F810E696F1200800E0001A9
:10454800696F32CDB8F012000D013151010AD8B4AB
:104558001200030AD8B4D4D7010AD8B4E3D70A0A98
:10456800D8B41200030AD8B4D7D7010AD8A41200C5
:10457800E5D70B500C100D100E10D8A402D0010E68
:1045880001D0000E116E0001A105D8A405D01104B8
:10459800D8A402D0000E12000B50010108191AE12C
:1045A8000C50091917E10D500A1914E10E500B1996
:1045B800D8A410D00001A805D8A406D02A0EA7199F
:1045C800D8B408D0000E12002A0EA719D8A402D019
:1045D800000E1200010108510B5C09510C580A51D8
:1045E8000D580B510E58D8B002D0010E01D0000E54
:1045F8000F6E020E0001A819D8A414D02A0EA7190C
:10460800D8B405D01150D8A402D0050E1DD0A105EC
:10461800D8B40FD01104D8B403D00F04D8A4F5D758
:10462800040E12D02A0EA719D8B40DD0A105D8A40B
:1046380002D0010E09D01104D8B403D00F04D8A4B5
:1046480002D0020E01D0030E106E1050DEEC1FF0E7
:104658001050120015C0D9FF16C0DAFF100EDF6E19
:1046680020EE01F01550D9261650DA22250EDF6EFD
:1046780020EE02F01550D9261650DA22C10EDF6E50
:1046880020EE03F01550D9261650DA2234EC3DF00E
:10469800DF6E20EE04F01550D9261650DA22000EEF
:1046A800DF6E20EE05F01550D9261650DA22010EDD
:1046B800DF6E20EE06F01550D9261650DA22000ECD
:1046C800DF6E20EE07F01550D9261650DA22D0EC0E
:1046D8003DF0DF6E20EE08F01550D9261650DA228C
:1046E80060C0DFFF20EE09F01550D9261650DA22F7
:1046F80061C0DFFF20EE0AF01550D9261650DA22E5
:1047080062C0DFFF20EE0BF01550D9261650DA22D2
:1047180063C0DFFF20EE0CF01550D9261650DA22C0
:1047280064C0DFFF20EE0DF01550D9261650DA22AE
:1047380065C0DFFF12000001698F270E016E0F0EA2
:10474800026E000E046E000E036E000E066E020E60
:10475800056EBFEC3BF0000E016E0D0E026E000EF2
:10476800046E000E036E000E066E300E056EBFEC72
:104778003BF0658C000E186E020E186401D016D03E
:104788001850010D610EF324D96E010EF420DA6E73
:10479800000EDF6E1850010D5E0EF324D96E010E67
:1047A800F420DA6E000EDF6E182AE6D7B60E016E18
:1047B800000E026E000E046E000E036E000E066EF2
:1047C800020E056EBFEC3BF0659C080E00016C6F95
:1047D8000D0E6D6F000E986F0D0E996F98C096F0C4
:1047E80099C097F032CDBBF0BB51D8A403D0100EBE
:1047F8005F6E1200000E116E010E106EBB0E126E6F
:10480800000E136E000E156E010E146E47EC2FF09D
:10481800200E5F6E1200000E0A6E000E0C6E62D043
:104828000C500124066E000E0220076E000E0320B5
:10483800086E000E0420096E0950081004E1900E5D
:10484800075CD8A018D00C500124066E000E022078
:10485800076E000E0320086E000E0420096E095032
:104868000AE1F80E065CFF0E0758010E0858D8B08A
:1048780002D0000E29D00C500124066E000E022032
:10488800076E000E0320086E000E0420096E095002
:1048980008E1F80E065CFF0E0758010E0858D8A06C
:1048A80015D00C500124066E000E0220076E000E73
:1048B8000320086E000E0420096E095007E1020E5D
:1048C800085CD8B003D0010E0B6E01D00B680B2822
:1048D800D8A402D0FF0E12000B500A5CD8A00BC05F
:1048E8000AF00C2A05500C5CD8A09AD70A5012007E
:1048F8003DEC33F0F9EC35F00009D8A400EF48F0AE
:10490800000EACEC37F0E8EC1BF084EC1AF048EC45
:104918003DF03BEC2AF0B2EC3AF000016351D8A428
:10492800F4D751EC25F02AD0000E78EC38F048D0B6
:10493800010E78EC38F044D0020E78EC38F040D014
:10494800030E78EC38F03CD0040E78EC38F038D010
:10495800050E78EC38F034D0D0EC3DF0050AD8A438
:104968002FD00001655120EC26F02AD0D0EC3DF084
:10497800050AD8A425D072EC33F022D00001625188
:10498800070BFD6FFE6BFE51000AD8A419D0FD512C
:10499800000AD8B4C9D7010AD8B4CAD7030AD8B408
:1049A800CBD7010AD8B4CCD7070AD8B4CDD7010AD7
:1049B800D8B4CED7030AD8B4CFD7010AD8B4D6D73B
:1049C800010E0001636FA1D7EFC0D9FFF0C0DAFF75
:1049D8007F0EDF6401D01200010E596E58D0595075
:1049E800010DF3500001EF25D96EF450F021DA6E75
:1049F800990EDE18D8B412002ED05950010DF3507C
:104A0800EF25D96EF450F021DA6EDF504BEC30F020
:104A18000CD05950010DF3500001EF25D96EF45018
:104A2800F021DA6EDF504BEC30F0592A30D0595073
:104A3800010DF3500001EF25D96EF450F021DA6E24
:104A4800DF50576E586A57C054F058C055F030ECD4
:104A58002EF059261CD05950010DF3500001EF25B6
:104A6800D96EF450F021DA6EDF50F00B576E586AA9
:104A78005850000AD8A412005750200AD8B4BDD7FD
:104A8800100AD8B4C6D7600AD8A41200D0D700013B
:104A9800F151595CD8B01200A2D752D0000161512F
:104AA800D8B412003FEC3DF0000E0001616F120017
:104AB8008C90000E876F000E866F020E9E6F12009C
:104AC80084EC3CF0000E0001876F000E866F030E29
:104AD8009E6F1200864B872B875104E1040E865D7A
:104AE800D8A0120095EC3CF0000E0001876F000E74
:104AF800866F040E9E6F120093EC3BF0960E28EC26
:104B08003CF063EC3DF0000E0001876F000E866FED
:104B1800050E9E6F12006051D8A40BD06151D8A425
:104B280008D0862903E18729D8B41200864B872B41
:104B38001200000E876F000E866F79EC31F01200BC
:104B480000019E51000AD8B4A9D7010AD8B4B0D739
:104B5800030AD8B4B5D7010AD8B4BCD7070AD8B461
:104B6800CBD7010AD8A41200D6D726D0800E1200BF
:104B7800020E1200000E1200000E1200040E1200A7
:104B8800180E12000F0E1200010E1200010E120074
:104B9800000E1200000E1200000E1200880E120005
:104BA800130E1200000E1200000E1200550E120015
:104BB800AA0E1200000E120001C003F002C004F099
:104BC8000450010AD8A4F6D70350BE0AD8B4CED7E9
:104BD800010AD8B4CDD77F0AD8B4CCD7010AD8B443
:104BE800CBD7030AD8B4CAD7010AD8B4C9D7070A99
:104BF800D8B4C8D7010AD8B4C7D7030AD8B4C6D717
:104C0800010AD8B4C5D70F0AD8B4C4D7010AD8B492
:104C1800C3D7030AD8B4C2D7010AD8B4C1D7070A80
:104C2800D8B4C0D7010AD8B4BFD7330AD8B4BED7CE
:104C3800010AD8B4BDD7BED72B6E9FEC38F015D07B
:104C48003FEC1BF03BD09CEC14F038D02CEC1DF062
:104C580035D00BEC19F032D098EC07F02FD077EC68
:104C680016F02CD0C9EC19F029D02B50F00B296E76
:104C78002A6A2A50000AD8A421D02950000AD8B498
:104C8800DFD7100AD8B4DFD7300AD8B4DFD7100A74
:104C9800D8B4DFD7700AD8B4DFD7100AD8B4DFD7B2
:104CA800300AD8B4DFD70AD02E0E01017F6F2E0E3E
:104CB80001017E6F2E0E01017D6F15D00001623952
:104CC800E842070B030B296E2A6A2A50000AD8A467
:104CD8000AD02950010AD8B4EDD7030AD8B4E7D7C7
:104CE800010AD8B4E1D7F2AE03D0490E0101806FB2
:104CF80000016151800A7F0FD8A01200580E0101EF
:104D0800BD6F1200080E016E00016B5110E1080E14
:104D18006A5DD8B00CD06AC001F0B551D8A402D0F1
:104D2800010E04D0B505D8A402D0020EB56F01500B
:104D38006A5F000E6B5B20EE01F06C51D9266D5155
:104D4800DA2201C0DFFF380E946F0D0E956F69A14E
:104D58001CD03AD066C0F6FF67C0F7FFF86A94C067
:104D6800D9FF95C0DAFF0E0EF76403D00800F5509E
:104D780005D0F6CFE9FFF7CFEAFFEF50DF6E00016D
:104D8800664B672B944B952B01060150D8B4120043
:104D9800E1D766C0F6FF67C0F7FFF86A94C0D9FF8D
:104DA80095C0DAFF0E0EF76403D00800F55005D061
:104DB800F6CFE9FFF7CFEAFFEF50DF6E0001664B51
:104DC800672B944B952B01060150D8B41200E1D7FC
:104DD8006CC0D9FF6DC0DAFF0001000EDFBC010E08
:104DE800026E040E6C196C6F6D516D6F080E5F18B2
:104DF800D8A40CD00D0132517F0B0F01386F3851F8
:104E0800D8B402D0100E01D0040E5F6E0001B405B4
:104E1800D8A43BD020EE02F06C51D9266D51DA228D
:104E2800380EDE6E0D0EDD6E86EC26F0020E0001E9
:104E3800B519D8A40DD06CC0D9FF6DC0DAFF040E27
:104E4800DF6E6CC0D9FF6DC0DAFF000EDB8E12007A
:104E58000250D8A40DD06CC0D9FF6DC0DAFF480E3F
:104E6800DF6E6CC0D9FF6DC0DAFF000EDB8E12005A
:104E78006CC0D9FF6DC0DAFF080EDF6E6CC0D9FFB9
:104E88006DC0DAFF000EDB8E1200010134BF349FC3
:104E9800000E0001B46F12001DC011F01EC012F008
:104EA80019C013F01AC014F0000E166E0A0E156E13
:104EB8002DEC39F01C501B1006E1100E195C270E62
:104EC8001A58D8A00AD020EE05F01D50D9261E5039
:104ED800DA22200EDF6E050E12001C501B1006E1B0
:104EE800E80E195C030E1A58D8A00AD020EE04F078
:104EF8001D50D9261E50DA22200EDF6E040E120035
:104F08001C501B101A1004E1640E195CD8A00AD0BA
:104F180020EE03F01D50D9261E50DA22200EDF6E37
:104F2800030E12001C501B101A1004E10A0E195C23
:104F3800D8A00AD020EE02F01D50D9261E50DA2241
:104F4800200EDF6E020E120020EE01F01D50D92651
:104F58001E50DA22200EDF6E010E12000001AD5144
:104F6800D8A41200010EAD6FAC51D8A41200010EE6
:104F7800AC6F020EB419D8A415D020EE01F06C5114
:104F8800D9266D51DA22000EDF6E6CC0D9FF6DC0D4
:104F9800DAFF480EDF6E6CC0D9FF6DC0DAFF000E75
:104FA800DB8E1200B405D8A41200000EB06F20EEFC
:104FB80001F09851D9269951DA22080EDF6E20EEB9
:104FC80002F09851D9269951DA22300EDE6E0D0E74
:104FD800DD6E98C0D9FF99C0DAFF040EDF6E98C065
:104FE800D9FF99C0DAFF000EDB8E010EB06F20EEFC
:104FF80001F09651D9269751DA22080EDF6E20EE7D
:1050080002F09651D9269751DA22300EDE6E0D0E37
:10501800DD6E96C0D9FF97C0DAFF800EDF6E1200F2
:105028000D0130511F0BE806D8A412003451D8A442
:1050380012004ED032513311D8A412003651371114
:10504800D8A41200000E0001A86FA769000EA66F71
:10505800000EA56F010EA06F76C00CF077C00DF0A2
:105068000C500D10D8B40AD076C00EF077C00FF0EF
:105078000EC0D9FF0FC0DAFFDFBE0FD0000E016EE1
:10508800400E026E0D0E036E400E046E020E61ECB1
:1050980020F001C090F002C091F0800E0001696F0D
:1050A80012000D0132513311D8A412003605371100
:1050B800D8A41200000E386F380E0001666F0D0E6E
:1050C800676F000E6B6F010E6A6FC10E696F120079
:1050D8000D013151FE0AD8B4E4D7010AD8A4120050
:1050E800A9D753D001C0F6FF02C0F7FFF86A0E0E29
:1050F800F76403D00800F55005D0F6CFE9FFF7CFE5
:10510800EAFFEF500009D8B419D003C0D9FF04C092
:10511800DAFFDF50076E01C0F6FF02C0F7FFF86A3A
:105128000E0EF76403D00800F55005D0F6CFE9FF5E
:10513800F7CFEAFFEF500718D8B423D003C0D9FF40
:1051480004C0DAFFDF50076E086A071E081E074A08
:10515800082A01C0F6FF02C0F7FFF86A0E0EF764CE
:1051680003D00800F55005D0F6CFE9FFF7CFEAFFE6
:10517800EF50096E09500724016E000E0820026ED8
:105188001200014A022A034A042A0506D8A0060684
:105198000528A8E10628D8A4A5D7000E026E000E9F
:1051A800016E1200000E406E000E426E120E416E2D
:1051B800425056E1160E415CD8B052D0000E446EF3
:1051C800000E436E020E445CD8B047D041C029F0AF
:1051D80042C02AF043C02BF044C02CF0000E2E6EC3
:1051E8000B0E2D6E350E2F6E000E306E32EC3BF02E
:1051F8003550D8A402D0FF0E1200E50E3518D8B4E9
:1052080026D031C001F032C002F0350E036E000E18
:10521800046E000E066E080E056E75EC28F001503F
:105228000210D8A414D033C001F034C002F03D0EEF
:10523800036E000E046E000E066E030E056E75EC0E
:1052480028F001500210D8A402D040501200402A81
:10525800200E4326000E4422B5D7414A422AA8D739
:10526800FF0E12000750D8B406D005C0D9FF06C0FB
:10527800DAFF120E05D005C0D9FF06C0DAFF110EFD
:10528800DF6E20EE01F00550D9260650DA22250EF1
:10529800DF6E20EE02F00550D9260650DA22C10E44
:1052A800DF6E030E0D6E0750D8B402D0020E01D087
:1052B800000E0F6E0FC00EF01AD0000E106E130EF7
:1052C800106401D013D010C001F00E50EBEC3BF08D
:1052D800086E0D50010DF3500524D96EF4500620C8
:1052E800DA6E08C0DFFF0D2A102AE9D70E2A0F5000
:1052F800086E096A020E0826000E09220E500A6E70
:105308000B6A08500A5C0B50800A0C6E0950800A20
:105318000C58D8B01200D1D72D0E0001AF6FBAC00B
:105328001EF0FD0E1E16D8A444D0BAC01EF0D890A8
:105338001E323F0E1E161E50040D000EF324986FE9
:105348000D0EF420996F98C096F099C097F0040E4E
:105358009619966F9751976F98C0D9FF99C0DAFF41
:10536800DF30E8320F0B0D0AD8A420D0300E016EC2
:105378000D0E026E20EE02F09851D9269951DA22CC
:10538800DECF1EF0DDCF1FF01EC003F01FC004F0FB
:1053980003500410D8A4200E056E000E076E080EE8
:1053A800066E79EC34F09FEC2DF012003EEC35F0EF
:1053B80012000001BA51FD0B040AD8A41200ECEC4B
:1053C80026F01200000E0D01386F000E396F39D02B
:1053D8000001698F0001B305D8A43ED00D013883C0
:1053E8003BD00001698F38D00001698F0D0134BFAF
:1053F8000AD034510F0B016E0150020D720EF324C6
:10540800D96E000E09D034510F0B016E0150020DF8
:105418006C0EF324D96E000EF420DA6EDECF02F0A3
:10542800DDCF03F002C0D9FF03C0DAFFDFAE14D02E
:1054380002C0D9FF03C0DAFFDFA40ED0010E386F17
:105448000BD030511F0B000AD8B4C2D7010AD8B408
:10545800C8D7030AD8B4C8D7000169AF1200380EFC
:10546800666F0D0E676F6981020E6A6F1200200E5B
:105478005F6001D0120065B2120000018A518B11E1
:10548800D8B406D08AC0D9FF8BC0DAFFDFBE1200BD
:1054980088518911D8B406D088C0D9FF89C0DAFFED
:1054A800DFBE1FD0400EF96FFA6BF9C0F5F0FAC0F5
:1054B800F6F0000EFB6FFC6BFBC0F7F0FCC0F8F0D9
:1054C80062EC21F0010E016E000E026E020E036EF8
:1054D800400E046E010E61EC20F001C088F002C09D
:1054E80089F0400E0001EF6F020EF06F400EF16F71
:1054F800E8EC24F0000E016E400E026E020E036E00
:10550800400E046E010E61EC20F001C08AF002C06A
:105518008BF01200000E2A6E000E296EB20E2B6E52
:10552800020E2C6E00EC3BF0000E306E000E2F6E5B
:10553800020E305CD8B016D0B20E2F24D96E020EEF
:105548003020DA6E2FC001F030C002F0B9EC25F03F
:105558002E6EDE502E18D8B402D0000E12002F4A3C
:10556800302AE6D7000E2A6E010E296EB20E2B6E77
:10557800020E2C6E00EC3BF0000E306E000E2F6E0B
:10558800020E305CD8B016D0B20E2F24D96E020E9F
:105598003020DA6E2FC001F030C002F018EC0DF0A8
:1055A8002E6EDE502E18D8B402D0000E12002F4AEC
:1055B800302AE6D7010E12000AC00EF00BC00FF019
:1055C8000EC001F00FC002F00CC003F00DC004F0D3
:1055D800D6EC37F001C00EF002C00FF0084A092AD5
:1055E8000E500F10D8A4ECD708C0D9FF09C0DAFFB5
:1055F800000EDF6E0806D8A009060AC001F00BC02D
:1056080002F00CC003F00DC004F04EEC39F001506C
:10561800106E0AC001F00BC002F00CC003F00DC000
:1056280004F0D6EC37F001C00AF002C00BF0090E06
:10563800106402D0070E1026300E102608C0D9FFBD
:1056480009C0DAFF10C0DFFF0806D8A009060A5013
:105658000B10D8A4D2D7084A092A120047C0D9FF8C
:1056680048C0DAFF810EDF6E20EE01F04750D926E0
:105678004850DA22250EDF6E20EE02F04750D92678
:105688004850DA22C10EDF6E010E4524316E000E3D
:105698004620326E090E4524336E000E4620346EC5
:1056A800D6EC28F0496E20EE03F04750D926485032
:1056B800DA2249C0DFFF000E4D6E0A0E4D6401D09C
:1056C80012004D50496E4A6A010E4926000E4A22C0
:1056D80049504524D96E4A504620DA6E4D504B6EDB
:1056E8004C6A0C0E4B26000E4C224B504724E16EA0
:1056F8004C504820E26EDFCFE7FF4D2ADED7B60ECA
:10570800316E8F0E326EC70E336E8F0E346ED6EC3E
:1057180028F00001FF6FFF29D8B433D0FF5127ECE0
:1057280032F031C078F032C079F033C07AF034C04A
:105738007BF0000E0001856F000E846F000E7C6FF9
:10574800000E7D6F000E7E6F000E7F6F01014869AD
:1057580049694A694B69000E446F000E456F000E97
:10576800466F000E476F000E406F000E416F000E2F
:10577800426F000E436F100E0001646F100E656FCC
:105788001200000E786F000E796F000E7A6F000E0F
:105798007B6F000E646F000E656F1200000E000133
:1057A800AB6F000EAA6F020EB419D8A41FD020EE5A
:1057B80001F09651D9269751DA22080EDF6E20EEB5
:1057C80002F09651D9269751DA22380EDE6E0D0E68
:1057D800DD6E96C0D9FF97C0DAFF480EDF6E96C01F
:1057E800D9FF97C0DAFF000EDB8E12006A510D0157
:1057F800365D00016B510D013759D8B004D036CD54
:105808006AF037CD6BF086EC26F0000120EE02F04E
:105818006C51D9266D51DA22380EDE6E0D0EDD6E12
:105828006CC0D9FF6DC0DAFF480EDF6E6CC0D9FFBF
:105838006DC0DAFF000EDB8E120001C0D9FF02C076
:10584800DAFF100EDF6E20EE01F00150D92602506B
:10585800DA22250EDF6E20EE02F00150D926025022
:10586800DA22C10EDF6E20EE03F00150D926025075
:10587800DA2239C1DFFF20EE04F00150D9260250A8
:10588800DA223AC1DFFF20EE05F00150D926025096
:10589800DA223BC1DFFF20EE06F00150D926025084
:1058A800DA223CC1DFFF20EE07F00150D926025072
:1058B800DA223DC1DFFF20EE08F00150D926025060
:1058C800DA223EC1DFFF20EE09F00150D92602504E
:1058D800DA223FC1DFFF12000150036E0250046E4E
:1058E800056A066A03500101085D0450095905500C
:1058F8000A5906500B59D8B00ED0000E0D01886F0A
:10590800000E896F000E8A6F000E8B6F08C18CF035
:1059180009C18DF0120000018C51015C8D510258B3
:10592800D8B004D001C08CF002C08DF08C51036E49
:105938008D51046E056A066A031E041E051E061EA6
:10594800032A000E0422052206220101085103241D
:105958000D01886F0101095104200D01896F0101B2
:105968000A5105200D018A6F01010B5106200D0116
:105978008B6F1200E7EC3DF0889E889C888A889897
:105988008896888488928698869A869C869E869031
:1059980086928694869602506A6E01C06BFFFF0E4F
:1059A800096EFF0E0A6E03C00BF004C00CF009501C
:1059B8000B260A500C220CC00BF00C6A0B50666EBA
:1059C8000304676E8C9E888088B0FED7889A888882
:1059D800889688940650686E05C069FFFF0E096EA8
:1059E800FF0E0A6E07C00BF008C00CF009500B261A
:1059F8000A500C220CC00BF00C6A0B50666E0704A0
:105A0800676E888088B0FED78C8E12000001BC6F4C
:105A1800BD0E386E000E396E0001BC51B3EC31F08A
:105A2800000E0001DD6F070EDD6501D014D0DD51D9
:105A3800010DF3504024D96EF4504120DA6EDD5147
:105A4800010DBD0EF324E16E000EF420E26EDFCFEF
:105A5800E7FFDD2BE8D7000EDD6F020EDD6501D014
:105A680018D0DD51010DF3504224D96EF450432073
:105A7800DA6EDD51010D080EF326000EF422BD0E7C
:105A8800F324E16E000EF420E26EDFCFE7FFDD2B9A
:105A9800E4D7BD0E296E000E2A6EBC5151EC36F0CB
:105AA8001200066E000E076E0D0E086E0150026E93
:105AB800036AD890023603360650046E056AD890F9
:105AC80004360536D89004360536025004260350AD
:105AD8000522D89004360536D89004360536045089
