:020000040000FA
:040000000EEF00F00F
:0400080004EF60F0B1
:100018000CEF60F05CEF42F00E500C24D96E0F50DC
:100028000D20DA6E3A0EDE18D8B405D00C680D68CB
:100038000E680F681200020E0E24146E000E0F20B8
:10004800156E14500C24D96E15500D20DA6EDF5041
:10005800036E010E0E24166E000E0F20176E16503A
:100068000C24D96E17500D20DA6EDF5025EC50F0B5
:10007800186E196A12C0D9FF13C0DAFF18C0DEFF64
:1000880019C0DDFF12C0D9FF13C0DAFF010EDB5023
:1000980004E1110EDE5CD8A009D0FC0E0C6EFF0E38
:1000A8000D6EFF0E0E6EFF0E0F6E1200040E0E2464
:1000B800146E000E0F20156E14500C24D96E1550B6
:1000C8000D20DA6EDF50036E050E0E24166E000E3C
:1000D8000F20176E16500C24D96E17500D20DA6EAB
:1000E800DF50046E060E0E24186E000E0F20196ED7
:1000F80018500C24D96E19500D20DA6EDF50056E99
:10010800030E0E241A6E000E0F201B6E1A500C24BC
:10011800D96E1B500D20DA6EDF5019EC45F020EE39
:1001280002F01250D9261350DA2203C0DEFF04C0B1
:10013800DDFF20EE04F01250D9261350DA22080E03
:100148000E24146E000E0F20156E14500C24E16E50
:1001580015500D20E26EE750036E070E0E24166E42
:10016800000E0F20176E16500C24E16E17500D204C
:10017800E26EE75025EC50F0DF6E000E1C6E3DD0AD
:100188001C50010D050EF326000EF422F350122424
:10019800D96EF4501320DA6E1C501CC014F0156A86
:1001A8001426000E15220E5014260F5015220A0E82
:1001B8001426000E152214500C24E16E15500D2043
:1001C800E26EE750036E1C501CC016F0176A162624
:1001D800000E17220E5016260F501722090E16264B
:1001E800000E172216500C24E16E17500D20E26EF7
:1001F800E75025EC50F0DF6E1C2A12C0D9FF13C05F
:10020800DAFF1C50166E176ADE50165CDE5017585F
:10021800D8A0B6D720EE15F01250D9261350DA22FE
:100228001C501CC014F0156A1426000E15220E501E
:1002380014260F5015220A0E1426000E15221450EB
:100248000C24E16E15500D20E26EE750036E1C5031
:100258001CC016F0176A1626000E17220E50162616
:100268000F501722090E1626000E172216500C24BE
:10027800E16E17500D20E26EE75025EC50F0DF6E6E
:1002880012C0D9FF13C0DAFF10EE16F01250E126A3
:100298001350E222DFCFE7FF20EE02F01250D926FA
:1002A8001350DA22DECF14F0DDCF15F015C014F0AC
:1002B800156A20EE16F01250D9261350DA2214507F
:1002C800DF2620EE02F01250D9261350DA22DF5032
:1002D800146E20EE16F01250D9261350DA2214505C
:1002E800DF2620EE04F01250D9261350DA22DF5010
:1002F800146E20EE16F01250D9261350DA2214503C
:10030800DF26000E1C6E17D01C50010D050EF326BB
:10031800000EF422F3501224D96EF4501320DA6E32
:10032800DF50146E20EE16F01250D9261350DA2240
:100338001450DF261C2A12C0D9FF13C0DAFF1C5044
:10034800166E176ADE50165CDE501758D8A0DCD738
:1003580020EE15F01250D9261350DA22DF50146E11
:1003680020EE16F01250D9261350DA221450DF2648
:1003780020EE16F01250D9261350DA22DF50D8B4E6
:1003880009D0FE0E0C6EFF0E0D6EFF0E0E6EFF0EE8
:100398000F6E120020EE04F01250D9261350DA2204
:1003A800DE04D8A409D0000E0C6E000E0D6E000EEF
:1003B8000E6E000E0F6E12001C501CC014F0156A51
:1003C8001426000E15220B0E1424166E000E15208E
:1003D800176E186A17BE18061850196E16500E2692
:1003E80017500F221850102219501122010E0E26F4
:1003F800000E0F22102211220E500C24D96E0F501D
:100408000D20DA6E3A0EDE18D8A409D00EC00CF012
:100418000FC00DF010C00EF011C00FF01200010E49
:100428000E26000E0F22102211220E500C24D96E17
:100438000F500D20DA6E3A0EDE18D8A409D00EC07F
:100448000CF00FC00DF010C00EF011C00FF012002C
:10045800010E0E26000E0F22102211220E500C241F
:10046800D96E0F500D20DA6E3A0EDE18D8A409D0D6
:100478000EC00CF00FC00DF010C00EF011C00FF040
:100488001200FD0E0C6EFF0E0D6EFF0E0E6EFF0EAF
:100498000F6E1200B9D1D4EC1AF00009D8A41200DA
:1004A8000001EA69120025EC0CF00009D8A412003A
:1004B8000001EA691200E505D8A402D0EA69120031
:1004C80012C1DAF013C1D9F0D9C00BF0DAC00CF0C0
:1004D8000D6A0E6A37EC33F00009D8A41200000E3A
:1004E800026E240E016E31EC41F0000E016E060E14
:1004F800026E490E036EBF0E046E03500410D8A49A
:10050800000E056E000E076E240E066E92EC46F085
:10051800FD0E0001EA6F1200C1C101F0C2C102F074
:1005280001D80AD00500FA6E0101B551FD6EB65129
:10053800FE6EFF6AFA50120001C043F002C044F098
:1005480003C045F004C046F0C1C101F0C2C102F0C9
:1005580001D80AD00500FA6E0101B751FD6EB851F5
:10056800FE6EFF6AFA50120001C03FF002C040F070
:10057800416A426A26EE00F046C0DFFF26EE01F02F
:1005880045C0DFFF26EE02F044C0DFFF26EE03F091
:1005980043C0DFFF26EE04F042C0DFFF26EE05F081
:1005A80041C0DFFF26EE06F040C0DFFF26EE07F071
:1005B8003FC0DFFF000E0001DA6F080ED96F000E92
:1005C800026E080E016E31EC41F0FD0E0001EA6F7B
:1005D8001200E505D8A402D0EA691200000EDA6F0D
:1005E800120ED96F000E026E120E016E31EC41F040
:1005F800000E476E110E476401D014D04750010D0C
:100608001F0EF324D96E010EF420DA6E4750010D47
:10061800000EF324E16E060EF420E26EDFCFE7FF52
:10062800472AE8D7FD0E0001EA6F1200030EE8CF53
:1006380000F6000EE8CF01F6C1C101F0C2C102F018
:1006480001D80AD00500FA6E0101BD51FD6EBE51F8
:10065800FE6EFF6AFA5012000009D8A404D0000EFA
:100668003D6E000E03D0000E3D6E800E3C6E26EEF1
:1006780002F03CC0DFFF000EE8CF03F6000E0001D9
:10068800DA6F040ED96F000E026E040E016E31ECA3
:1006980041F0FD0E0001EA6F120001012151F00B3B
:1006A8000509216F200E2B6F000E2C6F010E0D0116
:1006B8008C6F000E886F000E896F000E8A6F000E17
:1006C8008B6F0001EA691200000E0B6E000E0C6EB3
:1006D800000E0D6E000E0E6E37EC33F00009D8A434
:1006E8001200010121510F0B060AD8A407D00D01F1
:1006F8008C05D8A403D00001EA691200F6EC46F094
:10070800000E0D01886F000E896F000E8A6F000EB3
:100718008B6F0001EA691200000E0D01886F000E50
:10072800896F000E8A6F000E8B6F0001EA69120054
:10073800DB51DC11D8B406D0DBC0D9FFDCC0DAFF4E
:10074800DFBE120001010B510A11091104E1400E2C
:10075800085DD8A009D0400E3E6E400E085F000E1E
:10076800095B0A5B0B5B0AD008C13EF0000E086FFC
:10077800000E096F000E0A6F000E0B6F3E503A6EA6
:100788003B6A3A500001D95D3B50DA59D8A005D0F0
:100798003E50D95F000EDA5B1AD0000E476E13D0B8
:1007A800D951DA11D8B404D0D907D8A0DA070AD0B9
:1007B8004750010D000EF324D96E060EF420DA6EB0
:1007C800000EDF6E472A3E50475CD8A0E9D7010EDD
:1007D800016E000E026E060E036E3EC004F0020E9D
:1007E800FCEC2CF001C0DBF002C0DCF00101085188
:1007F80009110A110B11D8A412000001EA691200AC
:100808007F0EF8EC2BF012000001EA51000AD8B470
:100818005BD7030AD8B4DDD6110AD8B44CD6080A77
:10082800D8B404D7010AD8B477D7050AD8B435D7CD
:100838003B0AD8B471D60D0AD8B42DD6020AD8B45A
:1008480032D6050AD8B468D7D20AD8B471D7030A01
:10085800D7D7000E0001A86F000EA76F000E9C6F7F
:10086800000E9D6F000E9E6F000E9F6FD551D61122
:10087800D711D811D8A410D07C0E306E000E316E6E
:10088800FF51E0EC44F096C0FBF097C0FCF0000E7E
:100898000001FA6F000EF96FD5C06EF0D6C06FF088
:1008A800D7C070F0D8C071F000016E1F6F1F701FA5
:1008B800711F6E2B000E6F2370237123D1516E258B
:1008C800726FD2516F21736FD3517021746FD451ED
:1008D8007121756F75517411731104E1320E725DD7
:1008E800D8A01FD0D5C042F0D6C043F0D7C044F03E
:1008F800D8C045F0320E466E000E476E000E486EA8
:10090800000E496E900E4A6E020E4B6EFB0E4C6E38
:10091800000E4D6EF90E4E6E000E4F6ECBEC14F0BD
:1009280034D0D5C042F0D6C043F0D7C044F0D8C0C8
:1009380045F0D5C06EF0D6C06FF0D7C070F0D8C003
:1009480071F000016E1F6F1F701F711F6E2B000E5C
:100958006F2370237123D1516E25466ED2516F21BA
:10096800476ED3517021486ED4517121496E900E53
:100978004A6E020E4B6EFB0E4C6E000E4D6EF90E5B
:100988004E6E000E4F6ECBEC14F0900E0C6E020EF5
:100998000D6E000E0E6E000E0F6E000E106E000E25
:1009A800116E930E126E010E136E10EC00F00CC057
:1009B8009CF00DC09DF00EC09EF00FC09FF001018D
:1009C8007A4B7B2BF10E00019C5DFF0E9D59FF0EAB
:1009D8009E59FF0E9F59D8A006D0500E0101356FC1
:1009E800500E366F120000019C51D5279D51D62319
:1009F8009E51D7239F51D823F9D0010198514C6FAC
:100A08004D6B4E6B4F6B4EC14FF14DC14EF14CC10A
:100A18004DF14C6B99514C134EC14FF14DC14EF1F4
:100A28004CC14DF14C6B4EC14FF14DC14EF14CC113
:100A38004DF14C6B31D78DC1A4F0000E8D6F9551DF
:100A48004C250001A06F010196514D210001A16FB5
:100A5800000E01014E210001A26F000E01014F217D
:100A68000001A36FA451A025016E000EA121026E02
:100A7800000EA221036E000EA321046E33EC50F089
:100A880001C078F002C079F00001A451A025016EE0
:100A9800000EA121026E000EA221036E000EA321FA
:100AA800046EA451000801019325056E68EC35F029
:100AB8000009D8A4F1D60001A751A811D8A410D0D4
:100AC80078C0A7F079C0A8F0A7C016F0A8C017F0A2
:100AD8000BEC4CF011EC51F001C076F002C077F04D
:100AE800A4C0A5F00001A66B5DD0A551A025016E9C
:100AF800A651A121026E000EA221036E000EA321B1
:100B0800046E33EC50F00001A75101182AE1A851F6
:100B18000218D8A426D0A551A025096EA651A12156
:100B28000A6E000EA2210B6E000EA3210C6EA7C048
:100B38000DF0A8C00EF058EC47F009C07AF00AC0D2
:100B48007BF0980E0001A525D96E010EA621DA6E5C
:100B58007A517625E16E7B517721E26EDFCFE7FF90
:100B68001ED09C51D55F9D51D65B9E51D75B9F513E
:100B7800D85B01017A07D8A07B07A5C08DF1A7C073
:100B880009F0A8C00AF0C0EC45F0A7C009F0A8C059
:100B98000AF09BEC3BF00101764B772B1200000129
:100BA800A54BA62B010193510001A55D01019451AC
:100BB8000001A659D8B070D698D70001A751A8113E
:100BC800D8B41200A7C009F0A8C00AF0C0EC45F0DC
:100BD800A7C009F0A8C00AF09BEC3BF00101764BD6
:100BE800772B700E356F700E366F1200010197511A
:100BF800000AD8B420D7010AD8B4DFD7050AD8B478
:100C0800FCD64AD620501F100FE1800E1E5CD8B0CB
:100C18000BD01DC019F01EC01AF021C01BF022C055
:100C28001CF006EC3DF012001D04E10E1E58F50EF6
:100C38001F58050E2058D8A04CD021C011F022C052
:100C480012F01DC001F01EC002F01FC003F020C04A
:100C580004F0100E056E270E066E000E076E000ECD
:100C6800086E73EC43F001C013F002C014F0000EDC
:100C7800166E0A0E156E2CEC4CF0050E2124116E22
:100C8800000E2220126E1DC001F01EC002F01FC00F
:100C980003F020C004F0100E056E270E066E000E3D
:100CA800076E000E086E5FEC46F001C013F002C03C
:100CB80014F0000E166E0A0E156E2CEC4CF020EE99
:100CC80009F02150D9262250DA22200EDF6E090EB3
:100CD8001200205008E1810E1D5C960E1E58980ED9
:100CE8001F58D8A04CD021C011F022C012F01DC04E
:100CF80001F01EC002F01FC003F020C004F0100E67
:100D0800056E270E066E000E076E000E086E73EC59
:100D180043F001C013F002C014F0000E166E0A0E64
:100D2800156E2CEC4CF0040E2124116E000E2220BE
:100D3800126E1DC001F01EC002F01FC003F020C0DB
:100D480004F0100E056E270E066E000E076E000EDC
:100D5800086E5FEC46F001C013F002C014F0000EFC
:100D6800166E0A0E156E2CEC4CF020EE08F0215091
:100D7800D9262250DA22200EDF6E080E12002050EB
:100D880008E1410E1D5C420E1E580F0E1F58D8A0D8
:100D98004CD021C011F022C012F01DC001F01EC0BD
:100DA80002F01FC003F020C004F0100E056E270EDD
:100DB800066E000E076E000E086E73EC43F001C05D
:100DC80013F002C014F0000E166E0A0E156E2CEC0D
:100DD8004CF0030E2124116E000E2220126E1DC04D
:100DE80001F01EC002F01FC003F020C004F0100E76
:100DF800056E270E066E000E076E000E086E5FEC7D
:100E080046F001C013F002C014F0000E166E0A0E70
:100E1800156E2CEC4CF020EE07F02150D92622500C
:100E2800DA22200EDF6E070E1200205008E1A10E14
:100E38001D5C860E1E58010E1F58D8A04CD021C02C
:100E480011F022C012F01DC001F01EC002F01FC038
:100E580003F020C004F0100E056E270E066E000E7B
:100E6800076E000E086E73EC43F001C013F002C069
:100E780014F0000E166E0A0E156E2CEC4CF0020ED5
:100E88002124116E000E2220126E1DC001F01EC01A
:100E980002F01FC003F020C004F0100E056E270EEC
:100EA800066E000E076E000E086E5FEC46F001C07D
:100EB80013F002C014F0000E166E0A0E156E2CEC1C
:100EC8004CF020EE06F02150D9262250DA22200ECE
:100ED800DF6E060E120021C011F022C012F01DC0F4
:100EE80001F01EC002F01FC003F020C004F0100E75
:100EF800056E270E066E000E076E000E086E73EC68
:100F080043F001C013F002C014F0000E166E0A0E72
:100F1800156E2CEC4CF0010E2124116E000E2220CF
:100F2800126E1DC001F01EC002F01FC003F020C0E9
:100F380004F0100E056E270E066E000E076E000EEA
:100F4800086E5FEC46F001C013F002C014F0000E0A
:100F5800166E0A0E156E2CEC4CF020EE05F02150A2
:100F6800D9262250DA22200EDF6E050E1200000E5E
:100F78000001976F000E986F000E996F000E9A6F20
:100F8800D551D611D711D811D8A410D0760E306EFD
:100F9800000E316EFF51E0EC44F090C0FBF091C0C0
:100FA800FCF0000E0001FA6F000EF96FFF5189EC9A
:100FB80045F036C0D1F037C0D2F038C0D3F039C0D0
:100FC800D4F0000E0001966F0F0E966501D0120046
:100FD800D5C06EF0D6C06FF0D7C070F0D8C071F031
:100FE8006E1F6F1F701F711F6E2B000E6F237023F3
:100FF8007123D1516E25726FD2516F21736FD35106
:101008007021746FD4517121756F755174117311FA
:1010180004E1320E725DD8A01FD0D5C042F0D6C010
:1010280043F0D7C044F0D8C045F0320E466E000EEB
:10103800476E000E486E000E496E900E4A6E020E04
:101048004B6EFB0E4C6E000E4D6EF90E4E6E000E82
:101058004F6ECBEC14F034D0D5C042F0D6C043F07C
:10106800D7C044F0D8C045F0D5C06EF0D6C06FF0F8
:10107800D7C070F0D8C071F000016E1F6F1F701FCD
:10108800711F6E2B000E6F2370237123D1516E25B3
:10109800466ED2516F21476ED3517021486ED4519C
:1010A8007121496E900E4A6E020E4B6EFB0E4C6E0D
:1010B800000E4D6EF90E4E6E000E4F6ECBEC14F016
:1010C800900E0C6E020E0D6E000E0E6E000E0F6E60
:1010D800000E106E000E116E930E126E010E136E3E
:1010E80010EC00F00CC097F00DC098F00EC099F00D
:1010F8000FC09AF001017A4B7B2B040E9719D8A4E4
:101108001CD098514C6F4D6B4E6B4F6B4EC14FF1CD
:101118004DC14EF14CC14DF14C6B99514C134EC120
:101128004FF14DC14EF14CC14DF14C6B4EC14FF1D9
:101138004DC14EF14CC14DF14C6B9751D8A45DD0C7
:1011480095514C2500019B6F010196514D210001DD
:101158009C6F000E01014E2100019D6F000E0101E0
:101168004F2100019E6F0101545100019B5D010157
:10117800555100019C590101565100019D59010129
:10118800575100019E59D8B008D09BC054F19CC05B
:1011980055F19DC056F19EC057F19B510101505D1C
:1011A80000019C510101515900019D510101525901
:1011B80000019E5101015359D8B008D09BC050F18D
:1011C8009CC051F19DC052F19EC053F19BC001F0EB
:1011D8009CC002F09DC003F09EC004F093C105F0CE
:1011E80068EC35F0FF0AD8A408D00B0E01018E6F09
:1011F800500E356F500E366F12000001975198113E
:1012080099119A11D8A426D07AC178F17BC179F1C5
:10121800000E01017B6F000E7A6F000E0001D56F82
:10122800000ED66F000ED76F000ED86F000E0101AA
:101238004C6F000E4D6F000E4E6F000E4F6F000E7C
:10124800776F000E766F000E8D6F400E356F400E73
:10125800366F1200F10E0001975DFF0E9859FF0ED0
:101268009959FF0E9A59D8A008D097510F0B010130
:101278008E6F500E356F500EEBD700019751D52762
:101288009851D6239951D7239A51D8230001962BE8
:101298009BD6000E236E17D02350010D980EF32411
:1012A800F66EBD0EF420F76EF86A000EF822235091
:1012B800010D000EF324D96E020EF420DA6E080038
:1012C800F5CFDFFF232A2350010D980EF324F66E85
:1012D800BD0EF420F76EF86A000EF8220800F550EB
:1012E8000009D8A4D9D7000E236E17D02350010DBA
:1012F800E20EF324F66EBC0EF420F76EF86A000EC8
:10130800F8222350010D140EF324D96E020EF42096
:10131800DA6E0800F5CFDFFF232A2350010DE20E15
:10132800F324F66EBC0EF420F76EF86A000EF8226D
:101338000800F5500009D8A4D9D7000E236ED6D0DE
:101348002350010DAA0EF324F66EBC0EF420F76E9E
:10135800F86A000EF8222350010D280EF324D96EE6
:10136800020EF420DA6E0800F5CFDFFF232A23509F
:10137800010DAA0EF324F66EBC0EF420F76EF86A7F
:10138800000EF8220800F5500009D8B4C0D0D8D70C
:101398002350010DF80EF324F66EBD0EF420F76EFF
:1013A800F86A000EF8222350010D280EF324D96E96
:1013B800020EF420DA6E0800F5CFDFFF232A23504F
:1013C800010DF80EF324F66EBD0EF420F76EF86AE0
:1013D800000EF8220800F5500009D8B498D0D8D7E4
:1013E8002350010D070EF324F66EBE0EF420F76E9F
:1013F800F86A000EF8222350010D280EF324D96E46
:10140800020EF420DA6E0800F5CFDFFF232A2350FE
:10141800010D070EF324F66EBE0EF420F76EF86A7F
:10142800000EF8220800F5500009D8B470D0D8D7BB
:101438002350010D250EF324F66EBE0EF420F76E30
:10144800F86A000EF8222350010D280EF324D96EF5
:10145800020EF420DA6E0800F5CFDFFF232A2350AE
:10146800010D250EF324F66EBE0EF420F76EF86A11
:10147800000EF8220800F5500009D8B448D0D8D793
:101488002350010D820EF324F66EBC0EF420F76E85
:10149800F86A000EF8222350010D280EF324D96EA5
:1014A800020EF420DA6E0800F5CFDFFF232A23505E
:1014B800010D820EF324F66EBC0EF420F76EF86A66
:1014C800000EF8220800F5500009D8A4D9D72FEC4F
:1014D80051F001C01DF002C01EF01F6A206A4A0EBA
:1014E800216E020E226E06EC06F011D068EC51F067
:1014F8000B0AD8B4DCD7070AD8B4B1D7010AD8B4D4
:1015080086D7030AD8B45BD7010AD8B430D7000EFF
:10151800236E17D02350010D690EF324F66EBE0E0C
:10152800F420F76EF86A000EF8222350010D3C0EE5
:10153800F324D96E020EF420DA6E0800F5CFDFFF2F
:10154800232A2350010D690EF324F66EBE0EF420F3
:10155800F76EF86A000EF8220800F5500009D8A4C2
:10156800D9D734EC51F001C019F002C01AF0235059
:10157800010D3C0EF3241B6E020EF4201C6E06ECCB
:101588003DF01200000E486E000E476E38C043F062
:1015980039C044F0000E3F6E020E3E6E000E426EE1
:1015A80036503710D8A423D038503910D8B41FD0AB
:1015B8003EC02CF03FC02DF0000E2F6E000E2E6E98
:1015C80031EC38F02CC036F02DC037F036C001F0C1
:1015D80037C002F074EC50F001C03EF002C03FF09A
:1015E80036503710D8A403D036683768120036C092
:1015F8004BF037C04CF0FAD04BC001F04CC002F0B1
:1016080074EC50F001C045F002C046F04BC001F048
:101618004CC002F080EC50F001C049F002C04AF022
:101628004750451804E148504618D8B435D04250C0
:10163800D8B40AD047C020F048C021F0C00E226EAE
:10164800030E236E9EEC49F03EC02CF03FC02DF0F7
:1016580045C02EF046C02FF031EC38F02CC040F0D9
:101668002DC041F040C001F041C002F074EC50F0D0
:1016780001C03EF002C03FF045C028F046C029F046
:10168800C00E2A6E030E2B6ED3EC4DF045C047F00A
:1016980046C048F0000E426E445004E1020E435C1E
:1016A800D8A05CD049C001F04AC002F0C00E036E59
:1016B800030E046EA4EC4BF001C04BF002C04CF0DA
:1016C8004C5004E1020E4B5CD8A006D0DA0E4B5CFD
:1016D8001F0E4C58D8A068D0020E4924016E000E87
:1016E8004A20026EC00E036E030E046E15EC48F01D
:1016F80001C03CF002C03DF03C2803E13D28D8B4CD
:1017080013D0FE0E47244B6EFF0E48204C6E4B50F4
:101718004C6E4B6AD8903D303B6E3C303A6E3A5036
:101728004B123B504C120BD040504110D8A403D060
:1017380036683768120040C04BF041C04CF049C0D1
:1017480001F04AC002F0C00E036E030E046E4BC0D7
:1017580005F04CC006F06EEC4DF024D04304441064
:10176800D8A426D049C001F04AC002F0C00E036ECA
:10177800030E046EA4EC4BF001C04BF002C04CF019
:101788004B2803E14C28D8B40FD049C001F04AC017
:1017980002F0C00E036E030E046EFF0E066E05689F
:1017A8006EEC4DF0010E426E4306D8A044061ED0E2
:1017B80049C001F04AC002F0C00E036E030E046E69
:1017C800A4EC4BF001C04BF002C04CF049C001F052
:1017D8004AC002F0C00E036E030E046E000E066EC1
:1017E800000E056E6EEC4DF0010E426E4350441033
:1017F800D8A402D74C5004E1020E4B5CD8A006D006
:10180800DA0E4B5C1F0E4C58D8A0F6D64250D8B40E
:101818000AD047C020F048C021F0C00E226E030E47
:10182800236E9EEC49F038503910D8B405D036C034
:1018380036F037C037F01200000E376E000E366EE5
:10184800120046D111C163F112C162F113C161F1F5
:1018580014C160F116C1DAF017C1D9F0D951306E50
:10186800DA51316E326A336A090ED8903036313621
:1018780032363336E82EF9D730C00BF031C00CF0D1
:1018880032C00DF033C00EF037EC33F00009D8A4A5
:1018980031D1C1C101F0C2C102F001D80AD005009E
:1018A800FA6E0101BD51FD6EBE51FE6EFF6AFA501F
:1018B80012000009D8B416D0010E0D018C6F010179
:1018C8002151F00B0709216F270E2B6F000E2C6F8B
:1018D800000E016E020E74EC2BF0000E0001E86F92
:1018E800E8511200010E0001EB6FD951DA11D8A4AA
:1018F80002D0000E56D0030EE86F000E0101886F6B
:10190800060E896F000E0D01886F020E896F000E9A
:101918008A6F000E8B6F0D01885189118A118B1106
:10192800D8B41ED00001DD51DE11D8B406D0DDC018
:10193800D9FFDEC0DAFFDFBEDDD0000E016E88C140
:1019480002F089C103F0400E046E020EFCEC2CF08C
:1019580001C0DDF002C0DEF0040E0001E86F23D004
:10196800C1C101F0C2C102F001D80AD00500FA6E67
:101978000101BD51FD6EBE51FE6EFF6AFA501200A4
:101988000009D8B40CD0010E0D018C6F0101215152
:10199800F00B0209216F270E2B6F000E2C6F020E21
:1019A80095D0E86FA7D0DD51DE11D8B406D0DDC0E0
:1019B800D9FFDEC0DAFFDFBE9DD020EE01F0DD5199
:1019C800D926DE51DA22DF50306E30C031F0326A6B
:1019D800336A346A31500101085F3250095B335071
:1019E8000A5B34500B5B000120EE01F0DD51D92673
:1019F800DE51DA22DF50306E30C031F0326A336A9D
:101A0800346A31500D01885F3250895B33508A5BEC
:101A180034508B5B400E01018827000E8923030E8A
:101A280055D00D018C51D8A43BD0C1C125F0C2C1FD
:101A380026F060C127F061C128F062C129F063C1B6
:101A48002AF0000E2B6E060E2C6E010160516111FA
:101A580062116311D8A402D0010E01D0000E2D6EC0
:101A680001D809D00500FA6EBF51FD6EC051FE6E57
:101A7800FF6AFA501200E806D8B412D0640E0001CA
:101A8800E76102D0E72B36D0010E0D018C6F010102
:101A98002151F00B0309216F000E2B6F000E2C6FE4
:101AA800010E01016027000E6123622363230001F8
:101AB800D907D8A0DA07010E74D7020E0D018C6F72
:101AC800000E016E020E74EC2BF0000E000169D7B7
:101AD8000001E851000AD8B4B5D6010AD8B405D730
:101AE800030AD8B49ED7010AD8B415D7070AD8B4C0
:101AF8005AD7E3D70001E8511200410E0001A36F45
:101B080010D19DC055F09EC056F09FC057F0A0C0A0
:101B180058F0A1C059F0A2C05AF0ECEC16F0FED073
:101B28009DC050F09EC051F09FC052F0A0C053F02D
:101B3800A1C054F0A2C055F019EC34F0EFD09DC00C
:101B480059F09EC05AF09FC05BF0A0C05CF0A1C0E5
:101B58005DF0A2C05EF01FEC24F0E0D09DC060F004
:101B68009EC061F09FC062F0A0C063F0A1C064F0A5
:101B7800A2C065F0FCEC2EF0D1D09DC05AF09EC0FA
:101B88005BF09FC05CF0A0C05DF0A1C05EF0A2C099
:101B98005FF0BDEC22F0C2D09DC056F09EC057F059
:101BA8009FC058F0A0C059F0A1C05AF0A2C05BF085
:101BB80014EC10F0B3D09DC027F09EC028F09FC051
:101BC80029F0A0C02AF0A1C02BF0A2C02CF009EC8B
:101BD8003EF0A4D09DC054F09EC055F09FC056F072
:101BE800A0C057F0A1C058F0A2C059F007EC22F0ED
:101BF80095D09DC052F09EC053F09FC054F0A0C035
:101C080055F0A1C056F0A2C057F06FEC23F086D073
:101C18009DC02BF09EC02CF09FC02DF0A0C02EF0D0
:101C2800A1C02FF0A2C030F0CAEC24F077D09DC03C
:101C380094F09EC095F09FC096F0A0C097F0A1C008
:101C480098F0A2C099F07BEC2FF068D09DC001F00D
:101C58009EC002F09FC003F0A0C004F0A1C005F030
:101C6800A2C006F0F4EC38F059D09DC001F09EC037
:101C780002F09FC003F0A0C004F0A1C005F0A2C00C
:101C880006F055EC39F04AD09DC001F09EC002F034
:101C98009FC003F0A0C004F0A1C005F0A2C006F0E8
:101CA80093EC38F03BD09DC001F09EC002F09FC07D
:101CB80003F0A0C004F0A1C005F0A2C006F017EC24
:101CC8003AF02CD09DC001F09EC002F09FC003F0F6
:101CD800A0C004F0A1C005F0A2C006F0D9EC3AF00B
:101CE8001DD09DC001F09EC002F09FC003F0A0C0AF
:101CF80004F0A1C005F0A2C006F0B6EC39F00ED091
:101D08009DC001F09EC002F09FC003F0A0C004F087
:101D1800A1C005F0A2C006F078EC3AF00001A36F6C
:101D28003BD09DC0D9FF9EC0DAFFDF50500AD8B41F
:101D3800E8D6010AD8B4F4D6030AD8B400D7010A01
:101D4800D8B40CD7070AD8B418D7010AD8B424D7FE
:101D5800030AD8B430D7010AD8B43CD70F0AD8B48C
:101D680048D7010AD8B454D7030AD8B460D72A0A86
:101D7800D8B46CD7010AD8B478D7030AD8B484D7B2
:101D8800010AD8B490D7070AD8B49CD7010AD8B4A6
:101D9800A8D7030AD8B4B4D7A35112000D0132054D
:101DA800D8A411D030511F0B0009D8A40CD00001C1
:101DB800C88F030E0D013119D8A402D0010E01D02D
:101DC800000E0001F56F0D013251D8A412003051F8
:101DD8001F0B020AD8A4120034510F0B0009D8B403
:101DE800120034510F0B186E030E18601200200EEB
:101DF8000001F819D8A41200C88F0D0134BF19D0FA
:101E080034510F0B186E1850020D460EF324D96E7C
:101E1800010EF420DA6EDECF1CF0DDCF1DF0345158
:101E28000F0B186E1850010D6E0EF324D96E010EAB
:101E380018D034510F0B186E1850020DCB0EF32426
:101E4800D96E000EF420DA6EDECF1CF0DDCF1DF067
:101E580034510F0B186E1850010D710EF324D96E02
:101E6800010EF420DA6EDF501B6E1BB006D0FB0E9D
:101E78001C141C6EFF0E1D1404D0040E1C101C6EC6
:101E88001D501D6E34BF0AD034510F0B186E1850F8
:101E9800020D460EF324D96E010E09D034510F0BF2
:101EA800186E1850020DCB0EF324D96E000EF420D4
:101EB800DA6E1CC0DEFF1DC0DDFF030E3119D8A489
:101EC8002DD01CC0D9FF1DC0DAFFDFAE1AD034BF39
:101ED8000AD034510F0B186E1850010D6E0EF324F2
:101EE800D96E010E0AD00D0134510F0B186E18501F
:101EF800010D710EF324D96E010EF420DA6E010182
:101F0800DF821CC0D9FF1DC0DAFF000EDB841CC0B5
:101F1800D9FF1DC0DAFF000EDB8E1200040E1C185C
:101F28001C6E1D501D6E1CC0D9FF1DC0DAFFDFAE30
:101F38001BD01CC0D9FF1DC0DAFF7F0EDF161CC0E6
:101F4800D9FF1DC0DAFF000EDB8C000E116E050EE6
:101F5800106E1CC012F01DC013F0000E156E020E9C
:101F6800146E30EC43F006D01CC0D9FF1DC0DAFF58
:101F7800000EDB8C040E1C181C6E1D501D6E1BB24F
:101F880006D01CC0D9FF1DC0DAFFDFAE30D00D016E
:101F980034BF0AD034510F0B186E1850010D6E0E55
:101FA800F324D96E010E0AD00D0134510F0B186EAF
:101FB8001850010D710EF324D96E010EF420DA6E5B
:101FC8000101DF921CC0D9FF1DC0DAFF3B0EDF16EE
:101FD800000E116E050E106E1CC012F01DC013F01D
:101FE800000E156E020E146E30EC43F006D01CC0C5
:101FF800D9FF1DC0DAFF3B0EDF160D0134510F0B60
:10200800186E1850010D260EF324196E0F0EF420C9
:102018001A6E19C0D9FF1AC0DAFFFE0EDF161200B9
:1020280056C0D9FF57C0DAFF550EDE18D8A414D011
:1020380020EE07F05650D9265750DA220F0EDE1838
:10204800D8A40AD020EE08F05650D9265750DA22E4
:102058009B0EDE18D8B402D0410E120020EE01F01B
:102068005650D9265750DA22DF5000018F6F20EEE4
:1020780006F05650D9265750DA22DF505C6E5C5075
:10208800906F916B20EE02F05650D9265750DA2205
:10209800DF505C6E5C50926F936B946B956B94C041
:1020A80095F093C094F092C093F0926B20EE03F0F9
:1020B8005650D9265750DA22DF505C6E5C50921386
:1020C80094C095F093C094F092C093F0926B20EE78
:1020D80004F05650D9265750DA22DF505C6E5C5017
:1020E800921394C095F093C094F092C093F0926BC1
:1020F80020EE05F05650D9265750DA22DF505C6E94
:102108005C50921392C042F093C043F094C044F0E4
:1021180095C045F090C046F091C047F0090E56248E
:10212800486E000E5720496E8F51ACEC13F0000139
:102138008E6F5AC0D9FF5BC0DAFFDF50D8B4A9D080
:102148005AC0D9FF5BC0DAFF380EDF60A2D05AC090
:10215800D9FF5BC0DAFFDFCF5CF0010EDF265C50F1
:10216800010DF3505824D96EF4505920DA6E550EEB
:10217800DF6E5AC0D9FF5BC0DAFFDFCF5CF0010E1B
:10218800DF265C50010DF3505824D96EF4505920C5
:10219800DA6E8FC0DFFF5AC0D9FF5BC0DAFFDFCF2E
:1021A8005CF0010EDF265C50010DF3505824D96E07
:1021B800F4505920DA6E9551DF6E5AC0D9FF5BC0D2
:1021C800DAFFDFCF5CF0010EDF265C50010DF35023
:1021D8005824D96EF4505920DA6E94C0DFFF5AC0E3
:1021E800D9FF5BC0DAFFDFCF5CF0010EDF265C5061
:1021F800010DF3505824D96EF4505920DA6E9351DA
:10220800DF6E5AC0D9FF5BC0DAFFDFCF5CF0010E8A
:10221800DF265C50010DF3505824D96EF450592034
:10222800DA6E92C0DFFF5AC0D9FF5BC0DAFFDFCF9A
:102238005CF0010EDF265C50010DF3505824D96E76
:10224800F4505920DA6E9151DF6E5AC0D9FF5BC045
:10225800DAFFDFCF5CF0010EDF265C50010DF35092
:102268005824D96EF4505920DA6E90C0DFFF5AC056
:10227800D9FF5BC0DAFFDFCF5CF0010EDF265C50D0
:10228800010DF3505824D96EF4505920DA6E8EC0DF
:10229800DFFF9051090F120091D0EB0E12003C0E97
:1022A8001200900E1200F10EF66EBF0EF76E000EC1
:1022B800F86E0800F5501200F20EF66EBF0EF76EBB
:1022C800F86A0800F5501200F30EF66EBF0EF76EAE
:1022D800F86A0800F5501200F40EF66EBF0EF76E9D
:1022E800F86A0800F5501200F50EF66EBF0EF76E8C
:1022F800F86A0800F5501200F60EF66EBF0EF76E7B
:10230800F86A0800F5501200F70EF66EBF0EF76E69
:10231800F86A0800F5501200F80EF66EBF0EF76E58
:10232800F86A0800F5501200000E1200020E1200A2
:10233800010E1200010E1200000E1200010E120012
:10234800400E1200000E1200FF0E12001F0E1200A7
:10235800F80E1200200E1200000E12003F0E12009E
:10236800000E1200100E1200000E1200000E1200D5
:10237800000E1200000E1200000E1200010E1200D4
:10238800000E1200220E1200000E1200000E1200A3
:10239800460E1200410E1200540E1200310E1200A9
:1023A800360E1200200E1200200E1200200E12000F
:1023B800550E1200AA0E1200000E120001C003F002
:1023C80002C004F00450000AD8B404D0010AD8B4FA
:1023D8008DD0F2D70350000AD8B45FD7010AD8B419
:1023E8005ED7030AD8B45DD7010AD8B45CD7070A08
:1023F800D8B462D7010AD8B467D7030AD8B46CD75F
:10240800010AD8B471D70F0AD8B476D7010AD8B45C
:102418007BD7030AD8B480D7010AD8B485D7070A6E
:10242800D8B484D7010AD8B483D7030AD8B482D7DA
:10243800010AD8B481D71F0AD8B480D7010AD8B402
:102448007FD7030AD8B47ED7010AD8B47DD7070A44
:10245800D8B47CD7010AD8B47BD7030AD8B47AD7C2
:10246800010AD8B479D70F0AD8B478D7010AD8B4F2
:1024780077D7030AD8B476D7010AD8B475D7070A2C
:10248800D8B474D7010AD8B473D7030AD8B472D7AA
:10249800010AD8B471D7370AD8B470D7010AD8B4AA
:1024A8006FD7050AD8B46ED7010AD8B46DD7030A16
:1024B800D8B46CD7010AD8B469D7190AD8B468D780
:1024C800010AD8B467D70F0AD8B466D7010AD8B4B6
:1024D80065D7030AD8B464D7010AD8B463D7070A02
:1024E800D8B462D7010AD8B461D766D70350FE0AB8
:1024F800D8B45ED7010AD8B45DD75ED7200E0001E4
:10250800F819D8A4120015D1DD51DE11D8B406D0BF
:10251800DDC0D9FFDEC0DAFFDFBE1200000E526E4A
:102528001E0E526401D014D05250010D400EF324F7
:10253800D96E0D0EF420DA6E5250010D000EF32400
:10254800E16E010EF420E26EDFCFE7FF522AE8D7F2
:10255800000120EE01F0DD51D926DE51DA221F0EEE
:10256800DE18D8A470D0550E010100196CE1530E85
:10257800011969E1420E021966E1430E0319D8A454
:1025880062D0010E906F0D51D8A452D0110E0E6179
:102598004FD00E51D8B44CD00CC14DF03F0E4D1653
:1025A800D8A446D0550E0D01806F530E816F420E90
:1025B800826F530E836F04C184FD05C185FD06C17A
:1025C80086FD07C187FD000E886F000E896F000E1B
:1025D8008A6F000E8B6F000E8C6F0001EA69000E87
:1025E800E96F000EE86F000EE76F030E01010F1987
:1025F800D8B408D02191219321952197000E2B6FF3
:10260800000E2C6F0CAF02D0010E01D0020E00019B
:10261800EB6F0101085109110A110B11D8B402D04E
:10262800000E01D0010E0001E56F0FC1EAF01200A3
:10263800010E016E020E74EC2BF0000E016E020EFC
:1026480074EC2BF01200010E016E020E74EC2BF0EC
:10265800000E016E020E74EC2BF0000E0101906F5B
:10266800120066EC2AF0FF0AD8A41200030E00013B
:10267800EB6F120066EC2AF0FF0AD8A412000D01D5
:102688008C51D8A408D0885189118A118B11D8B4DB
:1026980002D0020E8C6F030E0001EB6F1200CFC048
:1026A8004EF0D0C04FF04E504F10D8B40AD0CFC023
:1026B80050F0D0C051F050C0D9FF51C0DAFFDFBE92
:1026C8001200010E016E800E026E0D0E036E0D0ECD
:1026D800046E020EFCEC2CF001C0DBF002C0DCF052
:1026E8000001DD51DE11D8B406D0DDC0D9FFDEC04F
:1026F800DAFFDFBE0FD0000E016E400E026E0D0E27
:10270800036E400E046E020EFCEC2CF001C0DDF0EE
:1027180002C0DEF0000E0001EB6F1200000EEB6F3E
:10272800020E0D018C6F000E016E020E74EC2BF080
:1027380012000001EB51000AD8B4E6D6010AD8B459
:1027480090D7030AD8B496D7010AD8B4A8D7E6D741
:102758000001626F6E0E306E000E316E0001625124
:10276800E0EC44F00001656F6551D8B402D06551C2
:10277800120042508A5D43508B5944508C59455041
:102788008D59D8B002D0F00E1200465042244A6E3D
:10279800475043204B6E000E44204C6E000E4520DF
:1027A8004D6E4A508A5D4B508B594C508C594D5048
:1027B8008D59D8B00ED042C04AF043C04BF04A1EE3
:1027C8004B1E4A4A4B2A8A514A24466E8B514B204B
:1027D800476E88C038F089C039F042C04AF043C01B
:1027E8004BF044C04CF045C04DF00A0E05D0D890CF
:1027F8004D324C324B324A32E82EF9D74AC03AF0C1
:102808004BC03BF0E2EC40F038C063F039C064F0F4
:10281800000E421400016A6FFE0E43146B6FFF0E28
:1028280044146C6FFF0E45146D6F6AC04AF06BC09C
:102838004BF04A1E4B1E4A4A4B2A42504A24666FA6
:1028480043504B20676F000E6A6F000E6B6F000ECF
:102858006C6F000E6D6F89D0020E67196611D8A4CF
:102868000FD063C030F064C031F0C9EC49F030C01B
:1028780063F031C064F0000E0001676F000E666FF0
:1028880063C001F064C002F0FAEC50F001C060F0DF
:1028980002C061F066C04AF067C04BF04A1E4B1E8A
:1028A8004A4A4B2A000E4A240001686F020E4B2048
:1028B800696F68514A6E69514B6E4C6A4D6A6AC0BD
:1028C8004EF06BC04FF06CC050F06DC051F04E1E12
:1028D8004F1E501E511E4E2A000E4F2250225122CA
:1028E80046504E24526E47504F20536E000E5020D3
:1028F800546E000E5120556E4A50525C4B5053583E
:102908004C5054584D505558D8B00ED06AC04AF063
:102918006BC04BF04A1E4B1E4A4A4B2A46504A246B
:10292800686F47504B20696F60C020F061C021F08C
:1029380066C022F067C023F068C024F069C025F0A3
:102948006A514824266E6B514920276E51EC45F098
:10295800000168516A2769516B23000E6C23000E31
:102968006D23685166276951672346504A6E475060
:102978004B6E4C6A4D6A4A506A5D4B506B594C50CD
:102988006C594D506D59D8A067D7000E120042C03F
:1029980050F043C051F044C052F045C053F00A0E05
:1029A80005D0D8905332523251325032E82EF9D7EE
:1029B80050C066F051C067F04EC0D9FF4FC0DAFF73
:1029C800DE500001665DDE506759D8B002D0FF0EB8
:1029D80012004CC0D9FF4DC0DAFFDECF38F0DDCF92
:1029E80039F04EC0D9FF4FC0DAFFDECF50F0DDCF4F
:1029F80051F0501E511E504A512A665150243A6EC9
:102A0800675151203B6EE2EC40F04CC0D9FF4DC0FD
:102A1800DAFF38C0DEFF39C0DDFF4EC0D9FF4FC036
:102A2800DAFF66C0DEFF67C0DDFF4CC0D9FF4DC0CE
:102A3800DAFFDECF62F0DDCF63F066C050F067C02A
:102A480051F0090ED89050365136E82EFBD750C0B9
:102A58006AF051C06BF000016C6B6D6B6AC050F08E
:102A68006BC051F0501E511E504A512A42505024FA
:102A7800646F43505120656F000E6A6F000E6B6FD4
:102A8800000E6C6F000E6D6F89D0020E651964110F
:102A9800D8A40FD062C030F063C031F0C9EC49F05F
:102AA80030C062F031C063F0000E0001656F000EA7
:102AB800646F62C001F063C002F0FAEC50F001C02C
:102AC80060F002C061F064C050F065C051F0501E63
:102AD800511E504A512A000E50240001686F020E00
:102AE8005120696F6851506E6951516E526A536A2C
:102AF8006AC054F06BC055F06CC056F06DC057F00A
:102B0800541E551E561E571E542A000E5522562274
:102B1800572246505424586E47505520596E4850F5
:102B280056205A6E495057205B6E5050585C515091
:102B3800595852505A5853505B58D8B00ED06AC0A2
:102B480050F06BC051F0501E511E504A512A465049
:102B58005024686F47505120696F60C028F061C0E9
:102B680029F064C02AF065C02BF068C02CF069C059
:102B78002DF06A514A242E6E6B514B202F6EECECCF
:102B88004DF0000168516A2769516B23000E6C23D0
:102B9800000E6D23685164276951652346506A5DAC
:102BA80047506B5948506C5949506D59D8A06DD74A
:102BB800000E1200A0C0D9FFA1C0DAFF820EDF6E9E
:102BC800000120EE01F0A051D926A151DA22C10E50
:102BD800DF6E20EE02F0A051D926A151DA22250E8F
:102BE800DF6E20EE01F09E51D9269F51DA2210EEB9
:102BF80003F0A051E126A151E222DFCFE7FF20EE4A
:102C080002F09E51D9269F51DA2210EE04F0A0510D
:102C1800E126A151E222DFCFE7FF20EE03F09E512B
:102C2800D9269F51DA2210EE05F0A051E126A151D4
:102C3800E222DFCFE7FF20EE04F09E51D9269F5114
:102C4800DA2210EE06F0A051E126A151E222DFCFF0
:102C5800E7FF20EE05F09E51D9269F51DA2210EEAB
:102C680007F0A051E126A151E222DFCFE7FF20EED5
:102C780002F09E51D9269F51DA22DF50A26FA2514D
:102C8800AE6FAF6BB06BB16BB0C0B1F0AFC0B0F0AE
:102C9800AEC0AFF0AE6B20EE03F09E51D9269F5127
:102CA800DA22DF50A26FA251AE13B0C0B1F0AFC0AC
:102CB800B0F0AEC0AFF0AE6B20EE04F09E51D92656
:102CC8009F51DA22DF50A26FA251AE13B0C0B1F00B
:102CD800AFC0B0F0AEC0AFF0AE6B20EE05F09E51C5
:102CE800D9269F51DA22DF50A26FA251AE1320EEEF
:102CF80001F09E51D9269F51DA22DF5089EC45F028
:102D080036C0A6F037C0A7F038C0A8F039C0A9F07F
:102D1800AEC0A2F0AFC0A3F0B0C0A4F0B1C0A5F09F
:102D28000001A21FA31FA41FA51FA22B000EA323EF
:102D3800A423A523A651A225AA6FA751A321AB6F4F
:102D4800A851A421AC6FA951A521AD6FAD51AC110B
:102D5800AB1104E1370EAA5DD8A008D0360EAA6FD1
:102D6800000EAB6F000EAC6F000EAD6F20EE08F0DA
:102D7800A051D926A151DA22AAC0DFFFAEC06EF059
:102D8800AFC06FF0B0C070F0B1C071F0AAC072F0FF
:102D9800ABC073F0ACC074F0ADC075F00A0EA025DE
:102DA800766F000EA121776F20EE01F09E51D92693
:102DB8009F51DA22DF506DEC31F00001A26F20EE56
:102DC80009F0A051D926A151DA22A2C0DFFF1200D2
:102DD80055C0D9FF56C0DAFF500EDE18D8A414D05B
:102DE80020EE06F05550D9265650DA224C0EDE1841
:102DF800D8A40AD020EE07F05550D9265650DA222A
:102E0800EA0EDE18D8B402D0080E120020EE01F047
:102E18005550D9265650DA22DF500001886F20EE2F
:102E280002F05550D9265650DA22DF505B6E5B50BF
:102E3800896F8A6B8B6B8C6B8BC08CF08AC08BF024
:102E480089C08AF0896B20EE03F05550D926565078
:102E5800DA22DF505B6E5B5089138BC08CF08AC01E
:102E68008BF089C08AF0896B20EE04F05550D92682
:102E78005650DA22DF505B6E5B5089138BC08CF0A2
:102E88008AC08BF089C08AF0896B20EE05F0555016
:102E9800D9265650DA22DF505B6E5B50891389C001
:102EA8004DF08AC04EF08BC04FF08CC050F0885166
:102EB800FAEC2FF00001876F59C0D9FF5AC0DAFF2A
:102EC800DF50D8B485D059C0D9FF5AC0DAFF3A0EBE
:102ED800DF607ED059C0D9FF5AC0DAFFDFCF5BF080
:102EE800010EDF265B50010DF3505724D96EF450C4
:102EF8005820DA6E500EDF6E59C0D9FF5AC0DAFF7B
:102F0800DFCF5BF0010EDF265B50010DF350572435
:102F1800D96EF4505820DA6E88C0DFFF59C0D9FF47
:102F28005AC0DAFFDFCF5BF0010EDF265B50010DE0
:102F3800F3505724D96EF4505820DA6E8C51DF6E56
:102F480059C0D9FF5AC0DAFFDFCF5BF0010EDF2688
:102F58005B50010DF3505724D96EF4505820DA6EA7
:102F68008BC0DFFF59C0D9FF5AC0DAFFDFCF5BF053
:102F7800010EDF265B50010DF3505724D96EF45033
:102F88005820DA6E8A51DF6E59C0D9FF5AC0DAFF6D
:102F9800DFCF5BF0010EDF265B50010DF3505724A5
:102FA800D96EF4505820DA6E89C0DFFF59C0D9FFB6
:102FB8005AC0DAFFDFCF5BF0010EDF265B50010D50
:102FC800F3505724D96EF4505820DA6E87C0DFFFCB
:102FD800080E1200000E266E000E256E020E265CEC
:102FE800D8B010D0C00E2524D96E030E2620DA6E74
:102FF80025C001F026C002F03FEC36F0DF6E254A0E
:10300800262AECD7000E216E000E206EC00E226E0E
:10301800030E236E9EEC49F0000E266E000E256E00
:10302800020E265CD8B010D0C00E2524D96E030E2F
:103038002620DA6E25C001F026C002F050EC11F00F
:10304800DF6E254A262AECD7000E216E010E206E6F
:10305800C00E226E030E236E9EEC49F0000E266E03
:10306800000E256E020E265CD8B010D0C00E2524A6
:10307800D96E030E2620DA6E25C001F026C002F0B4
:1030880073EC49F0DF6E254A262AECD7000E216E34
:10309800020E206EC00E226E030E236E9EEC49F0C7
:1030A800000E266E000E256E020E265CD8B00BD0E0
:1030B800C00E2524D96E030E2620DA6E000EDF6EB0
:1030C800254A262AF1D7000E266E030E256E2650B5
:1030D80011E1220E255CD8B00DD025C020F026C005
:1030E80021F0C00E226E030E236E9EEC49F0254A95
:1030F800262AEDD7000E266E000E256E020E265CDF
:10310800D8B010D0C00E2524D96E030E2620DA6E52
:1031180025C001F026C002F092EC1DF0DF6E254AB2
:10312800262AECD7000E216E220E206EC00E226ECB
:10313800030E236E9EEC49F0000E266E000E256EDF
:10314800020E265CD8B00BD0C00E2524D96E030E13
:103158002620DA6E000EDF6E254A262AF1D7000EE9
:10316800266E230E256E265011E1260E255CD8B05A
:103178000DD025C020F026C021F0C00E226E030E0F
:10318800236E9EEC49F0254A262AEDD7000E266EBE
:10319800000E256E020E265CD8B010D0C00E252475
:1031A800D96E030E2620DA6E25C001F026C002F083
:1031B800FAEC4EF0DF6E254A262AECD7000E216E77
:1031C800260E206EC00E226E030E236E9EEC49F072
:1031D800000E120005C0D9FF06C0DAFF130EDF6E1D
:1031E80020EE01F00550D9260650DA22C10EDF6E16
:1031F80020EE02F00550D9260650DA22250EDF6EA1
:10320800CAEC50F001C00CF002C00DF003C00EF083
:1032180004C00FF020EE03F00550D9260650DA223C
:103228000F50DF6E20EE04F00550D9260650DA2242
:103238000EC0DFFF20EE05F00550D9260650DA2231
:103248000D50DF6E20EE06F00550D9260650DA2222
:103258000CC0DFFF34EC51F001C010F002C011F0D7
:1032680020EE07F00550D9260650DA221150DF6EFD
:1032780020EE08F00550D9260650DA2210C0DFFFEC
:103288003EEC51F001C010F002C011F020EE09F040
:103298000550D9260650DA221150DF6E20EE0AF0CA
:1032A8000550D9260650DA2210C0DFFF20EE0BF0B9
:1032B8000550D9260650DA2268EC51F0DF6E39EC59
:1032C80051F001C010F002C011F020EE0CF00550D2
:1032D800D9260650DA221150DF6E20EE0DF0055087
:1032E800D9260650DA2210C0DFFF2AEC51F001C0BF
:1032F80010F002C011F020EE0EF00550D92606504D
:10330800DA221150DF6E20EE0FF00550D926065054
:10331800DA2210C0DFFF2FEC51F001C010F002C01C
:1033280011F020EE10F00550D9260650DA2211507F
:10333800DF6E20EE11F00550D9260650DA2210C0B3
:10334800DFFF20EE12F00550D9260650DA225CEC99
:1033580051F0DF6E20EE13F00550D9260650DA2220
:1033680062EC51F0DF6E20EE14F00550D9260650BD
:10337800DA225FEC51F0DF6E2AEC51F001500A6E50
:103388002B0E0A6402D02B0E0A6E000E0B6E14D0A0
:103398000B50A2EC50F0076E0B50086E096A150E20
:1033A8000826000E092208500524D96E0950062067
:1033B800DA6E07C0DFFF0B2A0A500B5CD8B0120088
:1033C800E7D7000E266E17D02650010DC80EF3243D
:1033D800F66EBD0EF420F76EF86A000EF82226503D
:1033E800010D000EF324D96E020EF420DA6E0800E7
:1033F800F5CFDFFF262A2650010DC80EF324F66EFE
:10340800BD0EF420F76EF86A000EF8220800F55099
:103418000009D8A4D9D7000E266E17D02650010D62
:10342800BD0EF324F66EBC0EF420F76EF86A000E9B
:10343800F8222650010D140EF324D96E020EF42042
:10344800DA6E0800F5CFDFFF262A2650010DBD0EE3
:10345800F324F66EBC0EF420F76EF86A000EF8221C
:103468000800F5500009D8A4D9D7000E266E17D049
:103478002650010D960EF324F66EBE0EF420F76E5C
:10348800F86A000EF8222650010D280EF324D96E92
:10349800020EF420DA6E0800F5CFDFFF262A265048
:1034A800010D960EF324F66EBE0EF420F76EF86A40
:1034B800000EF8220800F5500009D8A4D9D726C074
:1034C80025F0CAEC50F001C01DF002C01EF003C088
:1034D8001FF004C020F02650010D280EF324216EA1
:1034E800020EF420226E06EC06F02526000E266E4B
:1034F8001CD02650010D8F0EF324F66EBE0EF4205C
:10350800F76EF86A000EF822265025C023F0246AC8
:103518002326000E2422280E2324D96E020E2420EE
:10352800DA6E0800F5CFDFFF262A2650010D8F0E30
:10353800F324F66EBE0EF420F76EF86A000EF82239
:103548000800F5500009D8A4D4D7000E266E17D06D
:103558002650010DF40EF324F66EBC0EF420F76E1F
:10356800F86A000EF8222650010D3C0EF324D96E9D
:10357800020EF420DA6E0800F5CFDFFF262A265067
:10358800010DF40EF324F66EBC0EF420F76EF86A03
:10359800000EF8220800F5500009D8B41200D8D758
:1035A800D7D011C163F112C162F113C161F114C125
:1035B80060F116C1DAF017C1D9F0D951366EDA5177
:1035C800376E386A396A090ED89036363736383643
:1035D8003936E82EF9D736C00BF037C00CF038C0B2
:1035E8000DF039C00EF037EC33F00009D8A4C2D082
:1035F800010E0001E96FD951DA11D8A402D0000EEA
:1036080046D0D907D8A0DA07020EE96FDB51DC11E2
:10361800D8B406D0DBC0D9FFDCC0DAFFDFBEAAD041
:10362800C1C12CF0C2C12DF060C12EF061C12FF0D4
:1036380062C130F063C131F0000E326E060E336E97
:1036480001D80AD00500FA6E0101BB51FD6EBC51CC
:10365800FE6EFF6AFA501200E806D8B41AD0640E5B
:103668000001E76102D0E72B85D0020E0D018C6FB7
:1036780001012151F00B0309216F000E2B6F000E81
:103688002C6F010E016E020E74EC2BF05ED0E96F08
:1036980071D0010E01016027000E612362236323AC
:1036A800000E0D01886F020E896F000E8A6F000EE2
:1036B8008B6F000E0101886F060E896F030E0001E3
:1036C800E96F0D01885189118A118B11D8A402D094
:1036D800010E3CD0040E0001E96FDB51DC11D8B4B7
:1036E80006D0DBC0D9FFDCC0DAFFDFBE43D0010E55
:1036F800016E88C102F089C103F0400E046E020E0B
:10370800FCEC2CF001C0DBF002C0DCF0030E000181
:10371800E96F400E0101085F000E095B0A5B0B5B55
:10372800400E0D01885F000E895B8A5B8B5B400E43
:1037380001018827000E89231DD0020E0D018C6F10
:10374800010E016E020E74EC2BF0000E00019FD7E3
:103758000001E951000AD8B424D7010AD8B44BD7DC
:10376800030AD8B453D7010AD8B4ABD7070AD8B4D8
:10377800B4D7E3D70001E9511200000E1D6E17D02F
:103788001D50010DE80EF324F66EBD0EF420F76E01
:10379800F86A000EF8221D50010D000EF324D96EB0
:1037A800020EF420DA6E0800F5CFDFFF1D2A1D5047
:1037B800010DE80EF324F66EBD0EF420F76EF86ADC
:1037C800000EF8220800F5500009D8A4D9D7000E39
:1037D8001D6E17D01D50010D600EF324F66EBE0E3F
:1037E800F420F76EF86A000EF8221D50010D140E31
:1037F800F324D96E020EF420DA6E0800F5CFDFFF4D
:103808001D2A1D50010D600EF324F66EBE0EF42025
:10381800F76EF86A000EF8220800F5500009D8A4DF
:10382800D9D7000E1A6E000E196E1D50010D140E18
:10383800F3241B6E020EF4201C6E06EC3DF01D26D0
:103848001D50010D140EF324D96E020EF420DA6E09
:103858002E0EDF6E1D2A000E1A6E040E196E1D50F4
:10386800010D140EF3241B6E020EF4201C6E06ECE0
:103878003DF01D261D50010D140EF324D96E020EC5
:10388800F420DA6E2E0EDF6E1D2A000E1A6E010E5F
:10389800196E1D50010D140EF3241B6E020EF42038
:1038A8001C6E06EC3DF01D26000E1D6E17D01D5037
:1038B800010DA60EF324F66EBE0EF420F76EF86A1C
:1038C800000EF8221D50010D280EF324D96E020EA9
:1038D800F420DA6E0800F5CFDFFF1D2A1D50010D18
:1038E800A60EF324F66EBE0EF420F76EF86A000EEC
:1038F800F8220800F5500009D8A4D9D7000E1D6E8B
:1039080017D01D50010D160EF324F66EBE0EF420CE
:10391800F76EF86A000EF8221D50010D3C0EF324D4
:10392800D96E020EF420DA6E0800F5CFDFFF1D2AEB
:103938001D50010D160EF324F66EBE0EF420F76E20
:10394800F86A000EF8220800F5500009D8B41200F1
:10395800D8D7000E1D6E17D01D50010D880EF32408
:10396800F66EBD0EF420F76EF86A000EF8221D50B0
:10397800010D000EF324D96E020EF420DA6E080051
:10398800F5CFDFFF1D2A1D50010D880EF324F66EBA
:10399800BD0EF420F76EF86A000EF8220800F55004
:1039A8000009D8A4D9D7000E1D6E17D01D50010DDF
:1039B800D00EF324F66EBC0EF420F76EF86A000EF3
:1039C800F8221D50010D140EF324D96E020EF420B6
:1039D800DA6E0800F5CFDFFF1D2A1D50010DD00E4D
:1039E800F324F66EBC0EF420F76EF86A000EF82287
:1039F8000800F5500009D8A4D9D7000E1D6E17D0BD
:103A08001D50010D810EF324F66EBE0EF420F76EE4
:103A1800F86A000EF8221D50010D280EF324D96E05
:103A2800020EF420DA6E0800F5CFDFFF1D2A1D50C4
:103A3800010D810EF324F66EBE0EF420F76EF86ABF
:103A4800000EF8220800F5500009D8A4D9D734ECA4
:103A580051F001C019F002C01AF01D50010D280ED6
:103A6800F3241B6E020EF4201C6E06EC3DF01D269E
:103A78001D50010D280EF324D96E020EF420DA6EC3
:103A88002F0EDF6E1D2A3EEC51F001C019F002C066
:103A98001AF01D50010D280EF3241B6E020EF4209F
:103AA8001C6E06EC3DF0000E1D6E17D01D50010D6A
:103AB800780EF324F66EBD0EF420F76EF86A000E49
:103AC800F8221D50010D3C0EF324D96E020EF4208D
:103AD800DA6E0800F5CFDFFF1D2A1D50010D780EA4
:103AE800F324F66EBD0EF420F76EF86A000EF82285
:103AF8000800F5500009D8A4D9D739EC51F001C015
:103B080019F002C01AF01D50010D3C0EF3241B6E73
:103B1800020EF4201C6E06EC3DF0120002501DE16E
:103B2800200E015CD8B019D0025010E10B0E015CD8
:103B3800D8B00CD0DC0E0124F66EBF0E0220F76E52
:103B4800F86A000EF8220800F55012000B0E011852
:103B58000210D8A402D0080E1200025003E1400E51
:103B6800015CD8B0A4D0200E015E000E025A0250AB
:103B780010E1080E015CD8B00CD0E80E0124F66EF6
:103B8800BF0E0220F76EF86A000EF8220800F55002
:103B98001200025046E10B0E015CD8B042D0F80E7C
:103BA800036EFF0E046E01C005F002C006F003505C
:103BB800052604500622FA0E0524F66EBF0E0620CE
:103BC800F76EF86A000EF8220800F5501200200E71
:103BD8001200060E1200280E1200780E1200DE0ED9
:103BE8001200380E12005F0E12004B0E1200000E6B
:103BF8001200000E1200040E1200770E1200DE0EE4
:103C08001200380E1200020E1200000E12000C0EE6
:103C18001200000E1200000E1200000E1200000E1C
:103C2800120001C003F002C004F00450000AD8A436
:103C3800F6D703500B0AD8B4CAD7060AD8B4C9D7DE
:103C4800030AD8B4C8D7010AD8B4C7D71F0AD8B44A
:103C5800C6D7010AD8B4C5D7030AD8B4C4D7010A4D
:103C6800D8B4C3D7070AD8B4C2D7010AD8B4C1D7C1
:103C7800030AD8B4C0D7010AD8B4BFD70F0AD8B43A
:103C8800BED7010AD8B4BDD7030AD8B4BCD7010A35
:103C9800D8B4BBD7070AD8B4BAD7010AD8B4B9D7A9
:103CA800030AD8B4B8D7010AD8B4B7D7B8D7000E22
:103CB80012000001F851D8A412D0000E656E000E53
:103CC8000F01366F160E396F9F0E376F7B0E366FEA
:103CD80001D0658665A6FDD7010E0001F86FF805CD
:103CE800D8B465BA0AD0000E626E000E0F01366FA6
:103CF80036813689020E0001F86F62A406D00F01E2
:103D080036A503D0629403EC4DF065A202D0A198C9
:103D1800120062A009D00F0136A106D0C6EC26F029
:103D2800040E0001F86F629062A804D00F0136B942
:103D380088EC4DF062AC1CD00F0136AD0ED0000EF1
:103D4800116E730E106E000E126E000E136E000EC2
:103D5800156E010E146E30EC43F0629C6DEC4FF062
:103D68000001F151D8A4F107F151D8B4CFEC37F0E4
:103D780062AA04D00F0136BBC7EC4BF062A212D086
:103D88000F0136A30FD07F0E116E1068000E126E51
:103D9800000E136E000E156E010E146E30EC43F01B
:103DA800000E636E040E0001F86102D0A1981200A3
:103DB8000F0136A73CD0000E206E030E206401D000
:103DC80036D062A634D064CFFDF00001FD31E83270
:103DD800E8320F0BF36F6296FDB507D0F351010D72
:103DE8006E0EF324D96E010E07D00001F351010DB8
:103DF800710EF324D96E010EF420DA6E0101DF7022
:103E08000001F351D8A403D05EEC3DF00ED0000EB3
:103E1800116E720E106EFD0E126E000E136E000EF5
:103E2800156E000E146E30EC43F0202AC6D7A19808
:103E3800120004000CEC51F001C0C1F002C0C2F045
:103E480007EC51F001C0C3F002C0C4F0C3C0BDF01C
:103E5800C4C0BEF08CEC50F0B8EC47F00009D8B400
:103E680004D0DBEC50F059EC51F0E7EC47F0000ED1
:103E78001FEC4AF0C6EC26F004005DEC1EF0B7EC2F
:103E880050F0ADEC3CF03AEC4DF083A43DD06ACF55
:103E9800BFF00001C06BBF51C06FBF6B6B50BF1349
:103EA800BF07D8A0C00707EC51F001500001BF5F61
:103EB8000250C05BBF51C011D8B426D08890C1C091
:103EC800B2F0C2C0B3F0C3C0B4F0C4C0B5F050EC97
:103ED80021F0C1C0A4F0C2C0A5F0BFC0A6F0C3C005
:103EE800A7F0C4C0A8F0B1EC28F00001C4516A6E74
:103EF800C3C06BFFC251686EC1C069FF000E666E19
:103F08003F0E676EA49E888001013451D8A4B4D7AF
:103F18007DEC2EF025D0000E2BEC46F044D0010E9F
:103F28002BEC46F040D0020E2BEC46F03CD0030EB2
:103F38002BEC46F038D0040E2BEC46F034D0050EAE
:103F48002BEC46F030D001013651F9EC34F02BD08F
:103F580065EC51F0050AD8A426D0F6EC45F023D03C
:103F680001013351070B0001BB6FBC6BBC51000A48
:103F7800D8A419D0BB51000AD8B4CDD7010AD8B4F7
:103F8800CED7030AD8B4CFD7010AD8B4D0D7070AF6
:103F9800D8B4D1D7010AD8B4D2D7030AD8B4D3D762
:103FA800010AD8B4D5D7010E0101346F65D7000EC8
:103FB800206E17D02050010DA80EF324F66EBD0E0A
:103FC800F420F76EF86A000EF8222050010D000E5A
:103FD800F324D96E020EF420DA6E0800F5CFDFFF65
:103FE800202A2050010DA80EF324F66EBD0EF420F1
:103FF800F76EF86A000EF8220800F5500009D8A4F8
:10400800D9D7000E206E17D02050010D6D0EF32465
:10401800F66EBC0EF420F76EF86A000EF8222050F7
:10402800010D140EF324D96E020EF420DA6E080086
:10403800F5CFDFFF202A2050010D6D0EF324F66E18
:10404800BC0EF420F76EF86A000EF8220800F5504E
:104058000009D8A4D9D73EEC51F001C019F002C02C
:104068001AF0280E1B6E020E1C6E06EC3DF01F6E39
:104078001F2A000E206E1CD02050010D710EF32453
:10408800F66EBE0EF420F76EF86A000EF822205085
:104098001FC01DF01E6A1D26000E1E22280E1D249C
:1040A800D96E020E1E20DA6E0800F5CFDFFF202A37
:1040B8002050010D710EF324F66EBE0EF420F76E3B
:1040C800F86A000EF8220800F5500009D8A4D4D7E1
:1040D800000E206E17D02050010D060EF324F66E48
:1040E800BD0EF420F76EF86A000EF8222050010D7C
:1040F8003C0EF324D96E020EF420DA6E0800F5CFD8
:10410800DFFF202A2050010D060EF324F66EBD0EA7
:10411800F420F76EF86A000EF8220800F55000093E
:10412800D8B41200D8D7000E1D6E17D01D50010D3F
:10413800680EF324F66EBD0EF420F76EF86A000ED2
:10414800F8221D50010D000EF324D96E020EF42042
:10415800DA6E0800F5CFDFFF1D2A1D50010D680E2D
:10416800F324F66EBD0EF420F76EF86A000EF822FE
:104178000800F5500009D8A4D9D7000E1D6E17D035
:104188001D50010D9D0EF324F66EBE0EF420F76E41
:10419800F86A000EF8221D50010D140EF324D96E92
:1041A800020EF420DA6E0800F5CFDFFF1D2A1D503D
:1041B800010D9D0EF324F66EBE0EF420F76EF86A1C
:1041C800000EF8220800F5500009D8A4D9D7000E2F
:1041D8001D6E17D01D50010D580EF324F66EBD0E3E
:1041E800F420F76EF86A000EF8221D50010D280E13
:1041F800F324D96E020EF420DA6E0800F5CFDFFF43
:104208001D2A1D50010D580EF324F66EBD0EF42024
:10421800F76EF86A000EF8220800F5500009D8A4D5
:10422800D9D739EC51F001C019F002C01AF01D506D
:10423800010D280EF3241B6E020EF4201C6E06ECF2
:104248003DF0000E1D6E17D01D50010D480EF324D1
:10425800F66EBD0EF420F76EF86A000EF8221D50B7
:10426800010D3C0EF324D96E020EF420DA6E08001C
:10427800F5CFDFFF1D2A1D50010D480EF324F66E01
:10428800BD0EF420F76EF86A000EF8220800F5500B
:104298000009D8B41200D8D7B2C0D9FFB3C0DAFF2A
:1042A800DF500001B66F7F0EB66596D03CD0B2C025
:1042B80038F0B3C039F0B4C03AF0B5C03BF0A7EC61
:1042C80044F01200B2C037F0B3C038F0B4C039F0CF
:1042D800B5C03AF053EC3FF01200B2C09EF0B3C044
:1042E8009FF0B4C0A0F0B5C0A1F0DEEC15F012004C
:1042F800B2C02BF0B3C02CF0B4C02DF0B5C02EF076
:1043080079EC30F01200B4C0D9FFB5C0DAFF990ECD
:10431800DF6E000120EE01F0B451D926B551DA2242
:10432800990EDF6E1200B651800AD8B4C0D7010AC0
:10433800D8B4C8D7030AD8B4D0D7010AD8B4D8D7C4
:10434800E2D7B4C015F0B5C016F0A8EC33F01200EF
:10435800B4C005F0B5C006F0000E076E53EC3CF093
:104368001200B4C005F0B5C006F0010E076E53EC9C
:104378003CF01200B4C005F0B5C006F0EEEC18F041
:104388001200B4C001F0B5C002F044EC40F01200D5
:10439800B4C001F0B5C002F0B2C003F0B3C004F07D
:1043A80003500410D8A4200E056E000E076E400EB0
:1043B800066E92EC46F01200B4C0D9FFB5C0DAFF21
:1043C800990EDF6E000120EE01F0B451D926B551E7
:1043D800DA22990EDF6E1200B651000AD8B4120024
:1043E800100AD8B4AED7010AD8B4B2D7030AD8B4E1
:1043F800B8D7010AD8B4BED7060AD8B4C2D7350A86
:10440800D8B4C6D7D9D754C0D9FF55C0DAFF570E8C
:10441800DE18D8A414D020EE04F05450D9265550F4
:10442800DA221B0EDE18D8A40AD020EE05F054506C
:10443800D9265550DA22350EDE18D8B402D0060E29
:10444800120020EE01F05450D9265550DA22DF50E0
:104458005B6E20EE02F05450D9265550DA22DF5018
:104468005A6E5A505D6E5E6A5D505E6E5D6A20EEF1
:1044780003F05450D9265550DA22DF505A6E5A505C
:104488005D125DC043F05EC044F020EE01F0545070
:10449800D9265550DA22DF50F7EC3BF05C6E58C055
:1044A800D9FF59C0DAFFDF50D8B461D058C0D9FF5E
:1044B80059C0DAFF3C0EDF605AD058C0D9FF59C046
:1044C800DAFFDFCF5AF0010EDF265A50010DF35004
:1044D8005624D96EF4505720DA6E570EDF6E58C046
:1044E800D9FF59C0DAFFDFCF5AF0010EDF265A5044
:1044F800010DF3505624D96EF4505720DA6E5BC084
:10450800DFFF58C0D9FF59C0DAFFDFCF5AF0010EDC
:10451800DF265A50010DF3505624D96EF450572017
:10452800DA6E5E50DF6E58C0D9FF59C0DAFFDFCFB0
:104538005AF0010EDF265A50010DF3505624D96E59
:10454800F4505720DA6E5DC0DFFF58C0D9FF59C05C
:10455800DAFFDFCF5AF0010EDF265A50010DF35073
:104568005624D96EF4505720DA6E5CC0DFFF060E71
:1045780012005AC0D9FF5BC0DAFF540EDE18D8A467
:1045880014D020EE03F05A50D9265B50DA22FE0EE2
:10459800DE18D8A40AD020EE04F05A50D9265B5071
:1045A800DA224B0EDE18D8B402D0410E120020EEEB
:1045B80001F05A50D9265B50DA22DF5000019A6F79
:1045C80020EE02F05A50D9265B50DA22DF50986F5D
:1045D80098519B6F9C6B9BC056F09CC057F0050E82
:1045E8005A24586E000E5B20596E9A51A4EC3FF085
:1045F8000001996F5EC0D9FF5FC0DAFFDF50D8B401
:1046080061D05EC0D9FF5FC0DAFF3C0EDF605AD0D0
:104618005EC0D9FF5FC0DAFFDFCF98F0010EDF265A
:104628009851010DF3505C24D96EF4505D20DA6E78
:10463800540EDF6E5EC0D9FF5FC0DAFFDFCF98F09F
:10464800010EDF269851010DF3505C24D96EF45009
:104658005D20DA6E9AC0DFFF5EC0D9FF5FC0DAFF67
:10466800DFCF98F0010EDF269851010DF3505C243E
:10467800D96EF4505D20DA6E9C51DF6E5EC0D9FFB2
:104688005FC0DAFFDFCF98F0010EDF269851010DE9
:10469800F3505C24D96EF4505D20DA6E9BC0DFFFC6
:1046A8005EC0D9FF5FC0DAFFDFCF98F0010EDF26CA
:1046B8009851010DF3505C24D96EF4505D20DA6EE8
:1046C80099C0DFFF20EE02F05A50D9265B50DA225B
:1046D800DF50050F120052C0D9FF53C0DAFF580E41
:1046E800DE18D8A414D020EE04F05250D926535026
:1046F800DA226A0EDE18D8A40AD020EE05F052504D
:10470800D9265350DA226D0EDE18D8B402D0060E20
:10471800120020EE01F05250D9265350DA22DF5011
:104728005A6E20EE02F05250D9265350DA22DF504A
:10473800586E58505B6E5C6A5B505C6E5B6A20EE2C
:1047480003F05250D9265350DA22DF50586E585091
:104758005B125BC043F05CC044F05A50B4EC43F0C9
:10476800596E56C0D9FF57C0DAFFDF50D8B461D0B0
:1047780056C0D9FF57C0DAFF3C0EDF605AD056C08A
:10478800D9FF57C0DAFFDFCF58F0010EDF265850A7
:10479800010DF3505424D96EF4505520DA6E580E9A
:1047A800DF6E56C0D9FF57C0DAFFDFCF58F0010ED1
:1047B800DF265850010DF3505424D96EF45055207B
:1047C800DA6E5AC0DFFF56C0D9FF57C0DAFFDFCF15
:1047D80058F0010EDF265850010DF3505424D96EBD
:1047E800F4505520DA6E5C50DF6E56C0D9FF57C0C2
:1047F800DAFFDFCF58F0010EDF265850010DF350D5
:104808005424D96EF4505520DA6E5BC0DFFF56C0D1
:10481800D9FF57C0DAFFDFCF58F0010EDF26585016
:10482800010DF3505424D96EF4505520DA6E59C056
:10483800DFFF060E120059C0D9FF5AC0DAFF520E28
:10484800DE18D8A414D020EE10F05950D9265A50AA
:10485800DA22BD0EDE18D8A40AD020EE11F0595085
:10486800D9265A50DA224F0EDE18D8B402D0120ECA
:10487800120020EE0CF05950D9265A50DA22DF5097
:104888005F6E5F500001866F876B886B896B88C08D
:1048980089F087C088F086C087F0866B20EE0DF01F
:1048A8005950D9265A50DA22DF505F6E5F5086136E
:1048B80088C089F087C088F086C087F0866B20EEB4
:1048C8000EF05950D9265A50DA22DF505F6E5F50E9
:1048D800861388C089F087C088F086C087F0866B09
:1048E80020EE0FF05950D9265A50DA22DF505F6E69
:1048F8005F508613010E59244D6E000E5A204E6EDD
:10490800090E59244F6E000E5A20506E86C051F081
:1049180087C052F088C053F089C054F06DEC27F07E
:104928000001856F5DC0D9FF5EC0DAFFDF50D8B4E3
:104938002BD05DC0D9FF5EC0DAFF3F0EDF6024D008
:104948005DC0D9FF5EC0DAFFDFCF5FF0010EDF2662
:104958005F50010DF3505B24D96EF4505C20DA6E81
:10496800520EDF6E5DC0D9FF5EC0DAFFDFCF5FF0A9
:10497800010EDF265F50010DF3505B24D96EF45011
:104988005C20DA6E85C0DFFF120E12002BC0D9FF43
:104998002CC0DAFF590EDE18D8A414D020EE04F08B
:1049A8002B50D9262C50DA22E20EDE18D8A40AD0D1
:1049B80020EE05F02B50D9262C50DA22300EDE18C6
:1049C800D8B402D0410E120020EE01F02B50D926A7
:1049D8002C50DA22DF50316E3150346E356A345043
:1049E800356E346A20EE02F02B50D9262C50DA228C
:1049F800DF50316E3150341220EE03F02B50D9269F
:104A08002C50DA22DF50316E3150326E336A34C0A6
:104A180025F035C026F032C027F033C028F0060E46
:104A28002B24296E000E2C202A6E07EC50F02FC084
:104A3800D9FF30C0DAFFDF50D8B44FD02FC0D9FF2C
:104A480030C0DAFF3D0EDF6048D02FC0D9FF30C03C
:104A5800DAFFDFCF31F0010EDF263150010DF350C0
:104A68002D24D96EF4502E20DA6E590EDF6E2FC029
:104A7800D9FF30C0DAFFDFCF31F0010EDF26315029
:104A8800010DF3502D24D96EF4502E20DA6E3550D6
:104A9800DF6E2FC0D9FF30C0DAFFDFCF31F0010E53
:104AA800DF263150010DF3502D24D96EF4502E20FD
:104AB800DA6E34C0DFFF2FC0D9FF30C0DAFFDFCF96
:104AC80031F0010EDF263150010DF3502D24D96E3F
:104AD800F4502E20DA6E32C0DFFF3250060F12007B
:104AE800000E016E17D00150010D380EF324F66E3A
:104AF800BD0EF420F76EF86A000EF8220150010D81
:104B0800000EF324D96E020EF420DA6E0800F5CFF9
:104B1800DFFF012A0150010D380EF324F66EBD0E99
:104B2800F420F76EF86A000EF8220800F550000924
:104B3800D8A4D9D7000E016E17D00150010D4D0E23
:104B4800F324F66EBE0EF420F76EF86A000EF82213
:104B58000150010D140EF324D96E020EF420DA6E02
:104B68000800F5CFDFFF012A0150010D4D0EF32497
:104B7800F66EBE0EF420F76EF86A000EF8220800F2
:104B8800F5500009D8A4D9D7000E016E17D00150EE
:104B9800010DA50EF324F66EBE0EF420F76EF86A2A
:104BA800000EF8220150010D280EF324D96E020ED2
:104BB800F420DA6E0800F5CFDFFF012A0150010D5D
:104BC800A50EF324F66EBE0EF420F76EF86A000EFA
:104BD800F8220800F5500009D8A4D9D7000E016EB4
:104BE80017D00150010D280EF324F66EBD0EF420E7
:104BF800F76EF86A000EF8220150010D3C0EF324FE
:104C0800D96E020EF420DA6E0800F5CFDFFF012A14
:104C18000150010D280EF324F66EBD0EF420F76E38
:104C2800F86A000EF8220800F5500009D8B41200FE
:104C3800D8D7000E016E17D00150010DD80EF324FD
:104C4800F66EBD0EF420F76EF86A000EF8220150D9
:104C5800010D000EF324D96E020EF420DA6E08005E
:104C6800F5CFDFFF012A0150010DD80EF324F66EAF
:104C7800BD0EF420F76EF86A000EF8220800F55011
:104C88000009D8A4D9D7000E016E17D00150010D24
:104C9800170EF324F66EBD0EF420F76EF86A000EB8
:104CA800F8220150010D140EF324D96E020EF420DF
:104CB800DA6E0800F5CFDFFF012A0150010D170E4B
:104CC800F324F66EBD0EF420F76EF86A000EF82293
:104CD8000800F5500009D8A4D9D7000E016E17D0E6
:104CE8000150010D960EF324F66EBC0EF420F76EFB
:104CF800F86A000EF8220150010D280EF324D96E2F
:104D0800020EF420DA6E0800F5CFDFFF012A015009
:104D1800010D960EF324F66EBC0EF420F76EF86AB9
:104D2800000EF8220800F5500009D8A4D9D7000EC3
:104D3800016E17D00150010D570EF324F66EBE0E0A
:104D4800F420F76EF86A000EF8220150010D3C0EAF
:104D5800F324D96E020EF420DA6E0800F5CFDFFFD7
:104D6800012A0150010D570EF324F66EBE0EF420F1
:104D7800F76EF86A000EF8220800F5500009D8B45A
:104D88001200D8D7A098000E636E000E626E000E57
:104D98000F01266F270E016E0F0E026E000E046EB5
:104DA800000E036E000E066E020E056E8FEC4EF0BE
:104DB800160E0F01396F9F0E376F7B0E366F000E80
:104DC800096E0B0E096401D00ED00950040D000EB7
:104DD800F324D96E0D0EF420DA6EDE6ADE6ADE6A1E
:104DE800DD6A092AEED7658C000E0F01386F6598C9
:104DF800659C6296000E0001C86F000E0101416FAC
:104E0800000E436F000E426F62B6F3D7010E000129
:104E1800EF6F010EEE6F000EED6F000EEC6F000EDF
:104E2800F46F000E096E020E096401D02ED00950ED
:104E3800020DCB0EF324D96E000EF420DA6E000EAC
:104E4800DE6E000EDD6E0950020D460EF324D96E9B
:104E5800010EF420DA6E000EDE6E000EDD6E0950D3
:104E6800010D710EF324D96E010EF420DA6E000ED6
:104E7800DF6E0950010D6E0EF324D96E010EF42079
:104E8800DA6E000EDF6E092ACED7080E0001CB6F4E
:104E98000D0ECC6F160E0F01266F0D0E0D01036F50
:104EA800300E026F080E016F040E006F008F000EA7
:104EB8000001FE6F000E0101646F000E656F000EA9
:104EC800666F000E676F000E926F000E0001F86F9C
:104ED80012004DC02CF04EC02DF04FC02EF050C027
:104EE8002FF089EC34F0FF0AD8B402D0FF0E12007C
:104EF800A3EC4FF00001646F6429D8A402D0FE0E21
:104F08001200FF0E5124556E010E5220566E000EEF
:104F18005320576E000E5420586E0A0E05D0D890B4
:104F28005832573256325532E82EF9D755C060F00C
:104F380056C061F0000E376E000E366E60C038F055
:104F480061C039F0C6EC0AF036C062F037C063F0D1
:104F58000001622905E16329D8A402D0FD0E1200E0
:104F6800650E016E000E026E4DC003F04EC004F0D7
:104F780003500410D8A4200E056E000E076E080E0C
:104F8800066E92EC46F06D0E016E000E026E4FC07A
:104F980003F050C004F003500410D8A4200E056E8E
:104FA800000E076E030E066E92EC46F0000E00012E
:104FB800706F000E716F000E726F43EC51F001C0FC
:104FC80073F002C074F048EC51F001C075F002C0F3
:104FD80076F075C077F076C078F0000E00017A6F31
:104FE800000E796F73C07BF074C07CF075C07DF0E3
:104FF80076C07EF062C07FF063C080F051C081F05F
:1050080052C082F053C083F054C084F0650E296EFC
:10501800000E2A6E6451E9EC4BF000016451120055
:10502800800E0D013019D8A41200C00E0001C86FFF
:1050380088D0A40E0001C56FBF0EC66F000ECA6FE0
:10504800120EC96F12000D013251D8A443D032514B
:10505800020DA30EF324F66EBE0EF420F76EF86A66
:10506800000EF8220900F5CFC5F00A00F5CFC6F00A
:10507800020E0001C525016E000EC621026E01C098
:10508800F6FF02C0F7FFF86A0E0EF76403D00800B7
:10509800F55005D0F6CFE9FFF7CFEAFFEF50000152
:1050A800C96F030EC525016E000EC621026E01C030
:1050B800F6FF02C0F7FFF86A0E0EF76403D0080087
:1050C800F55005D0F6CFE9FFF7CFEAFFEF50000122
:1050D800CA6F1200000E0001C86F1200040E0D0105
:1050E800326127D03251020D790EF324F66EBE0ECE
:1050F800F420F76EF86A000EF8220900F5CFC5F023
:105108000A00F5CFC6F0C5C0F6FFC6C0F7FFF86ABB
:105118000E0EF76403D00800F55005D0F6CFE9FF6E
:10512800F7CFEAFFEF50016E01500001C96FCA6B5B
:105138001200000E0001C86F1200000E0001C86FB7
:1051480012000D013351010AD8B473D7030AD8B439
:105158007AD7010AD8B4C2D7F0D7000E0001AE6FD3
:10516800AE0EAB6F000EAC6FA4C0D9FFA5C0DAFFBE
:105178007F0EDF6401D01200A4C0D9FFA5C0DAFFFA
:10518800200EDE18D8B41200A4C0D9FFA5C0DAFFDB
:10519800DF50D8A418D0A7C0D9FFA8C0DAFF000EE6
:1051A800DF6E20EE01F0A751D926A851DA22C10EF0
:1051B800DF6E20EE02F0A751D926A851DA22250E7B
:1051C800DF6E030EAE6F010EAD6F57D0AD51010DFE
:1051D800F350A425D96EF450A521DA6E990EDE1885
:1051E800D8B412002FD0AD51010DF350A425D96EBB
:1051F800F450A521DA6EDF500AEC37F00BD0AD5130
:10520800010DF350A425D96EF450A521DA6EDF50B4
:105218000AEC37F00001AD2B30D0AD51010DF35041
:10522800A4259D6FF450A5219E6FA7C09FF0A8C02C
:10523800A0F0ABC0A1F0ACC0A2F081EC0DF0000171
:10524800AD271BD0AD51010DF350A425D96EF450F4
:10525800A521DA6EDF50F00BA96FAA6BAA51000ADC
:10526800D8A41200A951200AD8B4BDD7100AD8B4BE
:10527800C6D7600AD8A41200D0D7A651AD5DD8B061
:105288001200A4D7000E1F6E17D01F50010DB80EC4
:10529800F324F66EBD0EF420F76EF86A000EF822BD
:1052A8001F50010D000EF324D96E020EF420DA6EA1
:1052B8000800F5CFDFFF1F2A1F50010DB80EF32499
:1052C800F66EBD0EF420F76EF86A000EF82208009C
:1052D800F5500009D8A4D9D7000E1F6E17D01F505B
:1052E800010D400EF324F66EBE0EF420F76EF86A38
:1052F800000EF8221F50010D140EF324D96E020E71
:10530800F420DA6E0800F5CFDFFF1F2A1F50010DC9
:10531800400EF324F66EBE0EF420F76EF86A000E07
:10532800F8220800F5500009D8A4D9D7000E1F6E3E
:1053380017D01F50010D880EF324F66EBE0EF42010
:10534800F76EF86A000EF8221F50010D280EF3249C
:10535800D96E020EF420DA6E0800F5CFDFFF1F2A9F
:105368001F50010D880EF324F66EBE0EF420F76E62
:10537800F86A000EF8220800F5500009D8A4D9D719
:1053880034EC51F001C019F002C01AF01F501D6E24
:105398001E6A010E1D26000E1E22280E1D241B6EDD
:1053A800020E1E201C6E06EC3DF01200000120EEDD
:1053B80001F0E151D926E251DA22DF50026E0250A3
:1053C8000101425D000E4359D8A042C102F00250CB
:1053D800425F000E435B000E016E11D00150010DBB
:1053E800380EF324D96E0D0EF420DA6E3EC1E1FFBB
:1053F8003FC1E2FFDFCFE7FF3E4B3F2B012A0250C0
:10540800015CD8A0EBD742514311D8B433D0000186
:1054180020EE01F0DF51D926E051DA22080EDF6EC6
:1054280020EE02F0DF51D926E051DA22380EDE6E86
:105438000D0EDD6EE1C0D9FFE2C0DAFFDFBC0DD092
:10544800DFC0D9FFE0C0DAFF480EDF6EDFC0D9FF4A
:10545800E0C0DAFF000EDB8E1200DFC0D9FFE0C02B
:10546800DAFF080EDF6EDFC0D9FFE0C0DAFF000EFA
:10547800DB8E1200000120EE01F0DF51D926E05149
:10548800DA22080EDF6E20EE02F0DF51D926E05155
:10549800DA22300EDE6E0D0EDD6EDFC0D9FFE0C001
:1054A800DAFF040EDF6EDFC0D9FFE0C0DAFF000EBE
:1054B800DB8E0101419F0001F051D8A41200CFEC0E
:1054C80037F01200C1C101F0C2C102F001D80AD000
:1054D8000500FA6E0101B951FD6EBA51FE6EFF6A00
:1054E800FA5012000009D8B40CD001010D51010D79
:1054F800E60EF324D96E000EF420DA6EDE04D8A48A
:1055080019D00DC148F0010E496E000E4A6E482AA6
:1055180003D0D89049364A36482EFBD7491C4B6EE3
:105528004A1C4C6E4B50010184174C508517C5EC32
:1055380046F04ED00DC148F0010E496E000E4A6E7D
:10554800482A03D0D89049364A36482EFBD701015D
:105558008451491685514A1649504A10D8A436D064
:10556800C1C101F0C2C102F001D809D00500FA6E2C
:10557800B351FD6EB451FE6EFF6AFA50120001502D
:105588000210D8B420D00DC148F0010E496E000EAB
:105598004A6E482A03D0D89049364A36482EFBD757
:1055A8004950010184134A5085132151F00B060913
:1055B800216F280E2B6F000E2C6F010E0D018C6FC2
:1055C8004EEC02F005D0C5EC46F002D04EEC02F0ED
:1055D8000001EA511200016E7BD08C849594958469
:1055E80083A4FED78890729A958C95988C98959AF2
:1055F8008C9A959E8C8E550EA76EAA0EA76E0E01DC
:10560800BF91000ED76F1F0EFC6F1F0EFE6F170E97
:10561800FC6F0A0ED56F0B0ED66F160EFD6F550E6A
:10562800A76EAA0EA76EBF81738E738C729E729C32
:1056380072987290729272947296728A000E010138
:105648008C6F12008890729A0F014093550EA76EC6
:10565800AA0EA76E0E01BF910A0ED76F150EFC6F2A
:10566800160EFD6F130EFE6F550EA76EAA0EA76ECF
:10567800BF81729A958A9588959C8C8C9584739E27
:10568800738C729E729C72987250F00B0409726E41
:10569800A49E728A888A8888888688948892869840
:1056A800869A869C869E8690869286948696000E1A
:1056B800666E3F0E676E030E6A6E400E6B6E030ECB
:1056C800686E000E696E8880010E01018C6F1200F1
:1056D8000150000AD8B481D7010AD8A41200B2D761
:1056E800066E0650D8A42CD0000120EE01F0DF5140
:1056F800D926E051DA22080EDF6E20EE02F0DF51E3
:10570800D926E051DA22300EDE6E0D0EDD6EDFC0D6
:10571800D9FFE0C0DAFF0C0EDF6EDFC0D9FFE0C0B2
:10572800DAFF000EDB8ECBC0D9FFCCC0DAFF040E47
:10573800DF6ECBC0D9FFCCC0DAFF000EDB8E1200C3
:105748000150026E036AD890023603360650046E82
:10575800056AD89004360536D890043605360250C6
:10576800042603500522D89004360536D89004360E
:105778000536000E0424076E0D0E0520086E07C0BE
:10578800D9FF08C0DAFF000EDB8407C0D9FF08C0C4
:10579800DAFF000EDB8E0650040DF3CF02F0F4CFD3
:1057A80003F00150020DF3500226F4500322D89062
:1057B80002360336D89002360336040E0226000E4F
:1057C8000322000E0224076E0D0E0320086E07C088
:1057D800D9FF08C0DAFF000EDB8407C0D9FF08C074
:1057E800DAFF000EDB8E1200096E0001DB51DC11BE
:1057F800D8B406D0DBC0D9FFDCC0DAFFDFBE1200A8
:10580800DD51DE11D8B406D0DDC0D9FFDEC0DAFF25
:10581800DFBE1200EBC00AF0EA69000EE96F000E65
:10582800E86F08C188FD09C189FD0AC18AFD0BC15D
:105838008BFD010E0D018C6F030E0001EB6F43D041
:10584800020E0D018C6F1200010E016E020E74EC37
:105858002BF01200020E0D018C6F010E016E020E6C
:1058680074EC2BF01200000E016E020E74EC2BF09B
:105878001200020E0D018C6F000E016E020E74EC08
:105888002BF01200F6EC46F001012151F00B05094E
:10589800216F200E2B6F000E2C6F020E0A18D8A451
:1058A8000CD0085109110A110B11D8B406D0000EFA
:1058B800016E020E74EC2BF01200010E016E020E46
:1058C80074EC2BF012000950010AD8B4B9D7030AB6
:1058D800D8B4BAD7010AD8B4BDD7070AD8B4C3D741
:1058E800010AD8B4C6D77A0AD8A41200CBD7000EBA
:1058F800016E400E026E0D0E036E400E046E020E17
:10590800FCEC2CF001C0DDF002C0DEF0CFC0DBF013
:10591800D0C0DCF0000E0001EB6FEA69000EE96F01
:10592800000EE86F000EE56F000E01015C6F000EBF
:105938005D6F000E5E6F000E5F6F000E586F000EF9
:10594800596F000E5A6F000E5B6F010E906F000EBC
:10595800856F000E846F000E0D6F46D00D51010D3E
:10596800E60EF324D96E000EF420DA6E000EDF6E18
:10597800C1C101F0C2C102F001D809D00500FA6E18
:10598800B951FD6EBA51FE6EFF6AFA501200000955
:10599800D8B426D0C1C101F0C2C102F001D80AD0E2
:1059A8000500FA6E0101B351FD6EB451FE6EFF6A37
:1059B800FA50120001500210D8B412D00DC10CF0E8
:1059C800010E0D6E000E0E6E0C2A03D0D8900D3607
:1059D8000E360C2EFBD70D50010184130E50851383
:1059E800F6EC46F001010D2B0D51D8A41200B6D7E4
:1059F800096E0150D8B407D00950020DCB0EF3241C
:105A0800D96E000E06D00950020D460EF324D96E49
:105A1800010EF420DA6EDECF0AF0DDCF0BF00A506B
:105A28000B10D8A405D0000E016E000E026E1200F5
:105A380020EE02F00A50D9260B50DA2202C0DEFF0F
:105A480003C0DDFF20EE01F00A50D9260B50DA2200
:105A580004C0DFFF0AC0D9FF0BC0DAFF400EDF1613
:105A68000AC0D9FF0BC0DAFF000EDB860AC0D9FFD7
:105A78000BC0DAFF000EDB8E0150D8B418D00950E5
:105A8800020DCB0EF324D96E000EF420DA6EDECFB1
:105A980005F0DDCF06F0040E0518076E0650086EF7
:105AA8000950020DCB0EF324D96E000E17D0095001
:105AB800020D460EF324D96E010EF420DA6EDECF05
:105AC80005F0DDCF06F0040E0518076E0650086EC7
:105AD8000950020D460EF324D96E010EF420DA6E39
