:020000040000FA
:040000000EEF00F00F
:0400080004EF48F0C9
:100018000CEF48F0E5EF2BF00E500C24D96E0F5082
:100028000D20DA6E3A0EDE18D8B405D00C680D68CB
:100038000E680F681200020E0E24146E000E0F20B8
:10004800156E14500C24D96E15500D20DA6EDF5041
:10005800036E010E0E24166E000E0F20176E16503A
:100068000C24D96E17500D20DA6EDF501AEC3FF0D1
:10007800186E196A12C0D9FF13C0DAFF18C0DEFF64
:1000880019C0DDFF12C0D9FF13C0DAFF010EDB5023
:1000980004E1110EDE5CD8A009D0FC0E0C6EFF0E38
:1000A8000D6EFF0E0E6EFF0E0F6E1200040E0E2464
:1000B800146E000E0F20156E14500C24D96E1550B6
:1000C8000D20DA6EDF50036E050E0E24166E000E3C
:1000D8000F20176E16500C24D96E17500D20DA6EAB
:1000E800DF50046E060E0E24186E000E0F20196ED7
:1000F80018500C24D96E19500D20DA6EDF50056E99
:10010800030E0E241A6E000E0F201B6E1A500C24BC
:10011800D96E1B500D20DA6EDF50A3EC34F020EEC0
:1001280002F01250D9261350DA2203C0DEFF04C0B1
:10013800DDFF20EE04F01250D9261350DA22080E03
:100148000E24146E000E0F20156E14500C24E16E50
:1001580015500D20E26EE750036E070E0E24166E42
:10016800000E0F20176E16500C24E16E17500D204C
:10017800E26EE7501AEC3FF0DF6E000E1C6E3DD0C9
:100188001C50010D050EF326000EF422F350122424
:10019800D96EF4501320DA6E1C501CC014F0156A86
:1001A8001426000E15220E5014260F5015220A0E82
:1001B8001426000E152214500C24E16E15500D2043
:1001C800E26EE750036E1C501CC016F0176A162624
:1001D800000E17220E5016260F501722090E16264B
:1001E800000E172216500C24E16E17500D20E26EF7
:1001F800E7501AEC3FF0DF6E1C2A12C0D9FF13C07B
:10020800DAFF1C50166E176ADE50165CDE5017585F
:10021800D8A0B6D720EE15F01250D9261350DA22FE
:100228001C501CC014F0156A1426000E15220E501E
:1002380014260F5015220A0E1426000E15221450EB
:100248000C24E16E15500D20E26EE750036E1C5031
:100258001CC016F0176A1626000E17220E50162616
:100268000F501722090E1626000E172216500C24BE
:10027800E16E17500D20E26EE7501AEC3FF0DF6E8A
:1002880012C0D9FF13C0DAFF10EE16F01250E126A3
:100298001350E222DFCFE7FF20EE02F01250D926FA
:1002A8001350DA22DECF14F0DDCF15F015C014F0AC
:1002B800156A20EE16F01250D9261350DA2214507F
:1002C800DF2620EE02F01250D9261350DA22DF5032
:1002D800146E20EE16F01250D9261350DA2214505C
:1002E800DF2620EE04F01250D9261350DA22DF5010
:1002F800146E20EE16F01250D9261350DA2214503C
:10030800DF26000E1C6E17D01C50010D050EF326BB
:10031800000EF422F3501224D96EF4501320DA6E32
:10032800DF50146E20EE16F01250D9261350DA2240
:100338001450DF261C2A12C0D9FF13C0DAFF1C5044
:10034800166E176ADE50165CDE501758D8A0DCD738
:1003580020EE15F01250D9261350DA22DF50146E11
:1003680020EE16F01250D9261350DA221450DF2648
:1003780020EE16F01250D9261350DA22DF50D8B4E6
:1003880009D0FE0E0C6EFF0E0D6EFF0E0E6EFF0EE8
:100398000F6E120020EE04F01250D9261350DA2204
:1003A800DE04D8A409D0000E0C6E000E0D6E000EEF
:1003B8000E6E000E0F6E12001C501CC014F0156A51
:1003C8001426000E15220B0E1424166E000E15208E
:1003D800176E186A17BE18061850196E16500E2692
:1003E80017500F221850102219501122010E0E26F4
:1003F800000E0F22102211220E500C24D96E0F501D
:100408000D20DA6E3A0EDE18D8A409D00EC00CF012
:100418000FC00DF010C00EF011C00FF01200010E49
:100428000E26000E0F22102211220E500C24D96E17
:100438000F500D20DA6E3A0EDE18D8A409D00EC07F
:100448000CF00FC00DF010C00EF011C00FF012002C
:10045800010E0E26000E0F22102211220E500C241F
:10046800D96E0F500D20DA6E3A0EDE18D8A409D0D6
:100478000EC00CF00FC00DF010C00EF011C00FF040
:100488001200FD0E0C6EFF0E0D6EFF0E0E6EFF0EAF
:100498000F6E1200B9D185EC16F00009D8A412002D
:1004A8000001A169120080EC0AF00009D8A412002A
:1004B8000001A16912009B05D8A402D0A16912000D
:1004C80012C187F013C186F086C00BF087C00CF00C
:1004D8000D6A0E6AFFEC25F00009D8A41200000E80
:1004E800026E240E016E72EC2FF0000E016E060EE5
:1004F800026E490E036E8F0E046E03500410D8A4CA
:10050800000E056E000E076E240E066EBEEC36F069
:10051800FD0E0001A16F1200F2C101F0F3C102F05B
:1005280001D80AD00500FA6E0101E651FD6EE751C7
:10053800FE6EFF6AFA50120001C043F002C044F098
:1005480003C045F004C046F0F2C101F0F3C102F067
:1005580001D80AD00500FA6E0101E851FD6EE95193
:10056800FE6EFF6AFA50120001C03FF002C040F070
:10057800416A426A26EE00F046C0DFFF26EE01F02F
:1005880045C0DFFF26EE02F044C0DFFF26EE03F091
:1005980043C0DFFF26EE04F042C0DFFF26EE05F081
:1005A80041C0DFFF26EE06F040C0DFFF26EE07F071
:1005B8003FC0DFFF000E0001876F080E866F000E38
:1005C800026E080E016E72EC2FF0FD0E0001A16F95
:1005D80012009B05D8A402D0A1691200000E876FF3
:1005E800120E866F000E026E120E016E72EC2FF064
:1005F800000E476E110E476401D014D04750010D0C
:100608001F0EF324D96E010EF420DA6E4750010D47
:10061800000EF324E16E060EF420E26EDFCFE7FF52
:10062800472AE8D7FD0E0001A16F1200030EE8CF9C
:1006380000F6000EE8CF01F6F2C101F0F3C102F0B6
:1006480001D80AD00500FA6E0101EE51FD6EEF5196
:10065800FE6EFF6AFA5012000009D8A404D0000EFA
:100668003D6E000E03D0000E3D6E800E3C6E26EEF1
:1006780002F03CC0DFFF000EE8CF03F6000E0001D9
:10068800876F040E866F000E026E040E016E72EC08
:100698002FF0FD0E0001A16F120001012151F00B96
:1006A8000509216F200E2B6F000E2C6F010E0D0116
:1006B8008C6F000E886F000E896F000E8A6F000E17
:1006C8008B6F0001A1691200000E0B6E000E0C6EFC
:1006D800000E0D6E000E0E6EFFEC25F00009D8A47A
:1006E8001200010121510F0B060AD8A407D00D01F1
:1006F8008C05D8A403D00001A169120022EC37F0C0
:10070800000E0D01886F000E896F000E8A6F000EB3
:100718008B6F0001A1691200000E0D01886F000E99
:10072800896F000E8A6F000E8B6F0001A16912009D
:1007380088518911D8B406D088C0D9FF89C0DAFF9A
:10074800DFBE120001010B510A11091104E1400E2C
:10075800085DD8A009D0400E3E6E400E085F000E1E
:10076800095B0A5B0B5B0AD008C13EF0000E086FFC
:10077800000E096F000E0A6F000E0B6F3E503A6EA6
:100788003B6A3A500001865D3B508759D8A005D096
:100798003E50865F000E875B1AD0000E476E13D05E
:1007A80086518711D8B404D08607D8A087070AD005
:1007B8004750010D000EF324D96E060EF420DA6EB0
:1007C800000EDF6E472A3E50475CD8A0E9D7010EDD
:1007D800016E000E026E060E036E3EC004F0020E9D
:1007E8002BEC23F001C088F002C089F00101085108
:1007F80009110A110B11D8A412000001A1691200F5
:100808007F0EA8EC22F012000001A151000AD8B412
:100818005BD7030AD8B4DDD6110AD8B44CD6080A77
:10082800D8B404D7010AD8B477D7050AD8B435D7CD
:100838003B0AD8B471D60D0AD8B42DD6020AD8B45A
:1008480032D6050AD8B468D7D20AD8B471D7030A01
:10085800D7D72250211011E1800E205CD8B00DD0DE
:100868001FC019F020C01AF01B6A1C6A23C01DF0B3
:1008780024C01EF04BEC29F012001F04E10E205892
:10088800F50E2158050E2258D8A04CD023C011F0DF
:1008980024C012F01FC001F020C002F021C003F0F4
:1008A80022C004F0100E056E270E066E000E076EAD
:1008B800000E086E45EC32F001C013F002C014F0CF
:1008C800000E166E0A0E156E47EC3BF0050E23243B
:1008D800116E000E2420126E1FC001F020C002F01D
:1008E80021C003F022C004F0100E056E270E066E1C
:1008F800000E076E000E086E8BEC36F001C013F088
:1009080002C014F0000E166E0A0E156E47EC3BF08E
:1009180020EE09F02350D9262450DA22200EDF6E6B
:10092800090E1200225008E1810E1F5C960E205815
:10093800980E2158D8A04CD023C011F024C012F032
:100948001FC001F020C002F021C003F022C004F053
:10095800100E056E270E066E000E076E000E086E4E
:1009680045EC32F001C013F002C014F0000E166E10
:100978000A0E156E47EC3BF0040E2324116E000E90
:100988002420126E1FC001F020C002F021C003F025
:1009980022C004F0100E056E270E066E000E076EBC
:1009A800000E086E8BEC36F001C013F002C014F094
:1009B800000E166E0A0E156E47EC3BF020EE08F09E
:1009C8002350D9262450DA22200EDF6E080E12009A
:1009D800225008E1410E1F5C420E20580F0E21588C
:1009E800D8A04CD023C011F024C012F01FC001F0D1
:1009F80020C002F021C003F022C004F0100E056EE2
:100A0800270E066E000E076E000E086E45EC32F0DB
:100A180001C013F002C014F0000E166E0A0E156E17
:100A280047EC3BF0030E2324116E000E2420126EB7
:100A38001FC001F020C002F021C003F022C004F062
:100A4800100E056E270E066E000E076E000E086E5D
:100A58008BEC36F001C013F002C014F0000E166ED5
:100A68000A0E156E47EC3BF020EE07F02350D9260E
:100A78002450DA22200EDF6E070E1200225008E101
:100A8800A10E1F5C860E2058010E2158D8A04CD00C
:100A980023C011F024C012F01FC001F020C002F0E2
:100AA80021C003F022C004F0100E056E270E066E5A
:100AB800000E076E000E086E45EC32F001C013F010
:100AC80002C014F0000E166E0A0E156E47EC3BF0CD
:100AD800020E2324116E000E2420126E1FC001F096
:100AE80020C002F021C003F022C004F0100E056EF1
:100AF800270E066E000E076E000E086E8BEC36F0A1
:100B080001C013F002C014F0000E166E0A0E156E26
:100B180047EC3BF020EE06F02350D9262450DA2289
:100B2800200EDF6E060E120023C011F024C012F052
:100B38001FC001F020C002F021C003F022C004F061
:100B4800100E056E270E066E000E076E000E086E5C
:100B580045EC32F001C013F002C014F0000E166E1E
:100B68000A0E156E47EC3BF0010E2324116E000EA1
:100B78002420126E1FC001F020C002F021C003F033
:100B880022C004F0100E056E270E066E000E076ECA
:100B9800000E086E8BEC36F001C013F002C014F0A2
:100BA800000E166E0A0E156E47EC3BF020EE05F0AF
:100BB8002350D9262450DA22200EDF6E050E1200AB
:100BC800000E0001F46F000EF36F000EE86F000EC8
:100BD800E96F000EEA6F000EEB6F04007CC055F061
:100BE8007DC056F07EC057F07FC058F0551E561E87
:100BF800571E581E552A000E562257225822000109
:100C080078515524596E795156205A6E7A51572089
:100C18005B6E7B5158205C6E5C505B105A1004E18F
:100C2800320E595CD8A018D07CC03FF07DC040F08F
:100C38007EC041F07FC042F0320E436E000E446E1B
:100C4800000E456E000E466EC00E476E020E486ED0
:100C5800FE517AEC0FF02DD07CC03FF07DC040F003
:100C68007EC041F07FC042F07CC055F07DC056F098
:100C78007EC057F07FC058F0551E561E571E581E8E
:100C8800552A000E56225722582200017851552421
:100C9800436E79515620446E7A515720456E7B51E8
:100CA8005820466EC00E476E020E486EFE517AEC12
:100CB8000FF0C00E0C6E020E0D6E000E0E6E000EC2
:100CC8000F6E000E106E000E116EC60E126E010E23
:100CD800136E10EC00F00CC0E8F00DC0E9F00EC087
:100CE800EAF00FC0EBF001016A4B6B2BF10E00012B
:100CF800E85DFF0EE959FF0EEA59FF0EEB59D8A03F
:100D080005D0500E646F500E656F1200E8517C27B5
:100D1800E9517D23EA517E23EB517F23FCD0010169
:100D2800CB51406F416B426B436B42C143F141C1B0
:100D380042F140C141F1406BCC51401342C143F1F3
:100D480041C142F140C141F1406B42C143F141C14F
:100D580042F140C141F1406B40D795C0F0F0000E20
:100D68000001956F0101C85140250001EC6F010198
:100D7800C95141210001ED6F000E0101422100011E
:100D8800EE6F000E010143210001EF6FF051EC25D9
:100D9800016E000EED21026E000EEE21036E000EB4
:100DA800EF21046E28EC3FF001C0E4F002C0E5F04A
:100DB8000001F051EC25016E000EED21026E000ECF
:100DC800EE21036E000EEF21046EF05100080101C0
:100DD800C625056EE1EC26F00009D8A4FED6000170
:100DE800F351F411D8A410D0E4C0F3F0E5C0F4F046
:100DF800F3C016F0F4C017F089EC3BF0C7EC3FF0F5
:100E080001C0E2F002C0E3F0F0C0F1F00001F26BC3
:100E18005DD0F151EC25016EF251ED21026E000E0C
:100E2800EE21036E000EEF21046E28EC3FF0000166
:100E3800F35101182AE1F4510218D8A426D0F1512F
:100E4800EC25096EF251ED210A6E000EEE210B6EB3
:100E5800000EEF210C6EF3C00DF0F4C00EF053EC51
:100E680037F009C0E6F00AC0E7F0CB0E0001F12523
:100E7800D96E010EF221DA6EE651E225E16EE751F4
:100E8800E321E26EDFCFE7FF1ED0E8517C5FE95136
:100E98007D5BEA517E5BEB517F5B01016A07D8A05D
:100EA8006B07F1C095F0F3C003F0F4C004F0CEEC8A
:100EB8003CF0F3C003F0F4C004F0C7EC32F00101D9
:100EC800664B672B12000001F14BF22B0101C65152
:100ED8000001F15D0101C7510001F259D8B07DD67A
:100EE80098D70001F351F411D8B41200F3C003F0FD
:100EF800F4C004F0CEEC3CF0F3C003F0F4C004F00E
:100F0800C7EC32F00101664B672B700E0001646F6D
:100F1800700E656F12000101CA51000AD8B41DD7BE
:100F2800010AD8B4DED7050AD8B4F9D656D6000EC9
:100F3800256E17D02550010DB00EF324F66E8D0ED8
:100F4800F420F76EF86A000EF8222550010D760E8F
:100F5800F324D96E010EF420DA6E0800F5CFDFFF16
:100F6800252A2550010DB00EF324F66E8D0EF420BF
:100F7800F76EF86A000EF8220800F5500009D8A4A8
:100F8800D9D7000E256E17D02550010D1A0EF3245F
:100F9800F66E8D0EF420F76EF86A000EF8222550D2
:100FA800010D8A0EF324D96E010EF420DA6E0800C2
:100FB800F5CFDFFF252A2550010D1A0EF324F66E12
:100FC8008D0EF420F76EF86A000EF8220800F5502E
:100FD8000009D8A4D9D7000E256ED6D02550010D0A
:100FE800E20EF324F66E8C0EF420F76EF86A000E0B
:100FF800F8222550010D9E0EF324D96E010EF4201F
:10100800DA6E0800F5CFDFFF252A2550010DE20E24
:10101800F324F66E8C0EF420F76EF86A000EF822B0
:101028000800F5500009D8B4C0D0D8D72550010D14
:10103800100EF324F66E8E0EF420F76EF86A000E8A
:10104800F8222550010D9E0EF324D96E010EF420CE
:10105800DA6E0800F5CFDFFF252A2550010D100EA6
:10106800F324F66E8E0EF420F76EF86A000EF8225E
:101078000800F5500009D8B498D0D8D72550010DEC
:101088001F0EF324F66E8E0EF420F76EF86A000E2B
:10109800F8222550010D9E0EF324D96E010EF4207E
:1010A800DA6E0800F5CFDFFF252A2550010D1F0E47
:1010B800F324F66E8E0EF420F76EF86A000EF8220E
:1010C8000800F5500009D8B470D0D8D72550010DC4
:1010D8003D0EF324F66E8E0EF420F76EF86A000EBD
:1010E800F8222550010D9E0EF324D96E010EF4202E
:1010F800DA6E0800F5CFDFFF252A2550010D3D0ED9
:10110800F324F66E8E0EF420F76EF86A000EF822BD
:101118000800F5500009D8B448D0D8D72550010D9B
:10112800BA0EF324F66E8C0EF420F76EF86A000EF1
:10113800F8222550010D9E0EF324D96E010EF420DD
:10114800DA6E0800F5CFDFFF252A2550010DBA0E0B
:10115800F324F66E8C0EF420F76EF86A000EF8226F
:101168000800F5500009D8A4D9D7EAEC3FF001C02F
:101178001FF002C020F0216A226AC00E236E010E01
:10118800246E2DEC04F011D020EC40F00B0AD8B4FA
:10119800DCD7070AD8B4B1D7010AD8B486D7030A6E
:1011A800D8B45BD7010AD8B430D7000E256E17D053
:1011B8002550010D6A0EF324F66E8E0EF420F76E9C
:1011C800F86A000EF8222550010DB20EF324D96EEC
:1011D800010EF420DA6E0800F5CFDFFF252A25502E
:1011E800010D6A0EF324F66E8E0EF420F76EF86A7F
:1011F800000EF8220800F5500009D8A4D9D7F4EC5D
:101208003FF001C019F002C01AF01B6A1C6A255091
:10121800010DB20EF3241D6E010EF4201E6E4BEC70
:1012280029F01200000E0001E36F000EE46F000EBB
:10123800E56F000EE66FFE516AEC34F030C078F0CE
:1012480031C079F032C07AF033C07BF0000E000173
:10125800E26FE251D8A412007CC055F07DC056F070
:101268007EC057F07FC058F0551E561E571E581E98
:10127800552A000E56225722582278515524596E65
:10128800795156205A6E7A5157205B6E7B515820FF
:101298005C6E5C505B105A1004E1320E595CD8A0A9
:1012A80018D07CC03FF07DC040F07EC041F07FC0C8
:1012B80042F0320E436E000E446E000E456E000E74
:1012C800466EC00E476E020E486EFE517AEC0FF065
:1012D8002DD07CC03FF07DC040F07EC041F07FC083
:1012E80042F07CC055F07DC056F07EC057F07FC0FC
:1012F80058F0551E561E571E581E552A000E5622C7
:1013080057225822000178515524436E79515620AE
:10131800446E7A515720456E7B515820466EC00E58
:10132800476E020E486EFE517AEC0FF0C00E0C6E3E
:10133800020E0D6E000E0E6E000E0F6E000E106E79
:10134800000E116EC60E126E010E136E10EC00F038
:101358000CC0E3F00DC0E4F00EC0E5F00FC0E6F0FD
:1013680001016A4B6B2B040ECA19D8A41CD0CB51AF
:10137800406F416B426B436B42C143F141C142F143
:1013880040C141F1406BCC51401342C143F141C1CE
:1013980042F140C141F1406B42C143F141C142F1C8
:1013A80040C141F1406BCA51D8A45DD0C851402515
:1013B8000001E76F0101C95141210001E86F000EEA
:1013C800010142210001E96F000E010143210001E2
:1013D800EA6F010148510001E75D0101495100012F
:1013E800E85901014A510001E95901014B51000135
:1013F800EA59D8B008D0E7C048F1E8C049F1E9C0D7
:101408004AF1EAC04BF1E7510101445D0001E8519E
:10141800010145590001E951010146590001EA510C
:1014280001014759D8B008D0E7C044F1E8C045F1F8
:10143800E9C046F1EAC047F1E7C001F0E8C002F0B0
:10144800E9C003F0EAC004F0C6C105F0E1EC26F0FB
:10145800FF0AD8A408D00B0E0001966F500E646FD7
:10146800500E656F12000001E351E411E511E61119
:10147800D8A427D06AC168F16BC169F1000E0101D7
:101488006B6F000E6A6F000E00017C6F000E7D6F9F
:10149800000E7E6F000E7F6F000E0101406F000E80
:1014A800416F000E426F000E436F000E676F000E13
:1014B800666F000E0001956F400E646F400E656FF9
:1014C8001200F10EE35DFF0EE459FF0EE559FF0E21
:1014D800E659D8A007D0E3510F0B966F500E646FF2
:1014E800500EEDD7E3517C27E4517D23E5517E234F
:1014F800E6517F23E22BADD644D111C183F012C14E
:1015080082F013C181F014C180F016C187F017C1B1
:1015180086F08651306E8751316E326A336A090E11
:10152800D8903036313632363336E82EF9D730C0D7
:101538000BF031C00CF032C00DF033C00EF0FFECF0
:1015480025F00009D8A42FD1F2C101F0F3C102F0AF
:1015580001D80AD00500FA6E0101EE51FD6EEF5177
:10156800FE6EFF6AFA5012000009D8B416D0010EB8
:101578000D018C6F01012151F00B0709216F270E16
:101588002B6F000E2C6F000E016E020E1EEC21F068
:10159800000E00019F6F9F511200010E0001A26F03
:1015A80086518711D8A402D0000EE9D0030E9F6F90
:1015B800000E8C6F060E8D6F000E0D01886F020EE7
:1015C800896F000E8A6F000E8B6F0D01885189118B
:1015D8008A118B11D8B41ED000018A518B11D8B44E
:1015E80006D08AC0D9FF8BC0DAFFDFBEDCD0000E80
:1015F800016E8CC002F08DC003F0400E046E020E26
:101608002BEC23F001C08AF002C08BF0040E00011D
:101618009F6F21D0F2C101F0F3C102F001D80AD0C6
:101628000500FA6E0101EE51FD6EEF51FE6EFF6A84
:10163800FA5012000009D8B40CD0010E0D018C6FBD
:1016480001012151F00B0209216F270E2B6F000EAB
:101658002C6F020E93D08A518B11D8B406D08AC051
:10166800D9FF8BC0DAFFDFBE9ED020EE01F08A5191
:10167800D9268B51DA22DF50306E30C031F0326A11
:10168800336A346A31500101085F3250095B3350C4
:101698000A5B34500B5B000120EE01F08A51D92619
:1016A8008B51DA22DF50306E30C031F0326A336A43
:1016B800346A31500D01885F3250895B33508A5B40
:1016C80034508B5B400E00018C27000E8D23030ED7
:1016D80056D00D018C51D8A43CD0F2C125F0F3C1ED
:1016E80026F080C027F081C028F082C029F083C08E
:1016F8002AF0000E2B6E060E2C6E0001805181110F
:1017080082118311D8A402D0010E01D0000E2D6ED3
:1017180001D80AD00500FA6E0101F051FD6EF151B1
:10172800FE6EFF6AFA501200E806D8B412D0640EB2
:1017380000019E6102D09E2B36D0010E0D018C6FE8
:1017480001012151F00B0309216F000E2B6F000ED0
:101758002C6F010E00018027000E81238223832332
:101768008607D8A08707010E0AD0020E0D018C6FDC
:10177800000E016E020E1EEC21F0000E00019F6F9C
:1017880012D000019F51000AD8B4B7D6010AD8B4C4
:1017980007D7030AD8B49DD7010AD8B416D7070AC1
:1017A800D8B459D7E2D700019F5112000D01320574
:1017B800D8A411D030511F0B0009D8A40CD00001B7
:1017C800698F030E0D013119D8A402D0010E01D082
:1017D800000E0001AD6F0D013251D8A41200305136
:1017E8001F0B020AD8A4120034510F0B0009D8B4F9
:1017F800120034510F0B186E030E18601200200EE1
:101808000001B019D8A41200698F0D0134BF19D096
:1018180034510F0B186E1850020D720EF324D96E46
:10182800000EF420DA6EDECF1CF0DDCF1DF034514F
:101838000F0B186E1850010D5E0EF324D96E010EB1
:1018480018D034510F0B186E1850020D6C0EF3247B
:10185800D96E000EF420DA6EDECF1CF0DDCF1DF05D
:1018680034510F0B186E1850010D610EF324D96E08
:10187800010EF420DA6EDF501B6E1BB006D0FB0E93
:101888001C141C6EFF0E1D1404D0040E1C101C6EBC
:101898001D501D6E34BF0AD034510F0B186E1850EE
:1018A800020D720EF324D96E000E09D034510F0BBD
:1018B800186E1850020D6C0EF324D96E000EF42029
:1018C800DA6E1CC0DEFF1DC0DDFF030E3119D8A47F
:1018D8002DD01CC0D9FF1DC0DAFFDFAE1AD034BF2F
:1018E8000AD034510F0B186E1850010D5E0EF324F8
:1018F800D96E010E0AD00D0134510F0B186E185015
:10190800010D610EF324D96E010EF420DA6E010187
:10191800DF821CC0D9FF1DC0DAFF000EDB841CC0AB
:10192800D9FF1DC0DAFF000EDB8E1200040E1C1852
:101938001C6E1D501D6E1CC0D9FF1DC0DAFFDFAE26
:101948001BD01CC0D9FF1DC0DAFF7F0EDF161CC0DC
:10195800D9FF1DC0DAFF000EDB8C000E116E050EDC
:10196800106E1CC012F01DC013F0000E156E020E92
:10197800146E02EC32F006D01CC0D9FF1DC0DAFF8D
:10198800000EDB8C040E1C181C6E1D501D6E1BB245
:1019980006D01CC0D9FF1DC0DAFFDFAE30D00D0164
:1019A80034BF0AD034510F0B186E1850010D5E0E5B
:1019B800F324D96E010E0AD00D0134510F0B186EA5
:1019C8001850010D610EF324D96E010EF420DA6E61
:1019D8000101DF921CC0D9FF1DC0DAFF3B0EDF16E4
:1019E800000E116E050E106E1CC012F01DC013F013
:1019F800000E156E020E146E02EC32F006D01CC0FA
:101A0800D9FF1DC0DAFF3B0EDF160D0134510F0B55
:101A1800186E1850010D260EF324196E0F0EF420BF
:101A28001A6E19C0D9FF1AC0DAFFFE0EDF161200AF
:101A380091D0EB0E12003C0E1200900E1200F10E27
:101A4800F66E8F0EF76E000EF86E0800F550120055
:101A5800F20EF66E8F0EF76EF86A0800F550120057
:101A6800F30EF66E8F0EF76EF86A0800F550120046
:101A7800F40EF66E8F0EF76EF86A0800F550120035
:101A8800F50EF66E8F0EF76EF86A0800F550120024
:101A9800F60EF66E8F0EF76EF86A0800F550120013
:101AA800F70EF66E8F0EF76EF86A0800F550120002
:101AB800F80EF66E8F0EF76EF86A0800F5501200F1
:101AC800000E1200020E1200010E1200010E12008A
:101AD800000E1200010E1200400E1200000E12003D
:101AE800FF0E12001F0E1200F80E1200200E120038
:101AF800000E12003F0E1200000E1200100E12000F
:101B0800000E1200000E1200000E1200000E12004D
:101B1800000E1200010E1200000E1200220E12001A
:101B2800000E1200000E1200460E1200410E1200A6
:101B3800540E1200310E1200360E1200200E120042
:101B4800200E1200200E1200550E1200AA0E1200CE
:101B5800000E120001C003F002C004F00450000A95
:101B6800D8B404D0010AD8B48DD0F2D70350000AF3
:101B7800D8B45FD7010AD8B45ED7030AD8B45DD702
:101B8800010AD8B45CD7070AD8B462D7010AD8B416
:101B980067D7030AD8B46CD7010AD8B471D70F0A2B
:101BA800D8B476D7010AD8B47BD7030AD8B480D77B
:101BB800010AD8B485D7070AD8B484D7010AD8B49B
:101BC80083D7030AD8B482D7010AD8B481D71F0AA9
:101BD800D8B480D7010AD8B47FD7030AD8B47ED73F
:101BE800010AD8B47DD7070AD8B47CD7010AD8B47B
:101BF8007BD7030AD8B47AD7010AD8B479D70F0AA1
:101C0800D8B478D7010AD8B477D7030AD8B476D726
:101C1800010AD8B475D7070AD8B474D7010AD8B45A
:101C280073D7030AD8B472D7010AD8B471D7370A60
:101C3800D8B470D7010AD8B46FD7050AD8B46ED70C
:101C4800010AD8B46DD7030AD8B46CD7010AD8B43E
:101C580069D7190AD8B468D7010AD8B467D70F0A60
:101C6800D8B466D7010AD8B465D7030AD8B464D7FC
:101C7800010AD8B463D7070AD8B462D7010AD8B41E
:101C880061D766D70350FE0AD8B45ED7010AD8B424
:101C98005DD75ED7200E0001B019D8A4120017D165
:101CA8008A518B11D8B406D08AC0D9FF8BC0DAFF0D
:101CB800DFBE1200000E526E1E0E526401D014D008
:101CC8005250010D400EF324D96E0D0EF420DA6E39
:101CD8005250010D000EF324E16E010EF420E26E65
:101CE800DFCFE7FF522AE8D7000120EE01F08A5142
:101CF800D9268B51DA221F0EDE18D8A472D0550EC1
:101D0800010100196EE1530E01196BE1420E02192F
:101D180068E1430E0319D8A464D0010E00019A6F3C
:101D280001010D51D8A452D0110E0E614FD00E51A1
:101D3800D8B44CD00CC14DF03F0E4D16D8A446D0A7
:101D4800550E0D01806F530E816F420E826F530E38
:101D5800836F04C184FD05C185FD06C186FD07C1E9
:101D680087FD000E886F000E896F000E8A6F000EC7
:101D78008B6F000E8C6F0001A169000EA06F000E22
:101D88009F6F000E9E6F030E01010F19D8B408D083
:101D98002191219321952197000E2B6F000E2C6F16
:101DA8000CAF02D0010E01D0020E0001A26F01019A
:101DB800085109110A110B11D8B402D0000E01D034
:101DC800010E00019B6F0FC1A1F01200010E016E00
:101DD800020E1EEC21F0000E016E020E1EEC21F028
:101DE8001200010E016E020E1EEC21F0000E016EB3
:101DF800020E1EEC21F0000E00019A6F120095EC05
:101E080020F0FF0AD8A41200030E0001A26F1200EE
:101E180095EC20F0FF0AD8A412000D018C51D8A42B
:101E280008D0885189118A118B11D8B402D0020EBA
:101E38008C6F030E0001A26F120070C04EF071C0CB
:101E48004FF04E504F10D8B40AD070C050F071C047
:101E580051F050C0D9FF51C0DAFFDFBE1200010EA9
:101E6800016E800E026E0D0E036E0D0E046E020ED4
:101E78002BEC23F001C088F002C089F000018A51E0
:101E88008B11D8B406D08AC0D9FF8BC0DAFFDFBE69
:101E98000FD0000E016E400E026E0D0E036E400E46
:101EA800046E020E2BEC23F001C08AF002C08BF006
:101EB800000E0001A26F1200000EA26F020E0D01AB
:101EC8008C6F000E016E020E1EEC21F01200000154
:101ED800A251000AD8B4E4D6010AD8B490D7030AAC
:101EE800D8B496D7010AD8B4A8D7E6D70001B76FF7
:101EF800B80E376E000E386E0001B751F6EC33F0AD
:101F0800D2C0D8F0D3C0D9F043503F24496E4450D2
:101F180040204A6E455041204B6E465042204C6E40
:101F280049500001D45D4A50D5594B50D6594C50B0
:101F3800D759D8B002D0FF0E1200000EDE6F000E87
:101F4800DF6F000EE06F000EE16F13D0D8C030F0E5
:101F5800D9C031F001EC3BF030C0D8F031C0D9F035
:101F6800000E0001DE27020EDF23000EE023000E24
:101F7800E123DEC049F0DFC04AF0E0C04BF0E1C029
:101F88004CF0491E4A1E4B1E4C1E492A000E4A227E
:101F98004B224C223F5049244D6E40504A204E6EF1
:101FA80041504B204F6E42504C20506E50504F10B5
:101FB800CDE1020E4E5CD8B0C9D7DEC049F0DFC013
:101FC8004AF0491E4A1E494A4A2A3F504924DA6FB4
:101FD80040504A20DB6F000EDE6F000EDF6F000EF0
:101FE800E06F000EE16F89D0020EDB19DA11D8A478
:101FF8000FD0D8C030F0D9C031F001EC3BF030C080
:10200800D8F031C0D9F0000E0001DB6F000EDA6F96
:10201800D8C001F0D9C002F0B0EC3FF001C0B5F073
:1020280002C0B6F0DAC049F0DBC04AF0491E4A1EC9
:10203800494A4A2A000E49240001DC6F020E4A2050
:10204800DD6FDC51496EDD514A6E4B6A4C6ADEC069
:102058004DF0DFC04EF0E0C04FF0E1C050F04D1E33
:102068004E1E4F1E501E4D2A000E4E224F22502249
:1020780043504D24516E44504E20526E45504F20CF
:10208800536E46505020546E4950515C4A50525835
:102098004B5053584C505458D8B00ED0DEC049F06D
:1020A800DFC04AF0491E4A1E494A4A2A4350492479
:1020B800DC6F44504A20DD6FB5C028F0B6C029F067
:1020C800DAC02AF0DBC02BF0DCC02CF0DDC02DF02C
:1020D800DE5147242E6EDF5148202F6E66EC3DF00E
:1020E8000001DC51DE27DD51DF23000EE023000E66
:1020F800E123DC51DA27DD51DB234350DE5D445018
:10210800DF594550E0594650E159D8A06DD7000E27
:1021180012000001C16F3F0E0001C16501D012001D
:10212800C151BBEC33F00009D8A41200C80E376EB9
:10213800000E386E0001C151F6EC33F0E4C0B7F080
:10214800E5C0B8F0E6C0B9F0E7C0BAF0E2C0BDF04B
:10215800E3C0BEF0000E0001C46F000EC56F000E94
:10216800C66F000EC76F13D0BDC030F0BEC031F0CF
:1021780001EC3BF030C0BDF031C0BEF0000E0001F4
:10218800C427020EC523000EC623000EC723C4C0F1
:1021980043F0C5C044F0C6C045F0C7C046F0431E72
:1021A800441E451E461E432A000E4422452246224E
:1021B800B7514324476EB8514420486EB951452061
:1021C800496EBA5146204A6E4A504910CDE147043B
:1021D800020E4858D8B0C8D7C4C043F0C5C044F0B0
:1021E800431E441E434A442AB7514324BF6FB85183
:1021F8004420C06F000EC46F000EC56F000EC66F7E
:10220800000EC76F6FD0020EC019BF11D8A426D018
:10221800000E316E000E306E30EC34F030C0BBF082
:1022280031C0BCF0BDC029F0BEC02AF0BBC02BF045
:10223800BCC02CF0CAEC3BF0BBC029F0BCC02AF0F3
:10224800FF0E2C6E2B68CAEC3BF0BBC0BDF0BCC0C7
:10225800BEF0000E0001C06F000EBF6FBDC001F0E0
:10226800BEC002F0B0EC3FF001C0B5F002C0B6F05D
:10227800BFC043F0C0C044F0431E441E434A442A32
:10228800000E43240001C26F020E4420C36FC251E6
:102298003F5CC3514058D8B004D03FC0C2F040C0E2
:1022A800C3F0B5C020F0B6C021F0BFC022F0C0C056
:1022B80023F0C2C024F0C3C025F0C4514124266EC7
:1022C800C5514220276EDBEC34F00001C251C4270F
:1022D800C351C523000EC623000EC723C251BF2712
:1022E800C351C0233F50436E4050446E456A466A0E
:1022F8004350C45D4450C5594550C6594650C75906
:10230800D8A081D73F50E4274050E523000EE623AC
:10231800000EE723C80E056E000E066E4DEC3DF06C
:10232800C80E296E000E2A6E0001C15166EC38F005
:10233800120057C0D9FF58C0DAFF810EDF6E20EEB9
:1023480001F05750D9265850DA22C10EDF6E20EE20
:1023580002F05750D9265850DA22250EDF6E20EEAB
:1023680001F05550D9265650DA2210EE03F0575096
:10237800E1265850E222DFCFE7FF20EE01F055506A
:10238800D9265650DA2210EE04F05750E12658505C
:10239800E222DFCFE7FF20EE02F05550D926565053
:1023A800DA2210EE05F05750E1265850E222DFCF2E
:1023B800E7FF20EE03F05550D9265650DA2210EEEA
:1023C80006F05750E1265850E222DFCFE7FF20EE13
:1023D80004F05550D9265650DA2210EE07F057501F
:1023E800E1265850E222DFCFE7FF20EE04F05550F7
:1023F800D9265650DA22DF50596E59500001EA6F3B
:10240800EB6BEC6BED6BECC0EDF0EBC0ECF0EAC005
:10241800EBF0EA6B20EE03F05550D9265650DA223D
:10242800DF50596E5950EA13ECC0EDF0EBC0ECF0F8
:10243800EAC0EBF0EA6B20EE02F05550D926565070
:10244800DA22DF50596E5950EA13ECC0EDF0EBC0B8
:10245800ECF0EAC0EBF0EA6B20EE01F05550D9261B
:102468005650DA22DF50596E5950EA1320EE01F027
:102478005550D9265650DA22DF506AEC34F030C075
:10248800E2F031C0E3F032C0E4F033C0E5F0EAC076
:1024980059F0EBC05AF0ECC05BF0EDC05CF0591E8F
:1024A8005A1E5B1E5C1E592A000E5A225B225C22B1
:1024B8000001E2515924E66FE3515A20E76FE451D5
:1024C8005B20E86FE5515C20E96FE951E811E711FD
:1024D80004E1370EE65DD8A008D0360EE66F000E90
:1024E800E76F000EE86F000EE96F20EE08F0575016
:1024F800D9265850DA22E6C0DFFF20EE09F05750FF
:10250800D9265850DA22EAC03FF0EBC040F0ECC0C0
:1025180041F0EDC042F0E6C043F0E7C044F0E8C047
:1025280045F0E9C046F00A0E5724476E000E5820C1
:10253800486E10EE01F05550E1265650E222E75061
:102548007AEC0FF0DF6E1200000E266E000E256E7C
:10255800020E265CD8B010D0400E2524D96E030E8A
:102568002620DA6E25C001F026C002F0B7EC27F06D
:10257800DF6E254A262AECD7000E216E000E206E4B
:10258800400E226E030E236E97EC39F0000E266E75
:10259800000E256E020E265CD8B010D0400E252401
:1025A800D96E030E2620DA6E25C001F026C002F08F
:1025B8001CEC0DF0DF6E254A262AECD7000E216EA2
:1025C800010E206E400E226E030E236E97EC39F03A
:1025D800000E266E000E256E020E265CD8B010D0B6
:1025E800400E2524D96E030E2620DA6E25C001F090
:1025F80026C002F016EC39F0DF6E254A262AECD701
:10260800000E216E020E206E400E226E030E236E07
:1026180097EC39F0000E266E000E256E020E265C31
:10262800D8B00BD0400E2524D96E030E2620DA6EC2
:10263800000EDF6E254A262AF1D7000E266E030EFD
:10264800256E265011E1220E255CD8B00DD025C08C
:1026580020F026C021F0400E226E030E236E97EC68
:1026680039F0254A262AEDD7000E266E000E256E73
:10267800020E265CD8B010D0400E2524D96E030E69
:102688002620DA6E25C001F026C002F03AEC19F0D7
:10269800DF6E254A262AECD7000E216E220E206E08
:1026A800400E226E030E236E97EC39F0000E266E54
:1026B800000E256E020E265CD8B00BD0400E2524E5
:1026C800D96E030E2620DA6E000EDF6E254A262A02
:1026D800F1D7000E266E230E256E265011E1260E28
:1026E800255CD8B00DD025C020F026C021F0400EC2
:1026F800226E030E236E97EC39F0254A262AEDD771
:10270800000E266E000E256E020E265CD8B010D084
:10271800400E2524D96E030E2620DA6E25C001F05E
:1027280026C002F034EC3EF0DF6E254A262AECD7AC
:10273800000E216E260E206E400E226E030E236EB2
:1027480097EC39F01200000E256E17D02550010DB8
:10275800000EF324F66E8E0EF420F76EF86A000E63
:10276800F8222550010D760EF324D96E010EF420BF
:10277800DA6E0800F5CFDFFF252A2550010D000E7F
:10278800F324F66E8E0EF420F76EF86A000EF82227
:102798000800F5500009D8A4D9D7000E256E17D027
:1027A8002550010D610EF324F66E8E0EF420F76E9F
:1027B800F86A000EF8222550010D8A0EF324D96E0E
:1027C800010EF420DA6E0800F5CFDFFF252A255028
:1027D800010D610EF324F66E8E0EF420F76EF86A82
:1027E800000EF8220800F5500009D8A4D9D7000E29
:1027F8001F6E000E206E000E216E000E226E2550F8
:10280800010D8A0EF324236E010EF420246E2DECA4
:1028180004F025262550010D8A0EF324D96E010EE9
:10282800F420DA6E2E0EDF6E252A010E1F6E000EC2
:10283800206E000E216E000E226E2550010D8A0EAC
:10284800F324236E010EF420246E2DEC04F02526CB
:102858002550010D8A0EF324D96E010EF420DA6E8C
:102868002E0EDF6E252A000E1F6E000E206E000E43
:10287800216E000E226E2550010D8A0EF324236E60
:10288800010EF420246E2DEC04F02526000E256E92
:1028980017D02550010DA60EF324F66E8E0EF420E7
:1028A800F76EF86A000EF8222550010D9E0EF324EB
:1028B800D96E010EF420DA6E0800F5CFDFFF252A65
:1028C8002550010DA60EF324F66E8E0EF420F76E39
:1028D800F86A000EF8220800F5500009D8A4D9D7E4
:1028E800000E256E17D02550010D2E0EF324F66E1E
:1028F8008E0EF420F76EF86A000EF8222550010DAE
:10290800B20EF324D96E010EF420DA6E0800F5CF6A
:10291800DFFF252A2550010D2E0EF324F66E8E0EAC
:10292800F420F76EF86A000EF8220800F550000946
:10293800D8B41200D8D705C0D9FF06C0DAFF130EE5
:10294800DF6E20EE01F00550D9260650DA22C10EBE
:10295800DF6E20EE02F00550D9260650DA22250E49
:10296800DF6E8FEC3FF001C00CF002C00DF003C029
:102978000EF004C00FF020EE03F00550D9260650E3
:10298800DA220F50DF6E20EE04F00550D9260650EB
:10299800DA220EC0DFFF20EE05F00550D9260650DA
:1029A800DA220D50DF6E20EE06F00550D9260650CB
:1029B800DA220CC0DFFFF4EC3FF001C010F002C0D7
:1029C80011F020EE07F00550D9260650DA221150F2
:1029D800DF6E20EE08F00550D9260650DA2210C026
:1029E800DFFFE0EC3FF001C010F002C011F020EE74
:1029F80009F00550D9260650DA221150DF6E20EE74
:102A08000AF00550D9260650DA2210C0DFFF20EE62
:102A18000BF00550D9260650DA2220EC40F0DF6E84
:102A2800EFEC3FF001C010F002C011F020EE0CF006
:102A38000550D9260650DA221150DF6E20EE0DF02F
:102A48000550D9260650DA2210C0DFFFE5EC3FF02A
:102A580001C010F002C011F020EE0EF00550D9268A
:102A68000650DA221150DF6E20EE0FF00550D926FD
:102A78000650DA2210C0DFFFEAEC3FF001C010F088
:102A880002C011F020EE10F00550D9260650DA22C7
:102A98001150DF6E20EE11F00550D9260650DA22CB
:102AA80010C0DFFF20EE12F00550D9260650DA22BA
:102AB80017EC40F0DF6E20EE13F00550D9260650D3
:102AC800DA221DEC40F0DF6E20EE14F00550D92616
:102AD8000650DA221AEC40F0DF6EE5EC3FF00150C8
:102AE8000A6E2B0E0A6402D02B0E0A6E000E0B6EB5
:102AF80014D00B505CEC3FF0076E0B50086E096A5F
:102B0800150E0826000E092208500524D96E095012
:102B18000620DA6E07C0DFFF0B2A0A500B5CD8B01C
:102B28001200E7D7000E286E17D02850010DE00ECE
:102B3800F324F66E8D0EF420F76EF86A000EF82274
:102B48002850010D760EF324D96E010EF420DA6EAA
:102B58000800F5CFDFFF282A2850010DE00EF324E6
:102B6800F66E8D0EF420F76EF86A000EF822080053
:102B7800F5500009D8A4D9D7000E286E17D02850D0
:102B8800010DF50EF324F66E8C0EF420F76EF86A3C
:102B9800000EF8222850010D8A0EF324D96E010E7A
:102BA800F420DA6E0800F5CFDFFF282A2850010D3F
:102BB800F50EF324F66E8C0EF420F76EF86A000E0C
:102BC800F8220800F5500009D8A4D9D7000E286EBD
:102BD80017D02850010D970EF324F66E8E0EF420B0
:102BE800F76EF86A000EF8222850010D9E0EF324A5
:102BF800D96E010EF420DA6E0800F5CFDFFF282A1F
:102C08002850010D970EF324F66E8E0EF420F76E01
:102C1800F86A000EF8220800F5500009D8A4D9D7A0
:102C280028C027F08FEC3FF001C01FF002C020F051
:102C380003C021F004C022F02850010D9E0EF32499
:102C4800236E010EF420246E2DEC04F02726000ECE
:102C5800286E1CD02850010D900EF324F66E8E0EAF
:102C6800F420F76EF86A000EF822285027C025F0E5
:102C7800266A2526000E26229E0E2524D96E010ED0
:102C88002620DA6E0800F5CFDFFF282A2850010D2C
:102C9800900EF324F66E8E0EF420F76EF86A000E8E
:102CA800F8220800F5500009D8A4D4D7000E286EE1
:102CB80017D02850010D2C0EF324F66E8D0EF4203B
:102CC800F76EF86A000EF8222850010DB20EF324B0
:102CD800D96E010EF420DA6E0800F5CFDFFF282A3E
:102CE8002850010D2C0EF324F66E8D0EF420F76E8D
:102CF800F86A000EF8220800F5500009D8B412004E
:102D0800D8D7D6D011C183F012C182F013C181F097
:102D180014C180F016C187F017C186F08651366E4F
:102D28008751376E386A396A090ED8903636373681
:102D380038363936E82EF9D736C00BF037C00CF0E4
:102D480038C00DF039C00EF0FFEC25F00009D8A40A
:102D5800C1D0010E0001A06F86518711D8A402D0FE
:102D6800000E46D08607D8A08707020EA06F8851AC
:102D78008911D8B406D088C0D9FF89C0DAFFDFBE70
:102D8800A9D0F2C12CF0F3C12DF080C02EF081C083
:102D98002FF082C030F083C031F0000E326E060E84
:102DA800336E01D80AD00500FA6E0101EC51FD6EB0
:102DB800ED51FE6EFF6AFA501200E806D8B41AD038
:102DC800640E00019E6102D09E2B84D0020E0D017C
:102DD8008C6F01012151F00B0309216F000E2B6F3D
:102DE800000E2C6F010E016E020E1EEC21F05DD05C
:102DF800A06F70D0010E00018027000E812382236E
:102E08008323000E0D01886F020E896F000E8A6FF2
:102E1800000E8B6F000E00018C6F060E8D6F030E77
:102E2800A06F0D01885189118A118B11D8A402D085
:102E3800010E3CD0040E0001A06F88518911D8B44E
:102E480006D088C0D9FF89C0DAFFDFBE43D0010EA3
:102E5800016E8CC002F08DC003F0400E046E020EAD
:102E68002BEC23F001C088F002C089F0030E0001AA
:102E7800A06F400E0101085F000E095B0A5B0B5B47
:102E8800400E0D01885F000E895B8A5B8B5B400EEC
:102E980000018C27000E8D231DD0020E0D018C6FB2
:102EA800010E016E020E1EEC21F0000E0001A0D7EB
:102EB8000001A051000AD8B425D7010AD8B44CD7CC
:102EC800030AD8B454D7010AD8B4ABD7070AD8B480
:102ED800B4D7E3D70001A0511200000E1F6E17D01F
:102EE8001F50010DA00EF324F66E8D0EF420F76E20
:102EF800F86A000EF8221F50010D760EF324D96EE1
:102F0800010EF420DA6E0800F5CFDFFF1F2A1F50EC
:102F1800010DA00EF324F66E8D0EF420F76EF86AFC
:102F2800000EF8220800F5500009D8A4D9D7000EE1
:102F38001F6E17D01F50010D080EF324F66E8D0E6C
:102F4800F420F76EF86A000EF8221F50010D8A0E61
:102F5800F324D96E010EF420DA6E0800F5CFDFFFF6
:102F68001F2A1F50010D080EF324F66E8D0EF42053
:102F7800F76EF86A000EF8220800F5500009D8A488
:102F8800D9D7000E1F6E17D01F50010D820EF324E3
:102F9800F66E8E0EF420F76EF86A000EF8221F50B7
:102FA800010D9E0EF324D96E010EF420DA6E08008E
:102FB800F5CFDFFF1F2A1F50010D820EF324F66E96
:102FC8008E0EF420F76EF86A000EF8220800F5500D
:102FD8000009D8A4D9D7F4EC3FF001C019F002C019
:102FE8001AF01B6A1C6A1F50010D9E0EF3241D6EF9
:102FF800010EF4201E6E4BEC29F01F261F50010D08
:103008009E0EF324D96E010EF420DA6E2F0EDF6EB9
:103018001F2AE0EC3FF001C019F002C01AF01B6A49
:103028001C6A1F50010D9E0EF3241D6E010EF42024
:103038001E6E4BEC29F0000E1F6E17D01F50010DAD
:10304800900EF324F66E8D0EF420F76EF86A000EDB
:10305800F8221F50010DB20EF324D96E010EF42090
:10306800DA6E0800F5CFDFFF1F2A1F50010D900E02
:10307800F324F66E8D0EF420F76EF86A000EF8222F
:103088000800F5500009D8A4D9D7EFEC3FF001C0EB
:1030980019F002C01AF01B6A1C6A1F50010DB20E0B
:1030A800F3241D6E010EF4201E6E4BEC29F0120065
:1030B80044C030F045C031F046C032F047C033F06C
:1030C800D1EC2AF0FF0AD8A41200A6EC3EF00001C9
:1030D800B96FB929D8B4120048C04CF049C04DF0B6
:1030E8004AC04EF04BC04FF00A0E05D0D8904F3270
:1030F8004E324D324C32E82EF9D7010E4C24BA6FBD
:10310800000E4D20BB6FBAC030F0BBC031F02FECC1
:1031180031F00001BA51301805E1BB513118D8A47B
:10312800120001D01200000E316E020E306E30EC2B
:1031380034F030C0BCF031C0BDF0BE0E016E000EE0
:10314800026E44C003F045C004F003500410D8A434
:10315800200E056E000E076E080E066EBEEC36F0E9
:10316800C60E016E000E026E46C003F047C004F0A2
:1031780003500410D8A4200E056E000E076E030E2F
:10318800066EBEEC36F0000E0001C96F000ECA6F65
:10319800000ECB6FF9EC3FF001C0CCF002C0CDF0CF
:1031A800FEEC3FF001C0CEF002C0CFF0CEC0D0F0B0
:1031B800CFC0D1F0000E0001D36F000ED26FCCC08B
:1031C800D4F0CDC0D5F0CEC0D6F0CFC0D7F0BCC0BB
:1031D800D8F0BDC0D9F048C0DAF049C0DBF04AC029
:1031E800DCF04BC0DDF0BE0E296E000E2A6EB95120
:1031F80066EC38F0000E0001B86F010EB76F2FD0E3
:10320800BA51B7190EE1BB51B819D8A40AD0BCC03D
:1032180029F0BDC02AF0FF0E2C6E2B68CAEC3BF0DB
:103228001BD0010E0001BC25306E000EBD21316E91
:1032380030EC34F030C0B5F031C0B6F0BCC029F085
:10324800BDC02AF0B5C02BF0B6C02CF0CAEC3BF0DC
:10325800B5C0BCF0B6C0BDF00001B74BB82BB75134
:10326800BA5DB851BB59D8A01200CAD702501DE1A7
:10327800200E015CD8B019D0025010E10B0E015C91
:10328800D8B00CD0DC0E0124F66E8F0E0220F76E3B
:10329800F86A000EF8220800F55012000B0E01180B
:1032A8000210D8A402D0080E1200025003E1400E0A
:1032B800015CD8B0A4D0200E015E000E025A025064
:1032C80010E1080E015CD8B00CD0E80E0124F66EAF
:1032D8008F0E0220F76EF86A000EF8220800F550EB
:1032E8001200025046E10B0E015CD8B042D0F80E35
:1032F800036EFF0E046E01C005F002C006F0035015
:10330800052604500622FA0E0524F66E8F0E0620B6
:10331800F76EF86A000EF8220800F5501200200E29
:103328001200060E1200280E1200780E1200DE0E91
:103338001200380E12005F0E12004B0E1200000E23
:103348001200000E1200040E1200770E1200DE0E9C
:103358001200380E1200020E1200000E12000C0E9F
:103368001200000E1200000E1200000E1200000ED5
:10337800120001C003F002C004F00450000AD8A4EF
:10338800F6D703500B0AD8B4CAD7060AD8B4C9D797
:10339800030AD8B4C8D7010AD8B4C7D71F0AD8B403
:1033A800C6D7010AD8B4C5D7030AD8B4C4D7010A06
:1033B800D8B4C3D7070AD8B4C2D7010AD8B4C1D77A
:1033C800030AD8B4C0D7010AD8B4BFD70F0AD8B4F3
:1033D800BED7010AD8B4BDD7030AD8B4BCD7010AEE
:1033E800D8B4BBD7070AD8B4BAD7010AD8B4B9D762
:1033F800030AD8B4B8D7010AD8B4B7D7B8D7000EDB
:1034080012000001B051D8A412D0000E656E000E53
:103418000F01366F160E396F9F0E376F7B0E366FA2
:1034280001D0658665A6FDD7010E0001B06FB00515
:10343800D8B465BA0AD0000E626E000E0F01366F5E
:1034480036813689020E0001B06F62A406D00F01E2
:1034580036A503D062947DEC3CF065A202D0A19819
:10346800120062A009D00F0136A106D09FEC1DF012
:10347800040E0001B06F629062A804D00F0136B943
:1034880098EC3DF062AC1CD00F0136AD0ED0000EAA
:10349800116E730E106E000E126E000E136E000E7B
:1034A800156E010E146E02EC32F0629CDAEC3EF0FE
:1034B8000001A951D8A4A907A951D8B4ADEC29F0A5
:1034C80062AA04D00F0136BB25EC3BF062A212D0F1
:1034D8000F0136A30FD07F0E116E1068000E126E0A
:1034E800000E136E000E156E010E146E02EC32F013
:1034F800000E636E040E0001B06102D0A1981200A4
:103508000F0136A73CD0000E206E030E206401D0B8
:1035180036D062A634D064CFB3F00001B331E832BC
:10352800E8320F0BAB6F6296B3B507D0AB51010D04
:103538005E0EF324D96E010E07D00001AB51010DC8
:10354800610EF324D96E010EF420DA6E0101DF70EA
:103558000001AB51D8A403D03DEC2CF00ED0000EE6
:10356800116E720E106EB30E126E000E136E000EF8
:10357800156E000E146E02EC32F0202AC6D7A19800
:103588001200000E226E17D02250010DC00EF32437
:10359800F66E8D0EF420F76EF86A000EF8222250AF
:1035A800010D760EF324D96E010EF420DA6E0800B0
:1035B800F5CFDFFF222A2250010DC00EF324F66E4C
:1035C8008D0EF420F76EF86A000EF8220800F55008
:1035D8000009D8A4D9D7000E226E17D02250010DA9
:1035E800A50EF324F66E8C0EF420F76EF86A000E22
:1035F800F8222250010D8A0EF324D96E010EF42010
:10360800DA6E0800F5CFDFFF222A2250010DA50E41
:10361800F324F66E8C0EF420F76EF86A000EF8228A
:103628000800F5500009D8A4D9D7E0EC3FF001C054
:1036380019F002C01AF01B6A1C6A9E0E1D6E010E5C
:103648001E6E4BEC29F0216E212A000E226E1CD032
:103658002250010D720EF324F66E8E0EF420F76ED2
:10366800F86A000EF822225021C01FF0206A1F2697
:10367800000E20229E0E1F24D96E010E2020DA6E25
:103688000800F5CFDFFF222A2250010D720EF32425
:10369800F66E8E0EF420F76EF86A000EF822080017
:1036A800F5500009D8A4D4D7000E226E17D02250A6
:1036B800010D3E0EF324F66E8D0EF420F76EF86AB7
:1036C800000EF8222250010DB20EF324D96E010E1D
:1036D800F420DA6E0800F5CFDFFF222A2250010D10
:1036E8003E0EF324F66E8D0EF420F76EF86A000E87
:1036F800F8220800F5500009D8B41200D8D7000EF7
:103708001F6E17D01F50010D800EF324F66E8D0E1C
:10371800F420F76EF86A000EF8221F50010D760E9D
:10372800F324D96E010EF420DA6E0800F5CFDFFF1E
:103738001F2A1F50010D800EF324F66E8D0EF42003
:10374800F76EF86A000EF8220800F5500009D8A4B0
:10375800D9D7000E1F6E17D01F50010D9E0EF324EF
:10376800F66E8E0EF420F76EF86A000EF8221F50DF
:10377800010D8A0EF324D96E010EF420DA6E0800CA
:10378800F5CFDFFF1F2A1F50010D9E0EF324F66EA2
:103798008E0EF420F76EF86A000EF8220800F55035
:1037A8000009D8A4D9D7000E1F6E17D01F50010DDD
:1037B800700EF324F66E8D0EF420F76EF86A000E84
:1037C800F8221F50010D9E0EF324D96E010EF4202D
:1037D800DA6E0800F5CFDFFF1F2A1F50010D700EAB
:1037E800F324F66E8D0EF420F76EF86A000EF822B8
:1037F8000800F5500009D8A4D9D7EFEC3FF001C074
:1038080019F002C01AF01B6A1C6A1F50010D9E0EA7
:10381800F3241D6E010EF4201E6E4BEC29F0000EF1
:103828001F6E17D01F50010D600EF324F66E8D0E1B
:10383800F420F76EF86A000EF8221F50010DB20E40
:10384800F324D96E010EF420DA6E0800F5CFDFFFFD
:103858001F2A1F50010D600EF324F66E8D0EF42002
:10386800F76EF86A000EF8220800F5500009D8B47F
:103878001200D8D7C2EC3FF001C0FAF002C0FBF04A
:10388800BDEC3FF001C0FCF002C0FDF0FCC0F6F05A
:10389800FDC0F7F013EC35F00EEC38F00009D8A4B1
:1038A80026EC3CF0000EEDEC39F09FEC1DF0040026
:1038B80005EC1AF07CEC3FF0E8EC2CF0B4EC3CF0B2
:1038C80083A439D06ACFF8F00001F96BF851F96F89
:1038D800F86B6B50F813F807D8A0F907BDEC3FF068
:1038E80001500001F85F0250F95BF851F911D8B4A2
:1038F80022D08890FAC0EEF0FBC0EFF0FCC0F0F0E8
:10390800FDC0F1F079EC1FF0FAC0E8F0FBC0E9F077
:10391800F8C0EAF04EEC27F00001FD516A6EFCC0D9
:103928006BFFFB51686EFAC069FF000E666E3F0EB2
:10393800676EA49E888000016351D8A4B8D7A2EC12
:1039480021F02AD0000EE1EC37F048D0010EE1EC6E
:1039580037F044D0020EE1EC37F040D0030EE1EC32
:1039680037F03CD0040EE1EC37F038D0050EE1EC2E
:1039780037F034D014EC40F0050AD8A42FD0000159
:103988006551E8EC28F02AD014EC40F0050AD8A4D8
:1039980025D0B7EC35F022D000016251070B5E6EDE
:1039A8005F6A5F50000AD8A419D05E50000AD8B4E4
:1039B800C9D7010AD8B4CAD7030AD8B4CBD7010AE1
:1039C800D8B4CCD7070AD8B4CDD7010AD8B4CED743
:1039D800030AD8B4CFD7010AD8B4D6D7010E00014C
:1039E800636F65D7000E016E17D00150010DF00E00
:1039F800F324F66E8D0EF420F76EF86A000EF822A6
:103A08000150010D760EF324D96E010EF420DA6E02
:103A18000800F5CFDFFF012A0150010DF00EF32455
:103A2800F66E8D0EF420F76EF86A000EF822080084
:103A3800F5500009D8A4D9D7000E016E17D001504F
:103A4800010D4F0EF324F66E8D0EF420F76EF86A12
:103A5800000EF8220150010D8A0EF324D96E010ED2
:103A6800F420DA6E0800F5CFDFFF012A0150010DBE
:103A78004F0EF324F66E8D0EF420F76EF86A000EE2
:103A8800F8220800F5500009D8A4D9D7000E016E15
:103A980017D00150010DCE0EF324F66E8C0EF420D3
:103AA800F76EF86A000EF8220150010D9E0EF324FD
:103AB800D96E010EF420DA6E0800F5CFDFFF012A77
:103AC8000150010DCE0EF324F66E8C0EF420F76E25
:103AD800F86A000EF8220800F5500009D8A4D9D7D2
:103AE800000E016E17D00150010D580EF324F66E2A
:103AF8008E0EF420F76EF86A000EF8220150010DC0
:103B0800B20EF324D96E010EF420DA6E0800F5CF58
:103B1800DFFF012A0150010D580EF324F66E8E0EB8
:103B2800F420F76EF86A000EF8220800F550000934
:103B3800D8B41200D8D7A098000E636E000E626E3B
:103B4800000E0F01266F270E016E0F0E026E000E7B
:103B5800046E000E036E000E066E020E056EF3EC88
:103B68003DF0160E0F01396F9F0E376F7B0E366FC3
:103B7800000E096E0B0E096401D00ED00950040D19
:103B8800000EF324D96E0D0EF420DA6EDE6ADE6ABA
:103B9800DE6ADD6A092AEED7658C000E0F01386FE0
:103BA8006598659C6296000E0001696F000E010120
:103BB800346F000E366F000E356F62B6F3D7010E04
:103BC8000001A76F010EA66F000EA56F000EA46F6F
:103BD800000EAC6F000E096E020E096401D02ED0E3
:103BE8000950020D6C0EF324D96E000EF420DA6E23
:103BF800000EDE6E000EDD6E0950020D720EF3240B
:103C0800D96E000EF420DA6E000EDE6E000EDD6E48
:103C18000950010D610EF324D96E010EF420DA6EFD
:103C2800000EDF6E0950010D5E0EF324D96E010EF1
:103C3800F420DA6E000EDF6E092ACED7080E0001D6
:103C48006C6F0D0E6D6F160E0F01266F0D0E0D01A8
:103C5800036F300E026F080E016F040E006F008FA5
:103C6800000E0001B46F000E0101546F000E556F75
:103C7800000E566F000E576F000E0001A36F000E66
:103C8800B06F1200800E0D013019D8A41200C00EBA
:103C98000001696F88D0A40E0001666F8F0E676FF0
:103CA800000E6B6F120E6A6F12000D013251D8A40C
:103CB80043D03251020DA40EF324F66E8E0EF4207A
:103CC800F76EF86A000EF8220900F5CF66F00A00D0
:103CD800F5CF67F0020E00016625016E000E672120
:103CE800026E01C0F6FF02C0F7FFF86A0E0EF76415
:103CF80003D00800F55005D0F6CFE9FFF7CFEAFF6B
:103D0800EF5000016A6F030E6625016E000E6721F1
:103D1800026E01C0F6FF02C0F7FFF86A0E0EF764E4
:103D280003D00800F55005D0F6CFE9FFF7CFEAFF3A
:103D3800EF5000016B6F1200000E0001696F120056
:103D4800040E0D01326127D03251020D7A0EF32490
:103D5800F66E8E0EF420F76EF86A000EF82209004F
:103D6800F5CF66F00A00F5CF67F066C0F6FF67C0CA
:103D7800F7FFF86A0E0EF76403D00800F55005D077
:103D8800F6CFE9FFF7CFEAFFEF50016E01500001CF
:103D98006A6F6B6B1200000E0001696F1200000E53
:103DA8000001696F12000D013351010AD8B473D7AD
:103DB800030AD8B47AD7010AD8B4C2D7F0D7000E0C
:103DC800216E17D02150010DD00EF324F66E8D0E02
:103DD800F420F76EF86A000EF8222150010D760ED5
:103DE800F324D96E010EF420DA6E0800F5CFDFFF58
:103DF800212A2150010DD00EF324F66E8D0EF420E9
:103E0800F76EF86A000EF8220800F5500009D8A4E9
:103E1800D9D7000E216E17D02150010D4B0EF32477
:103E2800F66E8E0EF420F76EF86A000EF822215016
:103E3800010D8A0EF324D96E010EF420DA6E080003
:103E4800F5CFDFFF212A2150010D4B0EF324F66E2A
:103E58008E0EF420F76EF86A000EF8220800F5506E
:103E68000009D8A4D9D7000E216E17D02150010D12
:103E7800890EF324F66E8E0EF420F76EF86A000EA3
:103E8800F8222150010D9E0EF324D96E010EF42064
:103E9800DA6E0800F5CFDFFF212A2150010D890EC7
:103EA800F324F66E8E0EF420F76EF86A000EF822F0
:103EB8000800F5500009D8A4D9D7F4EC3FF001C0A8
:103EC80019F002C01AF01B6A1C6A21501F6E206A82
:103ED800010E1F26000E20229E0E1F241D6E010EAD
:103EE80020201E6E4BEC29F01200EEC0D9FFEFC067
:103EF800DAFFDF505D6E7F0E5D6473D067EC3FF0D4
:103F08000009D8B428D0F0C015F0F1C016F070EC54
:103F180026F01200EEC03FF0EFC040F0F0C041F0D4
:103F2800F1C042F04AEC35F01200EEC044F0EFC0A8
:103F380045F0F0C046F0F1C047F034EC2EF0120026
:103F4800EEC055F0EFC056F0F0C057F0F1C058F091
:103F58009DEC11F012005D50800AD8B4DBD7010A3D
:103F6800D8B4E3D7030AD8A41200EAD7F0C015F0F2
:103F7800F1C016F070EC26F01200F0C005F0F1C0A8
:103F880006F0000E076E8BEC2BF01200F0C005F067
:103F9800F1C006F0010E076E8BEC2BF01200F0C09A
:103FA80005F0F1C006F09FEC14F01200F0C001F02B
:103FB800F1C002F0D4EC2EF01200F0C001F0F1C014
:103FC80002F0EEC003F0EFC004F003500410D8A4D0
:103FD800200E056E000E076E400E066EBEEC36F023
:103FE80012005D50100AD8B4C1D7010AD8B4C5D799
:103FF800030AD8B4CBD7010AD8B4D1D7070AD8B4A2
:10400800D5D7340AD8A41200D8D7000120EE01F081
:104018009251D9269351DA22DF50026E02500101E3
:10402800355D000E3659D8A035C102F00250355F13
:10403800000E365B000E016E11D00150010D380ED6
:10404800F324D96E0D0EF420DA6E31C1E1FF32C1CE
:10405800E2FFDFCFE7FF314B322B012A0250015C30
:10406800D8A0EBD735513611D8B433D0000120EEA3
:1040780001F09051D9269151DA22080EDF6E20EE18
:1040880002F09051D9269151DA22380EDE6E0D0ECB
:10409800DD6E92C0D9FF93C0DAFFDFBC0DD090C0AF
:1040A800D9FF91C0DAFF480EDF6E90C0D9FF91C0EA
:1040B800DAFF000EDB8E120090C0D9FF91C0DAFF44
:1040C800080EDF6E90C0D9FF91C0DAFF000EDB8EBC
:1040D8001200000120EE01F09051D9269151DA2208
:1040E800080EDF6E20EE02F09051D9269151DA22A7
:1040F800300EDE6E0D0EDD6E90C0D9FF91C0DAFF76
:10410800040EDF6E90C0D9FF91C0DAFF000EDB8E7F
:104118000101349F0001A851D8A41200ADEC29F088
:104128001200F2C101F0F3C102F001D80AD0050073
:10413800FA6E0101EA51FD6EEB51FE6EFF6AFA500C
:1041480012000009D8B40CD001010D51010D9C0ECC
:10415800F324D96E000EF420DA6EDE04D8A419D048
:104168000DC148F0010E496E000E4A6E482A03D070
:10417800D89049364A36482EFBD7491C4B6E4A1C04
:104188004C6E4B50010172174C507317F1EC36F01E
:104198004ED00DC148F0010E496E000E4A6E482AF5
:1041A80003D0D89049364A36482EFBD701017251C0
:1041B800491673514A1649504A10D8A436D0F2C14C
:1041C80001F0F3C102F001D809D00500FA6EE451FC
:1041D800FD6EE551FE6EFF6AFA50120001500210A2
:1041E800D8B420D00DC148F0010E496E000E4A6EB9
:1041F800482A03D0D89049364A36482EFBD749502A
:10420800010172134A5073132151F00B0609216FF3
:10421800280E2B6F000E2C6F010E0D018C6F4EECCB
:1042280002F005D0F1EC36F002D04EEC02F00001BD
:10423800A1511200066E0650D8A42CD0000120EE21
:1042480001F09051D9269151DA22080EDF6E20EE46
:1042580002F09051D9269151DA22300EDE6E0D0E01
:10426800DD6E90C0D9FF91C0DAFF0C0EDF6E90C0F2
:10427800D9FF91C0DAFF000EDB8E6CC0D9FF6DC08C
:10428800DAFF040EDF6E6CC0D9FF6DC0DAFF000ED6
:10429800DB8E12000150026E036AD8900236033694
:1042A8000650046E056AD89004360536D890043650
:1042B80005360250042603500522D89004360536E8
:1042C800D89004360536000E0424076E0D0E05201E
:1042D800086E07C0D9FF08C0DAFF000EDB8407C0EC
:1042E800D9FF08C0DAFF000EDB8E0650040DF3CFAD
:1042F80002F0F4CF03F00150020DF3500226F450FF
:104308000322D89002360336D89002360336040EBC
:104318000226000E0322000E0224076E0D0E032053
:10432800086E07C0D9FF08C0DAFF000EDB8407C09B
:10433800D9FF08C0DAFF000EDB8E12006DD0000135
:104348006151D8B4120072EC3FF0000E0001616FA9
:1043580012008C90000E01016F6F000E6E6F020E3E
:104368000001986F1200B8EC3EF0000E01016F6F6B
:10437800000E6E6F030E0001986F120001016E4B64
:104388006F2B6F5104E1040E6E5DD8A01200C9ECCA
:104398003EF0000E01016F6F000E6E6F040E0001FB
:1043A800986F1200C7EC3DF0960E5CEC3EF098EC6E
:1043B8003FF0000E01016F6F000E6E6F000E6D6F03
:1043C800000E6C6F050E0001986F12006551D8A49D
:1043D8000BD001016C4B6D2BFA0E6C196D11D8A422
:1043E80003D0100E0001656F00016051D8A40CD0F5
:1043F8006151D8A409D001016E2903E16F29D8B40D
:1044080012006E4B6F2B1200000E01016F6F000E31
:104418006E6F31EC2BF0120000019851000AD8B4ED
:104428008ED7010AD8B495D7030AD8B49CD7010A05
:10443800D8B4A4D7070AD8B4B5D7010AD8A41200AB
:10444800C5D7000E016E400E026E0D0E036E400EB3
:10445800046E020E2BEC23F001C08AF002C08BF030
:1044680070C088F071C089F0000E0001A26FA169C8
:10447800000EA06F000E9F6F000E9B6F000E0101D3
:10448800506F000E516F000E526F000E536F000EEA
:104498004C6F000E4D6F000E4E6F000E4F6F010EE9
:1044A80000019A6F000E0101736F000E726F000E0B
:1044B8000D6F46D00D51010D9C0EF324D96E000EE0
:1044C800F420DA6E000EDF6EF2C101F0F3C102F0E3
:1044D80001D809D00500FA6EEA51FD6EEB51FE6E67
:1044E800FF6AFA5012000009D8B426D0F2C101F0D0
:1044F800F3C102F001D80AD00500FA6E0101E451B7
:10450800FD6EE551FE6EFF6AFA501200015002106E
:10451800D8B412D00DC10CF0010E0D6E000E0E6E47
:104528000C2A03D0D8900D360E360C2EFBD70D5022
:10453800010172130E50731322EC37F001010D2B99
:104548000D51D8A41200B6D7096E000188518911FF
:10455800D8B406D088C0D9FF89C0DAFFDFBE120000
:104568008A518B11D8B406D08AC0D9FF8BC0DAFF24
:10457800DFBE1200A2C00AF0A169000EA06F000EF3
:104588009F6F08C188FD09C189FD0AC18AFD0BC159
:104598008BFD010E0D018C6F030E0001A26F43D03D
:1045A800020E0D018C6F1200010E016E020E1EEC40
:1045B80021F01200020E0D018C6F010E016E020E29
:1045C8001EEC21F01200000E016E020E1EEC21F00E
:1045D8001200020E0D018C6F000E016E020E1EEC11
:1045E80021F0120022EC37F001012151F00B0509EE
:1045F800216F200E2B6F000E2C6F020E0A18D8A404
:104608000CD0085109110A110B11D8B406D0000EAC
:10461800016E020E1EEC21F01200010E016E020E58
:104628001EEC21F012000950010AD8B4B9D7030AC8
:10463800D8B4BAD7010AD8B4BDD7070AD8B4C3D7F3
:10464800010AD8B4C6D77A0AD8A41200CBD7096E03
:104658000150D8B407D00950020D6C0EF324D96E5E
:10466800000E06D00950020D720EF324D96E000E0A
:10467800F420DA6EDECF0AF0DDCF0BF00A500B1013
:10468800D8A405D0000E016E000E026E120020EEB6
:1046980002F00A50D9260B50DA2202C0DEFF03C00E
:1046A800DDFF20EE01F00A50D9260B50DA2204C0B3
:1046B800DFFF0AC0D9FF0BC0DAFF400EDF160AC0C1
:1046C800D9FF0BC0DAFF000EDB860AC0D9FF0BC08A
:1046D800DAFF000EDB8E0150D8B418D00950020D55
:1046E8006C0EF324D96E000EF420DA6EDECF05F0DE
:1046F800DDCF06F0040E0518076E0650086E095047
:10470800020D6C0EF324D96E000E17D00950020D5D
:10471800720EF324D96E000EF420DA6EDECF05F0A7
:10472800DDCF06F0040E0518076E0650086E095016
:10473800020D720EF324D96E000EF420DA6E07C053
:10474800DEFF08C0DDFF0AC001F00BC002F0120056
:104758006598000169BF3CD0010134AF0DD0020E4D
:104768000001AE6FA451D8B485EC2EF0000E000104
:10477800A66F000EA76F1200000120EE01F0905105
:10478800D9269151DA22080EDF6E20EE02F0905100
:10479800D9269151DA22300EDE6E0D0EDD6E90C0F4
:1047A800D9FF91C0DAFF0C0EDF6E90C0D9FF91C01F
:1047B800DAFF000EDB8E6CC0D9FF6DC0DAFF040E85
:1047C800DF6E6CC0D9FF6DC0DAFF000EDB8E120001
:1047D8000D0130AF12D0010E0001AE6FA551D8B453
:1047E80085EC2EF0000E0001A66F000EA76FA851F1
:1047F800D8A41200ADEC29F01200020E0001AE6F31
:1048080020EE01F09051D9269151DA22080EDF6E80
:1048180020EE02F09051D9269151DA22300EDE6E48
:104828000D0EDD6E90C0D9FF91C0DAFF040EDF6E69
:1048380090C0D9FF91C0DAFF000EDB8E000EA66F84
:10484800000EA76FA851D8A41200ADEC29F01200F1
:10485800016E76D08890729A958C95988C98959AD6
:104868008C9A959E8C8E550EA76EAA0EA76E0E0179
:10487800BF91000ED76F1F0EFC6F1F0EFE6F170E35
:10488800FC6F0A0ED56F0B0ED66F160EFD6F550E08
:10489800A76EAA0EA76EBF81738E738C729E729CD0
:1048A80072987290729272947296728A000E0001D7
:1048B800946F12008890729A0F014093550EA76E5C
:1048C800AA0EA76E0E01BF910A0ED76F150EFC6FC8
:1048D800160EFD6F130EFE6F550EA76EAA0EA76E6D
:1048E800BF81729A958A9588959C8C8C9584739EC5
:1048F800738C729E729C72987250F00B0409726EDF
:10490800A49E728A888A88888886889488928698DD
:10491800869A869C869E8690869286948696000EB7
:10492800666E3F0E676E020E6A6E400E6B6E020E6A
:10493800686E000E696E8880010E0001946F120087
:104948000150000AD8B486D7010AD8A41200B2D7F9
:104958000D013039E832030B0009D8A4120047D002
:104968000001698F080EB06F120046EC1EF01200AD
:104978001DEC25F01200B40E0001666F000E676F83
:104988006981010E6A6F698F120093EC2CF0120096
:10499800DAEC0BF012000D013451010DE20EF32494
:1049A8000001666F010EF420676F6981010E6A6F5E
:1049B800698F12000001698F0D013451010DE20E5B
:1049C800F324D96E010EF420DA6E32CDDFFF120027
:1049D800000E116E020E106E000E126E000E136E97
:1049E800000E156E000E146E02EC32F012000D016E
:1049F8003151000AD8B4C9D7010AD8B4C9D7020AB4
:104A0800D8B4C6D7060AD8B4ABD7030AD8B4ADD73A
:104A1800010AD8B4DDD70F0AD8B4ADD7010AD8B483
:104A2800A7D7030AD8B4B7D7010AD8B4C3D7070A97
:104A380012000001698F270E016E0F0E026E000E24
:104A4800046E000E036E000E066E020E056EF3EC89
:104A58003DF0000E016E0D0E026E000E046E000E8B
:104A6800036E000E066E300E056EF3EC3DF0658C9D
:104A7800000E186E020E186401D016D01850010DE1
:104A8800610EF324D96E010EF420DA6E000EDF6E8B
:104A98001850010D5E0EF324D96E010EF420DA6E63
:104AA800000EDF6E182AE6D7E20E016E010E026EC6
:104AB800000E046E000E036E000E066E020E056EEA
:104AC800F3EC3DF0659C080E00016C6F0D0E6D6FE8
:104AD800000E926F0D0E936F92C090F093C091F0FC
:104AE80032CDB4F0B451D8A403D0100EB06F120078
:104AF800000E116E010E106EB40E126E000E136EC3
:104B0800000E156E010E146E02EC32F0200E00013C
:104B1800B06F12000D0130511F0BE806D8A4120027
:104B28003451D8A41200060E3119D8B41AD022D0A4
:104B38000001B405D8A41ED0B90E666F8E0E676F3B
:104B4800000E6B6F090E0BD0C00E696F13D06D0E7F
:104B58000001666F8F0E676F000E6B6F1D0E6A6F18
:104B6800F3D70D013351210AD8B4E2D7030AD8B4D8
:104B7800EED7010A0D013039E832030BE806D8A454
:104B8800120024D0B20E0001666F000E676F000E8F
:104B98006B6F010E6A6FC10E696F1200800E000103
:104BA800696F33CDB2F01200B10E0001666F000ECE
:104BB800676F000E6B6F010E6A6F810E696F1200CE
:104BC800800E0001696F32CDB1F012000D01315134
:104BD800010AD8B41200030AD8B4D4D7010AD8B449
:104BE800E3D70A0AD8B41200030AD8B4D7D7010AFF
:104BF800D8A41200E5D70B500C100D100E10D8A435
:104C080002D0010E01D0000E116E00019B05D8A440
:104C180005D01104D8A402D0000E12000B500101D7
:104C280008191AE10C50091917E10D500A1914E175
:104C38000E500B19D8A410D00001A205D8A406D094
:104C48002A0EA119D8B408D0000E12002A0EA119F4
:104C5800D8A402D0000E1200010108510B5C0951C2
:104C68000C580A510D580B510E58D8B002D0010EED
:104C780001D0000E0F6E020E0001A219D8A414D0A4
:104C88002A0EA119D8B405D01150D8A402D0050E07
:104C98001DD09B05D8B40FD01104D8B403D00F048D
:104CA800D8A4F5D7040E12D02A0EA119D8B40DD065
:104CB8009B05D8A402D0010E09D01104D8B403D0A2
:104CC8000F04D8A402D0020E01D0030E106E1050AB
:104CD800A8EC22F01050120015C0D9FF16C0DAFF58
:104CE800100EDF6E20EE01F01550D9261650DA228C
:104CF800C10EDF6E20EE02F01550D9261650DA22CA
:104D0800250EDF6E20EE03F01550D9261650DA2254
:104D180067EC3FF0DF6E20EE04F01550D9261650F0
:104D2800DA22000EDF6E20EE05F01550D926165057
:104D3800DA22010EDF6E20EE06F01550D926165045
:104D4800DA22000EDF6E20EE07F01550D926165035
:104D5800DA2214EC40F0DF6E20EE08F01550D92668
:104D68001650DA2260C0DFFF20EE09F01550D92670
:104D78001650DA2261C0DFFF20EE0AF01550D9265E
:104D88001650DA2262C0DFFF20EE0BF01550D9264C
:104D98001650DA2263C0DFFF20EE0CF01550D9263A
:104DA8001650DA2264C0DFFF20EE0DF01550D92628
:104DB8001650DA2265C0DFFF1200000E0A6E000EE0
:104DC8000C6E62D00C500124066E000E0220076E95
:104DD800000E0320086E000E0420096E095008100A
:104DE80004E1900E075CD8A018D00C500124066E80
:104DF800000E0220076E000E0320086E000E04202D
:104E0800096E09500AE1F80E065CFF0E0758010EFC
:104E18000858D8B002D0000E29D00C500124066ED4
:104E2800000E0220076E000E0320086E000E0420FC
:104E3800096E095008E1F80E065CFF0E0758010ECE
:104E48000858D8A015D00C500124066E000E022078
:104E5800076E000E0320086E000E0420096E09502C
:104E680007E1020E085CD8B003D0010E0B6E01D02A
:104E78000B680B28D8A402D0FF0E12000B500A5C56
:104E8800D8A00BC00AF00C2A05500C5CD8A09AD701
:104E98000A501200E8C0D9FFE9C0DAFF7F0EDF64CC
:104EA80001D01200010E586E58D05850010DF35021
:104EB8000001E825D96EF450E921DA6E990EDE1862
:104EC800D8B412002ED05850010DF350E825D96EF1
:104ED800F450E921DA6EDF5023EC2FF00CD0585053
:104EE800010DF3500001E825D96EF450E921DA6E7E
:104EF800DF5023EC2FF0582A30D05850010DF350D2
:104F08000001E825D96EF450E921DA6EDF50566EBB
:104F1800576A56C053F057C054F0E8EC30F05826A2
:104F28001CD05850010DF3500001E825D96EF450FB
:104F3800E921DA6EDF50F00B566E576A5750000AB7
:104F4800D8A412005650200AD8B4BDD7100AD8B435
:104F5800C6D7600AD8A41200D0D70001EA51585C1D
:104F6800D8B01200A2D726D0800E1200000E120070
:104F7800020E1200000E1200040E1200020E1200A1
:104F8800030E1200080E1200010E1200000E12008D
:104F9800000E1200000E1200FF0E12001F0E12006B
:104FA800000E1200000E1200550E1200AA0E12007A
:104FB800000E120001C003F002C004F00450010A00
:104FC800D8A4F6D70350BE0AD8B4CED7010AD8B4AD
:104FD800CDD77F0AD8B4CCD7010AD8B4CBD7030A27
:104FE800D8B4CAD7010AD8B4C9D7070AD8B4C8D719
:104FF800010AD8B4C7D7030AD8B4C6D7010AD8B4A7
:10500800C5D70F0AD8B4C4D7010AD8B4C3D7030A7E
:10501800D8B4C2D7010AD8B4C1D7070AD8B4C0D700
:10502800010AD8B4BFD7330AD8B4BED7010AD8B456
:10503800BDD7BED7080E016E00016B5110E1080EF6
:105048006A5DD8B00CD06AC001F0AF51D8A402D0C4
:10505800010E04D0AF05D8A402D0020EAF6F0150E4
:105068006A5F000E6B5B20EE01F06C51D9266D5122
:10507800DA2201C0DFFF380E8E6F0D0E8F6F69A127
:105088001CD03AD066C0F6FF67C0F7FFF86A8EC03A
:10509800D9FF8FC0DAFF0E0EF76403D00800F55071
:1050A80005D0F6CFE9FFF7CFEAFFEF50DF6E00013A
:1050B800664B672B8E4B8F2B01060150D8B412001C
:1050C800E1D766C0F6FF67C0F7FFF86A8EC0D9FF60
:1050D8008FC0DAFF0E0EF76403D00800F55005D034
:1050E800F6CFE9FFF7CFEAFFEF50DF6E0001664B1E
:1050F800672B8E4B8F2B01060150D8B41200E1D7D5
:105108006CC0D9FF6DC0DAFF0001000EDFBC010ED4
:10511800026E040E6C196C6F6D516D6F080EB0192C
:10512800D8A40DD00D0132517F0B0F01386F3851C3
:10513800D8B402D0100E01D0040E0001B06FAE0535
:10514800D8A43BD020EE02F06C51D9266D51DA225A
:10515800380EDE6E0D0EDD6E1EEC28F0020E00011C
:10516800AF19D8A40DD06CC0D9FF6DC0DAFF040EFA
:10517800DF6E6CC0D9FF6DC0DAFF000EDB8E120047
:105188000250D8A40DD06CC0D9FF6DC0DAFF480E0C
:10519800DF6E6CC0D9FF6DC0DAFF000EDB8E120027
:1051A8006CC0D9FF6DC0DAFF080EDF6E6CC0D9FF86
:1051B8006DC0DAFF000EDB8E1200010134BF349F90
:1051C800000E0001AE6F12002B6EB9EC3AF018D049
:1051D800A7EC13F041D0F6EC1CF03ED096EC15F09D
:1051E8003BD0E3EC1EF038D0C5EC1AF035D09BEC80
:1051F80007F032D071EC17F02FD083EC1BF02CD0D5
:105208002B50F00B296E2A6A2A50000AD8A424D001
:105218002950000AD8B4DCD7100AD8B4DCD7300A31
:10522800D8B4DCD7100AD8B4DCD7700AD8B4DCD725
:10523800100AD8B4DCD7300AD8B4DCD7100AD8B4EE
:10524800DCD70AD02E0E0101876F2E0E0101866F62
:105258002E0E0101856F15D000016239E842070B57
:10526800030B296E2A6A2A50000AD8A40AD02950AA
:10527800010AD8B4EDD7030AD8B4E7D7010AD8B4DD
:10528800E1D7F2AE1200490E0101886F12001DC06D
:1052980011F01EC012F019C013F01AC014F0000E5D
:1052A800166E0A0E156E47EC3BF01C501B1006E1FB
:1052B800100E195C270E1A58D8A00AD020EE05F057
:1052C8001D50D9261E50DA22200EDF6E050E120060
:1052D8001C501B1006E1E80E195C030E1A58D8A0E2
:1052E8000AD020EE04F01D50D9261E50DA22200ED6
:1052F800DF6E040E12001C501B101A1004E1640E1D
:10530800195CD8A00AD020EE03F01D50D9261E50F3
:10531800DA22200EDF6E030E12001C501B101A102A
:1053280004E10A0E195CD8A00AD020EE02F01D5044
:10533800D9261E50DA22200EDF6E020E120020EE51
:1053480001F01D50D9261E50DA22200EDF6E010E04
:1053580012000001A751D8A41200010EA76FA65190
:10536800D8A41200010EA66F020EAE19D8A415D04B
:1053780020EE01F06C51D9266D51DA22000EDF6E55
:105388006CC0D9FF6DC0DAFF480EDF6E6CC0D9FF64
:105398006DC0DAFF000EDB8E1200AE05D8A4120035
:1053A800000EAA6F20EE01F09251D9269351DA220D
:1053B800080EDF6E20EE02F09251D9269351DA22C0
:1053C800300EDE6E0D0EDD6E92C0D9FF93C0DAFF8F
:1053D800040EDF6E92C0D9FF93C0DAFF000EDB8E99
:1053E800010EAA6F20EE01F09051D9269151DA22D0
:1053F800080EDF6E20EE02F09051D9269151DA2284
:10540800300EDE6E0D0EDD6E90C0D9FF91C0DAFF52
:10541800800EDF6E12000D0130511F0BE806D8A474
:1054280012003451D8A412004ED032513311D8A4EE
:10543800120036513711D8A41200000E0001A26FD5
:10544800A169000EA06F000E9F6F010E9A6F76C0C3
:105458000CF077C00DF00C500D10D8B40AD076C0FF
:105468000EF077C00FF00EC0D9FF0FC0DAFFDFBE15
:105478000FD0000E016E400E026E0D0E036E400E30
:10548800046E020E2BEC23F001C08AF002C08BF0F0
:10549800800E0001696F12000D0132513311D8A43A
:1054A800120036053711D8A41200000E386F380ED6
:1054B8000001666F0D0E676F000E6B6F010E6A6F4D
:1054C800C10E696F12000D013151FE0AD8B4E4D73C
:1054D800010AD8A41200A9D753D001C0F6FF02C010
:1054E800F7FFF86A0E0EF76403D00800F55005D0F0
:1054F800F6CFE9FFF7CFEAFFEF500009D8B419D08B
:1055080003C0D9FF04C0DAFFDF50076E01C0F6FF01
:1055180002C0F7FFF86A0E0EF76403D00800F550D2
:1055280005D0F6CFE9FFF7CFEAFFEF500718D8B458
:1055380023D003C0D9FF04C0DAFFDF50076E086A22
:10554800071E081E074A082A01C0F6FF02C0F7FF17
:10555800F86A0E0EF76403D00800F55005D0F6CFB0
:10556800E9FFF7CFEAFFEF50096E09500724016EF3
:10557800000E0820026E1200014A022A034A042A79
:105588000506D8A006060528A8E10628D8A4A5D7A8
:10559800000E026E000E016E1200000E3F6E000E2D
:1055A800416E220E406E415056E1260E405CD8B046
:1055B80052D0000E436E000E426E020E435CD8B00D
:1055C80047D040C028F041C029F042C02AF043C06B
:1055D8002BF0000E2D6E0B0E2C6E340E2E6E000E60
:1055E8002F6E66EC3DF03450D8A402D0FF0E1200A6
:1055F800E50E3418D8B426D030C001F031C002F01E
:10560800340E036E000E046E000E066E080E056E54
:1056180070EC2AF001500210D8A414D032C001F066
:1056280033C002F03C0E036E000E046E000E066ED0
:10563800030E056E70EC2AF001500210D8A402D0B7
:105648003F5012003F2A200E4226000E4322B5D7B3
:10565800404A412AA8D7FF0E120041D000016151EB
:10566800800A7F0FD8A01200000E616F12006151EE
:10567800800A7F0FD8A01200300E646F300E656F5D
:10568800000E616F12006151800A7F0FD8A01200CE
:10569800000E616F12006151800A7F0FD8A01200BE
:1056A800000E616F12006151800A7F0FD8A01200AE
:1056B800600E646F600E656F000E616F12006151BD
:1056C800800A7F0FD8A01200000E616F120061518E
:1056D800800A7F0FD8A0120026EC3CF012000001CF
:1056E8006551000AD8B4BAD7200AD8B4C0D7100A6E
:1056F800D8B4C9D7700AD8B4D6D7100AD8B4CBD77B
:10570800300AD8B4DCD7100AD8A41200E0D7075062
:10571800D8B406D005C0D9FF06C0DAFF120E05D0EE
:1057280005C0D9FF06C0DAFF110EDF6E20EE01F0CA
:105738000550D9260650DA22C10EDF6E20EE02F09F
:105748000550D9260650DA22250EDF6E030E0D6E9F
:105758000750D8B402D0020E01D0000E0F6E0FC051
:105768000EF01AD0000E106E130E106401D013D074
:1057780010C001F00E501FEC3EF0086E0D50010DE8
:10578800F3500524D96EF4500620DA6E08C0DFFF06
:105798000D2A102AE9D70E2A0F50086E096A020E40
:1057A8000826000E09220E500A6E0B6A08500A5C81
:1057B8000B50800A0C6E0950800A0C58D8B01200A1
:1057C800D1D7060EF66E800EF76E000EF86E02EE5A
:1057D800F2F010EE09F00900F5CFEEFFE550E150C8
:1057E800FAE1180EF66E7E0EF76E000EF86E01EEF8
:1057F800E4F010EE1CF00900F5CFEEFFE550E150A3
:10580800FAE1580EF66E800EF76E000EF86E09007B
:10581800F5CFFEF003EE40F012EE00F0EE6AE55030
:10582800E150FCE1E250FAE108EE00F014EE00F07D
:10583800EE6AE550E150FCE1E250FAE103EE00F0D7
:10584800400EEE6AE806FDE102EE00F0F20EEE6AA6
:10585800E806FDE101EE00F0E40EEE6AE806FDE17F
:1058680000EE60F0550EEE6AE806FDE100013EEF3D
:105878001CF02D0E0001A96FB3C01EF0FD0E1E1600
:10588800D8A444D0B3C01EF0D8901E323F0E1E16C6
:105898001E50040D000EF324926F0D0EF420936F2A
:1058A80092C090F093C091F0040E9019906F9151AE
:1058B800916F92C0D9FF93C0DAFFDF30E8320F0B47
:1058C8000D0AD8A420D0300E016E0D0E026E20EE07
:1058D80002F09251D9269351DA22DECF1EF0DDCFA5
:1058E8001FF01EC003F01FC004F003500410D8A41A
:1058F800200E056E000E076E080E066EBEEC36F022
:105908009FEC30F0120083EC37F012000001B35125
:10591800FD0B040AD8A4120084EC28F01200000E33
:105928000D01386F000E396F39D00001698F000101
:10593800AD05D8A43ED00D0138833BD00001698F56
:1059480038D00001698F0D0134BF0AD034510F0BD4
:10595800016E0150020D720EF324D96E000E09D0AB
:1059680034510F0B016E0150020D6C0EF324D96EE9
:10597800000EF420DA6EDECF02F0DDCF03F002C0B5
:10598800D9FF03C0DAFFDFAE14D002C0D9FF03C0CD
:10599800DAFFDFA40ED0010E386F0BD030511F0B89
:1059A800000AD8B4C2D7010AD8B4C8D7030AD8B4F1
:1059B800C8D7000169AF1200380E666F0D0E676F09
:1059C8006981020E6A6F1200200E0001B06101D0D9
:1059D800120065B2120084518511D8B406D084C073
:1059E800D9FF85C0DAFFDFBE1200010170517111C5
:1059F800D8B406D070C1D9FF71C1DAFFDFBE20D09C
:105A0800800E0001F26FF36BF2C0EEF0F3C0EFF01E
:105A1800000EF46FF56BF4C0F0F0F5C0F1F079EC1E
:105A28001FF0010E016E000E026E030E036E400E93
:105A3800046E010E2BEC23F001C070F102C071F16D
:105A4800800E0001E86F020EE96F400EEA6F4EEC1F
:105A580027F0000E016E800E026E020E036E400EDD
:105A6800046E010E2BEC23F001C084F002C085F017
:105A78001200B60E306E8F0E316EC70E326E8F0E5C
:105A8800336ED1EC2AF00001FE6FFE29D8B434D071
:105A9800FE516AEC34F030C078F031C079F032C091
:105AA8007AF033C07BF0000E01016B6F000E6A6F55
:105AB800000E00017C6F000E7D6F000E7E6F000EE1
:105AC8007F6F0101486949694A694B69000E446F53
:105AD800000E456F000E466F000E476F000E406FB8
