:020000040000FA
:040000000EEF00F00F
:0400080004EF50F0C1
:100018000CEF50F0DDEF37F00E500C24D96E0F5076
:100028000D20DA6E3A0EDE18D8B405D00C680D68CB
:100038000E680F681200020E0E24146E000E0F20B8
:10004800156E14500C24D96E15500D20DA6EDF5041
:10005800036E010E0E24166E000E0F20176E16503A
:100068000C24D96E17500D20DA6EDF50DEEC46F006
:10007800186E196A12C0D9FF13C0DAFF18C0DEFF64
:1000880019C0DDFF12C0D9FF13C0DAFF010EDB5023
:1000980004E1110EDE5CD8A009D0FC0E0C6EFF0E38
:1000A8000D6EFF0E0E6EFF0E0F6E1200040E0E2464
:1000B800146E000E0F20156E14500C24D96E1550B6
:1000C8000D20DA6EDF50036E050E0E24166E000E3C
:1000D8000F20176E16500C24D96E17500D20DA6EAB
:1000E800DF50046E060E0E24186E000E0F20196ED7
:1000F80018500C24D96E19500D20DA6EDF50056E99
:10010800030E0E241A6E000E0F201B6E1A500C24BC
:10011800D96E1B500D20DA6EDF5064EC3BF020EEF8
:1001280002F01250D9261350DA2203C0DEFF04C0B1
:10013800DDFF20EE04F01250D9261350DA22080E03
:100148000E24146E000E0F20156E14500C24E16E50
:1001580015500D20E26EE750036E070E0E24166E42
:10016800000E0F20176E16500C24E16E17500D204C
:10017800E26EE750DEEC46F0DF6E000E1C6E3DD0FE
:100188001C50010D050EF326000EF422F350122424
:10019800D96EF4501320DA6E1C501CC014F0156A86
:1001A8001426000E15220E5014260F5015220A0E82
:1001B8001426000E152214500C24E16E15500D2043
:1001C800E26EE750036E1C501CC016F0176A162624
:1001D800000E17220E5016260F501722090E16264B
:1001E800000E172216500C24E16E17500D20E26EF7
:1001F800E750DEEC46F0DF6E1C2A12C0D9FF13C0B0
:10020800DAFF1C50166E176ADE50165CDE5017585F
:10021800D8A0B6D720EE15F01250D9261350DA22FE
:100228001C501CC014F0156A1426000E15220E501E
:1002380014260F5015220A0E1426000E15221450EB
:100248000C24E16E15500D20E26EE750036E1C5031
:100258001CC016F0176A1626000E17220E50162616
:100268000F501722090E1626000E172216500C24BE
:10027800E16E17500D20E26EE750DEEC46F0DF6EBF
:1002880012C0D9FF13C0DAFF10EE16F01250E126A3
:100298001350E222DFCFE7FF20EE02F01250D926FA
:1002A8001350DA22DECF14F0DDCF15F015C014F0AC
:1002B800156A20EE16F01250D9261350DA2214507F
:1002C800DF2620EE02F01250D9261350DA22DF5032
:1002D800146E20EE16F01250D9261350DA2214505C
:1002E800DF2620EE04F01250D9261350DA22DF5010
:1002F800146E20EE16F01250D9261350DA2214503C
:10030800DF26000E1C6E17D01C50010D050EF326BB
:10031800000EF422F3501224D96EF4501320DA6E32
:10032800DF50146E20EE16F01250D9261350DA2240
:100338001450DF261C2A12C0D9FF13C0DAFF1C5044
:10034800166E176ADE50165CDE501758D8A0DCD738
:1003580020EE15F01250D9261350DA22DF50146E11
:1003680020EE16F01250D9261350DA221450DF2648
:1003780020EE16F01250D9261350DA22DF50D8B4E6
:1003880009D0FE0E0C6EFF0E0D6EFF0E0E6EFF0EE8
:100398000F6E120020EE04F01250D9261350DA2204
:1003A800DE04D8A409D0000E0C6E000E0D6E000EEF
:1003B8000E6E000E0F6E12001C501CC014F0156A51
:1003C8001426000E15220B0E1424166E000E15208E
:1003D800176E186A17BE18061850196E16500E2692
:1003E80017500F221850102219501122010E0E26F4
:1003F800000E0F22102211220E500C24D96E0F501D
:100408000D20DA6E3A0EDE18D8A409D00EC00CF012
:100418000FC00DF010C00EF011C00FF01200010E49
:100428000E26000E0F22102211220E500C24D96E17
:100438000F500D20DA6E3A0EDE18D8A409D00EC07F
:100448000CF00FC00DF010C00EF011C00FF012002C
:10045800010E0E26000E0F22102211220E500C241F
:10046800D96E0F500D20DA6E3A0EDE18D8A409D0D6
:100478000EC00CF00FC00DF010C00EF011C00FF040
:100488001200FD0E0C6EFF0E0D6EFF0E0E6EFF0EAF
:100498000F6E1200000E0001A86F000EA76F000E6D
:1004A8009C6F000E9D6F000E9E6F000E9F6FD751C0
:1004B800D811D911DA11D8A410D07C0E306E000EE4
:1004C800316EFF512BEC3BF096C0FBF097C0FCF06F
:1004D800000E0001FA6F000EF96FD7C06EF0D8C099
:1004E8006FF0D9C070F0DAC071F000016E1F6F1F95
:1004F800701F711F6E2B000E6F2370237123010173
:100508004A5100016E25726F01014B5100016F21A4
:10051800736F01014C5100017021746F01014D513D
:1005280000017121756F75517411731104E1320E58
:10053800725DD8A01FD0D7C042F0D8C043F0D9C050
:1005480044F0DAC045F0320E466E000E476E000EDB
:10055800486E000E496E900E4A6E020E4B6EFB0EF0
:100568004C6E000E4D6EF90E4E6E000E4F6E5CEC2A
:1005780012F03CD0D7C042F0D8C043F0D9C044F004
:10058800DAC045F0D7C06EF0D8C06FF0D9C070F0AF
:10059800DAC071F000016E1F6F1F701F711F6E2B84
:1005A800000E6F237023712301014A5100016E254B
:1005B800466E01014B5100016F21476E01014C51FC
:1005C80000017021486E01014D5100017121496EF1
:1005D800900E4A6E020E4B6EFB0E4C6E000E4D6E68
:1005E800F90E4E6E000E4F6E5CEC12F0900E0C6E13
:1005F800020E0D6E000E0E6E000E0F6E000E106EC7
:10060800000E116E930E126E010E136E10EC00F0B8
:100618000CC09CF00DC09DF00EC09EF00FC09FF066
:100628000101784B792BF10E00019C5DFF0E9D595D
:10063800FF0E9E59FF0E9F59D8A005D0500EC96FC6
:10064800500ECA6F12009C51D7279D51D8239E5136
:10065800D9239F51DA23FAD001019851466F476B8D
:10066800486B496B48C149F147C148F146C147F158
:10067800466B9951461348C149F147C148F146C1F3
:1006880047F1466B48C149F147C148F146C147F1B6
:10069800466B23D78BC1A4F0000E8B6F955146256E
:1006A8000001A06F0101965147210001A16F000EC2
:1006B800010148210001A26F000E0101492100013A
:1006C800A36FA451A025016E000EA121026E000E99
:1006D800A221036E000EA321046EECEC46F001C0CB
:1006E80078F002C079F00001A451A025016E000E37
:1006F800A121026E000EA221036E000EA321046E3A
:10070800A451000801019325056ED1EC2CF00009D5
:10071800D8A4E3D60001A751A811D8A410D078C056
:10072800A7F079C0A8F0A7C016F0A8C017F07EEC13
:1007380042F0CAEC47F001C076F002C077F0A4C0DE
:10074800A5F00001A66B5DD0A551A025016EA651AC
:10075800A121026E000EA221036E000EA321046ED9
:10076800ECEC46F00001A75101182AE1A851021843
:10077800D8A426D0A551A025096EA651A1210A6E9C
:10078800000EA2210B6E000EA3210C6EA7C00DF067
:10079800A8C00EF0D4EC3DF009C07AF00AC07BF096
:1007A800980E0001A525D96E010EA621DA6E7A51A0
:1007B8007625E16E7B517721E26EDFCFE7FF1ED011
:1007C8009C51D75F9D51D85B9E51D95B9F51DA5B95
:1007D80001017807D8A07907A5C08BF1A7C003F05D
:1007E800A8C004F0E7EC43F0A7C003F0A8C004F0E9
:1007F800FEEC39F00101744B752B12000001A54B7A
:10080800A62B010193510001A55D0101945100013E
:10081800A659D8B062D698D70001A751A811D8B464
:100828001200A7C003F0A8C004F0E7EC43F0A7C08B
:1008380003F0A8C004F0FEEC39F00101744B752BED
:10084800700E0001C96F700ECA6F12000101975136
:10085800000AD8B41FD7010AD8B4DED7050AD8B41D
:10086800FBD63BD6B9D15AEC18F00009D8A412002F
:100878000001EC69120048EC0CF00009D8A4120041
:100888000001EC691200E705D8A402D0EC69120057
:1008980012C1DCF013C1DBF0DBC00BF0DCC00CF0E4
:1008A8000D6A0E6A2DEC2AF00009D8A41200000E79
:1008B800026E240E016E1AEC36F0000E016E060E62
:1008C800026E4A0E036E9F0E046E03500410D8A4E5
:1008D800000E056E000E076E240E066EDDEC3CF071
:1008E800FD0E0001EC6F1200C1C101F0C2C102F09F
:1008F80001D80AD00500FA6E0101B551FD6EB65156
:10090800FE6EFF6AFA50120001C043F002C044F0C4
:1009180003C045F004C046F0C1C101F0C2C102F0F5
:1009280001D80AD00500FA6E0101B751FD6EB85121
:10093800FE6EFF6AFA50120001C03FF002C040F09C
:10094800416A426A26EE00F046C0DFFF26EE01F05B
:1009580045C0DFFF26EE02F044C0DFFF26EE03F0BD
:1009680043C0DFFF26EE04F042C0DFFF26EE05F0AD
:1009780041C0DFFF26EE06F040C0DFFF26EE07F09D
:100988003FC0DFFF000E0001DC6F080EDB6F000EBA
:10099800026E080E016E1AEC36F0FD0E0001EC6FC7
:1009A8001200E705D8A402D0EC691200000EDC6F33
:1009B800120EDB6F000E026E120E016E1AEC36F08C
:1009C800000E476E110E476401D014D04750010D38
:1009D8001F0EF324D96E010EF420DA6E4750010D74
:1009E800000EF324E16E060EF420E26EDFCFE7FF7F
:1009F800472AE8D7FD0E0001EC6F1200030EE8CF7E
:100A080000F6000EE8CF01F6C1C101F0C2C102F044
:100A180001D80AD00500FA6E0101BD51FD6EBE5124
:100A2800FE6EFF6AFA5012000009D8A404D0000E26
:100A38003D6E000E03D0000E3D6E800E3C6E26EE1D
:100A480002F03CC0DFFF000EE8CF03F6000E000105
:100A5800DC6F040EDB6F000E026E040E016E1AECE2
:100A680036F0FD0E0001EC6F120001012151F00B70
:100A78000509216F200E2B6F000E2C6F010E0D0142
:100A88008C6F000E886F000E896F000E8A6F000E43
:100A98008B6F0001EC691200000E0B6E000E0C6EDD
:100AA800000E0D6E000E0E6E2DEC2AF00009D8A473
:100AB8001200010121510F0B060AD8A407D00D011D
:100AC8008C05D8A403D00001EC69120072EC3DF04B
:100AD800000E0D01886F000E896F000E8A6F000EE0
:100AE8008B6F0001EC691200000E0D01886F000E7B
:100AF800896F000E8A6F000E8B6F0001EC6912007F
:100B0800DD51DE11D8B406D0DDC0D9FFDEC0DAFF72
:100B1800DFBE120001010B510A11091104E1400E58
:100B2800085DD8A009D0400E3E6E400E085F000E4A
:100B3800095B0A5B0B5B0AD008C13EF0000E086F28
:100B4800000E096F000E0A6F000E0B6F3E503A6ED2
:100B58003B6A3A500001DB5D3B50DC59D8A005D018
:100B68003E50DB5F000EDC5B1AD0000E476E13D0E0
:100B7800DB51DC11D8B404D0DB07D8A0DC070AD0DD
:100B88004750010D000EF324D96E060EF420DA6EDC
:100B9800000EDF6E472A3E50475CD8A0E9D7010E09
:100BA800016E000E026E060E036E3EC004F0020EC9
:100BB800F2EC25F001C0DDF002C0DEF001010851C1
:100BC80009110A110B11D8A412000001EC691200D6
:100BD8007F0EEEEC24F012000001EC51000AD8B4AC
:100BE8005BD7030AD8B4DDD6110AD8B44CD6080AA4
:100BF800D8B404D7010AD8B477D7050AD8B435D7FA
:100C08003B0AD8B471D60D0AD8B42DD6020AD8B486
:100C180032D6050AD8B468D7D20AD8B471D7030A2D
:100C2800D7D72250211011E1800E205CD8B00DD00A
:100C38001FC019F020C01AF01B6A1C6A23C01DF0DF
:100C480024C01EF00CEC30F012001F04E10E2058F6
:100C5800F50E2158050E2258D8A04CD023C011F00B
:100C680024C012F01FC001F020C002F021C003F020
:100C780022C004F0100E056E270E066E000E076ED9
:100C8800000E086E7CEC39F001C013F002C014F0BD
:100C9800000E166E0A0E156E9FEC42F0050E232408
:100CA800116E000E2420126E1FC001F020C002F049
:100CB80021C003F022C004F0100E056E270E066E48
:100CC800000E076E000E086EAAEC3CF001C013F08F
:100CD80002C014F0000E166E0A0E156E9FEC42F05C
:100CE80020EE09F02350D9262450DA22200EDF6E98
:100CF800090E1200225008E1810E1F5C960E205842
:100D0800980E2158D8A04CD023C011F024C012F05E
:100D18001FC001F020C002F021C003F022C004F07F
:100D2800100E056E270E066E000E076E000E086E7A
:100D38007CEC39F001C013F002C014F0000E166EFE
:100D48000A0E156E9FEC42F0040E2324116E000E5D
:100D58002420126E1FC001F020C002F021C003F051
:100D680022C004F0100E056E270E066E000E076EE8
:100D7800000E086EAAEC3CF001C013F002C014F09B
:100D8800000E166E0A0E156E9FEC42F020EE08F06B
:100D98002350D9262450DA22200EDF6E080E1200C6
:100DA800225008E1410E1F5C420E20580F0E2158B8
:100DB800D8A04CD023C011F024C012F01FC001F0FD
:100DC80020C002F021C003F022C004F0100E056E0E
:100DD800270E066E000E076E000E086E7CEC39F0CA
:100DE80001C013F002C014F0000E166E0A0E156E44
:100DF8009FEC42F0030E2324116E000E2420126E85
:100E08001FC001F020C002F021C003F022C004F08E
:100E1800100E056E270E066E000E076E000E086E89
:100E2800AAEC3CF001C013F002C014F0000E166EDC
:100E38000A0E156E9FEC42F020EE07F02350D926DB
:100E48002450DA22200EDF6E070E1200225008E12D
:100E5800A10E1F5C860E2058010E2158D8A04CD038
:100E680023C011F024C012F01FC001F020C002F00E
:100E780021C003F022C004F0100E056E270E066E86
:100E8800000E076E000E086E7CEC39F001C013F0FE
:100E980002C014F0000E166E0A0E156E9FEC42F09A
:100EA800020E2324116E000E2420126E1FC001F0C2
:100EB80020C002F021C003F022C004F0100E056E1D
:100EC800270E066E000E076E000E086EAAEC3CF0A8
:100ED80001C013F002C014F0000E166E0A0E156E53
:100EE8009FEC42F020EE06F02350D9262450DA2257
:100EF800200EDF6E060E120023C011F024C012F07F
:100F08001FC001F020C002F021C003F022C004F08D
:100F1800100E056E270E066E000E076E000E086E88
:100F28007CEC39F001C013F002C014F0000E166E0C
:100F38000A0E156E9FEC42F0010E2324116E000E6E
:100F48002420126E1FC001F020C002F021C003F05F
:100F580022C004F0100E056E270E066E000E076EF6
:100F6800000E086EAAEC3CF001C013F002C014F0A9
:100F7800000E166E0A0E156E9FEC42F020EE05F07C
:100F88002350D9262450DA22200EDF6E050E1200D7
:100F9800000E0001976F000E986F000E996F000EFB
:100FA8009A6FD751D811D911DA11D8A410D0760E6A
:100FB800306E000E316EFF512BEC3BF090C0FBF011
:100FC80091C0FCF0000E0001FA6F000EF96FFF519E
:100FD8000BEC3CF036C04AF137C04BF138C04CF14D
:100FE80039C04DF1000E0001966F0F0E966501D0C5
:100FF8001200D7C06EF0D8C06FF0D9C070F0DAC058
:1010080071F06E1F6F1F701F711F6E2B000E6F2304
:101018007023712301014A5100016E25726F01018D
:101028004B5100016F21736F01014C510001702178
:10103800746F01014D5100017121756F7551741163
:10104800731104E1320E725DD8A01FD0D7C042F0F0
:10105800D8C043F0D9C044F0DAC045F0320E466E2D
:10106800000E476E000E486E000E496E900E4A6ED6
:10107800020E4B6EFB0E4C6E000E4D6EF90E4E6E50
:10108800000E4F6E5CEC12F03CD0D7C042F0D8C0D6
:1010980043F0D9C044F0DAC045F0D7C06EF0D8C0EC
:1010A8006FF0D9C070F0DAC071F000016E1F6F1FC9
:1010B800701F711F6E2B000E6F23702371230101A7
:1010C8004A5100016E25466E01014B5100016F2106
:1010D800476E01014C5100017021486E01014D51CC
:1010E80000017121496E900E4A6E020E4B6EFB0E86
:1010F8004C6E000E4D6EF90E4E6E000E4F6E5CEC8F
:1011080012F0900E0C6E020E0D6E000E0E6E000E9A
:101118000F6E000E106E000E116E930E126E010E01
:10112800136E10EC00F00CC097F00DC098F00EC0D4
:1011380099F00FC09AF00101784B792B040E97199A
:10114800D8A41CD09851466F476B486B496B48C16F
:1011580049F147C148F146C147F1466B99514613D9
:1011680048C149F147C148F146C147F1466B48C1FA
:1011780049F147C148F146C147F1466B9751D8A498
:101188005ED09551462500019B6F0101965147217C
:1011980000019C6F000E0101482100019D6F000EA7
:1011A8000101492100019E6F0101525100019B5D1F
:1011B8000101535100019C590101545100019D59ED
:1011C8000101555100019E59D8B008D09BC052F179
:1011D8009CC053F19DC054F19EC055F19B51010133
:1011E8004E5D00019C5101014F5900019D510101C3
:1011F800505900019E5101015159D8B008D09BC0E7
:101208004EF19CC04FF19DC050F19EC051F19BC062
:1012180001F09CC002F09DC003F09EC004F093C191
:1012280005F0D1EC2CF0FF0AD8A409D00B0E01016F
:101238008C6F500E0001C96F500ECA6F120000016A
:101248009751981199119A11D8A427D078C176F19D
:1012580079C177F1000E0101796F000E786F000EE9
:101268000001D76F000ED86F000ED96F000EDA6F2D
:10127800000E0101466F000E476F000E486F000E0A
:10128800496F000E756F000E746F000E8B6F400E65
:101298000001C96F400ECA6F1200F10E975DFF0E74
:1012A8009859FF0E9959FF0E9A59D8A009D097510D
:1012B8000F0B01018C6F500E0001C96F500EEBD758
:1012C8009751D7279851D8239951D9239A51DA237E
:1012D800962B8BD6000E256E17D02550010DA40E27
:1012E800F324F66E9D0EF420F76EF86A000EF822CD
:1012F8002550010D000EF324D96E020EF420DA6E8B
:101308000800F5CFDFFF252A2550010DA40EF32490
:10131800F66E9D0EF420F76EF86A000EF8220800AB
:10132800F5500009D8A4D9D7000E256E17D025503E
:10133800010D0E0EF324F66E9D0EF420F76EF86A7A
:10134800000EF8222550010D140EF324D96E020E5A
:10135800F420DA6E0800F5CFDFFF252A2550010DAD
:101368000E0EF324F66E9D0EF420F76EF86A000E4A
:10137800F8220800F5500009D8A4D9D7000E256E28
:10138800D6D02550010DD60EF324F66E9C0EF4200F
:10139800F76EF86A000EF8222550010D280EF32486
:1013A800D96E020EF420DA6E0800F5CFDFFF252A89
:1013B8002550010DD60EF324F66E9C0EF420F76E20
:1013C800F86A000EF8220800F5500009D8B4C0D019
:1013D800D8D72550010D040EF324F66E9E0EF42086
:1013E800F76EF86A000EF8222550010D280EF32436
:1013F800D96E020EF420DA6E0800F5CFDFFF252A39
:101408002550010D040EF324F66E9E0EF420F76E9F
:10141800F86A000EF8220800F5500009D8B498D0F0
:10142800D8D72550010D130EF324F66E9E0EF42026
:10143800F76EF86A000EF8222550010D280EF324E5
:10144800D96E020EF420DA6E0800F5CFDFFF252AE8
:101458002550010D130EF324F66E9E0EF420F76E40
:10146800F86A000EF8220800F5500009D8B470D0C8
:10147800D8D72550010D310EF324F66E9E0EF420B8
:10148800F76EF86A000EF8222550010D280EF32495
:10149800D96E020EF420DA6E0800F5CFDFFF252A98
:1014A8002550010D310EF324F66E9E0EF420F76ED2
:1014B800F86A000EF8220800F5500009D8B448D0A0
:1014C800D8D72550010DAE0EF324F66E9C0EF420ED
:1014D800F76EF86A000EF8222550010D280EF32445
:1014E800D96E020EF420DA6E0800F5CFDFFF252A48
:1014F8002550010DAE0EF324F66E9C0EF420F76E07
:10150800F86A000EF8220800F5500009D8A4D9D7C7
:10151800E8EC47F001C01FF002C020F0216A226AFF
:101528004A0E236E020E246E15EC06F011D021EC43
:1015380048F00B0AD8B4DCD7070AD8B4B1D7010AE7
:10154800D8B486D7030AD8B45BD7010AD8B430D741
:10155800000E256E17D02550010D6B0EF324F66E84
:101568009E0EF420F76EF86A000EF8222550010D41
:101578003C0EF324D96E020EF420DA6E0800F5CF83
:10158800DFFF252A2550010D6B0EF324F66E9E0E03
:10159800F420F76EF86A000EF8220800F5500009EA
:1015A800D8A4D9D7EDEC47F001C019F002C01AF061
:1015B8001B6A1C6A2550010D3C0EF3241D6E020E99
:1015C800F4201E6E0CEC30F01200000E486E000E77
:1015D800476E38C043F039C044F0000E3F6E020E2B
:1015E8003E6E000E426E36503710D8A423D03850C5
:1015F8003910D8B41FD03EC02CF03FC02DF0000EDB
:101608002F6E000E2E6E6EEC30F02CC036F02DC012
:1016180037F036C001F037C002F02DEC47F001C0BA
:101628003EF002C03FF036503710D8A403D03668D9
:101638003768120036C04BF037C04CF0FAD04BC0B8
:1016480001F04CC002F02DEC47F001C045F002C09B
:1016580046F04BC001F04CC002F039EC47F001C035
:1016680049F002C04AF04750451804E1485046186E
:10167800D8B435D04250D8B40AD047C020F048C0BA
:1016880021F0C00E226E030E236EEAEC3FF03EC03E
:101698002CF03FC02DF045C02EF046C02FF06EEC68
:1016A80030F02CC040F02DC041F040C001F041C0E6
:1016B80002F02DEC47F001C03EF002C03FF045C0FB
:1016C80028F046C029F0C00E2A6E030E2B6E67EC78
:1016D80044F045C047F046C048F0000E426E445002
:1016E80004E1020E435CD8A05CD049C001F04AC0B6
:1016F80002F0C00E036E030E046EF5EC41F001C05B
:101708004BF002C04CF04C5004E1020E4B5CD8A0E8
:1017180006D0DA0E4B5C1F0E4C58D8A068D0020ECB
:101728004924016E000E4A20026EC00E036E030E9D
:10173800046E61EC3EF001C03CF002C03DF03C2874
:1017480003E13D28D8B413D0FE0E47244B6EFF0E9C
:1017580048204C6E4B504C6E4B6AD8903D303B6ED7
:101768003C303A6E3A504B123B504C120BD0405022
:101778004110D8A403D036683768120040C04BF037
:1017880041C04CF049C001F04AC002F0C00E036EDF
:10179800030E046E4BC005F04CC006F01BEC44F081
:1017A80024D043044410D8A426D049C001F04AC02C
:1017B80002F0C00E036E030E046EF5EC41F001C09A
:1017C8004BF002C04CF04B2803E14C28D8B40FD0A2
:1017D80049C001F04AC002F0C00E036E030E046E49
:1017E800FF0E066E05681BEC44F0010E426E4306C0
:1017F800D8A044061ED049C001F04AC002F0C00E6D
:10180800036E030E046EF5EC41F001C04BF002C00C
:101818004CF049C001F04AC002F0C00E036E030E3E
:10182800046E000E066E000E056E1BEC44F0010EF1
:10183800426E43504410D8A402D74C5004E1020E23
:101848004B5CD8A006D0DA0E4B5C1F0E4C58D8A0C3
:10185800F6D64250D8B40AD047C020F048C021F08C
:10186800C00E226E030E236EEAEC3FF0385039109A
:10187800D8B405D036C036F037C037F01200000EA5
:10188800376E000E366E120046D111C161F112C1D9
:1018980060F113C15FF114C15EF116C1DCF017C12C
:1018A800DBF0DB51306EDC51316E326A336A090E7F
:1018B800D8903036313632363336E82EF9D730C044
:1018C8000BF031C00CF032C00DF033C00EF02DEC2F
:1018D8002AF00009D8A431D1C1C101F0C2C102F077
:1018E80001D80AD00500FA6E0101BD51FD6EBE5146
:1018F800FE6EFF6AFA5012000009D8B416D0010E25
:101908000D018C6F01012151F00B0709216F270E82
:101918002B6F000E2C6F000E016E020EE7EC23F009
:10192800000E0001EA6FEA511200010E0001ED6F8E
:10193800DB51DC11D8A402D0000E56D0030EEA6F9A
:10194800000E0101866F060E876F000E0D01886F6D
:10195800020E896F000E8A6F000E8B6F0D01885181
:1019680089118A118B11D8B41ED00001DF51E01102
:10197800D8B406D0DFC0D9FFE0C0DAFFDFBEDDD0C3
:10198800000E016E86C102F087C103F0400E046E9E
:10199800020EF2EC25F001C0DFF002C0E0F0040E08
:1019A8000001EA6F23D0C1C101F0C2C102F001D821
:1019B8000AD00500FA6E0101BD51FD6EBE51FE6EE2
:1019C800FF6AFA5012000009D8B40CD0010E0D01BC
:1019D8008C6F01012151F00B0209216F270E2B6F2B
:1019E800000E2C6F020E95D0EA6FA7D0DF51E011E0
:1019F800D8B406D0DFC0D9FFE0C0DAFFDFBE9DD083
:101A080020EE01F0DF51D926E051DA22DF50306EA6
:101A180030C031F0326A336A346A31500101085FEC
:101A28003250095B33500A5B34500B5B000120EEE7
:101A380001F0DF51D926E051DA22DF50306E30C094
:101A480031F0326A336A346A31500D01885F32509E
:101A5800895B33508A5B34508B5B400E01018627CB
:101A6800000E8723030E55D00D018C51D8A43BD00E
:101A7800C1C125F0C2C126F05EC127F05FC128F0C0
:101A880060C129F061C12AF0000E2B6E060E2C6E83
:101A980001015E515F1160116111D8A402D0010EDD
:101AA80001D0000E2D6E01D809D00500FA6EBF5185
:101AB800FD6EC051FE6EFF6AFA501200E806D8B4F7
:101AC80012D0640E0001E96102D0E92B36D0010E74
:101AD8000D018C6F01012151F00B0309216F000EDC
:101AE8002B6F000E2C6F010E01015E27000E5F2385
:101AF800602361230001DB07D8A0DC07010E74D73F
:101B0800020E0D018C6F000E016E020EE7EC23F041
:101B1800000E000169D70001EA51000AD8B4B5D611
:101B2800010AD8B405D7030AD8B49ED7010AD8B495
:101B380015D7070AD8B45AD7E3D70001EA511200DB
:101B48000D013205D8A411D030511F0B0009D8A4BB
:101B58000CD00001CE8F030E0D013119D8A402D08C
:101B6800010E01D0000E0001F56F0D013251D8A40D
:101B7800120030511F0B020AD8A4120034510F0B67
:101B88000009D8B4120034510F0B186E030E1860F8
:101B98001200200E0001F819D8A41200CE8F0D01F2
:101BA80034BF19D034510F0B186E1850020D400E67
:101BB800F324D96E010EF420DA6EDECF1CF0DDCFEF
:101BC8001DF034510F0B186E1850010D6C0EF324D4
:101BD800D96E010E18D034510F0B186E1850020D23
:101BE800D10EF324D96E000EF420DA6EDECF1CF08D
:101BF800DDCF1DF034510F0B186E1850010D6F0E0C
:101C0800F324D96E010EF420DA6EDF501B6E1BB080
:101C180006D0FB0E1C141C6EFF0E1D1404D0040EFF
:101C28001C101C6E1D501D6E34BF0AD034510F0B92
:101C3800186E1850020D400EF324D96E010E09D00B
:101C480034510F0B186E1850020DD10EF324D96EB3
:101C5800000EF420DA6E1CC0DEFF1DC0DDFF030E8F
:101C68003119D8A42DD01CC0D9FF1DC0DAFFDFAEB2
:101C78001AD034BF0AD034510F0B186E1850010D0A
:101C88006C0EF324D96E010E0AD00D0134510F0BDE
:101C9800186E1850010D6F0EF324D96E010EF42042
:101CA800DA6E0101DF821CC0D9FF1DC0DAFF000E09
:101CB800DB841CC0D9FF1DC0DAFF000EDB8E1200CA
:101CC800040E1C181C6E1D501D6E1CC0D9FF1DC0B3
:101CD800DAFFDFAE1BD01CC0D9FF1DC0DAFF7F0EB4
:101CE800DF161CC0D9FF1DC0DAFF000EDB8C000E0A
:101CF800116E050E106E1CC012F01DC013F0000E00
:101D0800156E020E146E39EC39F006D01CC0D9FFDE
:101D18001DC0DAFF000EDB8C040E1C181C6E1D5053
:101D28001D6E1BB206D01CC0D9FF1DC0DAFFDFAE86
:101D380030D00D0134BF0AD034510F0B186E185033
:101D4800010D6C0EF324D96E010E0AD00D01345129
:101D58000F0B186E1850010D6F0EF324D96E010E7B
:101D6800F420DA6E0101DF921CC0D9FF1DC0DAFF32
:101D78003B0EDF16000E116E050E106E1CC012F021
:101D88001DC013F0000E156E020E146E39EC39F0FA
:101D980006D01CC0D9FF1DC0DAFF3B0EDF160D01AF
:101DA80034510F0B186E1850010D260EF324196EBE
:101DB8000F0EF4201A6E19C0D9FF1AC0DAFFFE0EF2
:101DC800DF16120091D0EB0E12003C0E1200900E9E
:101DD8001200F20EF66E9F0EF76E000EF86E0800F7
:101DE800F5501200F30EF66E9F0EF76EF86A0800B3
:101DF800F5501200F40EF66E9F0EF76EF86A0800A2
:101E0800F5501200F50EF66E9F0EF76EF86A080090
:101E1800F5501200F60EF66E9F0EF76EF86A08007F
:101E2800F5501200F70EF66E9F0EF76EF86A08006E
:101E3800F5501200F80EF66E9F0EF76EF86A08005D
:101E4800F5501200F90EF66E9F0EF76EF86A08004C
:101E5800F5501200000E1200020E1200010E1200C0
:101E6800010E1200000E1200010E1200400E1200A8
:101E7800000E1200FF0E12001F0E1200F80E1200C4
:101E8800200E1200000E12003F0E1200000E12006B
:101E9800100E1200000E1200000E1200000E1200AA
:101EA800000E1200000E1200010E1200000E1200A9
:101EB800220E1200000E1200000E1200460E120032
:101EC800410E1200540E1200310E1200360E12008E
:101ED800200E1200200E1200200E1200550E1200C5
:101EE800AA0E1200000E120001C003F002C004F096
:101EF8000450000AD8B404D0010AD8B48DD0F2D75F
:101F08000350000AD8B45FD7010AD8B45ED7030AD1
:101F1800D8B45DD7010AD8B45CD7070AD8B462D759
:101F2800010AD8B467D7030AD8B46CD7010AD8B461
:101F380071D70F0AD8B476D7010AD8B47BD7030A69
:101F4800D8B480D7010AD8B485D7070AD8B484D7BB
:101F5800010AD8B483D7030AD8B482D7010AD8B4FF
:101F680081D71F0AD8B480D7010AD8B47FD7030A0B
:101F7800D8B47ED7010AD8B47DD7070AD8B47CD79D
:101F8800010AD8B47BD7030AD8B47AD7010AD8B4DF
:101F980079D70F0AD8B478D7010AD8B477D7030A03
:101FA800D8B476D7010AD8B475D7070AD8B474D785
:101FB800010AD8B473D7030AD8B472D7010AD8B4BF
:101FC80071D7370AD8B470D7010AD8B46FD7050AC1
:101FD800D8B46ED7010AD8B46DD7030AD8B46CD771
:101FE800010AD8B469D7190AD8B468D7010AD8B48D
:101FF80067D70F0AD8B466D7010AD8B465D7030AD9
:10200800D8B464D7010AD8B463D7070AD8B462D75A
:10201800010AD8B461D766D70350FE0AD8B45ED790
:10202800010AD8B45DD75ED7200E0001F819D8A4EC
:10203800120015D1DF51E011D8B406D0DFC0D9FFA6
:10204800E0C0DAFFDFBE1200000E526E1E0E5264B0
:1020580001D014D05250010D400EF324D96E0D0E4C
:10206800F420DA6E5250010D000EF324E16E010ED9
:10207800F420E26EDFCFE7FF522AE8D7000120EE16
:1020880001F0DF51D926E051DA221F0EDE18D8A45C
:1020980070D0550E010100196CE1530E011969E168
:1020A800420E021966E1430E0319D8A462D0010E4C
:1020B8008E6F0D51D8A452D0110E0E614FD00E5113
:1020C800D8B44CD00CC14DF03F0E4D16D8A446D014
:1020D800550E0D01806F530E816F420E826F530EA5
:1020E800836F04C184FD05C185FD06C186FD07C156
:1020F80087FD000E886F000E896F000E8A6F000E34
:102108008B6F000E8C6F0001EC69000EEB6F000EF8
:10211800EA6F000EE96F030E01010F19D8B408D059
:102128002191219321952197000E2B6F000E2C6F82
:102138000CAF02D0010E01D0020E0001ED6F0101BB
:10214800085109110A110B11D8B402D0000E01D0A0
:10215800010E0001E76F0FC1ECF01200010E016ED5
:10216800020EE7EC23F0000E016E020EE7EC23F0FE
:102178001200010E016E020EE7EC23F0000E016E54
:10218800020EE7EC23F0000E01018E6F120052ECF4
:1021980022F0FF0AD8A41200030E0001ED6F12000E
:1021A80052EC22F0FF0AD8A412000D018C51D8A4D9
:1021B80008D0885189118A118B11D8B402D0020E27
:1021C8008C6F030E0001ED6F1200D5C04EF0D6C023
:1021D8004FF04E504F10D8B40AD0D5C050F0D6C0EA
:1021E80051F050C0D9FF51C0DAFFDFBE1200010E16
:1021F800016E800E026E0D0E036E0D0E046E020E41
:10220800F2EC25F001C0DDF002C0DEF00001DF5184
:10221800E011D8B406D0DFC0D9FFE0C0DAFFDFBED6
:102228000FD0000E016E400E026E0D0E036E400EB2
:10223800046E020EF2EC25F001C0DFF002C0E0F0FF
:10224800000E0001ED6F1200000EED6F020E0D0181
:102258008C6F000E016E020EE7EC23F012000001F5
:10226800ED51000AD8B4E6D6010AD8B490D7030ACB
:10227800D8B496D7010AD8B4A8D7E6D70001626FB8
:102288006E0E306E000E316E000162512BEC3BF089
:102298000001636F6351D8A4120042508A5D435015
:1022A8008B5944508C5945508D59D8A0120046502E
:1022B80042244A6E475043204B6E000E44204C6E19
:1022C800000E45204D6E4A508A5D4B508B594C503C
:1022D8008C594D508D59D8B00ED042C04AF043C0E9
:1022E8004BF04A1E4B1E4A4A4B2A8A514A24466ED4
:1022F8008B514B20476E88C038F089C039F042C0F6
:102308004AF043C04BF044C04CF045C04DF00A0EB3
:1023180005D0D8904D324C324B324A32E82EF9D79C
:102328004AC03AF04BC03BF0CBEC35F038C064F013
:1023380039C065F0000E421400016A6FFE0E4314A6
:102348006B6FFF0E44146C6FFF0E45146D6F6AC0FF
:102358004AF06BC04BF04A1E4B1E4A4A4B2A425069
:102368004A24666F43504B20676F000E6A6F000E59
:102378006B6F000E6C6F000E6D6F89D0020E6719BF
:102388006611D8A40FD064C030F065C031F015ECE8
:1023980040F030C064F031C065F0000E0001676F96
:1023A800000E666F64C001F065C002F0B3EC47F040
:1023B80001C060F002C061F066C04AF067C04BF02F
:1023C8004A1E4B1E4A4A4B2A000E4A240001686FD7
:1023D800020E4B20696F68514A6E69514B6E4C6A08
:1023E8004D6A6AC04EF06BC04FF06CC050F06DC0C3
:1023F80051F04E1E4F1E501E511E4E2A000E4F22E7
:102408005022512246504E24526E47504F20536E50
:10241800000E5020546E000E5120556E4A50525CEA
:102428004B5053584C5054584D505558D8B00ED066
:102438006AC04AF06BC04BF04A1E4B1E4A4A4B2AF0
:1024480046504A24686F47504B20696F60C020F09F
:1024580061C021F066C022F067C023F068C024F094
:1024680069C025F06A514824266E6B514920276EB1
:102478009CEC3BF0000168516A2769516B23000E00
:102488006C23000E6D2368516627695167234650F7
:102498004A6E47504B6E4C6A4D6A4A506A5D4B50C3
:1024A8006B594C506C594D506D59D8B0120066D7C5
:1024B80042C050F043C051F044C052F045C053F000
:1024C8000A0E05D0D8905332523251325032E82E8B
:1024D800F9D750C066F051C067F04EC0D9FF4FC061
:1024E800DAFFDE500001665DDE506759D8B002D0D1
:1024F800FF0E12004CC0D9FF4DC0DAFFDECF38F016
:10250800DDCF39F04EC0D9FF4FC0DAFFDECF50F033
:10251800DDCF51F0501E511E504A512A66515024A9
:102528003A6E675151203B6ECBEC35F04CC0D9FF69
:102538004DC0DAFF38C0DEFF39C0DDFF4EC0D9FF1D
:102548004FC0DAFF66C0DEFF67C0DDFF4CC0D9FFB1
:102558004DC0DAFFDECF62F0DDCF63F066C050F029
:1025680067C051F0090ED89050365136E82EFBD787
:1025780050C06AF051C06BF000016C6B6D6B6AC0A3
:1025880050F06BC051F0501E511E504A512A425013
:102598005024646F43505120656F000E6A6F000E1F
:1025A8006B6F000E6C6F000E6D6F89D0020E65198F
:1025B8006411D8A40FD062C030F063C031F015ECBC
:1025C80040F030C062F031C063F0000E0001656F6A
:1025D800000E646F62C001F063C002F0B3EC47F014
:1025E80001C060F002C061F064C050F065C051F0F5
:1025F800501E511E504A512A000E50240001686F87
:10260800020E5120696F6851506E6951516E526ABD
:10261800536A6AC054F06BC055F06CC056F06DC078
:1026280057F0541E551E561E571E542A000E55228A
:102638005622572246505424586E47505520596EFA
:10264800485056205A6E495057205B6E5050585C7F
:102658005150595852505A5853505B58D8B00ED010
:102668006AC050F06BC051F0501E511E504A512A9A
:1026780046505024686F47505120696F60C028F059
:1026880061C029F064C02AF065C02BF068C02CF046
:1026980069C02DF06A514A242E6E6B514B202F6E63
:1026A80080EC44F0000168516A2769516B23000EE1
:1026B8006C23000E6D2368516427695165234650C9
:1026C8006A5D47506B5948506C5949506D59D8A0AC
:1026D8006DD7000E1200A0C0D9FFA1C0DAFF820E8C
:1026E800DF6E000120EE01F0A051D926A151DA22B7
:1026F800C10EDF6E20EE02F0A051D926A151DA22D8
:10270800250EDF6E20EE01F09E51D9269F51DA2268
:1027180010EE03F0A051E126A151E222DFCFE7FF3E
:1027280020EE02F09E51D9269F51DA2210EE04F0D5
:10273800A051E126A151E222DFCFE7FF20EE03F00E
:102748009E51D9269F51DA2210EE05F0A051E126BC
:10275800A151E222DFCFE7FF20EE04F09E51D926F7
:102768009F51DA2210EE06F0A051E126A151E22293
:10277800DFCFE7FF20EE05F09E51D9269F51DA22E0
:1027880010EE07F0A051E126A151E222DFCFE7FFCA
:1027980020EE02F09E51D9269F51DA22DF50A26F17
:1027A800A251AE6FAF6BB06BB16BB0C0B1F0AFC040
:1027B800B0F0AEC0AFF0AE6B20EE03F09E51D9265C
:1027C8009F51DA22DF50A26FA251AE13B0C0B1F010
:1027D800AFC0B0F0AEC0AFF0AE6B20EE04F09E51CB
:1027E800D9269F51DA22DF50A26FA251AE13B0C092
:1027F800B1F0AFC0B0F0AEC0AFF0AE6B20EE05F0F8
:102808009E51D9269F51DA22DF50A26FA251AE13F2
:1028180020EE01F09E51D9269F51DA22DF500BECB1
:102828003CF036C0A6F037C0A7F038C0A8F039C0D1
:10283800A9F0AEC0A2F0AFC0A3F0B0C0A4F0B1C080
:10284800A5F00001A21FA31FA41FA51FA22B000E05
:10285800A323A423A523A651A225AA6FA751A32188
:10286800AB6FA851A421AC6FA951A521AD6FAD5193
:10287800AC11AB1104E1370EAA5DD8A008D0360E12
:10288800AA6F000EAB6F000EAC6F000EAD6F20EE9E
:1028980008F0A051D926A151DA22AAC0DFFFAEC0A4
:1028A8006EF0AFC06FF0B0C070F0B1C071F0AAC0E8
:1028B80072F0ABC073F0ACC074F0ADC075F00A0E26
:1028C800A025766F000EA121776F20EE01F09E51B2
:1028D800D9269F51DA22DF50EDEC27F00001A26FD4
:1028E80020EE09F0A051D926A151DA22A2C0DFFFBB
:1028F8001200000E266E000E256E020E265CD8B061
:1029080010D0C00E2524D96E030E2620DA6E25C0FD
:1029180001F026C002F079EC2EF0DF6E254A262A57
:10292800ECD7000E216E000E206EC00E226E030E34
:10293800236EEAEC3FF0000E266E000E256E020EA6
:10294800265CD8B010D0C00E2524D96E030E2620E0
:10295800DA6E25C001F026C002F0E6EC0EF0DF6E5C
:10296800254A262AECD7000E216E010E206EC00ED5
:10297800226E030E236EEAEC3FF0000E266E000E68
:10298800256E020E265CD8B010D0C00E2524D96E54
:10299800030E2620DA6E25C001F026C002F0BFEC37
:1029A8003FF0DF6E254A262AECD7000E216E020E74
:1029B800206EC00E226E030E236EEAEC3FF0000E6E
:1029C800266E000E256E020E265CD8B00BD0C00E07
:1029D8002524D96E030E2620DA6E000EDF6E254AF6
:1029E800262AF1D7000E266E030E256E265011E119
:1029F800220E255CD8B00DD025C020F026C021F0CD
:102A0800C00E226E030E236EEAEC3FF0254A262AFA
:102A1800EDD7000E266E000E256E020E265CD8B08D
:102A280010D0C00E2524D96E030E2620DA6E25C0DC
:102A380001F026C002F032EC1AF0DF6E254A262A91
:102A4800ECD7000E216E220E206EC00E226E030EF1
:102A5800236EEAEC3FF0000E266E000E256E020E85
:102A6800265CD8B00BD0C00E2524D96E030E2620C4
:102A7800DA6E000EDF6E254A262AF1D7000E266E82
:102A8800230E256E265011E1260E255CD8B00DD0F8
:102A980025C020F026C021F0C00E226E030E236E42
:102AA800EAEC3FF0254A262AEDD7000E266E000EE6
:102AB800256E020E265CD8B010D0C00E2524D96E23
:102AC800030E2620DA6E25C001F026C002F0A6EC1F
:102AD80045F0DF6E254A262AECD7000E216E260E19
:102AE800206EC00E226E030E236EEAEC3FF0120039
:102AF800000E256E17D02550010DF40EF324F66E46
:102B08009D0EF420F76EF86A000EF8222550010D8C
:102B1800000EF324D96E020EF420DA6E0800F5CF09
:102B2800DFFF252A2550010DF40EF324F66E9D0EC5
:102B3800F420F76EF86A000EF8220800F550000934
:102B4800D8A4D9D7000E256E17D02550010D620ED6
:102B5800F324F66E9E0EF420F76EF86A000EF82243
:102B68002550010D140EF324D96E020EF420DA6EEE
:102B78000800F5CFDFFF252A2550010D620EF3244A
:102B8800F66E9E0EF420F76EF86A000EF822080022
:102B9800F5500009D8A4D9D7000E1F6E000E206E7C
:102BA800000E216E000E226E2550010D140EF32426
:102BB800236E020EF420246E15EC06F0252625500F
:102BC800010D140EF324D96E020EF420DA6E2E0EC7
:102BD800DF6E252A030E1F6E000E206E000E216E7A
:102BE800000E226E2550010D140EF324236E020EE2
:102BF800F420246E15EC06F025262550010D140E40
:102C0800F324D96E020EF420DA6E2E0EDF6E252A1A
:102C1800040E1F6E000E206E000E216E000E226E36
:102C28002550010D140EF324236E020EF420246E99
:102C380015EC06F02526000E256E17D02550010D3F
:102C4800A70EF324F66E9E0EF420F76EF86A000EB7
:102C5800F8222550010D280EF324D96E020EF42017
:102C6800DA6E0800F5CFDFFF252A2550010DA70EE3
:102C7800F324F66E9E0EF420F76EF86A000EF82222
:102C88000800F5500009D8A4D9D7000E256E17D032
:102C98002550010D220EF324F66E9E0EF420F76ED9
:102CA800F86A000EF8222550010D3C0EF324D96E67
:102CB800020EF420DA6E0800F5CFDFFF252A255032
:102CC800010D220EF324F66E9E0EF420F76EF86ABC
:102CD800000EF8220800F5500009D8B41200D8D721
:102CE80005C0D9FF06C0DAFF130EDF6E20EE01F033
:102CF8000550D9260650DA22C10EDF6E20EE02F00A
:102D08000550D9260650DA22250EDF6E83EC47F0EF
:102D180001C00CF002C00DF003C00EF004C00FF0AB
:102D280020EE03F00550D9260650DA220F50DF6E48
:102D380020EE04F00550D9260650DA220EC0DFFF37
:102D480020EE05F00550D9260650DA220D50DF6E28
:102D580020EE06F00550D9260650DA220CC0DFFF17
:102D6800EDEC47F001C010F002C011F020EE07F0C2
:102D78000550D9260650DA221150DF6E20EE08F0F1
:102D88000550D9260650DA2210C0DFFFF7EC47F0CD
:102D980001C010F002C011F020EE09F00550D9264C
:102DA8000650DA221150DF6E20EE0AF00550D926BF
:102DB8000650DA2210C0DFFF20EE0BF00550D926AE
:102DC8000650DA2221EC48F0DF6EF2EC47F001C041
:102DD80010F002C011F020EE0CF00550D926065074
:102DE800DA221150DF6E20EE0DF00550D92606507C
:102DF800DA2210C0DFFFE3EC47F001C010F002C098
:102E080011F020EE0EF00550D9260650DA221150A6
:102E1800DF6E20EE0FF00550D9260650DA2210C0DA
:102E2800DFFFE8EC47F001C010F002C011F020EE1F
:102E380010F00550D9260650DA221150DF6E20EE28
:102E480011F00550D9260650DA2210C0DFFF20EE17
:102E580012F00550D9260650DA2215EC48F0DF6E3C
:102E680020EE13F00550D9260650DA221BEC48F064
:102E7800DF6E20EE14F00550D9260650DA2218EC41
:102E880048F0DF6EE3EC47F001500A6E2B0E0A643F
:102E980002D02B0E0A6E000E0B6E14D00B505BEC9A
:102EA80047F0076E0B50086E096A150E0826000ECB
:102EB800092208500524D96E09500620DA6E07C089
:102EC800DFFF0B2A0A500B5CD8B01200E7D7000EC0
:102ED800286E17D02850010DD40EF324F66E9D0EDF
:102EE800F420F76EF86A000EF8222850010D000E43
:102EF800F324D96E020EF420DA6E0800F5CFDFFF56
:102F0800282A2850010DD40EF324F66E9D0EF420C5
:102F1800F76EF86A000EF8220800F5500009D8A4E8
:102F2800D9D7000E286E17D02850010DE90EF324CA
:102F3800F66E9C0EF420F76EF86A000EF822285000
:102F4800010D140EF324D96E020EF420DA6E080077
:102F5800F5CFDFFF282A2850010DE90EF324F66E7D
:102F68009C0EF420F76EF86A000EF8220800F5505F
:102F78000009D8A4D9D7000E286E17D02850010D03
:102F8800980EF324F66E9E0EF420F76EF86A000E83
:102F9800F8222850010D280EF324D96E020EF420D1
:102FA800DA6E0800F5CFDFFF282A2850010D980EA9
:102FB800F324F66E9E0EF420F76EF86A000EF822DF
:102FC8000800F5500009D8A4D9D728C027F083EC09
:102FD80047F001C01FF002C020F003C021F004C078
:102FE80022F02850010D280EF324236E020EF4203F
:102FF800246E15EC06F02726000E286E1CD02850EB
:10300800010D910EF324F66E9E0EF420F76EF86A09
:10301800000EF822285027C025F0266A2526000E23
:103028002622280E2524D96E020E2620DA6E0800E4
:10303800F5CFDFFF282A2850010D910EF324F66EF4
:103048009E0EF420F76EF86A000EF8220800F5507C
:103058000009D8A4D4D7000E286E17D02850010D27
:10306800200EF324F66E9D0EF420F76EF86A000E1B
:10307800F8222850010D3C0EF324D96E020EF420DC
:10308800DA6E0800F5CFDFFF282A2850010D200E40
:10309800F324F66E9D0EF420F76EF86A000EF822FF
:1030A8000800F5500009D8B41200D8D7D7D011C1FC
:1030B80061F112C160F113C15FF114C15EF116C173
:1030C800DCF017C1DBF0DB51366EDC51376E386A45
:1030D800396A090ED8903636373638363936E82EFA
:1030E800F9D736C00BF037C00CF038C00DF039C036
:1030F8000EF02DEC2AF00009D8A4C2D0010E000170
:10310800EB6FDB51DC11D8A402D0000E46D0DB07F0
:10311800D8A0DC07020EEB6FDD51DE11D8B406D063
:10312800DDC0D9FFDEC0DAFFDFBEAAD0C1C12CF0F6
:10313800C2C12DF05EC12EF05FC12FF060C130F02A
:1031480061C131F0000E326E060E336E01D80AD01E
:103158000500FA6E0101BB51FD6EBC51FE6EFF6A9F
:10316800FA501200E806D8B41AD0640E0001E961DA
:1031780002D0E92B85D0020E0D018C6F010121517F
:10318800F00B0309216F000E2B6F000E2C6F010E40
:10319800016E020EE7EC23F05ED0EB6F71D0010EEA
:1031A80001015E27000E5F2360236123000E0D01DD
:1031B800886F020E896F000E8A6F000E8B6F000EEB
:1031C8000101866F060E876F030E0001EB6F0D017C
:1031D800885189118A118B11D8A402D0010E3CD0D4
:1031E800040E0001EB6FDD51DE11D8B406D0DDC04E
:1031F800D9FFDEC0DAFFDFBE43D0010E016E86C103
:1032080002F087C103F0400E046E020EF2EC25F0C6
:1032180001C0DDF002C0DEF0030E0001EB6F400ECE
:103228000101085F000E095B0A5B0B5B400E0D0194
:10323800885F000E895B8A5B8B5B400E01018627E5
:10324800000E87231DD0020E0D018C6F010E016E3A
:10325800020EE7EC23F0000E00019FD70001EB51AE
:10326800000AD8B424D7010AD8B44BD7030AD8B473
:1032780053D7010AD8B4ABD7070AD8B4B4D7E3D721
:103288000001EB511200000E1F6E17D01F50010DE8
:10329800940EF324F66E9D0EF420F76EF86A000E75
:1032A800F8221F50010D000EF324D96E020EF420EF
:1032B800DA6E0800F5CFDFFF1F2A1F50010D940EAC
:1032C800F324F66E9D0EF420F76EF86A000EF822CD
:1032D8000800F5500009D8A4D9D7000E1F6E17D0E2
:1032E8001F50010DFC0EF324F66E9C0EF420F76EB1
:1032F800F86A000EF8221F50010D140EF324D96E3F
:10330800020EF420DA6E0800F5CFDFFF1F2A1F50E7
:10331800010DFC0EF324F66E9C0EF420F76EF86A8D
:10332800000EF8220800F5500009D8A4D9D7000EDD
:103338001F6E17D01F50010D830EF324F66E9E0EDC
:10334800F420F76EF86A000EF8221F50010D280EBF
:10335800F324D96E020EF420DA6E0800F5CFDFFFF1
:103368001F2A1F50010D830EF324F66E9E0EF420C3
:10337800F76EF86A000EF8220800F5500009D8A484
:10338800D9D7EDEC47F001C019F002C01AF01B6A5A
:103398001C6A1F50010D280EF3241D6E020EF42026
:1033A8001E6E0CEC30F01F261F50010D280EF32462
:1033B800D96E020EF420DA6E2F0EDF6E1F2AF7EC9C
:1033C80047F001C019F002C01AF01B6A1C6A1F50AE
:1033D800010D280EF3241D6E020EF4201E6E0CEC57
:1033E80030F0000E1F6E17D01F50010D840EF3240D
:1033F800F66E9D0EF420F76EF86A000EF8221F5044
:10340800010D3C0EF324D96E020EF420DA6E08008A
:10341800F5CFDFFF1F2A1F50010D840EF324F66E2F
:103428009D0EF420F76EF86A000EF8220800F55099
:103438000009D8A4D9D7F2EC47F001C019F002C0AE
:103448001AF01B6A1C6A1F50010D3C0EF3241D6EF6
:10345800020EF4201E6E0CEC30F0120002501DE13A
:10346800200E015CD8B019D0025010E10B0E015C9F
:10347800D8B00CD0DD0E0124F66E9F0E0220F76E38
:10348800F86A000EF8220800F55012000B0E011819
:103498000210D8A402D0080E1200025003E1400E18
:1034A800015CD8B0A4D0200E015E000E025A025072
:1034B80010E1080E015CD8B00CD0E90E0124F66EBC
:1034C8009F0E0220F76EF86A000EF8220800F550E9
:1034D8001200025046E10B0E015CD8B042D0F80E43
:1034E800036EFF0E046E01C005F002C006F0035023
:1034F800052604500622FB0E0524F66E9F0E0620B4
:10350800F76EF86A000EF8220800F5501200200E37
:103518001200060E1200280E1200780E1200DE0E9F
:103528001200380E12005F0E12004B0E1200000E31
:103538001200000E1200040E1200770E1200DE0EAA
:103548001200380E1200020E1200000E12000C0EAD
:103558001200000E1200000E1200000E1200000EE3
:10356800120001C003F002C004F00450000AD8A4FD
:10357800F6D703500B0AD8B4CAD7060AD8B4C9D7A5
:10358800030AD8B4C8D7010AD8B4C7D71F0AD8B411
:10359800C6D7010AD8B4C5D7030AD8B4C4D7010A14
:1035A800D8B4C3D7070AD8B4C2D7010AD8B4C1D788
:1035B800030AD8B4C0D7010AD8B4BFD70F0AD8B401
:1035C800BED7010AD8B4BDD7030AD8B4BCD7010AFC
:1035D800D8B4BBD7070AD8B4BAD7010AD8B4B9D770
:1035E800030AD8B4B8D7010AD8B4B7D7B8D7000EE9
:1035F80012000001F851D8A412D0000E656E000E1A
:103608000F01366F160E396F9F0E376F7B0E366FB0
:1036180001D0658665A6FDD7010E0001F86FF80593
:10362800D8B465BA0AD0000E626E000E0F01366F6C
:1036380036813689020E0001F86F62A406D00F01A8
:1036480036A503D0629496EC43F065A202D0A19807
:10365800120062A009D00F0136A106D04CEC1FF071
:10366800040E0001F86F629062A804D00F0136B909
:10367800B2EC44F062AC1CD00F0136AD0ED0000E97
:10368800116E730E106E000E126E000E136E000E89
:10369800156E010E146E39EC39F0629C92EC46F00E
:1036A8000001F351D8A4F307F351D8B4E0EC2EF09D
:1036B80062AA04D00F0136BB18EC42F062A212D005
:1036C8000F0136A30FD07F0E116E1068000E126E18
:1036D800000E136E000E156E010E146E39EC39F0E3
:1036E800000E636E040E0001F86102D0A19812006A
:1036F8000F0136A73CD0000E206E030E206401D0C7
:1037080036D062A634D064CFFDF00001FD31E83236
:10371800E8320F0BF46F6296FDB507D0F451010D36
:103728006C0EF324D96E010E07D00001F451010D7F
:103738006F0EF324D96E010EF420DA6E0101DF70EA
:103748000001F451D8A403D093EC32F00ED0000E4F
:10375800116E720E106EFD0E126E000E136E000EBC
:10376800156E000E146E39EC39F0202AC6D7A198D0
:103778001200000E226E17D02250010DB40EF32451
:10378800F66E9D0EF420F76EF86A000EF8222250AD
:10379800010D000EF324D96E020EF420DA6E080033
:1037A800F5CFDFFF222A2250010DB40EF324F66E66
:1037B8009D0EF420F76EF86A000EF8220800F55006
:1037C8000009D8A4D9D7000E226E17D02250010DB7
:1037D800990EF324F66E9C0EF420F76EF86A000E2C
:1037E800F8222250010D140EF324D96E020EF42093
:1037F800DA6E0800F5CFDFFF222A2250010D990E5C
:10380800F324F66E9C0EF420F76EF86A000EF82288
:103818000800F5500009D8A4D9D7F7EC47F001C043
:1038280019F002C01AF01B6A1C6A280E1D6E020EDF
:103838001E6E0CEC30F0216E212A000E226E1CD078
:103848002250010D730EF324F66E9E0EF420F76ECF
:10385800F86A000EF822225021C01FF0206A1F26A5
:10386800000E2022280E1F24D96E020E2020DA6EA8
:103878000800F5CFDFFF222A2250010D730EF32432
:10388800F66E9E0EF420F76EF86A000EF822080015
:10389800F5500009D8A4D4D7000E226E17D02250B4
:1038A800010D320EF324F66E9D0EF420F76EF86AC1
:1038B800000EF8222250010D3C0EF324D96E020EA0
:1038C800F420DA6E0800F5CFDFFF222A2250010D1E
:1038D800320EF324F66E9D0EF420F76EF86A000E91
:1038E800F8220800F5500009D8B41200D8D7000E05
:1038F8001F6E17D01F50010D740EF324F66E9D0E27
:10390800F420F76EF86A000EF8221F50010D000E21
:10391800F324D96E020EF420DA6E0800F5CFDFFF2B
:103928001F2A1F50010D740EF324F66E9D0EF4200D
:10393800F76EF86A000EF8220800F5500009D8A4BE
:10394800D9D7000E1F6E17D01F50010D9F0EF324FC
:10395800F66E9E0EF420F76EF86A000EF8221F50DD
:10396800010D140EF324D96E020EF420DA6E08004D
:10397800F5CFDFFF1F2A1F50010D9F0EF324F66EAF
:103988009E0EF420F76EF86A000EF8220800F55033
:103998000009D8A4D9D7000E1F6E17D01F50010DEB
:1039A800640EF324F66E9D0EF420F76EF86A000E8E
:1039B800F8221F50010D280EF324D96E020EF420B0
:1039C800DA6E0800F5CFDFFF1F2A1F50010D640EC5
:1039D800F324F66E9D0EF420F76EF86A000EF822B6
:1039E8000800F5500009D8A4D9D7F2EC47F001C077
:1039F80019F002C01AF01B6A1C6A1F50010D280E2C
:103A0800F3241D6E020EF4201E6E0CEC30F0000E36
:103A18001F6E17D01F50010D540EF324F66E9D0E25
:103A2800F420F76EF86A000EF8221F50010D3C0EC4
:103A3800F324D96E020EF420DA6E0800F5CFDFFF0A
:103A48001F2A1F50010D540EF324F66E9D0EF4200C
:103A5800F76EF86A000EF8220800F5500009D8B48D
:103A68001200D8D70400C5EC47F001C0C1F002C06D
:103A7800C2F0C0EC47F001C0C3F002C0C4F0C3C03C
:103A8800BDF0C4C0BEF045EC47F004EC3EF00009C0
:103A9800D8B404D094EC47F012EC48F033EC3EF084
:103AA800000E6BEC40F04CEC1FF00400FDEC1AF03B
:103AB80070EC47F03EEC33F0CDEC43F083A439D002
:103AC8006ACFBFF00001C06BBF51C06FBF6B6B50B6
:103AD800BF13BF07D8A0C007C0EC47F001500001D2
:103AE800BF5F0250C05BBF51C011D8B422D08890CC
:103AF800C1C0B2F0C2C0B3F0C3C0B4F0C4C0B5F026
:103B0800EFEC1DF0C1C09BF0C2C09CF0BFC09DF09F
:103B180011EC2EF00001C4516A6EC3C06BFFC25194
:103B2800686EC1C069FF000E666E3F0E676EA49E88
:103B380088800001C851D8A4B8D76BEC24F025D0F0
:103B4800000E10EC3DF043D0010E10EC3DF03FD0DC
:103B5800020E10EC3DF03BD0030E10EC3DF037D0D8
:103B6800040E10EC3DF033D0050E10EC3DF02FD0D4
:103B78000001CA51A8EC2DF02AD01EEC48F0050A25
:103B8800D8A425D042EC3CF022D00001C751070B45
:103B9800BB6FBC6BBC51000AD8A419D0BB51000A3A
:103BA800D8B4CED7010AD8B4CFD7030AD8B4D0D75F
:103BB800010AD8B4D1D7070AD8B4D2D7010AD8B4E1
:103BC800D3D7030AD8B4D4D7010AD8B4D6D7010EAC
:103BD8000001C86F6AD7B2C0D9FFB3C0DAFFDF509F
:103BE8000001B66F7F0EB66596D03CD0B2C038F0F3
:103BF800B3C039F0B4C03AF0B5C03BF0F2EC3AF0DB
:103C08001200B2C037F0B3C038F0B4C039F0B5C054
:103C18003AF0DCEC34F01200B2C09EF0B3C09FF072
:103C2800B4C0A0F0B5C0A1F06FEC13F01200B2C0A0
:103C38002BF0B3C02CF0B4C02DF0B5C02EF072EC50
:103C480027F01200B4C0D9FFB5C0DAFF990EDF6EB5
:103C5800000120EE01F0B451D926B551DA22990EAF
:103C6800DF6E1200B651800AD8B4C0D7010AD8B4A2
:103C7800C8D7030AD8B4D0D7010AD8B4D8D7E2D75E
:103C8800B4C015F0B5C016F09EEC2AF01200B4C00E
:103C980005F0B5C006F0000E076E31EC31F01200E9
:103CA800B4C005F0B5C006F0010E076E31EC31F076
:103CB8001200B4C005F0B5C006F074EC16F012009E
:103CC800B4C001F0B5C002F07CEC35F01200B4C00D
:103CD80001F0B5C002F0B2C003F0B3C004F0035065
:103CE8000410D8A4200E056E000E076E400E066E56
:103CF800DDEC3CF01200B4C0D9FFB5C0DAFF990E74
:103D0800DF6E000120EE01F0B451D926B551DA2258
:103D1800990EDF6E1200B651100AD8B4B1D7010A55
:103D2800D8B4B5D7030AD8B4BBD7010AD8B4C1D719
:103D3800070AD8B4C5D7340AD8B4C9D7DCD7000E17
:103D4800016E17D00150010DE40EF324F66E9D0E9E
:103D5800F420F76EF86A000EF8220150010D000EEB
:103D6800F324D96E020EF420DA6E0800F5CFDFFFD7
:103D7800012A0150010DE40EF324F66E9D0EF42085
:103D8800F76EF86A000EF8220800F5500009D8A46A
:103D9800D9D7000E016E17D00150010D430EF32440
:103DA800F66E9D0EF420F76EF86A000EF8220150A8
:103DB800010D140EF324D96E020EF420DA6E0800F9
:103DC800F5CFDFFF012A0150010D430EF324F66EF3
:103DD8009D0EF420F76EF86A000EF8220800F550E0
:103DE8000009D8A4D9D7000E016E17D00150010DD3
:103DF800C20EF324F66E9C0EF420F76EF86A000EDD
:103E0800F8220150010D280EF324D96E020EF42079
:103E1800DA6E0800F5CFDFFF012A0150010DC20E4E
:103E2800F324F66E9C0EF420F76EF86A000EF82262
:103E38000800F5500009D8A4D9D7000E016E17D094
:103E48000150010D590EF324F66E9E0EF420F76E04
:103E5800F86A000EF8220150010D3C0EF324D96EC9
:103E6800020EF420DA6E0800F5CFDFFF012A0150B8
:103E7800010D590EF324F66E9E0EF420F76EF86AC3
:103E8800000EF8220800F5500009D8B41200D8D75F
:103E9800A098000E636E000E626E000E0F01266F72
:103EA800270E016E0F0E026E000E046E000E036EDA
:103EB800000E066E020E056E3BEC45F0160E0F0165
:103EC800396F9F0E376F7B0E366F000E096E0B0E23
:103ED800096401D00ED00950040D000EF324D96EE8
:103EE8000D0EF420DA6EDE6ADE6ADE6ADD6A092A01
:103EF800EED7658C000E0F01386F6598659C629649
:103F0800000E0001CE6F000E0101346F000E366FF7
:103F1800000E356F62B6F3D7010E0001F16F010E86
:103F2800F06F000EEF6F000EEE6F000E0101926F42
:103F3800000E096E020E096401D02ED00950020D40
:103F4800D10EF324D96E000EF420DA6E000EDE6E68
:103F5800000EDD6E0950020D400EF324D96E010EDD
:103F6800F420DA6E000EDE6E000EDD6E0950010DD3
:103F78006F0EF324D96E010EF420DA6E000EDF6E98
:103F88000950010D6C0EF324D96E010EF420DA6E7F
:103F9800000EDF6E092ACED7080E0001D16F0D0E74
:103FA800D26F160E0F01266F0D0E0D01036F300E26
:103FB800026F080E016F040E006F008F000E0001E3
:103FC800FE6F000E0101626F000E636F000E646FDA
:103FD800000E656F000E906F000E0001F86F120062
:103FE8004DC02CF04EC02DF04FC02EF050C02FF019
:103FF80061EC2CF0FF0AD8A412003DEC46F0000159
:10400800646F6429D8B41200FF0E5124556E010E56
:104018005220566E000E5320576E000E5420586ED4
:104028000A0E05D0D8905832573256325532E82EFB
:10403800F9D755C060F056C061F0000E376E000E1B
:10404800366E60C038F061C039F0E9EC0AF036C06D
:1040580062F037C063F00001622903E16329D8B434
:104068001200650E016E000E026E4DC003F04EC0C8
:1040780004F003500410D8A4200E056E000E076E3D
:10408800080E066EDDEC3CF06D0E016E000E026E41
:104098004FC003F050C004F003500410D8A4200E01
:1040A800056E000E076E030E066EDDEC3CF0000E8A
:1040B8000001706F000E716F000E726FFCEC47F01C
:1040C80001C073F002C074F001EC48F001C075F053
:1040D80002C076F075C077F076C078F0000E000167
:1040E8007A6F000E796F73C07BF074C07CF075C076
:1040F8007DF076C07EF062C07FF063C080F051C072
:1041080081F052C082F053C083F054C084F0650E31
:10411800296E000E2A6E64515CEC42F01200800E8B
:104128000D013019D8A41200C00E0001CE6F88D03E
:10413800A50E0001CB6F9F0ECC6F000ED06F120E34
:10414800CF6F12000D013251D8A443D03251020D65
:10415800A50EF324F66E9E0EF420F76EF86A000E94
:10416800F8220900F5CFCBF00A00F5CFCCF0020E0B
:104178000001CB25016E000ECC21026E01C0F6FFB6
:1041880002C0F7FFF86A0E0EF76403D00800F55076
:1041980005D0F6CFE9FFF7CFEAFFEF500001CF6F68
:1041A800030ECB25016E000ECC21026E01C0F6FF76
:1041B80002C0F7FFF86A0E0EF76403D00800F55046
:1041C80005D0F6CFE9FFF7CFEAFFEF500001D06F37
:1041D8001200000E0001CE6F1200040E0D013261B4
:1041E80027D03251020D7B0EF324F66E9E0EF4207A
:1041F800F76EF86A000EF8220900F5CFCBF00A0036
:10420800F5CFCCF0CBC0F6FFCCC0F7FFF86A0E0EA6
:10421800F76403D00800F55005D0F6CFE9FFF7CFD3
:10422800EAFFEF50016E01500001CF6FD06B120012
:10423800000E0001CE6F1200000E0001CE6F1200BA
:104248000D013351010AD8B473D7030AD8B47AD709
:10425800010AD8B4C2D7F0D7000E216E17D021506A
:10426800010DC40EF324F66E9D0EF420F76EF86A65
:10427800000EF8222150010D000EF324D96E020E13
:10428800F420DA6E0800F5CFDFFF212A2150010D56
:10429800C40EF324F66E9D0EF420F76EF86A000E35
:1042A800F8220800F5500009D8A4D9D7000E216ECD
:1042B80017D02150010D4C0EF324F66E9E0EF420FB
:1042C800F76EF86A000EF8222150010D140EF3243F
:1042D800D96E020EF420DA6E0800F5CFDFFF212A2E
:1042E8002150010D4C0EF324F66E9E0EF420F76E4D
:1042F800F86A000EF8220800F5500009D8A4D9D7AA
:10430800000E216E17D02150010D8A0EF324F66E8F
:104318009E0EF420F76EF86A000EF8222150010D67
:10432800280EF324D96E020EF420DA6E0800F5CFB9
:10433800DFFF212A2150010D8A0EF324F66E9E0E0E
:10434800F420F76EF86A000EF8220800F55000090C
:10435800D8A4D9D7EDEC47F001C019F002C01AF083
:104368001B6A1C6A21501F6E206A010E1F26000E50
:104378002022280E1F241D6E020E20201E6E0CEC1B
:1043880030F01200000120EE01F0E351D926E4518B
:10439800DA22DF50026E02500101355D000E3659F7
:1043A800D8A035C102F00250355F000E365B000E12
:1043B800016E11D00150010D380EF324D96E0D0E87
:1043C800F420DA6E31C1E1FF32C1E2FFDFCFE7FF4F
:1043D800314B322B012A0250015CD8A0EBD7355162
:1043E8003611D8B433D0000120EE01F0E151D926BE
:1043F800E251DA22080EDF6E20EE02F0E151D926F2
:10440800E251DA22380EDE6E0D0EDD6EE3C0D9FF02
:10441800E4C0DAFFDFBC0DD0E1C0D9FFE2C0DAFFAB
:10442800480EDF6EE1C0D9FFE2C0DAFF000EDB8E76
:104438001200E1C0D9FFE2C0DAFF080EDF6EE1C06A
:10444800D9FFE2C0DAFF000EDB8E1200000120EE79
:1044580001F0E151D926E251DA22080EDF6E20EE92
:1044680002F0E151D926E251DA22300EDE6E0D0E4D
:10447800DD6EE1C0D9FFE2C0DAFF040EDF6EE1C0F5
:10448800D9FFE2C0DAFF000EDB8E0101349F000184
:10449800F251D8A41200E0EC2EF01200C1C101F0D4
:1044A800C2C102F001D80AD00500FA6E0101B95163
:1044B800FD6EBA51FE6EFF6AFA5012000009D8B4B8
:1044C8000CD001010D51010DE80EF324D96E000E38
:1044D800F420DA6EDE04D8A419D00DC148F0010E1C
:1044E800496E000E4A6E482A03D0D89049364A369B
:1044F800482EFBD7491C4B6E4A1C4C6E4B50010191
:1045080082174C50831741EC3DF04ED00DC148F056
:10451800010E496E000E4A6E482A03D0D8904936DB
:104528004A36482EFBD701018251491683514A1653
:1045380049504A10D8A436D0C1C101F0C2C102F016
:1045480001D809D00500FA6EB351FD6EB451FE6E64
:10455800FF6AFA50120001500210D8B420D00DC1E1
:1045680048F0010E496E000E4A6E482A03D0D890D2
:1045780049364A36482EFBD74950010182134A5022
:1045880083132151F00B0609216F280E2B6F000EA3
:104598002C6F010E0D018C6F36EC04F005D041EC48
:1045A8003DF002D036EC04F00001EC51120056C088
:1045B800D9FF57C0DAFF550EDE18D8A414D020EE64
:1045C80007F05650D9265750DA220F0EDE18D8A415
:1045D8000AD020EE08F05650D9265750DA229B0E02
:1045E800DE18D8B402D0410E120020EE06F0565064
:1045F800D9265750DA22DF50586E5850596E5A6AE9
:1046080020EE02F05650D9265750DA22DF50586E65
:1046180058505B6E5C6A5D6A5E6A5DC05EF05CC045
:104628005DF05BC05CF05B6A20EE03F05650D92663
:104638005750DA22DF50586E58505B125DC05EF05A
:104648005CC05DF05BC05CF05B6A20EE04F0565025
:10465800D9265750DA22DF50586E58505B125DC089
:104668005EF05CC05DF05BC05CF05B6A20EE05F05C
:104678005650D9265750DA22DF50586E58505B12E0
:104688005BC042F05CC043F05DC044F05EC045F0E2
:1046980059C046F05AC047F0090E5624486E000E1D
:1046A8005720496E20EE01F05650D9265750DA228D
:1046B800DF5042EC11F05950090F1200016E7BD007
:1046C8008C849594958483A4FED78890729A958C4F
:1046D80095988C98959A8C9A959E8C8E550EA76E67
:1046E800AA0EA76E0E01BF91000ED76F1F0EFC6FAA
:1046F8001F0EFE6F170EFC6F0A0ED56F0B0ED66FCE
:10470800160EFD6F550EA76EAA0EA76EBF81738E8B
:10471800738C729E729C7298729072927294729656
:10472800728A000E01018A6F12008890729A0F0136
:104738004093550EA76EAA0EA76E0E01BF910A0EE2
:10474800D76F150EFC6F160EFD6F130EFE6F550E0C
:10475800A76EAA0EA76EBF81729A958A9588959CB6
:104768008C8C9584739E738C729E729C7298725016
:10477800F00B0409726EA49E728A888A88888886DB
:10478800889488928698869A869C869E8690869239
:1047980086948696000E666E3F0E676E030E6A6EEE
:1047A800400E6B6E030E686E000E696E8880010EF7
:1047B80001018A6F12000150000AD8B481D7010A9A
:1047C800D8A41200B2D7066E0650D8A42CD0000187
:1047D80020EE01F0E151D926E251DA22080EDF6E0F
:1047E80020EE02F0E151D926E251DA22300EDE6ED7
:1047F8000D0EDD6EE1C0D9FFE2C0DAFF0C0EDF6EF0
:10480800E1C0D9FFE2C0DAFF000EDB8ED1C0D9FFCC
:10481800D2C0DAFF040EDF6ED1C0D9FFD2C0DAFFF2
:10482800000EDB8E12000150026E036AD890023629
:1048380003360650046E056AD89004360536D890BB
:10484800043605360250042603500522D890043653
:104858000536D89004360536000E0424076E0D0E72
:104868000520086E07C0D9FF08C0DAFF000EDB84F8
:1048780007C0D9FF08C0DAFF000EDB8E0650040D12
:10488800F3CF02F0F4CF03F00150020DF3500226EB
:10489800F4500322D89002360336D89002360336F5
:1048A800040E0226000E0322000E0224076E0D0ECF
:1048B8000320086E07C0D9FF08C0DAFF000EDB84AA
:1048C80007C0D9FF08C0DAFF000EDB8E12006DD0DA
:1048D8000001C651D8B4120066EC47F0000E000182
:1048E800C66F12008C90000E01017D6F000E7C6F68
:1048F800020E0001E66F12004FEC46F0000E0101B7
:104908007D6F000E7C6F030E0001E66F120001013F
:104918007C4B7D2B7D5104E1040E7C5DD8A01200F8
:1049280060EC46F0000E01017D6F000E7C6F040EF6
:104938000001E66F12000FEC45F0960EBAEC45F058
:104948008CEC47F0000E01017D6F000E7C6F000EAD
:104958007B6F000E7A6F050E0001E66F1200CA51D8
:10496800D8A40BD001017A4B7B2BFA0E7A197B1154
:10497800D8A403D0100E0001CA6F0001C551D8A4F5
:104988000CD0C651D8A409D001017C2903E17D29A6
:10499800D8B412007C4B7D2B1200000E01017D6FF4
:1049A800000E7C6FF1EC2BF012000001E651000ABA
:1049B800D8B48ED7010AD8B495D7030AD8B49CD7EF
:1049C800010AD8B4A4D7070AD8B4B5D7010AD8A41D
:1049D8001200C5D7096E0001DD51DE11D8B406D02A
:1049E800DDC0D9FFDEC0DAFFDFBE1200DF51E01103
:1049F800D8B406D0DFC0D9FFE0C0DAFFDFBE1200AE
:104A0800EDC00AF0EC69000EEB6F000EEA6F08C10A
:104A180088FD09C189FD0AC18AFD0BC18BFD010E04
:104A28000D018C6F030E0001ED6F43D0020E0D01D6
:104A38008C6F1200010E016E020EE7EC23F01200DB
:104A4800020E0D018C6F010E016E020EE7EC23F0D1
:104A58001200000E016E020EE7EC23F01200020EA7
:104A68000D018C6F000E016E020EE7EC23F01200B0
:104A780072EC3DF001012151F00B0509216F200E68
:104A88002B6F000E2C6F020E0A18D8A40CD00851F8
:104A980009110A110B11D8B406D0000E016E020ECE
:104AA800E7EC23F01200010E016E020EE7EC23F092
:104AB80012000950010AD8B4B9D7030AD8B4BAD732
:104AC800010AD8B4BDD7070AD8B4C3D7010AD8B4E5
:104AD800C6D77A0AD8A41200CBD7000E016E400EB2
:104AE800026E0D0E036E400E046E020EF2EC25F0FF
:104AF80001C0DFF002C0E0F0D5C0DDF0D6C0DEF0C6
:104B0800000E0001ED6FEC69000EEB6F000EEA6F0E
:104B1800000EE76F000E01015A6F000E5B6F000E6A
:104B28005C6F000E5D6F000E566F000E576F000E23
:104B3800586F000E596F010E8E6F000E836F000EB6
:104B4800826F000E0D6F46D00D51010DE80EF32453
:104B5800D96E000EF420DA6E000EDF6EC1C101F0CE
:104B6800C2C102F001D809D00500FA6EB951FD6E34
:104B7800BA51FE6EFF6AFA5012000009D8B426D066
:104B8800C1C101F0C2C102F001D80AD00500FA6E15
:104B98000101B351FD6EB451FE6EFF6AFA50120066
:104BA80001500210D8B412D00DC10CF0010E0D6ED8
:104BB800000E0E6E0C2A03D0D8900D360E360C2E31
:104BC800FBD70D50010182130E50831372EC3DF098
:104BD80001010D2B0D51D8A41200B6D7096E015052
:104BE800D8B407D00950020DD10EF324D96E000EA7
:104BF80006D00950020D400EF324D96E010EF420A0
:104C0800DA6EDECF0AF0DDCF0BF00A500B10D8A415
:104C180005D0000E016E000E026E120020EE02F0AA
:104C28000A50D9260B50DA2202C0DEFF03C0DDFF8E
:104C380020EE01F00A50D9260B50DA2204C0DFFF1B
:104C48000AC0D9FF0BC0DAFF400EDF160AC0D9FF31
:104C58000BC0DAFF000EDB860AC0D9FF0BC0DAFFF3
:104C6800000EDB8E0150D8B418D00950020DD10EB9
:104C7800F324D96E000EF420DA6EDECF05F0DDCF16
:104C880006F0040E0518076E0650086E0950020D4E
:104C9800D10EF324D96E000E17D00950020D400E24
:104CA800F324D96E010EF420DA6EDECF05F0DDCFE5
:104CB80006F0040E0518076E0650086E0950020D1E
:104CC800400EF324D96E010EF420DA6E07C0DEFF21
:104CD80008C0DDFF0AC001F00BC002F012006598A1
:104CE8000001CEBF3CD0010134AF0DD0020E00014F
:104CF800F66FEE51D8B42DEC35F0000E0001F06FD0
:104D0800000EF16F1200000120EE01F0E151D926EA
:104D1800E251DA22080EDF6E20EE02F0E151D926C8
:104D2800E251DA22300EDE6E0D0EDD6EE1C0D9FFE3
:104D3800E2C0DAFF0C0EDF6EE1C0D9FFE2C0DAFF95
:104D4800000EDB8ED1C0D9FFD2C0DAFF040EDF6EB1
:104D5800D1C0D9FFD2C0DAFF000EDB8E12000D01E0
:104D680030AF12D0010E0001F66FEF51D8B42DEC20
:104D780035F0000E0001F06F000EF16FF251D8A46B
:104D88001200E0EC2EF01200020E0001F66F20EE89
:104D980001F0E151D926E251DA22080EDF6E20EE49
:104DA80002F0E151D926E251DA22300EDE6E0D0E04
:104DB800DD6EE1C0D9FFE2C0DAFF040EDF6EE1C0AC
:104DC800D9FFE2C0DAFF000EDB8E000EF06F000E96
:104DD800F16FF251D8A41200E0EC2EF0120000019D
:104DE800666F3F0E0001666502D0FF0E1200665125
:104DF800A3EC3DF00009D8B402D0FE0E1200670EF5
:104E0800306E000E316E000166512BEC3BF020EE47
:104E180083F0FF0EDE24516E010EDE20526E000E6E
:104E2800DE20536E000EDE20546E0A0E05D0D89098
:104E38005432533252325132E82EF9D751C060F011
:104E480052C061F0FF0E4D24516E010E4E20526E7D
:104E5800000E4F20536E000E5020546E0A0E05D0DF
:104E6800D8905432533252325132E82EF9D751C0C9
:104E780062F052C063F000016251601904E16351AD
:104E88006119D8B41AD081C036F082C037F062C038
:104E980038F063C039F0E9EC0AF036C064F037C086
:104EA80065F00001642905E16529D8A402D0FD0E4A
:104EB800120064C081F065C082F04DC083F04EC01E
:104EC80084F04FC085F050C086F0670E296E000E42
:104ED8002A6E66515CEC42F0000E12002DC0D9FF1C
:104EE8002EC0DAFF830EDF6E20EE01F02D50D9269A
:104EF8002E50DA22C10EDF6E20EE02F02D50D92698
:104F08002E50DA22250EDF6E20EE01F02B50D92626
:104F18002C50DA2210EE03F02D50E1262E50E2221A
:104F2800DFCFE7FF20EE02F02B50D9262C50DA22F3
:104F380010EE04F02D50E1262E50E222DFCFE7FFDD
:104F480020EE01F02B50D9262C50DA22DF502F6E9C
:104F58002F50316E326A3150326E316A20EE02F0D3
:104F68002B50D9262C50DA22DF502F6E2F503112B9
:104F780031C02FF032C030F02F1E301E2F4A302A99
:104F8800000E2F24336E020E3020346E345004E1AC
:104F9800370E335CD8A004D0000E346E3A0E336E50
:104FA80020EE05F02D50D9262E50DA2233C0DFFF2F
:104FB80031C025F032C026F033C027F034C028F0C5
:104FC800060E2D24296E000E2E202A6EA2EC46F025
:104FD80012000001786F7E0E306E000E316E0001F7
:104FE80078512BEC3BF000017D6F7D51D8B402D095
:104FF8007D5112006E519A5D6F519B5970519C59A9
:1050080071519D59D8B002D0FF0E120072516E2511
:105018005C6E73516F215D6E745170215E6E7551B7
:1050280071215F6E5C509A5D5D509B595E509C5932
:105038005F509D59D8B01DD06EC05CF06FC05DF058
:1050480070C05EF071C05FF05C1E5D1E5E1E5F1E6C
:105058005C2A000E5D225E225F229A515C24726FE8
:105068009B515D20736F9C515E20746F9D515F2032
:10507800756F98C079F099C07AF0000E7C6F000EB9
:105088007B6F6EC042F06FC043F070C044F071C0D7
:1050980045F072C046F073C047F074C048F075C060
:1050A80049F076C04AF077C04BF0790E4C6E000E8E
:1050B8004D6E7B0E4E6E000E4F6E5CEC12F01200C1
:1050C80059C0D9FF5AC0DAFF520EDE18D8A414D03E
:1050D80020EE10F05950D9265A50DA22BD0EDE18AB
:1050E800D8A40AD020EE11F05950D9265A50DA2205
:1050F8004F0EDE18D8B402D0120E120020EE0CF0BB
:105108005950D9265A50DA22DF505B6E5B505C6EDC
:105118005D6A5E6A5F6A5EC05FF05DC05EF05CC03B
:105128005DF05C6A20EE0DF05950D9265A50DA220B
:10513800DF505B6E5B505C125EC05FF05DC05EF07E
:105148005CC05DF05C6A20EE0EF05950D9265A50CA
:10515800DA22DF505B6E5B505C125EC05FF05DC0B0
:105168005EF05CC05DF05C6A20EE0FF05950D92605
:105178005A50DA22DF505B6E5B505C12010E5924E4
:105188004D6E000E5A204E6E090E59244F6E000EB9
:105198005A20506E5CC051F05DC052F05EC053F0B2
:1051A8005FC054F0F4EC1FF0120E12000D013039FC
:1051B800E832030B0009D8A4120047D00001CE8FB3
:1051C800080EF86F120093EC20F012004BEC29F057
:1051D8001200FE0E0001CB6F000ECC6FCE81010EC7
:1051E800CF6FCE8F1200E9EC32F01200A4EC0DF074
:1051F80012000D013451010DAF0EF3240001CB6FE5
:10520800010EF420CC6FCE81010ECF6FCE8F12002D
:105218000001CE8F0D013451010DAF0EF324D96E6C
:10522800010EF420DA6E32CDDFFF1200000E116E8F
:10523800020E106E000E126E000E136E000E156E2A
:10524800000E146E39EC39F012000D013151000ACC
:10525800D8B4C9D7010AD8B4C9D7020AD8B4C6D7AE
:10526800060AD8B4ABD7030AD8B4ADD7010AD8B464
:10527800DDD70F0AD8B4ADD7010AD8B4A7D7030A27
:10528800D8B4B7D7010AD8B4C3D7070A12000001A7
:10529800CE8F270E016E0F0E026E000E046E000EEA
:1052A800036E000E066E020E056E3BEC45F0000E16
:1052B800016E0D0E026E000E046E000E036E000EDF
:1052C800066E300E056E3BEC45F0658C000E186ED0
:1052D800020E186401D016D01850010D6F0EF32479
:1052E800D96E010EF420DA6E000EDF6E1850010D33
:1052F8006C0EF324D96E010EF420DA6E000EDF6E08
:10530800182AE6D7AF0E016E010E026E000E046E6B
:10531800000E036E000E066E020E056E3BEC45F0A5
:10532800659C080E0001D16F0D0ED26F000EE36F61
:105338000D0EE46FE3C0E1F0E4C0E2F032CDFEF020
:10534800FE51D8A403D0100EF86F1200000E116E93
:10535800010E106EFE0E126E000E136E000E156E0C
:10536800010E146E39EC39F0200E0001F86F1200AE
:105378000D0130511F0BE806D8A412003451D8A4EF
:105388001200060E3119D8B41AD022D00001FE0539
:10539800D8A41ED0BA0ECB6F9E0ECC6F000ED06F65
:1053A800090E0BD0C00ECE6F13D06E0E0001CB6F5E
:1053B8009F0ECC6F000ED06F1D0ECF6FF3D70D016F
:1053C8003351210AD8B4E2D7030AD8B4EED7010A78
:1053D8000D013039E832030BE806D8A4120024D0B6
:1053E800B20E0001CB6F010ECC6F000ED06F010E14
:1053F800CF6FC10ECE6F1200800E0001CE6F33CD7D
:10540800B2F11200B10E0001CB6F010ECC6F000E8D
:10541800D06F010ECF6F810ECE6F1200800E00018B
:10542800CE6F32CDB1F112000D013151010AD8B45D
:105438001200030AD8B4D4D7010AD8B4E3D70A0AA9
:10544800D8B41200030AD8B4D7D7010AD8A41200D6
:10545800E5D70B500C100D100E10D8A402D0010E79
:1054680001D0000E116E0001E705D8A405D0110483
:10547800D8A402D0000E12000B50010108191AE13D
:105488000C50091917E10D500A1914E10E500B19A7
:10549800D8A410D00001ED05D8A406D02A0EEC1926
:1054A800D8B408D0000E12002A0EEC19D8A402D0E5
:1054B800000E1200010108510B5C09510C580A51E9
:1054C8000D580B510E58D8B002D0010E01D0000E65
:1054D8000F6E020E0001ED19D8A414D02A0EEC1993
:1054E800D8B405D01150D8A402D0050E1DD0E705B8
:1054F800D8B40FD01104D8B403D00F04D8A4F5D76A
:10550800040E12D02A0EEC19D8B40DD0E705D8A491
:1055180002D0010E09D01104D8B403D00F04D8A4C6
:1055280002D0020E01D0030E106E1050EEEC24F0E3
:105538001050120015C0D9FF16C0DAFF100EDF6E2A
:1055480020EE01F01550D9261650DA22C10EDF6E72
:1055580020EE02F01550D9261650DA22250EDF6EFD
:1055680020EE03F01550D9261650DA2250EC47F0F9
:10557800DF6E20EE04F01550D9261650DA22000E00
:10558800DF6E20EE05F01550D9261650DA22030EEC
:10559800DF6E20EE06F01550D9261650DA22040EDA
:1055A800DF6E20EE07F01550D9261650DA221EECD1
:1055B80048F0DF6E20EE08F01550D9261650DA2292
:1055C800C5C0DFFF20EE09F01550D9261650DA22A3
:1055D800C6C0DFFF20EE0AF01550D9261650DA2291
:1055E800C7C0DFFF20EE0BF01550D9261650DA227F
:1055F800C8C0DFFF20EE0CF01550D9261650DA226D
:10560800C9C0DFFF20EE0DF01550D9261650DA225A
:10561800CAC0DFFF1200410E00019A6F48D098C03F
:1056280055F099C056F080EC2BF03ED098C050F061
:1056380099C051F0E8EC40F037D098C059F099C0C3
:105648005AF064EC28F030D098C060F099C061F04E
:10565800D4EC3BF029D098C05AF099C05BF0BDEC6F
:1056680039F022D098C056F099C057F0DBEC22F000
:105678001BD098C027F099C028F03AEC42F014D01B
:1056880098C054F099C055F0B1EC38F00DD098C0DE
:1056980054F099C055F0F5EC38F006D098C02BF0CE
:1056A80099C02CF093EC33F000019A6F23D098C086
:1056B800D9FF99C0DAFFDF50500AD8B4B0D7010A31
:1056C800D8B4B4D7030AD8B4B8D7010AD8B4BCD769
:1056D800070AD8B4C0D7010AD8B4C4D7030AD8B4C3
:1056E800C8D7010AD8B4CCD70F0AD8B4D0D7010A82
:1056F800D8B4D4D79A51120055C0D9FF56C0DAFF92
:10570800500EDE18D8A414D020EE06F05550D92635
:105718005650DA224C0EDE18D8A40AD020EE07F034
:105728005550D9265650DA22EA0EDE18D8B402D0DF
:10573800080E120020EE02F05550D9265650DA22F3
:10574800DF50576E5750586E596A5A6A5B6A5AC08A
:105758005BF059C05AF058C059F0586A20EE03F06F
:105768005550D9265650DA22DF50576E57505812E6
:105778005AC05BF059C05AF058C059F0586A20EE28
:1057880004F05550D9265650DA22DF50576E57503C
:1057980058125AC05BF059C05AF058C059F0586AAC
:1057A80020EE05F05550D9265650DA22DF50576EB4
:1057B8005750581258C04DF059C04EF05AC04FF0CB
:1057C8005BC050F020EE01F05550D9265650DA2231
:1057D800DF50F3EC26F0080E120054D00001C65139
:1057E800800A7F0FD8A01200000EC66F1200C651A3
:1057F800800A7F0FD8A01200000EC66F1200C65193
:10580800800A7F0FD8A01200300EC96F300ECA6F01
:10581800000EC66F1200C651800A7F0FD8A0120072
:10582800000EC66F1200C651800A7F0FD8A0120062
:10583800000EC66F1200C651800A7F0FD8A0120052
:10584800600EC96F600ECA6F000EC66F1200C65197
:10585800800A7F0FD8A01200000EC66F1200C65132
:10586800800A7F0FD8A01200010E0C6E000E0B6E7E
:10587800780E0D6EE1EC42F00A0E19EC46F014ECCD
:1058880047F012000001CA51000AD8B4A7D7100A7D
:10589800D8B4ADD7300AD8B4B2D7100AD8B4BBD769
:1058A800700AD8B4C8D7100AD8B4BDD7300AD8B44B
:1058B800CED7100AD8A41200D2D7000E326E000E2E
:1058C800346E220E336E345066E1260E335CD8B047
:1058D80062D033C028F034C029F0C00E2A6E030EFF
:1058E8002B6E67EC44F0000E366E000E356E020E1D
:1058F800365CD8B04BD0C00E3524D96E030E362096
:10590800DA6EDF50D8A402D0FF0E1200C00E352484
:10591800D96E030E3620DA6EE50EDE18D8B430D014
:105928002CC001F02DC002F0C00E3524036E030E0A
:105938003620046E000E066E080E056ED0EC30F0B0
:1059480001500210D8A41CD02EC001F02FC002F0C4
:10595800080E3524306E000E3620316EC00E30240D
:10596800036E030E3120046E000E066E030E056EE4
:10597800D0EC30F001500210D8A402D032501200FE
:10598800322A200E3526000E3622B1D7334A342A61
:10599800345001E19AD7FF0E1200000E0A6E000E75
:1059A8000C6E62D00C500124066E000E0220076EA9
:1059B800000E0320086E000E0420096E095008101E
:1059C80004E1A00E075CD8A018D00C500124066E84
:1059D800000E0220076E000E0320086E000E042041
:1059E800096E09500AE1F80E065CFF0E0758010E11
:1059F8000858D8B002D0000E29D00C500124066EE9
:105A0800000E0220076E000E0320086E000E042010
:105A1800096E095008E1F80E065CFF0E0758010EE2
:105A28000858D8A015D00C500124066E000E02208C
:105A3800076E000E0320086E000E0420096E095040
:105A480007E1020E085CD8B003D0010E0B6E01D03E
:105A58000B680B28D8A402D0FF0E12000B500A5C6A
:105A6800D8A00BC00AF00C2A05500C5CD8A09AD715
:105A78000A501200080E016E0001D05110E1080E04
:105A8800CF5DD8B00CD0CFC001F0F751D8A402D068
:105A9800010E04D0F705D8A402D0020EF76F01500A
:105AA800CF5F000ED05B20EE01F0D151D926D25144
:105AB800DA2201C0DFFF380E0101886F0D0E896FF1
:105AC8000001CEA11DD03CD0CBC0F6FFCCC0F7FF63
:105AD800F86A88C1D9FF89C1DAFF0E0EF76403D0CE
