:020000040000FA
:040000000EEF00F00F
:0400080004EF60F0B1
:100018000CEF60F086EF3FF00E500C24D96E0F50B5
:100028000D20DA6E3A0EDE18D8B405D00C680D68CB
:100038000E680F681200020E0E24146E000E0F20B8
:10004800156E14500C24D96E15500D20DA6EDF5041
:10005800036E010E0E24166E000E0F20176E16503A
:100068000C24D96E17500D20DA6EDF504FEC4DF08E
:10007800186E196A12C0D9FF13C0DAFF18C0DEFF64
:1000880019C0DDFF12C0D9FF13C0DAFF010EDB5023
:1000980004E1110EDE5CD8A009D0FC0E0C6EFF0E38
:1000A8000D6EFF0E0E6EFF0E0F6E1200040E0E2464
:1000B800146E000E0F20156E14500C24D96E1550B6
:1000C8000D20DA6EDF50036E050E0E24166E000E3C
:1000D8000F20176E16500C24D96E17500D20DA6EAB
:1000E800DF50046E060E0E24186E000E0F20196ED7
:1000F80018500C24D96E19500D20DA6EDF50056E99
:10010800030E0E241A6E000E0F201B6E1A500C24BC
:10011800D96E1B500D20DA6EDF5043EC42F020EE12
:1001280002F01250D9261350DA2203C0DEFF04C0B1
:10013800DDFF20EE04F01250D9261350DA22080E03
:100148000E24146E000E0F20156E14500C24E16E50
:1001580015500D20E26EE750036E070E0E24166E42
:10016800000E0F20176E16500C24E16E17500D204C
:10017800E26EE7504FEC4DF0DF6E000E1C6E3DD086
:100188001C50010D050EF326000EF422F350122424
:10019800D96EF4501320DA6E1C501CC014F0156A86
:1001A8001426000E15220E5014260F5015220A0E82
:1001B8001426000E152214500C24E16E15500D2043
:1001C800E26EE750036E1C501CC016F0176A162624
:1001D800000E17220E5016260F501722090E16264B
:1001E800000E172216500C24E16E17500D20E26EF7
:1001F800E7504FEC4DF0DF6E1C2A12C0D9FF13C038
:10020800DAFF1C50166E176ADE50165CDE5017585F
:10021800D8A0B6D720EE15F01250D9261350DA22FE
:100228001C501CC014F0156A1426000E15220E501E
:1002380014260F5015220A0E1426000E15221450EB
:100248000C24E16E15500D20E26EE750036E1C5031
:100258001CC016F0176A1626000E17220E50162616
:100268000F501722090E1626000E172216500C24BE
:10027800E16E17500D20E26EE7504FEC4DF0DF6E47
:1002880012C0D9FF13C0DAFF10EE16F01250E126A3
:100298001350E222DFCFE7FF20EE02F01250D926FA
:1002A8001350DA22DECF14F0DDCF15F015C014F0AC
:1002B800156A20EE16F01250D9261350DA2214507F
:1002C800DF2620EE02F01250D9261350DA22DF5032
:1002D800146E20EE16F01250D9261350DA2214505C
:1002E800DF2620EE04F01250D9261350DA22DF5010
:1002F800146E20EE16F01250D9261350DA2214503C
:10030800DF26000E1C6E17D01C50010D050EF326BB
:10031800000EF422F3501224D96EF4501320DA6E32
:10032800DF50146E20EE16F01250D9261350DA2240
:100338001450DF261C2A12C0D9FF13C0DAFF1C5044
:10034800166E176ADE50165CDE501758D8A0DCD738
:1003580020EE15F01250D9261350DA22DF50146E11
:1003680020EE16F01250D9261350DA221450DF2648
:1003780020EE16F01250D9261350DA22DF50D8B4E6
:1003880009D0FE0E0C6EFF0E0D6EFF0E0E6EFF0EE8
:100398000F6E120020EE04F01250D9261350DA2204
:1003A800DE04D8A409D0000E0C6E000E0D6E000EEF
:1003B8000E6E000E0F6E12001C501CC014F0156A51
:1003C8001426000E15220B0E1424166E000E15208E
:1003D800176E186A17BE18061850196E16500E2692
:1003E80017500F221850102219501122010E0E26F4
:1003F800000E0F22102211220E500C24D96E0F501D
:100408000D20DA6E3A0EDE18D8A409D00EC00CF012
:100418000FC00DF010C00EF011C00FF01200010E49
:100428000E26000E0F22102211220E500C24D96E17
:100438000F500D20DA6E3A0EDE18D8A409D00EC07F
:100448000CF00FC00DF010C00EF011C00FF012002C
:10045800010E0E26000E0F22102211220E500C241F
:10046800D96E0F500D20DA6E3A0EDE18D8A409D0D6
:100478000EC00CF00FC00DF010C00EF011C00FF040
:100488001200FD0E0C6EFF0E0D6EFF0E0E6EFF0EAF
:100498000F6E1200000E0001A86F000EA76F000E6D
:1004A8009C6F000E9D6F000E9E6F000E9F6FD751C0
:1004B800D811D911DA11D8A410D07C0E306E000EE4
:1004C800316EFF510AEC42F096C0FBF097C0FCF089
:1004D800000E0001FA6F000EF96FD7C06EF0D8C099
:1004E8006FF0D9C070F0DAC071F000016E1F6F1F95
:1004F800701F711F6E2B000E6F2370237123010173
:100508004A5100016E25726F01014B5100016F21A4
:10051800736F01014C5100017021746F01014D513D
:1005280000017121756F75517411731104E1320E58
:10053800725DD8A01FD0D7C042F0D8C043F0D9C050
:1005480044F0DAC045F0320E466E000E476E000EDB
:10055800486E000E496E900E4A6E020E4B6EFB0EF0
:100568004C6E000E4D6EF90E4E6E000E4F6E9DECE9
:1005780013F03CD0D7C042F0D8C043F0D9C044F003
:10058800DAC045F0D7C06EF0D8C06FF0D9C070F0AF
:10059800DAC071F000016E1F6F1F701F711F6E2B84
:1005A800000E6F237023712301014A5100016E254B
:1005B800466E01014B5100016F21476E01014C51FC
:1005C80000017021486E01014D5100017121496EF1
:1005D800900E4A6E020E4B6EFB0E4C6E000E4D6E68
:1005E800F90E4E6E000E4F6E9DEC13F0900E0C6ED1
:1005F800020E0D6E000E0E6E000E0F6E000E106EC7
:10060800000E116E930E126E010E136E10EC00F0B8
:100618000CC09CF00DC09DF00EC09EF00FC09FF066
:100628000101784B792BF10E00019C5DFF0E9D595D
:10063800FF0E9E59FF0E9F59D8A005D0500EC96FC6
:10064800500ECA6F12009C51D7279D51D8239E5136
:10065800D9239F51DA23FAD001019851466F476B8D
:10066800486B496B48C149F147C148F146C147F158
:10067800466B9951461348C149F147C148F146C1F3
:1006880047F1466B48C149F147C148F146C147F1B6
:10069800466B23D78BC1A4F0000E8B6F955146256E
:1006A8000001A06F0101965147210001A16F000EC2
:1006B800010148210001A26F000E0101492100013A
:1006C800A36FA451A025016E000EA121026E000E99
:1006D800A221036E000EA321046E5DEC4DF001C053
:1006E80078F002C079F00001A451A025016E000E37
:1006F800A121026E000EA221036E000EA321046E3A
:10070800A451000801019325056E28EC35F0000975
:10071800D8A4E3D60001A751A811D8A410D078C056
:10072800A7F079C0A8F0A7C016F0A8C017F038EC59
:1007380049F03BEC4EF001C076F002C077F0A4C05F
:10074800A5F00001A66B5DD0A551A025016EA651AC
:10075800A121026E000EA221036E000EA321046ED9
:100768005DEC4DF00001A75101182AE1A8510218CB
:10077800D8A426D0A551A025096EA651A1210A6E9C
:10078800000EA2210B6E000EA3210C6EA7C00DF067
:10079800A8C00EF0B5EC44F009C07AF00AC07BF0AE
:1007A800980E0001A525D96E010EA621DA6E7A51A0
:1007B8007625E16E7B517721E26EDFCFE7FF1ED011
:1007C8009C51D75F9D51D85B9E51D95B9F51DA5B95
:1007D80001017807D8A07907A5C08BF1A7C009F057
:1007E800A8C00AF0EAEC42F0A7C009F0A8C00AF0D5
:1007F8001AEC39F00101744B752B12000001A54B5E
:10080800A62B010193510001A55D0101945100013E
:10081800A659D8B062D698D70001A751A811D8B464
:100828001200A7C009F0A8C00AF0EAEC42F0A7C07D
:1008380009F0A8C00AF01AEC39F00101744B752BC5
:10084800700E0001C96F700ECA6F12000101975136
:10085800000AD8B41FD7010AD8B4DED7050AD8B41D
:10086800FBD63BD6B9D19EEC1AF00009D8A41200E9
:100878000001EC69120048EC0CF00009D8A4120041
:100888000001EC691200E705D8A402D0EC69120057
:1008980012C1DCF013C1DBF0DBC00BF0DCC00CF0E4
:1008A8000D6A0E6AF7EC32F00009D8A41200000EA7
:1008B800026E240E016E59EC3EF0000E016E060E1B
:1008C800026E490E036EBF0E046E03500410D8A4C6
:1008D800000E056E000E076E240E066EEFEC43F058
:1008E800FD0E0001EC6F1200C1C101F0C2C102F09F
:1008F80001D80AD00500FA6E0101B551FD6EB65156
:10090800FE6EFF6AFA50120001C043F002C044F0C4
:1009180003C045F004C046F0C1C101F0C2C102F0F5
:1009280001D80AD00500FA6E0101B751FD6EB85121
:10093800FE6EFF6AFA50120001C03FF002C040F09C
:10094800416A426A26EE00F046C0DFFF26EE01F05B
:1009580045C0DFFF26EE02F044C0DFFF26EE03F0BD
:1009680043C0DFFF26EE04F042C0DFFF26EE05F0AD
:1009780041C0DFFF26EE06F040C0DFFF26EE07F09D
:100988003FC0DFFF000E0001DC6F080EDB6F000EBA
:10099800026E080E016E59EC3EF0FD0E0001EC6F80
:1009A8001200E705D8A402D0EC691200000EDC6F33
:1009B800120EDB6F000E026E120E016E59EC3EF045
:1009C800000E476E110E476401D014D04750010D38
:1009D8001F0EF324D96E010EF420DA6E4750010D74
:1009E800000EF324E16E060EF420E26EDFCFE7FF7F
:1009F800472AE8D7FD0E0001EC6F1200030EE8CF7E
:100A080000F6000EE8CF01F6C1C101F0C2C102F044
:100A180001D80AD00500FA6E0101BD51FD6EBE5124
:100A2800FE6EFF6AFA5012000009D8A404D0000E26
:100A38003D6E000E03D0000E3D6E800E3C6E26EE1D
:100A480002F03CC0DFFF000EE8CF03F6000E000105
:100A5800DC6F040EDB6F000E026E040E016E59ECA3
:100A68003EF0FD0E0001EC6F120001012151F00B68
:100A78000509216F200E2B6F000E2C6F010E0D0142
:100A88008C6F000E886F000E896F000E8A6F000E43
:100A98008B6F0001EC691200000E0B6E000E0C6EDD
:100AA800000E0D6E000E0E6EF7EC32F00009D8A4A1
:100AB8001200010121510F0B060AD8A407D00D011D
:100AC8008C05D8A403D00001EC69120053EC44F063
:100AD800000E0D01886F000E896F000E8A6F000EE0
:100AE8008B6F0001EC691200000E0D01886F000E7B
:100AF800896F000E8A6F000E8B6F0001EC6912007F
:100B0800DD51DE11D8B406D0DDC0D9FFDEC0DAFF72
:100B1800DFBE120001010B510A11091104E1400E58
:100B2800085DD8A009D0400E3E6E400E085F000E4A
:100B3800095B0A5B0B5B0AD008C13EF0000E086F28
:100B4800000E096F000E0A6F000E0B6F3E503A6ED2
:100B58003B6A3A500001DB5D3B50DC59D8A005D018
:100B68003E50DB5F000EDC5B1AD0000E476E13D0E0
:100B7800DB51DC11D8B404D0DB07D8A0DC070AD0DD
:100B88004750010D000EF324D96E060EF420DA6EDC
:100B9800000EDF6E472A3E50475CD8A0E9D7010E09
:100BA800016E000E026E060E036E3EC004F0020EC9
:100BB8003BEC2DF001C0DDF002C0DEF00101085170
:100BC80009110A110B11D8A412000001EC691200D6
:100BD8007F0E37EC2CF012000001EC51000AD8B45B
:100BE8005BD7030AD8B4DDD6110AD8B44CD6080AA4
:100BF800D8B404D7010AD8B477D7050AD8B435D7FA
:100C08003B0AD8B471D60D0AD8B42DD6020AD8B486
:100C180032D6050AD8B468D7D20AD8B471D7030A2D
:100C2800D7D72250211011E1800E205CD8B00DD00A
:100C38001FC019F020C01AF01B6A1C6A23C01DF0DF
:100C480024C01EF0F5EC37F012001F04E10E205806
:100C5800F50E2158050E2258D8A04CD023C011F00B
:100C680024C012F01FC001F020C002F021C003F020
:100C780022C004F0100E056E270E066E000E076ED9
:100C8800000E086E9DEC40F001C013F002C014F095
:100C9800000E166E0A0E156E59EC49F0050E232447
:100CA800116E000E2420126E1FC001F020C002F049
:100CB80021C003F022C004F0100E056E270E066E48
:100CC800000E076E000E086EBCEC43F001C013F076
:100CD80002C014F0000E166E0A0E156E59EC49F09B
:100CE80020EE09F02350D9262450DA22200EDF6E98
:100CF800090E1200225008E1810E1F5C960E205842
:100D0800980E2158D8A04CD023C011F024C012F05E
:100D18001FC001F020C002F021C003F022C004F07F
:100D2800100E056E270E066E000E076E000E086E7A
:100D38009DEC40F001C013F002C014F0000E166ED6
:100D48000A0E156E59EC49F0040E2324116E000E9C
:100D58002420126E1FC001F020C002F021C003F051
:100D680022C004F0100E056E270E066E000E076EE8
:100D7800000E086EBCEC43F001C013F002C014F082
:100D8800000E166E0A0E156E59EC49F020EE08F0AA
:100D98002350D9262450DA22200EDF6E080E1200C6
:100DA800225008E1410E1F5C420E20580F0E2158B8
:100DB800D8A04CD023C011F024C012F01FC001F0FD
:100DC80020C002F021C003F022C004F0100E056E0E
:100DD800270E066E000E076E000E086E9DEC40F0A2
:100DE80001C013F002C014F0000E166E0A0E156E44
:100DF80059EC49F0030E2324116E000E2420126EC4
:100E08001FC001F020C002F021C003F022C004F08E
:100E1800100E056E270E066E000E076E000E086E89
:100E2800BCEC43F001C013F002C014F0000E166EC3
:100E38000A0E156E59EC49F020EE07F02350D9261A
:100E48002450DA22200EDF6E070E1200225008E12D
:100E5800A10E1F5C860E2058010E2158D8A04CD038
:100E680023C011F024C012F01FC001F020C002F00E
:100E780021C003F022C004F0100E056E270E066E86
:100E8800000E076E000E086E9DEC40F001C013F0D6
:100E980002C014F0000E166E0A0E156E59EC49F0D9
:100EA800020E2324116E000E2420126E1FC001F0C2
:100EB80020C002F021C003F022C004F0100E056E1D
:100EC800270E066E000E076E000E086EBCEC43F08F
:100ED80001C013F002C014F0000E166E0A0E156E53
:100EE80059EC49F020EE06F02350D9262450DA2296
:100EF800200EDF6E060E120023C011F024C012F07F
:100F08001FC001F020C002F021C003F022C004F08D
:100F1800100E056E270E066E000E076E000E086E88
:100F28009DEC40F001C013F002C014F0000E166EE4
:100F38000A0E156E59EC49F0010E2324116E000EAD
:100F48002420126E1FC001F020C002F021C003F05F
:100F580022C004F0100E056E270E066E000E076EF6
:100F6800000E086EBCEC43F001C013F002C014F090
:100F7800000E166E0A0E156E59EC49F020EE05F0BB
:100F88002350D9262450DA22200EDF6E050E1200D7
:100F9800000E0001976F000E986F000E996F000EFB
:100FA8009A6FD751D811D911DA11D8A410D0760E6A
:100FB800306E000E316EFF510AEC42F090C0FBF02B
:100FC80091C0FCF0000E0001FA6F000EF96FFF519E
:100FD800B3EC42F036C04AF137C04BF138C04CF19F
:100FE80039C04DF1000E0001966F0F0E966501D0C5
:100FF8001200D7C06EF0D8C06FF0D9C070F0DAC058
:1010080071F06E1F6F1F701F711F6E2B000E6F2304
:101018007023712301014A5100016E25726F01018D
:101028004B5100016F21736F01014C510001702178
:10103800746F01014D5100017121756F7551741163
:10104800731104E1320E725DD8A01FD0D7C042F0F0
:10105800D8C043F0D9C044F0DAC045F0320E466E2D
:10106800000E476E000E486E000E496E900E4A6ED6
:10107800020E4B6EFB0E4C6E000E4D6EF90E4E6E50
:10108800000E4F6E9DEC13F03CD0D7C042F0D8C094
:1010980043F0D9C044F0DAC045F0D7C06EF0D8C0EC
:1010A8006FF0D9C070F0DAC071F000016E1F6F1FC9
:1010B800701F711F6E2B000E6F23702371230101A7
:1010C8004A5100016E25466E01014B5100016F2106
:1010D800476E01014C5100017021486E01014D51CC
:1010E80000017121496E900E4A6E020E4B6EFB0E86
:1010F8004C6E000E4D6EF90E4E6E000E4F6E9DEC4E
:1011080013F0900E0C6E020E0D6E000E0E6E000E99
:101118000F6E000E106E000E116E930E126E010E01
:10112800136E10EC00F00CC097F00DC098F00EC0D4
:1011380099F00FC09AF00101784B792B040E97199A
:10114800D8A41CD09851466F476B486B496B48C16F
:1011580049F147C148F146C147F1466B99514613D9
:1011680048C149F147C148F146C147F1466B48C1FA
:1011780049F147C148F146C147F1466B9751D8A498
:101188005ED09551462500019B6F0101965147217C
:1011980000019C6F000E0101482100019D6F000EA7
:1011A8000101492100019E6F0101525100019B5D1F
:1011B8000101535100019C590101545100019D59ED
:1011C8000101555100019E59D8B008D09BC052F179
:1011D8009CC053F19DC054F19EC055F19B51010133
:1011E8004E5D00019C5101014F5900019D510101C3
:1011F800505900019E5101015159D8B008D09BC0E7
:101208004EF19CC04FF19DC050F19EC051F19BC062
:1012180001F09CC002F09DC003F09EC004F093C191
:1012280005F028EC35F0FF0AD8A409D00B0E01010F
:101238008C6F500E0001C96F500ECA6F120000016A
:101248009751981199119A11D8A427D078C176F19D
:1012580079C177F1000E0101796F000E786F000EE9
:101268000001D76F000ED86F000ED96F000EDA6F2D
:10127800000E0101466F000E476F000E486F000E0A
:10128800496F000E756F000E746F000E8B6F400E65
:101298000001C96F400ECA6F1200F10E975DFF0E74
:1012A8009859FF0E9959FF0E9A59D8A009D097510D
:1012B8000F0B01018C6F500E0001C96F500EEBD758
:1012C8009751D7279851D8239951D9239A51DA237E
:1012D800962B8BD6000E256E17D02550010D980E33
:1012E800F324F66EBD0EF420F76EF86A000EF822AD
:1012F8002550010D000EF324D96E020EF420DA6E8B
:101308000800F5CFDFFF252A2550010D980EF3249C
:10131800F66EBD0EF420F76EF86A000EF82208008B
:10132800F5500009D8A4D9D7000E256E17D025503E
:10133800010DE20EF324F66EBC0EF420F76EF86A87
:10134800000EF8222550010D140EF324D96E020E5A
:10135800F420DA6E0800F5CFDFFF252A2550010DAD
:10136800E20EF324F66EBC0EF420F76EF86A000E57
:10137800F8220800F5500009D8A4D9D7000E256E28
:10138800D6D02550010DAA0EF324F66EBC0EF4201B
:10139800F76EF86A000EF8222550010D280EF32486
:1013A800D96E020EF420DA6E0800F5CFDFFF252A89
:1013B8002550010DAA0EF324F66EBC0EF420F76E2C
:1013C800F86A000EF8220800F5500009D8B4C0D019
:1013D800D8D72550010DF80EF324F66EBD0EF42073
:1013E800F76EF86A000EF8222550010D280EF32436
:1013F800D96E020EF420DA6E0800F5CFDFFF252A39
:101408002550010DF80EF324F66EBD0EF420F76E8C
:10141800F86A000EF8220800F5500009D8B498D0F0
:10142800D8D72550010D070EF324F66EBE0EF42012
:10143800F76EF86A000EF8222550010D280EF324E5
:10144800D96E020EF420DA6E0800F5CFDFFF252AE8
:101458002550010D070EF324F66EBE0EF420F76E2C
:10146800F86A000EF8220800F5500009D8B470D0C8
:10147800D8D72550010D250EF324F66EBE0EF420A4
:10148800F76EF86A000EF8222550010D280EF32495
:10149800D96E020EF420DA6E0800F5CFDFFF252A98
:1014A8002550010D250EF324F66EBE0EF420F76EBE
:1014B800F86A000EF8220800F5500009D8B448D0A0
:1014C800D8D72550010D820EF324F66EBC0EF420F9
:1014D800F76EF86A000EF8222550010D280EF32445
:1014E800D96E020EF420DA6E0800F5CFDFFF252A48
:1014F8002550010D820EF324F66EBC0EF420F76E13
:10150800F86A000EF8220800F5500009D8A4D9D7C7
:1015180059EC4EF001C01FF002C020F0216A226A87
:101528004A0E236E020E246E15EC06F011D092ECD2
:101538004EF00B0AD8B4DCD7070AD8B4B1D7010AE1
:10154800D8B486D7030AD8B45BD7010AD8B430D741
:10155800000E256E17D02550010D690EF324F66E86
:10156800BE0EF420F76EF86A000EF8222550010D21
:101578003C0EF324D96E020EF420DA6E0800F5CF83
:10158800DFFF252A2550010D690EF324F66EBE0EE5
:10159800F420F76EF86A000EF8220800F5500009EA
:1015A800D8A4D9D75EEC4EF001C019F002C01AF0E9
:1015B8001B6A1C6A2550010D3C0EF3241D6E020E99
:1015C800F4201E6EF5EC37F01200000E486E000E87
:1015D800476E38C043F039C044F0000E3F6E020E2B
:1015E8003E6E000E426E36503710D8A423D03850C5
:1015F8003910D8B41FD03EC02CF03FC02DF0000EDB
:101608002F6E000E2E6E57EC38F02CC036F02DC021
:1016180037F036C001F037C002F09EEC4DF001C043
:101628003EF002C03FF036503710D8A403D03668D9
:101638003768120036C04BF037C04CF0FAD04BC0B8
:1016480001F04CC002F09EEC4DF001C045F002C024
:1016580046F04BC001F04CC002F0AAEC4DF001C0BE
:1016680049F002C04AF04750451804E1485046186E
:10167800D8B435D04250D8B40AD047C020F048C0BA
:1016880021F0C00E226E030E236ECBEC46F03EC056
:101698002CF03FC02DF045C02EF046C02FF057EC7F
:1016A80038F02CC040F02DC041F040C001F041C0DE
:1016B80002F09EEC4DF001C03EF002C03FF045C084
:1016C80028F046C029F0C00E2A6E030E2B6EE7ECF8
:1016D8004AF045C047F046C048F0000E426E4450FC
:1016E80004E1020E435CD8A05CD049C001F04AC0B6
:1016F80002F0C00E036E030E046ED1EC48F001C078
:101708004BF002C04CF04C5004E1020E4B5CD8A0E8
:1017180006D0DA0E4B5C1F0E4C58D8A068D0020ECB
:101728004924016E000E4A20026EC00E036E030E9D
:10173800046E42EC45F001C03CF002C03DF03C288C
:1017480003E13D28D8B413D0FE0E47244B6EFF0E9C
:1017580048204C6E4B504C6E4B6AD8903D303B6ED7
:101768003C303A6E3A504B123B504C120BD0405022
:101778004110D8A403D036683768120040C04BF037
:1017880041C04CF049C001F04AC002F0C00E036EDF
:10179800030E046E4BC005F04CC006F09BEC4AF0FB
:1017A80024D043044410D8A426D049C001F04AC02C
:1017B80002F0C00E036E030E046ED1EC48F001C0B7
:1017C8004BF002C04CF04B2803E14C28D8B40FD0A2
:1017D80049C001F04AC002F0C00E036E030E046E49
:1017E800FF0E066E05689BEC4AF0010E426E43063A
:1017F800D8A044061ED049C001F04AC002F0C00E6D
:10180800036E030E046ED1EC48F001C04BF002C029
:101818004CF049C001F04AC002F0C00E036E030E3E
:10182800046E000E066E000E056E9BEC4AF0010E6B
:10183800426E43504410D8A402D74C5004E1020E23
:101848004B5CD8A006D0DA0E4B5C1F0E4C58D8A0C3
:10185800F6D64250D8B40AD047C020F048C021F08C
:10186800C00E226E030E236ECBEC46F038503910B2
:10187800D8B405D036C036F037C037F01200000EA5
:10188800376E000E366E120046D111C161F112C1D9
:1018980060F113C15FF114C15EF116C1DCF017C12C
:1018A800DBF0DB51306EDC51316E326A336A090E7F
:1018B800D8903036313632363336E82EF9D730C044
:1018C8000BF031C00CF032C00DF033C00EF0F7EC65
:1018D80032F00009D8A431D1C1C101F0C2C102F06F
:1018E80001D80AD00500FA6E0101BD51FD6EBE5146
:1018F800FE6EFF6AFA5012000009D8B416D0010E25
:101908000D018C6F01012151F00B0709216F270E82
:101918002B6F000E2C6F000E016E020E30EC2BF0B8
:10192800000E0001EA6FEA511200010E0001ED6F8E
:10193800DB51DC11D8A402D0000E56D0030EEA6F9A
:10194800000E0101866F060E876F000E0D01886F6D
:10195800020E896F000E8A6F000E8B6F0D01885181
:1019680089118A118B11D8B41ED00001DF51E01102
:10197800D8B406D0DFC0D9FFE0C0DAFFDFBEDDD0C3
:10198800000E016E86C102F087C103F0400E046E9E
:10199800020E3BEC2DF001C0DFF002C0E0F0040EB7
:1019A8000001EA6F23D0C1C101F0C2C102F001D821
:1019B8000AD00500FA6E0101BD51FD6EBE51FE6EE2
:1019C800FF6AFA5012000009D8B40CD0010E0D01BC
:1019D8008C6F01012151F00B0209216F270E2B6F2B
:1019E800000E2C6F020E95D0EA6FA7D0DF51E011E0
:1019F800D8B406D0DFC0D9FFE0C0DAFFDFBE9DD083
:101A080020EE01F0DF51D926E051DA22DF50306EA6
:101A180030C031F0326A336A346A31500101085FEC
:101A28003250095B33500A5B34500B5B000120EEE7
:101A380001F0DF51D926E051DA22DF50306E30C094
:101A480031F0326A336A346A31500D01885F32509E
:101A5800895B33508A5B34508B5B400E01018627CB
:101A6800000E8723030E55D00D018C51D8A43BD00E
:101A7800C1C125F0C2C126F05EC127F05FC128F0C0
:101A880060C129F061C12AF0000E2B6E060E2C6E83
:101A980001015E515F1160116111D8A402D0010EDD
:101AA80001D0000E2D6E01D809D00500FA6EBF5185
:101AB800FD6EC051FE6EFF6AFA501200E806D8B4F7
:101AC80012D0640E0001E96102D0E92B36D0010E74
:101AD8000D018C6F01012151F00B0309216F000EDC
:101AE8002B6F000E2C6F010E01015E27000E5F2385
:101AF800602361230001DB07D8A0DC07010E74D73F
:101B0800020E0D018C6F000E016E020E30EC2BF0F0
:101B1800000E000169D70001EA51000AD8B4B5D611
:101B2800010AD8B405D7030AD8B49ED7010AD8B495
:101B380015D7070AD8B45AD7E3D70001EA511200DB
:101B48000D013205D8A411D030511F0B0009D8A4BB
:101B58000CD00001CE8F030E0D013119D8A402D08C
:101B6800010E01D0000E0001F56F0D013251D8A40D
:101B7800120030511F0B020AD8A4120034510F0B67
:101B88000009D8B4120034510F0B186E030E1860F8
:101B98001200200E0001F819D8A41200CE8F0D01F2
:101BA80034BF19D034510F0B186E1850020D400E67
:101BB800F324D96E010EF420DA6EDECF1CF0DDCFEF
:101BC8001DF034510F0B186E1850010D6C0EF324D4
:101BD800D96E010E18D034510F0B186E1850020D23
:101BE800D10EF324D96E000EF420DA6EDECF1CF08D
:101BF800DDCF1DF034510F0B186E1850010D6F0E0C
:101C0800F324D96E010EF420DA6EDF501B6E1BB080
:101C180006D0FB0E1C141C6EFF0E1D1404D0040EFF
:101C28001C101C6E1D501D6E34BF0AD034510F0B92
:101C3800186E1850020D400EF324D96E010E09D00B
:101C480034510F0B186E1850020DD10EF324D96EB3
:101C5800000EF420DA6E1CC0DEFF1DC0DDFF030E8F
:101C68003119D8A42DD01CC0D9FF1DC0DAFFDFAEB2
:101C78001AD034BF0AD034510F0B186E1850010D0A
:101C88006C0EF324D96E010E0AD00D0134510F0BDE
:101C9800186E1850010D6F0EF324D96E010EF42042
:101CA800DA6E0101DF821CC0D9FF1DC0DAFF000E09
:101CB800DB841CC0D9FF1DC0DAFF000EDB8E1200CA
:101CC800040E1C181C6E1D501D6E1CC0D9FF1DC0B3
:101CD800DAFFDFAE1BD01CC0D9FF1DC0DAFF7F0EB4
:101CE800DF161CC0D9FF1DC0DAFF000EDB8C000E0A
:101CF800116E050E106E1CC012F01DC013F0000E00
:101D0800156E020E146E5AEC40F006D01CC0D9FFB6
:101D18001DC0DAFF000EDB8C040E1C181C6E1D5053
:101D28001D6E1BB206D01CC0D9FF1DC0DAFFDFAE86
:101D380030D00D0134BF0AD034510F0B186E185033
:101D4800010D6C0EF324D96E010E0AD00D01345129
:101D58000F0B186E1850010D6F0EF324D96E010E7B
:101D6800F420DA6E0101DF921CC0D9FF1DC0DAFF32
:101D78003B0EDF16000E116E050E106E1CC012F021
:101D88001DC013F0000E156E020E146E5AEC40F0D2
:101D980006D01CC0D9FF1DC0DAFF3B0EDF160D01AF
:101DA80034510F0B186E1850010D260EF324196EBE
:101DB8000F0EF4201A6E19C0D9FF1AC0DAFFFE0EF2
:101DC800DF16120056C0D9FF57C0DAFF550EDE18CD
:101DD800D8A414D020EE07F05650D9265750DA224E
:101DE8000F0EDE18D8A40AD020EE08F05650D926D7
:101DF8005750DA229B0EDE18D8B402D0410E1200DA
:101E080020EE01F05650D9265750DA22DF50000153
:101E18008F6F20EE06F05650D9265750DA22DF5041
:101E28005C6E5C50906F916B20EE02F05650D92694
:101E38005750DA22DF505C6E5C50926F936B946B54
:101E4800956B94C095F093C094F092C093F0926B08
:101E580020EE03F05650D9265750DA22DF505C6E38
:101E68005C50921394C095F093C094F092C093F094
:101E7800926B20EE04F05650D9265750DA22DF50E4
:101E88005C6E5C50921394C095F093C094F092C02D
:101E980093F0926B20EE05F05650D9265750DA226F
:101EA800DF505C6E5C50921392C042F093C043F0D6
:101EB80094C044F095C045F090C046F091C047F0FA
:101EC800090E5624486E000E5720496E8F517EEC3D
:101ED80012F000018E6F5AC0D9FF5BC0DAFFDF50E5
:101EE800D8B4A9D05AC0D9FF5BC0DAFF380EDF607A
:101EF800A2D05AC0D9FF5BC0DAFFDFCF5CF0010E79
:101F0800DF265C50010DF3505824D96EF450592047
:101F1800DA6E550EDF6E5AC0D9FF5BC0DAFFDFCF2D
:101F28005CF0010EDF265C50010DF3505824D96E89
:101F3800F4505920DA6E8FC0DFFF5AC0D9FF5BC05A
:101F4800DAFFDFCF5CF0010EDF265C50010DF350A5
:101F58005824D96EF4505920DA6E9551DF6E5AC064
:101F6800D9FF5BC0DAFFDFCF5CF0010EDF265C50E3
:101F7800010DF3505824D96EF4505920DA6E94C0EC
:101F8800DFFF5AC0D9FF5BC0DAFFDFCF5CF0010E7C
:101F9800DF265C50010DF3505824D96EF4505920B7
:101FA800DA6E9351DF6E5AC0D9FF5BC0DAFFDFCF1C
:101FB8005CF0010EDF265C50010DF3505824D96EF9
:101FC800F4505920DA6E92C0DFFF5AC0D9FF5BC0C7
:101FD800DAFFDFCF5CF0010EDF265C50010DF35015
:101FE8005824D96EF4505920DA6E9151DF6E5AC0D8
:101FF800D9FF5BC0DAFFDFCF5CF0010EDF265C5053
:10200800010DF3505824D96EF4505920DA6E90C05F
:10201800DFFF5AC0D9FF5BC0DAFFDFCF5CF0010EEB
:10202800DF265C50010DF3505824D96EF450592026
:10203800DA6E8EC0DFFF9051090F120091D0EB0EBF
:1020480012003C0E1200900E1200F10EF66EBF0E3A
:10205800F76E000EF86E0800F5501200F20EF66EDC
:10206800BF0EF76EF86A0800F5501200F30EF66E10
:10207800BF0EF76EF86A0800F5501200F40EF66EFF
:10208800BF0EF76EF86A0800F5501200F50EF66EEE
:10209800BF0EF76EF86A0800F5501200F60EF66EDD
:1020A800BF0EF76EF86A0800F5501200F70EF66ECC
:1020B800BF0EF76EF86A0800F5501200F80EF66EBB
:1020C800BF0EF76EF86A0800F5501200000E1200F5
:1020D800020E1200010E1200010E1200000E120074
:1020E800010E1200400E1200000E1200FF0E120028
:1020F8001F0E1200F80E1200200E1200000E120021
:102108003F0E1200000E1200100E1200000E1200F8
:10211800000E1200000E1200000E1200000E120037
:10212800010E1200000E1200220E1200000E120004
:10213800000E1200460E1200410E1200540E12003C
:10214800310E1200360E1200200E1200200E120060
:10215800200E1200550E1200AA0E1200000E1200D8
:1021680001C003F002C004F00450000AD8B404D03F
:10217800010AD8B48DD0F2D70350000AD8B45FD77B
:10218800010AD8B45ED7030AD8B45DD7010AD8B417
:102198005CD7070AD8B462D7010AD8B467D7030A4C
:1021A800D8B46CD7010AD8B471D70F0AD8B476D787
:1021B800010AD8B47BD7030AD8B480D7010AD8B4A7
:1021C80085D7070AD8B484D7010AD8B483D7030AB5
:1021D800D8B482D7010AD8B481D71F0AD8B480D717
:1021E800010AD8B47FD7030AD8B47ED7010AD8B475
:1021F8007DD7070AD8B47CD7010AD8B47BD7030A9D
:10220800D8B47AD7010AD8B479D70F0AD8B478D70E
:10221800010AD8B477D7030AD8B476D7010AD8B454
:1022280075D7070AD8B474D7010AD8B473D7030A84
:10223800D8B472D7010AD8B471D7370AD8B470D7CE
:10224800010AD8B46FD7050AD8B46ED7010AD8B432
:102258006DD7030AD8B46CD7010AD8B469D7190A5C
:10226800D8B468D7010AD8B467D70F0AD8B466D7E4
:10227800010AD8B465D7030AD8B464D7010AD8B418
:1022880063D7070AD8B462D7010AD8B461D766D72A
:102298000350FE0AD8B45ED7010AD8B45DD75ED71A
:1022A800200E0001F819D8A4120015D1DF51E01151
:1022B800D8B406D0DFC0D9FFE0C0DAFFDFBE120015
:1022C800000E526E1E0E526401D014D05250010DF1
:1022D800400EF324D96E0D0EF420DA6E5250010D23
:1022E800000EF324E16E010EF420E26EDFCFE7FF6B
:1022F800522AE8D7000120EE01F0DF51D926E0513B
:10230800DA221F0EDE18D8A470D0550E010100196C
:102318006CE1530E011969E1420E021966E1430EA0
:102328000319D8A462D0010E8E6F0D51D8A452D0D3
:10233800110E0E614FD00E51D8B44CD00CC14DF0D7
:102348003F0E4D16D8A446D0550E0D01806F530E82
:10235800816F420E826F530E836F04C184FD05C1E5
:1023680085FD06C186FD07C187FD000E886F000E3A
:10237800896F000E8A6F000E8B6F000E8C6F000144
:10238800EC69000EEB6F000EEA6F000EE96F030EAA
:1023980001010F19D8B408D02191219321952197D3
:1023A800000E2B6F000E2C6F0CAF02D0010E01D067
:1023B800020E0001ED6F0101085109110A110B11FC
:1023C800D8B402D0000E01D0010E0001E76F0FC192
:1023D800ECF01200010E016E020E30EC2BF0000E34
:1023E800016E020E30EC2BF01200010E016E020E8F
:1023F80030EC2BF0000E016E020E30EC2BF0000ECC
:1024080001018E6F120022EC2AF0FF0AD8A41200F4
:10241800030E0001ED6F120022EC2AF0FF0AD8A487
:1024280012000D018C51D8A408D0885189118A1145
:102438008B11D8B402D0020E8C6F030E0001ED6F21
:102448001200D5C04EF0D6C04FF04E504F10D8B441
:102458000AD0D5C050F0D6C051F050C0D9FF51C0F5
:10246800DAFFDFBE1200010E016E800E026E0D0E45
:10247800036E0D0E046E020E3BEC2DF001C0DDF074
:1024880002C0DEF00001DF51E011D8B406D0DFC091
:10249800D9FFE0C0DAFFDFBE0FD0000E016E400E9C
:1024A800026E0D0E036E400E046E020E3BEC2DF014
:1024B80001C0DFF002C0E0F0000E0001ED6F120075
:1024C800000EED6F020E0D018C6F000E016E020EF4
:1024D80030EC2BF012000001ED51000AD8B4E6D61A
:1024E800010AD8B490D7030AD8B496D7010AD8B449
:1024F800A8D7E6D70001626F6E0E306E000E316EFF
:10250800000162510AEC42F00001656F6551D8B4D0
:1025180002D06551120042508A5D43508B59445095
:102528008C5945508D59D8B002D0F00E1200465043
:1025380042244A6E475043204B6E000E44204C6E96
:10254800000E45204D6E4A508A5D4B508B594C50B9
:102558008C594D508D59D8B00ED042C04AF043C066
:102568004BF04A1E4B1E4A4A4B2A8A514A24466E51
:102578008B514B20476E88C038F089C039F042C073
:102588004AF043C04BF044C04CF045C04DF00A0E31
:1025980005D0D8904D324C324B324A32E82EF9D71A
:1025A8004AC03AF04BC03BF00AEC3EF038C063F04A
:1025B80039C064F0000E421400016A6FFE0E431425
:1025C8006B6FFF0E44146C6FFF0E45146D6F6AC07D
:1025D8004AF06BC04BF04A1E4B1E4A4A4B2A4250E7
:1025E8004A24666F43504B20676F000E6A6F000ED7
:1025F8006B6F000E6C6F000E6D6F89D0020E67193D
:102608006611D8A40FD063C030F064C031F0F6EC86
:1026180046F030C063F031C064F0000E0001676F0F
:10262800000E666F63C001F064C002F024EC4EF047
:1026380001C060F002C061F066C04AF067C04BF0AC
:102648004A1E4B1E4A4A4B2A000E4A240001686F54
:10265800020E4B20696F68514A6E69514B6E4C6A85
:102668004D6A6AC04EF06BC04FF06CC050F06DC040
:1026780051F04E1E4F1E501E511E4E2A000E4F2264
:102688005022512246504E24526E47504F20536ECE
:10269800000E5020546E000E5120556E4A50525C68
:1026A8004B5053584C5054584D505558D8B00ED0E4
:1026B8006AC04AF06BC04BF04A1E4B1E4A4A4B2A6E
:1026C80046504A24686F47504B20696F60C020F01D
:1026D80061C021F066C022F067C023F068C024F012
:1026E80069C025F06A514824266E6B514920276E2F
:1026F8007BEC42F0000168516A2769516B23000E98
:102708006C23000E6D236851662769516723465074
:102718004A6E47504B6E4C6A4D6A4A506A5D4B5040
:102728006B594C506C594D506D59D8A067D7000E55
:10273800120042C050F043C051F044C052F045C0AE
:1027480053F00A0E05D0D8905332523251325032DB
:10275800E82EF9D750C066F051C067F04EC0D9FFD7
:102768004FC0DAFFDE500001665DDE506759D8B011
:1027780002D0FF0E12004CC0D9FF4DC0DAFFDECFE9
:1027880038F0DDCF39F04EC0D9FF4FC0DAFFDECFC9
:1027980050F0DDCF51F0501E511E504A512A66515B
:1027A80050243A6E675151203B6E0AEC3EF04CC003
:1027B800D9FF4DC0DAFF38C0DEFF39C0DDFF4EC09B
:1027C800D9FF4FC0DAFF66C0DEFF67C0DDFF4CC02F
:1027D800D9FF4DC0DAFFDECF62F0DDCF63F066C00F
:1027E80050F067C051F0090ED89050365136E82E97
:1027F800FBD750C06AF051C06BF000016C6B6D6B79
:102808006AC050F06BC051F0501E511E504A512AF8
:1028180042505024646F43505120656F000E6A6F18
:10282800000E6B6F000E6C6F000E6D6F89D0020E7C
:1028380065196411D8A40FD062C030F063C031F0BC
:10284800F6EC46F030C062F031C063F0000E0001D3
:10285800656F000E646F62C001F063C002F024EC83
:102868004EF001C060F002C061F064C050F065C075
:1028780051F0501E511E504A512A000E502400019A
:10288800686F020E5120696F6851506E6951516E20
:10289800526A536A6AC054F06BC055F06CC056F067
:1028A8006DC057F0541E551E561E571E542A000E52
:1028B80055225622572246505424586E47505520C8
:1028C800596E485056205A6E495057205B6E5050EA
:1028D800585C5150595852505A5853505B58D8B0B8
:1028E8000ED06AC050F06BC051F0501E511E504AB5
:1028F800512A46505024686F47505120696F60C074
:1029080028F061C029F064C02AF065C02BF068C0C7
:102918002CF069C02DF06A514A242E6E6B514B2061
:102928002F6E00EC4BF0000168516A2769516B2348
:10293800000E6C23000E6D236851642769516523CE
:1029480046506A5D47506B5948506C5949506D590B
:10295800D8A06DD7000E1200A0C0D9FFA1C0DAFF21
:10296800820EDF6E000120EE01F0A051D926A151A0
:10297800DA22C10EDF6E20EE02F0A051D926A15155
:10298800DA22250EDF6E20EE01F09E51D9269F51E6
:10299800DA2210EE03F0A051E126A151E222DFCFA6
:1029A800E7FF20EE02F09E51D9269F51DA2210EE61
:1029B80004F0A051E126A151E222DFCFE7FF20EE8B
:1029C80003F09E51D9269F51DA2210EE05F0A0514E
:1029D800E126A151E222DFCFE7FF20EE04F09E516D
:1029E800D9269F51DA2210EE06F0A051E126A15116
:1029F800E222DFCFE7FF20EE05F09E51D9269F5156
:102A0800DA2210EE07F0A051E126A151E222DFCF31
:102A1800E7FF20EE02F09E51D9269F51DA22DF50BF
:102A2800A26FA251AE6FAF6BB06BB16BB0C0B1F01B
:102A3800AFC0B0F0AEC0AFF0AE6B20EE03F09E5169
:102A4800D9269F51DA22DF50A26FA251AE13B0C02F
:102A5800B1F0AFC0B0F0AEC0AFF0AE6B20EE04F096
:102A68009E51D9269F51DA22DF50A26FA251AE1390
:102A7800B0C0B1F0AFC0B0F0AEC0AFF0AE6B20EEFA
:102A880005F09E51D9269F51DA22DF50A26FA2513C
:102A9800AE1320EE01F09E51D9269F51DA22DF5065
:102AA800B3EC42F036C0A6F037C0A7F038C0A8F0A3
:102AB80039C0A9F0AEC0A2F0AFC0A3F0B0C0A4F076
:102AC800B1C0A5F00001A21FA31FA41FA51FA22B20
:102AD800000EA323A423A523A651A225AA6FA751BC
:102AE800A321AB6FA851A421AC6FA951A521AD6F4B
:102AF800AD51AC11AB1104E1370EAA5DD8A008D0D6
:102B0800360EAA6F000EAB6F000EAC6F000EAD6FE5
:102B180020EE08F0A051D926A151DA22AAC0DFFF81
:102B2800AEC06EF0AFC06FF0B0C070F0B1C071F061
:102B3800AAC072F0ABC073F0ACC074F0ADC075F051
:102B48000A0EA025766F000EA121776F20EE01F006
:102B58009E51D9269F51DA22DF502DEC31F0000129
:102B6800A26F20EE09F0A051D926A151DA22A2C005
:102B7800DFFF120055C0D9FF56C0DAFF500EDE182D
:102B8800D8A414D020EE06F05550D9265650DA2293
:102B98004C0EDE18D8A40AD020EE07F05550D926DE
:102BA8005650DA22EA0EDE18D8B402D0080E120007
:102BB80020EE01F05550D9265650DA22DF50000198
:102BC800886F20EE02F05550D9265650DA22DF5091
:102BD8005B6E5B50896F8A6B8B6B8C6B8BC08CF0D8
:102BE8008AC08BF089C08AF0896B20EE03F05550BB
:102BF800D9265650DA22DF505B6E5B5089138BC0A2
:102C08008CF08AC08BF089C08AF0896B20EE04F0C2
:102C18005550D9265650DA22DF505B6E5B50891327
:102C28008BC08CF08AC08BF089C08AF0896B20EE4B
:102C380005F05550D9265650DA22DF505B6E5B50AE
:102C4800891389C04DF08AC04EF08BC04FF08CC0FC
:102C580050F08851BAEC2FF00001876F59C0D9FFA6
:102C68005AC0DAFFDF50D8B485D059C0D9FF5AC04E
:102C7800DAFF3A0EDF607ED059C0D9FF5AC0DAFFBA
:102C8800DFCF5BF0010EDF265B50010DF3505724B8
:102C9800D96EF4505820DA6E500EDF6E59C0D9FF45
:102CA8005AC0DAFFDFCF5BF0010EDF265B50010D63
:102CB800F3505724D96EF4505820DA6E88C0DFFFDD
:102CC80059C0D9FF5AC0DAFFDFCF5BF0010EDF260B
:102CD8005B50010DF3505724D96EF4505820DA6E2A
:102CE8008C51DF6E59C0D9FF5AC0DAFFDFCF5BF0D5
:102CF800010EDF265B50010DF3505724D96EF450B6
:102D08005820DA6E8BC0DFFF59C0D9FF5AC0DAFFEE
:102D1800DFCF5BF0010EDF265B50010DF350572427
:102D2800D96EF4505820DA6E8A51DF6E59C0D9FF37
:102D38005AC0DAFFDFCF5BF0010EDF265B50010DD2
:102D4800F3505724D96EF4505820DA6E89C0DFFF4B
:102D580059C0D9FF5AC0DAFFDFCF5BF0010EDF267A
:102D68005B50010DF3505724D96EF4505820DA6E99
:102D780087C0DFFF080E1200000E266E000E256EBB
:102D8800020E265CD8B010D0C00E2524D96E030ED2
:102D98002620DA6E25C001F026C002F0FFEC35F0DF
:102DA800DF6E254A262AECD7000E216E000E206E13
:102DB800C00E226E030E236ECBEC46F0000E266E7C
:102DC800000E256E020E265CD8B010D0C00E252449
:102DD800D96E030E2620DA6E25C001F026C002F057
:102DE80022EC10F0DF6E254A262AECD7000E216E61
:102DF800010E206EC00E226E030E236ECBEC46F041
:102E0800000E266E000E256E020E265CD8B010D07D
:102E1800C00E2524D96E030E2620DA6E25C001F0D7
:102E280026C002F0A0EC46F0DF6E254A262AECD731
:102E3800000E216E020E206EC00E226E030E236E4F
:102E4800CBEC46F0000E266E000E256E020E265CB8
:102E5800D8B00BD0C00E2524D96E030E2620DA6E0A
:102E6800000EDF6E254A262AF1D7000E266E030EC5
:102E7800256E265011E1220E255CD8B00DD025C054
:102E880020F026C021F0C00E226E030E236ECBEC7C
:102E980046F0254A262AEDD7000E266E000E256E2E
:102EA800020E265CD8B010D0C00E2524D96E030EB1
:102EB8002620DA6E25C001F026C002F049EC1DF08C
:102EC800DF6E254A262AECD7000E216E220E206ED0
:102ED800C00E226E030E236ECBEC46F0000E266E5B
:102EE800000E256E020E265CD8B00BD0C00E25242D
:102EF800D96E030E2620DA6E000EDF6E254A262ACA
:102F0800F1D7000E266E230E256E265011E1260EEF
:102F1800255CD8B00DD025C020F026C021F0C00E09
:102F2800226E030E236ECBEC46F0254A262AEDD7F7
:102F3800000E266E000E256E020E265CD8B010D04C
:102F4800C00E2524D96E030E2620DA6E25C001F0A6
:102F580026C002F026EC4CF0DF6E254A262AECD774
:102F6800000E216E260E206EC00E226E030E236EFA
:102F7800CBEC46F0000E1200000E256E17D025503F
:102F8800010DE80EF324F66EBD0EF420F76EF86A14
:102F9800000EF8222550010D000EF324D96E020E02
:102FA800F420DA6E0800F5CFDFFF252A2550010D41
:102FB800E80EF324F66EBD0EF420F76EF86A000EE4
:102FC800F8220800F5500009D8A4D9D7000E256EBC
:102FD80017D02550010D600EF324F66EBE0EF420B6
:102FE800F76EF86A000EF8222550010D140EF3242E
:102FF800D96E020EF420DA6E0800F5CFDFFF252A1D
:103008002550010D600EF324F66EBE0EF420F76E07
:10301800F86A000EF8220800F5500009D8A4D9D79C
:10302800000E1F6E000E206E000E216E000E226E26
:103038002550010D140EF324236E020EF420246E85
:1030480015EC06F025262550010D140EF324D96E33
:10305800020EF420DA6E2E0EDF6E252A040E1F6E85
:10306800000E206E000E216E000E226E2550010DFE
:10307800140EF324236E020EF420246E15EC06F0D1
:1030880025262550010D140EF324D96E020EF420C6
:10309800DA6E2E0EDF6E252A000E1F6E000E206ED1
:1030A800000E216E000E226E2550010D140EF32421
:1030B800236E020EF420246E15EC06F02526000E71
:1030C800256E17D02550010DA60EF324F66EBE0E00
:1030D800F420F76EF86A000EF8222550010D280E2C
:1030E800F324D96E020EF420DA6E0800F5CFDFFF64
:1030F800252A2550010DA60EF324F66EBE0EF420E7
:10310800F76EF86A000EF8220800F5500009D8A4F6
:10311800D9D7000E256E17D02550010D160EF324B1
:10312800F66EBE0EF420F76EF86A000EF8222550EF
:10313800010D3C0EF324D96E020EF420DA6E08005D
:10314800F5CFDFFF252A2550010D160EF324F66E64
:10315800BE0EF420F76EF86A000EF8220800F5504B
:103168000009D8B41200D8D705C0D9FF06C0DAFFC5
:10317800130EDF6E20EE01F00550D9260650DA2234
:10318800C10EDF6E20EE02F00550D9260650DA2275
:10319800250EDF6EF4EC4DF001C00CF002C00DF00E
:1031A80003C00EF004C00FF020EE03F00550D9263E
:1031B8000650DA220F50DF6E20EE04F00550D926B3
:1031C8000650DA220EC0DFFF20EE05F00550D926A2
:1031D8000650DA220D50DF6E20EE06F00550D92693
:1031E8000650DA220CC0DFFF5EEC4EF001C010F092
:1031F80002C011F020EE07F00550D9260650DA2259
:103208001150DF6E20EE08F00550D9260650DA225C
:1032180010C0DFFF68EC4EF001C010F002C011F0E2
:1032280020EE09F00550D9260650DA221150DF6E3B
:1032380020EE0AF00550D9260650DA2210C0DFFF2A
:1032480020EE0BF00550D9260650DA2292EC4EF00B
:10325800DF6E63EC4EF001C010F002C011F020EEFA
:103268000CF00550D9260650DA221150DF6E20EEF8
:103278000DF00550D9260650DA2210C0DFFF54ECB5
:103288004EF001C010F002C011F020EE0EF0055013
:10329800D9260650DA221150DF6E20EE0FF00550C5
:1032A800D9260650DA2210C0DFFF59EC4EF001C0D3
:1032B80010F002C011F020EE10F00550D92606508B
:1032C800DA221150DF6E20EE11F00550D926065093
:1032D800DA2210C0DFFF20EE12F00550D926065082
:1032E800DA2286EC4EF0DF6E20EE13F00550D92678
:1032F8000650DA228CEC4EF0DF6E20EE14F005500A
:10330800D9260650DA2289EC4EF0DF6E54EC4EF0E6
:1033180001500A6E2B0E0A6402D02B0E0A6E000EA4
:103328000B6E14D00B50CCEC4DF0076E0B50086EA2
:10333800096A150E0826000E092208500524D96EC0
:1033480009500620DA6E07C0DFFF0B2A0A500B5C13
:10335800D8B01200E7D7000E286E17D02850010DFC
:10336800C80EF324F66EBD0EF420F76EF86A000E50
:10337800F8222850010D000EF324D96E020EF42015
:10338800DA6E0800F5CFDFFF282A2850010DC80E95
:10339800F324F66EBD0EF420F76EF86A000EF822DC
:1033A8000800F5500009D8A4D9D7000E286E17D008
:1033B8002850010DBD0EF324F66EBC0EF420F76EF6
:1033C800F86A000EF8222850010D140EF324D96E65
:1033D800020EF420DA6E0800F5CFDFFF282A285005
:1033E800010DBD0EF324F66EBC0EF420F76EF86ADC
:1033F800000EF8220800F5500009D8A4D9D7000E0D
:10340800286E17D02850010D960EF324F66EBE0EC6
:10341800F420F76EF86A000EF8222850010D280EE5
:10342800F324D96E020EF420DA6E0800F5CFDFFF20
:10343800282A2850010D960EF324F66EBE0EF420AD
:10344800F76EF86A000EF8220800F5500009D8A4B3
:10345800D9D728C027F0F4EC4DF001C01FF002C006
:1034680020F003C021F004C022F02850010D280EDE
:10347800F324236E020EF420246E15EC06F02726A2
:10348800000E286E1CD02850010D8F0EF324F66E06
:10349800BE0EF420F76EF86A000EF822285027C0F6
:1034A80025F0266A2526000E2622280E2524D96E08
:1034B800020E2620DA6E0800F5CFDFFF282A2850F2
:1034C800010D8F0EF324F66EBE0EF420F76EF86A27
:1034D800000EF8220800F5500009D8A4D4D7000E31
:1034E800286E17D02850010DF40EF324F66EBC0E8A
:1034F800F420F76EF86A000EF8222850010D3C0EF1
:10350800F324D96E020EF420DA6E0800F5CFDFFF3F
:10351800282A2850010DF40EF324F66EBC0EF42070
:10352800F76EF86A000EF8220800F5500009D8B4C2
:103538001200D8D7D7D011C161F112C160F113C1FF
:103548005FF114C15EF116C1DCF017C1DBF0DB518D
:10355800366EDC51376E386A396A090ED8903636BD
:10356800373638363936E82EF9D736C00BF037C03B
:103578000CF038C00DF039C00EF0F7EC32F000094D
:10358800D8A4C2D0010E0001EB6FDB51DC11D8A426
:1035980002D0000E46D0DB07D8A0DC07020EEB6F86
:1035A800DD51DE11D8B406D0DDC0D9FFDEC0DAFFA8
:1035B800DFBEAAD0C1C12CF0C2C12DF05EC12EF071
:1035C8005FC12FF060C130F061C131F0000E326E82
:1035D800060E336E01D80AD00500FA6E0101BB5100
:1035E800FD6EBC51FE6EFF6AFA501200E806D8B4B0
:1035F8001AD0640E0001E96102D0E92B85D0020ED1
:103608000D018C6F01012151F00B0309216F000E90
:103618002B6F000E2C6F010E016E020E30EC2BF09A
:103628005ED0EB6F71D0010E01015E27000E5F23A3
:1036380060236123000E0D01886F020E896F000E52
:103648008A6F000E8B6F000E0101866F060E876F62
:10365800030E0001EB6F0D01885189118A118B113E
:10366800D8A402D0010E3CD0040E0001EB6FDD514E
:10367800DE11D8B406D0DDC0D9FFDEC0DAFFDFBE68
:1036880043D0010E016E86C102F087C103F0400EDF
:10369800046E020E3BEC2DF001C0DDF002C0DEF03E
:1036A800030E0001EB6F400E0101085F000E095B7D
:1036B8000A5B0B5B400E0D01885F000E895B8A5B1D
:1036C8008B5B400E01018627000E87231DD0020E5A
:1036D8000D018C6F010E016E020E30EC2BF0000E06
:1036E80000019FD70001EB51000AD8B424D7010A82
:1036F800D8B44BD7030AD8B453D7010AD8B4ABD738
:10370800070AD8B4B4D7E3D70001EB511200000E72
:103718001F6E17D01F50010D880EF324F66EBD0ED4
:10372800F420F76EF86A000EF8221F50010D000E03
:10373800F324D96E020EF420DA6E0800F5CFDFFF0D
:103748001F2A1F50010D880EF324F66EBD0EF420BB
:10375800F76EF86A000EF8220800F5500009D8A4A0
:10376800D9D7000E1F6E17D01F50010DD00EF324AD
:10377800F66EBC0EF420F76EF86A000EF8221F50A1
:10378800010D140EF324D96E020EF420DA6E08002F
:10379800F5CFDFFF1F2A1F50010DD00EF324F66E60
:1037A800BC0EF420F76EF86A000EF8220800F550F7
:1037B8000009D8A4D9D7000E1F6E17D01F50010DCD
:1037C800810EF324F66EBE0EF420F76EF86A000E32
:1037D800F8221F50010D280EF324D96E020EF42092
:1037E800DA6E0800F5CFDFFF1F2A1F50010D810E8A
:1037F800F324F66EBE0EF420F76EF86A000EF82277
:103808000800F5500009D8A4D9D75EEC4EF001C0E5
:1038180019F002C01AF01B6A1C6A1F50010D280E0D
:10382800F3241D6E020EF4201E6EF5EC37F01F26F1
:103838001F50010D280EF324D96E020EF420DA6E03
:103848002F0EDF6E1F2A68EC4EF001C019F002C07F
:103858001AF01B6A1C6A1F50010D280EF3241D6EF6
:10386800020EF4201E6EF5EC37F0000E1F6E17D016
:103878001F50010D780EF324F66EBD0EF420F76E7E
:10388800F86A000EF8221F50010D3C0EF324D96E81
:10389800020EF420DA6E0800F5CFDFFF1F2A1F5052
:1038A800010D780EF324F66EBD0EF420F76EF86A5B
:1038B800000EF8220800F5500009D8A4D9D763EC07
:1038C8004EF001C019F002C01AF01B6A1C6A1F50A2
:1038D800010D3C0EF3241D6E020EF4201E6EF5EC55
:1038E80037F01200410E0001A36FA7D09DC055F01C
:1038F8009EC056F09FC057F0A0C058F0A1C059F024
:10390800A2C05AF0BEEC15F095D09DC050F09EC0F4
:1039180051F09FC052F0A0C053F0A1C054F0A2C013
:1039280055F0D9EC33F086D09DC059F09EC05AF0BE
:103938009FC05BF0A0C05CF0A1C05DF0A2C05EF0CB
:10394800D9EC23F077D09DC060F09EC061F09FC095
:1039580062F0A0C063F0A1C064F0A2C065F0BCEC46
:103968002EF068D09DC05AF09EC05BF09FC05CF0FE
:10397800A0C05DF0A1C05EF0A2C05FF077EC22F0BD
:1039880059D09DC056F09EC057F09FC058F0A0C0B7
:1039980059F0A1C05AF0A2C05BF0E6EC0EF04AD094
:1039A8009DC027F09EC028F09FC029F0A0C02AF033
:1039B800A1C02BF0A2C02CF030EC3BF03BD09DC056
:1039C80054F09EC055F09FC056F0A0C057F0A1C05B
:1039D80058F0A2C059F0C1EC21F02CD09DC052F093
:1039E8009EC053F09FC054F0A0C055F0A1C056F03F
:1039F800A2C057F029EC23F01DD09DC02BF09EC02B
:103A08002CF09FC02DF0A0C02EF0A1C02FF0A2C0B6
:103A180030F0D6EC25F00ED09DC094F09EC095F005
:103A28009FC096F0A0C097F0A1C098F0A2C099F0EE
:103A38003BEC2FF00001A36F26D09DC0D9FF9EC09C
:103A4800DAFFDF50500AD8B451D7010AD8B45DD78D
:103A5800030AD8B469D7010AD8B475D7070AD8B405
:103A680081D7010AD8B48DD7030AD8B499D7010AE7
:103A7800D8B4A5D70F0AD8B4B1D7010AD8B4BDD7DE
:103A8800030AD8B4C9D7A351120002501DE1200E71
:103A9800015CD8B019D0025010E10B0E015CD8B00F
:103AA8000CD0DC0E0124F66EBF0E0220F76EF86A09
:103AB800000EF8220800F55012000B0E0118021033
:103AC800D8A402D0080E1200025003E1400E015C97
:103AD800D8B0A4D0200E015E000E025A025010E1A8
:103AE800080E015CD8B00CD0E80E0124F66EBF0EAB
:103AF8000220F76EF86A000EF8220800F55012004E
:103B0800025046E10B0E015CD8B042D0F80E036EAD
:103B1800FF0E046E01C005F002C006F00350052632
:103B280004500622FA0E0524F66EBF0E0620F76E24
:103B3800F86A000EF8220800F5501200200E120054
:103B4800060E1200280E1200780E1200DE0E120069
:103B5800380E12005F0E12004B0E1200000E1200FB
:103B6800000E1200040E1200770E1200DE0E120074
:103B7800380E1200020E1200000E12000C0E120077
:103B8800000E1200000E1200000E1200000E1200AD
:103B980001C003F002C004F00450000AD8A4F6D70C
:103BA80003500B0AD8B4CAD7060AD8B4C9D7030A2F
:103BB800D8B4C8D7010AD8B4C7D71F0AD8B4C6D74B
:103BC800010AD8B4C5D7030AD8B4C4D7010AD8B4EF
:103BD800C3D7070AD8B4C2D7010AD8B4C1D7030AD1
:103BE800D8B4C0D7010AD8B4BFD70F0AD8B4BED743
:103BF800010AD8B4BDD7030AD8B4BCD7010AD8B4CF
:103C0800BBD7070AD8B4BAD7010AD8B4B9D7030AB8
:103C1800D8B4B8D7010AD8B4B7D7B8D7000E1200AD
:103C28000001F851D8A412D0000E656E000E0F01E5
:103C3800366F160E396F9F0E376F7B0E366F01D0B9
:103C4800658665A6FDD7010E0001F86FF805D8B4A2
:103C580065BA0AD0000E626E000E0F01366F36810B
:103C68003689020E0001F86F62A406D00F0136A54E
:103C780003D0629430EC4AF065A202D0A1981200F9
:103C880062A009D00F0136A106D07FEC26F0040E01
:103C98000001F86F629062A804D00F0136B932ECC7
:103CA8004BF062AC1CD00F0136AD0ED0000E116E79
:103CB800730E106E000E126E000E136E000E156E4F
:103CC800010E146E5AEC40F0629C12EC4DF00001AB
:103CD800F351D8A4F307F351D8B466EC36F062AACE
:103CE80004D00F0136BBF4EC48F062A212D00F01E9
:103CF80036A30FD07F0E116E1068000E126E000EE4
:103D0800136E000E156E010E146E5AEC40F0000E84
:103D1800636E040E0001F86102D0A19812000F0131
:103D280036A73CD0000E206E030E206401D036D09A
:103D380062A634D064CFFDF00001FD31E832E832EC
:103D48000F0BF46F6296FDB507D0F451010D6C0EA0
:103D5800F324D96E010E07D00001F451010D6F0E46
:103D6800F324D96E010EF420DA6E0101DF70000130
:103D7800F451D8A403D085EC3AF00ED0000E116EA1
:103D8800720E106EFD0E126E000E136E000E156E82
:103D9800000E146E5AEC40F0202AC6D7A1981200E3
:103DA800000E226E17D02250010DA80EF324F66ED5
:103DB800BD0EF420F76EF86A000EF8222250010DAD
:103DC800000EF324D96E020EF420DA6E0800F5CF47
:103DD800DFFF222A2250010DA80EF324F66EBD0E35
:103DE800F420F76EF86A000EF8220800F550000972
:103DF800D8A4D9D7000E226E17D02250010D6D0E0F
:103E0800F324F66EBC0EF420F76EF86A000EF82262
:103E18002250010D140EF324D96E020EF420DA6E2E
:103E28000800F5CFDFFF222A2250010D6D0EF32482
:103E3800F66EBC0EF420F76EF86A000EF822080041
:103E4800F5500009D8A4D9D768EC4EF001C019F094
:103E580002C01AF01B6A1C6A280E1D6E020E1E6E26
:103E6800F5EC37F0216E212A000E226E1CD022506C
:103E7800010D710EF324F66EBE0EF420F76EF86A8B
:103E8800000EF822225021C01FF0206A1F26000EC3
:103E98002022280E1F24D96E020E2020DA6E080078
:103EA800F5CFDFFF222A2250010D710EF324F66EA2
:103EB800BE0EF420F76EF86A000EF8220800F550DE
:103EC8000009D8A4D4D7000E226E17D02250010DB5
:103ED800060EF324F66EBD0EF420F76EF86A000E97
:103EE800F8222250010D3C0EF324D96E020EF42064
:103EF800DA6E0800F5CFDFFF222A2250010D060EE8
:103F0800F324F66EBD0EF420F76EF86A000EF82260
:103F18000800F5500009D8B41200D8D7040036ECD0
:103F28004EF001C0C1F002C0C2F031EC4EF001C049
:103F3800C3F002C0C4F0C3C0BDF0C4C0BEF0B6EC4C
:103F48004DF0E5EC44F00009D8B404D005EC4EF08F
:103F580083EC4EF014EC45F0000E4CEC47F07FEC8F
:103F680026F0040014EC1EF0E1EC4DF02CEC3AF0D5
:103F780067EC4AF083A43DD06ACFBFF00001C06B64
:103F8800BF51C06FBF6B6B50BF13BF07D8A0C0072E
:103F980031EC4EF001500001BF5F0250C05BBF51D1
:103FA800C011D8B426D08890C1C0B2F0C2C0B3F056
:103FB800C3C0B4F0C4C0B5F00AEC21F0C1C0A4F08D
:103FC800C2C0A5F0BFC0A6F0C3C0A7F0C4C0A8F087
:103FD80001EC29F00001C4516A6EC3C06BFFC251E5
:103FE800686EC1C069FF000E666E3F0E676EA49EC4
:103FF80088800001C851D8A4B4D7B4EC2BF025D0E0
:10400800000E55EC43F043D0010E55EC43F03FD081
:10401800020E55EC43F03BD0030E55EC43F037D07D
:10402800040E55EC43F033D0050E55EC43F02FD079
:104038000001CA51B9EC34F02AD08FEC4EF0050AD1
:10404800D8A425D020EC43F022D00001C751070B9B
:10405800BB6FBC6BBC51000AD8A419D0BB51000A75
:10406800D8B4CED7010AD8B4CFD7030AD8B4D0D79A
:10407800010AD8B4D1D7070AD8B4D2D7010AD8B41C
:10408800D3D7030AD8B4D4D7010AD8B4D6D7010EE7
:104098000001C86F66D7000E1F6E17D01F50010DA4
:1040A800680EF324F66EBD0EF420F76EF86A000E63
:1040B800F8221F50010D000EF324D96E020EF420D1
:1040C800DA6E0800F5CFDFFF1F2A1F50010D680EBA
:1040D800F324F66EBD0EF420F76EF86A000EF8228F
:1040E8000800F5500009D8A4D9D7000E1F6E17D0C4
:1040F8001F50010D9D0EF324F66EBE0EF420F76ED0
:10410800F86A000EF8221F50010D140EF324D96E20
:10411800020EF420DA6E0800F5CFDFFF1F2A1F50C9
:10412800010D9D0EF324F66EBE0EF420F76EF86AAC
:10413800000EF8220800F5500009D8A4D9D7000EBF
:104148001F6E17D01F50010D580EF324F66EBD0ECA
:10415800F420F76EF86A000EF8221F50010D280EA1
:10416800F324D96E020EF420DA6E0800F5CFDFFFD3
:104178001F2A1F50010D580EF324F66EBD0EF420B1
:10418800F76EF86A000EF8220800F5500009D8A466
:10419800D9D763EC4EF001C019F002C01AF01B6ABF
:1041A8001C6A1F50010D280EF3241D6E020EF42008
:1041B8001E6EF5EC37F0000E1F6E17D01F50010D64
:1041C800480EF324F66EBD0EF420F76EF86A000E62
:1041D800F8221F50010D3C0EF324D96E020EF42074
:1041E800DA6E0800F5CFDFFF1F2A1F50010D480EB9
:1041F800F324F66EBD0EF420F76EF86A000EF8226E
:104208000800F5500009D8B41200D8D7B2C0D9FFB9
:10421800B3C0DAFFDF500001B66F7F0EB66596D0E7
:104228003CD0B2C038F0B3C039F0B4C03AF0B5C031
:104238003BF0D1EC41F01200B2C037F0B3C038F017
:10424800B4C039F0B5C03AF07BEC3CF01200B2C013
:104258009EF0B3C09FF0B4C0A0F0B5C0A1F0B0EC20
:1042680014F01200B2C02BF0B3C02CF0B4C02DF083
:10427800B5C02EF039EC30F01200B4C0D9FFB5C08B
:10428800DAFF990EDF6E000120EE01F0B451D92655
:10429800B551DA22990EDF6E1200B651800AD8B4F1
:1042A800C0D7010AD8B4C8D7030AD8B4D0D7010AEE
:1042B800D8B4D8D7E2D7B4C015F0B5C016F068ECBA
:1042C80033F01200B4C005F0B5C006F0000E076E5A
:1042D800D2EC39F01200B4C005F0B5C006F0010EFA
:1042E800076ED2EC39F01200B4C005F0B5C006F084
:1042F800B8EC18F01200B4C001F0B5C002F06CECD4
:104308003DF01200B4C001F0B5C002F0B2C003F035
:10431800B3C004F003500410D8A4200E056E000E9C
:10432800076E400E066EEFEC43F01200B4C0D9FFE2
:10433800B5C0DAFF990EDF6E000120EE01F0B4512E
:10434800D926B551DA22990EDF6E1200B651000A4D
:10435800D8B41200100AD8B4AED7010AD8B4B2D76C
:10436800030AD8B4B8D7010AD8B4BED7070AD8B454
:10437800C2D7340AD8B4C6D7D9D754C0D9FF55C084
:10438800DAFF570EDE18D8A414D020EE04F05450EB
:10439800D9265550DA221B0EDE18D8A40AD020EEF2
:1043A80005F05450D9265550DA22350EDE18D8B407
:1043B80002D0060E120020EE01F05450D9265550B6
:1043C800DA22DF505B6E20EE02F05450D9265550A9
:1043D800DA22DF505A6E5A505D6E5E6A5D505E6E2C
:1043E8005D6A20EE03F05450D9265550DA22DF508A
:1043F8005A6E5A505D125DC043F05EC044F020EE24
:1044080001F05450D9265550DA22DF5076EC39F0B5
:104418005C6E58C0D9FF59C0DAFFDF50D8B461D0FC
:1044280058C0D9FF59C0DAFF3C0EDF605AD058C0D7
:10443800D9FF59C0DAFFDFCF5AF0010EDF265A50F4
:10444800010DF3505624D96EF4505720DA6E570EEA
:10445800DF6E58C0D9FF59C0DAFFDFCF5AF0010E1E
:10446800DF265A50010DF3505624D96EF4505720C8
:10447800DA6E5BC0DFFF58C0D9FF59C0DAFFDFCF63
:104488005AF0010EDF265A50010DF3505624D96E0A
:10449800F4505720DA6E5E50DF6E58C0D9FF59C00D
:1044A800DAFFDFCF5AF0010EDF265A50010DF35024
:1044B8005624D96EF4505720DA6E5DC0DFFF58C01D
:1044C800D9FF59C0DAFFDFCF5AF0010EDF265A5064
:1044D800010DF3505624D96EF4505720DA6E5CC0A3
:1044E800DFFF060E12005AC0D9FF5BC0DAFF540E78
:1044F800DE18D8A414D020EE03F05A50D9265B5009
:10450800DA22FE0EDE18D8A40AD020EE04F05A50A3
:10451800D9265B50DA224B0EDE18D8B402D0410EF1
:10452800120020EE01F05A50D9265B50DA22DF50F3
:1045380000019A6F20EE02F05A50D9265B50DA2219
:10454800DF50986F98519B6F9C6B9BC056F09CC036
:1045580057F0050E5A24586E000E5B20596E9A517A
:10456800CCEC3CF00001996F5EC0D9FF5FC0DAFF68
:10457800DF50D8B461D05EC0D9FF5FC0DAFF3C0E0F
:10458800DF605AD05EC0D9FF5FC0DAFFDFCF98F096
:10459800010EDF269851010DF3505C24D96EF450BA
:1045A8005D20DA6E540EDF6E5EC0D9FF5FC0DAFFA1
:1045B800DFCF98F0010EDF269851010DF3505C24EF
:1045C800D96EF4505D20DA6E9AC0DFFF5EC0D9FF65
:1045D8005FC0DAFFDFCF98F0010EDF269851010D9A
:1045E800F3505C24D96EF4505D20DA6E9C51DF6E76
:1045F8005EC0D9FF5FC0DAFFDFCF98F0010EDF267B
:104608009851010DF3505C24D96EF4505D20DA6E98
:104618009BC0DFFF5EC0D9FF5FC0DAFFDFCF98F035
:10462800010EDF269851010DF3505C24D96EF45029
:104638005D20DA6E99C0DFFF20EE02F05A50D926CD
:104648005B50DA22DF50050F120052C0D9FF53C069
:10465800DAFF580EDE18D8A414D020EE04F0525019
:10466800D9265350DA226A0EDE18D8A40AD020EED2
:1046780005F05250D9265350DA226D0EDE18D8B400
:1046880002D0060E120020EE01F05250D9265350E7
:10469800DA22DF505A6E20EE02F05250D9265350DB
:1046A800DA22DF50586E58505B6E5C6A5B505C6E65
:1046B8005B6A20EE03F05250D9265350DA22DF50BD
:1046C800586E58505B125BC043F05CC044F05A50BF
:1046D800DEEC40F0596E56C0D9FF57C0DAFFDF5004
:1046E800D8B461D056C0D9FF57C0DAFF3C0EDF609E
:1046F8005AD056C0D9FF57C0DAFFDFCF58F0010EA5
:10470800DF265850010DF3505424D96EF45055202B
:10471800DA6E580EDF6E56C0D9FF57C0DAFFDFCF0A
:1047280058F0010EDF265850010DF3505424D96E6D
:10473800F4505520DA6E5AC0DFFF56C0D9FF57C073
:10474800DAFFDFCF58F0010EDF265850010DF35085
:104758005424D96EF4505520DA6E5C50DF6E56C082
:10476800D9FF57C0DAFFDFCF58F0010EDF265850C7
:10477800010DF3505424D96EF4505520DA6E5BC005
:10478800DFFF56C0D9FF57C0DAFFDFCF58F0010E60
:10479800DF265850010DF3505424D96EF45055209B
:1047A800DA6E59C0DFFF060E120059C0D9FF5AC091
:1047B800DAFF520EDE18D8A414D020EE10F05950AB
:1047C800D9265A50DA22BD0EDE18D8A40AD020EE17
:1047D80011F05950D9265A50DA224F0EDE18D8B4A3
:1047E80002D0120E120020EE0CF05950D9265A5061
:1047F800DA22DF505F6E5F500001866F876B886B2F
:10480800896B88C089F087C088F086C087F0866B7E
:1048180020EE0DF05950D9265A50DA22DF505F6E3B
:104828005F50861388C089F087C088F086C087F0FB
:10483800866B20EE0EF05950D9265A50DA22DF50F6
:104848005F6E5F50861388C089F087C088F086C085
:1048580087F0866B20EE0FF05950D9265A50DA228D
:10486800DF505F6E5F508613010E59244D6E000EA7
:104878005A204E6E090E59244F6E000E5A20506E63
:1048880086C051F087C052F088C053F089C054F0F8
:1048980027EC27F00001856F5DC0D9FF5EC0DAFF05
:1048A800DF50D8B42BD05DC0D9FF5EC0DAFF3F0E11
:1048B800DF6024D05DC0D9FF5EC0DAFFDFCF5FF0D4
:1048C800010EDF265F50010DF3505B24D96EF450C2
:1048D8005C20DA6E520EDF6E5DC0D9FF5EC0DAFF73
:1048E800DFCF5FF0010EDF265F50010DF3505B2430
:1048F800D96EF4505C20DA6E85C0DFFF120E12000C
:10490800000E016E17D00150010D380EF324F66E1B
:10491800BD0EF420F76EF86A000EF8220150010D62
:10492800000EF324D96E020EF420DA6E0800F5CFDB
:10493800DFFF012A0150010D380EF324F66EBD0E7B
:10494800F420F76EF86A000EF8220800F550000906
:10495800D8A4D9D7000E016E17D00150010D4D0E05
:10496800F324F66EBE0EF420F76EF86A000EF822F5
:104978000150010D140EF324D96E020EF420DA6EE4
:104988000800F5CFDFFF012A0150010D4D0EF32479
:10499800F66EBE0EF420F76EF86A000EF8220800D4
:1049A800F5500009D8A4D9D7000E016E17D00150D0
:1049B800010DA50EF324F66EBE0EF420F76EF86A0C
:1049C800000EF8220150010D280EF324D96E020EB4
:1049D800F420DA6E0800F5CFDFFF012A0150010D3F
:1049E800A50EF324F66EBE0EF420F76EF86A000EDC
:1049F800F8220800F5500009D8A4D9D7000E016E96
:104A080017D00150010D280EF324F66EBD0EF420C8
:104A1800F76EF86A000EF8220150010D3C0EF324DF
:104A2800D96E020EF420DA6E0800F5CFDFFF012AF6
:104A38000150010D280EF324F66EBD0EF420F76E1A
:104A4800F86A000EF8220800F5500009D8B41200E0
:104A5800D8D7000E016E17D00150010DD80EF324DF
:104A6800F66EBD0EF420F76EF86A000EF8220150BB
:104A7800010D000EF324D96E020EF420DA6E080040
:104A8800F5CFDFFF012A0150010DD80EF324F66E91
:104A9800BD0EF420F76EF86A000EF8220800F550F3
:104AA8000009D8A4D9D7000E016E17D00150010D06
:104AB800170EF324F66EBD0EF420F76EF86A000E9A
:104AC800F8220150010D140EF324D96E020EF420C1
:104AD800DA6E0800F5CFDFFF012A0150010D170E2D
:104AE800F324F66EBD0EF420F76EF86A000EF82275
:104AF8000800F5500009D8A4D9D7000E016E17D0C8
:104B08000150010D960EF324F66EBC0EF420F76EDC
:104B1800F86A000EF8220150010D280EF324D96E10
:104B2800020EF420DA6E0800F5CFDFFF012A0150EB
:104B3800010D960EF324F66EBC0EF420F76EF86A9B
:104B4800000EF8220800F5500009D8A4D9D7000EA5
:104B5800016E17D00150010D570EF324F66EBE0EEC
:104B6800F420F76EF86A000EF8220150010D3C0E91
:104B7800F324D96E020EF420DA6E0800F5CFDFFFB9
:104B8800012A0150010D570EF324F66EBE0EF420D3
:104B9800F76EF86A000EF8220800F5500009D8B43C
:104BA8001200D8D72BC0D9FF2CC0DAFF590EDE1857
:104BB800D8A414D020EE04F02B50D9262C50DA2299
:104BC800E20EDE18D8A40AD020EE05F02B50D92624
:104BD8002C50DA22300EDE18D8B402D0410E120062
:104BE80020EE01F02B50D9262C50DA22DF50316EFE
:104BF800315034123450356E346A20EE02F02B50A6
:104C0800D9262C50DA22DF50316E3150341220EE82
:104C180003F02B50D9262C50DA22DF50316E315058
:104C2800326E336A34C025F035C026F032C027F022
:104C380033C028F0060E2B24296E000E2C202A6E75
:104C480031EC4DF02FC0D9FF30C0DAFFDF50D8B4B7
:104C58004FD02FC0D9FF30C0DAFF3D0EDF6048D0FB
:104C68002FC0D9FF30C0DAFFDFCF31F0010EDF26C9
:104C78003150010DF3502D24D96EF4502E20DA6EE8
:104C8800590EDF6E2FC0D9FF30C0DAFFDFCF31F009
:104C9800010EDF263150010DF3502D24D96EF4504A
:104CA8002E20DA6E3550DF6E2FC0D9FF30C0DAFF04
:104CB800DFCF31F0010EDF263150010DF3502D24E6
:104CC800D96EF4502E20DA6E34C0DFFF2FC0D9FF22
:104CD80030C0DAFFDFCF31F0010EDF263150010D91
:104CE800F3502D24D96EF4502E20DA6E32C0DFFF37
:104CF8003250060F1200A098000E636E000E626E0E
:104D0800000E0F01266F270E016E0F0E026E000EA9
:104D1800046E000E036E000E066E020E056EBBECEE
:104D28004BF0160E0F01396F9F0E376F7B0E366FE3
:104D3800000E096E0B0E096401D00ED00950040D47
:104D4800000EF324D96E0D0EF420DA6EDE6ADE6AE8
:104D5800DE6ADD6A092AEED7658C000E0F01386F0E
:104D68006598659C6296000E0001CE6F000E0101E9
:104D7800346F000E366F000E356F62B6F3D7010E32
:104D88000001F16F010EF06F000EEF6F000EEE6F75
:104D9800000E0101926F000E096E020E096401D027
:104DA8002ED00950020DD10EF324D96E000EF42036
:104DB800DA6E000EDE6E000EDD6E0950020D400E3A
:104DC800F324D96E010EF420DA6E000EDE6E000EAA
:104DD800DD6E0950010D6F0EF324D96E010EF4201B
:104DE800DA6E000EDF6E0950010D6C0EF324D96ED9
:104DF800010EF420DA6E000EDF6E092ACED7080EF7
:104E08000001D16F0D0ED26F160E0F01266F0D0E19
:104E18000D01036F300E026F080E016F040E006F54
:104E2800008F000E0001FE6F000E0101626F000E80
:104E3800636F000E646F000E656F000E906F000EBA
:104E48000001F86F12004DC02CF04EC02DF04FC07D
:104E58002EF050C02FF049EC34F0FF0AD8B402D03D
:104E6800FF0E1200BDEC4CF00001646F6429D8A459
:104E780002D0FE0E1200FF0E5124556E010E522074
:104E8800566E000E5320576E000E5420586E0A0EB0
:104E980005D0D8905832573256325532E82EF9D7C5
:104EA80055C060F056C061F0000E376E000E366EC9
:104EB80060C038F061C039F0E9EC0AF036C062F041
:104EC80037C063F00001622905E16329D8A402D044
:104ED800FD0E1200650E016E000E026E4DC003F04D
:104EE8004EC004F003500410D8A4200E056E000E26
:104EF800076E080E066EEFEC43F06D0E016E000EA5
:104F0800026E4FC003F050C004F003500410D8A440
:104F1800200E056E000E076E030E066EEFEC43F0D2
:104F2800000E0001706F000E716F000E726F6DEC55
:104F38004EF001C073F002C074F072EC4EF001C084
:104F480075F002C076F075C077F076C078F0000E84
:104F580000017A6F000E796F73C07BF074C07CF02B
:104F680075C07DF076C07EF062C07FF063C080F0CF
:104F780051C081F052C082F053C083F054C084F015
:104F8800650E296E000E2A6E645116EC49F0000178
:104F980064511200800E0D013019D8A41200C00E01
:104FA8000001CE6F88D0A40E0001CB6FBF0ECC6F6E
:104FB800000ED06F120ECF6F12000D013251D8A41F
:104FC80043D03251020DA30EF324F66EBE0EF42028
:104FD800F76EF86A000EF8220900F5CFCBF00A0048
:104FE800F5CFCCF0020E0001CB25016E000ECC21CE
:104FF800026E01C0F6FF02C0F7FFF86A0E0EF764F2
:1050080003D00800F55005D0F6CFE9FFF7CFEAFF47
:10501800EF500001CF6F030ECB25016E000ECC219F
:10502800026E01C0F6FF02C0F7FFF86A0E0EF764C1
:1050380003D00800F55005D0F6CFE9FFF7CFEAFF17
:10504800EF500001D06F1200000E0001CE6F120069
:10505800040E0D01326127D03251020D790EF3246E
:10506800F66EBE0EF420F76EF86A000EF8220900FC
:10507800F5CFCBF00A00F5CFCCF0CBC0F6FFCCC013
:10508800F7FFF86A0E0EF76403D00800F55005D054
:10509800F6CFE9FFF7CFEAFFEF50016E01500001AC
:1050A800CF6FD06B1200000E0001CE6F1200000E01
:1050B8000001CE6F12000D013351010AD8B473D725
:1050C800030AD8B47AD7010AD8B4C2D7F0D7000EE9
:1050D800216E17D02150010DB80EF324F66EBD0EC7
:1050E800F420F76EF86A000EF8222150010D000E28
:1050F800F324D96E020EF420DA6E0800F5CFDFFF34
:10510800212A2150010DB80EF324F66EBD0EF420AD
:10511800F76EF86A000EF8220800F5500009D8A4C6
:10512800D9D7000E216E17D02150010D400EF3245F
:10513800F66EBE0EF420F76EF86A000EF8222150C3
:10514800010D140EF324D96E020EF420DA6E080055
:10515800F5CFDFFF212A2150010D400EF324F66E12
:10516800BE0EF420F76EF86A000EF8220800F5501B
:105178000009D8A4D9D7000E216E17D02150010DEF
:10518800880EF324F66EBE0EF420F76EF86A000E51
:10519800F8222150010D280EF324D96E020EF420B6
:1051A800DA6E0800F5CFDFFF212A2150010D880EA5
:1051B800F324F66EBE0EF420F76EF86A000EF8229D
:1051C8000800F5500009D8A4D9D75EEC4EF001C00C
:1051D80019F002C01AF01B6A1C6A21501F6E206A5F
:1051E800010E1F26000E2022280E1F241D6E020EFF
:1051F80020201E6EF5EC37F01200000E0001AE6F95
:10520800AE0EAB6F000EAC6FA4C0D9FFA5C0DAFF1D
:105218007F0EDF6401D01200A4C0D9FFA5C0DAFF59
:10522800200EDE18D8B41200A4C0D9FFA5C0DAFF3A
:10523800DF50D8A418D0A7C0D9FFA8C0DAFF000E45
:10524800DF6E20EE01F0A751D926A851DA22C10E4F
:10525800DF6E20EE02F0A751D926A851DA22250EDA
:10526800DF6E030EAE6F010EAD6F57D0AD51010D5D
:10527800F350A425D96EF450A521DA6E990EDE18E4
:10528800D8B412002FD0AD51010DF350A425D96E1A
:10529800F450A521DA6EDF5030EC37F00BD0AD5169
:1052A800010DF350A425D96EF450A521DA6EDF5014
:1052B80030EC37F00001AD2B30D0AD51010DF3507B
:1052C800A4259D6FF450A5219E6FA7C09FF0A8C08C
:1052D800A0F0ABC0A1F0ACC0A2F076EC1CF00001CD
:1052E800AD271BD0AD51010DF350A425D96EF45054
:1052F800A521DA6EDF50F00BA96FAA6BAA51000A3C
:10530800D8A41200A951200AD8B4BDD7100AD8B41D
:10531800C6D7600AD8A41200D0D7A651AD5DD8B0C0
:105328001200A4D7000120EE01F0E351D926E45180
:10533800DA22DF50026E02500101355D000E365947
:10534800D8A035C102F00250355F000E365B000E62
:10535800016E11D00150010D380EF324D96E0D0ED7
:10536800F420DA6E31C1E1FF32C1E2FFDFCFE7FF9F
:10537800314B322B012A0250015CD8A0EBD73551B2
:105388003611D8B433D0000120EE01F0E151D9260E
:10539800E251DA22080EDF6E20EE02F0E151D92642
:1053A800E251DA22380EDE6E0D0EDD6EE3C0D9FF53
:1053B800E4C0DAFFDFBC0DD0E1C0D9FFE2C0DAFFFC
:1053C800480EDF6EE1C0D9FFE2C0DAFF000EDB8EC7
:1053D8001200E1C0D9FFE2C0DAFF080EDF6EE1C0BB
:1053E800D9FFE2C0DAFF000EDB8E1200000120EECA
:1053F80001F0E151D926E251DA22080EDF6E20EEE3
:1054080002F0E151D926E251DA22300EDE6E0D0E9D
:10541800DD6EE1C0D9FFE2C0DAFF040EDF6EE1C045
:10542800D9FFE2C0DAFF000EDB8E0101349F0001D4
:10543800F251D8A4120066EC36F01200C1C101F096
:10544800C2C102F001D80AD00500FA6E0101B951B3
:10545800FD6EBA51FE6EFF6AFA5012000009D8B408
:105468000CD001010D51010DE80EF324D96E000E88
:10547800F420DA6EDE04D8A419D00DC148F0010E6C
:10548800496E000E4A6E482A03D0D89049364A36EB
:10549800482EFBD7491C4B6E4A1C4C6E4B500101E1
:1054A80082174C50831722EC44F04ED00DC148F0BF
:1054B800010E496E000E4A6E482A03D0D89049362C
:1054C8004A36482EFBD701018251491683514A16A4
:1054D80049504A10D8A436D0C1C101F0C2C102F067
:1054E80001D809D00500FA6EB351FD6EB451FE6EB5
:1054F800FF6AFA50120001500210D8B420D00DC132
:1055080048F0010E496E000E4A6E482A03D0D89022
:1055180049364A36482EFBD74950010182134A5072
:1055280083132151F00B0609216F280E2B6F000EF3
:105538002C6F010E0D018C6F36EC04F005D022ECB7
:1055480044F002D036EC04F00001EC511200016E78
:105558007BD08C849594958483A4FED78890729A86
:10556800958C95988C98959A8C9A959E8C8E550EBC
:10557800A76EAA0EA76E0E01BF91000ED76F1F0E61
:10558800FC6F1F0EFE6F170EFC6F0A0ED56F0B0E09
:10559800D66F160EFD6F550EA76EAA0EA76EBF81A9
:1055A800738E738C729E729C7298729072927294BF
:1055B8007296728A000E01018A6F12008890729AA0
:1055C8000F014093550EA76EAA0EA76E0E01BF914C
:1055D8000A0ED76F150EFC6F160EFD6F130EFE6FB9
:1055E800550EA76EAA0EA76EBF81729A958A9588E6
:1055F800959C8C8C9584739E738C729E729C729809
:105608007250F00B0409726EA49E728A888A888888
:105618008886889488928698869A869C869E8690A4
:10562800869286948696000E666E3F0E676E030E0F
:105638006A6E400E6B6E030E686E000E696E88808F
:10564800010E01018A6F12000150000AD8B481D7F7
:10565800010AD8A41200B2D7066E0650D8A42CD0DE
:10566800000120EE01F0E151D926E251DA22080EBC
:10567800DF6E20EE02F0E151D926E251DA22300E37
:10568800DE6E0D0EDD6EE1C0D9FFE2C0DAFF0C0E52
:10569800DF6EE1C0D9FFE2C0DAFF000EDB8ED1C0B9
:1056A800D9FFD2C0DAFF040EDF6ED1C0D9FFD2C055
:1056B800DAFF000EDB8E12000150026E036AD890EA
:1056C800023603360650046E056AD890043605364D
:1056D800D890043605360250042603500522D89087
:1056E80004360536D89004360536000E0424076EB5
:1056F8000D0E0520086E07C0D9FF08C0DAFF000E9E
:10570800DB8407C0D9FF08C0DAFF000EDB8E065025
:10571800040DF3CF02F0F4CF03F00150020DF35063
:105728000226F4500322D89002360336D890023667
:105738000336040E0226000E0322000E0224076E12
:105748000D0E0320086E07C0D9FF08C0DAFF000E4F
:10575800DB8407C0D9FF08C0DAFF000EDB8E120019
:105768006DD00001C651D8B41200D7EC4DF0000E30
:105778000001C66F12008C90000E01017D6F000EB3
:105788007C6F020E0001E66F1200CFEC4CF0000EA9
:1057980001017D6F000E7C6F030E0001E66F1200A1
:1057A80001017C4B7D2B7D5104E1040E7C5DD8A06A
:1057B8001200E0EC4CF0000E01017D6F000E7C6FD2
:1057C800040E0001E66F12008FEC4BF0960E3AECD7
:1057D8004CF0FDEC4DF0000E01017D6F000E7C6F6A
:1057E800000E7B6F000E7A6F050E0001E66F120047
:1057F800CA51D8A40BD001017A4B7B2BFA0E7A1927
:105808007B11D8A403D0100E0001CA6F0001C55146
:10581800D8A40CD0C651D8A409D001017C2903E131
:105828007D29D8B412007C4B7D2B1200000E01019B
:105838007D6F000E7C6FBCEC2DF012000001E6516C
:10584800000AD8B48ED7010AD8B495D7030AD8B4B9
:105858009CD7010AD8B4A4D7070AD8B4B5D7010A87
:10586800D8A41200C5D7096E0001DD51DE11D8B4E5
:1058780006D0DDC0D9FFDEC0DAFFDFBE1200DF517F
:10588800E011D8B406D0DFC0D9FFE0C0DAFFDFBE30
:105898001200EDC00AF0EC69000EEB6F000EEA6F23
:1058A80008C188FD09C189FD0AC18AFD0BC18BFDAC
:1058B800010E0D018C6F030E0001ED6F43D0020E37
:1058C8000D018C6F1200010E016E020E30EC2BF0F0
:1058D8001200020E0D018C6F010E016E020E30ECEB
:1058E8002BF01200000E016E020E30EC2BF01200AD
:1058F800020E0D018C6F000E016E020E30EC2BF0C3
:10590800120053EC44F001012151F00B0509216FFD
:10591800200E2B6F000E2C6F020E0A18D8A40CD084
:10592800085109110A110B11D8B406D0000E016EE6
:10593800020E30EC2BF01200010E016E020E30EC5C
:105948002BF012000950010AD8B4B9D7030AD8B409
:10595800BAD7010AD8B4BDD7070AD8B4C3D7010A41
:10596800D8B4C6D77A0AD8A41200CBD7000E016ED5
:10597800400E026E0D0E036E400E046E020E3BECDE
:105988002DF001C0DFF002C0E0F0D5C0DDF0D6C0D8
:10599800DEF0000E0001ED6FEC69000EEB6F000EFB
:1059A800EA6F000EE76F000E01015A6F000E5B6F81
:1059B800000E5C6F000E5D6F000E566F000E576F85
:1059C800000E586F000E596F010E8E6F000E836F18
:1059D800000E826F000E0D6F46D00D51010DE80EBE
:1059E800F324D96E000EF420DA6E000EDF6EC1C10A
:1059F80001F0C2C102F001D809D00500FA6EB95110
:105A0800FD6EBA51FE6EFF6AFA5012000009D8B452
:105A180026D0C1C101F0C2C102F001D80AD00500E8
:105A2800FA6E0101B351FD6EB451FE6EFF6AFA5071
:105A3800120001500210D8B412D00DC10CF0010EA2
:105A48000D6E000E0E6E0C2A03D0D8900D360E3651
:105A58000C2EFBD70D50010182130E50831353EC0B
:105A680044F001010D2B0D51D8A41200B6D7096ED0
:105A78000150D8B407D00950020DD10EF324D96EC5
:105A8800000E06D00950020D400EF324D96E010E07
:105A9800F420DA6EDECF0AF0DDCF0BF00A500B10DF
:105AA800D8A405D0000E016E000E026E120020EE82
:105AB80002F00A50D9260B50DA2202C0DEFF03C0DA
:105AC800DDFF20EE01F00A50D9260B50DA2204C07F
:105AD800DFFF0AC0D9FF0BC0DAFF400EDF160AC08D
