:020000040000FA
:040000000EEF00F00F
:0400080004EF48F0C9
:100018000CEF48F0FEEF2EF00E500C24D96E0F5066
:100028000D20DA6E3A0EDE18D8B405D00C680D68CB
:100038000E680F681200020E0E24146E000E0F20B8
:10004800156E14500C24D96E15500D20DA6EDF5041
:10005800036E010E0E24166E000E0F20176E16503A
:100068000C24D96E17500D20DA6EDF50B3EC3CF03B
:10007800186E196A12C0D9FF13C0DAFF18C0DEFF64
:1000880019C0DDFF12C0D9FF13C0DAFF010EDB5023
:1000980004E1110EDE5CD8A009D0FC0E0C6EFF0E38
:1000A8000D6EFF0E0E6EFF0E0F6E1200040E0E2464
:1000B800146E000E0F20156E14500C24D96E1550B6
:1000C8000D20DA6EDF50036E050E0E24166E000E3C
:1000D8000F20176E16500C24D96E17500D20DA6EAB
:1000E800DF50046E060E0E24186E000E0F20196ED7
:1000F80018500C24D96E19500D20DA6EDF50056E99
:10010800030E0E241A6E000E0F201B6E1A500C24BC
:10011800D96E1B500D20DA6EDF505AEC32F020EE0B
:1001280002F01250D9261350DA2203C0DEFF04C0B1
:10013800DDFF20EE04F01250D9261350DA22080E03
:100148000E24146E000E0F20156E14500C24E16E50
:1001580015500D20E26EE750036E070E0E24166E42
:10016800000E0F20176E16500C24E16E17500D204C
:10017800E26EE750B3EC3CF0DF6E000E1C6E3DD033
:100188001C50010D050EF326000EF422F350122424
:10019800D96EF4501320DA6E1C501CC014F0156A86
:1001A8001426000E15220E5014260F5015220A0E82
:1001B8001426000E152214500C24E16E15500D2043
:1001C800E26EE750036E1C501CC016F0176A162624
:1001D800000E17220E5016260F501722090E16264B
:1001E800000E172216500C24E16E17500D20E26EF7
:1001F800E750B3EC3CF0DF6E1C2A12C0D9FF13C0E5
:10020800DAFF1C50166E176ADE50165CDE5017585F
:10021800D8A0B6D720EE15F01250D9261350DA22FE
:100228001C501CC014F0156A1426000E15220E501E
:1002380014260F5015220A0E1426000E15221450EB
:100248000C24E16E15500D20E26EE750036E1C5031
:100258001CC016F0176A1626000E17220E50162616
:100268000F501722090E1626000E172216500C24BE
:10027800E16E17500D20E26EE750B3EC3CF0DF6EF4
:1002880012C0D9FF13C0DAFF10EE16F01250E126A3
:100298001350E222DFCFE7FF20EE02F01250D926FA
:1002A8001350DA22DECF14F0DDCF15F015C014F0AC
:1002B800156A20EE16F01250D9261350DA2214507F
:1002C800DF2620EE02F01250D9261350DA22DF5032
:1002D800146E20EE16F01250D9261350DA2214505C
:1002E800DF2620EE04F01250D9261350DA22DF5010
:1002F800146E20EE16F01250D9261350DA2214503C
:10030800DF26000E1C6E17D01C50010D050EF326BB
:10031800000EF422F3501224D96EF4501320DA6E32
:10032800DF50146E20EE16F01250D9261350DA2240
:100338001450DF261C2A12C0D9FF13C0DAFF1C5044
:10034800166E176ADE50165CDE501758D8A0DCD738
:1003580020EE15F01250D9261350DA22DF50146E11
:1003680020EE16F01250D9261350DA221450DF2648
:1003780020EE16F01250D9261350DA22DF50D8B4E6
:1003880009D0FE0E0C6EFF0E0D6EFF0E0E6EFF0EE8
:100398000F6E120020EE04F01250D9261350DA2204
:1003A800DE04D8A409D0000E0C6E000E0D6E000EEF
:1003B8000E6E000E0F6E12001C501CC014F0156A51
:1003C8001426000E15220B0E1424166E000E15208E
:1003D800176E186A17BE18061850196E16500E2692
:1003E80017500F221850102219501122010E0E26F4
:1003F800000E0F22102211220E500C24D96E0F501D
:100408000D20DA6E3A0EDE18D8A409D00EC00CF012
:100418000FC00DF010C00EF011C00FF01200010E49
:100428000E26000E0F22102211220E500C24D96E17
:100438000F500D20DA6E3A0EDE18D8A409D00EC07F
:100448000CF00FC00DF010C00EF011C00FF012002C
:10045800010E0E26000E0F22102211220E500C241F
:10046800D96E0F500D20DA6E3A0EDE18D8A409D0D6
:100478000EC00CF00FC00DF010C00EF011C00FF040
:100488001200FD0E0C6EFF0E0D6EFF0E0E6EFF0EAF
:100498000F6E1200B9D18BEC15F00009D8A4120028
:1004A8000001A96912007CEC0AF00009D8A4120026
:1004B8000001A9691200A305D8A402D0A9691200F5
:1004C80012C18DF013C18CF08CC00BF08DC00CF0F4
:1004D8000D6A0E6ABFEC22F00009D8A41200000EC3
:1004E800026E240E016E6AEC2CF0000E016E060EF0
:1004F800026E490E036E8F0E046E03500410D8A4CA
:10050800000E056E000E076E240E066E72EC34F0B7
:10051800FD0E0001A96F1200E6C101F0E7C102F06B
:1005280001D80AD00500FA6E0101DA51FD6EDB51DF
:10053800FE6EFF6AFA50120001C044F002C045F096
:1005480003C046F004C047F0E6C101F0E7C102F07D
:1005580001D80AD00500FA6E0101DC51FD6EDD51AB
:10056800FE6EFF6AFA50120001C040F002C041F06E
:10057800426A436A26EE00F047C0DFFF26EE01F02C
:1005880046C0DFFF26EE02F045C0DFFF26EE03F08F
:1005980044C0DFFF26EE04F043C0DFFF26EE05F07F
:1005A80042C0DFFF26EE06F041C0DFFF26EE07F06F
:1005B80040C0DFFF000E00018D6F080E8C6F000E2B
:1005C800026E080E016E6AEC2CF0FD0E0001A96F98
:1005D8001200A305D8A402D0A9691200000E8D6FDD
:1005E800120E8C6F000E026E120E016E6AEC2CF069
:1005F800000E486E110E486401D014D04850010D09
:100608001F0EF324D96E010EF420DA6E4850010D46
:10061800000EF324E16E060EF420E26EDFCFE7FF52
:10062800482AE8D7FD0E0001A96F1200030EE8CF93
:1006380000F6000EE8CF01F6E6C101F0E7C102F0CE
:1006480001D80AD00500FA6E0101E251FD6EE351AE
:10065800FE6EFF6AFA5012000009D8A404D0000EFA
:100668003E6E000E03D0000E3E6E800E3D6E26EEEE
:1006780002F03DC0DFFF000EE8CF03F6000E0001D8
:100688008D6F040E8C6F000E026E040E016E6AEC04
:100698002CF0FD0E0001A96F120001012151F00B91
:1006A8000509216F200E2B6F000E2C6F010E0D0116
:1006B8008C6F000E886F000E896F000E8A6F000E17
:1006C8008B6F0001A9691200000E0B6E000E0C6EF4
:1006D800000E0D6E000E0E6EBFEC22F00009D8A4BD
:1006E8001200010121510F0B060AD8A407D00D01F1
:1006F8008C05D8A403D00001A9691200D6EC34F007
:10070800000E0D01886F000E896F000E8A6F000EB3
:100718008B6F0001A9691200000E0D01886F000E91
:10072800896F000E8A6F000E8B6F0001A969120095
:1007380090519111D8B406D090C0D9FF91C0DAFF7A
:10074800DFBE120001010B510A11091104E1400E2C
:10075800085DD8A009D0400E3F6E400E085F000E1D
:10076800095B0A5B0B5B0AD008C13FF0000E086FFB
:10077800000E096F000E0A6F000E0B6F3F503B6EA4
:100788003C6A3B5000018C5D3C508D59D8A005D087
:100798003F508C5F000E8D5B1AD0000E486E13D050
:1007A8008C518D11D8B404D08C07D8A08D070AD0ED
:1007B8004850010D000EF324D96E060EF420DA6EAF
:1007C800000EDF6E482A3F50485CD8A0E9D7010EDA
:1007D800016E000E026E060E036E3FC004F0020E9C
:1007E80063EC20F001C090F002C091F001010851C3
:1007F80009110A110B11D8A412000001A9691200ED
:100808007F0EE0EC1FF012000001A951000AD8B4D5
:100818005BD7030AD8B4DDD6110AD8B44CD6080A77
:10082800D8B404D7010AD8B477D7050AD8B435D7CD
:100838003B0AD8B471D60D0AD8B42DD6020AD8B45A
:1008480032D6050AD8B468D7D20AD8B471D7030A01
:10085800D7D72250211011E1800E205CD8B00DD0DE
:100868001FC019F020C01AF01B6A1C6A23C01DF0B3
:1008780024C01EF04AEC27F012001F04E10E205895
:10088800F50E2158050E2258D8A04CD023C011F0DF
:1008980024C012F01FC001F020C002F021C003F0F4
:1008A80022C004F0100E056E270E066E000E076EAD
:1008B800000E086E84EC2FF001C013F002C014F093
:1008C800000E166E0A0E156EF7EC38F0050E23248E
:1008D800116E000E2420126E1FC001F020C002F01D
:1008E80021C003F022C004F0100E056E270E066E1C
:1008F800000E076E000E086E3FEC34F001C013F0D6
:1009080002C014F0000E166E0A0E156EF7EC38F0E1
:1009180020EE09F02350D9262450DA22200EDF6E6B
:10092800090E1200225008E1810E1F5C960E205815
:10093800980E2158D8A04CD023C011F024C012F032
:100948001FC001F020C002F021C003F022C004F053
:10095800100E056E270E066E000E076E000E086E4E
:1009680084EC2FF001C013F002C014F0000E166ED4
:100978000A0E156EF7EC38F0040E2324116E000EE3
:100988002420126E1FC001F020C002F021C003F025
:1009980022C004F0100E056E270E066E000E076EBC
:1009A800000E086E3FEC34F001C013F002C014F0E2
:1009B800000E166E0A0E156EF7EC38F020EE08F0F1
:1009C8002350D9262450DA22200EDF6E080E12009A
:1009D800225008E1410E1F5C420E20580F0E21588C
:1009E800D8A04CD023C011F024C012F01FC001F0D1
:1009F80020C002F021C003F022C004F0100E056EE2
:100A0800270E066E000E076E000E086E84EC2FF09F
:100A180001C013F002C014F0000E166E0A0E156E17
:100A2800F7EC38F0030E2324116E000E2420126E0A
:100A38001FC001F020C002F021C003F022C004F062
:100A4800100E056E270E066E000E076E000E086E5D
:100A58003FEC34F001C013F002C014F0000E166E23
:100A68000A0E156EF7EC38F020EE07F02350D92661
:100A78002450DA22200EDF6E070E1200225008E101
:100A8800A10E1F5C860E2058010E2158D8A04CD00C
:100A980023C011F024C012F01FC001F020C002F0E2
:100AA80021C003F022C004F0100E056E270E066E5A
:100AB800000E076E000E086E84EC2FF001C013F0D4
:100AC80002C014F0000E166E0A0E156EF7EC38F020
:100AD800020E2324116E000E2420126E1FC001F096
:100AE80020C002F021C003F022C004F0100E056EF1
:100AF800270E066E000E076E000E086E3FEC34F0EF
:100B080001C013F002C014F0000E166E0A0E156E26
:100B1800F7EC38F020EE06F02350D9262450DA22DC
:100B2800200EDF6E060E120023C011F024C012F052
:100B38001FC001F020C002F021C003F022C004F061
:100B4800100E056E270E066E000E076E000E086E5C
:100B580084EC2FF001C013F002C014F0000E166EE2
:100B68000A0E156EF7EC38F0010E2324116E000EF4
:100B78002420126E1FC001F020C002F021C003F033
:100B880022C004F0100E056E270E066E000E076ECA
:100B9800000E086E3FEC34F001C013F002C014F0F0
:100BA800000E166E0A0E156EF7EC38F020EE05F002
:100BB8002350D9262450DA22200EDF6E050E1200AB
:100BC800000E0001FD6F000EFC6F000EF16F000EAD
:100BD800F26F000EF36F000EF46F7CC056F07DC00C
:100BE80057F07EC058F07FC059F0561E571E581E49
:100BF800591E562A000E57225822592200017851B0
:100C080056245A6E795157205B6E7A5158205C6E83
:100C18007B5159205D6E5D505C105B1004E1320E13
:100C28005A5CD8A018D07CC040F07DC041F07EC08E
:100C380042F07FC043F0320E446E000E456E000E47
:100C4800466E000E476E800E486E020E496EFF51CA
:100C580078EC0FF02DD07CC040F07DC041F07EC014
:100C680042F07FC043F07CC056F07DC057F07EC094
:100C780058F07FC059F0561E571E581E591E562A46
:100C8800000E572258225922000178515624446EEA
:100C980079515720456E7A515820466E7B5159201C
:100CA800476E800E486E020E496EFF5178EC0FF0C9
:100CB800800E0C6E020E0D6E000E0E6E000E0F6E84
:100CC800000E106E000E116EBC0E126E010E136E29
:100CD80010EC00F00CC0F1F00DC0F2F00EC0F3F013
:100CE8000FC0F4F00001844B852BF10EF15DFF0E6F
:100CF800F259FF0EF359FF0EF459D8A005D0400E53
:100D0800646F400E656F1200F1517C27F2517D230C
:100D1800F3517E23F4517F23FBD00101C151406F71
:100D2800416B426B436B42C143F141C142F140C147
:100D380041F1406BC251401342C143F141C142F1FC
:100D480040C141F1406B42C143F141C142F140C150
:100D580041F1406B42D79DC0F9F0000E00019D6F34
:100D68000101BE5140250001F56F0101BF5141212C
:100D78000001F66F000E010142210001F76F000E1D
:100D8800010143210001F86FF951F525016E000EAC
:100D9800F621026E000EF721036E000EF821046E94
:100DA800C1EC3CF001C0EDF002C0EEF00001F951D9
:100DB800F525016E000EF621026E000EF721036E76
:100DC800000EF821046EF95100080101BC25056EDA
:100DD80011EC24F00009D8A400D70001FC51FD1142
:100DE800D8A410D0EDC0FCF0EEC0FDF0FCC016F0A9
:100DF800FDC017F039EC39F05DEC3DF001C0EBF0C7
:100E080002C0ECF0F9C0FAF00001FB6B5CD0FA51BB
:100E1800F525016EFB51F621026E000EF721036ED7
:100E2800000EF821046EC1EC3CF00001FC510118E1
:100E38002AE1FD510218D8A426D0FA51F525096EE9
:100E4800FB51F6210A6E000EF7210B6E000EF821F9
:100E58000C6EFCC00DF0FDC00EF007EC35F009C0BB
:100E6800EFF00AC0F0F0C10E0001FA25D96E010EAC
:100E7800FB21DA6EEF51EB25E16EF051EC21E26EC9
:100E8800DFCFE7FF1DD0F1517C5FF2517D5BF3515D
:100E98007E5BF4517F5B8407D8A08507FAC09DF07C
:100EA800FCC003F0FDC004F098EC3AF0FCC003F07D
:100EB800FDC004F006EC30F00101664B672B120010
:100EC8000001FA4BFB2B0101BC510001FA5D010145
:100ED800BD510001FB59D8B080D699D70001FC510B
:100EE800FD11D8B41200FCC003F0FDC004F098EC6A
:100EF8003AF0FCC003F0FDC004F006EC30F001014C
:100F0800664B672B600E0001646F600E656F120000
:100F18000101C051000AD8B41ED7010AD8B4DED7DF
:100F2800050AD8B4FAD659D6000E256E17D0255022
:100F3800010DE90EF324F66E8D0EF420F76EF86AB3
:100F4800000EF8222550010D6C0EF324D96E010E07
:100F5800F420DA6E0800F5CFDFFF252A2550010DB1
:100F6800E90EF324F66E8D0EF420F76EF86A000E83
:100F7800F8220800F5500009D8A4D9D7000E256E2C
:100F880017D02550010D420EF324F66E8D0EF42075
:100F9800F76EF86A000EF8222550010D800EF32432
:100FA800D96E010EF420DA6E0800F5CFDFFF252A8E
:100FB8002550010D420EF324F66E8D0EF420F76EC7
:100FC800F86A000EF8220800F5500009D8A4D9D70D
:100FD800000E256ED6D02550010D0A0EF324F66EAC
:100FE8008D0EF420F76EF86A000EF8222550010DD8
:100FF800940EF324D96E010EF420DA6E0800F5CFB2
:10100800DFFF252A2550010D0A0EF324F66E8D0EFA
:10101800F420F76EF86A000EF8220800F55000096F
:10102800D8B4C0D0D8D72550010D290EF324F66EB8
:101038008E0EF420F76EF86A000EF8222550010D86
:10104800940EF324D96E010EF420DA6E0800F5CF61
:10105800DFFF252A2550010D290EF324F66E8E0E8A
:10106800F420F76EF86A000EF8220800F55000091F
:10107800D8B498D0D8D72550010D380EF324F66E81
:101088008E0EF420F76EF86A000EF8222550010D36
:10109800940EF324D96E010EF420DA6E0800F5CF11
:1010A800DFFF252A2550010D380EF324F66E8E0E2B
:1010B800F420F76EF86A000EF8220800F5500009CF
:1010C800D8B470D0D8D72550010D470EF324F66E4A
:1010D8008E0EF420F76EF86A000EF8222550010DE6
:1010E800940EF324D96E010EF420DA6E0800F5CFC1
:1010F800DFFF252A2550010D470EF324F66E8E0ECC
:10110800F420F76EF86A000EF8220800F55000097E
:10111800D8B448D0D8D72550010DE20EF324F66E86
:101128008C0EF420F76EF86A000EF8222550010D97
:10113800940EF324D96E010EF420DA6E0800F5CF70
:10114800DFFF252A2550010DE20EF324F66E8C0EE2
:10115800F420F76EF86A000EF8220800F55000092E
:10116800D8A4D9D780EC3DF001C01FF002C020F010
:10117800216A226AB60E236E010E246E2DEC04F04D
:1011880011D0B1EC3DF00B0AD8B4DCD7070AD8B4BB
:10119800B1D7010AD8B486D7030AD8B45BD7010AF5
:1011A800D8B430D7000E256E17D02550010D6B0E20
:1011B800F324F66E8E0EF420F76EF86A000EF8220D
:1011C8002550010DA80EF324D96E010EF420DA6E15
:1011D8000800F5CFDFFF252A2550010D6B0EF324FB
:1011E800F66E8E0EF420F76EF86A000EF8220800EC
:1011F800F5500009D8A4D9D78AEC3DF001C019F000
:1012080002C01AF01B6A1C6A2550010DA80EF324AF
:101218001D6E010EF4201E6E4AEC27F01200000E1F
:101228000001EC6F000EED6F000EEE6F000EEF6F19
:10123800FF5121EC32F031C078F032C079F033C080
:101248007AF034C07BF0000E0001EB6FEB51D8A4AC
:1012580012007CC056F07DC057F07EC058F07FC0A9
:1012680059F0561E571E581E591E562A000E572250
:1012780058225922785156245A6E795157205B6E5C
:101288007A5158205C6E7B5159205D6E5D505C1020
:101298005B1004E1320E5A5CD8A018D07CC040F034
:1012A8007DC041F07EC042F07FC043F0320E446EF4
:1012B800000E456E000E466E000E476E800E486E9C
:1012C800020E496EFF5178EC0FF02DD07CC040F033
:1012D8007DC041F07EC042F07FC043F07CC056F034
:1012E8007DC057F07EC058F07FC059F0561E571E7B
:1012F800581E591E562A000E5722582259220001FC
:1013080078515624446E79515720456E7A515820A9
:10131800466E7B515920476E800E486E020E496E0C
:10132800FF5178EC0FF0800E0C6E020E0D6E000E61
:101338000E6E000E0F6E000E106E000E116EBC0EBB
:10134800126E010E136E10EC00F00CC0ECF00DC024
:10135800EDF00EC0EEF00FC0EFF00001844B852BCE
:10136800040E0101C019D8A41CD0C151406F416BB3
:10137800426B436B42C143F141C142F140C141F16B
:10138800406BC251401342C143F141C142F140C1D7
:1013980041F1406B42C143F141C142F140C141F1C9
:1013A800406BC051D8A45DD0BE5140250001F06FFC
:1013B8000101BF5141210001F16F000E01014221DD
:1013C8000001F26F000E010143210001F36F0101DA
:1013D80048510001F05D010149510001F159010135
:1013E8004A510001F25901014B510001F359D8B09B
:1013F80008D0F0C048F1F1C049F1F2C04AF1F3C099
:101408004BF1F0510101445D0001F15101014559D1
:101418000001F251010146590001F35101014759F8
:10142800D8B008D0F0C044F1F1C045F1F2C046F19F
:10143800F3C047F1F0C001F0F1C002F0F2C003F0D0
:10144800F3C004F0BCC105F011EC24F0FF0AD8A4E5
:1014580008D00B0E00019E6F400E646F400E656F42
:1014680012000001EC51ED11EE11EF11D8A425D0B6
:1014780084C068F185C069F1000E856F000E846F25
:10148800000E7C6F000E7D6F000E7E6F000E7F6F6A
:10149800000E0101406F000E416F000E426F000EFA
:1014A800436F000E676F000E666F000E00019D6FA0
:1014B800300E646F300E656F1200F10EEC5DFF0E9A
:1014C800ED59FF0EEE59FF0EEF59D8A007D0EC5199
:1014D8000F0B9E6F400E646F400EEDD7EC517C27CA
:1014E800ED517D23EE517E23EF517F23EB2BAED6BA
:1014F80044D111C183F012C182F013C181F014C12B
:1015080080F016C18DF017C18CF08C51306E8D5162
:10151800316E326A336A090ED89030363136323637
:101528003336E82EF9D730C00BF031C00CF032C09A
:101538000DF033C00EF0BFEC22F00009D8A42FD173
:10154800E6C101F0E7C102F001D80AD00500FA6E41
:101558000101E251FD6EE351FE6EFF6AFA5012007E
:101568000009D8B416D0010E0D018C6F010121516C
:10157800F00B0709216F270E2B6F000E2C6F000E42
:10158800016E020ED9EC1EF0000E0001A76FA751E4
:101598001200010E0001AA6F8C518D11D8A402D03F
:1015A800000EE9D0030EA76F000E946F060E956F1C
:1015B800000E0D01886F020E896F000E8A6F000EF3
:1015C8008B6F0D01885189118A118B11D8B41ED0E7
:1015D800000192519311D8B406D092C0D9FF93C09C
:1015E800DAFFDFBEDCD0000E016E94C002F095C0B9
:1015F80003F0400E046E020E63EC20F001C092F07E
:1016080002C093F0040E0001A76F21D0E6C101F0DB
:10161800E7C102F001D80AD00500FA6E0101E251D3
:10162800FD6EE351FE6EFF6AFA5012000009D8B44D
:101638000CD0010E0D018C6F01012151F00B020934
:10164800216F270E2B6F000E2C6F020E93D0925134
:101658009311D8B406D092C0D9FF93C0DAFFDFBE89
:101668009ED020EE01F09251D9269351DA22DF5014
:10167800306E30C031F0326A336A346A3150010159
:10168800085F3250095B33500A5B34500B5B000132
:1016980020EE01F09251D9269351DA22DF50306EB4
:1016A80030C031F0326A336A346A31500D01885FD4
:1016B8003250895B33508A5B34508B5B400E00019B
:1016C8009427000E9523030E56D00D018C51D8A4F3
:1016D8003CD0E6C125F0E7C126F080C027F081C0E4
:1016E80028F082C029F083C02AF0000E2B6E060E67
:1016F8002C6E00018051811182118311D8A402D06F
:10170800010E01D0000E2D6E01D80AD00500FA6E28
:101718000101E451FD6EE551FE6EFF6AFA501200B8
:10172800E806D8B412D0640E0001A66102D0A62B38
:1017380036D0010E0D018C6F01012151F00B030908
:10174800216F000E2B6F000E2C6F010E00018027F9
:10175800000E8123822383238C07D8A08D07010ED6
:101768000AD0020E0D018C6F000E016E020ED9EC2C
:101778001EF0000E0001A76F12D00001A751000A49
:10178800D8B4B7D6010AD8B407D7030AD8B49DD7B6
:10179800010AD8B416D7070AD8B459D7E2D7000136
:1017A800A75112000D013205D8A411D030511F0BDA
:1017B8000009D8A40CD00001698F030E0D0131195E
:1017C800D8A402D0010E01D0000E0001B56F0D01A2
:1017D8003251D8A4120030511F0B020AD8A41200AB
:1017E80034510F0B0009D8B4120034510F0B186E86
:1017F800030E18601200200E5F18D8A41200000112
:10180800698F0D0134BF19D034510F0B186E185061
:10181800020D720EF324D96E000EF420DA6EDECFBC
:101828001CF0DDCF1DF034510F0B186E1850010D50
:101838005E0EF324D96E010E18D034510F0B186EBA
:101848001850020D6C0EF324D96E000EF420DA6ED7
:10185800DECF1CF0DDCF1DF034510F0B186E185081
:10186800010D610EF324D96E010EF420DA6EDF50FB
:101878001B6E1BB006D0FB0E1C141C6EFF0E1D1435
:1018880004D0040E1C101C6E1D501D6E34BF0AD0EF
:1018980034510F0B186E1850020D720EF324D96EC6
:1018A800000E09D034510F0B186E1850020D6C0E33
:1018B800F324D96E000EF420DA6E1CC0DEFF1DC0C2
:1018C800DDFF030E3119D8A42DD01CC0D9FF1DC0CF
:1018D800DAFFDFAE1AD034BF0AD034510F0B186EBE
:1018E8001850010D5E0EF324D96E010E0AD00D01B9
:1018F80034510F0B186E1850010D610EF324D96E78
:10190800010EF420DA6E0101DF821CC0D9FF1DC070
:10191800DAFF000EDB841CC0D9FF1DC0DAFF000E01
:10192800DB8E1200040E1C181C6E1D501D6E1CC090
:10193800D9FF1DC0DAFFDFAE1BD01CC0D9FF1DC008
:10194800DAFF7F0EDF161CC0D9FF1DC0DAFF000EBC
:10195800DB8C000E116E050E106E1CC012F01DC03F
:1019680013F0000E156E020E146E41EC2FF006D027
:101978001CC0D9FF1DC0DAFF000EDB8C040E1C183A
:101988001C6E1D501D6E1BB206D01CC0D9FF1DC099
:10199800DAFFDFAE30D00D0134BF0AD034510F0B5F
:1019A800186E1850010D5E0EF324D96E010E0AD080
:1019B8000D0134510F0B186E1850010D610EF324F0
:1019C800D96E010EF420DA6E0101DF921CC0D9FF36
:1019D8001DC0DAFF3B0EDF16000E116E050E106EED
:1019E8001CC012F01DC013F0000E156E020E146E0E
:1019F80041EC2FF006D01CC0D9FF1DC0DAFF3B0E0A
:101A0800DF160D0134510F0B186E1850010D260EFC
:101A1800F324196E0F0EF4201A6E19C0D9FF1AC0DC
:101A2800DAFFFE0EDF16120093D0EB0E12003C0E0A
:101A38001200900E1200F10EF66E8F0EF76E000E69
:101A4800F86E0800F5501200F20EF66E8F0EF76E63
:101A5800F86A0800F5501200F30EF66E8F0EF76E56
:101A6800F86A0800F5501200F40EF66E8F0EF76E45
:101A7800F86A0800F5501200F50EF66E8F0EF76E34
:101A8800F86A0800F5501200F60EF66E8F0EF76E23
:101A9800F86A0800F5501200F70EF66E8F0EF76E12
:101AA800F86A0800F5501200F80EF66E8F0EF76E01
:101AB800F86A0800F5501200000E1200020E12001B
:101AC800010E1200010E1200000E1200010E12008B
:101AD800400E1200000E1200120E1200100E12001C
:101AE800F80E1200100E1200000E12003F0E120027
:101AF800000E1200100E1200000E1200000E12004E
:101B0800000E1200000E1200000E1200010E12004C
:101B1800000E1200110E1200000E1200110E12001B
:101B2800000E1200460E1200410E1200540E120052
:101B3800310E1200360E1200200E1200200E120076
:101B4800200E1200550E1200AA0E1200000E1200EE
:101B580001C003F002C004F00450000AD8B404D055
:101B6800010AD8B48DD0F2D70350000AD8B45DD793
:101B7800010AD8B45CD7030AD8B45BD7010AD8B431
:101B88005AD7070AD8B460D7010AD8B465D7030A68
:101B9800D8B46AD7010AD8B46FD70F0AD8B474D7A3
:101BA800010AD8B479D7030AD8B47ED7010AD8B4C1
:101BB80083D7070AD8B482D7010AD8B481D7030AD1
:101BC800D8B480D7010AD8B47FD71F0AD8B47ED733
:101BD800010AD8B47DD7030AD8B47CD7010AD8B48F
:101BE8007BD7070AD8B47AD7010AD8B479D7030AB9
:101BF800D8B478D7010AD8B477D70F0AD8B476D72B
:101C0800010AD8B475D7030AD8B474D7010AD8B46E
:101C180073D7070AD8B472D7010AD8B471D7030AA0
:101C2800D8B470D7010AD8B46FD7370AD8B46ED7EA
:101C3800010AD8B46DD7050AD8B46CD7010AD8B44C
:101C48006BD7030AD8B46AD7010AD8B469D7190A76
:101C5800D8B468D7010AD8B467D70F0AD8B466D7FA
:101C6800010AD8B465D7030AD8B464D7010AD8B42E
:101C780063D7070AD8B462D7010AD8B461D766D740
:101C88000350FE0AD8B45ED7010AD8B45DD75ED730
:101C9800200E5F18D8A4120018D100019251931198
:101CA800D8B406D092C0D9FF93C0DAFFDFBE1200C5
:101CB800000E536E1E0E536401D014D05350010D04
:101CC800400EF324D96E0D0EF420DA6E5350010D38
:101CD800000EF324E16E010EF420E26EDFCFE7FF81
:101CE800532AE8D7000120EE01F09251D9269351EA
:101CF800DA221F0EDE18D8A472D0550E0101001981
:101D08006EE1530E01196BE1420E021968E1430EB0
:101D18000319D8A464D0010E0001A26F01010D516E
:101D2800D8A452D0110E0E614FD00E51D8B44CD059
:101D38000CC14EF03F0E4E16D8A446D0550E0D01DC
:101D4800806F530E816F420E826F530E836F04C1F2
:101D580084FD05C185FD06C186FD07C187FD000E0E
:101D6800886F000E896F000E8A6F000E8B6F000E51
:101D78008C6F0001A969000EA86F000EA76F000EF6
:101D8800A66F030E01010F19D8B408D02191219331
:101D980021952197000E2B6F000E2C6F0CAF02D0EF
:101DA800010E01D0020E0001AA6F010108510911AC
:101DB8000A110B11D8B402D0000E01D0010E000197
:101DC800A36F0FC1A9F01200010E016E020ED9EC2B
:101DD8001EF0000E016E020ED9EC1EF01200010E6C
:101DE800016E020ED9EC1EF0000E016E020ED9EC47
:101DF8001EF0000E0001A26F12004EEC1EF0FF0A4A
:101E0800D8A41200030E0001AA6F12004EEC1EF0B7
:101E1800FF0AD8A412000D018C51D8A408D088510B
:101E280089118A118B11D8B402D0020E8C6F030E5F
:101E38000001AA6F120070C04FF071C050F04F50EF
:101E48005010D8B40AD070C051F071C052F051C0CF
:101E5800D9FF52C0DAFFDFBE1200010E016E800EFC
:101E6800026E0D0E036E0D0E046E020E63EC20F072
:101E780001C090F002C091F0000192519311D8B4C2
:101E880006D092C0D9FF93C0DAFFDFBE0FD0000E94
:101E9800016E400E026E0D0E036E400E046E020EB1
:101EA80063EC20F001C092F002C093F0000E000134
:101EB800AA6F1200000EAA6F020E0D018C6F000EA1
:101EC800016E020ED9EC1EF012000001AA51000AA0
:101ED800D8B4E3D6010AD8B490D7030AD8B496D7B1
:101EE800010AD8B4A8D7E6D70001C06FC10E386E72
:101EF800000E396E0001C051ADEC31F0DBC0E1F0ED
:101F0800DCC0E2F0445040244A6E455041204B6EFC
:101F1800465042204C6E475043204D6E4A500001B7
:101F2800DD5D4B50DE594C50DF594D50E059D8B06B
:101F380002D0FF0E1200000EE76F000EE86F000ED1
:101F4800E96F000EEA6F13D0E1C031F0E2C032F061
:101F5800B1EC38F031C0E1F032C0E2F0000E00011F
:101F6800E727020EE823000EE923000EEA23E7C064
:101F78004AF0E8C04BF0E9C04CF0EAC04DF04A1E08
:101F88004B1E4C1E4D1E4A2A000E4B224C224D223F
:101F980040504A244E6E41504B204F6E42504C20C8
:101FA800506E43504D20516E51505010CDE1020EED
:101FB8004F5CD8B0C9D7E7C04AF0E8C04BF04A1E1A
:101FC8004B1E4A4A4B2A40504A24E36F41504B204B
:101FD800E46F000EE76F000EE86F000EE96F000E69
:101FE800EA6F89D0020EE419E311D8A40FD0E1C03A
:101FF80031F0E2C032F0B1EC38F031C0E1F032C07B
:10200800E2F0000E0001E46F000EE36FE1C001F0A2
:10201800E2C002F050EC3DF001C0BEF002C0BFF0DB
:10202800E3C04AF0E4C04BF04A1E4B1E4A4A4B2A12
:10203800000E4A240001E56F020E4B20E66FE551C1
:102048004A6EE6514B6E4C6A4D6AE7C04EF0E8C0E6
:102058004FF0E9C050F0EAC051F04E1E4F1E501E1E
:10206800511E4E2A000E4F225022512244504E2417
:10207800526E45504F20536E46505020546E475074
:102088005120556E4A50525C4B5053584C5054583E
:102098004D505558D8B00ED0E7C04AF0E8C04BF0C4
:1020A8004A1E4B1E4A4A4B2A44504A24E56F455063
:1020B8004B20E66FBEC029F0BFC02AF0E3C02BF06A
:1020C800E4C02CF0E5C02DF0E6C02EF0E75148241E
:1020D8002F6EE8514920306EFEEC3AF00001E551D0
:1020E800E727E651E823000EE923000EEA23E5512D
:1020F800E327E651E4234450E75D4550E85946504C
:10210800E9594750EA59D8A06DD7000E12000001CE
:10211800CA6F3F0E0001CA6501D01200CA5138ECDF
:1021280031F00009D8A41200D10E386E000E396EB5
:102138000001CA51ADEC31F0EDC0C0F0EEC0C1F005
:10214800EFC0C2F0F0C0C3F0EBC0C6F0ECC0C7F0FF
:10215800000E0001CD6F000ECE6F000ECF6F000E87
:10216800D06F13D0C6C031F0C7C032F0B1EC38F030
:1021780031C0C6F032C0C7F0000E0001CD27020EF4
:10218800CE23000ECF23000ED023CDC044F0CEC006
:1021980045F0CFC046F0D0C047F0441E451E461E4D
:1021A800471E442A000E452246224722C051442495
:1021B800486EC1514520496EC25146204A6EC351EE
:1021C80047204B6E4B504A10CDE14804020E495847
:1021D800D8B0C8D7CDC044F0CEC045F0441E451E87
:1021E800444A452AC0514424C86FC1514520C96F8B
:1021F800000ECD6F000ECE6F000ECF6F000ED06FA9
:102208006FD0020EC919C811D8A426D0000E326E9C
:10221800000E316EE7EC31F031C0C4F032C0C5F0C9
:10222800C6C029F0C7C02AF0C4C02BF0C5C02CF026
:102238007AEC39F0C4C029F0C5C02AF0FF0E2C6E24
:102248002B687AEC39F0C4C0C6F0C5C0C7F0000EE0
:102258000001C96F000EC86FC6C001F0C7C002F008
:1022680050EC3DF001C0BEF002C0BFF0C8C044F061
:10227800C9C045F0441E451E444A452A000E442460
:102288000001CB6F020E4520CC6FCB51405CCC5186
:102298004158D8B004D040C0CBF041C0CCF0BEC04B
:1022A80020F0BFC021F0C8C022F0C9C023F0CBC0C5
:1022B80024F0CCC025F0CD514224266ECE514320C7
:1022C800276E92EC32F00001CB51CD27CC51CE23B2
:1022D800000ECF23000ED023CB51C827CC51C923E1
:1022E8004050446E4150456E466A476A4450CD5D41
:1022F8004550CE594650CF594750D059D8A081D7CC
:102308004050ED274150EE23000EEF23000EF0233E
:10231800D10E056E000E066EE5EC3AF0D10E296E70
:10232800000E2A6E0001CA511BEC36F0120058C08C
:10233800D9FF59C0DAFF810EDF6E20EE01F0585048
:10234800D9265950DA22250EDF6E20EE02F05850B9
:10235800D9265950DA22C10EDF6E20EE01F0565010
:10236800D9265750DA2210EE03F05850E12659507A
:10237800E222DFCFE7FF20EE01F05650D926575072
:10238800DA2210EE04F05850E1265950E222DFCF4D
:10239800E7FF20EE02F05650D9265750DA2210EE09
:1023A80005F05850E1265950E222DFCFE7FF20EE32
:1023B80003F05650D9265750DA2210EE06F058503E
:1023C800E1265950E222DFCFE7FF20EE04F0565015
:1023D800D9265750DA2210EE07F05850E126595006
:1023E800E222DFCFE7FF20EE04F05650D9265750FF
:1023F800DA22DF505A6E5A500001F36FF46BF56B16
:10240800F66BF5C0F6F0F4C0F5F0F3C0F4F0F36B3A
:1024180020EE03F05650D9265750DA22DF505A6E74
:102428005A50F313F5C0F6F0F4C0F5F0F3C0F4F029
:10243800F36B20EE02F05650D9265750DA22DF50BF
:102448005A6E5A50F313F5C0F6F0F4C0F5F0F3C025
:10245800F4F0F36B20EE01F05650D9265750DA22EB
:10246800DF505A6E5A50F31320EE01F05650D92619
:102478005750DA22DF5021EC32F031C0EBF032C095
:10248800ECF033C0EDF034C0EEF0F3C05AF0F4C015
:102498005BF0F5C05CF0F6C05DF05A1E5B1E5C1E7A
:1024A8005D1E5A2A000E5B225C225D220001EB5160
:1024B8005A24EF6FEC515B20F06FED515C20F16F07
:1024C800EE515D20F26FF251F111F01104E1370E77
:1024D800EF5DD8A008D0360EEF6F000EF06F000E3B
:1024E800F16F000EF26F20EE08F05850D9265950BF
:1024F800DA22EFC0DFFF20EE09F05850D9265950F4
:10250800DA22F3C040F0F4C041F0F5C042F0F6C062
:1025180043F0EFC044F0F0C045F0F1C046F0F2C01F
:1025280047F00A0E5824486E000E5920496E10EEE6
:1025380001F05650E1265750E222E75078EC0FF0B0
:10254800DF6E1200000E266E000E256E020E265C4F
:10255800D8B010D0B20E2524D96E020E2620DA6E1D
:1025680025C001F026C002F04FEC25F0DF6E254AA9
:10257800262AECD7000E216E000E206EB20E226EB7
:10258800020E236E20EC37F0000E266E000E256E2C
:10259800020E265CD8B010D0B20E2524D96E020ED9
:1025A8002620DA6E25C001F026C002F018EC0DF0E6
:1025B800DF6E254A262AECD7000E216E010E206E0A
:1025C800B20E226E020E236E20EC37F0000E266E3D
:1025D800000E256E020E265CD8B010D0B20E25244F
:1025E800D96E020E2620DA6E25C001F026C002F050
:1025F8009FEC36F0DF6E254A262AECD7000E216EB6
:10260800020E206EB20E226E020E236E20EC37F000
:10261800000E266E000E256E020E265CD8B00BD07A
:10262800B20E2524D96E020E2620DA6E000EDF6E59
:10263800254A262AF1D7000E266E030E256E26504F
:1026480011E1120E255CD8B00DD025C020F026C0AF
:1026580021F0B20E226E020E236E20EC37F0254ACE
:10266800262AEDD7000E266E000E256E020E265C79
:10267800D8B010D0B20E2524D96E020E2620DA6EFC
:1026880025C001F026C002F040EC18F0DF6E254AA4
:10269800262AECD7000E216E120E206EB20E226E84
:1026A800020E236E20EC37F0000E266E000E256E0B
:1026B800020E265CD8B00BD0B20E2524D96E020EBD
:1026C8002620DA6E000EDF6E254A262AF1D7000E84
:1026D800266E130E256E265011E1160E255CD8B015
:1026E8000DD025C020F026C021F0B20E226E020EB9
:1026F800236E20EC37F0254A262AEDD7000E266EE9
:10270800000E256E020E265CD8B010D0B20E25241D
:10271800D96E020E2620DA6E25C001F026C002F01E
:10272800CCEC3BF0DF6E254A262AECD7000E216E52
:10273800160E206EB20E226E020E236E20EC37F0BB
:10274800120005C0D9FF06C0DAFF100EDF6E20EEBA
:1027580001F00550D9260650DA22250EDF6E20EE4C
:1027680002F00550D9260650DA22C10EDF6E2FEC92
:102778003DF001C00CF002C00DF003C00EF004C023
:102788000FF020EE03F00550D9260650DA220CC0CF
:10279800DFFF20EE04F00550D9260650DA220DC0DE
:1027A800DFFF20EE05F00550D9260650DA220EC0CC
:1027B800DFFF20EE06F00550D9260650DA220CC0BD
:1027C800DFFF8AEC3DF001C010F002C011F020EEEE
:1027D80007F00550D9260650DA2210C0DFFF20EE98
:1027E80008F00550D9260650DA221150DF6E76EC33
:1027F8003DF001C010F002C011F020EE09F00550C4
:10280800D9260650DA2210C0DFFF20EE0AF0055064
:10281800D9260650DA221150DF6E20EE0BF0055053
:10282800D9260650DA22B1EC3DF0DF6E85EC3DF09A
:1028380001C010F002C011F020EE0CF00550D926AE
:102848000650DA2210C0DFFF20EE0DF00550D92621
:102858000650DA221150DF6E7BEC3DF001C010F01B
:1028680002C011F020EE0EF00550D9260650DA22EB
:1028780010C0DFFF20EE0FF00550D9260650DA22EF
:102888001150DF6E80EC3DF001C010F002C011F075
:1028980020EE10F00550D9260650DA2210C0DFFFCE
:1028A80020EE11F00550D9260650DA221150DF6EBD
:1028B80020EE12F00550D9260650DA22A8EC3DF099
:1028C800DF6E20EE13F00550D9260650DA22AEEC62
:1028D8003DF0DF6E20EE14F00550D9260650DA22BE
:1028E800ABEC3DF0DF6E7BEC3DF001500A6E2B0E39
:1028F8000A6402D02B0E0A6E000E0B6E14D00B5019
:10290800F4EC3CF0076E0B50086E096A150E0826A9
:10291800000E092208500524D96E09500620DA6EE7
:1029280007C0DFFF0B2A0A500B5CD8B01200E7D7AC
:10293800000E286E17D02850010D190EF324F66EDC
:102948008E0EF420F76EF86A000EF8222850010D5A
:102958006C0EF324D96E010EF420DA6E0800F5CF60
:10296800DFFF282A2850010D190EF324F66E8E0E6B
:10297800F420F76EF86A000EF8220800F5500009F6
:10298800D8A4D9D7000E286E17D02850010D1D0ED7
:10299800F324F66E8D0EF420F76EF86A000EF82216
:1029A8002850010D800EF324D96E010EF420DA6E42
:1029B8000800F5CFDFFF282A2850010D1D0EF3244B
:1029C800F66E8D0EF420F76EF86A000EF8220800F5
:1029D800F5500009D8A4D9D7000E286E17D0285072
:1029E800010D980EF324F66E8E0EF420F76EF86A39
:1029F800000EF8222850010D940EF324D96E010E12
:102A0800F420DA6E0800F5CFDFFF282A2850010DE0
:102A1800980EF324F66E8E0EF420F76EF86A000E08
:102A2800F8220800F5500009D8A4D9D728C027F003
:102A38002FEC3DF001C01FF002C020F003C021F0D0
:102A480004C022F02850010D940EF324236E010EC9
:102A5800F420246E2DEC04F02726000E286E1CD0DE
:102A68002850010D910EF324F66E8E0EF420F76EA9
:102A7800F86A000EF822285027C025F0266A252675
:102A8800000E2622940E2524D96E010E2620DA6E19
:102A98000800F5CFDFFF282A2850010D910EF324F6
:102AA800F66E8E0EF420F76EF86A000EF822080013
:102AB800F5500009D8A4D4D7000E286E17D0285096
:102AC800010D540EF324F66E8D0EF420F76EF86A9D
:102AD800000EF8222850010DA80EF324D96E010E1D
:102AE800F420DA6E0800F5CFDFFF282A2850010D00
:102AF800540EF324F66E8D0EF420F76EF86A000E6D
:102B0800F8220800F5500009D8B41200D8D7D6D05A
:102B180011C183F012C182F013C181F014C180F099
:102B280016C18DF017C18CF08C51376E8D51386EEF
:102B3800396A3A6A090ED8903736383639363A360D
:102B4800E82EF9D737C00BF038C00CF039C00DF0BB
:102B58003AC00EF0BFEC22F00009D8A4C1D0010E93
:102B68000001A86F8C518D11D8A402D0000E46D058
:102B78008C07D8A08D07020EA86F90519111D8B478
:102B880006D090C0D9FF91C0DAFFDFBEA9D0E6C158
:102B98002DF0E7C12EF080C02FF081C030F082C048
:102BA80031F083C032F0000E336E060E346E01D859
:102BB8000AD00500FA6E0101E051FD6EE151FE6E8A
:102BC800FF6AFA501200E806D8B41AD0640E000161
:102BD800A66102D0A62B84D0020E0D018C6F0101D4
:102BE8002151F00B0309216F000E2B6F000E2C6F83
:102BF800010E016E020ED9EC1EF05DD0A86F70D0E8
:102C0800010E00018027000E812382238323000EFA
:102C18000D01886F020E896F000E8A6F000E8B6F90
:102C2800000E0001946F060E956F030EA86F0D013C
:102C3800885189118A118B11D8A402D0010E3CD079
:102C4800040E0001A86F90519111D8B406D090C01D
:102C5800D9FF91C0DAFFDFBE43D0010E016E94C0E8
:102C680002F095C003F0400E046E020E63EC20F0F3
:102C780001C090F002C091F0030E0001A86F400E51
:102C88000101085F000E095B0A5B0B5B400E0D013A
:102C9800885F000E895B8A5B8B5B400E000194277E
:102CA800000E95231DD0020E0D018C6F010E016ED2
:102CB800020ED9EC1EF0000E0001A0D70001A851A9
:102CC800000AD8B425D7010AD8B44CD7030AD8B417
:102CD80054D7010AD8B4ABD7070AD8B4B4D7E3D7C6
:102CE8000001A8511200000E1F6E17D01F50010DD1
:102CF800D90EF324F66E8D0EF420F76EF86A000EE6
:102D0800F8221F50010D6C0EF324D96E010EF42029
:102D1800DA6E0800F5CFDFFF1F2A1F50010DD90E0C
:102D2800F324F66E8D0EF420F76EF86A000EF82282
:102D38000800F5500009D8A4D9D7000E1F6E17D087
:102D48001F50010D300EF324F66E8D0EF420F76E31
:102D5800F86A000EF8221F50010D800EF324D96E78
:102D6800010EF420DA6E0800F5CFDFFF1F2A1F508E
:102D7800010D300EF324F66E8D0EF420F76EF86A0E
:102D8800000EF8220800F5500009D8A4D9D7000E83
:102D98001F6E17D01F50010D830EF324F66E8E0E92
:102DA800F420F76EF86A000EF8221F50010D940EF9
:102DB800F324D96E010EF420DA6E0800F5CFDFFF98
:102DC8001F2A1F50010D830EF324F66E8E0EF42079
:102DD800F76EF86A000EF8220800F5500009D8A42A
:102DE800D9D78AEC3DF001C019F002C01AF01B6A6D
:102DF8001C6A1F50010D940EF3241D6E010EF42061
:102E08001E6E4AEC27F01F261F50010D940EF32466
:102E1800D96E010EF420DA6E2F0EDF6E1F2A76ECC3
:102E28003DF001C019F002C01AF01B6A1C6A1F505D
:102E3800010D940EF3241D6E010EF4201E6E4AEC53
:102E480027F0000E1F6E17D01F50010DC90EF32476
:102E5800F66E8D0EF420F76EF86A000EF8221F50F9
:102E6800010DA80EF324D96E010EF420DA6E0800C5
:102E7800F5CFDFFF1F2A1F50010DC90EF324F66E90
:102E88008D0EF420F76EF86A000EF8220800F5504F
:102E98000009D8A4D9D785EC3DF001C019F002C0CB
:102EA8001AF01B6A1C6A1F50010DA80EF3241D6E30
:102EB800010EF4201E6E4AEC27F0120045C031F0D6
:102EC80046C032F047C033F048C034F0D0EC28F0A8
:102ED800FF0AD8A412003EEC3CF00001C26FC229E0
:102EE800D8B4120049C04DF04AC04EF04BC04FF064
:102EF8004CC050F00A0E05D0D89050324F324E32A6
:102F08004D32E82EF9D7010E4D24C36F000E4E2026
:102F1800C46FC3C031F0C4C032F071EC2EF00001B0
:102F2800C351311805E1C4513218D8A4120001D098
:102F38001200000E326E020E316EE7EC31F031C035
:102F4800C5F032C0C6F0C70E016E000E026E45C055
:102F580003F046C004F003500410D8A4200E056EF8
:102F6800000E076E080E066E72EC34F0CF0E016E7E
:102F7800000E026E47C003F048C004F0035004106E
:102F8800D8A4200E056E000E076E030E066E72ECB6
:102F980034F0000E0001D26F000ED36F000ED46F14
:102FA8008FEC3DF001C0D5F002C0D6F094EC3DF0B6
:102FB80001C0D7F002C0D8F0D7C0D9F0D8C0DAF035
:102FC800000E0001DC6F000EDB6FD5C0DDF0D6C04F
:102FD800DEF0D7C0DFF0D8C0E0F0C5C0E1F0C6C071
:102FE800E2F049C0E3F04AC0E4F04BC0E5F04CC061
:102FF800E6F0C70E296E000E2A6EC2511BEC36F0A1
:10300800000E0001C16F010EC06F2FD0C351C0194F
:103018000EE1C451C119D8A40AD0C5C029F0C6C050
:103028002AF0FF0E2C6E2B687AEC39F01BD0010EBB
:103038000001C525316E000EC621326EE7EC31F075
:1030480031C0BEF032C0BFF0C5C029F0C6C02AF0FA
:10305800BEC02BF0BFC02CF07AEC39F0BEC0C5F072
:10306800BFC0C6F00001C04BC12BC051C35DC151E8
:10307800C459D8A01200CAD702501DE1200E015C25
:10308800D8B019D0025010E10B0E015CD8B00CD0AA
:10309800DC0E0124F66E8F0E0220F76EF86A000E21
:1030A800F8220800F55012000B0E01180210D8A4DF
:1030B80002D0080E1200025003E1400E015CD8B0A5
:1030C800A4D0200E015E000E025A025010E1080E34
:1030D800015CD8B00CD0E80E0124F66E8F0E0220E9
:1030E800F76EF86A000EF8220800F5501200025038
:1030F80046E10B0E015CD8B042D0F80E036EFF0E0D
:10310800046E01C005F002C006F003500526045005
:103118000622FA0E0524F66E8F0E0620F76EF86A60
:10312800000EF8220800F5501200200E1200060EBC
:103138001200280E1200780E1200DE0E1200380E51
:1031480012005F0E12004B0E1200000E1200000E4D
:103158001200040E1200770E1200DE0E1200380E56
:103168001200020E1200000E12000C0E1200000EC9
:103178001200000E1200000E1200000E120001C014
:1031880003F002C004F00450000AD8A4F6D7035094
:103198000B0AD8B4CAD7060AD8B4C9D7030AD8B410
:1031A800C8D7010AD8B4C7D71F0AD8B4C6D7010AE6
:1031B800D8B4C5D7030AD8B4C4D7010AD8B4C3D77A
:1031C800070AD8B4C2D7010AD8B4C1D7030AD8B4F9
:1031D800C0D7010AD8B4BFD70F0AD8B4BED7010ADE
:1031E800D8B4BDD7030AD8B4BCD7010AD8B4BBD762
:1031F800070AD8B4BAD7010AD8B4B9D7030AD8B4D9
:10320800B8D7010AD8B4B7D7B8D7000E1200000E45
:10321800226E17D02250010DF90EF324F66E8D0E92
:10322800F420F76EF86A000EF8222250010D6C0E99
:10323800F324D96E010EF420DA6E0800F5CFDFFF13
:10324800222A2250010DF90EF324F66E8D0EF42079
:10325800F76EF86A000EF8220800F5500009D8A4A5
:10326800D9D7000E226E17D02250010DCD0EF324AF
:10327800F66E8C0EF420F76EF86A000EF8222250D3
:10328800010D800EF324D96E010EF420DA6E0800C9
:10329800F5CFDFFF222A2250010DCD0EF324F66E62
:1032A8008C0EF420F76EF86A000EF8220800F5502C
:1032B8000009D8A4D9D776EC3DF001C019F002C0B6
:1032C8001AF01B6A1C6A940E1D6E010E1E6E4AECE3
:1032D80027F0216E212A000E226E1CD02250010DEB
:1032E800730EF324F66E8E0EF420F76EF86A000E55
:1032F800F822225021C01FF0206A1F26000E20222B
:10330800940E1F24D96E010E2020DA6E0800F5CF26
:10331800DFFF222A2250010D730EF324F66E8E0E63
:10332800F420F76EF86A000EF8220800F55000093C
:10333800D8A4D4D7000E226E17D02250010D660EE5
:10334800F324F66E8D0EF420F76EF86A000EF8225C
:103358002250010DA80EF324D96E010EF420DA6E66
:103368000800F5CFDFFF222A2250010D660EF32454
:10337800F66E8D0EF420F76EF86A000EF82208003B
:10338800F5500009D8B41200D8D7000E1F6E17D018
:103398001F50010DB90EF324F66E8D0EF420F76E52
:1033A800F86A000EF8221F50010D6C0EF324D96E36
:1033B800010EF420DA6E0800F5CFDFFF1F2A1F5038
:1033C800010DB90EF324F66E8D0EF420F76EF86A2F
:1033D800000EF8220800F5500009D8A4D9D7000E2D
:1033E8001F6E17D01F50010D9F0EF324F66E8E0E20
:1033F800F420F76EF86A000EF8221F50010D800EB7
:10340800F324D96E010EF420DA6E0800F5CFDFFF41
:103418001F2A1F50010D9F0EF324F66E8E0EF42006
:10342800F76EF86A000EF8220800F5500009D8A4D3
:10343800D9D7000E1F6E17D01F50010DA90EF32407
:10344800F66E8D0EF420F76EF86A000EF8221F5003
:10345800010D940EF324D96E010EF420DA6E0800E3
:10346800F5CFDFFF1F2A1F50010DA90EF324F66EBA
:103478008D0EF420F76EF86A000EF8220800F55059
:103488000009D8A4D9D785EC3DF001C019F002C0D5
:103498001AF01B6A1C6A1F50010D940EF3241D6E4E
:1034A800010EF4201E6E4AEC27F0000E1F6E17D096
:1034B8001F50010D990EF324F66E8D0EF420F76E51
:1034C800F86A000EF8221F50010DA80EF324D96ED9
:1034D800010EF420DA6E0800F5CFDFFF1F2A1F5017
:1034E800010D990EF324F66E8D0EF420F76EF86A2E
:1034F800000EF8220800F5500009D8B41200D8D7F9
:103508005F50D8A411D0000E656E000E0F01366F03
:10351800160E396F9F0E376F7B0E366F01D065869A
:1035280065A6FDD7010E5F6E5F04D8B465BA09D0F1
:10353800000E626E000E0F01366F36813689020E5C
:103548005F6E62A406D00F0136A503D062942BECFF
:103558003AF065A202D0A198120062A008D00F012B
:1035680036A105D0E8EC1BF0040E5F6E629062A8ED
:1035780004D00F0136B930EC3BF062AC1CD00F011F
:1035880036AD0ED0000E116E730E106E000E126E58
:10359800000E136E000E156E010E146E41EC2FF026
:1035A800629C72EC3CF00001B151D8A4B107B15152
:1035B800D8B4ACEC27F062AA04D00F0136BBD5EC26
:1035C80038F062A212D00F0136A30FD07F0E116E11
:1035D8001068000E126E000E136E000E156E010EAE
:1035E800146E41EC2FF0000E636E040E5F6002D083
:1035F800A19812000F0136A73CD0000E206E030ED2
:10360800206401D036D062A634D064CFBCF000016B
:10361800BC31E832E8320F0BB36F6296BCB507D005
:10362800B351010D5E0EF324D96E010E07D00001CF
:10363800B351010D610EF324D96E010EF420DA6E38
:103648000101DF700001B351D8A403D08AEC29F03E
:103658000ED0000E116E720E106EBC0E126E000EA1
:10366800136E000E156E000E146E41EC2FF0202A1A
:10367800C6D7A1981200000E016E17D00150010D97
:10368800880EF324F66E8D0EF420F76EF86A000E9D
:10369800F8220150010D6C0EF324D96E010EF420AE
:1036A800DA6E0800F5CFDFFF012A0150010D880E00
:1036B800F324F66E8D0EF420F76EF86A000EF822E9
:1036C8000800F5500009D8A4D9D7000E016E17D00C
:1036D8000150010D770EF324F66E8D0EF420F76E6F
:1036E800F86A000EF8220150010D800EF324D96EFD
:1036F800010EF420DA6E0800F5CFDFFF012A015031
:10370800010D770EF324F66E8D0EF420F76EF86A2D
:10371800000EF8220800F5500009D8A4D9D7000EE9
:10372800016E17D00150010DF60EF324F66E8C0EC3
:10373800F420F76EF86A000EF8220150010D940E7D
:10374800F324D96E010EF420DA6E0800F5CFDFFFFE
:10375800012A0150010DF60EF324F66E8C0EF420AA
:10376800F76EF86A000EF8220800F5500009D8A490
:10377800D9D7000E016E17D00150010D620EF32447
:10378800F66E8E0EF420F76EF86A000EF8220150DD
:10379800010DA80EF324D96E010EF420DA6E08008C
:1037A800F5CFDFFF012A0150010D620EF324F66EFA
:1037B8008E0EF420F76EF86A000EF8220800F55015
:1037C8000009D8B41200D8D7A098000E636E000E76
:1037D800626E000E0F01266F270E016E0F0E026E2D
:1037E800000E046E000E036E000E066E020E056ECD
:1037F8008BEC3BF0160E0F01396F9F0E376F7B0E67
:10380800366F000E096E0B0E096401D00ED00950F8
:10381800040D000EF324D96E0D0EF420DA6EDE6A64
:10382800DE6ADE6ADD6A092AEED7658C000E0F01B2
:10383800386F6598659C6296000E0001696F000EEE
:103848000101346F000E366F000E356F62B6F3D784
:10385800010E0001AF6F010EAE6F000EAD6F000ECE
:10386800AC6F000EB46F000E096E020E096401D031
:103878002ED00950020D6C0EF324D96E000EF420E0
:10388800DA6E000EDE6E000EDD6E0950020D720E4D
:10389800F324D96E000EF420DA6E000EDE6E000EF0
:1038A800DD6E0950010D610EF324D96E010EF4206E
:1038B800DA6E000EDF6E0950010D5E0EF324D96E2C
:1038C800010EF420DA6E000EDF6E092ACED7080E3C
:1038D80000016C6F0D0E6D6F160E0F01266F0D0E29
:1038E8000D01036F300E026F080E016F040E006F9A
:1038F800008F000E0001BD6F000E0101546F000E15
:10390800556F000E566F000E576F000E0001AB6F1B
:10391800000E5F6E1200800E0D013019D8A412003F
:10392800C00E0001696F88D0A40E0001666F8F0E6B
:10393800676F000E6B6F120E6A6F12000D01325125
:10394800D8A443D03251020DA50EF324F66E8E0E84
:10395800F420F76EF86A000EF8220900F5CF66F039
:103968000A00F5CF67F0020E00016625016E000E11
:103978006721026E01C0F6FF02C0F7FFF86A0E0E5B
:10398800F76403D00800F55005D0F6CFE9FFF7CF6C
:10399800EAFFEF5000016A6F030E6625016E000E04
:1039A8006721026E01C0F6FF02C0F7FFF86A0E0E2B
:1039B800F76403D00800F55005D0F6CFE9FFF7CF3C
:1039C800EAFFEF5000016B6F1200000E0001696FF3
:1039D8001200040E0D01326127D03251020D7B0E08
:1039E800F324F66E8E0EF420F76EF86A000EF822B5
:1039F8000900F5CF66F00A00F5CF67F066C0F6FF5C
:103A080067C0F7FFF86A0E0EF76403D00800F55098
:103A180005D0F6CFE9FFF7CFEAFFEF50016E01506E
:103A280000016A6F6B6B1200000E0001696F1200D3
:103A3800000E0001696F12000D013351010AD8B45C
:103A480073D7030AD8B47AD7010AD8B4C2D7F0D743
:103A5800000E216E17D02150010D090EF324F66EC9
:103A68008E0EF420F76EF86A000EF8222150010D30
:103A78006C0EF324D96E010EF420DA6E0800F5CF2F
:103A8800DFFF212A2150010D090EF324F66E8E0E58
:103A9800F420F76EF86A000EF8220800F5500009C5
:103AA800D8A4D9D7000E216E17D02150010D550E7C
:103AB800F324F66E8E0EF420F76EF86A000EF822E4
:103AC8002150010D800EF324D96E010EF420DA6E18
:103AD8000800F5CFDFFF212A2150010D550EF324F0
:103AE800F66E8E0EF420F76EF86A000EF8220800C3
:103AF800F5500009D8A4D9D7000E216E17D021504F
:103B0800010D8A0EF324F66E8E0EF420F76EF86A15
:103B1800000EF8222150010D940EF324D96E010EE7
:103B2800F420DA6E0800F5CFDFFF212A2150010DBD
:103B38008A0EF324F66E8E0EF420F76EF86A000EE5
:103B4800F8220800F5500009D8A4D9D78AEC3DF02E
:103B580001C019F002C01AF01B6A1C6A21501F6EBE
:103B6800206A010E1F26000E2022940E1F241D6EAF
:103B7800010E20201E6E4AEC27F01200000120EEF4
:103B880001F09A51D9269B51DA22DF50026E025079
:103B98000101355D000E3659D8A035C102F002503A
:103BA800355F000E365B000E016E11D00150010D1D
:103BB800380EF324D96E0D0EF420DA6E31C1E1FF10
:103BC80032C1E2FFDFCFE7FF314B322B012A02502F
:103BD800015CD8A0EBD735513611D8B433D00001E9
:103BE80020EE01F09851D9269951DA22080EDF6E9D
:103BF80020EE02F09851D9269951DA22380EDE6E5D
:103C08000D0EDD6E9AC0D9FF9BC0DAFFDFBC0DD068
:103C180098C0D9FF99C0DAFF480EDF6E98C0D9FF67
:103C280099C0DAFF000EDB8E120098C0D9FF99C048
:103C3800DAFF080EDF6E98C0D9FF99C0DAFF000ED0
:103C4800DB8E1200000120EE01F09851D92699511F
:103C5800DA22080EDF6E20EE02F09851D92699512B
:103C6800DA22300EDE6E0D0EDD6E98C0D9FF99C0D7
:103C7800DAFF040EDF6E98C0D9FF99C0DAFF000E94
:103C8800DB8E0101349F0001B051D8A41200ACECC6
:103C980027F01200E6C101F0E7C102F001D80AD00E
:103CA8000500FA6E0101DE51FD6EDF51FE6EFF6AFE
:103CB800FA5012000009D8B40CD001010D51010DC1
:103CC800A40EF324D96E000EF420DA6EDE04D8A414
:103CD80019D00DC149F0010E4A6E000E4B6E492AEB
:103CE80003D0D8904A364B36492EFBD74A1C4C6E27
:103CF8004B1C4D6E4C5000018E174D508F17A5EC84
:103D080034F050D00DC149F0010E4A6E000E4B6ED2
:103D1800492A03D0D8904A364B36492EFBD70001A2
:103D28008E514A168F514B164A504B10D8A438D092
:103D3800E6C101F0E7C102F001D80AD00500FA6E29
:103D48000101D851FD6ED951FE6EFF6AFA5012007A
:103D580001500210D8B421D00DC149F0010E4A6EAD
:103D6800000E4B6E492A03D0D8904A364B36492E5E
:103D7800FBD74A5000018E134B508F13010121517C
:103D8800F00B0609216F280E2B6F000E2C6F010E09
:103D98000D018C6F4EEC02F005D0A5EC34F002D08A
:103DA8004EEC02F00001A9511200066E0650D8A48C
:103DB8002CD0000120EE01F09851D9269951DA2231
:103DC800080EDF6E20EE02F09851D9269951DA22BA
:103DD800300EDE6E0D0EDD6E98C0D9FF99C0DAFF89
:103DE8000C0EDF6E98C0D9FF99C0DAFF000EDB8E8B
:103DF8006CC0D9FF6DC0DAFF040EDF6E6CC0D9FF4E
:103E08006DC0DAFF000EDB8E12000150026E036AED
:103E1800D890023603360650046E056AD8900436E8
:103E28000536D8900436053602500426035005227C
:103E3800D89004360536D89004360536000E04248A
:103E4800076E0D0E0520086E07C0D9FF08C0DAFFFF
:103E5800000EDB8407C0D9FF08C0DAFF000EDB8E36
:103E68000650040DF3CF02F0F4CF03F00150020D19
:103E7800F3500226F4500322D89002360336D89025
:103E880002360336040E0226000E0322000E022418
:103E9800076E0D0E0320086E07C0D9FF08C0DAFFB1
:103EA800000EDB8407C0D9FF08C0DAFF000EDB8EE6
:103EB8001200000E016E400E026E0D0E036E400ED3
:103EC800046E020E63EC20F001C092F002C093F081
:103ED80070C090F071C091F0000E0001AA6FA9693E
:103EE800000EA86F000EA76F000EA36F000E010151
:103EF800506F000E516F000E526F000E536F000E80
:103F08004C6F000E4D6F000E4E6F000E4F6F010E7E
:103F18000001A26F000E8F6F000E8E6F000E010160
:103F28000D6F46D00D51010DA40EF324D96E000E6D
:103F3800F420DA6E000EDF6EE6C101F0E7C102F090
:103F480001D809D00500FA6EDE51FD6EDF51FE6E14
:103F5800FF6AFA5012000009D8B426D0E6C101F071
:103F6800E7C102F001D80AD00500FA6E0101D85164
:103F7800FD6ED951FE6EFF6AFA5012000150021010
:103F8800D8B412D00DC10CF0010E0D6E000E0E6EDD
:103F98000C2A03D0D8900D360E360C2EFBD70D50B8
:103FA80000018E130E508F13D6EC34F001010D2B47
:103FB8000D51D8A41200B6D7096E00019051911185
:103FC800D8B406D090C0D9FF91C0DAFFDFBE120086
:103FD80092519311D8B406D092C0D9FF93C0DAFF9A
:103FE800DFBE1200AAC00AF0A969000EA86F000E71
:103FF800A76F08C188FD09C189FD0AC18AFD0BC1E7
:104008008BFD010E0D018C6F030E0001AA6F43D0CA
:10401800020E0D018C6F1200010E016E020ED9EC1A
:104028001EF01200020E0D018C6F010E016E020EC1
:10403800D9EC1EF01200000E016E020ED9EC1EF033
:104048001200020E0D018C6F000E016E020ED9ECEB
:104058001EF01200D6EC34F001012151F00B0509D5
:10406800216F200E2B6F000E2C6F020E0A18D8A499
:104078000CD0085109110A110B11D8B406D0000E42
:10408800016E020ED9EC1EF01200010E016E020E36
:10409800D9EC1EF012000950010AD8B4B9D7030AA6
:1040A800D8B4BAD7010AD8B4BDD7070AD8B4C3D789
:1040B800010AD8B4C6D77A0AD8A41200CBD7096E99
:1040C8000150D8B407D00950020D6C0EF324D96EF4
:1040D800000E06D00950020D720EF324D96E000EA0
:1040E800F420DA6EDECF0AF0DDCF0BF00A500B10A9
:1040F800D8A405D0000E016E000E026E120020EE4C
:1041080002F00A50D9260B50DA2202C0DEFF03C0A3
:10411800DDFF20EE01F00A50D9260B50DA2204C048
:10412800DFFF0AC0D9FF0BC0DAFF400EDF160AC056
:10413800D9FF0BC0DAFF000EDB860AC0D9FF0BC01F
:10414800DAFF000EDB8E0150D8B418D00950020DEA
:104158006C0EF324D96E000EF420DA6EDECF05F073
:10416800DDCF06F0040E0518076E0650086E0950DC
:10417800020D6C0EF324D96E000E17D00950020DF3
:10418800720EF324D96E000EF420DA6EDECF05F03D
:10419800DDCF06F0040E0518076E0650086E0950AC
:1041A800020D720EF324D96E000EF420DA6E07C0E9
:1041B800DEFF08C0DDFF0AC001F00BC002F01200EC
:1041C8006598000169BF3CD0010134AF0DD0020EE3
:1041D8000001B66FAC51D8B4CCEC2BF0000E000146
:1041E800AE6F000EAF6F1200000120EE01F0985183
:1041F800D9269951DA22080EDF6E20EE02F0985186
:10420800D9269951DA22300EDE6E0D0EDD6E98C079
:10421800D9FF99C0DAFF0C0EDF6E98C0D9FF99C09C
:10422800DAFF000EDB8E6CC0D9FF6DC0DAFF040E1A
:10423800DF6E6CC0D9FF6DC0DAFF000EDB8E120096
:104248000D0130AF12D0010E0001B66FAD51D8B4D8
:10425800CCEC2BF0000E0001AE6F000EAF6FB0512A
:10426800D8A41200ACEC27F01200020E0001B66FC1
:1042780020EE01F09851D9269951DA22080EDF6E06
:1042880020EE02F09851D9269951DA22300EDE6ECE
:104298000D0EDD6E98C0D9FF99C0DAFF040EDF6EEF
:1042A80098C0D9FF99C0DAFF000EDB8E000EAE6F02
:1042B800000EAF6FB051D8A41200ACEC27F012007A
:1042C800F7C0D9FFF8C0DAFFDF505E6E7F0E5E647C
:1042D8005FD0FFEC3CF00009D8B428D0F9C015F045
:1042E800FAC016F030EC23F01200F7C040F0F8C026
:1042F80041F0F9C042F0FAC043F0CAEC32F01200C3
:10430800F7C045F0F8C046F0F9C047F0FAC048F0E9
:104318002CEC2BF01200F7C056F0F8C057F0F9C09B
:1043280058F0FAC059F09BEC11F012005E50800A68
:10433800D8B4DBD7010AD8B4E3D7030AD8A412004B
:10434800EAD7F9C015F0FAC016F030EC23F01200E5
:10435800F9C005F0FAC006F0000E076E30EC29F03F
:104368001200F9C005F0FAC006F0010E076E30EC35
:1043780029F01200F9C005F0FAC006F0A5EC13F018
:104388001200F9C001F0FAC002F01BEC2CF0120088
:104398005E50100AD8B4D5D7010AD8B4D9D7030AC1
:1043A800D8B4DFD7010AD8B4E5D7070AD8A41200D1
:1043B800E8D70D013039E832030B0009D8A4120000
:1043C80047D00001698F080E5F6E12008FEC1CF059
:1043D8001200A1EC23F01200BD0E0001666F000E62
:1043E800676F6981010E6A6F698F1200E0EC29F02E
:1043F8001200D6EC0BF012000D013451010DB80E6D
:10440800F3240001666F000EF420676F6981010EC6
:104418006A6F698F12000001698F0D013451010D17
:10442800B80EF324D96E000EF420DA6E32CDDFFF19
:104438001200000E116E020E106E000E126E000EAB
:10444800136E000E156E000E146E41EC2FF0120064
:104458000D013151000AD8B4C9D7010AD8B4C9D757
:10446800020AD8B4C6D7060AD8B4ABD7030AD8B458
:10447800ADD7010AD8B4DDD70F0AD8B4ADD7010A31
:10448800D8B4A7D7030AD8B4B7D7010AD8B4C3D7C2
:10449800070A12000D0130511F0BE806D8A41200BC
:1044A8003451D8A41200060E3119D8B41AD022D02B
:1044B8000001BD05D8A41ED0B90E666F8E0E676FB9
:1044C800000E6B6F090E0BD0C00E696F13D06D0E06
:1044D8000001666F8F0E676F000E6B6F1D0E6A6F9F
:1044E800F3D70D013351210AD8B4E2D7030AD8B45F
:1044F800EED7010A0D013039E832030BE806D8A4DB
:10450800120024D0BB0E0001666F000E676F000E0C
:104518006B6F010E6A6FC10E696F1200800E000189
:10452800696F33CDBBF01200BA0E0001666F000E42
:10453800676F000E6B6F010E6A6F810E696F120054
:10454800800E0001696F32CDBAF012000D013151B1
:10455800010AD8B41200030AD8B4D4D7010AD8B4CF
:10456800E3D70A0AD8B41200030AD8B4D7D7010A85
:10457800D8A41200E5D70B500C100D100E10D8A4BB
:1045880002D0010E01D0000E116E0001A305D8A4BF
:1045980005D01104D8A402D0000E12000B5001015E
:1045A80008191AE10C50091917E10D500A1914E1FC
:1045B8000E500B19D8A410D00001AA05D8A406D013
:1045C8002A0EA919D8B408D0000E12002A0EA9196B
:1045D800D8A402D0000E1200010108510B5C095149
:1045E8000C580A510D580B510E58D8B002D0010E74
:1045F80001D0000E0F6E020E0001AA19D8A414D023
:104608002A0EA919D8B405D01150D8A402D0050E85
:104618001DD0A305D8B40FD01104D8B403D00F040B
:10462800D8A4F5D7040E12D02A0EA919D8B40DD0E3
:10463800A305D8A402D0010E09D01104D8B403D020
:104648000F04D8A402D0020E01D0030E106E105031
:10465800E0EC1FF01050120015C0D9FF16C0DAFFA9
:10466800100EDF6E20EE01F01550D9261650DA2212
:10467800250EDF6E20EE02F01550D9261650DA22EC
:10468800C10EDF6E20EE03F01550D9261650DA223F
:10469800FFEC3CF0DF6E20EE04F01550D9261650E2
:1046A800DA22000EDF6E20EE05F01550D9261650DE
:1046B800DA22010EDF6E20EE06F01550D9261650CC
:1046C800DA22000EDF6E20EE07F01550D9261650BC
:1046D800DA22A5EC3DF0DF6E20EE08F01550D92661
:1046E8001650DA2260C0DFFF20EE09F01550D926F7
:1046F8001650DA2261C0DFFF20EE0AF01550D926E5
:104708001650DA2262C0DFFF20EE0BF01550D926D2
:104718001650DA2263C0DFFF20EE0CF01550D926C0
:104728001650DA2264C0DFFF20EE0DF01550D926AE
:104738001650DA2265C0DFFF12000001698F270ECC
:10474800016E0F0E026E000E046E000E036E000E58
:10475800066E020E056E8BEC3BF0000E016E0D0E20
:10476800026E000E046E000E036E000E066E300E12
:10477800056E8BEC3BF0658C000E186E020E18640B
:1047880001D016D01850010D610EF324D96E010E18
:10479800F420DA6E000EDF6E1850010D5E0EF32461
:1047A800D96E010EF420DA6E000EDF6E182AE6D7F5
:1047B800B80E016E000E026E000E046E000E036E3F
:1047C800000E066E020E056E8BEC3BF0659C080E23
:1047D80000016C6F0D0E6D6F000E9A6F0D0E9B6FC2
:1047E8009AC098F09BC099F032CDBDF0BD51D8A4C5
:1047F80003D0100E5F6E1200000E116E010E106EC7
:10480800BD0E126E000E136E000E156E010E146EA4
:1048180041EC2FF0200E5F6E1200000E0A6E000EA3
:104828000C6E62D00C500124066E000E0220076E3A
:10483800000E0320086E000E0420096E09500810AF
:1048480004E1900E075CD8A018D00C500124066E25
:10485800000E0220076E000E0320086E000E0420D2
:10486800096E09500AE1F80E065CFF0E0758010EA2
:104878000858D8B002D0000E29D00C500124066E7A
:10488800000E0220076E000E0320086E000E0420A2
:10489800096E095008E1F80E065CFF0E0758010E74
:1048A8000858D8A015D00C500124066E000E02201E
:1048B800076E000E0320086E000E0420096E0950D2
:1048C80007E1020E085CD8B003D0010E0B6E01D0D0
:1048D8000B680B28D8A402D0FF0E12000B500A5CFC
:1048E800D8A00BC00AF00C2A05500C5CD8A09AD7A7
:1048F8000A501200F1C0D9FFF2C0DAFF7F0EDF6460
:1049080001D01200010E596E58D05950010DF350C4
:104918000001F125D96EF450F221DA6E990EDE18F5
:10492800D8B412002ED05950010DF350F125D96E8C
:10493800F450F221DA6EDF5045EC30F00CD05950CB
:10494800010DF3500001F125D96EF450F221DA6E11
:10495800DF5045EC30F0592A30D05950010DF35052
:104968000001F125D96EF450F221DA6EDF50576E4E
:10497800586A57C054F058C055F02AEC2EF0592602
:104988001CD05950010DF3500001F125D96EF45097
:10499800F221DA6EDF50F00B576E586A5850000A51
:1049A800D8A412005750200AD8B4BDD7100AD8B4DA
:1049B800C6D7600AD8A41200D0D70001F351595CB9
:1049C800D8B01200A2D752D000016151D8B4120059
:1049D80014EC3DF0000E0001616F12008C90000E87
:1049E800876F000E866F020EA06F120050EC3CF02D
:1049F800000E0001876F000E866F030EA06F120075
:104A0800864B872B875104E1040E865DD8A01200DF
:104A180061EC3CF0000E0001876F000E866F040EFB
:104A2800A06F12005FEC3BF0960EF4EC3BF038EC14
:104A38003DF0000E0001876F000E866F050EA06F17
:104A480012006051D8A40BD06151D8A408D086298F
:104A580003E18729D8B41200864B872B1200000E79
:104A6800876F000E866F73EC31F012000001A051C1
:104A7800000AD8B4A9D7010AD8B4B0D7030AD8B461
:104A8800B5D7010AD8B4BCD7070AD8B4CBD7010A1E
:104A9800D8A41200D6D726D0800E1200020E12001B
:104AA800000E1200000E1200040E1200180E120062
:104AB8000F0E1200010E1200010E1200000E12005D
:104AC800000E1200000E1200880E1200130E1200C3
:104AD800000E1200000E1200550E1200AA0E12004F
:104AE800000E120001C003F002C004F00450010AD5
:104AF800D8A4F6D70350BE0AD8B4CED7010AD8B482
:104B0800CDD77F0AD8B4CCD7010AD8B4CBD7030AFB
:104B1800D8B4CAD7010AD8B4C9D7070AD8B4C8D7ED
:104B2800010AD8B4C7D7030AD8B4C6D7010AD8B47B
:104B3800C5D70F0AD8B4C4D7010AD8B4C3D7030A53
:104B4800D8B4C2D7010AD8B4C1D7070AD8B4C0D7D5
:104B5800010AD8B4BFD7330AD8B4BED7010AD8B42B
:104B6800BDD7BED72B6E69EC38F015D03FEC1BF0E3
:104B78003BD09CEC14F038D02CEC1DF035D00BEC6D
:104B880019F032D098EC07F02FD077EC16F02CD033
:104B9800C9EC19F029D02B50F00B296E2A6A2A503B
:104BA800000AD8A421D02950000AD8B4DFD7100AA7
:104BB800D8B4DFD7300AD8B4DFD7100AD8B4DFD7D3
:104BC800700AD8B4DFD7100AD8B4DFD7300AD8B4FF
:104BD800DFD70AD02E0E01017D6F2E0E01017C6FEA
:104BE8002E0E01017B6F15D000016239E842070BD8
:104BF800030B296E2A6A2A50000AD8A40AD0295021
:104C0800010AD8B4EDD7030AD8B4E7D7010AD8B453
:104C1800E1D7F2AE03D0490E01017E6F0001615168
:104C2800800A7F0FD8A01200580E0101BB6F120036
:104C3800080E016E00016B5110E1080E6A5DD8B0D4
:104C48000CD06AC001F0B751D8A402D0010E04D02C
:104C5800B705D8A402D0020EB76F01506A5F000EE4
:104C68006B5B20EE01F06C51D9266D51DA2201C040
:104C7800DFFF380E966F0D0E976F69A11CD03AD0E2
:104C880066C0F6FF67C0F7FFF86A96C0D9FF97C0FD
:104C9800DAFF0E0EF76403D00800F55005D0F6CF02
:104CA800E9FFF7CFEAFFEF50DF6E0001664B672B95
:104CB800964B972B01060150D8B41200E1D766C075
:104CC800F6FF67C0F7FFF86A96C0D9FF97C0DAFF0A
:104CD8000E0EF76403D00800F55005D0F6CFE9FFB3
:104CE800F7CFEAFFEF50DF6E0001664B672B964B5C
:104CF800972B01060150D8B41200E1D70BEC34F021
:104D0800C3EC35F00009D8A400EF48F0000E76ECAB
:104D180037F0E8EC1BF084EC1AF01DEC3DF035ECB4
:104D28002AF0F3EC39F000016351D8A4F4D7E7EC8A
:104D380024F02AD0000E42EC38F040D0010E42ECAC
:104D480038F03CD0020E42EC38F038D0030E42EC7A
:104D580038F034D0040E42EC38F030D0050E42EC76
:104D680038F02CD0A5EC3DF0050AD8A427D00001D6
:104D78006551B6EC25F022D0A5EC3DF0050AD8A483
:104D88001DD037EC33F01AD000016251000AD8B4B4
:104D9800D1D7010AD8B4D2D7030AD8B4D3D7010AD5
:104DA800D8B4D4D7070AD8B4D5D7010AD8B4D6D737
:104DB800030AD8B4D7D7010AD8B4DED7010E000148
:104DC800636FA9D76CC0D9FF6DC0DAFF0001000E70
:104DD800DFBC010E026E040E6C196C6F6D516D6FA5
:104DE800080E5F18D8A40CD00D0132517F0B0F01AB
:104DF800386F3851D8B402D0100E01D0040E5F6E4F
:104E08000001B605D8A43BD020EE02F06C51D9269B
:104E18006D51DA22380EDE6E0D0EDD6E1CEC26F0BA
:104E2800020E0001B719D8A40DD06CC0D9FF6DC00F
:104E3800DAFF040EDF6E6CC0D9FF6DC0DAFF000E1A
:104E4800DB8E12000250D8A40DD06CC0D9FF6DC003
:104E5800DAFF480EDF6E6CC0D9FF6DC0DAFF000EB6
:104E6800DB8E12006CC0D9FF6DC0DAFF080EDF6E52
:104E78006CC0D9FF6DC0DAFF000EDB8E1200010195
:104E880034BF349F000E0001B66F12001DC011F030
:104E98001EC012F019C013F01AC014F0000E166EDE
:104EA8000A0E156EF7EC38F01C501B1006E1100EB8
:104EB800195C270E1A58D8A00AD020EE05F01D500C
:104EC800D9261E50DA22200EDF6E050E12001C5065
:104ED8001B1006E1E80E195C030E1A58D8A00AD078
:104EE80020EE04F01D50D9261E50DA22200EDF6E67
:104EF800040E12001C501B101A1004E1640E195CF9
:104F0800D8A00AD020EE03F01D50D9261E50DA2270
:104F1800200EDF6E030E12001C501B101A1004E145
:104F28000A0E195CD8A00AD020EE02F01D50D9262E
:104F38001E50DA22200EDF6E020E120020EE01F063
:104F48001D50D9261E50DA22200EDF6E010E1200E7
:104F58000001AF51D8A41200010EAF6FAE51D8A412
:104F68001200010EAE6F020EB619D8A415D020EEAD
:104F780001F06C51D9266D51DA22000EDF6E6CC03B
:104F8800D9FF6DC0DAFF480EDF6E6CC0D9FF6DC067
:104F9800DAFF000EDB8E1200B605D8A41200000E50
:104FA800B26F20EE01F09A51D9269B51DA22080EF1
:104FB800DF6E20EE02F09A51D9269B51DA22300E8C
:104FC800DE6E0D0EDD6E9AC0D9FF9BC0DAFF040EAF
:104FD800DF6E9AC0D9FF9BC0DAFF000EDB8E010E90
:104FE800B26F20EE01F09851D9269951DA22080EB5
:104FF800DF6E20EE02F09851D9269951DA22300E50
:10500800DE6E0D0EDD6E98C0D9FF99C0DAFF800EF6
:10501800DF6E12000D0130511F0BE806D8A41200F4
:105028003451D8A412004ED032513311D8A41200F2
:1050380036513711D8A41200000E0001AA6FA969D1
:10504800000EA86F000EA76F010EA26F76C00CF0BD
:1050580077C00DF00C500D10D8B40AD076C00EF001
:1050680077C00FF00EC0D9FF0FC0DAFFDFBE0FD038
:10507800000E016E400E026E0D0E036E400E046EA1
:10508800020E63EC20F001C092F002C093F0800E93
:105098000001696F12000D0132513311D8A41200BA
:1050A80036053711D8A41200000E386F380E0001EB
:1050B800666F0D0E676F000E6B6F010E6A6FC10E83
:1050C800696F12000D013151FE0AD8B4E4D7010A04
:1050D800D8A41200A9D753D001C0F6FF02C0F7FF29
:1050E800F86A0E0EF76403D00800F55005D0F6CF25
:1050F800E9FFF7CFEAFFEF500009D8B419D003C091
:10510800D9FF04C0DAFFDF50076E01C0F6FF02C006
:10511800F7FFF86A0E0EF76403D00800F55005D0C3
:10512800F6CFE9FFF7CFEAFFEF500718D8B423D03E
:1051380003C0D9FF04C0DAFFDF50076E086A071EF4
:10514800081E074A082A01C0F6FF02C0F7FFF86ADE
:105158000E0EF76403D00800F55005D0F6CFE9FF2E
:10516800F7CFEAFFEF50096E09500724016E000ED1
:105178000820026E1200014A022A034A042A050680
:10518800D8A006060528A8E10628D8A4A5D7000EA9
:10519800026E000E016E1200000E406E000E426E8E
:1051A800120E416E425056E1160E415CD8B052D0F4
:1051B800000E446E000E436E020E445CD8B047D019
:1051C80041C029F042C02AF043C02BF044C02CF063
:1051D800000E2E6E0B0E2D6E350E2F6E000E306EDD
:1051E800FEEC3AF03550D8A402D0FF0E1200E50EBE
:1051F8003518D8B426D031C001F032C002F0350ECF
:10520800036E000E046E000E066E080E056E6FEC3F
:1052180028F001500210D8A414D033C001F034C0D3
:1052280002F03D0E036E000E046E000E066E030EB5
:10523800056E6FEC28F001500210D8A402D040503F
:105248001200402A200E4326000E4422B5D7414AB8
:10525800422AA8D7FF0E12000750D8B406D005C0BE
:10526800D9FF06C0DAFF120E05D005C0D9FF06C067
:10527800DAFF110EDF6E20EE01F00550D926065038
:10528800DA22250EDF6E20EE02F00550D9260650F0
:10529800DA22C10EDF6E030E0D6E0750D8B402D0AD
:1052A800020E01D0000E0F6E0FC00EF01AD0000EC5
:1052B800106E130E106401D013D010C001F00E5000
:1052C800B7EC3BF0086E0D50010DF3500524D96E74
:1052D800F4500620DA6E08C0DFFF0D2A102AE9D73D
:1052E8000E2A0F50086E096A020E0826000E0922BF
:1052F8000E500A6E0B6A08500A5C0B50800A0C6E3E
:105308000950800A0C58D8B01200D1D72D0E0001D0
:10531800B16FBCC01EF0FD0E1E16D8A444D0BCC090
:105328001EF0D8901E323F0E1E161E50040D000EA1
:10533800F3249A6F0D0EF4209B6F9AC098F09BC0CF
:1053480099F0040E9819986F9951996F9AC0D9FFDE
:105358009BC0DAFFDF30E8320F0B0D0AD8A420D04B
:10536800300E016E0D0E026E20EE02F09A51D92613
:105378009B51DA22DECF1EF0DDCF1FF01EC003F0F6
:105388001FC004F003500410D8A4200E056E000EB0
:10539800076E080E066E72EC34F099EC2DF01200D0
:1053A80037EC35F012000001BC51FD0B040AD8A4FB
:1053B8001200E6EC26F01200000E0D01386F000E08
:1053C800396F39D00001698F0001B505D8A43ED0E6
:1053D8000D0138833BD00001698F38D00001698FF7
:1053E8000D0134BF0AD034510F0B016E0150020D6C
:1053F800720EF324D96E000E09D034510F0B016ED2
:105408000150020D6C0EF324D96E000EF420DA6EF2
:10541800DECF02F0DDCF03F002C0D9FF03C0DAFF10
:10542800DFAE14D002C0D9FF03C0DAFFDFA40ED06C
:10543800010E386F0BD030511F0B000AD8B4C2D7F9
:10544800010AD8B4C8D7030AD8B4C8D7000169AFCD
:105458001200380E666F0D0E676F6981020E6A6F53
:105468001200200E5F6001D0120065B21200000128
:105478008A518B11D8B406D08AC0D9FF8BC0DAFF05
:10548800DFBE120088518911D8B406D088C0D9FF70
:1054980089C0DAFFDFBE1FD0400EFB6FFC6BFBC07C
:1054A800F7F0FCC0F8F0000EFD6FFE6BFDC0F9F0E0
:1054B800FEC0FAF064EC21F0010E016E000E026EDF
:1054C800020E036E400E046E010E63EC20F001C064
:1054D80088F002C089F0400E0001F16F020EF26FF1
:1054E800400EF36F7EEC24F0000E016E400E026E4B
:1054F800020E036E400E046E010E63EC20F001C034
:105508008AF002C08BF01200000E2A6E000E296E7F
:10551800B20E2B6E020E2C6ECCEC3AF0000E306EF2
:10552800000E2F6E020E305CD8B016D0B20E2F24AB
:10553800D96E020E3020DA6E2FC001F030C002F0B2
:105548004FEC25F02E6EDE502E18D8B402D0000E87
:1055580012002F4A302AE6D7000E2A6E010E296E55
:10556800B20E2B6E020E2C6ECCEC3AF0000E306EA2
:10557800000E2F6E020E305CD8B016D0B20E2F245B
:10558800D96E020E3020DA6E2FC001F030C002F062
:1055980018EC0DF02E6EDE502E18D8B402D0000E86
:1055A80012002F4A302AE6D7010E12000AC00EF068
:1055B8000BC00FF00EC001F00FC002F00CC003F0DA
:1055C8000DC004F0A0EC37F001C00EF002C00FF0DF
:1055D800084A092A0E500F10D8A4ECD708C0D9FFE2
:1055E80009C0DAFF000EDF6E0806D8A009060AC057
:1055F80001F00BC002F00CC003F00DC004F018EC71
:1056080039F00150106E0AC001F00BC002F00CC056
:1056180003F00DC004F0A0EC37F001C00AF002C09E
:105628000BF0090E106402D0070E1026300E10265B
:1056380008C0D9FF09C0DAFF10C0DFFF0806D8A0EC
:1056480009060A500B10D8A4D2D7084A092A120012
:1056580047C0D9FF48C0DAFF810EDF6E20EE01F0A7
:105668004750D9264850DA22250EDF6E20EE02F088
:105678004750D9264850DA22C10EDF6E010E452464
:10568800316E000E4620326E090E4524336E000E30
:105698004620346ED0EC28F0496E20EE03F04750D7
:1056A800D9264850DA2249C0DFFF000E4D6E0A0E97
:1056B8004D6401D012004D50496E4A6A010E4926C8
:1056C800000E4A2249504524D96E4A504620DA6EC7
:1056D8004D504B6E4C6A0C0E4B26000E4C224B5014
:1056E8004724E16E4C504820E26EDFCFE7FF4D2A99
:1056F800DED7B60E316E8F0E326EC70E336E8F0E3A
:10570800346ED0EC28F00001FF6FFF29D8B433D0F5
:10571800FF5121EC32F031C078F032C079F033C05B
:105728007AF034C07BF0000E0001856F000E846FA4
:10573800000E7C6F000E7D6F000E7E6F000E7F6F77
:105748000101486949694A694B69000E446F000EB6
:10575800456F000E466F000E476F000E406F000E3B
:10576800416F000E426F000E436F100E0001646F10
:10577800100E656F1200000E786F000E796F000E24
:105788007A6F000E7B6F000E646F000E656F12005B
:10579800000E0001AD6F000EAC6F020EB619D8A452
:1057A8001FD020EE01F09851D9269951DA22080E1F
:1057B800DF6E20EE02F09851D9269951DA22380E80
:1057C800DE6E0D0EDD6E98C0D9FF99C0DAFF480E67
:1057D800DF6E98C0D9FF99C0DAFF000EDB8E120089
:1057E8006A510D01365D00016B510D013759D8B072
:1057F80004D036CD6AF037CD6BF01CEC26F00001F2
:1058080020EE02F06C51D9266D51DA22380EDE6E88
:105818000D0EDD6E6CC0D9FF6DC0DAFF480EDF6E6D
:105828006CC0D9FF6DC0DAFF000EDB8E120001C01C
:10583800D9FF02C0DAFF100EDF6E20EE01F0015032
:10584800D9260250DA22250EDF6E20EE02F0015032
:10585800D9260250DA22C10EDF6E20EE03F0015085
:10586800D9260250DA2239C1DFFF20EE04F00150B8
:10587800D9260250DA223AC1DFFF20EE05F00150A6
:10588800D9260250DA223BC1DFFF20EE06F0015094
:10589800D9260250DA223CC1DFFF20EE07F0015082
:1058A800D9260250DA223DC1DFFF20EE08F0015070
:1058B800D9260250DA223EC1DFFF20EE09F001505E
:1058C800D9260250DA223FC1DFFF12000150036ED1
:1058D8000250046E056A066A03500101085D04500F
:1058E800095905500A5906500B59D8B00ED0000E68
:1058F8000D01886F000E896F000E8A6F000E8B6F86
:1059080008C18CF009C18DF0120000018C51015CB6
:105918008D510258D8B004D001C08CF002C08DF06F
:105928008C51036E8D51046E056A066A031E041EAF
:10593800051E061E032A000E042205220622010166
:10594800085103240D01886F0101095104200D013C
:10595800896F01010A5105200D018A6F01010B5160
:1059680006200D018B6F1200BCEC3DF0889E889CD0
:10597800888A88988896888488928698869A869C49
:10598800869E869086928694869602506A6E01C09C
:105998006BFFFF0E096EFF0E0A6E03C00BF004C00A
:1059A8000CF009500B260A500C220CC00BF00C6AA4
:1059B8000B50666E0304676E8C9E888088B0FED795
:1059C800889A8888889688940650686E05C069FF0A
:1059D800FF0E096EFF0E0A6E07C00BF008C00CF030
:1059E80009500B260A500C220CC00BF00C6A0B5005
:1059F800666E0704676E888088B0FED78C8E1200AA
:105A08000001BE6FBF0E386E000E396E0001BE5128
:105A1800ADEC31F0000E0001DF6F070EDF6501D03D
:105A280014D0DF51010DF3504024D96EF4504120B9
:105A3800DA6EDF51010DBF0EF324E16E000EF42083
:105A4800E26EDFCFE7FFDF2BE8D7000EDF6F020E35
:105A5800DF6501D018D0DF51010DF3504224D96E13
:105A6800F4504320DA6EDF51010D080EF326000EC4
:105A7800F422BF0EF324E16E000EF420E26EDFCFB5
:105A8800E7FFDF2BE4D7BF0E296E000E2A6EBE514A
:105A98001BEC36F01200066E000E076E0D0E086E37
:105AA8000150026E036AD890023603360650046E1F
:105AB800056AD89004360536D89004360536025063
:105AC800042603500522D89004360536D8900436AB
:105AD8000536045007260550082207C0D9FF08C01C
