:040000000EEF00F00F
:0400080004EF48F0C9
:100018000CEF48F03EEF2AF00E500C24D96E0F502A
:100028000D20DA6E3A0EDE18D8B405D00C680D68CB
:100038000E680F681200020E0E24146E000E0F20B8
:10004800156E14500C24D96E15500D20DA6EDF5041
:10005800036E010E0E24166E000E0F20176E16503A
:100068000C24D96E17500D20DA6EDF509FEC3BF050
:10007800186E196A12C0D9FF13C0DAFF18C0DEFF64
:1000880019C0DDFF12C0D9FF13C0DAFF010EDB5023
:1000980004E1110EDE5CD8A009D0FC0E0C6EFF0E38
:1000A8000D6EFF0E0E6EFF0E0F6E1200040E0E2464
:1000B800146E000E0F20156E14500C24D96E1550B6
:1000C8000D20DA6EDF50036E050E0E24166E000E3C
:1000D8000F20176E16500C24D96E17500D20DA6EAB
:1000E800DF50046E060E0E24186E000E0F20196ED7
:1000F80018500C24D96E19500D20DA6EDF50056E99
:10010800030E0E241A6E000E0F201B6E1A500C24BC
:10011800D96E1B500D20DA6EDF5037EC32F020EE2E
:1001280002F01250D9261350DA2203C0DEFF04C0B1
:10013800DDFF20EE04F01250D9261350DA22080E03
:100148000E24146E000E0F20156E14500C24E16E50
:1001580015500D20E26EE750036E070E0E24166E42
:10016800000E0F20176E16500C24E16E17500D204C
:10017800E26EE7509FEC3BF0DF6E000E1C6E3DD048
:100188001C50010D050EF326000EF422F350122424
:10019800D96EF4501320DA6E1C501CC014F0156A86
:1001A8001426000E15220E5014260F5015220A0E82
:1001B8001426000E152214500C24E16E15500D2043
:1001C800E26EE750036E1C501CC016F0176A162624
:1001D800000E17220E5016260F501722090E16264B
:1001E800000E172216500C24E16E17500D20E26EF7
:1001F800E7509FEC3BF0DF6E1C2A12C0D9FF13C0FA
:10020800DAFF1C50166E176ADE50165CDE5017585F
:10021800D8A0B6D720EE15F01250D9261350DA22FE
:100228001C501CC014F0156A1426000E15220E501E
:1002380014260F5015220A0E1426000E15221450EB
:100248000C24E16E15500D20E26EE750036E1C5031
:100258001CC016F0176A1626000E17220E50162616
:100268000F501722090E1626000E172216500C24BE
:10027800E16E17500D20E26EE7509FEC3BF0DF6E09
:1002880012C0D9FF13C0DAFF10EE16F01250E126A3
:100298001350E222DFCFE7FF20EE02F01250D926FA
:1002A8001350DA22DECF14F0DDCF15F015C014F0AC
:1002B800156A20EE16F01250D9261350DA2214507F
:1002C800DF2620EE02F01250D9261350DA22DF5032
:1002D800146E20EE16F01250D9261350DA2214505C
:1002E800DF2620EE04F01250D9261350DA22DF5010
:1002F800146E20EE16F01250D9261350DA2214503C
:10030800DF26000E1C6E17D01C50010D050EF326BB
:10031800000EF422F3501224D96EF4501320DA6E32
:10032800DF50146E20EE16F01250D9261350DA2240
:100338001450DF261C2A12C0D9FF13C0DAFF1C5044
:10034800166E176ADE50165CDE501758D8A0DCD738
:1003580020EE15F01250D9261350DA22DF50146E11
:1003680020EE16F01250D9261350DA221450DF2648
:1003780020EE16F01250D9261350DA22DF50D8B4E6
:1003880009D0FE0E0C6EFF0E0D6EFF0E0E6EFF0EE8
:100398000F6E120020EE04F01250D9261350DA2204
:1003A800DE04D8A409D0000E0C6E000E0D6E000EEF
:1003B8000E6E000E0F6E12001C501CC014F0156A51
:1003C8001426000E15220B0E1424166E000E15208E
:1003D800176E186A17BE18061850196E16500E2692
:1003E80017500F221850102219501122010E0E26F4
:1003F800000E0F22102211220E500C24D96E0F501D
:100408000D20DA6E3A0EDE18D8A409D00EC00CF012
:100418000FC00DF010C00EF011C00FF01200010E49
:100428000E26000E0F22102211220E500C24D96E17
:100438000F500D20DA6E3A0EDE18D8A409D00EC07F
:100448000CF00FC00DF010C00EF011C00FF012002C
:10045800010E0E26000E0F22102211220E500C241F
:10046800D96E0F500D20DA6E3A0EDE18D8A409D0D6
:100478000EC00CF00FC00DF010C00EF011C00FF040
:100488001200FD0E0C6EFF0E0D6EFF0E0E6EFF0EAF
:100498000F6E1200000E00019F6F000E9E6F000E7F
:1004A8000001936F000E946F000E956F000E966F0B
:1004B80047C146F048C147F049C148F04AC149F030
:1004C800461E471E481E491E462A000E472248223D
:1004D80049220101435146244A6E010144514720F3
:1004E8004B6E0101455148204C6E0101465149208F
:1004F8004D6E4D504C104B1004E1320E4A5CD8A0A2
:1005080019D047C130F048C131F049C132F04AC171
:1005180033F0320E346E000E356E000E366E000E5D
:10052800376E400E386E030E396E0001FF51ABEC8A
:1005380013F031D047C130F048C131F049C132F031
:100548004AC133F047C146F048C147F049C148F0B5
:100558004AC149F0461E471E481E491E462A000E3B
:10056800472248224922010143514624346E0101A1
:1005780044514720356E010145514820366E01012E
:1005880046514920376E400E386E030E396E000111
:10059800FF51ABEC13F0400E0C6E030E0D6E000E07
:1005A8000E6E000E0F6E000E106E000E116E990E7C
:1005B800126E010E136E10EC00F00CC093F00DC01B
:1005C80094F00EC095F00FC096F00101704B712B9E
:1005D800F10E0001935DFF0E00019459FF0E00011A
:1005E8009559FF0E00019659D8A007D0400E00017A
:1005F800E66F400E0001E76F120000019351010100
:100608004727000194510101482300019551010138
:1006180049230001965101014A232BD101019E5122
:1006280001013F6F406B416B426B41C142F140C1D8
:1006380041F13FC140F101013F6B01019F510101AF
:100648003F1341C142F140C141F13FC140F10101B5
:100658003F6B41C142F140C141F13FC140F101014D
:100668003F6B26D780C19BF0000E0101806F01010E
:100678009B5101013F250001976F01019C51010128
:1006880040210001986F000E010141210001996F7E
:10069800000E0101422100019A6F00019B510001E7
:1006A8009725016E000E00019821026E000E0001D0
:1006B8009921036E000E00019A21046EADEC3BF007
:1006C80001C08FF002C090F000019B5100019725F6
:1006D800016E000E00019821026E000E00019921A2
:1006E800036E000E00019A21046E00019B51000860
:1006F80001019925056ED8EC27F00009D8A4D8D6B1
:1007080000019E5100019F11D8A410D08FC09EF007
:1007180090C09FF09EC016F09FC017F051EC38F0C3
:10072800CFEC3CF001C08DF002C08EF09BC09CF075
:1007380000019D6B77D000019C5100019725016E47
:1007480000019D5100019821026E000E00019921BF
:10075800036E000E00019A21046EADEC3BF000011F
:100768009E51011836E100019F510218D8A431D0DA
:1007780000019C5100019725096E00019D5100015F
:1007880098210A6E000E000199210B6E000E0001DF
:100798009A210C6E9EC00DF09FC00EF0A3EC33F0B2
:1007A80009C091F00AC092F09E0E00019C25D96EF6
:1007B800010E00019D21DA6E0001915100018D2585
:1007C800E16E0001925100018E21E26EDFCFE7FF5A
:1007D80026D0000193510101475F000194510101A6
:1007E800485B000195510101495B000196510101E7
:1007F8004A5B01017007D8A071079CC080F19EC0B8
:1008080003F09FC004F09BEC39F09EC003F09FC03A
:1008180004F056EC30F001016C4B6D2B1200000116
:100828009C4B9D2B0101995100019C5D01019A513E
:1008380000019D59D8B03CD67ED700019E510001D9
:100848009F11D8B412009EC003F09FC004F09BEC27
:1008580039F09EC003F09FC004F056EC30F001015F
:100868006C4B6D2B600E0001E66F600E0001E76FA8
:10087800120001019D51000AD8B4F4D6010AD8B477
:10088800DCD7050AD8B4CAD613D6D1D1D7EC15F01F
:100898000009D8A412000001F969120063EC0EF0F7
:1008A8000009D8A412000001F96912000001F80536
:1008B800D8A403D00001F969120012C177F113C15D
:1008C80076F176C10BF077C10CF00D6A0E6A38EC40
:1008D80023F00009D8A41200000E026E240E016E47
:1008E80001EC2CF0000E016E060E026E490E036E2E
:1008F8008F0E046E03500410D8A4000E056E000E6F
:10090800076E240E066E3EEC33F0FD0E0001F96F03
:100918001200C7C101F0C8C102F001D80AD0050011
:10092800FA6E0101BB51FD6EBC51FE6EFF6AFA50B2
:10093800120001C043F002C044F003C045F004C0F7
:1009480046F0C7C101F0C8C102F001D80AD00500BD
:10095800FA6E0101BD51FD6EBE51FE6EFF6AFA507E
:10096800120001C03FF002C040F0416A426A26EE20
:1009780000F046C0DFFF26EE01F045C0DFFF26EE9F
:1009880002F044C0DFFF26EE03F043C0DFFF26EE8F
:1009980004F042C0DFFF26EE05F041C0DFFF26EE7F
:1009A80006F040C0DFFF26EE07F03FC0DFFF000E75
:1009B8000101776F080E766F000E026E080E016E49
:1009C80001EC2CF0FD0E0001F96F12000001F80592
:1009D800D8A403D00001F9691200000E0101776F55
:1009E800120E766F000E026E120E016E01EC2CF0E4
:1009F800000E476E110E476401D014D04750010D08
:100A08001F0EF324D96E010EF420DA6E4750010D43
:100A1800000EF324E16E060EF420E26EDFCFE7FF4E
:100A2800472AE8D7FD0E0001F96F1200030EE8CF40
:100A380000F6000EE8CF01F6C7C101F0C8C102F008
:100A480001D80AD00500FA6E0101C351FD6EC451E8
:100A5800FE6EFF6AFA5012000009D8A404D0000EF6
:100A68003D6E000E03D0000E3D6E800E3C6E26EEED
:100A780002F03CC0DFFF000EE8CF03F6000E0101D4
:100A8800776F040E766F000E026E040E016E01EC95
:100A98002CF0FD0E0001F96F120001012151F00B3D
:100AA8000509216F200E01012B6F000E01012C6F2B
:100AB800010E0D018C6F000E0D01886F000E896FFD
:100AC800000E8A6F000E8B6F0001F9691200000E8C
:100AD8000B6E000E0C6E000E0D6E000E0E6E38ECD6
:100AE80023F00009D8A41200010121510F0B060AB6
:100AF800D8A407D00D018C05D8A403D00001F9694A
:100B0800120090EC2FF0000E0D01886F000E896F17
:100B1800000E8A6F000E8B6F0001F9691200000E3B
:100B28000D01886F000E896F000E8A6F000E8B6FA3
:100B38000001F96912000001F4510001F511D8B45F
:100B480007D0F4C0D9FFF5C0DAFF0001DFBE1200FC
:100B580001010B5101010A110101091105E1400EC2
:100B68000101085DD8A00AD0400E3E6E400E01017A
:100B7800085F000E095B0A5B0B5B0BD008C13EF0F7
:100B8800000E0101086F000E096F000E0A6F000EBB
:100B98000B6F3E503A6E3B6A3A500101765D3B500E
:100BA80001017759D8A006D03E500101765F000EAA
:100BB800775B1DD0000E476E16D0010176510101FA
:100BC8007711D8B405D001017607D8A077070AD0E5
:100BD8004750010D000EF324D96E060EF420DA6E8C
:100BE800000EDF6E472A3E50475CD8A0E6D7010EBC
:100BF800016E000E026E060E036E3EC004F0020E79
:100C0800B7EC22F001C0F4F002C0F5F00101085180
:100C18000101091101010A1101010B11D8A41200E7
:100C28000001F96912007F0EE8EC1EF012000001C5
:100C3800F951000AD8B44BD7030AD8B4C7D6110A59
:100C4800D8B434D6080AD8B4F1D6010AD8B467D7CC
:100C5800050AD8B422D73B0AD8B45BD60D0AD8B453
:100C680015D6020AD8B41AD6050AD8B458D7D20A63
:100C7800D8B461D7030AD7D7C7D101C0D9FF02C0FA
:100C8800DAFF000EDE6E000EDD6E20EE02F001507F
:100C9800D9260250DA220B0EDE6E000EDD6E20EE33
:100CA80004F00150D9260250DA22040EDF6E20EE3D
:100CB80005F00150D9260250DA22000EDE6E000E31
:100CC800DD6E20EE07F00150D9260250DA220B0E15
:100CD800DE6E000EDD6E20EE09F00150D9260250BE
:100CE800DA22040EDF6E20EE0AF00150D9260250F7
:100CF800DA22000EDE6E000EDD6E120001C0D9FF92
:100D080002C0DAFF000EDE6E000EDD6E20EE02F08D
:100D18000150D9260250DA22110EDE6E000EDD6E69
:100D280020EE04F00150D9260250DA22050EDF6EBB
:100D380020EE05F00150D9260250DA22000EDE6EB0
:100D4800000EDD6E20EE07F00150D9260250DA229F
:100D5800110EDE6E000EDD6E20EE09F00150D92670
:100D68000250DA22050EDF6E20EE0AF00150D92675
:100D78000250DA22000EDE6E000EDD6E120001C097
:100D8800D9FF02C0DAFF000EDE6E000EDD6E20EE27
:100D980002F00150D9260250DA22DB0EDE6E160E62
:100DA800DD6E20EE04F00150D9260250DA220F0E33
:100DB800DF6E20EE05F00150D9260250DA22000E2F
:100DC800DE6E000EDD6E20EE07F00150D9260250CF
:100DD800DA22DB0EDE6E160EDD6E20EE09F0015013
:100DE800D9260250DA220F0EDF6E20EE0AF00150EB
:100DF800D9260250DA22000EDE6E000EDD6E1200D9
:100E080001C0D9FF02C0DAFF000EDE6E000EDD6EF3
:100E180020EE02F00150D9260250DA22DB0EDE6EF7
:100E2800160EDD6E20EE04F00150D9260250DA22AB
:100E38000F0EDF6E20EE05F00150D9260250DA229F
:100E4800000EDE6E000EDD6E20EE07F00150D92692
:100E58000250DA22DB0EDE6E160EDD6E20EE09F091
:100E68000150D9260250DA220F0EDF6E20EE0AF06A
:100E78000150D9260250DA22000EDE6E000EDD6E19
:100E8800120001C0D9FF02C0DAFF370EDE6ECA0EAB
:100E9800DD6E20EE02F00150D9260250DA22290E2A
:100EA800DE6ED30EDD6E20EE04F00150D92602501E
:100EB800DA220D0EDF6E20EE05F00150D926025021
:100EC800DA22370EDE6ECA0EDD6E20EE07F0015014
:100ED800D9260250DA22290EDE6ED30EDD6E20EE00
:100EE80009F00150D9260250DA220D0EDF6E20EEED
:100EF8000AF00150D9260250DA22000EDE6E000EEA
:100F0800DD6E120001C0D9FF02C0DAFF370EDE6EB7
:100F1800CA0EDD6E20EE02F00150D9260250DA2208
:100F2800290EDE6ED30EDD6E20EE04F00150D926B8
:100F38000250DA220D0EDF6E20EE05F00150D926A0
:100F48000250DA22370EDE6ECA0EDD6E20EE07F092
:100F58000150D9260250DA22290EDE6ED30EDD6E3C
:100F680020EE09F00150D9260250DA220D0EDF6E6C
:100F780020EE0AF00150D9260250DA22000EDE6E69
:100F8800000EDD6E120001C0D9FF02C0DAFF370E75
:100F9800DE6ECA0EDD6E20EE02F00150D926025038
:100FA800DA22290EDE6ED30EDD6E20EE04F001503B
:100FB800D9260250DA220D0EDF6E20EE05F0015020
:100FC800D9260250DA22370EDE6ECA0EDD6E20EE0A
:100FD80007F00150D9260250DA22290EDE6ED30E10
:100FE800DD6E20EE09F00150D9260250DA220D0EEE
:100FF800DF6E20EE0AF00150D9260250DA22000EE8
:10100800DE6E000EDD6E12000350000AD8B435D62D
:10101800010AD8B473D6030AD8B4B1D6010AD8B431
:10102800EFD6070AD8B42DD7010AD8B46BD7030A6C
:10103800D8A41200A8D72250211011E1800E205CFC
:10104800D8B00DD01FC019F020C01AF01B6A1C6A56
:1010580023C01DF024C01EF07CEC29F012001F04F0
:10106800E10E2058F50E2158050E2258D8A04CD074
:1010780023C011F024C012F01FC001F020C002F0FC
:1010880021C003F022C004F0100E056E270E066E74
:10109800000E076E000E086E15EC30F001C013F05C
:1010A80002C014F0000E166E0A0E156E0FEC38F022
:1010B800050E2324116E000E2420126E1FC001F0AD
:1010C80020C002F021C003F022C004F0100E056E0B
:1010D800270E066E000E076E000E086ED8EC32F072
:1010E80001C013F002C014F0000E166E0A0E156E41
:1010F8000FEC38F020EE09F02350D9262450DA22DC
:10110800200EDF6E090E1200225008E1810E1F5CCE
:10111800960E2058980E2158D8A04CD023C011F014
:1011280024C012F01FC001F020C002F021C003F05B
:1011380022C004F0100E056E270E066E000E076E14
:10114800000E086E15EC30F001C013F002C014F068
:10115800000E166E0A0E156E0FEC38F0040E2324DE
:10116800116E000E2420126E1FC001F020C002F084
:1011780021C003F022C004F0100E056E270E066E83
:10118800000E076E000E086ED8EC32F001C013F0A6
:1011980002C014F0000E166E0A0E156E0FEC38F031
:1011A80020EE08F02350D9262450DA22200EDF6ED4
:1011B800080E1200225008E1410E1F5C420E205812
:1011C8000F0E2158D8A04CD023C011F024C012F023
:1011D8001FC001F020C002F021C003F022C004F0BB
:1011E800100E056E270E066E000E076E000E086EB6
:1011F80015EC30F001C013F002C014F0000E166EAA
:101208000A0E156E0FEC38F0030E2324116E000E33
:101218002420126E1FC001F020C002F021C003F08C
:1012280022C004F0100E056E270E066E000E076E23
:10123800000E086ED8EC32F001C013F002C014F0B2
:10124800000E166E0A0E156E0FEC38F020EE07F041
:101258002350D9262450DA22200EDF6E070E120002
:10126800225008E1A10E1F5C860E2058010E21585D
:10127800D8A04CD023C011F024C012F01FC001F038
:1012880020C002F021C003F022C004F0100E056E49
:10129800270E066E000E076E000E086E15EC30F075
:1012A80001C013F002C014F0000E166E0A0E156E7F
:1012B8000FEC38F0020E2324116E000E2420126E5B
:1012C8001FC001F020C002F021C003F022C004F0CA
:1012D800100E056E270E066E000E076E000E086EC5
:1012E800D8EC32F001C013F002C014F0000E166EF4
:1012F8000A0E156E0FEC38F020EE06F02350D926B2
:101308002450DA22200EDF6E060E120023C011F0E0
:1013180024C012F01FC001F020C002F021C003F069
:1013280022C004F0100E056E270E066E000E076E22
:10133800000E086E15EC30F001C013F002C014F076
:10134800000E166E0A0E156E0FEC38F0010E2324EF
:10135800116E000E2420126E1FC001F020C002F092
:1013680021C003F022C004F0100E056E270E066E91
:10137800000E076E000E086ED8EC32F001C013F0B4
:1013880002C014F0000E166E0A0E156E0FEC38F03F
:1013980020EE05F02350D9262450DA22200EDF6EE5
:1013A800050E1200200E0001FC6101D0120065B28A
:1013B80012000101745101017511D8B4C8D074C16B
:1013C800D9FF75C1DAFF0101DFBE1200C0D05A5043
:1013D8005B10D8B406D05AC0D9FF5BC0DAFFDFBEB5
:1013E800D0D0A6EC37F0010E016EB40E026E020EDC
:1013F800036E400E046E010EB7EC22F0A3D05A50D3
:101408005B10D8B406D05AC0D9FF5BC0DAFFDFBE84
:10141800B8D0EFEC36F0010E016EB40E026E020E7B
:10142800036E400E046E010EB7EC22F08BD05A50BA
:101438005B10D8B406D05AC0D9FF5BC0DAFFDFBE54
:10144800A0D0C9EC36F0010E016EB40E026E020E89
:10145800036E400E046E010EB7EC22F073D05A50A2
:101468005B10D8B406D05AC0D9FF5BC0DAFFDFBE24
:1014780088D04BEC2DF0010E016EB40E026E020EF8
:10148800036E400E046E010EB7EC22F05BD05A508A
:101498005B10D8B406D05AC0D9FF5BC0DAFFDFBEF4
:1014A80070D011EC31F0010E016EB40E026E020E16
:1014B800036E400E046E010EB7EC22F043D08C741C
:1014C80060D05A505B10D8B406D05AC0D9FF5BC060
:1014D800DAFFDFBE56D0810E0201B46F80A002D0C1
:1014E800010E01D0000E0201B56F010E016EB40E9F
:1014F800026E020E036E400E046E010EB7EC22F06F
:1015080021D05A505B10D8B406D05AC0D9FF5BC05E
:10151800DAFFDFBE36D0370E0201B46F120E366E18
:10152800340E356E35C0B5F236500201B66F010E75
:10153800016EB40E026E020E036E400E046E010EB2
:10154800B7EC22F001C05AF002C05BF01AD00301D8
:101558000051100AD8B43BD7010AD8B450D7030AAF
:10156800D8B465D7010AD8B47AD7070AD8B48FD7C0
:10157800230AD8B4C6D7B70AD8B4A1D7010AD8B4B1
:10158800A0D7010E74D03750010D000EF324D96E88
:10159800030EF420DA6EDF504AEC39F0372A84D093
:1015A80037502D6E2E6A010E2D26000E2E22000EAB
:1015B8002D24D96E030E2E20DA6EDF50026E3750BE
:1015C800010D000EF324D96E030EF420DA6EDF50FD
:1015D800D3EC33F0020E48D037502D6E2E6A010E30
:1015E8002D26000E2E22000E2D24D96E030E2E203D
:1015F800DA6EDF50046E37502F6E306A020E2F26D7
:10160800000E3022000E2F24D96E030E3020DA6E21
:10161800DF50056E3750316E326A030E3126000EE8
:101628003222000E3124D96E030E3220DA6EDF50DA
:10163800066E3750336E346A040E3326000E342299
:10164800000E3324D96E030E3420DA6EDF50076E95
:101658003750010D000EF324D96E030EF420DA6E14
:10166800DF5055EC1EF0050E37261ED0410E376EA2
:101678001BD03750010D000EF324D96E030EF42051
:10168800DA6EDF50F00B2D6E2E6A2E50000AD8A4A9
:10169800EDD72D50300AD8B476D7700AD8B480D791
:1016A800200AD8B499D7E2D73D0E3764E2D7000EA6
:1016B800016E000E026E030E036E400E046E010EE4
:1016C800B7EC22F001C074F102C075F11200000EEF
:1016D8004F6E000E506E000E516E000E526E0001DD
:1016E800FF51C6EC31F028C043F129C044F12AC0AB
:1016F80045F12BC046F1000E4E6E4E50D8A4120094
:1017080047C146F048C147F049C148F04AC149F0CD
:10171800461E471E481E491E462A000E47224822DA
:1017280049220101435146244A6E01014451472090
:101738004B6E0101455148204C6E0101465149202C
:101748004D6E4D504C104B1004E1320E4A5CD8A03F
:1017580019D047C130F048C131F049C132F04AC10F
:1017680033F0320E346E000E356E000E366E000EFB
:10177800376E400E386E030E396E0001FF51ABEC28
:1017880013F031D047C130F048C131F049C132F0CF
:101798004AC133F047C146F048C147F049C148F053
:1017A8004AC149F0461E471E481E491E462A000ED9
:1017B800472248224922010143514624346E01013F
:1017C80044514720356E010145514820366E0101CC
:1017D80046514920376E400E386E030E396E0001AF
:1017E800FF51ABEC13F0400E0C6E030E0D6E000EA5
:1017F8000E6E000E0F6E000E106E000E116E990E1A
:10180800126E010E136E10EC00F00CC04FF00DC0FC
:1018180050F00EC051F00FC052F00101704B712B07
:10182800040E01019D19D8A423D001019E51010184
:101838003F6F406B416B426B41C142F140C141F186
:101848003FC140F101013F6B01019F5101013F136D
:1018580041C142F140C141F13FC140F101013F6B3B
:1018680041C142F140C141F13FC140F101013F6B2B
:1018780001019D51D8A457D001019B5101013F2579
:10188800536E01019C5101014021546E000E01016B
:101898004121556E000E01014221566E01014F5142
:1018A800535C0101505154580101515155580101DF
:1018B80052515658D8B008D053C04FF154C050F1C7
:1018C80055C051F156C052F1535001014B5D54506F
:1018D80001014C59555001014D59565001014E59BD
:1018E800D8B008D053C04BF154C04CF155C04DF19D
:1018F80056C04EF153C001F054C002F055C003F079
:1019080056C004F099C105F0D8EC27F0FF0AD8A416
:101918000AD00B0E0101816F400E0001E66F400EE8
:101928000001E76F12004F50501051105210D8A408
:101938002AD070C16EF171C16FF1000E0101716F93
:10194800000E706F000E0101476F000E486F000E09
:10195800496F000E4A6F000E01013F6F000E406F85
:10196800000E416F000E426F000E01016D6F000EF8
:101978006C6F000E0101806F300E0001E66F300EB3
:101988000001E76F1200F10E4F5CFF0E5058FF0E7A
:101998005158FF0E5258D8A009D04F500F0B0101D3
:1019A800816F400E0001E66F400EEAD74F500101EB
:1019B80047275050010148235150010149235250F3
:1019C80001014A234E2A99D6000E256E17D02550BC
:1019D800010DE90EF324F66E8D0EF420F76EF86A09
:1019E800000EF8222550010D640EF324D96E020E64
:1019F800F420DA6E0800F5CFDFFF252A2550010D07
:101A0800E90EF324F66E8D0EF420F76EF86A000ED8
:101A1800F8220800F5500009D8A4D9D7000E256E81
:101A280017D02550010D420EF324F66E8D0EF420CA
:101A3800F76EF86A000EF8222550010D780EF3248F
:101A4800D96E020EF420DA6E0800F5CFDFFF252AE2
:101A58002550010D420EF324F66E8D0EF420F76E1C
:101A6800F86A000EF8220800F5500009D8A4D9D762
:101A7800000E256ED6D02550010D0A0EF324F66E01
:101A88008D0EF420F76EF86A000EF8222550010D2D
:101A98008C0EF324D96E020EF420DA6E0800F5CF0E
:101AA800DFFF252A2550010D0A0EF324F66E8D0E50
:101AB800F420F76EF86A000EF8220800F5500009C5
:101AC800D8B4C0D0D8D72550010D290EF324F66E0E
:101AD8008E0EF420F76EF86A000EF8222550010DDC
:101AE8008C0EF324D96E020EF420DA6E0800F5CFBE
:101AF800DFFF252A2550010D290EF324F66E8E0EE0
:101B0800F420F76EF86A000EF8220800F550000974
:101B1800D8B498D0D8D72550010D380EF324F66ED6
:101B28008E0EF420F76EF86A000EF8222550010D8B
:101B38008C0EF324D96E020EF420DA6E0800F5CF6D
:101B4800DFFF252A2550010D380EF324F66E8E0E80
:101B5800F420F76EF86A000EF8220800F550000924
:101B6800D8B470D0D8D72550010D470EF324F66E9F
:101B78008E0EF420F76EF86A000EF8222550010D3B
:101B88008C0EF324D96E020EF420DA6E0800F5CF1D
:101B9800DFFF252A2550010D470EF324F66E8E0E21
:101BA800F420F76EF86A000EF8220800F5500009D4
:101BB800D8B448D0D8D72550010DE20EF324F66EDC
:101BC8008C0EF420F76EF86A000EF8222550010DED
:101BD8008C0EF324D96E020EF420DA6E0800F5CFCD
:101BE800DFFF252A2550010DE20EF324F66E8C0E38
:101BF800F420F76EF86A000EF8220800F550000984
:101C0800D8A4D9D7BBEC3CF001C01FF002C020F02B
:101C1800216A226AAE0E236E020E246E1FEC08F0B3
:101C280011D0E5EC3CF00B0AD8B4DCD7070AD8B4DD
:101C3800B1D7010AD8B486D7030AD8B45BD7010A4A
:101C4800D8B430D7000E256E17D02550010D6B0E75
:101C5800F324F66E8E0EF420F76EF86A000EF82262
:101C68002550010DA00EF324D96E020EF420DA6E71
:101C78000800F5CFDFFF252A2550010D6B0EF32450
:101C8800F66E8E0EF420F76EF86A000EF822080041
:101C9800F5500009D8A4D9D7C0EC3CF001C019F020
:101CA80002C01AF01B6A1C6A2550010DA00EF3240D
:101CB8001D6E020EF4201E6E7CEC29F0120064D119
:101CC80011C15EF112C15DF113C15CF114C15BF188
:101CD80016C177F117C176F101017651306E010115
:101CE8007751316E326A336A090ED8903036313600
:101CF80032363336E82EF9D730C00BF031C00CF04D
:101D080032C00DF033C00EF038EC23F00009D8A42F
:101D18004DD1C7C101F0C8C102F001D80AD00500F1
:101D2800FA6E0101C351FD6EC451FE6EFF6AFA508E
:101D380012000009D8B419D0010E0D018C6F0101F1
:101D48002151F00B0709216F270E01012B6F000E9F
:101D580001012C6F000E016E020E34EC22F0000E11
:101D680001018B6F01018B511200010E01018D6F72
:101D78000101765101017711D8B402D1030E010196
:101D88008B6F000E01017C6F060E01017D6F000E46
:101D98000D01886F020E896F000E8A6F000E8B6F1F
:101DA8000D0188510D0189110D018A110D018B1149
:101DB800D8B420D00001F6510001F711D8B407D0EB
:101DC800F6C0D9FFF7C0DAFF0001DFBEEFD0000E82
:101DD800016E7CC102F07DC103F0400E046E020E5C
:101DE800B7EC22F001C0F6F002C0F7F0040E0101D2
:101DF8008B6F23D0C7C101F0C8C102F001D80AD047
:101E08000500FA6E0101C351FD6EC451FE6EFF6AF2
:101E1800FA5012000009D8B40ED0010E0D018C6FD3
:101E280001012151F00B0209216F270E01012B6FCF
:101E3800000E01012C6F020EA4D00001F651000122
:101E4800F711D8B407D0F6C0D9FFF7C0DAFF000100
:101E5800DFBEACD0000120EE01F0F651D926F751D3
:101E6800DA22DF50306E30C031F0326A336A346AB9
:101E780031500101085F32500101095B3350010103
:101E88000A5B345001010B5B000120EE01F0F651B2
:101E9800D926F751DA22DF50306E30C031F0326A7D
:101EA800336A346A31500D01885F32500D01895B05
:101EB80033500D018A5B34500D018B5B400E0101DC
:101EC8007C27000E7D23030E5CD00D018C51D8A415
:101ED80042D0C7C125F0C8C126F05BC127F05CC15C
:101EE80028F05DC129F05EC12AF0000E2B6E060EA7
:101EF8002C6E01015B5101015C1101015D110101B1
:101F08005E11D8A402D0010E01D0000E2D6E01D8AA
:101F18000AD00500FA6E0101C551FD6EC651FE6E6C
:101F2800FF6AFA501200E806D8B415D0640E010111
:101F38008A6103D001018A2B39D0010E0D018C6F03
:101F480001012151F00B0309216F000E01012B6FD4
:101F5800000E01012C6F010E01015B27000E5C23AE
:101F68005D235E2301017607D8A07707010E09D00B
:101F7800020E0D018C6F000E016E020E34EC22F081
:101F8800000E01018B6F12D001018B51000AD8B4E9
:101F980097D6010AD8B4ECD6030AD8B496D7010A62
:101FA800D8B4FED6070AD8B448D7E2D701018B5176
:101FB80012000D013205D8A412D00D0130511F0BAB
:101FC8000009D8A40CD00001EB8F030E0D013119C4
:101FD800D8A402D0010E01D0000E0101976F0D01A7
:101FE8003251D8A412000D0130511F0B020AD8A497
:101FF80012000D0134510F0B0009D8B412000D0165
:1020080034510F0B186E030E18601200200E0001D9
:10201800FC19D8A412000001EB8F0D0134BF1BD0AE
:102028000D0134510F0B186E1850020D390EF324A0
:10203800D96E010EF420DA6EDECF1CF0DDCF1DF074
:102048000D0134510F0B186E1850010D660EF32454
:10205800D96E010E1AD00D0134510F0B186E18509D
:10206800020DEE0EF324D96E000EF420DA6EDECFE8
:102078001CF0DDCF1DF00D0134510F0B186E1850F8
:10208800010D690EF324D96E010EF420DA6EDF50CB
:102098001B6E1BB006D0FB0E1C141C6EFF0E1D140D
:1020A80004D0040E1C101C6E1D501D6E0D0134BF93
:1020B8000BD00D0134510F0B186E1850020D390E4C
:1020C800F324D96E010E0AD00D0134510F0B186E8E
:1020D8001850020DEE0EF324D96E000EF420DA6EBD
:1020E8001CC0DEFF1DC0DDFF030E0D013119D8A491
:1020F8002FD01CC0D9FF1DC0DAFFDFAE1CD00D01E8
:1021080034BF0BD00D0134510F0B186E1850010D50
:10211800660EF324D96E010E0AD00D0134510F0B4F
:10212800186E1850010D690EF324D96E010EF420B3
:10213800DA6E0101DF821CC0D9FF1DC0DAFF000E74
:10214800DB841CC0D9FF1DC0DAFF000EDB8E120035
:10215800040E1C181C6E1D501D6E1CC0D9FF1DC01E
:10216800DAFFDFAE1BD01CC0D9FF1DC0DAFF7F0E1F
:10217800DF161CC0D9FF1DC0DAFF000EDB8C000E75
:10218800116E050E106E1CC012F01DC013F0000E6B
:10219800156E020E146E4DEC2FF006D01CC0D9FF40
:1021A8001DC0DAFF000EDB8C040E1C181C6E1D50BF
:1021B8001D6E1BB206D01CC0D9FF1DC0DAFFDFAEF2
:1021C80031D00D0134BF0BD00D0134510F0B186EF7
:1021D8001850010D660EF324D96E010E0AD00D01B8
:1021E80034510F0B186E1850010D690EF324D96E77
:1021F800010EF420DA6E0101DF921CC0D9FF1DC068
:10220800DAFF3B0EDF16000E116E050E106E1CC0B5
:1022180012F01DC013F0000E156E020E146E4DEC78
:102228002FF006D01CC0D9FF1DC0DAFF3B0EDF1609
:102238000D0134510F0B186E1850010D260EF324A2
:10224800196E0F0EF4201A6E19C0D9FF1AC0DAFFE2
:10225800FE0EDF161200200E0001FC19D8A4120091
:1022680033D10001F6510001F711D8B407D0F6C0F8
:10227800D9FFF7C0DAFF0001DFBE1200000E526E70
:102288001E0E526401D014D05250010D400EF3249A
:10229800D96E0D0EF420DA6E5250010D000EF324A3
:1022A800E16E010EF420E26EDFCFE7FF522AE8D795
:1022B800000120EE01F0F651D926F751DA221F0E5F
:1022C800DE18D8A483D0550E010100197FE1530E02
:1022D800010101197BE1420E0101021977E1430E68
:1022E80001010319D8A472D0010E0101876F010101
:1022F8000D51D8A460D0110E01010E615CD001010E
:102308000E51D8B458D00CC14DF03F0E4D16D8A47C
:1023180052D0550E0D01806F530E816F420E826FA1
:10232800530E836F04C184FD05C185FD06C186FD7A
:1023380007C187FD000E0D01886F000E896F000E22
:102348008A6F000E8B6F000E0D018C6F0001F9690A
:10235800000E01018C6F000E01018B6F000E010150
:102368008A6F030E01010F19D8B40BD00101219116
:10237800219321952197000E01012B6F000E010179
:102388002C6F01010CAF02D0010E01D0020E010129
:102398008D6F010108510101091101010A110101A3
:1023A8000B11D8B402D0000E01D0010E0001F86F55
:1023B8000FC1F9F01200010E016E020E34EC22F08A
:1023C800000E016E020E34EC22F01200010E016EB6
:1023D800020E34EC22F0000E016E020E34EC22F0F4
:1023E800000E0101876F120079EC1FF0FF0AD8A4D4
:1023F8001200030E01018D6F120079EC1FF0FF0A25
:10240800D8A412000D018C51D8A40DD00D0188510B
:102418000D0189110D018A110D018B11D8B403D05A
:10242800020E0D018C6F030E01018D6F1200F2C0B8
:102438004EF0F3C04FF04E504F10D8B40AD0F2C04F
:1024480050F0F3C051F050C0D9FF51C0DAFFDFBEE1
:102458001200010E016E800E026E0D0E036E0D0E3F
:10246800046E020EB7EC22F001C0F4F002C0F5F0E1
:102478000001F6510001F711D8B407D0F6C0D9FF12
:10248800F7C0DAFF0001DFBE0FD0000E016E400E6C
:10249800026E0D0E036E400E046E020EB7EC22F0B3
:1024A80001C0F6F002C0F7F0000E01018D6F1200B6
:1024B800000E01018D6F020E0D018C6F000E016E72
:1024C800020E34EC22F0120001018D51000AD8B43A
:1024D800C8D6010AD8B488D7030AD8B48ED7010A57
:1024E800D8B4A5D7E5D793D0EB0E12003C0E120056
:1024F800900E1200F10EF66E8F0EF76E000EF86E4B
:102508000800F5501200F20EF66E8F0EF76EF86A9C
:102518000800F5501200F30EF66E8F0EF76EF86A8B
:102528000800F5501200F40EF66E8F0EF76EF86A7A
:102538000800F5501200F50EF66E8F0EF76EF86A69
:102548000800F5501200F60EF66E8F0EF76EF86A58
:102558000800F5501200F70EF66E8F0EF76EF86A47
:102568000800F5501200F80EF66E8F0EF76EF86A36
:102578000800F5501200000E1200020E1200010EA3
:102588001200010E1200000E1200010E1200400E81
:102598001200000E1200120E1200100E1200F80E99
:1025A8001200100E1200000E12003F0E1200000E54
:1025B8001200100E1200000E1200000E1200000E83
:1025C8001200000E1200000E1200010E1200000E82
:1025D8001200110E1200000E1200110E1200000E51
:1025E8001200460E1200410E1200540E1200310E57
:1025F8001200360E1200200E1200200E1200200EBD
:102608001200550E1200AA0E1200000E120001C090
:1026180003F002C004F00450000AD8B404D0010A40
:10262800D8B48DD0F2D70350000AD8B45DD7010AC8
:10263800D8B45CD7030AD8B45BD7010AD8B45AD740
:10264800070AD8B460D7010AD8B465D7030AD8B442
:102658006AD7010AD8B46FD70F0AD8B474D7010A59
:10266800D8B479D7030AD8B47ED7010AD8B483D7A7
:10267800070AD8B482D7010AD8B481D7030AD8B4D4
:1026880080D7010AD8B47FD71F0AD8B47ED7010AE9
:10269800D8B47DD7030AD8B47CD7010AD8B47BD77D
:1026A800070AD8B47AD7010AD8B479D7030AD8B4B4
:1026B80078D7010AD8B477D70F0AD8B476D7010AE1
:1026C800D8B475D7030AD8B474D7010AD8B473D765
:1026D800070AD8B472D7010AD8B471D7030AD8B494
:1026E80070D7010AD8B46FD7370AD8B46ED7010AA1
:1026F800D8B46DD7050AD8B46CD7010AD8B46BD74B
:10270800030AD8B46AD7010AD8B469D7190AD8B461
:1027180068D7010AD8B467D70F0AD8B466D7010AB0
:10272800D8B465D7030AD8B464D7010AD8B463D734
:10273800070AD8B462D7010AD8B461D766D703505C
:10274800FE0AD8B45ED7010AD8B45DD75ED70001B7
:10275800626F630E286E000E296E000162512DEC27
:1027680034F07DC083F07EC084F0345030243A6E5B
:10277800355031203B6E365032203C6E3750332076
:102788003D6E3A5000017F5D3B50000180593C503E
:10279800000181593D5000018259D8A01200000E55
:1027A8000001896F000E8A6F000E8B6F000E8C6F10
:1027B80013D083C028F084C029F05EEC37F028C01D
:1027C80083F029C084F0000E00018927020E8A23B5
:1027D800000E8B23000E8C2389C03AF08AC03BF090
:1027E8008BC03CF08CC03DF03A1E3B1E3C1E3D1E8B
:1027F8003A2A000E3B223C223D2230503A243E6EBB
:1028080031503B203F6E32503C20406E33503D20CB
:10281800416E41504010CDE1020E3F5CD8B0C9D79F
:1028280089C03AF08AC03BF03A1E3B1E3A4A3B2A1E
:1028380030503A240001856F31503B200001866FEB
:10284800000E0001896F000E8A6F000E8B6F000E5C
:102858008C6F9BD0020E0001861900018511D8A447
:102868000FD083C028F084C029F05EEC37F028C070
:1028780083F029C084F0000E0001866F000E856F7A
:1028880083C001F084C002F09FEC3CF001C060F00E
:1028980002C061F085C03AF086C03BF03A1E3B1E8C
:1028A8003A4A3B2A000E3A240001876F020E3B2069
:1028B8000001886F000187513A6E000188513B6E14
:1028C8003C6A3D6A89C03EF08AC03FF08BC040F048
:1028D8008CC041F03E1E3F1E401E411E3E2A000E87
:1028E8003F224022412234503E24426E35503F2040
:1028F800436E36504020446E37504120456E3A5062
:10290800425C3B5043583C5044583D504558D8B021
:1029180010D089C03AF08AC03BF03A1E3B1E3A4AB2
:102928003B2A34503A240001876F35503B20000180
:10293800886F60C014F061C015F085C016F086C0BD
:1029480017F087C018F088C019F0000189513824A1
:102958001A6E00018A5139201B6E8AEC31F0000191
:102968008751000189270001885100018A23000E40
:1029780000018B23000E00018C2300018751000108
:102988008527000188510001862334500001895DA4
:10299800355000018A59365000018B5937500001D3
:1029A8008C59D8B0120056D7000E266E000E256E30
:1029B800020E265CD8B010D0DA0E2524D96E030E8C
:1029C8002620DA6E25C001F026C002F0AFEC28F010
:1029D800DF6E254A262AECD7000E216E000E206EE7
:1029E800DA0E226E030E236E15EC37F0000E266EFB
:1029F800000E256E020E265CD8B010D0DA0E252403
:102A0800D96E030E2620DA6E25C001F026C002F02A
:102A180077EC12F0DF6E254A262AECD7000E216EDD
:102A2800010E206EDA0E226E030E236E15EC37F0BF
:102A3800000E266E000E256E020E265CD8B010D051
:102A4800DA0E2524D96E030E2620DA6E25C001F091
:102A580026C002F0DDEC34F0DF6E254A262AECD7DA
:102A6800000E216E020E206EDA0E226E030E236E09
:102A780015EC37F0000E266E000E256E020E265C51
:102A8800D8B00BD0DA0E2524D96E030E2620DA6EC4
:102A9800000EDF6E254A262AF1D7000E266E030E99
:102AA800256E265011E1120E255CD8B00DD025C038
:102AB80020F026C021F0DA0E226E030E236E15ECEC
:102AC80037F0254A262AEDD7000E266E000E256E11
:102AD800020E265CD8B010D0DA0E2524D96E030E6B
:102AE8002620DA6E25C001F026C002F07BEC19F032
:102AF800DF6E254A262AECD7000E216E120E206EB4
:102B0800DA0E226E030E236E15EC37F0000E266ED9
:102B1800000E256E020E265CD8B00BD0DA0E2524E6
:102B2800D96E030E2620DA6E000EDF6E254A262A9D
:102B3800F1D7000E266E130E256E265011E1160EE3
:102B4800255CD8B00DD025C020F026C021F0DA0EC3
:102B5800226E030E236E15EC37F0254A262AEDD790
:102B6800000E266E000E256E020E265CD8B010D020
:102B7800DA0E2524D96E030E2620DA6E25C001F060
:102B880026C002F0B6EC3AF0DF6E254A262AECD7CA
:102B9800000E216E160E206EDA0E226E030E236EC4
:102BA80015EC37F01200E7D011C15EF112C15DF1EA
:102BB80013C15CF114C15BF116C177F117C176F14D
:102BC80001017651366E01017751376E386A396ADC
:102BD800090ED8903636373638363936E82EF9D7D2
:102BE80036C00BF037C00CF038C00DF039C00EF00D
:102BF80038EC23F00009D8A4D0D0010E01018C6F65
:102C08000101765101017711D8B4B1D001017607DD
:102C1800D8A07707020E01018C6F0001F451000162
:102C2800F511D8B407D0F4C0D9FFF5C0DAFF000118
:102C3800DFBEB3D0C7C12CF0C8C12DF05BC12EF0E8
:102C48005CC12FF05DC130F05EC131F0000E326E14
:102C5800060E336E01D80AD00500FA6E0101C15183
:102C6800FD6EC251FE6EFF6AFA501200E806D8B433
:102C78001BD0640E01018A6103D001018A2B8DD01B
:102C8800020E0D018C6F01012151F00B0309216F18
:102C9800000E01012B6F000E01012C6F010E016E59
:102CA800020E34EC22F063D0010E01015B27000E06
:102CB8005C235D235E23000E0D01886F020E896F71
:102CC800000E8A6F000E8B6F000E01017C6F060EDE
:102CD80001017D6F030E01018C6F0D0188510D01FB
:102CE80089110D018A110D018B11D8A402D0010E92
:102CF8003FD0040E01018C6F0001F4510001F51161
:102D0800D8B407D0F4C0D9FFF5C0DAFF0001DFBEA0
:102D180044D0010E016E7CC102F07DC103F0400E6B
:102D2800046E020EB7EC22F001C0F4F002C0F5F018
:102D3800030E01018C6F400E0101085F000E095B54
:102D48000A5B0B5B400E0D01885F000E895B8A5B96
:102D58008B5B400E01017C27000E7D231ED0020EE6
:102D68000D018C6F010E016E020E34EC22F0000E84
:102D780001018C6F12D001018C51000AD8B414D70C
:102D8800010AD8B43DD7030AD8B447D7010AD8B442
:102D9800A4D7070AD8B4B0D7E2D701018C511200E2
:102DA800000E286E17D02850010D190EF324F66E68
:102DB8008E0EF420F76EF86A000EF8222850010DE6
:102DC800640EF324D96E020EF420DA6E0800F5CFF3
:102DD800DFFF282A2850010D190EF324F66E8E0EF7
:102DE800F420F76EF86A000EF8220800F550000982
:102DF800D8A4D9D7000E286E17D02850010D1D0E63
:102E0800F324F66E8D0EF420F76EF86A000EF822A1
:102E18002850010D780EF324D96E020EF420DA6ED4
:102E28000800F5CFDFFF282A2850010D1D0EF324D6
:102E3800F66E8D0EF420F76EF86A000EF822080080
:102E4800F5500009D8A4D9D7000E286E17D02850FD
:102E5800010D980EF324F66E8E0EF420F76EF86AC4
:102E6800000EF8222850010D8C0EF324D96E020EA4
:102E7800F420DA6E0800F5CFDFFF282A2850010D6C
:102E8800980EF324F66E8E0EF420F76EF86A000E94
:102E9800F8220800F5500009D8A4D9D728C027F08F
:102EA80075EC3CF001C01FF002C020F003C021F017
:102EB80004C022F02850010D8C0EF324236E020E5C
:102EC800F420246E1FEC08F02726000E286E1CD074
:102ED8002850010D910EF324F66E8E0EF420F76E35
:102EE800F86A000EF822285027C025F0266A252601
:102EF800000E26228C0E2524D96E020E2620DA6EAC
:102F08000800F5CFDFFF282A2850010D910EF32481
:102F1800F66E8E0EF420F76EF86A000EF82208009E
:102F2800F5500009D8A4D4D7000E286E17D0285021
:102F3800010D540EF324F66E8D0EF420F76EF86A28
:102F4800000EF8222850010DA00EF324D96E020EAF
:102F5800F420DA6E0800F5CFDFFF282A2850010D8B
:102F6800540EF324F66E8D0EF420F76EF86A000EF8
:102F7800F8220800F5500009D8B41200D8D7000E7E
:102F88001F6E17D01F50010DD90EF324F66E8D0E4B
:102F9800F420F76EF86A000EF8221F50010D640E37
:102FA800F324D96E020EF420DA6E0800F5CFDFFFA5
:102FB8001F2A1F50010DD90EF324F66E8D0EF42032
:102FC800F76EF86A000EF8220800F5500009D8A438
:102FD800D9D7000E1F6E17D01F50010D300EF324E5
:102FE800F66E8D0EF420F76EF86A000EF8221F5068
:102FF800010D780EF324D96E020EF420DA6E080063
:10300800F5CFDFFF1F2A1F50010D300EF324F66E97
:103018008D0EF420F76EF86A000EF8220800F550BD
:103028000009D8A4D9D7000E1F6E17D01F50010D64
:10303800830EF324F66E8E0EF420F76EF86A000EF7
:10304800F8221F50010D8C0EF324D96E020EF420C5
:10305800DA6E0800F5CFDFFF1F2A1F50010D830E1F
:10306800F324F66E8E0EF420F76EF86A000EF8223E
:103078000800F5500009D8A4D9D7C0EC3CF001C02D
:1030880019F002C01AF01B6A1C6A1F50010D8C0E41
:10309800F3241D6E020EF4201E6E7CEC29F01F2610
:1030A8001F50010D8C0EF324D96E020EF420DA6E37
:1030B8002F0EDF6E1F2ACAEC3CF001C019F002C0C7
:1030C8001AF01B6A1C6A1F50010D8C0EF3241D6E2A
:1030D800020EF4201E6E7CEC29F0000E1F6E17D035
:1030E8001F50010DC90EF324F66E8D0EF420F76EF5
:1030F800F86A000EF8221F50010DA00EF324D96EB5
:10310800020EF420DA6E0800F5CFDFFF1F2A1F50E9
:10311800010DC90EF324F66E8D0EF420F76EF86AD1
:10312800000EF8220800F5500009D8A4D9D7C5EC3C
:103138003CF001C019F002C01AF01B6A1C6A1F504B
:10314800010DA00EF3241D6E020EF4201E6E7CEC01
:1031580029F012000001FC51D8A415D0000E656EAC
:10316800000E0F01366F160E0F01396F9F0E0F01FB
:10317800376F7B0E0F01366F01D0658665A6FDD7C8
:10318800010E0001FC6F0001FC05D8B465BA0CD033
:10319800000E626E000E0F01366F0F0136810F01AF
:1031A8003689020E0001FC6F62A406D00F0136A515
:1031B80003D062942EEC39F065A202D0A1981200D7
:1031C80062A009D00F0136A106D0BFEC1BF0040E97
:1031D8000001FC6F629062A804D00F0136B9B5EC0B
:1031E80039F062AC1FD00F0136AD0ED0000E116E53
:1031F800730E106E000E126E000E136E000E156E1A
:10320800010E146E4DEC2FF0629CDEEC3AF00101D9
:103218009351D8B402D00101930701019351D8B456
:1032280045EC28F062AA04D00F0136BBCAEC37F08F
:1032380062A212D00F0136A30FD07F0E116E106854
:10324800000E126E000E136E000E156E010E146E37
:103258004DEC2FF0000E636E040E0001FC6102D0ED
:10326800A19812000F0136A740D0000E206E030E61
:10327800206401D03AD062A638D064CFFDF00001B6
:10328800FD31E832E8320F0B0101956F62960001BB
:10329800FDB508D001019551010D660EF324D96ED4
:1032A800010E07D001019551010D690EF324D96E65
:1032B800010EF420DA6E0101DF7001019551010160
:1032C800D8A403D0ABEC2BF00ED0000E116E720E0A
:1032D800106EFD0E126E000E136E000E156E000EAF
:1032E800146E4DEC2FF0202AC2D7A198120002507C
:1032F8001DE1200E015CD8B019D0025010E10B0E70
:10330800015CD8B00CD0DC0E0124F66E8F0E0220C2
:10331800F76EF86A000EF8220800F55012000B0E3E
:1033280001180210D8A402D0080E1200025003E1BE
:10333800400E015CD8B0A4D0200E015E000E025AE7
:10334800025010E1080E015CD8B00CD0E80E012440
:10335800F66E8F0E0220F76EF86A000EF82208004B
:10336800F5501200025046E10B0E015CD8B042D075
:10337800F80E036EFF0E046E01C005F002C006F0E1
:103388000350052604500622FA0E0524F66E8F0E09
:103398000620F76EF86A000EF8220800F5501200B1
:1033A800200E1200060E1200280E1200780E1200CF
:1033B800DE0E1200380E12005F0E12004B0E1200C5
:1033C800000E1200000E1200040E1200770E1200FA
:1033D800DE0E1200380E1200020E1200000E12004D
:1033E8000C0E1200000E1200000E1200000E120049
:1033F800000E120001C003F002C004F00450000ADD
:10340800D8A4F6D703500B0AD8B4CAD7060AD8B43A
:10341800C9D7030AD8B4C8D7010AD8B4C7D71F0A6E
:10342800D8B4C6D7010AD8B4C5D7030AD8B4C4D704
:10343800010AD8B4C3D7070AD8B4C2D7010AD8B486
:10344800C1D7030AD8B4C0D7010AD8B4BFD70F0A66
:10345800D8B4BED7010AD8B4BDD7030AD8B4BCD7EC
:10346800010AD8B4BBD7070AD8B4BAD7010AD8B466
:10347800B9D7030AD8B4B8D7010AD8B4B7D7B8D7D8
:10348800000E1200000E226E17D02250010DF90E08
:10349800F324F66E8D0EF420F76EF86A000EF8220B
:1034A8002250010D640EF324D96E020EF420DA6E58
:1034B8000800F5CFDFFF222A2250010DF90EF32470
:1034C800F66E8D0EF420F76EF86A000EF8220800EA
:1034D800F5500009D8A4D9D7000E226E17D0225073
:1034E800010DCD0EF324F66E8C0EF420F76EF86AFB
:1034F800000EF8222250010D780EF324D96E020E28
:10350800F420DA6E0800F5CFDFFF222A2250010DE1
:10351800CD0EF324F66E8C0EF420F76EF86A000ECA
:10352800F8220800F5500009D8A4D9D7CAEC3CF015
:1035380001C019F002C01AF01B6A1C6A8C0E1D6EBD
:10354800020E1E6E7CEC29F0216E212A000E226EDE
:103558001CD02250010D730EF324F66E8E0EF4204B
:10356800F76EF86A000EF822225021C01FF0206A78
:103578001F26000E20228C0E1F24D96E020E20203A
:10358800DA6E0800F5CFDFFF222A2250010D730EF4
:10359800F324F66E8E0EF420F76EF86A000EF82209
:1035A8000800F5500009D8A4D4D7000E226E17D011
:1035B8002250010D660EF324F66E8D0EF420F76E80
:1035C800F86A000EF8222250010DA00EF324D96EDD
:1035D800020EF420DA6E0800F5CFDFFF222A22500F
:1035E800010D660EF324F66E8D0EF420F76EF86A60
:1035F800000EF8220800F5500009D8B41200D8D7F8
:10360800000E1F6E17D01F50010DB90EF324F66E71
:103618008D0EF420F76EF86A000EF8221F50010D87
:10362800640EF324D96E020EF420DA6E0800F5CF8A
:10363800DFFF1F2A1F50010DB90EF324F66E8D0E01
:10364800F420F76EF86A000EF8220800F550000919
:10365800D8A4D9D7000E1F6E17D01F50010D9F0E8A
:10366800F324F66E8E0EF420F76EF86A000EF82238
:103678001F50010D780EF324D96E020EF420DA6E75
:103688000800F5CFDFFF1F2A1F50010D9F0EF324FE
:10369800F66E8E0EF420F76EF86A000EF822080017
:1036A800F5500009D8A4D9D7000E1F6E17D01F50A7
:1036B800010DA90EF324F66E8D0EF420F76EF86A4C
:1036C800000EF8221F50010D8C0EF324D96E020E45
:1036D800F420DA6E0800F5CFDFFF1F2A1F50010D16
:1036E800A90EF324F66E8D0EF420F76EF86A000E1C
:1036F800F8220800F5500009D8A4D9D7C5EC3CF049
:1037080001C019F002C01AF01B6A1C6A1F50010D93
:103718008C0EF3241D6E020EF4201E6E7CEC29F034
:10372800000E1F6E17D01F50010D990EF324F66E70
:103738008D0EF420F76EF86A000EF8221F50010D66
:10374800A00EF324D96E020EF420DA6E0800F5CF2D
:10375800DFFF1F2A1F50010D990EF324F66E8D0E00
:10376800F420F76EF86A000EF8220800F5500009F8
:10377800D8B41200D8D7A098000E636E000E626EFF
:10378800000E0F01266F270E016E0F0E026E000E3F
:10379800046E000E036E000E066E020E056E75ECCA
:1037A8003AF0160E0F01396F9F0E0F01376F7B0E1F
:1037B8000F01366F000E096E0B0E096401D00ED092
:1037C8000950040D000EF324D96E0D0EF420DA6EA4
:1037D800DE6ADE6ADE6ADD6A092AEED7658C000ECB
:1037E8000F01386F6598659C6296000E0001EB6FBB
:1037F800000E0101346F000E0101366F000E356FA7
:1038080062B6F2D7010E0101926F010E0101916FAC
:10381800000E0101906F000E01018F6F000E010173
:10382800966F000E096E020E096401D02ED0095061
:10383800020DEE0EF324D96E000EF420DA6E000E9F
:10384800DE6E000EDD6E0950020D390EF324D96EBE
:10385800010EF420DA6E000EDE6E000EDD6E0950E9
:10386800010D690EF324D96E010EF420DA6E000EF4
:10387800DF6E0950010D660EF324D96E010EF42097
:10388800DA6E000EDF6E092ACED7080E0001EE6F41
:103898000D0E0001EF6F160E0F01266F0D0E0D01B4
:1038A800036F300E026F080E0D01016F040E0D013B
:1038B800006F0D01008F000E0001FE6F000E010168
:1038C8005F6F000E606F000E616F000E626F000E7A
:1038D80001018E6F000E0001FC6F1200000E016ED8
:1038E80017D00150010D880EF324F66E8D0EF420CA
:1038F800F76EF86A000EF8220150010D640EF324E9
:10390800D96E020EF420DA6E0800F5CFDFFF012A27
:103918000150010D880EF324F66E8D0EF420F76E1B
:10392800F86A000EF8220800F5500009D8A4D9D783
:10393800000E016E17D00150010D770EF324F66EBC
:103948008D0EF420F76EF86A000EF8220150010D72
:10395800780EF324D96E020EF420DA6E0800F5CF43
:10396800DFFF012A0150010D770EF324F66E8D0E4C
:10397800F420F76EF86A000EF8220800F5500009E6
:10398800D8A4D9D7000E016E17D00150010DF60E3C
:10399800F324F66E8C0EF420F76EF86A000EF82207
:1039A8000150010D8C0EF324D96E020EF420DA6E4C
:1039B8000800F5CFDFFF012A0150010DF60EF324B0
:1039C800F66E8C0EF420F76EF86A000EF8220800E6
:1039D800F5500009D8A4D9D7000E016E17D00150B0
:1039E800010D620EF324F66E8E0EF420F76EF86A5F
:1039F800000EF8220150010DA00EF324D96E020E1C
:103A0800F420DA6E0800F5CFDFFF012A0150010D1E
:103A1800620EF324F66E8E0EF420F76EF86A000E2E
:103A2800F8220800F5500009D8B41200D8D7800E43
:103A38000D013019D8A41200C00E0001EB6F8FD011
:103A4800A40E0001E86F8F0E0001E96F000E00015F
:103A5800ED6F120EEC6F12000D013251D8A447D051
:103A68000D013251020DA50EF324F66E8E0EF420D0
:103A7800F76EF86A000EF8220900F5CFE8F00A00A0
:103A8800F5CFE9F0020E0001E825016E000E0001F5
:103A9800E921026E01C0F6FF02C0F7FFF86A0E0EB8
:103AA800F76403D00800F55005D0F6CFE9FFF7CF4B
:103AB800EAFFEF500001EC6F030E0001E825016EEC
:103AC800000E0001E921026E01C0F6FF02C0F7FFF7
:103AD800F86A0E0EF76403D00800F55005D0F6CF4B
:103AE800E9FFF7CFEAFFEF500001ED6F1200000E7B
:103AF8000001EB6F1200040E0D01326128D00D0198
:103B08003251020D7B0EF324F66E8E0EF420F76E02
:103B1800F86A000EF8220900F5CFE8F00A00F5CFA0
:103B2800E9F0E8C0F6FFE9C0F7FFF86A0E0EF7649F
:103B380003D00800F55005D0F6CFE9FFF7CFEAFF2C
:103B4800EF50016E01500001EC6FED6B1200000E9A
:103B58000001EB6F1200000E0001EB6F12000D0167
:103B68003351010AD8B46CD7030AD8B475D7010AFF
:103B7800D8B4C1D7F0D7000E216E17D02150010D4F
:103B8800090EF324F66E8E0EF420F76EF86A000E16
:103B9800F8222150010D640EF324D96E020EF42090
:103BA800DA6E0800F5CFDFFF212A2150010D090E3A
:103BB800F324F66E8E0EF420F76EF86A000EF822E3
:103BC8000800F5500009D8A4D9D7000E216E17D0E7
:103BD8002150010D550EF324F66E8E0EF420F76E6B
:103BE800F86A000EF8222150010D780EF324D96EE0
:103BF800020EF420DA6E0800F5CFDFFF212A2150EB
:103C0800010D550EF324F66E8E0EF420F76EF86A49
:103C1800000EF8220800F5500009D8A4D9D7000EE4
:103C2800216E17D02150010D8A0EF324F66E8E0EE8
:103C3800F420F76EF86A000EF8222150010D8C0E60
:103C4800F324D96E020EF420DA6E0800F5CFDFFFF8
:103C5800212A2150010D8A0EF324F66E8E0EF420CF
:103C6800F76EF86A000EF8220800F5500009D8A48B
:103C7800D9D7C0EC3CF001C019F002C01AF01B6A99
:103C88001C6A21501F6E206A010E1F26000E20227A
:103C98008C0E1F241D6E020E20201E6E7CEC29F057
:103CA800120005C00AF00B6A0A500B6E0A6A065029
:103CB8000A123FD004C008F0083A0F0E0816085040
:103CC8000C0D050EF326000EF422100EF324D96E07
:103CD800020EF420DA6E0AC0DEFF0BC0DDFF55D0FD
:103CE80004C008F0083A0F0E081608500C0D070E0D
:103CF800F326000EF422100EF324D96E020EF420DF
:103D0800DA6E0AC0DEFF0BC0DDFF04C008F0083A17
:103D18000F0E081608500C0D090EF326000EF4229B
:103D2800100EF324D96E020EF420DA6E07C0DFFFFE
:103D38002CD004500F0B086E096A0950000AD8A449
:103D480024D00850000AD8B4B5D7010AD8B4C8D7C7
:103D58001CD0020EDCEC35F01200030EDCEC35F062
:103D68001200040EDCEC35F01200050EDCEC35F028
:103D78001200060EDCEC35F01200070EDCEC35F014
:103D88001200080EDCEC35F0120004380F0B086E38
:103D9800096A0950000AD8A412000850000AD8B4C9
:103DA800D8D7010AD8B4D9D7030AD8B4DAD7010AC0
:103DB800D8B4DBD7070AD8B4DCD7010AD8B4DDD722
:103DC800030AD8A41200DDD7096E0001F4510001DE
:103DD800F511D8B407D0F4C0D9FFF5C0DAFF000157
:103DE800DFBE12000001F6510001F711D8B407D068
:103DF800F6C0D9FFF7C0DAFF0001DFBE12008DC19F
:103E08000AF00001F969000E01018C6F000E010132
:103E18008B6F08C188FD09C189FD0AC18AFD0BC1E4
:103E28008BFD010E0D018C6F030E01018D6F49D0C2
:103E3800020E0D018C6F1200010E016E020E34ECA1
:103E480022F01200020E0D018C6F010E016E020E9F
:103E580034EC22F01200000E016E020E34EC22F057
:103E68001200020E0D018C6F000E016E020E34EC72
:103E780022F0120090EC2FF001012151F00B0509FE
:103E8800216F200E01012B6F000E01012C6F020E15
:103E98000A18D8A410D00101085101010911010123
:103EA8000A1101010B11D8B406D0000E016E020EE2
:103EB80034EC22F01200010E016E020E34EC22F0F6
:103EC80012000950010AD8B4B3D7030AD8B4B4D73A
:103ED800010AD8B4B7D7070AD8B4BDD7010AD8B4ED
:103EE800C0D77A0AD8A41200C5D7C7C101F0C8C183
:103EF80002F001D80AD00500FA6E0101BF51FD6E2B
:103F0800C051FE6EFF6AFA5012000009D8B40CD0F6
:103F180001010D51010D880EF324D96E010EF42014
:103F2800DA6EDE04D8A41AD00DC148F0010E496E2D
:103F3800000E4A6E482A03D0D89049364A36482E91
:103F4800FBD7491C4B6E4A1C4C6E4B50010178172D
:103F58004C50010179170BEC33F054D00DC148F0E7
:103F6800010E496E000E4A6E482A03D0D890493691
:103F78004A36482EFBD7010178514916010179517B
:103F88004A1649504A10D8A43BD0C7C101F0C8C14D
:103F980002F001D80AD00500FA6E0101B951FD6E90
:103FA800BA51FE6EFF6AFA50120001500210D8B4DE
:103FB80024D00DC148F0010E496E000E4A6E482A01
:103FC80003D0D89049364A36482EFBD749500101CC
:103FD80078134A500101791301012151F00B0609A8
:103FE800216F280E01012B6F000E01012C6F010EAD
:103FF8000D018C6F49EC04F005D00BEC33F002D0C6
:1040080049EC04F00001F9511200000E016E400E57
:10401800026E0D0E036E400E046E020EB7EC22F017
:1040280001C0F6F002C0F7F0F2C0F4F0F3C0F5F00A
:10403800000E01018D6F0001F969000E01018C6FFE
:10404800000E01018B6F000E0001F86F000E0101D8
:10405800576F000E586F000E596F000E5A6F000E02
:104068000101536F000E546F000E556F000E566F0E
:10407800010E0101876F000E0101796F000E786F44
:10408800000E01010D6F49D001010D51010D880E7F
:10409800F324D96E010EF420DA6E000EDF6EC7C16C
:1040A80001F0C8C102F001D80AD00500FA6E01017A
:1040B800BF51FD6EC051FE6EFF6AFA501200000932
:1040C800D8B427D0C7C101F0C8C102F001D80AD0BE
:1040D8000500FA6E0101B951FD6EBA51FE6EFF6A14
:1040E800FA50120001500210D8B413D00DC10CF0D0
:1040F800010E0D6E000E0E6E0C2A03D0D8900D36F0
:104108000E360C2EFBD70D50010178130E5001010D
:10411800791390EC2FF001010D2B01010D51D8A45A
:104128001200B2D720EE01F05E50D9265F50DA2295
:10413800DF50026E02500101355D000E3659D8A0DD
:1041480035C102F002500101355F000E365B000EEA
:10415800016E12D00150010D380EF324D96E0D0EE8
:10416800F420DA6E31C1E1FF32C1E2FFDFCFE7FFB1
:104178000101314B322B012A0250015CD8A0EAD749
:104188000101355101013611D8B432D020EE01F0C9
:104198005C50D9265D50DA22080EDF6E20EE02F060
:1041A8005C50D9265D50DA22380EDE6E0D0EDD6EBB
:1041B8005EC0D9FF5FC0DAFFDFBC0DD05CC0D9FF9D
:1041C8005DC0DAFF480EDF6E5CC0D9FF5DC0DAFF64
:1041D800000EDB8E12005CC0D9FF5DC0DAFF080E4E
:1041E800DF6E5CC0D9FF5DC0DAFF000EDB8E120007
:1041F80020EE01F05C50D9265D50DA22080EDF6E01
:1042080020EE02F05C50D9265D50DA22300EDE6EC8
:104218000D0EDD6E5CC0D9FF5DC0DAFF040EDF6EE7
:104228005CC0D9FF5DC0DAFF000EDB8E0101349F50
:104238000001FA51D8A4120045EC28F01200000E33
:10424800226E060E226401D0120022501A6E1B6ADA
:104258001A3A1B3AF00E1B161A500F0B1B12F00ECF
:104268001A16000E1A24206E010E1B20216E20C083
:1042780012F021C013F01C0E146E000E156E040E01
:10428800166EA3EC36F0770E1C18D8A421D0550E64
:104298001D18D8A41DD0330E1E18D8A419D022502A
:1042A8001F18D8A415D0040E2026000E212220C0E5
:1042B80012F021C013F022500C0D100EF324146ECE
:1042C800020EF420156E0C0E166EA3EC36F03FD0DD
:1042D80022500C0D100EF324016E020EF420026E13
:1042E80022C003F040EC06F01CD0020EDCEC35F0E6
:1042F8002ED0030EDCEC35F02AD0040EDCEC35F0C1
:1043080026D0050EDCEC35F022D0060EDCEC35F0BC
:104318001ED0070EDCEC35F01AD0080EDCEC35F0B8
:1043280016D02250000AD8B4E0D7010AD8B4E1D791
:10433800030AD8B4E2D7010AD8B4E3D7070AD8B435
:10434800E4D7010AD8B4E5D7030AD8B4E6D7222AB5
:1043580078D765980001EBBF3DD0010134AF0FD08D
:10436800020E0001FB6F01018F51D8B4F9EC2CF05B
:10437800000E0101916F000E0101926F120020EEF4
:1043880001F05C50D9265D50DA22080EDF6E20EE6F
:1043980002F05C50D9265D50DA22300EDE6E0D0E2A
:1043A800DD6E5CC0D9FF5DC0DAFF0C0EDF6E5CC04D
:1043B800D9FF5DC0DAFF000EDB8EEEC0D9FFEFC07B
:1043C800DAFF040EDF6EEEC0D9FFEFC0DAFF000E91
:1043D800DB8E12000D0130AF15D0010E0001FB6F0E
:1043E80001019051D8B4F9EC2CF0000E0101916F45
:1043F800000E0101926F0001FA51D8A4120045EC99
:1044080028F01200020E0001FB6F20EE01F05C5054
:10441800D9265D50DA22080EDF6E20EE02F05C50DD
:10442800D9265D50DA22300EDE6E0D0EDD6E5CC0D0
:10443800D9FF5DC0DAFF040EDF6E5CC0D9FF5DC036
:10444800DAFF000EDB8E000E0101916F000E0101F4
:10445800926F0001FA51D8A4120045EC28F012001E
:10446800066E0650D8A42BD020EE01F05C50D92659
:104478005D50DA22080EDF6E20EE02F05C50D9267D
:104488005D50DA22300EDE6E0D0EDD6E5CC0D9FF97
:104498005DC0DAFF0C0EDF6E5CC0D9FF5DC0DAFFCD
:1044A800000EDB8EEEC0D9FFEFC0DAFF040EDF6E20
:1044B800EEC0D9FFEFC0DAFF000EDB8E120001500C
:1044C800026E036AD890023603360650046E056AF7
:1044D800D89004360536D89004360536025004269E
:1044E80003500522D89004360536D8900436053690
:1044F800000E0424076E0D0E0520086E07C0D9FFB4
:1045080008C0DAFF000EDB8407C0D9FF08C0DAFF55
:10451800000EDB8E0650040DF3CF02F0F4CF03F04B
:104528000150020DF3500226F4500322D8900236AF
:104538000336D89002360336040E0226000E0322F4
:10454800000E0224076E0D0E0320086E07C0D9FF67
:1045580008C0DAFF000EDB8407C0D9FF08C0DAFF05
:10456800000EDB8E1200096E0150D8B407D0095036
:10457800020DEE0EF324D96E000E06D00950020D7E
:10458800390EF324D96E010EF420DA6EDECF0AF06C
:10459800DDCF0BF00A500B10D8A405D0000E016E29
:1045A800000E026E120020EE02F00A50D9260B50BF
:1045B800DA2202C0DEFF03C0DDFF20EE01F00A5060
:1045C800D9260B50DA2204C0DFFF0AC0D9FF0BC07E
:1045D800DAFF400EDF160AC0D9FF0BC0DAFF000E63
:1045E800DB860AC0D9FF0BC0DAFF000EDB8E015054
:1045F800D8B418D00950020DEE0EF324D96E000E6F
:10460800F420DA6EDECF05F0DDCF06F0040E0518D3
:10461800076E0650086E0950020DEE0EF324D96E8F
:10462800000E17D00950020D390EF324D96E010E71
:10463800F420DA6EDECF05F0DDCF06F0040E0518A3
:10464800076E0650086E0950020D390EF324D96E14
:10465800010EF420DA6E07C0DEFF08C0DDFF0AC0D5
:1046680001F00BC002F012000B500C100D100E10D0
:10467800D8A402D0010E01D0000E116E0001F80579
:10468800D8A405D01104D8A402D0000E12000B50F3
:10469800010108191FE10C50010109191BE10D5016
:1046A80001010A1917E10E5001010B19D8A412D003
:1046B80001018D05D8A407D02A0E0001F919D8B434
:1046C80009D0000E12002A0E0001F919D8A402D050
:1046D800000E1200010108510B5C010109510C5830
:1046E80001010A510D5801010B510E58D8B002D0E2
:1046F800010E01D0000E0F6E020E01018D19D8A413
:1047080019D02A0E0001F919D8B405D01150D8A42F
:1047180002D0050E08D00001F805D8B414D0110451
:10472800D8A403D005D0106E1AD00F04D8A4F1D79E
:10473800040EF9D72A0E0001F919D8B40ED00001D9
:10474800F805D8A402D0010EEED71104D8B403D0CE
:104758000F04D8A402D0020EE6D7030EE4D71050F7
:10476800E8EC1EF0105012000D0130511F0BE80646
:10477800D8A412000D013451D8A41200060E0D0160
:104788003119D8B420D028D00001FE05D8A424D0EF
:10479800B90E0001E86F8E0E0001E96F000E0001EE
:1047A800ED6F090E0ED0C00E0001EB6F15D06D0E27
:1047B8000001E86F8F0E0001E96F000E0001ED6F38
:1047C8001D0EEC6FF0D70D013351210AD8B4DCD798
:1047D800030AD8B4ECD7010A0D013039E832030BCB
:1047E800E806D8A412002AD0B80E0001E86F010E1E
:1047F8000001E96F000E0001ED6F010EEC6FC10EB4
:104808000001EB6F1200800E0001EB6F33CDB8F1A1
:104818001200B70E0001E86F010E0001E96F000EEB
:104828000001ED6F010EEC6F810E0001EB6F1200BD
:10483800800E0001EB6F32CDB7F112000D0131513E
:10484800010AD8B41200030AD8B4CED7010AD8B4E2
:10485800E0D70A0AD8B41200030AD8B4D4D7010A98
:10486800D8A41200E5D767D00001E351D8B41200EC
:104878008B84000E0001E36F000E0101736F000EC0
:10488800726F010E0101836F12008C90000E0101FE
:10489800736F000E726F020E0101836F12003DEC00
:1048A8003BF0000E0101736F000E726F030E0101E1
:1048B800836F12000101724B732B0101735105E1E3
:1048C800040E0101725DD8A012004EEC3BF0000E00
:1048D8000101736F000E726F040E0101836F1200E5
:1048E80049EC3AF0960EF2EC3AF087EC3CF0000E08
:1048F8000101736F000E726F050E0101836F1200C4
:104908000001E251D8A40FD00001E351D8A40BD084
:104918000101722904E101017329D8B412000101CF
:10492800724B732B1200000E0101736F000E726F31
:104938009BEC2DF0120001018351000AD8B494D7E2
:10494800010AD8B4A2D7030AD8B4A9D7010AD8B49F
:10495800B1D7070AD8B4C4D7010AD8A41200D0D74F
:104968000D013039E832030B0009D8A4120050D0E9
:104978000001EB8F080E0001FC6F12001BEC1DF00C
:104988001200A6EC25F01200FE0E0001E86F000EE2
:104998000001E96F0001EB81010E0001EC6F0001DD
:1049A800EB8F12009CEC2AF01200DDEC0FF01200E5
:1049B8000D013451010DB50EF3240001E86F010E0D
:1049C800F4200001E96F0001EB81010E0001EC6F9A
:1049D8000001EB8F12000001EB8F0D013451010D26
:1049E800B50EF324D96E010EF420DA6E32CDDFFF56
:1049F8001200000E116E020E106E000E126E000EE6
:104A0800136E000E156E000E146E4DEC2FF0120092
:104A18000D013151000AD8B4C5D7010AD8B4C5D799
:104A2800020AD8B4C2D7060AD8B4A2D7030AD8B49F
:104A3800A5D7010AD8B4DDD70F0AD8B4A5D7010A7B
:104A4800D8B49FD7030AD8B4B3D7010AD8B4C3D708
:104A5800070A120021EEE8F010EEC8F0080EDBCFCE
:104A6800E3FFE806FCE2F5C1DAF0F6C1DBF0F7C1D6
:104A7800DCF0F8C1DDF021EEDFF010EED1F0080E29
:104A8800DBCFE3FFE806FCE2F1C1DEF0F2C1DFF0C4
:104A9800F3C1E0F0F4C1E1F023EE72F010EE60F043
:104AA800670EDBCFE3FFE806FCE2949495909596B9
:104AB8008C968C9495948A9293928A9493948A96DD
:104AC8009396958C9598959A959E8C8E92860F01C3
:104AD800489793800F01499992820F0148939284D5
:104AE8000F0148958B9E949E8D8496948D82969204
:104AF8008D809690898A929A92800F014881938C32
:104B0800938E000E0001E66F000E0001E76F9E9085
:104B1800FC0ECF6E000ECE6ECD80CD869EA0FED749
:104B2800CD90A6EC3CF025EC3CF070EC3BF023EC8F
:104B380021F080EC3BF0EDEC37F055EC36F08FECE3
:104B48003CF012000001EB8F270E016E0F0E026E73
:104B5800000E046E000E036E000E066E020E056E49
:104B680075EC3AF0000E016E0D0E026E000E046E2A
:104B7800000E036E000E066E300E056E75EC3AF0F0
:104B8800658C000E186E020E186401D016D01850ED
:104B9800010D690EF324D96E010EF420DA6E000EB1
:104BA800DF6E1850010D660EF324D96E010EF42045
:104BB800DA6E000EDF6E182AE6D7B50E016E010E0A
:104BC800026E000E046E000E036E000E066E020EDC
:104BD800056E75EC3AF0659C080E0001EE6F0D0E3F
:104BE8000001EF6F000E5E6E0D0E5F6E5EC05CF032
:104BF8005FC05DF032CDFEF00001FE51D8A404D0B4
:104C0800100E0001FC6F1200000E116E010E106EE6
:104C1800FE0E126E000E136E000E156E010E146E4F
:104C28004DEC2FF0200E0001FC6F12000D013051E9
:104C38001F0BE806D8A412000D013451D8A41200A5
:104C48005DD00D0132510D013311D8A412000D01B0
:104C580036510D013711D8A41200000E01018D6FD5
:104C68000001F969000E01018C6F000E01018B6FC4
:104C7800010E0101876F3DC10CF03EC10DF00C50D3
:104C88000D10D8B40AD03DC10EF03EC10FF00EC0D1
:104C9800D9FF0FC0DAFFDFBE0FD0000E016E400E45
:104CA800026E0D0E036E400E046E020EB7EC22F07B
:104CB80001C0F6F002C0F7F0800E0001EB6F1200A1
:104CC8000D0132510D013311D8A412000D01360522
:104CD8000D013711D8A41200000E0D01386F380EDF
:104CE8000001E86F0D0E0001E96F000E0001ED6F85
:104CF800010EEC6FC10E0001EB6F12000D01315176
:104D0800FE0AD8B4DDD7010AD8A412009AD7080E33
:104D1800016E0001ED5114E1080E0001EC5DD8B000
:104D28000FD0ECC001F001019851D8A402D0010EB7
:104D380005D001019805D8A403D0020E0101986F8F
:104D480001500001EC5F000EED5B000120EE01F068
:104D5800EE51D926EF51DA2201C0DFFF380E0101EA
:104D68007E6F0D0E01017F6F0001EBA11DD03CD0BD
:104D7800E8C0F6FFE9C0F7FFF86A7EC1D9FF7FC136
:104D8800DAFF0E0EF76403D00800F55005D0F6CF11
:104D9800E9FFF7CFEAFFEF50DF6E0001E84BE92BA0
:104DA80001017E4B7F2B01060150D8B41200E0D7D9
:104DB800E8C0F6FFE9C0F7FFF86A7EC1D9FF7FC1F6
:104DC800DAFF0E0EF76403D00800F55005D0F6CFD1
:104DD800E9FFF7CFEAFFEF50DF6E0001E84BE92B60
:104DE80001017E4B7F2B01060150D8B41200E0D799
:104DF8002EEC25F001EC34F00009D8A400EF48F0BF
:104E0800000E89EC35F0BFEC1BF0AEEC18F02FEC7F
:104E18003CF0D6EC09F092EC38F00001E551D8A44A
:104E2800F4D7FFEC31F037EC24F02AD0000E7CECFC
:104E380036F048D0010E7CEC36F044D0020E7CEC03
:104E480036F040D0030E7CEC36F03CD0040E7CECFF
:104E580036F038D0050E7CEC36F034D0E8EC3CF077
:104E6800050AD8A42FD00001E75116EC29F02AD062
:104E7800E8EC3CF0050AD8A425D06FEC32F022D03B
:104E88000001E451070B586E596A5950000AD8A41A
:104E980019D05850000AD8B4C9D7010AD8B4CAD70B
:104EA800030AD8B4CBD7010AD8B4CCD7070AD8B4E8
:104EB800CDD7010AD8B4CED7030AD8B4CFD7010AC0
:104EC800D8B4D6D7010E0001E56F9FD7EEC0D9FF41
:104ED800EFC0DAFF0001000EDFBC010E026E040E07
:104EE8000001EE190001EE6F0001EF510001EF6FB4
:104EF800080E0001FC19D8A40ED00D0132517F0B09
:104F08000F01386F0F013851D8B402D0100E01D0FC
:104F1800040E0001FC6F0001FB05D8A43CD0000181
:104F280020EE02F0EE51D926EF51DA22380EDE6E6D
:104F38000D0EDD6E8BEC26F0020E01019819D8A437
:104F48000DD0EEC0D9FFEFC0DAFF040EDF6EEEC061
:104F5800D9FFEFC0DAFF000EDB8E12000250D8A492
:104F68000DD0EEC0D9FFEFC0DAFF480EDF6EEEC0FD
:104F7800D9FFEFC0DAFF000EDB8E1200EEC0D9FFBA
:104F8800EFC0DAFF080EDF6EEEC0D9FFEFC0DAFF20
:104F9800000EDB8E1200010134AF02D00101349FF4
:104FA800000E0001FB6F1200000E0A6E000E0C6E60
:104FB80062D00C500124066E000E0220076E000E0F
:104FC8000320086E000E0420096E0950081004E141
:104FD800900E075CD8A018D00C500124066E000E65
:104FE8000220076E000E0320086E000E0420096ED2
:104FF80009500AE1F80E065CFF0E0758010E085822
:10500800D8B002D0000E29D00C500124066E000E34
:105018000220076E000E0320086E000E0420096EA1
:10502800095008E1F80E065CFF0E0758010E0858F3
:10503800D8A015D00C500124066E000E0220076E71
:10504800000E0320086E000E0420096E095007E1C7
:10505800020E085CD8B003D0010E0B6E01D00B68AD
:105068000B28D8A402D0FF0E12000B500A5CD8A05F
:105078000BC00AF00C2A05500C5CD8A09AD70A502D
:10508800120001019251D8A41200010E0101926F81
:1050980001019151D8A41200010E0101916F020E75
:1050A8000001FB19D8A416D0000120EE01F0EE5142
:1050B800D926EF51DA22000EDF6EEEC0D9FFEFC01D
:1050C800DAFF480EDF6EEEC0D9FFEFC0DAFF000E40
:1050D800DB8E12000001FB05D8A41200000E0101AE
:1050E800946F20EE01F05E50D9265F50DA22080E48
:1050F800DF6E20EE02F05E50D9265F50DA22300EC5
:10510800DE6E0D0EDD6E5EC0D9FF5FC0DAFF040EE5
:10511800DF6E5EC0D9FF5FC0DAFF000EDB8E010EC6
:105128000101946F20EE01F05C50D9265D50DA221F
:10513800080EDF6E20EE02F05C50D9265D50DA22B0
:10514800300EDE6E0D0EDD6E5CC0D9FF5DC0DAFF7D
:10515800800EDF6E120026D0800E1200020E1200A2
:10516800000E1200000E1200040E1200180E12009B
:105178000F0E1200010E1200010E1200000E120096
:10518800000E1200000E1200880E1200130E1200FC
:10519800000E1200000E1200550E1200AA0E120088
:1051A800000E120001C003F002C004F00450010A0E
:1051B800D8A4F6D70350BE0AD8B4CED7010AD8B4BB
:1051C800CDD77F0AD8B4CCD7010AD8B4CBD7030A35
:1051D800D8B4CAD7010AD8B4C9D7070AD8B4C8D727
:1051E800010AD8B4C7D7030AD8B4C6D7010AD8B4B5
:1051F800C5D70F0AD8B4C4D7010AD8B4C3D7030A8D
:10520800D8B4C2D7010AD8B4C1D7070AD8B4C0D70E
:10521800010AD8B4BFD7330AD8B4BED7010AD8B464
:10522800BDD7BED72B6E3AEC37F015D072EC1CF018
:105238003BD0D4EC16F038D0BFEC1DF035D046EC9E
:105248001AF032D0E8EC0CF02FD0C3EC17F02CD0C9
:1052580004EC1BF029D02B50F00B296E2A6A2A5037
:10526800000AD8A421D02950000AD8B4DFD7100AE0
:10527800D8B4DFD7300AD8B4DFD7100AD8B4DFD70C
:10528800700AD8B4DFD7100AD8B4DFD7300AD8B438
:10529800DFD70AD02E0E0201756F2E0E0201746F31
:1052A8002E0E0201736F15D00001E439E842070B96
:1052B800030B296E2A6A2A50000AD8A40AD029505A
:1052C800010AD8B4EDD7030AD8B4E7D7010AD8B48D
:1052D800E1D7F2AE03D0490E0201766F0001E35127
:1052E800800A7F0FD8A01200580E0201B36F120077
:1052F8001DC011F01EC012F019C013F01AC014F02E
:10530800000E166E0A0E156E0FEC38F01C501B10AE
:1053180006E1100E195C270E1A58D8A00AD020EE04
:1053280005F01D50D9261E50DA22200EDF6E050E1C
:1053380012001C501B1006E1E80E195C030E1A58E7
:10534800D8A00AD020EE04F01D50D9261E50DA222B
:10535800200EDF6E040E12001C501B101A1004E100
:10536800640E195CD8A00AD020EE03F01D50D9268F
:105378001E50DA22200EDF6E030E12001C501B1086
:105388001A1004E10A0E195CD8A00AD020EE02F027
:105398001D50D9261E50DA22200EDF6E020E120092
:1053A80020EE01F01D50D9261E50DA22200EDF6EA5
:1053B800010E1200000E376E000E396E120E386E96
:1053C800395056E1160E385CD8B052D0000E3B6EFC
:1053D800000E3A6E020E3B5CD8B047D038C014F0CD
:1053E80039C015F03AC016F03BC017F0000E196E20
:1053F8000B0E186E2C0E1A6E000E1B6E8AEC31F016
:105408002C50D8A402D0FF0E1200E50E2C18D8B4E8
:1054180026D028C001F029C002F02C0E036E000E21
:10542800046E000E066E080E056ED3EC2FF00150C8
:105438000210D8A414D02AC001F02BC002F0340EF8
:10544800036E000E046E000E066E030E056ED3EC9E
:105458002FF001500210D8A402D037501200372A7A
:10546800200E3A26000E3B22B5D7384A392AA8D74B
:10547800FF0E1200480EF66E650EF76E000EF86EFF
:1054880003EE72F010EE68F00900F5CFEEFFE5507C
:10549800E150FAE1E40EF66E700EF76E000EF86E4B
:1054A80001EEB9F010EE40F00900F5CFEEFFE5503F
:1054B800E150FAE1DE0EF66E790EF76E000EF86E28
:1054C8000900F5CFFFF003EEDAF012EE00F0EE6A15
:1054D800E550E150FCE1E250FAE108EE00F014EE8C
:1054E80000F0EE6AE550E150FCE1E250FAE103EE2B
:1054F80000F0720EEE6AE806FDE102EE00F0F40E2E
:10550800EE6AE806FDE101EE00F0B90EEE6AE80683
:10551800FDE100EEE2F01D0EEE6AE806FDE15F6ACD
:105528005E6A5D6A5C6A5B6A5A6A0001FCEF26F093
:10553800000E0D01386F000E0D01396F3CD00001CF
:10554800EB8F01019705D8A442D00D0138833FD0D5
:105558000001EB8F3CD00001EB8F0D0134BF0BD065
:105568000D0134510F0B016E0150020D390EF32459
:10557800D96E010E0AD00D0134510F0B016E015086
:10558800020DEE0EF324D96E000EF420DA6EDECF93
:1055980002F0DDCF03F002C0D9FF03C0DAFFDFAEAF
:1055A80016D002C0D9FF03C0DAFFDFA410D0010E65
:1055B8000D01386F0CD00D0130511F0B000AD8B403
:1055C800BED7010AD8B4C4D7030AD8B4C4D70001D7
:1055D800EBAF1200380E0001E86F0D0E0001E96F05
:1055E8000001EB81020E0001EC6F1200000E0101B8
:1055F800986F000E0001FA6F000E0101906F000E07
:1056080001018F6F000E0101946F000E0001FB6F06
:10561800EEC0D9FFEFC0DAFF7F0EDF16040E0001DF
:10562800EE190001EE6F0001EF510001EF6FEEC0BF
:10563800D9FFEFC0DAFF7F0EDF16040E0001EE1966
:105648000001EE6F0001EF510001EF6F5CC0D9FF60
:105658005DC0DAFF7F0EDF16000E0001EB6F000E53
:105668000001ED6F000EEC6F000E0101346F000EAB
:105678000101366F000E356FB4EC24F0000E116E88
:10568800030E106E000E126E000E136E000E156ED5
:10569800000E146E4DEC2FF0ADEC21F01200B60E9A
:1056A800286E8F0E296EC70E2A6E8F0E2B6EDEECBB
:1056B80029F00001FF6F0001FF29D8B438D000019C
:1056C800FF51C6EC31F028C043F129C044F12AC08B
:1056D80045F12BC046F1000E0101716F000E706F8D
:1056E800000E0101476F000E486F000E496F000E53
:1056F8004A6F01014F69506951695269000E0101F1
:105708004B6F000E4C6F000E4D6F000E4E6F000E6B
:1057180001013F6F000E406F000E416F000E426F97
:10572800100E0001E66F100E0001E76F1200000E68
:105738000101436F000E446F000E456F000E466F67
:10574800000E0001E66F000E0001E76F12002D0E3B
:105758000101936FFDC01EF0FD0E1E16D8A444D0A3
:10576800FDC01EF0D8901E323F0E1E161E50040DAE
:10577800000EF3245E6E0D0EF4205F6E5EC05CF0CA
:105788005FC05DF0040E5C185C6E5D505D6E5EC0BF
:10579800D9FF5FC0DAFFDF30E8320F0B0D0AD8A45B
:1057A80020D0300E016E0D0E026E20EE02F05E501B
:1057B800D9265F50DA22DECF1EF0DDCF1FF01EC0E3
:1057C80003F01FC004F003500410D8A4200E056E87
:1057D800000E076E080E066E3EEC33F0FAEC2AF067
:1057E800120071EC33F012000001FD51FD0B040AA8
:1057F800D8A412006AEC27F012000150036E025080
:10580800046E056A066A03500101085D045001012F
:105818000959055001010A59065001010B59D8B020
:105828000ED0000E0D01886F000E896F000E8A6F72
:10583800000E8B6F08C176F109C177F112000101E2
:105848007651015C010177510258D8B004D001C0EB
:1058580076F102C077F101017651036E01017751AB
:10586800046E056A066A031E041E051E061E032A28
:10587800000E0422052206220101085103240D010D
:10588800886F0101095104200D01896F01010A5136
:1058980005200D018A6F01010B5106200D018B6F48
:1058A8001200000E296E000E286EDA0E2A6E030E04
:1058B8002B6E18EC3BF0000E2F6E000E2E6E020EB3
:1058C8002F5CD8B016D0DA0E2E24D96E030E2F20F6
:1058D800DA6E2EC001F02FC002F0AFEC28F02D6E6A
:1058E800DE502D18D8B402D0000E12002E4A2F2AEE
:1058F800E6D7000E296E010E286EDA0E2A6E030E08
:105908002B6E18EC3BF0000E2F6E000E2E6E020E62
:105918002F5CD8B016D0DA0E2E24D96E030E2F20A5
:10592800DA6E2EC001F02FC002F077EC12F02D6E67
:10593800DE502D18D8B402D0000E12002E4A2F2A9D
:10594800E6D7010E12000AC00EF00BC00FF00EC011
:1059580001F00FC002F00CC003F00DC004F0B3EC6E
:1059680035F001C00EF002C00FF0084A092A0E50A7
:105978000F10D8A4ECD708C0D9FF09C0DAFF000E71
:10598800DF6E0806D8A009060AC001F00BC002F0B5
:105998000CC003F00DC004F030EC38F00150106E6C
:1059A8000AC001F00BC002F00CC003F00DC004F0F7
:1059B800B3EC35F001C00AF002C00BF0090E106418
:1059C80002D0070E1026300E102608C0D9FF09C0D5
:1059D800DAFF10C0DFFF0806D8A009060A500B102E
:1059E800D8A4D2D7084A092A1200000E0101906FE4
:1059F800000E01018F6F020E0001FB19D8A41FD001
:105A080020EE01F05C50D9265D50DA22080EDF6ED8
:105A180020EE02F05C50D9265D50DA22380EDE6E98
:105A28000D0EDD6E5CC0D9FF5DC0DAFF480EDF6E7B
:105A38005CC0D9FF5DC0DAFF000EDB8E12000001EA
:105A4800EC510D01365D0001ED510D013759D8B00B
:105A580004D036CDECF037CDEDF08BEC26F000011C
:105A680020EE02F0EE51D926EF51DA22380EDE6E22
:105A78000D0EDD6EEEC0D9FFEFC0DAFF480EDF6E07
:105A8800EEC0D9FFEFC0DAFF000EDB8E1200130E56
:105A98000201B46FB50E016E020E026E100E036E97
:105AA800020E046E03500410D8A4200E056E000EDA
:105AB800076E0C0E066E3EEC33F0C10E016E020E40
:105AC800026E1C0E036E020E046E03500410D8A45E
:105AD800200E056E000E076E0C0E066E3EEC33F0BF
